:020000040800F2
:1000000000000220C51D0008151E0008151E00086E
:10001000151E0008151E0008151E0008000000002F
:10002000000000000000000000000000151E000895
:10003000151E000800000000151E00080D610008D4
:10004000151E0008151E0008151E0008151E0008C4
:10005000151E0008151E0008151E0008151E0008B4
:10006000151E0008151E0008151E0008151E0008A4
:10007000151E0008151E0008151E0008151E000894
:10008000151E0008151E0008151E0008151E000884
:10009000151E0008151E0008151E0008151E000874
:1000A000211B0008151E0008151E0008151E00085B
:1000B000151E0008151E0008151E0008151E000854
:1000C000151E0008151E0008151E0008151E000844
:1000D000151E0008151E0008151E0008151E000834
:1000E000151E0008151E0008151E0008151E000824
:1000F000151E0008151E0008151E0008151E000814
:10010000151E0008151E0008151E0008151E000803
:10011000151E0008151E0008151E0008151E0008F3
:10012000151E0008151E0008151E0008151E0008E3
:10013000151E00080000000000000000151E000849
:10014000151E0008151E0008151E0008151E0008C3
:10015000151E0008151E0008151E0008151E0008B3
:10016000151E0008151E0008151E0008151E0008A3
:10017000151E0008151E0008151E000800000000CE
:1001800000000000151E0008000000000000000034
:10019000151E00080000000000000000151E0008E9
:1001A000000000000000000000000000151E000814
:1001B000151E0008151E0008151E0008151E000853
:0401C000151E000800
:1001D00010B5054C237833B9044B13B10448AFF381
:1001E00000800123237010BDE0010020000000000A
:1001F000A4BA000808B5034B1BB103490348AFF389
:10020000008008BD00000000E4010020A4BA00083E
:10021000034613F8012B002AFBD1181A0138704746
:1002200001F0FF01102A2BDB10F0070F08D010F8A7
:10023000013B013A8B422DD010F0070F42B3F6D1AB
:10024000F0B441EA012141EA014122F007047FF0C4
:1002500000070023F0E80256083C85EA010586EA1B
:10026000010685FA47F5A3FA87F586FA47F6A5FA57
:1002700087F68EB9EED1F0BC01F0FF0102F0070263
:1002800032B110F8013B013A83EA010313B1F8D10E
:100290000020704701387047002D06BF35460338EF
:1002A000073815F0010F07D1013015F4807F02BF28
:1002B000013015F4C03F0130F0BC0138704700BF79
:1002C00081F0004102E000BF83F0004330B54FEA07
:1002D00041044FEA430594EA050F08BF90EA020F74
:1002E0001FBF54EA000C55EA020C7FEA645C7FEA07
:1002F000655C00F0E2804FEA5454D4EB5555B8BF2A
:100300006D420CDD2C4480EA020281EA030382EA9A
:10031000000083EA010180EA020281EA0303362D2C
:1003200088BF30BD11F0004F4FEA01314FF4801CFF
:100330004CEA113102D0404261EB410113F0004F11
:100340004FEA03334CEA133302D0524263EB4303C8
:1003500094EA050F00F0A780A4F10104D5F1200E66
:100360000DDB02FA0EFC22FA05F2801841F10001C1
:1003700003FA0EF2801843FA05F359410EE0A5F195
:1003800020050EF1200E012A03FA0EFC28BF4CF0C6
:10039000020C43FA05F3C01851EBE37101F000457C
:1003A00007D54FF0000EDCF1000C7EEB00006EEB89
:1003B0000101B1F5801F1BD3B1F5001F0CD3490813
:1003C0005FEA30004FEA3C0C04F101044FEA44526A
:1003D00012F5800F80F09A80BCF1004F08BF5FEAF1
:1003E000500C50F1000041EB045141EA050130BDD1
:1003F0005FEA4C0C404141EB0101013C28BFB1F5E3
:10040000801FE9D291F0000F04BF01460020B1FA2D
:1004100081F308BF2033A3F10B03B3F120020CDA00
:100420000C3208DD02F1140CC2F10C0201FA0CF0DE
:1004300021FA02F10CE002F11402D8BFC2F1200C43
:1004400001FA02F120FA0CFCDCBF41EA0C019040F9
:10045000E41AA2BF01EB0451294330BD6FEA040442
:100460001F3C1CDA0C340EDC04F11404C4F120022D
:1004700020FA04F001FA02F340EA030021FA04F33F
:1004800045EA030130BDC4F10C04C4F1200220FA96
:1004900002F001FA04F340EA0300294630BD21FAD4
:1004A00004F0294630BD94F0000F83F4801306BF9A
:1004B00081F480110134013D4EE77FEA645C18BF8E
:1004C0007FEA655C29D094EA050F08BF90EA020F25
:1004D00005D054EA000C04BF1946104630BD91EA1D
:1004E000030F1EBF0021002030BD5FEA545C05D120
:1004F0004000494128BF41F0004130BD14F580045F
:100500003CBF01F5801130BD01F0004545F0FE41D2
:1005100041F470014FF0000030BD7FEA645C1ABF07
:10052000194610467FEA655C1CBF0B46024650EA3E
:10053000013406BF52EA033591EA030F41F400216A
:1005400030BD00BF90F0000F04BF0021704730B5F0
:100550004FF4806404F132044FF000054FF00001C5
:1005600050E700BF90F0000F04BF0021704730B586
:100570004FF4806404F1320410F0004548BF40425B
:100580004FF000013EE700BF42004FEAE2014FEAB0
:1005900031014FEA02701FBF12F07F4393F07F4F8B
:1005A00081F06051704732F07F4208BF704793F08E
:1005B0007F4F04BF41F40021704730B54FF46074A1
:1005C00001F0004521F000411CE700BF50EA0102A4
:1005D00008BF704730B54FF000050AE050EA01024D
:1005E00008BF704730B511F0004502D5404261EBBD
:1005F00041014FF4806404F132045FEA915C3FF4FE
:10060000D8AE4FF003025FEADC0C18BF03325FEA9A
:10061000DC0C18BF033202EBDC02C2F1200300FA4B
:1006200003FC20FA02F001FA03FE40EA0E0021FA70
:1006300002F11444BDE600BF70B54FF0FF0C4CF45E
:10064000E06C1CEA11541DBF1CEA135594EA0C0F10
:1006500095EA0C0F00F0DEF82C4481EA030621EA4B
:100660004C5123EA4C5350EA013518BF52EA033586
:1006700041F4801143F4801338D0A0FB02CE4FF038
:100680000005E1FB02E506F00042E0FB03E54FF068
:100690000006E1FB03569CF0000F18BF4EF0010E60
:1006A000A4F1FF04B6F5007F64F5407404D25FEA5C
:1006B0004E0E6D4146EB060642EAC62141EA55510F
:1006C0004FEAC52040EA5E504FEACE2EB4F1FD0C51
:1006D00088BFBCF5E06F1ED8BEF1004F08BF5FEACF
:1006E000500E50F1000041EB045170BD06F0004681
:1006F00046EA010140EA020081EA0301B4EB5C042E
:10070000C2BFD4EB0C0541EA045170BD41F4801125
:100710004FF0000E013C00F3AB8014F1360FDEBF4A
:10072000002001F0004170BDC4F10004203C35DA26
:100730000C341BDC04F11404C4F1200500FA05F3A9
:1007400020FA04F001FA05F240EA020001F000424A
:1007500021F0004110EBD37021FA04F642EB0601C0
:100760005EEA430E08BF20EAD37070BDC4F10C04EA
:10077000C4F1200500FA04F320FA05F001FA04F2AE
:1007800040EA020001F0004110EBD37041F100019A
:100790005EEA430E08BF20EAD37070BDC4F12005A5
:1007A00000FA05F24EEA020E20FA04F301FA05F20D
:1007B00043EA020321FA04F001F0004121FA04F2B5
:1007C00020EA020000EBD3705EEA430E08BF20EA85
:1007D000D37070BD94F0000F0FD101F000464000BF
:1007E00041EB010111F4801F08BF013CF7D041EA41
:1007F000060195F0000F18BF704703F00046520045
:1008000043EB030313F4801F08BF013DF7D043EA15
:100810000603704794EA0C0F0CEA135518BF95EACB
:100820000C0F0CD050EA410618BF52EA4306D1D152
:1008300081EA030101F000414FF0000070BD50EA71
:10084000410606BF1046194652EA430619D094EAFB
:100850000C0F02D150EA013613D195EA0C0F05D1E5
:1008600052EA03361CBF104619460AD181EA030139
:1008700001F0004141F0FE4141F470014FF00000F1
:1008800070BD41F0FE4141F4780170BD70B54FF08C
:10089000FF0C4CF4E06C1CEA11541DBF1CEA13550C
:1008A00094EA0C0F95EA0C0F00F0A7F8A4EB0504EE
:1008B00081EA030E52EA03354FEA013100F08880E5
:1008C0004FEA03334FF0805545EA131343EA1263AE
:1008D0004FEA022245EA111545EA10654FEA002663
:1008E0000EF000419D4208BF964244F1FD0404F51C
:1008F000407402D25B084FEA3202B61A65EB030578
:100900005B084FEA32024FF480104FF4002CB6EB34
:10091000020E75EB030E22BFB61A754640EA0C00B4
:100920005B084FEA3202B6EB020E75EB030E22BFF4
:10093000B61A754640EA5C005B084FEA3202B6EB35
:10094000020E75EB030E22BFB61A754640EA9C00F4
:100950005B084FEA3202B6EB020E75EB030E22BFC4
:10096000B61A754640EADC0055EA060E18D04FEA82
:10097000051545EA16754FEA06164FEAC30343EA22
:1009800052734FEAC2025FEA1C1CC0D111F4801FEF
:100990000BD141EA00014FF000004FF0004CB6E7E8
:1009A00011F4801F04BF01430020B4F1FD0C88BF87
:1009B000BCF5E06F3FF6AFAEB5EB030C04BFB6EB92
:1009C000020C5FEA500C50F1000041EB045170BD85
:1009D0000EF0004E4EEA113114EB5C04C2BFD4EBB2
:1009E0000C0541EA045170BD41F480114FF0000E36
:1009F000013C90E645EA060E8DE60CEA135594EAB2
:100A00000C0F08BF95EA0C0F3FF43BAF94EA0C0FB4
:100A10000AD150EA01347FF434AF95EA0C0F7FF429
:100A200025AF104619462CE795EA0C0F06D152EA7D
:100A300003353FF4FDAE1046194622E750EA410661
:100A400018BF52EA43067FF4C5AE50EA41047FF472
:100A50000DAF52EA43057FF4EBAE12E74FF0FF3CD7
:100A600006E000BF4FF0010C02E000BF4FF0010CA8
:100A70004DF804CD4FEA410C7FEA6C5C4FEA430C21
:100A800018BF7FEA6C5C1BD001B050EA410C0CBF70
:100A900052EA430C91EA030F02BF90EA020F0020D2
:100AA000704710F1000F91EA030F58BF994208BF39
:100AB00090422CBFD8176FEAE37040F001007047F6
:100AC0004FEA410C7FEA6C5C02D150EA013C07D14D
:100AD0004FEA430C7FEA6C5CD6D152EA033CD3D098
:100AE0005DF8040B704700BF8446104662468C4692
:100AF0001946634600E000BF01B5FFF7B7FF0028C5
:100B000048BF10F1000F01BD4DF808EDFFF7F4FFED
:100B10000CBF012000205DF808FB00BF4DF808ED78
:100B2000FFF7EAFF34BF012000205DF808FB00BF9B
:100B30004DF808EDFFF7E0FF94BF012000205DF8BD
:100B400008FB00BF4DF808EDFFF7CEFF94BF012072
:100B500000205DF808FB00BF4DF808EDFFF7C4FF6B
:100B600034BF012000205DF808FB00BF4FEA410CB4
:100B70007FEA6C5C02D150EA013C0AD14FEA430C97
:100B80007FEA6C5C02D152EA033C02D14FF00000D4
:100B900070474FF0010070474FEA410212F5001212
:100BA00015D211D56FF47873B3EB625212D94FEAB4
:100BB000C12343F0004343EA505311F0004F23FA9E
:100BC00002F018BF404270474FF00000704750EAF3
:100BD000013005D111F0004008BF6FF000407047B0
:100BE0004FF00000704700BF4A0011D212F500120A
:100BF00011D20DD56FF47873B3EB62520ED44FEA75
:100C0000C12343F0004343EA505323FA02F07047F4
:100C10004FF00000704750EA013002D14FF0FF3032
:100C200070474FF0000070474FEA4102B2F1E043D5
:100C300024BFB3F5001CDCF1FE5C0DD901F0004CC3
:100C40004FEAC0024CEA5070B2F1004F40EB830013
:100C500008BF20F00100704711F0804F21D113F13F
:100C60003872BCBF01F00040704741F480114FEA78
:100C70005252C2F11802C2F1200C10FA0CF320FA01
:100C800002F018BF40F001004FEAC1234FEAD3231E
:100C900003FA0CFC40EA0C0023FA02F34FEA430388
:100CA000CCE77FEA625307D150EA01331EBF4FF011
:100CB000FE4040F44000704701F0004040F0FE402C
:100CC00040F40000704700BF38B5002200230446FE
:100CD0000D46FFF723FF28B920462946BDE83840D6
:100CE00000F00AB8204605F1004100F005F8404246
:100CF00061EB410138BD00BFD0B50C4B0022064668
:100D00000F46FFF799FCFFF76FFF0446FFF71AFC49
:100D1000074B0022FFF790FC02460B46304639464F
:100D2000FFF7D2FAFFF760FF2146D0BD0000F03D8B
:100D30000000F04100000000B0B5EEB002AF4FF08F
:100D400000024FF00003C7E96A230023C7F8A4316B
:100D50003C23C7F8A031994C3B46184601F0D0FF20
:100D600007F5D873A3F5D873204619464FF4CE7310
:100D70001A4605F003FA914BD3F85831984700F022
:100D8000CBF900F0EBF98E4C3B46184601F0F4F934
:100D900007F5D873A3F5D8732046194690231A4651
:100DA00005F0ECF9874C3B46184601F051F907F580
:100DB000D873A3F5D8731D460FCD0FC495E807006F
:100DC00084E80700804C3B46184601F041F907F5DE
:100DD000D873A3F5D8731D460FCD0FC495E807004F
:100DE00084E80700794C3B46184601F031F907F5D5
:100DF000D873A3F5D8731D460FCD0FC495E807002F
:100E000084E80700724C3B46184601F021F907F5CB
:100E1000D873A3F5D8731D460FCD0FC495E807000E
:100E200084E807006B4B03221A706B4B00221A7088
:100E30006A4B00221A806A4B00221A705F4BDB6EED
:100E400019465E4BDB6E03F11402664C38460023F4
:100E5000019301230093022300F0DEFF07F5D8730E
:100E6000A3F5D872234607CA83E80700534B1A6DCF
:100E70005D4C3B461146184601F01EFB07F5D87342
:100E8000A3F5D8731D460FCD0FC40FCD0FC495E841
:100E9000070084E80700494BD3F830319847474BA7
:100EA000D3F838319847454BD3F83C319847434BFA
:100EB000D3F8E03001209847404BD3F808313F4A3F
:100EC000D2F8DC205032494910469847484B00225E
:100ED0001A603F4B9B69464A126811463C48984746
:100EE0003B4BDB6803F00203002B21D0384B1B691E
:100EF00003F00103002B1BD0324B9B692F4A526B2E
:100F0000126911462F4898472F4B9B692B4A126D47
:100F1000126911462C4898472C4B9B69274AD26E80
:100F200012691146294898472F4B9B6A9847D4E08D
:100F3000274B1B6903F00203002B00F09E80244B1B
:100F40005B6903F00103002B00F09780264B5B6A7E
:100F5000002101209847244B5C69194BD3F88C3051
:100F6000164AD2F8DC2050321146224898470346F0
:100F70001846A0471C4B5B6A042101209847D7F80C
:100F8000A031D7F8A4219A4236D20C4BD3F8403185
:100F9000984753EC102BD7E96A01FFF797F90246FF
:100FA0000B46C7E96A23054BD3F844319847D7F875
:100FB000A4310133C7F8A4318FE000BFFC01002049
:100FC000980300202804002044040020600400202E
:100FD0007C040020D4040020E0040020E20400206F
:100FE000E404002098040020A4040020435542009B
:100FF000D0040020C0BA0008D7F8A001FFF7B2FA69
:1010000002460B46D7E96A01FFF740FC02460B4651
:10101000C7E96A233CA3D3E90023D7E96A01FFF7B4
:1010200035FC02460B461046194639A3D3E9002386
:10103000FFF74AF902460B46104619464FF00002E8
:10104000294BFFF743F902460B46C7E96A23274BB2
:101050009C69274BD3F88C50D7E96A01FFF7C4FD90
:101060000346DF2219462348A847034607211846AE
:10107000A0470023C7F8A4312FE01F4B9B6803F063
:101080000203002B1AD01C4B1B6903F00103002B39
:1010900014D0164B5B6A002101209847134B5C6902
:1010A000134BD3F88C30154AD2F8DC20503211465D
:1010B0001348984703461846A0470EE00E4B5B695D
:1010C00003F00203002B08D00B4B5B6903F0010314
:1010D000002B02D000F082F800BF0A4B1B680133DE
:1010E000084A1360F5E600BF00003940A404002060
:1010F00098030020C4BA00087C040020FC010020F2
:10110000C0BA0008D0040020CDCCCCCCCCCC084058
:10111000638C31C61803734080B500AF0E4BDB689B
:101120001A6B0D4BDB6842F007021A630A4B9B6B8C
:10113000052101209847084B1B6C0521002098478A
:10114000054B1B6F0D2100209847034B9B6F0D2112
:101150000120984700BF80BDFC01002080B400AF93
:101160001D4BDB685A6C1C4BDB6842F480325A64BE
:10117000194BD3F818311A68174BD3F8183142F0CD
:1011800080721A60144BD3F828314BF2DF12DA6206
:10119000114BD3F8283141F66A525A630E4BD3F8FB
:1011A000283114229A620C4BD3F82831DA680A4BA2
:1011B000D3F8283142F00302DA60074BD3F8283124
:1011C0001A68054BD3F8283142F081021A6000BF3B
:1011D000BD465DF8047B7047FC010020F0B585B08A
:1011E00004AF704B1B78013B082B00F26B8401A20B
:1011F00052F823F019120008DF120008D513000876
:10120000E714000801160008DF160008F5170008AB
:10121000D3180008E9190008634B5B6A002100201D
:101220009847614B9B69102160489847604BD3F801
:101230000431604898475C4B5B6A00210320984763
:10124000594B9C695C4BD3F88C505A4B1B78184611
:10125000584B5B781E46574B9B789C46554BDB782A
:101260001A46544B1B791946524B5B7902930191F4
:1012700000926346324601465048A8470346112172
:101280001846A0474A4BD3F868414D4B58694C4B20
:1012900019694C4B1B880D22A04703464A4A13602C
:1012A000494B1B68052B06D9474B1B680A2B02D8F4
:1012B0003C4B02221A70444B1B680A2B06D9424B46
:1012C0001B681D2B02D8374B04221A703E4B1B683B
:1012D000282B40F2F983334B03221A70F4E3324B8C
:1012E0005B6A0021002098472F4B9B6910213748EB
:1012F00098472F4BD3F800312E4898472A4B5B6A0A
:10130000002103209847284B9C692B4BD3F88C5025
:10131000284B5B791846274B9B791E46254BDB787B
:101320009C46244B1B791A46224B1B781946214BAD
:101330005B7802930191009263463246014624484D
:10134000A847034611211846A047194BD3F8684116
:101350001B4B58691A4B19691A4B1B880D22A04761
:101360000346194A1360184B1B68052B06D9164B08
:101370001B680A2B02D80B4B01221A70124B1B68F8
:101380000A2B06D9104B1B681D2B02D8054B0722D0
:101390001A700D4B1B68282B40F29883014B0322D7
:1013A0001A7093E3D4040020A4040020CCBA0008EF
:1013B000FC010020E804002098030020D4BA0008B3
:1013C00060040020E2040020DC040020ECBA0008E5
:1013D000F4BA00087B4B5B6A002100209847794BE8
:1013E0009B690A2178489847784BD3F800317848B0
:1013F0009847744B5B6A002102209847714B9C69A7
:10140000744BD3F88C50724B5B791846704B9B79B8
:101410001E466F4BDB789C466D4B1B791A466C4B16
:101420001B7819466A4B5B780293019100926346E0
:10143000324601466848A847034611211846A0478E
:10144000624BD3F80431624898475E4B5B6A0021D7
:10145000032098475B4B9C695E4BD3F88C505C4BE8
:101460001B7818465A4B5B781E46594B9B789C4616
:10147000574BDB781A46564B1B791946544B5B7910
:101480000293019100926346324601465348A847B1
:10149000034611211846A0474C4BD3F86841504BE6
:1014A00058694F4B19694F4B1B880D22A0470346C3
:1014B000282B40F20D83434B5B6A002102209847A2
:1014C000404B9B691121484898473E4B5B6A00217D
:1014D000032098473B4B9B690F2143489847434B58
:1014E00001221A70F4E2374B5B6A00210020984712
:1014F000344B9B6910213E489847344BD3F86841E0
:10150000374B5869364B1969364B1B880D22A0475B
:101510000346384A1360374B1B68002B23D0354BEA
:101520001B68052B1FD8344B1B780133DAB2324BC2
:101530001A70314B1B78172B02D92F4B00221A70CF
:10154000204B5B6A0021022098471E4B9C69214B6F
:10155000D3F88C30284A1278114628489847034619
:1015600010211846A047234B1B680A2B10D9214B8A
:101570001B68132B0CD8134B5B6A00210220984781
:10158000104B9B69102118489847184B05221A7078
:10159000184B1B68132B40F29D820A4B5B6A00219B
:1015A00002209847074B9B6910210F4898470F4B23
:1015B00001221A70054BD3F8F4300F4A1278104606
:1015C000984787E2A40400200CBB0008FC0100201F
:1015D000E804002098030020F4BA0008D4BA0008F8
:1015E00060040020E204002018BB0008D40400209E
:1015F0001CBB0008DC040020D50400202CBB000824
:101600006E4B5B6A0021002098476C4B9B69102150
:101610006B4898476B4BD3F868416B4B58696A4BE2
:1016200019696A4B1B880D22A0470346684A13605C
:10163000674B1B68002B23D0654B1B68052B1FD8FD
:10164000644B1B780133DAB2624B1A70614B1B7822
:101650003B2B02D95F4B00221A70584B5B6A00216A
:1016600002209847554B9C695B4BD3F88C30594A04
:101670001278114659489847034610211846A0474A
:10168000534B1B680A2B10D9514B1B68132B0CD8DA
:101690004A4B5B6A002102209847484B9B69102106
:1016A0004F4898474F4B06221A70494B1B68132B23
:1016B00040F21282414B5B6A0021022098473F4B67
:1016C0009B69102146489847464B01221A703D4BB2
:1016D000D3F8F8303F4A127810469847FCE1374B70
:1016E0005B6A002100209847344B9B6910213E48DB
:1016F0009847344BD3F86841334B5869324B1969DA
:10170000324B1B880D22A0470346314A1360304BF1
:101710001B68002B23D02E4B1B68052B1FD8334B87
:101720001B780133DAB2314B1A70304B1B783B2BEC
:1017300002D92E4B00221A70204B5B6A0021022036
:1017400098471E4B9C69244BD3F88C30274A12785B
:10175000114627489847034610211846A0471C4BBE
:101760001B680A2B10D91A4B1B68132B0CD8134B70
:101770005B6A002102209847104B9B691021184892
:101780009847184B01221A70114B1B68132B40F21B
:10179000A5810A4B5B6A002102209847074B9B6991
:1017A00010210F4898470F4B01221A70054BD3F8B0
:1017B000FC300E4A1278104698478FE1A4040020AE
:1017C00038BB0008FC01002060040020E204002077
:1017D000DC040020D60400209803002048BB000849
:1017E00018BB0008D404002054BB0008D704002014
:1017F00068BB00086E4B5B6A0021002098476C4B69
:101800009B6910216B4898476B4BD3F868416B4B31
:1018100058696A4B19696A4B1B880D22A047034619
:10182000684A1360674B1B68002B23D0654B1B680D
:10183000052B1FD8644B1B780133DAB2624B1A7048
:10184000614B1B78632B02D95F4B00221A70584BF7
:101850005B6A002102209847554B9C695B4BD3F88B
:101860008C30594A1278114659489847034610213E
:101870001846A047534B1B680A2B10D9514B1B68C5
:10188000132B0CD84A4B5B6A002102209847484B27
:101890009B6910214F4898474F4B08221A70494BBB
:1018A0001B68132B40F21C81414B5B6A0021022014
:1018B00098473F4B9B69102146489847464B022268
:1018C0001A703D4BD3F8F0303F4A127810469847D3
:1018D00006E1374B5B6A002100209847344B9B6937
:1018E00010213E489847344BD3F86841334B586930
:1018F000324B1969324B1B880D22A0470346314AEF
:101900001360304B1B68002B23D02E4B1B68052B1C
:101910001FD8334B1B780133DAB2314B1A70304B7E
:101920001B780C2B02D92E4B01221A70204B5B6ABC
:101930000021022098471E4B9C69244BD3F88C3021
:10194000274A12781146274898470346102118461F
:10195000A0471C4B1B680A2B10D91A4B1B68132B72
:101960000CD8134B5B6A002102209847104B9B69EF
:10197000102118489847184B09221A70114B1B6800
:10198000132B40F2AF800A4B5B6A0021022098477C
:10199000074B9B6910210F4898470F4B02221A7082
:1019A000054BD3F8E8300E4A12781046984799E074
:1019B000A404002074BB0008FC0100206004002087
:1019C000E2040020DC040020D8040020980300205A
:1019D00080BB000818BB0008D404002088BB0008A6
:1019E0000000002094BB0008424B5B6A00210020ED
:1019F0009847404B9B6910213F4898473F4BD3F88D
:101A000068413F4B58693E4B19693E4B1B880D227C
:101A1000A04703463C4A13603B4B1B68002B23D076
:101A2000394B1B68052B1FD8384B1B780133DAB2B2
:101A3000364B1A70354B1B781F2B02D9334B0122C2
:101A40001A702C4B5B6A002102209847294B9C6935
:101A50002F4BD3F88C302D4A127811462D489847D9
:101A6000034610211846A047274B1B680A2B10D9A4
:101A7000254B1B68132B0CD81E4B5B6A00210220E0
:101A800098471C4B9B69102123489847234B0222FF
:101A90001A701D4B1B68132B26D9164B5B6A00214D
:101AA00002209847134B9B6910211B4898471B4BFA
:101AB00002221A70114BD3F8E430144A12781046FF
:101AC000984711E000BF10E000BF0EE000BF0CE03F
:101AD00000BF0AE000BF08E000BF06E000BF04E06E
:101AE00000BF02E000BF00E000BF00BF0437BD46FA
:101AF000F0BD00BFA40400209CBB0008FC01002036
:101B000060040020E2040020DC040020010000202A
:101B100098030020A8BB000818BB0008D4040020CC
:101B200080B500AF364BD3F828311B6903F00103B1
:101B3000002B50D0324BD3F828311A69304BD3F8F0
:101B4000283122F001021A612E4B1B78002B1ED087
:101B50002B4B9B6C202098472B4B5B682B4A92F9B0
:101B60000010CAB2013AD2B250B2284A1070012213
:101B70008A40D2B2D243D2B210469847234B93F94F
:101B80000030002B21DA1F4B00221A701DE01C4B85
:101B9000DB6C202098471C4B5B681C4A92F90010B4
:101BA000CAB20132D2B250B2184A107001228A4031
:101BB000D2B2D243D2B210469847144B93F90030B8
:101BC000072B02DD0F4B01221A70114B1B880133CA
:101BD0009AB20F4B1A800A4BD3F828311B6903F0D5
:101BE0000203002B09D0064BD3F828311A69044BA5
:101BF000D3F8283122F002021A6100BF80BD00BF75
:101C0000FC010020E404002098040020E0040020EF
:101C1000E204002080B400AF01231846BD465DF801
:101C2000047B704780B582B000AF7860396004F003
:101C30007BFA034616221A604FF0FF331846083726
:101C4000BD4680BD80B582B000AF78604FF0FF31F7
:101C50007868FFF7E7FFFEE780B586B000AFF86071
:101C6000B9607A6000237B610AE0AFF3008001462F
:101C7000BB685A1CBA60CAB21A707B6901337B61B7
:101C80007A697B689A42F0DB7B6818461837BD4654
:101C900080BD80B586B000AFF860B9607A6000237F
:101CA0007B6109E0BB685A1CBA601B781846AFF329
:101CB00000807B6901337B617A697B689A42F1DB42
:101CC0007B6818461837BD4680BD80B483B000AF2E
:101CD00078604FF0FF3318460C37BD465DF8047B43
:101CE000704780B483B000AF786039603B684FF4D0
:101CF00000525A60002318460C37BD465DF8047B3D
:101D0000704780B483B000AF7860012318460C3769
:101D1000BD465DF8047B704780B485B000AFF860C5
:101D2000B9607A60002318461437BD465DF8047B1D
:101D30007047000080B586B000AF7860144A154B3C
:101D4000D31A7B617B693B61134B1B68002B02D16B
:101D5000114B124A1A60104B1A687B6813443A6997
:101D60009A4207D204F0E0F903460C221A604FF0C1
:101D7000FF3309E0084B1B68FB60074B1A687B6860
:101D80001344054A1360FB6818461837BD4680BDEA
:101D9000000002200004000000050020F8080020D8
:101DA00080B400AF064BD3F88830054A43F4700383
:101DB000C2F8883000BFBD465DF8047B704700BFA5
:101DC00000ED00E0DFF834D00D480E490E4A002344
:101DD00002E0D458C4500433C4188C42F9D30B4ADF
:101DE0000B4C002301E013600432A242FBD3FFF747
:101DF000D7FF04F09FF9FEF79FFF70470000022015
:101E000000000020DC01002090C00008E00100205C
:101E1000F8080020FEE7000090B488B000AFF8603A
:101E2000B9607A60FB70384ABB681360374A7B68D8
:101E30001360374AFB781370364A97F828301370CE
:101E4000354A97F82C3013702F4B1B681A68FB78B3
:101E50005B000321994097F828305B00032000FACB
:101E600003F3194397F82C305B00032000FA03F3C7
:101E70000B43DB431946244B1B680A401A60224B74
:101E80001B681A68FB785B000121994097F828309D
:101E90005B00012000FA03F3194397F82C305B0034
:101EA000012000FA03F30B431946174B1B680A4342
:101EB0001A60164B1B681A68FB780121994097F845
:101EC0002830012000FA03F3194397F82C30012041
:101ED00000FA03F30B43DB4319460C4B1B680A4023
:101EE0001A600E4B7B610E4BBB610E4BFB61FB68B6
:101EF0001C4607F1140393E8070084E80700F8681C
:101F00002037BD4690BC704704050020080500201E
:101F10000C0500200D0500200E050020291F0008DB
:101F2000C11F00080520000880B483B000AF03463D
:101F3000FB71FB79002B0DD01E4B1B681A681E4BE2
:101F40001B78194601238B4019461A4B1B680A431C
:101F50001A600DE0174B1B681A68174B1B7819465F
:101F600001238B40DB431946124B1B680A401A6061
:101F7000104B1B681A68114B1B78194601238B40C4
:101F800019460C4B1B680A431A600A4B1B681A68F7
:101F90000A4B1B78194601238B40DB431946054B3E
:101FA0001B680A401A6000BF0C37BD465DF8047B11
:101FB000704700BF080500200C0500200D0500201B
:101FC00080B584B000AF0346FB710023FB730FE0C4
:101FD000FB7B012202FA03F35AB297F90730134050
:101FE0005BB2DBB21846FFF79FFFFB7B0133FB734D
:101FF000FB7B072BECD900F005F800BF1037BD467E
:1020000080BD000080B400AF0F4B1B681A680F4BF7
:102010001B78194601238B4019460B4B1B680A435A
:102020001A60094B1B681A68084B1B781946012374
:102030008B40DB431946044B1B680A401A6000BF03
:10204000BD465DF8047B7047080500200E050020A2
:10205000B0B48BB000AF78600023FB6000233B611D
:10206000084B7B627B681D4607F10C040FCC0FC543
:1020700094E8070085E8070078682C37BD46B0BCB7
:10208000704700BF8920000880B582B000AF78603B
:1020900039607B685A687B681A607B683A685A6066
:1020A000786800F019F802467B689A60786800F05A
:1020B00024F802467B68DA60786800F030F802465F
:1020C0007B681A61786800F040F802467B685A61C4
:1020D00000BF0837BD4680BD80B485B000AF7860D2
:1020E0007B681A687B685B681340FB60FB68184676
:1020F0001437BD465DF8047B704780B485B000AFEF
:1021000078607B681A687B685B681343FB60FB68D8
:10211000DB4318461437BD465DF8047B704780B436
:1021200085B000AF78607B681A687B685B68534055
:10213000FB607B685B68FA681340FB60FB681846CD
:102140001437BD465DF8047B704780B485B000AF9E
:1021500078607B685A687B681B685340FB607B68CB
:102160001B68FA681340FB60FB6818461437BD46CD
:102170005DF8047B7047000080B5A6B000AF7860C2
:102180000A4B002283F85F20094BBB67094BC7F855
:1021900094307B68184607F108039022194603F033
:1021A000EDFF78689837BD4680BD00BF1005002060
:1021B000012300087D24000880B485B000AF78605A
:1021C0000023FB6002E0FB680133FB60FB687A6878
:1021D00013441B78002BF6D1FB6818461437BD4614
:1021E0005DF8047B704780B586B000AF786000234F
:1021F0007B617868FFF7E0FF0346013B3B6117E036
:102200007B697A6813441B78FB733B697A681A44CC
:102210007B6979680B4412781A703B697A681344B9
:10222000FA7B1A707B6901337B613B69013B3B613F
:102230007A693B699A42E3DB00BF00BF1837BD46AD
:1022400080BD000080B487B000AFF860B96013466D
:10225000FB710023FB75FA68274B83FB021399106F
:10226000D317C91A0B469B000B445B00D11ACAB2A4
:10227000FB7D591CF9751946BB680B443032D2B24C
:102280001A7015E0FA681C4B83FB02139910D317E0
:10229000C91A0B469B000B445B00D11ACAB2FB7DE6
:1022A000591CF9751946BB680B443032D2B21A700A
:1022B000FB68114A82FB03129210DB17D31AFB60F2
:1022C000FB68002BDEDC07E0FB7D5A1CFA751A4622
:1022D000BB68134430221A70FA7DFB799A42F3D31B
:1022E000FB7DBA68134400221A70FB7D18461C3728
:1022F000BD465DF8047B70476766666600000000B7
:10230000B0B58AB000AF87ED020B78600B46FB706A
:102310000023FB774FF000024FF00003D7E90201E2
:10232000FEF7FCFB0346002B08D0BC68FB6883F07B
:102330000045C7E90845FF23BB7705E0D7E902233D
:10234000C7E908230123BB77D7E90801FEF74CFC56
:102350000346BB61B869FEF7F5F802460B46D7E9BC
:102360000801FDF7B1FF02460B46C7E90423BB692C
:10237000012279681846FFF765FF0346FB7797F956
:102380001E30002B08DAFB7F5A1CFA771A467B684E
:1023900013442D221A7007E0FB7F5A1CFA771A4665
:1023A0007B68134420221A70FB7F7A681344002252
:1023B0001A707868FFF717FFFB78002B30D0FB7896
:1023C000062B2DD8FB7F5A1CFA771A467B681344DC
:1023D0002E221A70FB781846FEF7B4F802460B4618
:1023E00043EC112B9FED220B08F040FC51EC100B3D
:1023F000D7E90423FEF720F902460B46104619469A
:10240000FEF7CAFBFB7F7A681344FA781946FFF798
:1024100019FFFB7F7A6813441846FFF7E4FE21E0BA
:10242000FB7F5A1CFA771A467B6813442E221A70D7
:102430004FF00002104BD7E90401FEF7FDF8024609
:102440000B4610461946FEF7A7FBFB7F7A6813443C
:1024500002221946FFF7F6FEFB7F7A6813441846FE
:10246000FFF7C1FE7B6818462837BD46B0BD00BFE8
:102470000000000000002440000059400FB480B567
:1024800082B000AF07F114033B603B683A695F21FB
:10249000084805F055FC78607B68002B01DA0023C2
:1024A00000E0044B18460837BD46BDE8804004B044
:1024B000704700BF10050020B0B5F6B000AFC7F8F8
:1024C000A401C7F8A011254C3B46184600F018FCA3
:1024D00007F5EC73A3F5EC73204619464FF4CE7361
:1024E0001A4603F04BFE1E4AD7F8A03113601D4B6D
:1024F000C7F8AC311C4BC7F8B0311C4BC7F8B4312E
:102500001B4BC7F8B8311B4BC7F8BC311A4BC7F887
:10251000C0311A4BC7F8C431194BC7F8C831194B31
:10252000C7F8CC31184BC7F8D031184BC7F8D431A5
:1025300000F02EF8D7F8A4311D4607F5D6740FCC5D
:102540000FC50FCC0FC594E8070085E80700D7F842
:10255000A40107F5EC77BD46B0BD00BF70050020B3
:102560000C070020E526000835290008092B000883
:10257000412B0008232B0008612B00088F2B00083B
:10258000EB2B0008112C0008312C0008BD2C000892
:1025900080B500AF504B1B681A684F4B1B6822F088
:1025A0003F021A604C4B1B681A684B4B1B6842F089
:1025B00015021A60484B1B68DA68474B1B6822F407
:1025C0007F42DA60444B1B68DA68434B1B6842F475
:1025D000AA42DA60404B1B681A683F4B1B6822F026
:1025E000C0021A603C4B1B68DA683B4B1B6822F048
:1025F000C002DA60384B1B68DA68374B1B6842F060
:102600004002DA60344B1B689B68334A126823F43B
:102610007F4323F03F0393602F4B1B689B682E4A38
:10262000126843F47F4343F03F0393602A4B1B68D7
:102630001B6903F00803294A1360294BD3F82031A2
:10264000142098470021382000F04CF8244BD3F890
:102650002431042098470021382000F043F8204B13
:10266000D3F824310A2098470021382000F03AF8A6
:1026700000F04AFA0021282000F034F800F044FA73
:102680000021282000F02EF800F03EFA00210C2056
:1026900000F028F800F038FA00210C2000F022F8B1
:1026A00000F032FA0021012000F01CF800F02CFAB2
:1026B0000021012000F016F800F026FA0021062083
:1026C00000F010F800F020FA0021062000F00AF8CF
:1026D00000F01AFA00BF80BD0C0700201007002090
:1026E0007005002080B582B000AF03460A46FB713A
:1026F0001346BB808D4BD3F890318D4A126801216F
:1027000010469847BB88002B08D0884BD3F88431FB
:10271000874A126800211046984707E0834BD3F898
:102720009031834A1268002110469847804B1B68FD
:102730001A687F4B1B6822F47F421A607C4B1B682F
:102740001A687B4B1B6842F4AA421A60774BD3F895
:102750008431774A126802211046984797F907306A
:10276000002B08DA714BD3F88431714A12680721C3
:102770001046984707E06D4BD3F890316C4A1268C9
:10278000072110469847FB7903F04003002B08D03F
:10279000664BD3F88431664A126806211046984782
:1027A00007E0624BD3F89031614A12680621104667
:1027B0009847FB7903F02003002B08D05B4BD3F83C
:1027C00084315B4A126805211046984707E0574B51
:1027D000D3F89031564A1268052110469847FB7984
:1027E00003F01003002B08D0504BD3F88431504A2B
:1027F000126804211046984707E04C4BD3F89031FB
:102800004B4A1268042110469847484BD3F8903140
:10281000474A1268022110469847444BD3F890313A
:10282000434A1268012110469847BB88002B08D004
:102830003E4BD3F884313E4A126800211046984737
:1028400007E03A4BD3F89031394A1268002110461C
:102850009847364BD3F88431354A12680221104626
:102860009847FB7903F00803002B08D02F4BD3F8CF
:1028700084312F4A126807211046984707E02B4BF6
:10288000D3F890312A4A1268072110469847FB79FD
:1028900003F00403002B08D0244BD3F88431244ADE
:1028A000126806211046984707E0204BD3F8903174
:1028B0001F4A1268062110469847FB7903F002036D
:1028C000002B08D0194BD3F88431194A126805211E
:1028D0001046984707E0154BD3F89031144A126818
:1028E000052110469847FB7903F00103002B08D01F
:1028F0000E4BD3F884310E4A1268042110469847D3
:1029000007E00A4BD3F89031094A126804211046B7
:102910009847064BD3F89031054A126802211046B9
:10292000984700BF0837BD4680BD00BF7005002036
:102930000C07002080B584B000AF0346FB80002365
:10294000BB600023FB736E4B1B681A686C4B1B68E3
:1029500022F47F421A606B4BD3F88431684A1268C4
:10296000012110469847FB88002B08D0654BD3F80F
:102970008431634A126800211046984707E0614B92
:10298000D3F890315E4A12680021104698475D4B9B
:10299000D3F884315A4A1268022110469847584B9E
:1029A0001B681B69BB60574BD3F89031544A1268BF
:1029B000022110469847BB6803F08003002B04D027
:1029C000FB7B63F07F03FB7303E0FB7B03F07F0380
:1029D000FB73BB6803F04003002B04D0FB7B43F088
:1029E0004003FB7303E0FB7B23F04003FB73BB68F6
:1029F00003F02003002B04D0FB7B43F02003FB7388
:102A000003E0FB7B23F02003FB73BB6803F01003A0
:102A1000002B04D0FB7B43F01003FB7303E0FB7B34
:102A200023F01003FB73374BD3F88431344A126818
:102A3000012110469847FB88002B08D0314BD3F872
:102A400084312F4A126800211046984707E02D4B29
:102A5000D3F890312A4A1268002110469847294B32
:102A6000D3F88431264A1268022110469847244B35
:102A70001B681B69BB60234BD3F89031204A126856
:102A8000022110469847BB6803F08003002B04D056
:102A9000FB7B43F00803FB7303E0FB7B23F008039D
:102AA000FB73BB6803F04003002B04D0FB7B43F0B7
:102AB0000403FB7303E0FB7B23F00403FB73BB689D
:102AC00003F02003002B04D0FB7B43F00203FB73D5
:102AD00003E0FB7B23F00203FB73BB6803F01003EE
:102AE000002B04D0FB7B43F00103FB7303E0FB7B73
:102AF00023F00103FB73FB7B18461037BD4680BDF6
:102B00000C0700207005002080B500AF00BF00203A
:102B1000FFF710FF03465BB2002BF8DB00BF00BFDE
:102B200080BD80B582B000AF0120FFF703FF0346F0
:102B3000FB71FFF7E9FFFB7918460837BD4680BDFA
:102B400080B582B000AF0346FB71FB7901211846C6
:102B5000FFF7C8FDFFF7D8FF00BF0837BD4680BDAF
:102B600080B584B000AF786008E07B685A1C7A605A
:102B70001B78FB73FB7B1846FFF7E2FF7B681B7833
:102B8000002BF2D100BF00BF1037BD4680BD80B51D
:102B900084B000AF786039600023FB600FE07B6891
:102BA0005A1C7A601B78FB72FB680133FB60FA6881
:102BB0003B689A4208D8FB7A1846FFF7C1FF7B684A
:102BC0001B78002BEBD107E000BF05E02020FFF7CA
:102BD000B7FFFB680133FB60FA683B689A42F5D3A4
:102BE00000BF00BF1037BD4680BD80B582B000AFCA
:102BF000786005E02020FFF7A3FF7B68013B7B6046
:102C00007B68002BF6D100BF00BF0837BD4680BDF2
:102C100080B500AF00210120FFF764FD034BD3F81E
:102C200020310220984700BF80BD00BF7005002002
:102C300080B582B000AF786039607B68032B37D8ED
:102C400001A252F823F000BF592C00086F2C000895
:102C5000852C00089B2C00083B68DBB2803BDBB274
:102C600000211846FFF73EFDFFF74EFF21E03B68CD
:102C7000DBB2403BDBB200211846FFF733FDFFF724
:102C800043FF16E03B68DBB26C3BDBB20021184629
:102C9000FFF728FDFFF738FF0BE03B68DBB22C3B6A
:102CA000DBB200211846FFF71DFDFFF72DFF00E006
:102CB00000BF00BF0837BD4680BD00BF80B582B0F1
:102CC00000AF0D4B1B681B6903F008037B600B4BC7
:102CD0001B687A6853403B603A687B6813403B60EE
:102CE0003B68002B01D0FFF753FC044A7B6813605C
:102CF00000BF0837BD4680BD0C070020100700202C
:102D000080B582B000AF7860984B00221A60984B73
:102D100000221A6097494FF000024FF00003C1E90A
:102D20000023954B954A1A60934B954A5A60924BF3
:102D3000944A9A60904B944ADA608F4B934A1A6196
:102D40008D4B934A5A618C4B924A9A618A4B924AB4
:102D5000DA61894B914A1A62874B914A5A62864BD3
:102D6000904A9A62844B904ADA62834B8F4A1A6384
:102D7000814B8F4A5A63804B8E4A9A637E4B8E4AB0
:102D8000DA637D4B8D4A1A647B4B8D4A9A647A4B89
:102D90008C4ADA64784B8C4A5A64774B8B4A1A65B2
:102DA000754B8B4A5A65744B8A4A9A65724B8A4AAC
:102DB000DA65714B894A5A666F4B894A9A666E4B3F
:102DC000884A1A666C4B884ADA666B4B874A1A67E0
:102DD000694B874A5A67684B864A9A67664B864AA8
:102DE000C3F88020644B854AC3F88420624B844A30
:102DF000DA67614B834AC3F888205F4B824AC3F885
:102E00008C205D4B814AC3F890205B4B804AC3F80D
:102E10009420594B7F4AC3F89C20574B7E4AC3F8F5
:102E2000A020554B7D4AC3F89820534B7C4AC3F8E9
:102E3000A420514B7B4AC3F8A8204F4B7A4AC3F8D1
:102E4000AC204D4B794AC3F8B0204B4B784AC3F8BD
:102E5000B820494B774AC3F8BC20474B764AC3F8A1
:102E6000B420454B754AC3F8C020434B744AC3F89D
:102E7000C420414B734AC3F8C8203F4B724AC3F881
:102E8000CC203D4B714AC3F8D4203B4B704AC3F869
:102E9000D820394B6F4AC3F8D020374B6E4AC3F85D
:102EA000DC20354B6D4AC3F8E020334B6C4AC3F845
:102EB000E420314B6B4AC3F8E8202F4B6A4AC3F831
:102EC000EC202D4B694AC3F8F0202B4B684AC3F81D
:102ED000F420294B674AC3F8F820274B664AC3F809
:102EE000FC20254B654AC3F80021234B644AC3F8F4
:102EF0000421214B634AC3F808211F4B624AC3F8DF
:102F00000C211D4B614AC3F810211B4B604AC3F8CA
:102F10001421194B5F4AC3F81821174B5E4AC3F8B6
:102F20001C21154B5D4AC3F82021134B5C4AC3F8A2
:102F30002421114B5B4AC3F828210F4B5A4AC3F88E
:102F40002C210D4B594AC3F830210B4B584AC3F87A
:102F50003421094B574AC3F83821074B564AC3F866
:102F60003C21054B554AC3F84021A9E0BC0800208C
:102F7000CC080020E008002014070020003C02409C
:102F80000030024000700040003802403D3200082E
:102F9000F9320008813300083D340008C1340008CC
:102FA00061370008C5380008193900086D39000874
:102FB00000000240913B0008393C0008E13C000859
:102FC000893D0008AD3D0008D13D000800040240E5
:102FD000B13E0008593F000801400008A940000820
:102FE000CD400008F140000800080240D14100082F
:102FF0007942000821430008C9430008ED43000856
:1030000011440008000C0240F1440008A9450008E2
:1030100061460008194700083D470008614700085D
:10302000001002405148000809490008C149000841
:10303000794A00089D4A0008C14A0008001C024065
:10304000B14B0008694C0008214D0008D94D00081B
:10305000FD4D0008214E000800280040114F0008D7
:10306000055300088552000821520008A1510008AC
:10307000F54F00088550000815510008E953000875
:1030800015550008815300080038014000600240D7
:103090000064024000E100E010E000E02160000870
:1030A00095600008004001400020014041560008A2
:1030B000D95600080157000829570008655700082D
:1030C000334B344AC3F84421314B334AC3F84821C7
:1030D0002F4B324AC3F84C212D4B314AC3F85021B3
:1030E0002B4B304AC3F85421294B2F4AC3F858219F
:1030F000274B2E4AC3F85C21254B2D4AC3F860218B
:10310000234B2C4AC3F86421214B2B4AC3F8682176
:103110001F4B2A4AC3F86C211D4B294AC3F8702162
:103120001B4B284AC3F87421194B274AC3F878214E
:10313000174B264AC3F87C21154B254AC3F880213A
:10314000134B244AC3F88421114B234AC3F8882126
:103150000F4B224AC3F88C210D4B214AC3F8902112
:103160000B4B204AC3F89421094B1F4AC3F89821FE
:1031700002F034FF7B68064A184611464FF4CE73BE
:103180001A4602F0FBFF78680837BD4680BD00BFD5
:1031900014070020C1570008F95700080023014018
:1031A0000010014021580008ED310008955B00082F
:1031B000C95B00080D5C0008B95C0008655D00088B
:1031C000895D0008AD5D0008E55D00081D5E000832
:1031D000C1390008133A0008373A0008533A00088A
:1031E000A73A0008CD3A0008F13A000880B584B04B
:1031F00002AF042301930823009302234FF4C87203
:103200000821002000F0ACFA002000F05BFB002356
:1032100001220121012000F053F9002000F00EF8F6
:10322000002000F069F80346FB71022000F0A8F8C6
:10323000FB7918460837BD4680BD000080B485B0D4
:1032400000AF78600123FB600123BB6048E07B682E
:10325000002B17D1FB68002B0AD0264BDB681A68BD
:10326000244BDB6842F001021A600023FB6037E068
:10327000204BDB681B6803F00203002B30D00023D7
:10328000BB602DE07B68012B17D1FB68002B0AD0B7
:10329000184BDB681A68174BDB6842F480321A60FF
:1032A0000023FB601CE0134BDB681B6803F4003356
:1032B000002B15D00023BB6012E07B68022B0DD1E0
:1032C000FB68002B07D00B4BDB681A68094BDB68E7
:1032D00042F480221A6001237B6001E000237B60BE
:1032E000BB68002BB3D100BF00BF1437BD465DF8EB
:1032F000047B70471407002080B483B000AF0346FE
:10330000FB711E4BDB689A681C4BDB6822F00302E2
:103310009A60FB79032B18D0032B1FDC012B02D002
:10332000022B09D01AE0154BDB689A68134BDB6857
:1033300042F001029A6012E0104BDB689A680F4B72
:10334000DB6842F002029A6009E00C4BDB689A6885
:103350000A4BDB6842F003029A6000E000BF074BB3
:10336000DB689B689B08DBB203F00303DBB2184603
:103370000C37BD465DF8047B704700BF1407002082
:1033800080B485B000AF78600123FB600123BB608F
:1033900048E07B68022B17D1FB68002B0AD0264B34
:1033A000DB685A6F244BDB6842F001025A67002346
:1033B000FB6037E0204BDB685B6F03F00203002B00
:1033C00030D00023BB602DE07B68012B17D1FB6858
:1033D000002B0AD0184BDB681A6F174BDB6842F0E2
:1033E00001021A670023FB601CE0134BDB681B6FB4
:1033F00003F00203002B15D00023BB6012E07B68B2
:10340000042B0DD1FB68002B07D00B4BDB681A6F28
:10341000094BDB6842F004021A6701237B6001E07C
:1034200002237B60BB68002BB3D100BF00BF143701
:10343000BD465DF8047B70471407002080B483B05C
:1034400000AF0346FB711D4BDB681A6F1B4BDB683B
:1034500022F440721A67FB79032B17D0032B1EDC72
:10346000012B0AD0022B1AD1144BDB681A6F134BB5
:10347000DB6842F400721A671AE0104BDB681A6FBF
:103480000E4BDB6842F480721A6711E00B4BDB686D
:103490001A6F0A4BDB6842F440721A6708E0074B68
:1034A000DB681A6F054BDB6842F480721A6700BF55
:1034B00000BF0C37BD465DF8047B70471407002041
:1034C00080B487B000AFF860B9607A603B60A24B0F
:1034D0007B61A24BDB6899687B69DA439F4BDB68B1
:1034E0000A409A603B68012B0BD93B681F2B08D818
:1034F0009A4BDB6899683B681A04984BDB680A436F
:103500009A607B68023B0E2B44D801A252F823F04C
:103510004D350008953500085F35000895350008E1
:103520009535000895350008713500089535000877
:103530009535000895350008953500089535000843
:10354000953500089535000883350008834BDB6806
:103550009A68824BDB6842F400429A601BE07F4B22
:10356000DB689A687D4BDB6842F420429A6012E087
:103570007A4BDB689A68794BDB6842F440429A6088
:1035800009E0764BDB689A68744BDB6842F4604272
:103590009A6000E000BFBB68023B0E2B44D801A23A
:1035A00052F823F0E135000829360008F335000809
:1035B0002936000829360008293600080536000893
:1035C000293600082936000829360008293600085F
:1035D0002936000829360008293600081736000861
:1035E0005E4BDB689A685D4BDB6842F480529A6000
:1035F0001BE05A4BDB689A68584BDB6842F4A052D8
:103600009A6012E0554BDB689A68544BDB6842F4D1
:10361000C0529A6009E0514BDB689A684F4BDB68F7
:1036200042F4E0529A6000E000BFFB68B3F5007F0F
:1036300000F08180FB68B3F5007F00F28580FB68B5
:10364000B3F5807F6ED0FB68B3F5807F7CD8FB68D4
:10365000802B5ED0FB68802B76D8FB68102B27D898
:10366000FB68022B70D3FB68023B0E2B6CD801A2C7
:1036700052F823F0B936000849370008CB36000865
:10368000493700084937000849370008DD36000887
:10369000493700084937000849370008493700080A
:1036A000493700084937000849370008EF36000855
:1036B000FB68402B24D047E0284BDB689A68274BF7
:1036C000DB6842F080029A603FE0244BDB689A6836
:1036D000224BDB6842F090029A6036E01F4BDB68B9
:1036E0009A681E4BDB6842F0A0029A602DE01B4BEB
:1036F000DB689A68194BDB6842F0B0029A6024E0FC
:10370000164BDB689A68154BDB6842F0C0029A6082
:103710001BE0124BDB689A68104BDB6842F0D0026A
:103720009A6012E00D4BDB689A680C4BDB6842F044
:10373000E0029A6009E0094BDB689A68074BDB6896
:1037400042F0F0029A6000E000BF00BF1C37BD46A7
:103750005DF8047B704700BFF0FC1F0014070020D9
:1037600080B487B000AFF860B9607A603B60524BBC
:103770007B61524BDB685968504BDB687A690A43BE
:103780005A607B6A012B0DD97B6A072B0AD84B4BF9
:10379000DB6859687B6A1B0763F0E042474BDB68D4
:1037A0000A405A603B6A012B0DD93B6A0F2B0AD89D
:1037B000424BDB6859683B6A1B0663F070623F4B03
:1037C000DB680A405A60FB68012B0BD13B4BDB687E
:1037D0005968FB689B0563F48002384BDB680A403C
:1037E0005A6007E0354BDB685A68344BDB6822F4DB
:1037F00080025A603B68023B062B33D801A252F884
:1038000023F000BF2138000865380008333800086D
:103810006538000845380008653800085738000842
:10382000264BDB685A68254BDB6822F440325A602D
:1038300019E0224BDB685A68204BDB6822F4003227
:103840005A6010E01D4BDB685A681C4BDB6822F4A1
:1038500080325A6007E0194BDA68184BDB6852680F
:103860005A6000E000BF7B68312B0ED97B68B3F54E
:10387000D87F0AD8114BDB6859687B689A01104BD6
:1038800013430E4AD2680B405360BB68012B0CD91E
:10389000BB683F2B09D8094BDB685968BB6863F0EC
:1038A0003F02064BDB680A405A6000BF1C37BD462A
:1038B0005DF8047B704700BFFF7F437F1407002043
:1038C0003F80FFFF80B483B000AF0346FB71FB79FC
:1038D000002B10D00F4BDB681A680E4BDB6842F0F0
:1038E00080721A6000BF0B4BDB681B6803F000732B
:1038F000002BF8D007E0074BDB681A68054BDB6844
:1039000022F080721A6000BF0C37BD465DF8047B60
:10391000704700BF1407002080B483B000AF034697
:10392000FB71FB79002B10D00F4BDB681A680E4B34
:10393000DB6842F080621A6000BF0B4BDB681B68DB
:1039400003F00063002BF8D007E0074BDB681A6830
:10395000054BDB6822F080621A6000BF0C37BD4661
:103960005DF8047B704700BF1407002080B483B06B
:1039700000AF0346FB71FB79002B10D00F4BDB68C7
:103980001A680E4BDB6842F080521A6000BF0B4B86
:10399000DB681B6803F00053002BF8D007E0074BEF
:1039A000DB681A68054BDB6822F080521A6000BFA2
:1039B0000C37BD465DF8047B704700BF140700203C
:1039C0000EB480B484B000AF78607B69002B19DD41
:1039D0007B69202B16DC07F11803BB600023FB7307
:1039E0000CE0BB681A1DBA601B68012202FA03F3DF
:1039F0001A467B689A61FB7B0133FB73FB7B7A6918
:103A00009A42EEDC00BF1037BD465DF8047B03B080
:103A1000704780B483B000AF7860396001223B68A2
:103A200002FA03F31A467B689A6100BF0C37BD4661
:103A30005DF8047B704780B483B000AF7860396074
:103A40003A687B689A6100BF0C37BD465DF8047B1D
:103A500070470EB480B484B000AF78607B69002BEF
:103A60001ADD7B69202B17DC07F11803BB600023EC
:103A7000FB730DE0BB681A1DBA601B68012202FAD5
:103A800003F31B041A467B689A61FB7B0133FB73CB
:103A9000FB7B7A699A42EDDC00BF1037BD465DF8CA
:103AA000047B03B0704780B483B000AF78603960A6
:103AB00001223B6802FA03F31B041A467B689A61F1
:103AC00000BF0C37BD465DF8047B704780B483B0FF
:103AD00000AF786039603B681B041A467B689A61C6
:103AE00000BF0C37BD465DF8047B70470000000046
:103AF00080B586B000AFF860B9607A603B60F86866
:103B0000FCF720FD02460B4643EC112B9FED1C0BEE
:103B100007F0ACF851EC100B4FF000021A4BFCF719
:103B2000D3FB02460B4610461946FDF75DF80346E7
:103B30007B617A687B6913407B60BB681A683B686D
:103B4000F96801FB03F3796901FA03F3DB431A40D7
:103B5000BB681A60BB681A683B68F96801FB03F32D
:103B6000796801FA03F31A43BB681A60BB681A68E4
:103B7000BB681A6000BF1837BD4680BDAFF3008038
:103B800000000000000000400000F03F00000000C6
:103B900080B584B000AF786039600223FB60F868BC
:103BA000FCF7D0FC02460B4643EC112B9FED1E0B9D
:103BB00007F05CF851EC100B4FF000021C4BFCF7C7
:103BC00083FB02460B4610461946FDF70DF80346E7
:103BD000BB607A68BB6813407B60164B5B6B1968EF
:103BE0003B68FA6802FB03F3BA6802FA03F3DA43AC
:103BF000104B5B6B0A401A600E4B5B6B19683B689D
:103C0000FA6802FB03F37A689A400A4B5B6B0A433B
:103C10001A60084B5A6B074B5B6B12681A6000BF47
:103C20001037BD4680BD00BF00000000000000400E
:103C30000000F03F1407002080B584B000AF78602A
:103C400039600223FB60F868FCF77CFC02460B46F7
:103C500043EC112B9FED1E0B07F008F851EC100BF5
:103C60004FF000021C4BFCF72FFB02460B461046A0
:103C70001946FCF7B9FF0346BB607A68BB6813407E
:103C80007B60164B5B6B99683B68FA6802FB03F339
:103C9000BA6802FA03F3DA43104B5B6B0A409A608E
:103CA0000E4B5B6B99683B68FA6802FB03F37A681A
:103CB0009A400A4B5B6B0A439A60084B5A6B074B5E
:103CC0005B6B92689A6000BF1037BD4680BD00BF35
:103CD00000000000000000400000F03F140700203A
:103CE00080B584B000AF786039600223FB60F8686B
:103CF000FCF728FC02460B4643EC112B9FED1E0BF4
:103D000006F0B4FF51EC100B4FF000021C4BFCF717
:103D1000DBFA02460B4610461946FCF765FF0346E0
:103D2000BB607A68BB6813407B60164B5B6BD968DD
:103D30003B68FA6802FB03F3BA6802FA03F3DA435A
:103D4000104B5B6B0A40DA600E4B5B6BD9683B68CB
:103D5000FA6802FB03F37A689A400A4B5B6B0A43EA
:103D6000DA60084B5A6B074B5B6BD268DA6000BFB6
:103D70001037BD4680BD00BF0000000000000040BD
:103D80000000F03F1407002080B483B000AF7860DB
:103D9000054B5B6B7A6812049A6100BF0C37BD4615
:103DA0005DF8047B704700BF1407002080B483B027
:103DB00000AF7860044B5B6B7A689A6100BF0C3788
:103DC000BD465DF8047B704714070020000000002A
:103DD00080B586B000AF7860396004237B61786974
:103DE000FCF7B0FB02460B4643EC112B9FED2C0B6E
:103DF00006F03CFF51EC100B4FF000022A4BFCF791
:103E000063FA02460B4610461946FCF7EDFE0346E0
:103E10003B6120227B69B2FBF3F33A68B2FBF3F318
:103E2000FB607A683B6913407B60FB68012B33D8E9
:103E30001E4B5B6BFA68083253F822103B687A69B4
:103E400002FB03F33A6902FA03F3DA43174B5B6BA5
:103E50001140FA68083243F82210144B5B6BFA6881
:103E6000083253F822103B687A6902FB03F37A6840
:103E70009A400E4B5B6B1143FA68083243F82210EC
:103E80000A4B5A6B094B5B6BF968083152F82110E9
:103E9000FA68083243F8221000BF1837BD4680BDCB
:103EA00000000000000000400000F03F1407002068
:103EB00080B584B000AF786039600223FB60F86899
:103EC000FCF740FB02460B4643EC112B9FED1E0B0B
:103ED00006F0CCFE51EC100B4FF000021C4BFCF72F
:103EE000F3F902460B4610461946FCF77DFE0346E1
:103EF000BB607A68BB6813407B60164B1B6D19680A
:103F00003B68FA6802FB03F3BA6802FA03F3DA4388
:103F1000104B1B6D0A401A600E4B1B6D19683B68F5
:103F2000FA6802FB03F37A689A400A4B1B6D0A4356
:103F30001A60084B1A6D074B1B6D12681A6000BFA0
:103F40001037BD4680BD00BF0000000000000040EB
:103F50000000F03F1407002080B584B000AF786007
:103F600039600223FB60F868FCF7ECFA02460B4666
:103F700043EC112B9FED1E0B06F078FE51EC100B5D
:103F80004FF000021C4BFCF79FF902460B4610460F
:103F90001946FCF729FE0346BB607A68BB681340EC
:103FA0007B60164B1B6D99683B68FA6802FB03F354
:103FB000BA6802FA03F3DA43104B1B6D0A409A60A9
:103FC0000E4B1B6D99683B68FA6802FB03F37A6835
:103FD0009A400A4B1B6D0A439A60084B1A6D074BB7
:103FE0001B6D92689A6000BF1037BD4680BD00BF50
:103FF00000000000000000400000F03F1407002017
:1040000080B584B000AF786039600223FB60F86847
:10401000FCF798FA02460B4643EC112B9FED1E0B62
:1040200006F024FE51EC100B4FF000021C4BFCF785
:104030004BF902460B4610461946FCF7D5FD0346E0
:10404000BB607A68BB6813407B60164B1B6DD968F8
:104050003B68FA6802FB03F3BA6802FA03F3DA4337
:10406000104B1B6D0A40DA600E4B1B6DD9683B6824
:10407000FA6802FB03F37A689A400A4B1B6D0A4305
:10408000DA60084B1A6D074B1B6DD268DA6000BF0F
:104090001037BD4680BD00BF00000000000000409A
:1040A0000000F03F1407002080B483B000AF7860B8
:1040B000054B1B6D7A6812049A6100BF0C37BD4630
:1040C0005DF8047B704700BF1407002080B483B004
:1040D00000AF7860044B1B6D7A689A6100BF0C37A3
:1040E000BD465DF8047B7047140700200000000007
:1040F00080B586B000AF7860396004237B61786951
:10410000FCF720FA02460B4643EC112B9FED2C0BDB
:1041100006F0ACFD51EC100B4FF000022A4BFCF7FF
:10412000D3F802460B4610461946FCF75DFD0346E0
:104130003B6120227B69B2FBF3F33A68B2FBF3F3F5
:10414000FB607A683B6913407B60FB68012B33D8C6
:104150001E4B1B6DFA68083253F822103B687A69CF
:1041600002FB03F33A6902FA03F3DA43174B1B6DC0
:104170001140FA68083243F82210144B1B6DFA689C
:10418000083253F822103B687A6902FB03F37A681D
:104190009A400E4B1B6D1143FA68083243F8221007
:1041A0000A4B1A6D094B1B6DF968083152F8211042
:1041B000FA68083243F8221000BF1837BD4680BDA8
:1041C00000000000000000400000F03F1407002045
:1041D00080B584B000AF786039600223FB60F86876
:1041E000FCF7B0F902460B4643EC112B9FED1E0B7A
:1041F00006F03CFD51EC100B4FF000021C4BFCF79D
:1042000063F802460B4610461946FCF7EDFC0346E0
:10421000BB607A68BB6813407B60164BDB6E196825
:104220003B68FA6802FB03F3BA6802FA03F3DA4365
:10423000104BDB6E0A401A600E4BDB6E19683B6850
:10424000FA6802FB03F37A689A400A4BDB6E0A4372
:104250001A60084BDA6E074BDB6E12681A6000BFFB
:104260001037BD4680BD00BF0000000000000040C8
:104270000000F03F1407002080B584B000AF7860E4
:1042800039600223FB60F868FCF75CF902460B46D4
:1042900043EC112B9FED1E0B06F0E8FC51EC100BCC
:1042A0004FF000021C4BFCF70FF802460B4610467D
:1042B0001946FCF799FC0346BB607A68BB6813405B
:1042C0007B60164BDB6E99683B68FA6802FB03F370
:1042D000BA6802FA03F3DA43104BDB6E0A409A60C5
:1042E0000E4BDB6E99683B68FA6802FB03F37A6851
:1042F0009A400A4BDB6E0A439A60084BDA6E074B12
:10430000DB6E92689A6000BF1037BD4680BD00BF6B
:1043100000000000000000400000F03F14070020F3
:1043200080B584B000AF786039600223FB60F86824
:10433000FCF708F902460B4643EC112B9FED1E0BD0
:1043400006F094FC51EC100B4FF000021C4BFBF7F5
:10435000BBFF02460B4610461946FCF745FC0346D8
:10436000BB607A68BB6813407B60164BDB6ED96814
:104370003B68FA6802FB03F3BA6802FA03F3DA4314
:10438000104BDB6E0A40DA600E4BDB6ED9683B687F
:10439000FA6802FB03F37A689A400A4BDB6E0A4321
:1043A000DA60084BDA6E074BDB6ED268DA6000BF6A
:1043B0001037BD4680BD00BF000000000000004077
:1043C0000000F03F1407002080B483B000AF786095
:1043D000054BDB6E7A6812049A6100BF0C37BD464C
:1043E0005DF8047B704700BF1407002080B483B0E1
:1043F00000AF7860044BDB6E7A689A6100BF0C37BF
:10440000BD465DF8047B70471407002000000000E3
:1044100080B586B000AF7860396004237B6178692D
:10442000FCF790F802460B4643EC112B9FED2C0B4A
:1044300006F01CFC51EC100B4FF000022A4BFBF76E
:1044400043FF02460B4610461946FCF7CDFB0346D8
:104450003B6120227B69B2FBF3F33A68B2FBF3F3D2
:10446000FB607A683B6913407B60FB68012B33D8A3
:104470001E4BDB6EFA68083253F822103B687A69EB
:1044800002FB03F33A6902FA03F3DA43174BDB6EDC
:104490001140FA68083243F82210144BDB6EFA68B8
:1044A000083253F822103B687A6902FB03F37A68FA
:1044B0009A400E4BDB6E1143FA68083243F8221023
:1044C0000A4BDA6E094BDB6EF968083152F821109D
:1044D000FA68083243F8221000BF1837BD4680BD85
:1044E00000000000000000400000F03F1407002022
:1044F00080B584B000AF786039600223FB60F86853
:10450000FCF720F802460B4643EC112B9FED220BE3
:1045100006F0ACFB51EC100B4FF00002204BFBF708
:10452000D3FE02460B4610461946FCF75DFB0346D8
:10453000BB607A68BB6813407B601A4BD3F8883045
:1045400019683B68FA6802FB03F3BA6802FA03F3DE
:10455000DA43144BD3F888300A401A60114BD3F871
:10456000883019683B68FA6802FB03F37A689A405E
:104570000C4BD3F888300A431A600A4BD3F88820D2
:10458000084BD3F8883012681A6000BF1037BD4658
:1045900080BD00BFAFF300800000000000000040BD
:1045A0000000F03F1407002080B584B000AF7860B1
:1045B00039600223FB60F868FBF7C4FF02460B4634
:1045C00043EC112B9FED220B06F050FB51EC100B2E
:1045D0004FF00002204BFBF777FE02460B461046D9
:1045E0001946FCF701FB0346BB607A68BB681340C1
:1045F0007B601A4BD3F8883099683B68FA6802FBF5
:1046000003F3BA6802FA03F3DA43144BD3F88830A1
:104610000A409A60114BD3F8883099683B68FA6871
:1046200002FB03F37A689A400C4BD3F888300A43B4
:104630009A600A4BD3F88820084BD3F888309268E8
:104640009A6000BF1037BD4680BD00BFAFF3008049
:1046500000000000000000400000F03F14070020B0
:1046600080B584B000AF786039600223FB60F868E1
:10467000FBF768FF02460B4643EC112B9FED220B24
:1046800006F0F4FA51EC100B4FF00002204BFBF750
:104690001BFE02460B4610461946FCF7A5FA0346D8
:1046A000BB607A68BB6813407B601A4BD3F88830D4
:1046B000D9683B68FA6802FB03F3BA6802FA03F3AD
:1046C000DA43144BD3F888300A40DA60114BD3F840
:1046D0008830D9683B68FA6802FB03F37A689A402D
:1046E0000C4BD3F888300A43DA600A4BD3F88820A1
:1046F000084BD3F88830D268DA6000BF1037BD4667
:1047000080BD00BFAFF3008000000000000000404B
:104710000000F03F1407002080B483B000AF786041
:10472000054BD3F888307A6812049A6100BF0C37C1
:10473000BD465DF8047B70471407002080B483B049
:1047400000AF7860054BD3F888307A689A6100BF73
:104750000C37BD465DF8047B704700BF140700208E
:1047600080B586B000AF7860396004237B617869DA
:10477000FBF7E8FE02460B4643EC112B9FED300B96
:1047800006F074FA51EC100B4FF000022E4BFBF7C1
:104790009BFD02460B4610461946FCF725FA0346D8
:1047A0003B6120227B69B2FBF3F33A68B2FBF3F37F
:1047B000FB607A683B6913407B60FB68012B39D84A
:1047C000224BD3F88830FA68083253F822103B683D
:1047D0007A6902FB03F33A6902FA03F3DA431B4BEB
:1047E000D3F888301140FA68083243F82210174B8A
:1047F000D3F88830FA68083253F822103B687A6997
:1048000002FB03F37A689A40104BD3F888301143C7
:10481000FA68083243F822100C4BD3F888200B4B6F
:10482000D3F88830F968083152F82110FA68083254
:1048300043F8221000BF1837BD4680BDAFF300809B
:1048400000000000000000400000F03F14070020BE
:1048500080B584B000AF786039600223FB60F868EF
:10486000FBF770FE02460B4643EC112B9FED220B2B
:1048700006F0FCF951EC100B4FF00002204BFBF757
:1048800023FD02460B4610461946FCF7ADF90346D8
:10489000BB607A68BB6813407B601A4BD3F8A430C6
:1048A00019683B68FA6802FB03F3BA6802FA03F37B
:1048B000DA43144BD3F8A4300A401A60114BD3F8F2
:1048C000A43019683B68FA6802FB03F37A689A40DF
:1048D0000C4BD3F8A4300A431A600A4BD3F8A42037
:1048E000084BD3F8A43012681A6000BF1037BD46D9
:1048F00080BD00BFAFF3008000000000000000405A
:104900000000F03F1407002080B584B000AF78604D
:1049100039600223FB60F868FBF714FE02460B4681
:1049200043EC112B9FED220B06F0A0F951EC100B7C
:104930004FF00002204BFBF7C7FC02460B46104627
:104940001946FCF751F90346BB607A68BB6813400F
:104950007B601A4BD3F8A43099683B68FA6802FB75
:1049600003F3BA6802FA03F3DA43144BD3F8A43022
:104970000A409A60114BD3F8A43099683B68FA68F2
:1049800002FB03F37A689A400C4BD3F8A4300A4335
:104990009A600A4BD3F8A420084BD3F8A43092684D
:1049A0009A6000BF1037BD4680BD00BFAFF30080E6
:1049B00000000000000000400000F03F140700204D
:1049C00080B584B000AF786039600223FB60F8687E
:1049D000FBF7B8FD02460B4643EC112B9FED220B73
:1049E00006F044F951EC100B4FF00002204BFBF79E
:1049F0006BFC02460B4610461946FCF7F5F80346D9
:104A0000BB607A68BB6813407B601A4BD3F8A43054
:104A1000D9683B68FA6802FB03F3BA6802FA03F349
:104A2000DA43144BD3F8A4300A40DA60114BD3F8C0
:104A3000A430D9683B68FA6802FB03F37A689A40AD
:104A40000C4BD3F8A4300A43DA600A4BD3F8A42005
:104A5000084BD3F8A430D268DA6000BF1037BD46E7
:104A600080BD00BFAFF300800000000000000040E8
:104A70000000F03F1407002080B483B000AF7860DE
:104A8000054BD3F8A4307A6812049A6100BF0C3742
:104A9000BD465DF8047B70471407002080B483B0E6
:104AA00000AF7860054BD3F8A4307A689A6100BFF4
:104AB0000C37BD465DF8047B704700BF140700202B
:104AC00080B586B000AF7860396004237B61786977
:104AD000FBF738FD02460B4643EC112B9FED300BE4
:104AE00006F0C4F851EC100B4FF000022E4BFBF710
:104AF000EBFB02460B4610461946FCF775F80346D9
:104B00003B6120227B69B2FBF3F33A68B2FBF3F31B
:104B1000FB607A683B6913407B60FB68012B39D8E6
:104B2000224BD3F8A430FA68083253F822103B68BD
:104B30007A6902FB03F33A6902FA03F3DA431B4B87
:104B4000D3F8A4301140FA68083243F82210174B0A
:104B5000D3F8A430FA68083253F822103B687A6917
:104B600002FB03F37A689A40104BD3F8A430114348
:104B7000FA68083243F822100C4BD3F8A4200B4BF0
:104B8000D3F8A430F968083152F82110FA680832D5
:104B900043F8221000BF1837BD4680BDAFF3008038
:104BA00000000000000000400000F03F140700205B
:104BB00080B584B000AF786039600223FB60F8688C
:104BC000FBF7C0FC02460B4643EC112B9FED220B7A
:104BD00006F04CF851EC100B4FF00002204BFBF7A5
:104BE00073FB02460B4610461946FBF7FDFF0346D2
:104BF000BB607A68BB6813407B601A4BD3F8C03047
:104C000019683B68FA6802FB03F3BA6802FA03F317
:104C1000DA43144BD3F8C0300A401A60114BD3F872
:104C2000C03019683B68FA6802FB03F37A689A405F
:104C30000C4BD3F8C0300A431A600A4BD3F8C0209B
:104C4000084BD3F8C03012681A6000BF1037BD4659
:104C500080BD00BFAFF300800000000000000040F6
:104C60000000F03F1407002080B584B000AF7860EA
:104C700039600223FB60F868FBF764FC02460B46D0
:104C800043EC112B9FED220B05F0F0FF51EC100BC4
:104C90004FF00002204BFBF717FB02460B46104675
:104CA0001946FBF7A1FF0346BB607A68BB68134057
:104CB0007B601A4BD3F8C03099683B68FA6802FBF6
:104CC00003F3BA6802FA03F3DA43144BD3F8C030A3
:104CD0000A409A60114BD3F8C03099683B68FA6873
:104CE00002FB03F37A689A400C4BD3F8C0300A43B6
:104CF0009A600A4BD3F8C020084BD3F8C0309268B2
:104D00009A6000BF1037BD4680BD00BFAFF3008082
:104D100000000000000000400000F03F14070020E9
:104D200080B584B000AF786039600223FB60F8681A
:104D3000FBF708FC02460B4643EC112B9FED220BC0
:104D400005F094FF51EC100B4FF00002204BFBF7E5
:104D5000BBFA02460B4610461946FBF745FF0346D1
:104D6000BB607A68BB6813407B601A4BD3F8C030D5
:104D7000D9683B68FA6802FB03F3BA6802FA03F3E6
:104D8000DA43144BD3F8C0300A40DA60114BD3F841
:104D9000C030D9683B68FA6802FB03F37A689A402E
:104DA0000C4BD3F8C0300A43DA600A4BD3F8C0206A
:104DB000084BD3F8C030D268DA6000BF1037BD4668
:104DC00080BD00BFAFF30080000000000000004085
:104DD0000000F03F1407002080B483B000AF78607B
:104DE000054BD3F8C0307A6812049A6100BF0C37C3
:104DF000BD465DF8047B70471407002080B483B083
:104E000000AF7860054BD3F8C0307A689A6100BF74
:104E10000C37BD465DF8047B704700BF14070020C7
:104E200080B586B000AF7860396004237B61786913
:104E3000FBF788FB02460B4643EC112B9FED300B32
:104E400005F014FF51EC100B4FF000022E4BFBF756
:104E50003BFA02460B4610461946FBF7C5FE0346D1
:104E60003B6120227B69B2FBF3F33A68B2FBF3F3B8
:104E7000FB607A683B6913407B60FB68012B39D883
:104E8000224BD3F8C030FA68083253F822103B683E
:104E90007A6902FB03F33A6902FA03F3DA431B4B24
:104EA000D3F8C0301140FA68083243F82210174B8B
:104EB000D3F8C030FA68083253F822103B687A6998
:104EC00002FB03F37A689A40104BD3F8C0301143C9
:104ED000FA68083243F822100C4BD3F8C0200B4B71
:104EE000D3F8C030F968083152F82110FA68083256
:104EF00043F8221000BF1837BD4680BDAFF30080D5
:104F000000000000000000400000F03F14070020F7
:104F100080B584B000AF0346FB71FF23FB73324BB7
:104F2000D3F8DC301B68314A13602F4BD3F8DC30E8
:104F30005B682F4A1360FB79184601F027F8034697
:104F4000FB73294BDB681A6F274BDB6842F4004286
:104F50001A67254BD3F8DC305A6A234BD3F8DC3080
:104F600042F0CA025A62204BD3F8DC305A6A1E4B18
:104F7000D3F8DC3042F053025A621B4BD3F8DC30DA
:104F8000DA68194BD3F8DC3042F08002DA6000BFF7
:104F9000154BD3F8DC30DB6803F04003002BF7D06F
:104FA0000623FB73104BD3F8DC309A680E4BD3F812
:104FB000DC3022F020029A600B4BD3F8DC30DA6848
:104FC000094BD3F8DC3022F08002DA60064B9B6894
:104FD0001A68054B9B6822F480721A60FB7B1846A6
:104FE0001037BD4680BD00BF14070020B408002064
:104FF000B808002080B584B000AF0346FB714FF4C1
:105000007C13FB60FB791C4AA2FB0323DB08DBB2A9
:10501000184600F0D9FD0346FB72FA79164BA3FB44
:105020000213D9080B469B000B445B00D31ADBB27A
:10503000184600F0C9FD0346BB72104BD3F8DC30B4
:105040001B680F4A1360FB68DA430D4B1B68134063
:105050000B4A1360BB7A1A04FB7A1B0513431A46EA
:10506000074B1B681343064A136000F0EBFE00BFBA
:105070001037BD4680BD00BFCDCCCCCC140700207E
:10508000B408002080B584B000AF0346FB714FF434
:10509000FE43FB60FB791C4AA2FB0323DB08DBB267
:1050A000184600F091FD0346FB72FA79164BA3FBFC
:1050B0000213D9080B469B000B445B00D31ADBB2EA
:1050C000184600F081FD0346BB72104BD3F8DC306C
:1050D0001B680F4A1360FB68DA430D4B1B681340D3
:1050E0000B4A1360BB7A1A02FB7A1B0313431A465E
:1050F000074B1B681343064A136000F0A3FE00BF72
:105100001037BD4680BD00BFCDCCCCCC14070020ED
:10511000B408002080B584B000AF0346FB717F2344
:10512000FB60FB791B4AA2FB0323DB08DBB21846BA
:1051300000F04AFD0346FB72FA79164BA3FB0213FB
:10514000D9080B469B000B445B00D31ADBB2184610
:1051500000F03AFD0346BB720F4BD3F8DC301B68FE
:105160000E4A1360FB68DA430C4B1B6813400B4A72
:105170001360BA7AFB7A1B0113431A46074B1B686C
:105180001343064A136000F05DFE00BF1037BD46B2
:1051900080BD00BFCDCCCCCC14070020B4080020CB
:1051A00080B584B000AF0346FB714FF47F03FB6012
:1051B000FB79194AA2FB0323DB08DBB2184600F097
:1051C00003FD0346FB72FA79134BA3FB0213D908C4
:1051D0000B469B000B445B00D31ADBB2184600F071
:1051E000F3FC0346BB72FB68DA430C4B1B681340AD
:1051F0000A4A1360BB7A1A04FB7A1B0513431A464A
:10520000064B1B681343054A136000F06DFE00BF98
:105210001037BD4680BD00BFCDCCCCCCB808002037
:1052200080B584B000AF0346FB714FF46023FB6090
:10523000FA79124BA3FB0213D9080B469B000B44CF
:105240005B00D31ADBB2184600F0BEFC0346FB72CB
:10525000FB68DA430A4B1B681340094A1360FB7A68
:105260005B031A46064B1B681343054A136000F0A4
:105270003BFE00BF1037BD4680BD00BFCDCCCCCCBF
:10528000B808002080B584B000AF0346FB714FF42E
:10529000F853FB60FB79194AA2FB0323DB08DBB25E
:1052A000184600F091FC0346FB72FA79134BA3FBFE
:1052B0000213D9080B469B000B445B00D31ADBB2E8
:1052C000184600F081FC0346BB72FB68DA430C4BC6
:1052D0001B6813400A4A1360BB7A1A02FB7A1B034D
:1052E00013431A46064B1B681343054A136000F02C
:1052F000FBFD00BF1037BD4680BD00BFCDCCCCCC80
:10530000B808002080B584B000AF0346FB713F238E
:10531000FB60FB79184AA2FB0323DB08DBB21846CB
:1053200000F052FC0346FB72FA79134BA3FB021305
:10533000D9080B469B000B445B00D31ADBB218461E
:1053400000F042FC0346BB72FB68DA430B4B1B6860
:1053500013400A4A1360BA7AFB7A1B0113431A46B8
:10536000064B1B681343054A136000F0BDFD00BFE8
:105370001037BD4680BD00BFCDCCCCCCB8080020D6
:1053800080B483B000AF78603960164B9B681A68B0
:10539000144B9B6842F480721A60124BD3F8DC30D5
:1053A0005A6A104BD3F8DC3042F0CA025A620D4BF5
:1053B000D3F8DC305A6A0B4BD3F8DC3042F053029E
:1053C0005A627B683A681A60064B9B681A68054BFC
:1053D0009B6822F480721A6000BF0C37BD465DF8EE
:1053E000047B70471407002090B585B000AF78604B
:1053F000464BD3F8DC305B68FB60FB681B0DDBB20F
:1054000003F00F03DAB27B681A707B681B781846CA
:1054100000F0C0FB03461A467B681A70FB681B0C41
:10542000DAB27B68013302F00F02D2B21A707B68E5
:1054300001331A787B685C1C104600F0ABFB034616
:105440002370FB685B0BDAB27B68023302F0070261
:10545000D2B21A707B6802331A787B689C1C1046A3
:1054600000F098FB03462370FB681B0BDAB27B68E5
:10547000033302F00102D2B21A707B6803331A7848
:105480007B68DC1C104600F085FB03462370FB683C
:105490001B0ADAB27B68043302F00F02D2B21A7030
:1054A0007B6804331A787B681C1D104600F072FB81
:1054B00003462370FB681B09DAB27B68053302F0F0
:1054C0000302D2B21A707B6805331A787B685C1DC0
:1054D000104600F05FFB03462370FB68DAB27B687E
:1054E000063302F00F02D2B21A707B6806331A78C4
:1054F0007B689C1D104600F04DFB03462370044A58
:10550000FB68136000BF1437BD4690BD1407002030
:10551000B808002090B585B000AF7860464BD3F84E
:10552000DC301B68FB60444BD3F8DC30DB6803F0F5
:105530002003002B7BD0FB681B0DDBB203F00303C1
:10554000DAB27B681A707B681B78184600F022FB81
:1055500003461A467B681A70FB681B0CDAB27B683C
:10556000013302F00F02D2B21A707B6801331A784D
:105570007B685C1C104600F00DFB03462370FB6843
:105580001B0BDAB27B68023302F00702D2B21A7048
:105590007B6802331A787B689C1C104600F0FAFA8C
:1055A00003462370FB681B0ADAB27B68033302F000
:1055B0000F02D2B21A707B6803331A787B68DC1C46
:1055C000104600F0E7FA03462370FB681B09DAB2C5
:1055D0007B68043302F00702D2B21A707B6804338E
:1055E0001A787B681C1D104600F0D4FA034623701D
:1055F000FB68DAB27B68053302F00F02D2B21A7090
:105600007B6805331A787B685C1D104600F0C2FA8F
:1056100003462370094AFB681360074BD3F8DC305C
:10562000DA68054BD3F8DC3022F02002DA6000BFE4
:105630001437BD4690BD00BF14070020B4080020F9
:1056400080B400AF234BDB681A6C224BDB6842F05E
:1056500000521A641F4BDB685A6C1E4BDB6842F425
:1056600080725A641B4BD3F82C319A68194BD3F8CB
:105670002C3142F480629A60164BD3F84C315A6850
:10568000144BD3F84C3142F440325A60114BD3F8EA
:105690002C31DA680F4BD3F82C3142F0E062DA603B
:1056A0000C4BD3F82C315A680A4BD3F82C3142F406
:1056B00000625A60074BD3F82C315A6B054BD3F874
:1056C0002C3142F012025A6300BFBD465DF8047BE4
:1056D000704700BF1407002080B400AF074BD3F819
:1056E0004C315A68054BD3F84C3142F480025A6071
:1056F00000BFBD465DF8047B704700BF1407002063
:1057000080B400AF074BD3F84C315A68054BD3F83F
:105710004C3142F400025A6000BFBD465DF8047B84
:10572000704700BF1407002080B400AF0C4BD3F8C3
:105730002C319A680A4BD3F82C3142F001029A605E
:10574000074BD3F82C319A68054BD3F82C3142F033
:1057500080429A6000BFBD465DF8047B704700BF81
:105760001407002080B500AF134BD3F84C311B68F1
:1057700003F00203002B15D00F4BD3F82C31DB6C58
:105780001846FAF7DFFE02460B460C49C1E9002332
:10579000094BD3F82C311A68074BD3F82C3122F07F
:1057A00010021A60054BD3E9002343EC172BB0EE2F
:1057B000470AF0EE670A80BD14070020E0080020C9
:1057C00080B400AF0B4BD3F84C311B6803F01003CF
:1057D000002B09D1074BD3F82C319A68054BD3F82D
:1057E0002C3142F080429A6000BFBD465DF8047BD8
:1057F000704700BF1407002080B400AF074BD3F8F8
:105800002C319A68054BD3F82C3142F001029A6092
:1058100000BFBD465DF8047B704700BF1407002041
:105820002DE9B04F8EB000AF034687ED020B3A6111
:10583000FB750B46BB75FB7D092B0AD1B44BD3F826
:105840005031DA68B24BD3F8503142F48052DA600A
:1058500017E0FB7D082B0AD1AD4BD3F85031DA6845
:10586000AB4BD3F8503122F48052DA6009E0A84BF8
:10587000D3F85031DA68A64BD3F8503122F4805275
:10588000DA60BB7D082B0DD1082387F83730A04B99
:10589000D3F85031DA689E4BD3F8503142F40042CD
:1058A000DA601DE0BB7D102B0DD1102387F8373057
:1058B000974BD3F85031DA68954BD3F8503122F436
:1058C0000042DA600CE0102387F83730904BD3F8B1
:1058D0005031DA688E4BD3F8503122F40042DA604E
:1058E0008B4BD3F850311A69894BD3F8503122F4DD
:1058F00040521A614FF00002864BD7E90201FAF7D5
:10590000E3FC02460B463A6023F000437B607EA333
:10591000D3E90023D7E90001FBF700F90346002B88
:105920000AD07B4BD3F850311A69794BD3F85031F8
:1059300042F480521A6162E04FF00002764BD7E9E0
:105940000201FAF7C1FC02460B46924623F0004BD7
:105950006DA3D3E9002350465946FBF7DFF8034611
:10596000002B0AD06A4BD3F850311A69684BD3F830
:10597000503122F440521A6141E04FF00002674B6F
:10598000D7E90201FAF7A0FC02460B46904623F045
:1059900000495DA3D3E9002340464946FBF7BEF822
:1059A0000346002B0AD05A4BD3F850311A69584B92
:1059B000D3F8503142F440521A6120E04FF0000217
:1059C0004FF08043D7E90201FAF77EFC02460B460E
:1059D000144623F000454CA3D3E900232046294672
:1059E000FBF79CF80346002B09D0494BD3F8503104
:1059F0001A69474BD3F8503142F400521A61484BB0
:105A00001B681846FAF79EFD04460D4697F8373096
:105A10003A6902FB03F31846FAF794FD02460B4677
:105A200020462946FAF732FF02460B46C7E90A2309
:105A300007F11803184697ED0A0B01F02FFA87EDCE
:105A4000080B334BD3F8503100229A60BB7D102BEA
:105A50002BD14FF00002334BD7E90801FAF7ECFDE8
:105A600002460B4643EC172BB0EE470AF0EE670AEE
:105A700005F0B6F851EC100B254BD3F85041FBF76D
:105A8000B3F80346A360224BD3F850319C68D7E9A2
:105A9000062310461946FBF7A7F803461A011C4BCC
:105AA000D3F8503122439A606BE0BB7D082B3DD187
:105AB0004FF000021C4BD7E90801FAF7BDFD024682
:105AC0000B4643EC172BB0EE470AF0EE670A05F0E1
:105AD00087F851EC100B0E4BD3F85041FBF784F8CC
