:020000040800F2
:1000000000000220C91C0008191D0008191D000865
:10001000191D0008191D0008191D00080000000026
:10002000000000000000000000000000191D000892
:10003000191D000800000000191D0008F5590008EE
:10004000191D0008191D0008191D0008191D0008B8
:10005000191D0008191D0008191D0008191D0008A8
:10006000191D0008191D0008191D0008191D000898
:10007000191D0008191D0008191D0008191D000888
:10008000191D0008191D0008191D0008191D000878
:10009000191D0008191D0008191D0008191D000868
:1000A000251A0008191D0008191D0008191D00084F
:1000B000191D0008191D0008191D0008191D000848
:1000C000191D0008191D0008191D0008191D000838
:1000D000191D0008191D0008191D0008191D000828
:1000E000191D0008191D0008191D0008191D000818
:1000F000191D0008191D0008191D0008191D000808
:10010000191D0008191D0008191D0008191D0008F7
:10011000191D0008191D0008191D0008191D0008E7
:10012000191D0008191D0008191D0008191D0008D7
:10013000191D00080000000000000000191D000843
:10014000191D0008191D0008191D0008191D0008B7
:10015000191D0008191D0008191D0008191D0008A7
:10016000191D0008191D0008191D0008191D000897
:10017000191D0008191D0008191D000800000000C5
:1001800000000000191D0008000000000000000031
:10019000191D00080000000000000000191D0008E3
:1001A000000000000000000000000000191D000811
:1001B000191D0008191D0008191D0008191D000847
:0401C000191D0008FD
:1001D00010B5054C237833B9044B13B10448AFF381
:1001E00000800123237010BDE0010020000000000A
:1001F0008CB3000808B5034B1BB103490348AFF3A8
:10020000008008BD00000000E40100208CB300085D
:10021000034613F8012B002AFBD1181A0138704746
:1002200001F0FF01102A2BDB10F0070F08D010F8A7
:10023000013B013A8B422DD010F0070F42B3F6D1AB
:10024000F0B441EA012141EA014122F007047FF0C4
:1002500000070023F0E80256083C85EA010586EA1B
:10026000010685FA47F5A3FA87F586FA47F6A5FA57
:1002700087F68EB9EED1F0BC01F0FF0102F0070263
:1002800032B110F8013B013A83EA010313B1F8D10E
:100290000020704701387047002D06BF35460338EF
:1002A000073815F0010F07D1013015F4807F02BF28
:1002B000013015F4C03F0130F0BC0138704700BF79
:1002C00081F0004102E000BF83F0004330B54FEA07
:1002D00041044FEA430594EA050F08BF90EA020F74
:1002E0001FBF54EA000C55EA020C7FEA645C7FEA07
:1002F000655C00F0E2804FEA5454D4EB5555B8BF2A
:100300006D420CDD2C4480EA020281EA030382EA9A
:10031000000083EA010180EA020281EA0303362D2C
:1003200088BF30BD11F0004F4FEA01314FF4801CFF
:100330004CEA113102D0404261EB410113F0004F11
:100340004FEA03334CEA133302D0524263EB4303C8
:1003500094EA050F00F0A780A4F10104D5F1200E66
:100360000DDB02FA0EFC22FA05F2801841F10001C1
:1003700003FA0EF2801843FA05F359410EE0A5F195
:1003800020050EF1200E012A03FA0EFC28BF4CF0C6
:10039000020C43FA05F3C01851EBE37101F000457C
:1003A00007D54FF0000EDCF1000C7EEB00006EEB89
:1003B0000101B1F5801F1BD3B1F5001F0CD3490813
:1003C0005FEA30004FEA3C0C04F101044FEA44526A
:1003D00012F5800F80F09A80BCF1004F08BF5FEAF1
:1003E000500C50F1000041EB045141EA050130BDD1
:1003F0005FEA4C0C404141EB0101013C28BFB1F5E3
:10040000801FE9D291F0000F04BF01460020B1FA2D
:1004100081F308BF2033A3F10B03B3F120020CDA00
:100420000C3208DD02F1140CC2F10C0201FA0CF0DE
:1004300021FA02F10CE002F11402D8BFC2F1200C43
:1004400001FA02F120FA0CFCDCBF41EA0C019040F9
:10045000E41AA2BF01EB0451294330BD6FEA040442
:100460001F3C1CDA0C340EDC04F11404C4F120022D
:1004700020FA04F001FA02F340EA030021FA04F33F
:1004800045EA030130BDC4F10C04C4F1200220FA96
:1004900002F001FA04F340EA0300294630BD21FAD4
:1004A00004F0294630BD94F0000F83F4801306BF9A
:1004B00081F480110134013D4EE77FEA645C18BF8E
:1004C0007FEA655C29D094EA050F08BF90EA020F25
:1004D00005D054EA000C04BF1946104630BD91EA1D
:1004E000030F1EBF0021002030BD5FEA545C05D120
:1004F0004000494128BF41F0004130BD14F580045F
:100500003CBF01F5801130BD01F0004545F0FE41D2
:1005100041F470014FF0000030BD7FEA645C1ABF07
:10052000194610467FEA655C1CBF0B46024650EA3E
:10053000013406BF52EA033591EA030F41F400216A
:1005400030BD00BF90F0000F04BF0021704730B5F0
:100550004FF4806404F132044FF000054FF00001C5
:1005600050E700BF90F0000F04BF0021704730B586
:100570004FF4806404F1320410F0004548BF40425B
:100580004FF000013EE700BF42004FEAE2014FEAB0
:1005900031014FEA02701FBF12F07F4393F07F4F8B
:1005A00081F06051704732F07F4208BF704793F08E
:1005B0007F4F04BF41F40021704730B54FF46074A1
:1005C00001F0004521F000411CE700BF50EA0102A4
:1005D00008BF704730B54FF000050AE050EA01024D
:1005E00008BF704730B511F0004502D5404261EBBD
:1005F00041014FF4806404F132045FEA915C3FF4FE
:10060000D8AE4FF003025FEADC0C18BF03325FEA9A
:10061000DC0C18BF033202EBDC02C2F1200300FA4B
:1006200003FC20FA02F001FA03FE40EA0E0021FA70
:1006300002F11444BDE600BF70B54FF0FF0C4CF45E
:10064000E06C1CEA11541DBF1CEA135594EA0C0F10
:1006500095EA0C0F00F0DEF82C4481EA030621EA4B
:100660004C5123EA4C5350EA013518BF52EA033586
:1006700041F4801143F4801338D0A0FB02CE4FF038
:100680000005E1FB02E506F00042E0FB03E54FF068
:100690000006E1FB03569CF0000F18BF4EF0010E60
:1006A000A4F1FF04B6F5007F64F5407404D25FEA5C
:1006B0004E0E6D4146EB060642EAC62141EA55510F
:1006C0004FEAC52040EA5E504FEACE2EB4F1FD0C51
:1006D00088BFBCF5E06F1ED8BEF1004F08BF5FEACF
:1006E000500E50F1000041EB045170BD06F0004681
:1006F00046EA010140EA020081EA0301B4EB5C042E
:10070000C2BFD4EB0C0541EA045170BD41F4801125
:100710004FF0000E013C00F3AB8014F1360FDEBF4A
:10072000002001F0004170BDC4F10004203C35DA26
:100730000C341BDC04F11404C4F1200500FA05F3A9
:1007400020FA04F001FA05F240EA020001F000424A
:1007500021F0004110EBD37021FA04F642EB0601C0
:100760005EEA430E08BF20EAD37070BDC4F10C04EA
:10077000C4F1200500FA04F320FA05F001FA04F2AE
:1007800040EA020001F0004110EBD37041F100019A
:100790005EEA430E08BF20EAD37070BDC4F12005A5
:1007A00000FA05F24EEA020E20FA04F301FA05F20D
:1007B00043EA020321FA04F001F0004121FA04F2B5
:1007C00020EA020000EBD3705EEA430E08BF20EA85
:1007D000D37070BD94F0000F0FD101F000464000BF
:1007E00041EB010111F4801F08BF013CF7D041EA41
:1007F000060195F0000F18BF704703F00046520045
:1008000043EB030313F4801F08BF013DF7D043EA15
:100810000603704794EA0C0F0CEA135518BF95EACB
:100820000C0F0CD050EA410618BF52EA4306D1D152
:1008300081EA030101F000414FF0000070BD50EA71
:10084000410606BF1046194652EA430619D094EAFB
:100850000C0F02D150EA013613D195EA0C0F05D1E5
:1008600052EA03361CBF104619460AD181EA030139
:1008700001F0004141F0FE4141F470014FF00000F1
:1008800070BD41F0FE4141F4780170BD70B54FF08C
:10089000FF0C4CF4E06C1CEA11541DBF1CEA13550C
:1008A00094EA0C0F95EA0C0F00F0A7F8A4EB0504EE
:1008B00081EA030E52EA03354FEA013100F08880E5
:1008C0004FEA03334FF0805545EA131343EA1263AE
:1008D0004FEA022245EA111545EA10654FEA002663
:1008E0000EF000419D4208BF964244F1FD0404F51C
:1008F000407402D25B084FEA3202B61A65EB030578
:100900005B084FEA32024FF480104FF4002CB6EB34
:10091000020E75EB030E22BFB61A754640EA0C00B4
:100920005B084FEA3202B6EB020E75EB030E22BFF4
:10093000B61A754640EA5C005B084FEA3202B6EB35
:10094000020E75EB030E22BFB61A754640EA9C00F4
:100950005B084FEA3202B6EB020E75EB030E22BFC4
:10096000B61A754640EADC0055EA060E18D04FEA82
:10097000051545EA16754FEA06164FEAC30343EA22
:1009800052734FEAC2025FEA1C1CC0D111F4801FEF
:100990000BD141EA00014FF000004FF0004CB6E7E8
:1009A00011F4801F04BF01430020B4F1FD0C88BF87
:1009B000BCF5E06F3FF6AFAEB5EB030C04BFB6EB92
:1009C000020C5FEA500C50F1000041EB045170BD85
:1009D0000EF0004E4EEA113114EB5C04C2BFD4EBB2
:1009E0000C0541EA045170BD41F480114FF0000E36
:1009F000013C90E645EA060E8DE60CEA135594EAB2
:100A00000C0F08BF95EA0C0F3FF43BAF94EA0C0FB4
:100A10000AD150EA01347FF434AF95EA0C0F7FF429
:100A200025AF104619462CE795EA0C0F06D152EA7D
:100A300003353FF4FDAE1046194622E750EA410661
:100A400018BF52EA43067FF4C5AE50EA41047FF472
:100A50000DAF52EA43057FF4EBAE12E74FF0FF3CD7
:100A600006E000BF4FF0010C02E000BF4FF0010CA8
:100A70004DF804CD4FEA410C7FEA6C5C4FEA430C21
:100A800018BF7FEA6C5C1BD001B050EA410C0CBF70
:100A900052EA430C91EA030F02BF90EA020F0020D2
:100AA000704710F1000F91EA030F58BF994208BF39
:100AB00090422CBFD8176FEAE37040F001007047F6
:100AC0004FEA410C7FEA6C5C02D150EA013C07D14D
:100AD0004FEA430C7FEA6C5CD6D152EA033CD3D098
:100AE0005DF8040B704700BF8446104662468C4692
:100AF0001946634600E000BF01B5FFF7B7FF0028C5
:100B000048BF10F1000F01BD4DF808EDFFF7F4FFED
:100B10000CBF012000205DF808FB00BF4DF808ED78
:100B2000FFF7EAFF34BF012000205DF808FB00BF9B
:100B30004DF808EDFFF7E0FF94BF012000205DF8BD
:100B400008FB00BF4DF808EDFFF7CEFF94BF012072
:100B500000205DF808FB00BF4DF808EDFFF7C4FF6B
:100B600034BF012000205DF808FB00BF4FEA410CB4
:100B70007FEA6C5C02D150EA013C0AD14FEA430C97
:100B80007FEA6C5C02D152EA033C02D14FF00000D4
:100B900070474FF0010070474FEA410212F5001212
:100BA00015D211D56FF47873B3EB625212D94FEAB4
:100BB000C12343F0004343EA505311F0004F23FA9E
:100BC00002F018BF404270474FF00000704750EAF3
:100BD000013005D111F0004008BF6FF000407047B0
:100BE0004FF00000704700BF4A0011D212F500120A
:100BF00011D20DD56FF47873B3EB62520ED44FEA75
:100C0000C12343F0004343EA505323FA02F07047F4
:100C10004FF00000704750EA013002D14FF0FF3032
:100C200070474FF0000070474FEA4102B2F1E043D5
:100C300024BFB3F5001CDCF1FE5C0DD901F0004CC3
:100C40004FEAC0024CEA5070B2F1004F40EB830013
:100C500008BF20F00100704711F0804F21D113F13F
:100C60003872BCBF01F00040704741F480114FEA78
:100C70005252C2F11802C2F1200C10FA0CF320FA01
:100C800002F018BF40F001004FEAC1234FEAD3231E
:100C900003FA0CFC40EA0C0023FA02F34FEA430388
:100CA000CCE77FEA625307D150EA01331EBF4FF011
:100CB000FE4040F44000704701F0004040F0FE402C
:100CC00040F40000704700BF38B5002200230446FE
:100CD0000D46FFF723FF28B920462946BDE83840D6
:100CE00000F00AB8204605F1004100F005F8404246
:100CF00061EB410138BD00BFD0B50C4B0022064668
:100D00000F46FFF799FCFFF76FFF0446FFF71AFC49
:100D1000074B0022FFF790FC02460B46304639464F
:100D2000FFF7D2FAFFF760FF2146D0BD0000F03D8B
:100D30000000F04100000000B0B5E2B002AF4FF09B
:100D400000024FF00003C7E95E230023C7F87431A7
:100D50003C23C7F87031A24C3B46184601F056FFC1
:100D600007F5C073A3F5C073204619464FF4B67358
:100D70001A4604F077FE9A4BD3F82831984700F0D2
:100D80004DF900F06DF9974C3B46184601F076F9A5
:100D900007F5C073A3F5C0732046194690231A4681
:100DA00004F060FE904C3B46184601F0D3F807F57E
:100DB000C073A3F5C0731D460FCD0FC495E807009F
:100DC00084E80700894C3B46184601F0C3F807F554
:100DD000C073A3F5C0731D460FCD0FC495E807007F
:100DE00084E80700824C3B46184601F0B3F807F54B
:100DF000C073A3F5C0731D460FCD0FC495E807005F
:100E000084E807007B4B03221A707B4B00221A7088
:100E10007A4B00221A807A4B00221A70704B9B6C1E
:100E200019466F4B9B6C03F11402764C3846002335
:100E3000019301230093022300F070FF07F5C073B4
:100E4000A3F5C072234607CA83E80700644BDA6A39
:100E50006D4C3B461146184601F0AEFA07F5C073DB
:100E6000A3F5C0731D460FCD0FC40FCD0FC495E879
:100E7000070084E807005A4BD3F80C319847584BC9
:100E8000D3F8BC3001209847554BD3F8FC300A20EA
:100E90009847534BD3F8E430514AD2F8B820503237
:100EA0005A4910469847504B9B694D4A126912693E
:100EB00011464D4898474D4B9B69494AD26A126981
:100EC00011464A4898474A4B9B69454A926C1269B9
:100ED0001146474898474C4B9B6A984700F000F9E9
:100EE000494B5B6A002101209847474B5C693D4BA9
:100EF000D3F88C303A4AD2F8B820503211464448E0
:100F0000984703461846A0473F4B5B6A04210120DF
:100F10009847D7F87031D7F874219A4217D2304BDE
:100F2000D3F81031984753EC102BD7E95E01FFF747
:100F3000CDF902460B46C7E95E23294BD3F814319D
:100F40009847D7F874310133C7F87431ABE7D7F855
:100F50007001FFF707FB02460B46D7E95E01FFF77A
:100F600095FC02460B46C7E95E2319A3D3E900238B
:100F7000D7E95E01FFF78AFC02460B461046194688
:100F800015A3D3E90023FFF79FF902460B4610464D
:100F900019464FF000021F4BFFF798F902460B4627
:100FA000C7E95E23184B9C690E4BD3F88C50D7E9E8
:100FB0005E01FFF719FE0346DF2219461648A847CF
:100FC000034607211846A0470023C7F874316AE793
:100FD000CDCCCCCCCCCC0840638C31C6180373404C
:100FE000FC01002068030020F80300201404002006
:100FF000300400208404002090040020920400208B
:10100000940400204C040020580400204355420062
:10101000A8B3000800003940ACB3000880B500AFA9
:101020000E4BDB681A6B0D4BDB6842F007021A634C
:101030000A4B5B69052101209847084BDB690521B4
:1010400000209847054BDB6C0D2100209847034B8F
:101050005B6D0D210120984700BF80BDFC01002081
:1010600080B400AF1D4BDB685A6C1C4BDB6842F44C
:1010700080325A64194BD3F8F4301A68174BD3F8FE
:10108000F43042F080721A60144BD3F804314BF202
:10109000DF12DA62114BD3F8043141F66A525A6317
:1010A0000E4BD3F8043114229A620C4BD3F804315E
:1010B000DA680A4BD3F8043142F00302DA60074BD6
:1010C000D3F804311A68054BD3F8043142F0810299
:1010D0001A6000BFBD465DF8047B7047FC0100202C
:1010E000F0B585B004AF704B1B78013B082B00F2C4
:1010F0006B8401A252F823F01D110008E3110008CF
:10110000D9120008EB13000805150008E3150008C4
:10111000F9160008D7170008ED180008634B5B6A42
:10112000002100209847614B9B6910216048984737
:10113000604BD3F8E030604898475C4B5B6A002115
:1011400003209847594B9C695C4BD3F88C505A4B01
:101150001B781846584B5B781E46574B9B789C462D
:10116000554BDB781A46544B1B791946524B5B7929
:101170000293019100926346324601465048A847C7
:10118000034611211846A0474A4BD3F838414D4B2E
:1011900058694C4B19694C4B1B880D22A0470346DC
:1011A0004A4A1360494B1B68052B06D9474B1B68FD
:1011B0000A2B02D83C4B02221A70444B1B680A2BA4
:1011C00006D9424B1B681D2B02D8374B04221A70DC
:1011D0003E4B1B68282B40F2F983334B03221A70D5
:1011E000F4E3324B5B6A0021002098472F4B9B6948
:1011F0001021374898472F4BD3F8DC302E489847BA
:101200002A4B5B6A002103209847284B9C692B4B93
:10121000D3F88C50284B5B791846274B9B791E4698
:10122000254BDB789C46244B1B791A46224B1B78B6
:101230001946214B5B780293019100926346324636
:1012400001462448A847034611211846A047194BD8
:10125000D3F838411B4B58691A4B19691A4B1B8834
:101260000D22A0470346194A1360184B1B68052B33
:1012700006D9164B1B680A2B02D80B4B01221A7099
:10128000124B1B680A2B06D9104B1B681D2B02D86A
:10129000054B07221A700D4B1B68282B40F29883D0
:1012A000014B03221A7093E38404002058040020A9
:1012B000B4B30008FC01002098040020680300205B
:1012C000BCB3000830040020920400208C040020ED
:1012D000D4B30008DCB300087B4B5B6A002100201C
:1012E0009847794B9B69102178489847784BD3F8F9
:1012F000DC3078489847744B5B6A0021022098479D
:10130000714B9C69744BD3F88C50724B5B791846C7
:10131000704B9B791E466F4BDB789C466D4B1B795F
:101320001A466C4B1B7819466A4B5B780293019105
:1013300000926346324601466848A8470346112199
:101340001846A047624BD3F8E030624898475E4B9E
:101350005B6A0021032098475B4B9C695E4BD3F886
:101360008C505C4B1B7818465A4B5B781E46594B89
:101370009B789C46574BDB781A46564B1B7919468F
:10138000544B5B79029301910092634632460146C9
:101390005348A847034611211846A0474C4BD3F8A1
:1013A0003841504B58694F4B19694F4B1B880D22E0
:1013B000A0470346282B40F20D83434B5B6A002174
:1013C00002209847404B9B691121484898473E4B63
:1013D0005B6A0021032098473B4B9B690F214348E0
:1013E0009847434B01221A70F4E2374B5B6A0021A5
:1013F00000209847344B9B6910213E489847344B56
:10140000D3F83841374B5869364B1969364B1B882E
:101410000D22A0470346384A1360374B1B68002B48
:1014200023D0354B1B68052B1FD8344B1B78013359
:10143000DAB2324B1A70314B1B78172B02D92F4B73
:1014400000221A70204B5B6A0021022098471E4B35
:101450009C69214BD3F88C30284A127811462848D1
:101460009847034610211846A047234B1B680A2BB8
:1014700010D9214B1B68132B0CD8134B5B6A00212E
:1014800002209847104B9B69102118489847184B29
:1014900005221A70184B1B68132B40F29D820A4BD1
:1014A0005B6A002102209847074B9B6910210F4877
:1014B00098470F4B01221A70054BD3F8D0300F4AD2
:1014C00012781046984787E258040020F4B30008C9
:1014D000FC0100209804002068030020DCB3000811
:1014E000BCB30008300400209204002000B40008BF
:1014F0008404002004B400088C040020850400202B
:1015000014B400086E4B5B6A0021002098476C4BB6
:101510009B6910216B4898476B4BD3F838416B4B54
:1015200058696A4B19696A4B1B880D22A04703460C
:10153000684A1360674B1B68002B23D0654B1B6800
:10154000052B1FD8644B1B780133DAB2624B1A703B
:10155000614B1B783B2B02D95F4B00221A70584B12
:101560005B6A002102209847554B9C695B4BD3F87E
:101570008C30594A12781146594898470346102131
:101580001846A047534B1B680A2B10D9514B1B68B8
:10159000132B0CD84A4B5B6A002102209847484B1A
:1015A0009B6910214F4898474F4B06221A70494BB0
:1015B0001B68132B40F21282414B5B6A0021022010
:1015C00098473F4B9B69102146489847464B01225C
:1015D0001A703D4BD3F8D4303F4A127810469847E2
:1015E000FCE1374B5B6A002100209847344B9B6934
:1015F00010213E489847344BD3F83841334B586953
:10160000324B1969324B1B880D22A0470346314AE1
:101610001360304B1B68002B23D02E4B1B68052B0F
:101620001FD8334B1B780133DAB2314B1A70304B71
:101630001B783B2B02D92E4B00221A70204B5B6A81
:101640000021022098471E4B9C69244BD3F88C3014
:10165000274A127811462748984703461021184612
:10166000A0471C4B1B680A2B10D91A4B1B68132B65
:101670000CD8134B5B6A002102209847104B9B69E2
:10168000102118489847184B01221A70114B1B68FB
:10169000132B40F2A5810A4B5B6A00210220984778
:1016A000074B9B6910210F4898470F4B01221A7076
:1016B000054BD3F8D8300E4A1278104698478FE180
:1016C0005804002020B40008FC0100203004002051
:1016D000920400208C04002086040020680300206F
:1016E00030B4000800B40008840400203CB40008B2
:1016F0008704002050B400086E4B5B6A0021002074
:1017000098476C4B9B6910216B4898476B4BD3F8FB
:1017100038416B4B58696A4B19696A4B1B880D221B
:10172000A0470346684A1360674B1B68002B23D011
:10173000654B1B68052B1FD8644B1B780133DAB24D
:10174000624B1A70614B1B78632B02D95F4B0022EE
:101750001A70584B5B6A002102209847554B9C69D0
:101760005B4BD3F88C30594A127811465948984748
:10177000034610211846A047534B1B680A2B10D96B
:10178000514B1B68132B0CD84A4B5B6A002102207B
:101790009847484B9B6910214F4898474F4B082268
:1017A0001A70494B1B68132B40F21C81414B5B6A3A
:1017B0000021022098473F4B9B69102146489847DB
:1017C000464B02221A703D4BD3F8CC303F4A127878
:1017D0001046984706E1374B5B6A00210020984786
:1017E000344B9B6910213E489847344BD3F838411D
:1017F000334B5869324B1969324B1B880D22A04775
:101800000346314A1360304B1B68002B23D02E4B0C
:101810001B68052B1FD8334B1B780133DAB2314BD1
:101820001A70304B1B780C2B02D92E4B01221A70E8
:10183000204B5B6A0021022098471E4B9C69244B79
:10184000D3F88C30274A1278114627489847034628
:1018500010211846A0471C4B1B680A2B10D91A4BA5
:101860001B68132B0CD8134B5B6A0021022098478E
:10187000104B9B69102118489847184B09221A7081
:10188000114B1B68132B40F2AF800A4B5B6A00219F
:1018900002209847074B9B6910210F4898470F4B30
:1018A00002221A70054BD3F8C4300E4A1278104643
:1018B000984799E0580400205CB40008FC0100201F
:1018C00030040020920400208C04002088040020B2
:1018D0006803002068B4000800B4000884040020F5
:1018E00070B40008000000207CB40008424B5B6A22
:1018F000002100209847404B9B6910213F489847A2
:101900003F4BD3F838413F4B58693E4B19693E4B2A
:101910001B880D22A04703463C4A13603B4B1B68C3
:10192000002B23D0394B1B68052B1FD8384B1B7855
:101930000133DAB2364B1A70354B1B781F2B02D9A4
:10194000334B01221A702C4B5B6A0021022098470E
:10195000294B9C692F4BD3F88C302D4A12781146B5
:101960002D489847034610211846A047274B1B686F
:101970000A2B10D9254B1B68132B0CD81E4B5B6A06
:101980000021022098471C4B9B691021234898474F
:10199000234B02221A701D4B1B68132B26D9164BA2
:1019A0005B6A002102209847134B9B6910211B485A
:1019B00098471B4B02221A70114BD3F8C030144ABF
:1019C00012781046984711E000BF10E000BF0EE00B
:1019D00000BF0CE000BF0AE000BF08E000BF06E067
:1019E00000BF04E000BF02E000BF00E000BF00BF96
:1019F0000437BD46F0BD00BF5804002084B4000881
:101A0000FC01002030040020920400208C040020FF
:101A1000010000206803002090B4000800B4000812
:101A20008404002080B500AF364BD3F804311B6925
:101A300003F00103002B50D0324BD3F804311A6964
:101A4000304BD3F8043122F001021A612E4B1B787F
:101A5000002B1ED02B4B1B6A202098472B4B5B681A
:101A60002B4A92F90010CAB2013AD2B250B2284AB7
:101A7000107001228A40D2B2D243D2B210469847A7
:101A8000234B93F90030002B21DA1F4B00221A70F0
:101A90001DE01C4B5B6A202098471C4B5B681C4A6E
:101AA00092F90010CAB20132D2B250B2184A107084
:101AB00001228A40D2B2D243D2B210469847144B88
:101AC00093F90030072B02DD0F4B01221A70114BE6
:101AD0001B8801339AB20F4B1A800A4BD3F804319A
:101AE0001B6903F00203002B09D0064BD3F8043125
:101AF0001A69044BD3F8043122F002021A6100BFC4
:101B000080BD00BFFC010020940400204C04002094
:101B1000900400209204002080B400AF01231846F6
:101B2000BD465DF8047B704780B582B000AF786039
:101B3000396003F06DFF034616221A604FF0FF3341
:101B400018460837BD4680BD80B582B000AF7860CA
:101B50004FF0FF317868FFF7E7FFFEE780B586B00A
:101B600000AFF860B9607A6000237B610AE0AFF3F0
:101B700000800146BB685A1CBA60CAB21A707B6901
:101B800001337B617A697B689A42F0DB7B68184697
:101B90001837BD4680BD80B586B000AFF860B9602B
:101BA0007A6000237B6109E0BB685A1CBA601B782D
:101BB0001846AFF300807B6901337B617A697B68EB
:101BC0009A42F1DB7B6818461837BD4680BD80B469
:101BD00083B000AF78604FF0FF3318460C37BD4636
:101BE0005DF8047B704780B483B000AF78603960E3
:101BF0003B684FF400525A60002318460C37BD462C
:101C00005DF8047B704780B483B000AF7860012337
:101C100018460C37BD465DF8047B704780B485B02C
:101C200000AFF860B9607A60002318461437BD46EB
:101C30005DF8047B7047000080B586B000AF786027
:101C4000144A154BD31A7B617B693B61134B1B68AC
:101C5000002B02D1114B124A1A60104B1A687B6894
:101C600013443A699A4207D203F0D2FE03460C228B
:101C70001A604FF0FF3309E0084B1B68FB60074B0D
:101C80001A687B681344054A1360FB6818461837C6
:101C9000BD4680BD0000022000040000B00400200A
:101CA0004808002080B400AF064BD3F88830054ABE
:101CB00043F47003C2F8883000BFBD465DF8047B72
:101CC000704700BF00ED00E0DFF834D00D480E494A
:101CD0000E4A002302E0D458C4500433C4188C4286
:101CE000F9D30B4A0B4C002301E013600432A242EB
:101CF000FBD3FFF7D7FF03F091FEFFF71DF8704706
:101D00000000022000000020DC01002078B900085B
:101D1000E001002048080020FEE7000090B488B0F1
:101D200000AFF860B9607A60FB70384ABB68136036
:101D3000374A7B681360374AFB781370364A97F846
:101D400028301370354A97F82C3013702F4B1B68CE
:101D50001A68FB785B000321994097F828305B00F4
:101D6000032000FA03F3194397F82C305B0003209B
:101D700000FA03F30B43DB431946244B1B680A406C
:101D80001A60224B1B681A68FB785B00012199409E
:101D900097F828305B00012000FA03F3194397F805
:101DA0002C305B00012000FA03F30B431946174B5C
:101DB0001B680A431A60164B1B681A68FB780121DE
:101DC000994097F82830012000FA03F3194397F857
:101DD0002C30012000FA03F30B43DB4319460C4B74
:101DE0001B680A401A600E4B7B610E4BBB610E4BA9
:101DF000FB61FB681C4607F1140393E8070084E8C5
:101E00000700F8682037BD4690BC7047B404002036
:101E1000B8040020BC040020BD040020BE04002043
:101E20002D1E0008C51E0008091F000880B483B0DD
:101E300000AF0346FB71FB79002B0DD01E4B1B68D6
:101E40001A681E4B1B78194601238B4019461A4B02
:101E50001B680A431A600DE0174B1B681A68174B82
:101E60001B78194601238B40DB431946124B1B6834
:101E70000A401A60104B1B681A68114B1B781946F0
:101E800001238B4019460C4B1B680A431A600A4B0E
:101E90001B681A680A4B1B78194601238B40DB43E9
:101EA0001946054B1B680A401A6000BF0C37BD4637
:101EB0005DF8047B704700BFB8040020BC0400201C
:101EC000BD04002080B584B000AF0346FB71002341
:101ED000FB730FE0FB7B012202FA03F35AB297F97E
:101EE000073013405BB2DBB21846FFF79FFFFB7B66
:101EF0000133FB73FB7B072BECD900F005F800BF27
:101F00001037BD4680BD000080B400AF0F4B1B688A
:101F10001A680F4B1B78194601238B4019460B4B4F
:101F20001B680A431A60094B1B681A68084B1B7828
:101F3000194601238B40DB431946044B1B680A40BA
:101F40001A6000BFBD465DF8047B7047B8040020EE
:101F5000BE040020B0B48BB000AF78600023FB60FB
:101F600000233B61084B7B627B681D4607F10C0434
:101F70000FCC0FC594E8070085E8070078682C3778
:101F8000BD46B0BC704700BF8D1F000880B582B051
:101F900000AF786039607B685A687B681A607B683C
:101FA0003A685A60786800F019F802467B689A60CF
:101FB000786800F024F802467B68DA60786800F000
:101FC00030F802467B681A61786800F040F80246F3
:101FD0007B685A6100BF0837BD4680BD80B485B0BC
:101FE00000AF78607B681A687B685B681340FB60B1
:101FF000FB6818461437BD465DF8047B704780B413
:1020000085B000AF78607B681A687B685B681343B3
:10201000FB60FB68DB4318461437BD465DF8047B64
:10202000704780B485B000AF78607B681A687B68C1
:102030005B685340FB607B685B68FA681340FB6039
:10204000FB6818461437BD465DF8047B704780B4C2
:1020500085B000AF78607B685A687B681B68534026
:10206000FB607B681B68FA681340FB60FB681846DE
:102070001437BD465DF8047B7047000080B5A6B0FC
:1020800000AF78600A4B002283F85F20094BBB67E2
:10209000094BC7F894307B68184607F10803902273
:1020A000194603F0DFFC78689837BD4680BD00BF55
:1020B000C0040020012200087D23000880B485B000
:1020C00000AF78600023FB6002E0FB680133FB6037
:1020D000FB687A6813441B78002BF6D1FB6818461E
:1020E0001437BD465DF8047B704780B586B000AFFD
:1020F000786000237B617868FFF7E0FF0346013BCF
:102100003B6117E07B697A6813441B78FB733B697A
:102110007A681A447B6979680B4412781A703B69B3
:102120007A681344FA7B1A707B6901337B613B69DF
:10213000013B3B617A693B699A42E3DB00BF00BF28
:102140001837BD4680BD000080B487B000AFF8608E
:10215000B9601346FB710023FB75FA68274B83FBBC
:1021600002139910D317C91A0B469B000B445B004E
:10217000D11ACAB2FB7D591CF9751946BB680B44CC
:102180003032D2B21A7015E0FA681C4B83FB02138E
:102190009910D317C91A0B469B000B445B00D11A48
:1021A000CAB2FB7D591CF9751946BB680B44303225
:1021B000D2B21A70FB68114A82FB03129210DB172D
:1021C000D31AFB60FB68002BDEDC07E0FB7D5A1CAA
:1021D000FA751A46BB68134430221A70FA7DFB79EF
:1021E0009A42F3D3FB7DBA68134400221A70FB7D38
:1021F00018461C37BD465DF8047B70476766666607
:10220000B0B58AB000AF87ED020B78600B46FB706B
:102210000023FB774FF000024FF00003D7E90201E3
:10222000FEF77CFC0346002B08D0BC68FB6883F0FB
:102230000045C7E90845FF23BB7705E0D7E902233E
:10224000C7E908230123BB77D7E90801FEF7CCFCD7
:102250000346BB61B869FEF775F902460B46D7E93C
:102260000801FEF731F802460B46C7E90423BB69B3
:10227000012279681846FFF767FF0346FB7797F955
:102280001E30002B08DAFB7F5A1CFA771A467B684F
:1022900013442D221A7007E0FB7F5A1CFA771A4666
:1022A0007B68134420221A70FB7F7A681344002253
:1022B0001A707868FFF719FFFB78002B30D0FB7895
:1022C000062B2DD8FB7F5A1CFA771A467B681344DD
:1022D0002E221A70FB781846FEF734F902460B4698
:1022E00043EC112B9FED220B08F034F951EC100B4D
:1022F000D7E90423FEF7A0F902460B46104619461B
:10230000FEF74AFCFB7F7A681344FA781946FFF718
:102310001BFFFB7F7A6813441846FFF7E6FE21E0B7
:10232000FB7F5A1CFA771A467B6813442E221A70D8
:102330004FF00002104BD7E90401FEF77DF9024689
:102340000B4610461946FEF727FCFB7F7A681344BC
:1023500002221946FFF7F8FEFB7F7A6813441846FD
:10236000FFF7C3FE7B6818462837BD46B0BD00BFE7
:102370000000000000002440000059400FB480B568
:1023800082B000AF07F114033B603B683A695F21FC
:10239000084805F049F978607B68002B01DA0023D2
:1023A00000E0044B18460837BD46BDE8804004B045
:1023B000704700BFC0040020B0B5EAB000AFC7F856
:1023C0007401C7F87011254C3B46184600F01EFCFE
:1023D00007F5D473A3F5D473204619464FF4B673AA
:1023E0001A4603F03FFB1E4AD7F8703113601D4BAD
:1023F000C7F87C311C4BC7F880311C4BC7F88431BF
:102400001B4BC7F888311B4BC7F88C311A4BC7F8E8
:1024100090311A4BC7F89431194BC7F89831194BC2
:10242000C7F89C31184BC7F8A031184BC7F8A43136
:1024300000F02EF8D7F874311D4607F5BE740FCCA6
:102440000FC50FCC0FC594E8070085E80700D7F843
:10245000740107F5D477BD46B0BD00BF200500204C
:102460008C060020A125000801280008F529000895
:102470004D2A00082F2A00086D2A00089B2A000810
:10248000F72A00081D2B00083D2B0008C92B000867
:1024900080B500AF3F4B1B681A683E4B1B6822F0AB
:1024A0003F021A603B4B1B681A683A4B1B6842F0AC
:1024B00015021A60374B1B681A68364B1B6822F0EE
:1024C000C0021A60334B1B68DA68324B1B6822F07B
:1024D000C002DA602F4B1B68DA682E4B1B6842F093
:1024E0004002DA602B4B1B689B682A4A126823F46F
:1024F0007F4323F03F039360264B1B689B68254A6C
:10250000126843F47F4343F03F039360214B1B6801
:102510001B6903F00803204A1360204BD3F8FC30FA
:10252000282098470021332000F03AF81B4BD3F8BD
:102530000031042098470021332000F031F8174B78
:10254000D3F800310420984700212B2000F028F810
:10255000124BD3F800310420984700210C2000F0E2
:102560001FF80E4BD3F800310420984700210120BA
:1025700000F016F8094BD3F8FC30022098470021F0
:10258000062000F00DF8054BD3F8003104209847E1
:1025900000BF80BD8C060020900600202005002092
:1025A00080B582B000AF03460A46FB711346BB807C
:1025B000914BD3F86031914A126801211046984737
:1025C000BB88002B08D08C4BD3F854318B4A12684F
:1025D00000211046984707E0874BD3F86031874ABF
:1025E0001268002110469847844B1B681A68834B79
:1025F0001B6822F47F421A60804B1B681A687F4B6D
:102600001B6842F4AA421A607C4B1B68DA687B4B59
:102610001B6822F47F42DA60774BD3F85431774A53
:10262000126802211046984797F90730002B08DA04
:10263000714BD3F85431714A1268072110469847FC
:1026400007E06D4BD3F860316C4A126807211046E1
:102650009847FB7903F04003002B08D0664BD3F872
:102660005431664A126806211046984707E0624BCB
:10267000D3F86031614A1268062110469847FB7909
:1026800003F02003002B08D05B4BD3F854315B4A96
:10269000126805211046984707E0574BD3F8603180
:1026A000564A1268052110469847FB7903F010033B
:1026B000002B08D0504BD3F85431504A12680421F3
:1026C0001046984707E04C4BD3F860314B4A1268EC
:1026D000042110469847484BD3F86031474A1268A6
:1026E000022110469847444BD3F86031434A1268A0
:1026F000012110469847BB88002B08D03E4BD3F8E9
:1027000054313E4A126800211046984707E03A4B80
:10271000D3F86031394A1268002110469847364B89
:10272000D3F85431354A1268022110469847FB7994
:1027300003F00803002B08D02F4BD3F854312F4A55
:10274000126807211046984707E02B4BD3F86031F9
:102750002A4A1268072110469847FB7903F00403C0
:10276000002B08D0244BD3F85431244A1268062198
:102770001046984707E0204BD3F860311F4A126893
:10278000062110469847FB7903F00203002B08D07E
:10279000194BD3F85431194A12680521104698474D
:1027A00007E0154BD3F86031144A12680521104632
:1027B0009847FB7903F00103002B08D00E4BD3F8A8
:1027C00054310E4A126804211046984707E00A4B1C
:1027D000D3F86031094A1268042110469847064B25
:1027E000D3F86031054A126802211046984700BFAD
:1027F0000837BD4680BD00BF200500208C060020A4
:1028000080B584B000AF0346FB800023BB6000238B
:10281000FB73764B1B681A68744B1B6822F47F426B
:102820001A60724B1B68DA68704B1B6822F47F4297
:10283000DA606E4B1B68DA686C4B1B6842F4AA4284
:10284000DA606B4BD3F85431684A126801211046A4
:102850009847FB88002B08D0654BD3F85431634A66
:10286000126800211046984707E0614BD3F86031A9
:102870005E4A12680021104698475D4BD3F85431E8
:102880005A4A1268022110469847584B1B681B6928
:10289000BB60574BD3F86031544A1268022110468E
:1028A0009847BB6803F08003002B04D0FB7B63F0E8
:1028B0007F03FB7303E0FB7B03F07F03FB73BB68C9
:1028C00003F04003002B04D0FB7B43F04003FB7379
:1028D00003E0FB7B23F04003FB73BB6803F02003A2
:1028E000002B04D0FB7B43F02003FB7303E0FB7B56
:1028F00023F02003FB73BB6803F01003002B04D00C
:10290000FB7B43F01003FB7303E0FB7B23F010031E
:10291000FB73374BD3F85431344A12680121104607
:102920009847FB88002B08D0314BD3F854312F4AFD
:10293000126800211046984707E02D4BD3F860310C
:102940002A4A1268002110469847294BD3F854317F
:10295000264A1268022110469847244B1B681B69BF
:10296000BB60234BD3F86031204A12680221104625
:102970009847BB6803F08003002B04D0FB7B43F037
:102980000803FB7303E0FB7B23F00803FB73BB68C6
:1029900003F04003002B04D0FB7B43F00403FB73E4
:1029A00003E0FB7B23F00403FB73BB6803F020030D
:1029B000002B04D0FB7B43F00203FB7303E0FB7BA3
:1029C00023F00203FB73BB6803F01003002B04D059
:1029D000FB7B43F00103FB7303E0FB7B23F001036C
:1029E000FB73FB7B18461037BD4680BD8C0600206C
:1029F0002005002080B582B000AF8023BB7100238A
:102A0000FB710AE00020FFF7FBFE0346BB71FB7978
:102A1000012B07D8FB790133FB7197F90630002BA6
:102A2000F0DB00E000BF00BF0837BD4680BD80B5C9
:102A300082B000AF0120FFF7E3FE0346FB71FFF712
:102A4000D9FFFB7918460837BD4680BD80B582B0F6
:102A500000AF0346FB71FB7901211846FFF7A0FD8B
:102A6000FFF7C8FF00BF0837BD4680BD80B584B002
:102A700000AF786008E07B685A1C7A601B78FB73B3
:102A8000FB7B1846FFF7E2FF7B681B78002BF2D137
:102A900000BF00BF1037BD4680BD80B584B000AF19
:102AA000786039600023FB600FE07B685A1C7A6015
:102AB0001B78FB72FB680133FB60FA683B689A4243
:102AC00008D8FB7A1846FFF7C1FF7B681B78002BFC
:102AD000EBD107E000BF05E02020FFF7B7FFFB6860
:102AE0000133FB60FA683B689A42F5D300BF00BF30
:102AF0001037BD4680BD80B582B000AF786005E07C
:102B00002020FFF7A3FF7B68013B7B607B68002BE5
:102B1000F6D100BF00BF0837BD4680BD80B500AF0D
:102B200000210120FFF73CFD034BD3F8FC300220CD
:102B3000984700BF80BD00BF2005002080B582B04F
:102B400000AF786039607B68032B37D801A252F858
:102B500023F000BF652B00087B2B0008912B000899
:102B6000A72B00083B68DBB2803BDBB20021184694
:102B7000FFF716FDFFF73EFF21E03B68DBB2403B6D
:102B8000DBB200211846FFF70BFDFFF733FF16E01D
:102B90003B68DBB26C3BDBB200211846FFF700FD5F
:102BA000FFF728FF0BE03B68DBB22C3BDBB20021D8
:102BB0001846FFF7F5FCFFF71DFF00E000BF00BF60
:102BC0000837BD4680BD00BF80B582B000AF0D4B59
:102BD0001B681B6903F008037B600B4B1B687A685A
:102BE00053403B603A687B6813403B603B68002B76
:102BF00001D0FFF74DFC044A7B68136000BF083723
:102C0000BD4680BD8C0600209006002080B582B0B5
:102C100000AF7860984B00221A60984B00221A602F
:102C200097494FF000024FF00003C1E90023954B94
:102C3000954A1A60934B954A5A60924B944A9A600F
:102C4000904B944ADA608F4B934A1A618D4B934AAA
:102C50005A618C4B924A9A618A4B924ADA61894B4B
:102C6000914A1A62874B914A5A62864B904A9A62FD
:102C7000844B904ADA62834B8F4A1A63814B8F4AA6
:102C80005A63804B8E4A9A637E4B8E4ADA637D4B41
:102C90008D4A1A647B4B8D4A5A647A4B8C4A9A64EB
:102CA000784B8C4ADA64774B8B4A1A65754B8B4AA2
:102CB0005A65744B8A4A9A65724B8A4ADA65714B37
:102CC000894A1A666F4B894A5A666E4B884A9A66D9
:102CD0006C4B884ADA666B4B874A1A67694B874A9E
:102CE0005A67684B864A9A67664B864ADA67654B2D
:102CF000854AC3F88020634B844AC3F88420614B23
:102D0000834AC3F888205F4B824AC3F88C205D4B0E
:102D1000814AC3F890205B4B804AC3F89420594BFA
:102D20007F4AC3F89820574B7E4AC3F89C20554BE6
:102D30007D4AC3F8A020534B7C4AC3F8A420514BD2
:102D40007B4AC3F8A8204F4B7A4AC3F8AC204D4BBE
:102D5000794AC3F8B0204B4B784AC3F8B420494BAA
:102D6000774AC3F8B820474B764AC3F8BC20454B96
:102D7000754AC3F8C020434B744AC3F8C420414B82
:102D8000734AC3F8C8203F4B724AC3F8CC203D4B6E
:102D9000714AC3F8D0203B4B704AC3F8D420394B5A
:102DA0006F4AC3F8D820374B6E4AC3F8DC20354B46
:102DB0006D4AC3F8E020334B6C4AC3F8E420314B32
:102DC0006B4AC3F8E8202F4B6A4AC3F8EC202D4B1E
:102DD000694AC3F8F0202B4B684AC3F8F420294B0A
:102DE000674AC3F8F820274B664AC3F8FC20254BF6
:102DF000654AC3F80021234B644AC3F80421214BE0
:102E0000634AC3F808211F4B624AC3F80C211D4BCB
:102E1000614AC3F810211B4B604AC3F81421194BB7
:102E20005F4AC3F81821174B5E4AC3F81C21154BA3
:102E30005D4AC3F82021134B5C4AC3F82421114B8F
:102E40005B4AC3F828210F4B5A4AC3F82C210D4B7B
:102E5000594AC3F830210B4B584AC3F83421094B67
:102E6000574AC3F83821074B564AC3F83C21054B53
:102E7000554AC3F84021A9E00C0800201C08002096
:102E80003008002094060020003C02400030024040
:102E9000007000400038024000000240C9320008C3
:102EA0007133000819340008C1340008E534000803
:102EB000093500080004024001360008A936000860
:102EC00051370008F93700081D380008413800085C
:102ED0000008024039390008E1390008893A000841
:102EE000313B0008553B0008793B0008000C0240CC
:102EF000713C0008193D0008C13D0008693E00080A
:102F00008D3E0008B13E000800100240A93F0008B5
:102F10006140000819410008D1410008F54100084E
:102F200019420008001C024029430008E143000840
:102F30009944000851450008754500089945000866
:102F400000280040A94600089D4A00081D4A0008C4
:102F5000B9490008394900088D4700081D48000894
:102F6000AD480008814B0008AD4C0008194B000823
:102F700000380140006002400064024000E100E0CF
:102F800010E000E0095900087D59000800400140A8
:102F900000200140D94D0008AD4E0008094F00083F
:102FA000414F00080023014000100140694F000814
:102FB00069300008DD52000811530008555300081D
:102FC00001540008AD540008D15400081B4B1C4AA2
:102FD000C3F84421194B1B4AC3F84821174B1A4A1E
:102FE000C3F84C21154B194AC3F85021134B184A0A
:102FF000C3F85421114B174AC3F858210F4B164AF6
:10300000C3F85C210D4B154AC3F860210B4B144AE1
:10301000C3F86421094B134AC3F8682102F052FC3B
:103020007B68064A184611464FF4B6731A4602F0FA
:1030300019FD78680837BD4680BD00BF94060020A2
:10304000F55400082D55000865550008E5300008C6
:10305000433100086731000883310008E33100087C
:10306000093200082932000880B483B000AF1C4B3D
:10307000DB681A681A4BDB6842F001021A6000BF75
:10308000174BDB681B6803F00203002BF8D0144BCE
:10309000DB689A68124BDB6822F003029A60104BDF
:1030A000DB689B689B08FB71FB7903F00303FB71F2
:1030B0000B4BDB685A6F0A4BDB6842F001025A6720
:1030C00000BF074BDB685B6F03F00203002BF8D0F7
:1030D000FB7918460C37BD465DF8047B704700BF8E
:1030E000940600200EB480B486B000AF7860002350
:1030F0003B61FB69002B1DDDFB69202B1ADC07F10E
:103100002003FB600023FB750DE0FB681A1DFA60CD
:103110001B68012202FA03F31A463B6913433B6121
:10312000FB7D0133FB75FB7DFA699A42EDDC7B6820
:103130003A699A6100BF1837BD465DF8047B03B059
:10314000704780B483B000AF7860396001223B687B
:1031500002FA03F31A467B689A6100BF0C37BD463A
:103160005DF8047B704780B483B000AF786039604D
:103170003A687B689A6100BF0C37BD465DF8047BF6
:1031800070470EB480B486B000AF786000233B6116
:10319000FB69002B1EDDFB69202B1BDC07F12003E4
:1031A000FB600023FB750EE0FB681A1DFA601B68CC
:1031B000012202FA03F31B041A463B6913433B61E5
:1031C000FB7D0133FB75FB7DFA699A42ECDC7B6881
:1031D0003A699A6100BF1837BD465DF8047B03B0B9
:1031E000704780B483B000AF7860396001223B68DB
:1031F00002FA03F31B041A467B689A6100BF0C377E
:10320000BD465DF8047B704780B483B000AF786042
:1032100039603B681B041A467B689A6100BF0C3713
:10322000BD465DF8047B704780B586B000AFF8609E
:10323000B9607A603B60F868FDF784F902460B4696
:1032400043EC112B9FED1C0B07F084F951EC100B94
:103250004FF000021A4BFDF737F802460B461046B6
:103260001946FDF7C1FC03467B617A687B69134010
:103270007B60BB681A683B68F96801FB03F37969F6
:1032800001FA03F3DB431A40BB681A60BB681A6893
:103290003B68F96801FB03F3796801FA03F31A4309
:1032A000BB681A60BB681A68BB681A6000BF183731
:1032B000BD4680BDAFF3008000000000000000406C
:1032C0000000F03F0000000080B584B000AF7860DF
:1032D00039600223FB60F868FDF734F902460B46BB
:1032E00043EC112B9FED1E0B07F034F951EC100B42
:1032F0004FF000021C4BFCF7E7FF02460B4610465E
:103300001946FDF771FC0346BB607A68BB68134041
:103310007B60164B1B6919683B68FA6802FB03F374
:10332000BA6802FA03F3DA43104B1B690A401A60C9
:103330000E4B1B6919683B68FA6802FB03F37A6855
:103340009A400A4B1B690A431A60084B1A69074BDB
:103350001B6912681A6000BF1037BD4680BD00BFF0
:1033600000000000000000400000F03F9406002034
:1033700080B584B000AF786039600223FB60F868E4
:10338000FDF7E0F802460B4643EC112B9FED1E0BB8
:1033900007F0E0F851EC100B4FF000021C4BFCF76B
:1033A00093FF02460B4610461946FDF71DFC0346E7
:1033B000BB607A68BB6813407B60164B1B699968D9
:1033C0003B68FA6802FB03F3BA6802FA03F3DA43D4
:1033D000104B1B690A409A600E4B1B6999683B6849
:1033E000FA6802FB03F37A689A400A4B1B690A43A6
:1033F0009A60084B1A69074B1B6992689A6000BF74
:103400001037BD4680BD00BF000000000000004036
:103410000000F03F9406002080B584B000AF7860D3
:1034200039600223FB60F868FDF78CF802460B4612
:1034300043EC112B9FED1E0B07F08CF851EC100B99
:103440004FF000021C4BFCF73FFF02460B461046B4
:103450001946FDF7C9FB0346BB607A68BB68134099
:103460007B60164B1B69D9683B68FA6802FB03F363
:10347000BA6802FA03F3DA43104B1B690A40DA60B8
:103480000E4B1B69D9683B68FA6802FB03F37A6844
:103490009A400A4B1B690A43DA60084B1A69074BCA
:1034A0001B69D268DA6000BF1037BD4680BD00BF1F
:1034B00000000000000000400000F03F94060020E3
:1034C00080B483B000AF7860054B1B697A68120442
:1034D0009A6100BF0C37BD465DF8047B704700BFA2
:1034E0009406002080B483B000AF7860044B1B6961
:1034F0007A689A6100BF0C37BD465DF8047B70475F
:10350000940600200000000080B584B000AF786011
:1035100039600423FB60F868FDF714F802460B4697
:1035200043EC112B9FED320B07F014F851EC100B0C
:103530004FF00002304BFCF7C7FE02460B46104628
:103540001946FDF751FB0346BB607A68BB68134020
:103550007B603B68072B22D8284B1B69196A3B68A4
:10356000FA6802FB03F3BA6802FA03F3DA43234B67
:103570001B690A401A62214B1B69196A3B68FA6889
:1035800002FB03F37A689A401C4B1B690A431A62D8
:103590001A4B1A69194B1B69126A1A6221E0174B00
:1035A0001B69596A3B68FA6802FB03F3BA6802FABE
:1035B00003F3DA43114B1B690A405A620F4B1B6934
:1035C000596A3B68FA6802FB03F37A689A400B4B2E
:1035D0001B690A435A62094B1A69084B1B69526AF4
:1035E0005A6200BF1037BD4680BD00BFAFF30080F8
:1035F00000000000000000400000F03F94060020A2
:1036000080B584B000AF786039600223FB60F86851
:10361000FCF798FF02460B4643EC112B9FED1E0B67
:1036200006F098FF51EC100B4FF000021C4BFCF71A
:103630004BFE02460B4610461946FDF7D5FA0346E7
:10364000BB607A68BB6813407B60164BDB6A196805
:103650003B68FA6802FB03F3BA6802FA03F3DA4341
:10366000104BDB6A0A401A600E4BDB6A19683B6834
:10367000FA6802FB03F37A689A400A4BDB6A0A4352
:103680001A60084BDA6A074BDB6A12681A6000BFDF
:103690001037BD4680BD00BF0000000000000040A4
:1036A0000000F03F9406002080B584B000AF786041
:1036B00039600223FB60F868FCF744FF02460B46C2
:1036C00043EC112B9FED1E0B06F044FF51EC100B49
:1036D0004FF000021C4BFCF7F7FD02460B4610466C
:1036E0001946FDF781FA0346BB607A68BB68134050
:1036F0007B60164BDB6A99683B68FA6802FB03F350
:10370000BA6802FA03F3DA43104BDB6A0A409A60A4
:103710000E4BDB6A99683B68FA6802FB03F37A6830
:103720009A400A4BDB6A0A439A60084BDA6A074BF5
:10373000DB6A92689A6000BF1037BD4680BD00BF4B
:1037400000000000000000400000F03F9406002050
:1037500080B584B000AF786039600223FB60F86800
:10376000FCF7F0FE02460B4643EC112B9FED1E0BBF
:1037700006F0F0FE51EC100B4FF000021C4BFCF772
:10378000A3FD02460B4610461946FDF72DFA0346E7
:10379000BB607A68BB6813407B60164BDB6AD968F4
:1037A0003B68FA6802FB03F3BA6802FA03F3DA43F0
:1037B000104BDB6A0A40DA600E4BDB6AD9683B6863
:1037C000FA6802FB03F37A689A400A4BDB6A0A4301
:1037D000DA60084BDA6A074BDB6AD268DA6000BF4E
:1037E0001037BD4680BD00BF000000000000004053
:1037F0000000F03F9406002080B483B000AF7860F2
:10380000054BDB6A7A6812049A6100BF0C37BD462B
:103810005DF8047B704700BF9406002080B483B03D
:1038200000AF7860044BDB6A7A689A6100BF0C379E
:10383000BD465DF8047B7047940600200000000040
:1038400080B584B000AF786039600423FB60F8680D
:10385000FCF778FE02460B4643EC112B9FED320B32
:1038600006F078FE51EC100B4FF00002304BFCF7E5
:103870002BFD02460B4610461946FDF7B5F90346E7
:10388000BB607A68BB6813407B603B68072B22D81B
:10389000284BDB6A196A3B68FA6802FB03F3BA68D3
:1038A00002FA03F3DA43234BDB6A0A401A62214B24
:1038B000DB6A196A3B68FA6802FB03F37A689A408C
:1038C0001C4BDB6A0A431A621A4BDA6A194BDB6A31
:1038D000126A1A6221E0174BDB6A596A3B68FA6880
:1038E00002FB03F3BA6802FA03F3DA43114BDB6A13
:1038F0000A405A620F4BDB6A596A3B68FA6802FB5E
:1039000003F37A689A400B4BDB6A0A435A62094B0D
:10391000DA6A084BDB6A526A5A6200BF1037BD464A
:1039200080BD00BFAFF30080000000000000004039
:103930000000F03F9406002080B584B000AF7860AE
:1039400039600223FB60F868FCF7FCFD02460B4679
:1039500043EC112B9FED1E0B06F0FCFD51EC100B00
:103960004FF000021C4BFCF7AFFC02460B46104622
:103970001946FDF739F90346BB607A68BB68134006
:103980007B60164B9B6C19683B68FA6802FB03F37B
:10399000BA6802FA03F3DA43104B9B6C0A401A60D0
:1039A0000E4B9B6C19683B68FA6802FB03F37A685C
:1039B0009A400A4B9B6C0A431A60084B9A6C074B5F
:1039C0009B6C12681A6000BF1037BD4680BD00BFF7
:1039D00000000000000000400000F03F94060020BE
:1039E00080B584B000AF786039600223FB60F8686E
:1039F000FCF7A8FD02460B4643EC112B9FED1E0B76
:103A000006F0A8FD51EC100B4FF000021C4BFCF728
:103A10005BFC02460B4610461946FDF7E5F80346E7
:103A2000BB607A68BB6813407B60164B9B6C9968DF
:103A30003B68FA6802FB03F3BA6802FA03F3DA435D
:103A4000104B9B6C0A409A600E4B9B6C99683B68CC
:103A5000FA6802FB03F37A689A400A4B9B6C0A43AC
:103A60009A60084B9A6C074B9B6C92689A6000BFF7
:103A70001037BD4680BD00BF0000000000000040C0
:103A80000000F03F9406002080B584B000AF78605D
:103A900039600223FB60F868FCF754FD02460B46D0
:103AA00043EC112B9FED1E0B06F054FD51EC100B57
:103AB0004FF000021C4BFCF707FC02460B46104679
:103AC0001946FDF791F80346BB607A68BB6813405E
:103AD0007B60164B9B6CD9683B68FA6802FB03F36A
:103AE000BA6802FA03F3DA43104B9B6C0A40DA60BF
:103AF0000E4B9B6CD9683B68FA6802FB03F37A684B
:103B00009A400A4B9B6C0A43DA60084B9A6C074B4D
:103B10009B6CD268DA6000BF1037BD4680BD00BF25
:103B200000000000000000400000F03F940600206C
:103B300080B483B000AF7860054B9B6C7A68120448
:103B40009A6100BF0C37BD465DF8047B704700BF2B
:103B50009406002080B483B000AF7860044B9B6C67
:103B60007A689A6100BF0C37BD465DF8047B7047E8
:103B7000940600200000000080B584B000AF78609B
:103B800039600423FB60F868FCF7DCFC02460B4656
:103B900043EC112B9FED320B06F0DCFC51EC100BCB
:103BA0004FF00002304BFCF78FFB02460B461046ED
:103BB0001946FDF719F80346BB607A68BB681340E5
:103BC0007B603B68072B22D8284B9B6C196A3B68AB
:103BD000FA6802FB03F3BA6802FA03F3DA43234BF1
:103BE0009B6C0A401A62214B9B6C196A3B68FA680D
:103BF00002FB03F37A689A401C4B9B6C0A431A62DF
:103C00001A4B9A6C194B9B6C126A1A6221E0174B83
:103C10009B6C596A3B68FA6802FB03F3BA6802FAC4
:103C200003F3DA43114B9B6C0A405A620F4B9B6CB7
:103C3000596A3B68FA6802FB03F37A689A400B4BB7
:103C40009B6C0A435A62094B9A6C084B9B6C526AF4
:103C50005A6200BF1037BD4680BD00BFAFF3008081
:103C600000000000000000400000F03F940600202B
:103C700080B584B000AF786039600223FB60F868DB
:103C8000FCF760FC02460B4643EC112B9FED1E0B2C
:103C900006F060FC51EC100B4FF000021C4BFCF7DF
:103CA00013FB02460B4610461946FCF79DFF0346E0
:103CB000BB607A68BB6813407B60164B5B6E19680B
:103CC0003B68FA6802FB03F3BA6802FA03F3DA43CB
:103CD000104B5B6E0A401A600E4B5B6E19683B68B6
:103CE000FA6802FB03F37A689A400A4B5B6E0A4358
:103CF0001A60084B5A6E074B5B6E12681A6000BF61
:103D00001037BD4680BD00BF00000000000000402D
:103D10000000F03F9406002080B584B000AF7860CA
:103D200039600223FB60F868FCF70CFC02460B4686
:103D300043EC112B9FED1E0B06F00CFC51EC100B0D
:103D40004FF000021C4BFCF7BFFA02460B46104630
:103D50001946FCF749FF0346BB607A68BB6813400D
:103D60007B60164B5B6E99683B68FA6802FB03F355
:103D7000BA6802FA03F3DA43104B5B6E0A409A60AA
:103D80000E4B5B6E99683B68FA6802FB03F37A6836
:103D90009A400A4B5B6E0A439A60084B5A6E074B77
:103DA0005B6E92689A6000BF1037BD4680BD00BF51
:103DB00000000000000000400000F03F94060020DA
:103DC00080B584B000AF786039600223FB60F8688A
:103DD000FCF7B8FB02460B4643EC112B9FED1E0B84
:103DE00006F0B8FB51EC100B4FF000021C4BFCF737
:103DF0006BFA02460B4610461946FCF7F5FE0346E1
:103E0000BB607A68BB6813407B60164B5B6ED968F9
:103E10003B68FA6802FB03F3BA6802FA03F3DA4379
:103E2000104B5B6E0A40DA600E4B5B6ED9683B68E4
:103E3000FA6802FB03F37A689A400A4B5B6E0A4306
:103E4000DA60084B5A6E074B5B6ED268DA6000BFCF
:103E50001037BD4680BD00BF0000000000000040DC
:103E60000000F03F9406002080B483B000AF78607B
:103E7000054B5B6E7A6812049A6100BF0C37BD4631
:103E80005DF8047B704700BF9406002080B483B0C7
:103E900000AF7860044B5B6E7A689A6100BF0C37A4
:103EA000BD465DF8047B70479406002000000000CA
:103EB00080B584B000AF786039600423FB60F86897
:103EC000FCF740FB02460B4643EC112B9FED320BF7
:103ED00006F040FB51EC100B4FF00002304BFCF7AA
:103EE000F3F902460B4610461946FCF77DFE0346E1
:103EF000BB607A68BB6813407B603B68072B22D8A5
:103F0000284B5B6E196A3B68FA6802FB03F3BA68D8
:103F100002FA03F3DA43234B5B6E0A401A62214B29
:103F20005B6E196A3B68FA6802FB03F37A689A4091
:103F30001C4B5B6E0A431A621A4B5A6E194B5B6E2E
:103F4000126A1A6221E0174B5B6E596A3B68FA6885
:103F500002FB03F3BA6802FA03F3DA43114B5B6E18
:103F60000A405A620F4B5B6E596A3B68FA6802FB63
:103F700003F37A689A400B4B5B6E0A435A62094B13
:103F80005A6E084B5B6E526A5A6200BF1037BD46CC
:103F900080BD00BFAFF300800000000000000040C3
:103FA0000000F03F9406002080B584B000AF786038
:103FB00039600223FB60F868FCF7C4FA02460B463E
:103FC00043EC112B9FED220B06F0C4FA51EC100BC1
:103FD0004FF00002204BFCF777F902460B461046E3
:103FE0001946FCF701FE0346BB607A68BB681340C4
:103FF0007B601A4BD3F8803019683B68FA6802FB83
:1040000003F3BA6802FA03F3DA43144BD3F88030AF
:104010000A401A60114BD3F8803019683B68FA687F
:1040200002FB03F37A689A400C4BD3F880300A43C2
:104030001A600A4BD3F88020084BD3F880301268FE
:104040001A6000BF1037BD4680BD00BFAFF30080CF
:1040500000000000000000400000F03F9406002037
:1040600080B584B000AF786039600223FB60F868E7
:10407000FCF768FA02460B4643EC112B9FED220B2E
:1040800006F068FA51EC100B4FF00002204BFCF7E1
:104090001BF902460B4610461946FCF7A5FD0346E0
:1040A000BB607A68BB6813407B601A4BD3F88030E2
:1040B00099683B68FA6802FB03F3BA6802FA03F3F3
:1040C000DA43144BD3F880300A409A60114BD3F88E
:1040D000803099683B68FA6802FB03F37A689A407B
:1040E0000C4BD3F880300A439A600A4BD3F88020F7
:1040F000084BD3F8803092689A6000BF1037BD46F5
:1041000080BD00BFAFF30080000000000000004051
:104110000000F03F9406002080B584B000AF7860C6
:1041200039600223FB60F868FCF70CFA02460B4684
:1041300043EC112B9FED220B06F00CFA51EC100B07
:104140004FF00002204BFCF7BFF802460B4610462A
:104150001946FCF749FD0346BB607A68BB6813400B
:104160007B601A4BD3F88030D9683B68FA6802FB51
:1041700003F3BA6802FA03F3DA43144BD3F880303E
:104180000A40DA60114BD3F88030D9683B68FA688E
:1041900002FB03F37A689A400C4BD3F880300A4351
:1041A000DA600A4BD3F88020084BD3F88030D2680D
:1041B000DA6000BF1037BD4680BD00BFAFF300809E
:1041C00000000000000000400000F03F94060020C6
:1041D00080B483B000AF7860054BD3F880307A6844
:1041E00012049A6100BF0C37BD465DF8047B70472E
:1041F0009406002080B483B000AF7860054BD3F8FC
:1042000080307A689A6100BF0C37BD465DF8047B48
:10421000704700BF9406002080B584B000AF78607E
:1042200039600423FB60F868FCF78CF902460B4602
:1042300043EC112B9FED380B06F08CF951EC100B71
:104240004FF00002364BFCF73FF802460B46104693
:104250001946FCF7C9FC0346BB607A68BB6813408B
:104260007B603B68072B28D82E4BD3F88030196A27
:104270003B68FA6802FB03F3BA6802FA03F3DA4315
:10428000284BD3F880300A401A62264BD3F880308E
:10429000196A3B68FA6802FB03F37A689A40214B7B
:1042A000D3F880300A431A621E4BD3F880201D4B8E
:1042B000D3F88030126A1A6227E01A4BD3F88030A4
:1042C000596A3B68FA6802FB03F3BA6802FA03F31F
:1042D000DA43144BD3F880300A405A62114BD3F8BA
:1042E0008030596A3B68FA6802FB03F37A689A40A7
:1042F0000C4BD3F880300A435A620A4BD3F8802023
:10430000084BD3F88030526A5A6200BF1037BD465E
:1043100080BD00BFAFF3008000000000000000403F
:104320000000F03F9406002080B584B000AF7860B4
:1043300039600223FB60F868FCF704F902460B467B
:1043400043EC112B9FED220B06F004F951EC100BFE
:104350004FF00002204BFBF7B7FF02460B4610461A
:104360001946FCF741FC0346BB607A68BB68134002
:104370007B601A4BD3F89C3019683B68FA6802FBE3
:1043800003F3BA6802FA03F3DA43144BD3F89C3010
:104390000A401A60114BD3F89C3019683B68FA68E0
:1043A00002FB03F37A689A400C4BD3F89C300A4323
:1043B0001A600A4BD3F89C20084BD3F89C30126843
:1043C0001A6000BF1037BD4680BD00BFAFF300804C
:1043D00000000000000000400000F03F94060020B4
:1043E00080B584B000AF786039600223FB60F86864
:1043F000FCF7A8F802460B4643EC112B9FED220B6D
:1044000006F0A8F851EC100B4FF00002204BFBF720
:104410005BFF02460B4610461946FCF7E5FB0346D8
:10442000BB607A68BB6813407B601A4BD3F89C3042
:1044300099683B68FA6802FB03F3BA6802FA03F36F
:10444000DA43144BD3F89C300A409A60114BD3F8EE
:104450009C3099683B68FA6802FB03F37A689A40DB
:104460000C4BD3F89C300A439A600A4BD3F89C203B
:10447000084BD3F89C3092689A6000BF1037BD4655
:1044800080BD00BFAFF300800000000000000040CE
:104490000000F03F9406002080B584B000AF786043
:1044A00039600223FB60F868FCF74CF802460B46C3
:1044B00043EC112B9FED220B06F04CF851EC100B46
:1044C0004FF00002204BFBF7FFFE02460B46104662
:1044D0001946FCF789FB0346BB607A68BB6813404A
:1044E0007B601A4BD3F89C30D9683B68FA6802FBB2
:1044F00003F3BA6802FA03F3DA43144BD3F89C309F
:104500000A40DA60114BD3F89C30D9683B68FA68EE
:1045100002FB03F37A689A400C4BD3F89C300A43B1
:10452000DA600A4BD3F89C20084BD3F89C30D26851
:10453000DA6000BF1037BD4680BD00BFAFF300801A
:1045400000000000000000400000F03F9406002042
:1045500080B483B000AF7860054BD3F89C307A68A4
:1045600012049A6100BF0C37BD465DF8047B7047AA
:104570009406002080B483B000AF7860054BD3F878
:104580009C307A689A6100BF0C37BD465DF8047BA9
:10459000704700BF9406002080B584B000AF7860FB
:1045A00039600423FB60F868FBF7CCFF02460B463A
:1045B00043EC112B9FED380B05F0CCFF51EC100BA9
:1045C0004FF00002364BFBF77FFE02460B461046CB
:1045D0001946FCF709FB0346BB607A68BB681340C9
:1045E0007B603B68072B28D82E4BD3F89C30196A88
:1045F0003B68FA6802FB03F3BA6802FA03F3DA4392
:10460000284BD3F89C300A401A62264BD3F89C30D2
:10461000196A3B68FA6802FB03F37A689A40214BF7
:10462000D3F89C300A431A621E4BD3F89C201D4BD2
:10463000D3F89C30126A1A6227E01A4BD3F89C30E8
:10464000596A3B68FA6802FB03F3BA6802FA03F39B
:10465000DA43144BD3F89C300A405A62114BD3F81A
:104660009C30596A3B68FA6802FB03F37A689A4007
:104670000C4BD3F89C300A435A620A4BD3F89C2067
:10468000084BD3F89C30526A5A6200BF1037BD46BF
:1046900080BD00BFAFF300800000000000000040BC
:1046A0000000F03F9406002080B584B000AF0346C0
:1046B000FB71FF23FB73324BD3F8B8301B68314AD0
:1046C00013602F4BD3F8B8305B682F4A1360FB7927
:1046D000184600F0FFFF0346FB73294BDB681A6F97
:1046E000274BDB6842F400421A67254BD3F8B830F9
:1046F0005A6A234BD3F8B83042F0CA025A62204BB0
:10470000D3F8B8305A6A1E4BD3F8B83042F053028F
:104710005A621B4BD3F8B830DA68194BD3F8B8306B
:1047200042F08002DA6000BF154BD3F8B830DB6886
:1047300003F04003002BF7D00623FB73104BD3F894
:10474000B8309A680E4BD3F8B83022F020029A6045
:104750000B4BD3F8B830DA68094BD3F8B83022F0F5
:104760008002DA60064B9B681A68054B9B6822F44E
:1047700080721A60FB7B18461037BD4680BD00BFB3
:1047800094060020040800200808002080B584B0AA
:1047900000AF0346FB714FF47C13FB60FB791C4AAE
:1047A000A2FB0323DB08DBB2184600F0B1FD034691
:1047B000FB72FA79164BA3FB0213D9080B469B0038
:1047C0000B445B00D31ADBB2184600F0A1FD034690
:1047D000BB72104BD3F8B8301B680F4A1360FB68EC
:1047E000DA430D4B1B6813400B4A1360BB7A1A0463
:1047F000FB7A1B0513431A46074B1B681343064AF3
:10480000136000F0C3FE00BF1037BD4680BD00BF7F
:10481000CDCCCCCC940600200408002080B584B018
:1048200000AF0346FB714FF4FE43FB60FB791C4A6B
:10483000A2FB0323DB08DBB2184600F069FD034648
:10484000FB72FA79164BA3FB0213D9080B469B00A7
:104850000B445B00D31ADBB2184600F059FD034647
:10486000BB72104BD3F8B8301B680F4A1360FB685B
:10487000DA430D4B1B6813400B4A1360BB7A1A02D4
:10488000FB7A1B0313431A46074B1B681343064A64
:10489000136000F07BFE00BF1037BD4680BD00BF37
:1048A000CDCCCCCC940600200408002080B584B088
:1048B00000AF0346FB717F23FB60FB791B4AA2FB21
:1048C0000323DB08DBB2184600F022FD0346FB722F
:1048D000FA79164BA3FB0213D9080B469B000B4435
:1048E0005B00D31ADBB2184600F012FD0346BB7220
:1048F0000F4BD3F8B8301B680E4A1360FB68DA43DD
:104900000C4B1B6813400B4A1360BA7AFB7A1B01ED
:1049100013431A46074B1B681343064A136000F003
:1049200035FE00BF1037BD4680BD00BFCDCCCCCC1E
:10493000940600200408002080B584B000AF034630
:10494000FB714FF47F03FB60FB79194AA2FB032341
:10495000DB08DBB2184600F0DBFC0346FB72FA7999
:10496000134BA3FB0213D9080B469B000B445B00BF
:10497000D31ADBB2184600F0CBFC0346BB72FB68CF
:10498000DA430C4B1B6813400A4A1360BB7A1A04C3
:10499000FB7A1B0513431A46064B1B681343054A53
:1049A000136000F045FE00BF1037BD4680BD00BF5C
:1049B000CDCCCCCC0808002080B584B000AF034635
:1049C000FB714FF46023FB60FA79124BA3FB0213D7
:1049D000D9080B469B000B445B00D31ADBB2184688
:1049E00000F096FC0346FB72FB68DA430A4B1B6837
:1049F0001340094A1360FB7A5B031A46064B1B6897
:104A00001343054A136000F013FE00BF1037BD4684
:104A100080BD00BFCDCCCCCC0808002080B584B0D0
:104A200000AF0346FB714FF4F853FB60FB79194A62
:104A3000A2FB0323DB08DBB2184600F069FC034647
:104A4000FB72FA79134BA3FB0213D9080B469B00A8
:104A50000B445B00D31ADBB2184600F059FC034646
:104A6000BB72FB68DA430C4B1B6813400A4A1360A5
:104A7000BB7A1A02FB7A1B0313431A46064B1B68C8
:104A80001343054A136000F0D3FD00BF1037BD4645
:104A900080BD00BFCDCCCCCC0808002080B584B050
:104AA00000AF0346FB713F23FB60FB79184AA2FB72
:104AB0000323DB08DBB2184600F02AFC0346FB7236
:104AC000FA79134BA3FB0213D9080B469B000B4446
:104AD0005B00D31ADBB2184600F01AFC0346BB7227
:104AE000FB68DA430B4B1B6813400A4A1360BA7A1F
:104AF000FB7A1B0113431A46064B1B681343054AF6
:104B0000136000F095FD00BF1037BD4680BD00BFAB
:104B1000CDCCCCCC0808002080B483B000AF786046
:104B20003960164B9B681A68144B9B6842F480727C
:104B30001A60124BD3F8B8305A6A104BD3F8B83019
:104B400042F0CA025A620D4BD3F8B8305A6A0B4B86
:104B5000D3F8B83042F053025A627B683A681A6060
:104B6000064B9B681A68054B9B6822F480721A609A
:104B700000BF0C37BD465DF8047B704794060020EB
:104B800090B585B000AF7860464BD3F8B8305B681D
:104B9000FB60FB681B0DDBB203F00F03DAB27B682E
:104BA0001A707B681B78184600F098FB03461A467B
:104BB0007B681A70FB681B0CDAB27B68013302F069
:104BC0000F02D2B21A707B6801331A787B685C1CC2
:104BD000104600F083FB03462370FB685B0BDAB2E0
:104BE0007B68023302F00702D2B21A707B6802338C
:104BF0001A787B689C1C104600F070FB03462370FB
:104C0000FB681B0BDAB27B68033302F00102D2B2FD
:104C10001A707B6803331A787B68DC1C104600F03E
:104C20005DFB03462370FB681B0ADAB27B68043322
:104C300002F00F02D2B21A707B6804331A787B68D4
:104C40001C1D104600F04AFB03462370FB681B093D
:104C5000DAB27B68053302F00302D2B21A707B68C5
:104C600005331A787B685C1D104600F037FB03465D
:104C70002370FB68DAB27B68063302F00F02D2B20F
:104C80001A707B6806331A787B689C1D104600F00A
:104C900025FB03462370044AFB68136000BF1437EA
:104CA000BD4690BD940600200808002090B585B050
:104CB00000AF7860464BD3F8B8301B68FB60444BBC
:104CC000D3F8B830DB6803F02003002B7BD0FB68FF
:104CD0001B0DDBB203F00303DAB27B681A707B684A
:104CE0001B78184600F0FAFA03461A467B681A70D9
:104CF000FB681B0CDAB27B68013302F00F02D2B200
:104D00001A707B6801331A787B685C1C104600F0CF
:104D1000E5FA03462370FB681B0BDAB27B680233AB
:104D200002F00702D2B21A707B6802331A787B68ED
:104D30009C1C104600F0D2FA03462370FB681B0A45
:104D4000DAB27B68033302F00F02D2B21A707B68CA
:104D500003331A787B68DC1C104600F0BFFA034668
:104D60002370FB681B09DAB27B68043302F0070288
:104D7000D2B21A707B6804331A787B681C1D104607
:104D800000F0ACFA03462370FB68DAB27B680533A7
:104D900002F00F02D2B21A707B6805331A787B6872
:104DA0005C1D104600F09AFA03462370094AFB681E
:104DB0001360074BD3F8B830DA68054BD3F8B83036
:104DC00022F02002DA6000BF1437BD4690BD00BF5C
:104DD000940600200408002080B400AF324BDB684A
:104DE0001A6C314BDB6842F000521A642E4BDB68C0
:104DF0005A6C2D4BDB6842F480725A642A4BD3F80C
:104E000008319A68284BD3F8083142F480629A60DE
:104E1000254BD3F81C315A68234BD3F81C3142F48C
:104E200040325A60204BD3F80831DA681E4BD3F871
:104E3000083142F0E062DA601B4BD3F808315A685F
:104E4000194BD3F8083142F400625A60164BD3F87C
:104E500008315A6B144BD3F8083142F012025A63EE
:104E6000114BD3F808319A680F4BD3F8083142F050
:104E700001029A600C4BD3F81C315A680A4BD3F8E4
:104E80001C3142F400025A60074BD3F808319A688B
:104E9000054BD3F8083142F080429A6000BFBD460E
:104EA0005DF8047B704700BF9406002080B500AF1A
:104EB000134BD3F81C311B6803F00203002B15D0F1
:104EC0000F4BD3F80831DB6C1846FBF73BFB02466F
:104ED0000B460C49C1E90023094BD3F808311A6885
:104EE000074BD3F8083122F010021A60054BD3E9C2
:104EF000002343EC172BB0EE470AF0EE670A80BDA3
:104F0000940600203008002080B400AF0B4BD3F88B
:104F10001C311B6803F01003002B09D1074BD3F899
:104F200008319A68054BD3F8083142F080429A6004
:104F300000BFBD465DF8047B704700BF94060020AB
:104F400080B400AF074BD3F808319A68054BD3F80B
:104F5000083142F001029A6000BFBD465DF8047B53
:104F6000704700BF940600202DE9B04F8EB000AF0F
:104F7000034687ED020B3A61FB750B46BB75FB7D63
:104F8000092B0AD1B44BD3F82031DA68B24BD3F8ED
:104F9000203142F48052DA6017E0FB7D082B0AD101
:104FA000AD4BD3F82031DA68AB4BD3F8203122F483
:104FB0008052DA6009E0A84BD3F82031DA68A64BBA
:104FC000D3F8203122F48052DA60BB7D082B0DD15A
:104FD000082387F83730A04BD3F82031DA689E4B8E
:104FE000D3F8203142F40042DA601DE0BB7D102B83
:104FF0000DD1102387F83730974BD3F82031DA687A
:10500000954BD3F8203122F40042DA600CE01023F3
:1050100087F83730904BD3F82031DA688E4BD3F8CD
:10502000203122F40042DA608B4BD3F820311A6928
:10503000894BD3F8203122F440521A614FF000021C
:10504000864BD7E90201FBF73FF902460B463A606F
:1050500023F000437B607EA3D3E90023D7E900015E
:10506000FBF75CFD0346002B0AD07B4BD3F82031C5
:105070001A69794BD3F8203142F480521A6162E008
:105080004FF00002764BD7E90201FBF71DF902460B
:105090000B46924623F0004B6DA3D3E90023504604
:1050A0005946FBF73BFD0346002B0AD06A4BD3F869
:1050B00020311A69684BD3F8203122F440521A612A
:1050C00041E04FF00002674BD7E90201FBF7FCF823
:1050D00002460B46904623F000495DA3D3E9002326
:1050E00040464946FBF71AFD0346002B0AD05A4BAF
:1050F000D3F820311A69584BD3F8203142F440528A
:105100001A6120E04FF000024FF08043D7E902011E
:10511000FBF7DAF802460B46144623F000454CA391
:10512000D3E9002320462946FBF7F8FC0346002B71
:1051300009D0494BD3F820311A69474BD3F82031B5
:1051400042F400521A61484B1B681846FBF7FAF903
:1051500004460D4697F837303A6902FB03F31846C8
:10516000FBF7F0F902460B4620462946FBF78EFB7B
:1051700002460B46C7E90A2307F11803184697EDC4
:105180000A0B01F0FFFA87ED080B334BD3F82031FF
:1051900000229A60BB7D102B2BD14FF00002334BC5
:1051A000D7E90801FBF748FA02460B4643EC172BF8
:1051B000B0EE470AF0EE670A05F086F951EC100BE5
:1051C000254BD3F82041FBF70FFD0346A360224B8C
:1051D000D3F820319C68D7E9062310461946FBF71F
:1051E00003FD03461A011C4BD3F8203122439A6079
:1051F0006BE0BB7D082B3DD14FF000021C4BD7E983
:105200000801FBF719FA02460B4643EC172BB0EEE8
:10521000470AF0EE670A05F057F951EC100B0E4BF8
:10522000D3F82041FBF7E0FC0346A3600A4BD3F818
:1052300020319C68D7E9062310461946FBF7D4FCB9
:1052400003461A01044BD3F8203122439A603CE014
:10525000F168E388B5F8E43E940600200000E03FE2
:105260000000F03F0000F83F040000200000304044
:10527000000020404FF00002164BD7E90801FBF771
:10528000DBF902460B4643EC172BB0EE470AF0EE73
:10529000670A05F019F951EC100B0F4BD3F82041B8
:1052A000FBF7A2FC0346A3600B4BD3F820319C68AC
:1052B000D7E9062310461946FBF796FC03461A0168
:1052C000054BD3F8203122439A6000BF3837BD46E2
:1052D000BDE8B08F000030409406002080B483B059
:1052E00000AF0346FB71FB791B09DBB21A46920043
:1052F00013445B00DAB2FB7903F00F03DBB2134413
:10530000DBB218460C37BD465DF8047B70470000E1
:1053100080B483B000AF0346FB71FB790C4AA2FB5B
:105320000323DB08DBB21B01D8B2FA79084BA3FBDD
:105330000213D9080B469B000B445B00D31ADBB267
:105340000344DBB218460C37BD465DF8047B70475A
:10535000CDCCCCCC80B485B000AFF8600B467A6081
:10536000FB72264B0022DA60244B1B68002B02D014
:10537000012B10D039E0FB7A012202FA03F31A461E
:10538000FB681340002B2DD01C4A7B6853601B4BDD
:1053900001221A6026E0FB7A012202FA03F31A4680
:1053A000FB681340002B1FD0144A7B689360134B9B
:1053B0009B685A1C114B5B689A4207D90F4B9A683D
:1053C0000E4B5B68D31A0D4AD36007E00B4B9A680B
:1053D0000A4B5B68D31A013B084AD360074B002293
:1053E0001A6001E000BF00E000BF044BDB68184614
:1053F0001437BD465DF8047B704700BF0C080020E1
:1054000080B485B000AFF860B9603B601346FB71B3
:10541000254B0022DA60244B1B68002B02D0012BA5
:1054200010D039E0FB79012202FA03F31A46FB6837
:105430001340002B2DD01C4A3B6853601A4B0122AD
:105440001A6026E0FB79012202FA03F31A46BB68D0
:105450001340002B1FD0144A3B689360124B9B688B
:105460005A1C114B5B689A4207D90F4B9A680E4B36
:105470005B68D31A0C4AD36007E00B4B9A680A4B5F
:105480005B68D31A013B084AD360074B00221A60BD
:1054900001E000BF00E000BF034BDB681846143793
:1054A000BD465DF8047B70471C08002080B483B0C3
:1054B00000AFB8803B799BB21B029AB27B799BB25A
:1054C00013439BB218460C37BD465DF8047B70470A
:1054D00080B483B000AFB8807B799BB21B029AB2D4
:1054E0003B799BB213439BB218460C37BD465DF81F
:1054F000047B704780B485B000AF0346FB80FB8817
:105500001B0A9BB2DBB23B72FB88DBB27B723B892E
:10551000BB8100233A7B62F307037A7B62F30F239C
:1055200018461437BD465DF8047B704780B485B0DB
:1055300000AF0346FB80FB881B0A9BB2DBB27B7289
:10554000FB88DBB23B723B89BB8100233A7B62F371
:1055500007037A7B62F30F2318461437BD465DF8C4
:10556000047B704780B485B000AF0346FB80FB88A6
:105570001B02FB81FB881B0A9AB2FB8913439BB277
:1055800018461437BD465DF8047B704780B400AF01
:10559000254B9B681A68244B9B6842F480721A6002
:1055A000214BD3F8B8305A6A1F4BD3F8B83042F0C9
:1055B000CA025A621C4BD3F8B8305A6A1A4BD3F855
:1055C000B83042F053025A62174BD3F8B830DA6859
:1055D000154BD3F8B83042F08002DA6000BF124BAE
:1055E000D3F8B830DB6803F04003002BF7D00E4B44
:1055F000D3F8B8300D4A12681A600B4BD3F8B830A4
:10560000DA68094BD3F8B83022F08002DA60064B32
:105610009B681A68044B9B6822F480721A6000BF72
:10562000BD465DF8047B7047940600200408002006
:1056300080B400AF254B9B681A68244B9B6842F4EA
:1056400080721A60214BD3F8B8305A6A1F4BD3F8D6
:10565000B83042F0CA025A621C4BD3F8B8305A6ACA
:105660001A4BD3F8B83042F053025A62174BD3F8B2
:10567000B830DA68154BD3F8B83042F08002DA60FF
:1056800000BF124BD3F8B830DB6803F04003002BA7
:10569000F7D00E4BD3F8B8300D4A12685A600B4B56
:1056A000D3F8B830DA68094BD3F8B83022F080026A
:1056B000DA60064B9B681A68044B9B6822F4807280
:1056C0001A6000BFBD465DF8047B70479406002059
:1056D0000808002080B485B000AF0346FB71784B0A
:1056E000DB681A6C764BDB6842F080521A64744BAC
:1056F0009B681A68724B9B6842F480721A60FB794F
:10570000032B57D801A252F823F000BF1D57000801
:1057100043570008695700086F570008684BDB685B
:105720005A6F674BDB6842F001025A6700BF644B57
:10573000DB685B6F03F00203002BF8D00023FB73E0
:105740004BE05F4BDB681A6F5D4BDB6842F0010298
:105750001A6700BF5A4BDB681B6F03F00203002B74
:10576000F8D00123FB7338E00223FB7335E0544B80
:10577000DB685A6F524BDB6842F001025A6700BF88
:105780004F4BDB685B6F03F00203002BF8D04C4BF0
:10579000DB681A6F4A4BDB6842F001021A6700BFF0
:1057A000474BDB681B6F03F00203002BF8D0032389
:1057B000FB7312E0424BDB685A6F414BDB6842F0EF
:1057C00001025A6700BF3E4BDB685B6F03F00203C8
:1057D000002BF8D00423FB7300BFFB79032B57D8B1
:1057E00001A252F823F000BFF95700081F58000823
:1057F000455800086B580008314BDB681A6F304B76
:10580000DB6822F440721A672D4BDB681A6F2C4B51
:10581000DB6842F400721A670523FB7349E0284BEA
:10582000DB681A6F264BDB6822F440721A67244B40
:10583000DB681A6F224BDB6842F480721A6706231A
:10584000FB7336E01E4BDB681A6F1D4BDB6822F4DE
:1058500040721A671A4BDB681A6F194BDB6842F407
:1058600040721A670723FB7323E0154BDB681A6F3E
:10587000134BDB6822F440721A67114BDB681A6F16
:105880000F4BDB6842F400721A670823FB7310E0C9
:105890000B4BDB681A6F0A4BDB6822F440721A6705
:1058A000074BDB681A6F064BDB6842F400721A671D
:1058B00000BFFB7B18461437BD465DF8047B70477C
:1058C0009406002080B400AF0D4B1A680D4BD3F83E
:1058D000F830013A5A600B4BD3F8F83000229A6046
:1058E000084BD3F8F8301A68064BD3F8F83042F07A
:1058F00006021A6000BFBD465DF8047B704700BF1A
:10590000040000209406002080B483B000AF7860CB
:10591000164B1B68164AA2FB03239A09154BD3F8B2
:10592000F830013A5A60134BD3F8F8301A68114B2B
:10593000D3F8F83042F001021A600F4B00221A60CF
:1059400000BF0D4B1B687A689A42FAD8094BD3F80E
:10595000F8301A68074BD3F8F83022F001021A60C9
:1059600000BF0C37BD465DF8047B70470400002083
:10597000D34D6210940600200008002080B483B04C
:1059800000AF7860174B1B685B09174AA2FB032323
:10599000DA09164BD3F8F830013A5A60134BD3F8B2
:1059A000F8301A68114BD3F8F83042F001021A604F
:1059B0000F4B00221A6000BF0D4B1B687A689A4299
:1059C000FAD80A4BD3F8F8301A68084BD3F8F830F5
:1059D00022F001021A6000BF0C37BD465DF8047B5F
:1059E000704700BF04000020C55A7C0A94060020BE
:1059F0000008002080B400AF044B1B680133034A49
:105A0000136000BFBD465DF8047B704700080020AE
:105A1000014B1868704700BF0800002070B50D4D9D
:105A20000D4C641BA4100026A64209D10B4D0C4C52
:105A300005F0ACFC641BA4100026A64205D170BD85
:105A400055F8043B98470136EEE755F8043B984774
:105A50000136F2E770B9000870B9000870B90008A3
:105A600074B900080A44914200F1FF3300D1704735
:105A700010B511F8014B03F8014F9142F9D110BD57
:105A800002440346934200D1704703F8011BF9E733
:105A90002DE9FF4755EC104B002D0E4619462B46BD
:105AA000BBBF05F100431D4600232D230B700D9B4A
:105AB000DDF830A0914623F02008BCBF22461446F2
:105AC000B8F1460F05D0B8F1450F00D101360221DB
:105AD00000E0032103AB019302AB009345EC104BB4
