:020000040800F2
:1000000000000220D91C0008291D0008291D000835
:10001000291D0008291D0008291D000800000000F6
:10002000000000000000000000000000291D000882
:10003000291D000800000000291D00089D5B000824
:10004000291D0008291D0008291D0008291D000878
:10005000291D0008291D0008291D0008291D000868
:10006000291D0008291D0008291D0008291D000858
:10007000291D0008291D0008291D0008291D000848
:10008000291D0008291D0008291D0008291D000838
:10009000291D0008291D0008291D0008291D000828
:1000A000351A0008291D0008291D0008291D00080F
:1000B000291D0008291D0008291D0008291D000808
:1000C000291D0008291D0008291D0008291D0008F8
:1000D000291D0008291D0008291D0008291D0008E8
:1000E000291D0008291D0008291D0008291D0008D8
:1000F000291D0008291D0008291D0008291D0008C8
:10010000291D0008291D0008291D0008291D0008B7
:10011000291D0008291D0008291D0008291D0008A7
:10012000291D0008291D0008291D0008291D000897
:10013000291D00080000000000000000291D000823
:10014000291D0008291D0008291D0008291D000877
:10015000291D0008291D0008291D0008291D000867
:10016000291D0008291D0008291D0008291D000857
:10017000291D0008291D0008291D00080000000095
:1001800000000000291D0008000000000000000021
:10019000291D00080000000000000000291D0008C3
:1001A000000000000000000000000000291D000801
:1001B000291D0008291D0008291D0008291D000807
:0401C000291D0008ED
:1001D00010B5054C237833B9044B13B10448AFF381
:1001E00000800123237010BDE0010020000000000A
:1001F00034B5000808B5034B1BB103490348AFF3FE
:10020000008008BD00000000E401002034B50008B3
:10021000034613F8012B002AFBD1181A0138704746
:1002200001F0FF01102A2BDB10F0070F08D010F8A7
:10023000013B013A8B422DD010F0070F42B3F6D1AB
:10024000F0B441EA012141EA014122F007047FF0C4
:1002500000070023F0E80256083C85EA010586EA1B
:10026000010685FA47F5A3FA87F586FA47F6A5FA57
:1002700087F68EB9EED1F0BC01F0FF0102F0070263
:1002800032B110F8013B013A83EA010313B1F8D10E
:100290000020704701387047002D06BF35460338EF
:1002A000073815F0010F07D1013015F4807F02BF28
:1002B000013015F4C03F0130F0BC0138704700BF79
:1002C00081F0004102E000BF83F0004330B54FEA07
:1002D00041044FEA430594EA050F08BF90EA020F74
:1002E0001FBF54EA000C55EA020C7FEA645C7FEA07
:1002F000655C00F0E2804FEA5454D4EB5555B8BF2A
:100300006D420CDD2C4480EA020281EA030382EA9A
:10031000000083EA010180EA020281EA0303362D2C
:1003200088BF30BD11F0004F4FEA01314FF4801CFF
:100330004CEA113102D0404261EB410113F0004F11
:100340004FEA03334CEA133302D0524263EB4303C8
:1003500094EA050F00F0A780A4F10104D5F1200E66
:100360000DDB02FA0EFC22FA05F2801841F10001C1
:1003700003FA0EF2801843FA05F359410EE0A5F195
:1003800020050EF1200E012A03FA0EFC28BF4CF0C6
:10039000020C43FA05F3C01851EBE37101F000457C
:1003A00007D54FF0000EDCF1000C7EEB00006EEB89
:1003B0000101B1F5801F1BD3B1F5001F0CD3490813
:1003C0005FEA30004FEA3C0C04F101044FEA44526A
:1003D00012F5800F80F09A80BCF1004F08BF5FEAF1
:1003E000500C50F1000041EB045141EA050130BDD1
:1003F0005FEA4C0C404141EB0101013C28BFB1F5E3
:10040000801FE9D291F0000F04BF01460020B1FA2D
:1004100081F308BF2033A3F10B03B3F120020CDA00
:100420000C3208DD02F1140CC2F10C0201FA0CF0DE
:1004300021FA02F10CE002F11402D8BFC2F1200C43
:1004400001FA02F120FA0CFCDCBF41EA0C019040F9
:10045000E41AA2BF01EB0451294330BD6FEA040442
:100460001F3C1CDA0C340EDC04F11404C4F120022D
:1004700020FA04F001FA02F340EA030021FA04F33F
:1004800045EA030130BDC4F10C04C4F1200220FA96
:1004900002F001FA04F340EA0300294630BD21FAD4
:1004A00004F0294630BD94F0000F83F4801306BF9A
:1004B00081F480110134013D4EE77FEA645C18BF8E
:1004C0007FEA655C29D094EA050F08BF90EA020F25
:1004D00005D054EA000C04BF1946104630BD91EA1D
:1004E000030F1EBF0021002030BD5FEA545C05D120
:1004F0004000494128BF41F0004130BD14F580045F
:100500003CBF01F5801130BD01F0004545F0FE41D2
:1005100041F470014FF0000030BD7FEA645C1ABF07
:10052000194610467FEA655C1CBF0B46024650EA3E
:10053000013406BF52EA033591EA030F41F400216A
:1005400030BD00BF90F0000F04BF0021704730B5F0
:100550004FF4806404F132044FF000054FF00001C5
:1005600050E700BF90F0000F04BF0021704730B586
:100570004FF4806404F1320410F0004548BF40425B
:100580004FF000013EE700BF42004FEAE2014FEAB0
:1005900031014FEA02701FBF12F07F4393F07F4F8B
:1005A00081F06051704732F07F4208BF704793F08E
:1005B0007F4F04BF41F40021704730B54FF46074A1
:1005C00001F0004521F000411CE700BF50EA0102A4
:1005D00008BF704730B54FF000050AE050EA01024D
:1005E00008BF704730B511F0004502D5404261EBBD
:1005F00041014FF4806404F132045FEA915C3FF4FE
:10060000D8AE4FF003025FEADC0C18BF03325FEA9A
:10061000DC0C18BF033202EBDC02C2F1200300FA4B
:1006200003FC20FA02F001FA03FE40EA0E0021FA70
:1006300002F11444BDE600BF70B54FF0FF0C4CF45E
:10064000E06C1CEA11541DBF1CEA135594EA0C0F10
:1006500095EA0C0F00F0DEF82C4481EA030621EA4B
:100660004C5123EA4C5350EA013518BF52EA033586
:1006700041F4801143F4801338D0A0FB02CE4FF038
:100680000005E1FB02E506F00042E0FB03E54FF068
:100690000006E1FB03569CF0000F18BF4EF0010E60
:1006A000A4F1FF04B6F5007F64F5407404D25FEA5C
:1006B0004E0E6D4146EB060642EAC62141EA55510F
:1006C0004FEAC52040EA5E504FEACE2EB4F1FD0C51
:1006D00088BFBCF5E06F1ED8BEF1004F08BF5FEACF
:1006E000500E50F1000041EB045170BD06F0004681
:1006F00046EA010140EA020081EA0301B4EB5C042E
:10070000C2BFD4EB0C0541EA045170BD41F4801125
:100710004FF0000E013C00F3AB8014F1360FDEBF4A
:10072000002001F0004170BDC4F10004203C35DA26
:100730000C341BDC04F11404C4F1200500FA05F3A9
:1007400020FA04F001FA05F240EA020001F000424A
:1007500021F0004110EBD37021FA04F642EB0601C0
:100760005EEA430E08BF20EAD37070BDC4F10C04EA
:10077000C4F1200500FA04F320FA05F001FA04F2AE
:1007800040EA020001F0004110EBD37041F100019A
:100790005EEA430E08BF20EAD37070BDC4F12005A5
:1007A00000FA05F24EEA020E20FA04F301FA05F20D
:1007B00043EA020321FA04F001F0004121FA04F2B5
:1007C00020EA020000EBD3705EEA430E08BF20EA85
:1007D000D37070BD94F0000F0FD101F000464000BF
:1007E00041EB010111F4801F08BF013CF7D041EA41
:1007F000060195F0000F18BF704703F00046520045
:1008000043EB030313F4801F08BF013DF7D043EA15
:100810000603704794EA0C0F0CEA135518BF95EACB
:100820000C0F0CD050EA410618BF52EA4306D1D152
:1008300081EA030101F000414FF0000070BD50EA71
:10084000410606BF1046194652EA430619D094EAFB
:100850000C0F02D150EA013613D195EA0C0F05D1E5
:1008600052EA03361CBF104619460AD181EA030139
:1008700001F0004141F0FE4141F470014FF00000F1
:1008800070BD41F0FE4141F4780170BD70B54FF08C
:10089000FF0C4CF4E06C1CEA11541DBF1CEA13550C
:1008A00094EA0C0F95EA0C0F00F0A7F8A4EB0504EE
:1008B00081EA030E52EA03354FEA013100F08880E5
:1008C0004FEA03334FF0805545EA131343EA1263AE
:1008D0004FEA022245EA111545EA10654FEA002663
:1008E0000EF000419D4208BF964244F1FD0404F51C
:1008F000407402D25B084FEA3202B61A65EB030578
:100900005B084FEA32024FF480104FF4002CB6EB34
:10091000020E75EB030E22BFB61A754640EA0C00B4
:100920005B084FEA3202B6EB020E75EB030E22BFF4
:10093000B61A754640EA5C005B084FEA3202B6EB35
:10094000020E75EB030E22BFB61A754640EA9C00F4
:100950005B084FEA3202B6EB020E75EB030E22BFC4
:10096000B61A754640EADC0055EA060E18D04FEA82
:10097000051545EA16754FEA06164FEAC30343EA22
:1009800052734FEAC2025FEA1C1CC0D111F4801FEF
:100990000BD141EA00014FF000004FF0004CB6E7E8
:1009A00011F4801F04BF01430020B4F1FD0C88BF87
:1009B000BCF5E06F3FF6AFAEB5EB030C04BFB6EB92
:1009C000020C5FEA500C50F1000041EB045170BD85
:1009D0000EF0004E4EEA113114EB5C04C2BFD4EBB2
:1009E0000C0541EA045170BD41F480114FF0000E36
:1009F000013C90E645EA060E8DE60CEA135594EAB2
:100A00000C0F08BF95EA0C0F3FF43BAF94EA0C0FB4
:100A10000AD150EA01347FF434AF95EA0C0F7FF429
:100A200025AF104619462CE795EA0C0F06D152EA7D
:100A300003353FF4FDAE1046194622E750EA410661
:100A400018BF52EA43067FF4C5AE50EA41047FF472
:100A50000DAF52EA43057FF4EBAE12E74FF0FF3CD7
:100A600006E000BF4FF0010C02E000BF4FF0010CA8
:100A70004DF804CD4FEA410C7FEA6C5C4FEA430C21
:100A800018BF7FEA6C5C1BD001B050EA410C0CBF70
:100A900052EA430C91EA030F02BF90EA020F0020D2
:100AA000704710F1000F91EA030F58BF994208BF39
:100AB00090422CBFD8176FEAE37040F001007047F6
:100AC0004FEA410C7FEA6C5C02D150EA013C07D14D
:100AD0004FEA430C7FEA6C5CD6D152EA033CD3D098
:100AE0005DF8040B704700BF8446104662468C4692
:100AF0001946634600E000BF01B5FFF7B7FF0028C5
:100B000048BF10F1000F01BD4DF808EDFFF7F4FFED
:100B10000CBF012000205DF808FB00BF4DF808ED78
:100B2000FFF7EAFF34BF012000205DF808FB00BF9B
:100B30004DF808EDFFF7E0FF94BF012000205DF8BD
:100B400008FB00BF4DF808EDFFF7CEFF94BF012072
:100B500000205DF808FB00BF4DF808EDFFF7C4FF6B
:100B600034BF012000205DF808FB00BF4FEA410CB4
:100B70007FEA6C5C02D150EA013C0AD14FEA430C97
:100B80007FEA6C5C02D152EA033C02D14FF00000D4
:100B900070474FF0010070474FEA410212F5001212
:100BA00015D211D56FF47873B3EB625212D94FEAB4
:100BB000C12343F0004343EA505311F0004F23FA9E
:100BC00002F018BF404270474FF00000704750EAF3
:100BD000013005D111F0004008BF6FF000407047B0
:100BE0004FF00000704700BF4A0011D212F500120A
:100BF00011D20DD56FF47873B3EB62520ED44FEA75
:100C0000C12343F0004343EA505323FA02F07047F4
:100C10004FF00000704750EA013002D14FF0FF3032
:100C200070474FF0000070474FEA4102B2F1E043D5
:100C300024BFB3F5001CDCF1FE5C0DD901F0004CC3
:100C40004FEAC0024CEA5070B2F1004F40EB830013
:100C500008BF20F00100704711F0804F21D113F13F
:100C60003872BCBF01F00040704741F480114FEA78
:100C70005252C2F11802C2F1200C10FA0CF320FA01
:100C800002F018BF40F001004FEAC1234FEAD3231E
:100C900003FA0CFC40EA0C0023FA02F34FEA430388
:100CA000CCE77FEA625307D150EA01331EBF4FF011
:100CB000FE4040F44000704701F0004040F0FE402C
:100CC00040F40000704700BF38B5002200230446FE
:100CD0000D46FFF723FF28B920462946BDE83840D6
:100CE00000F00AB8204605F1004100F005F8404246
:100CF00061EB410138BD00BFD0B50C4B0022064668
:100D00000F46FFF799FCFFF76FFF0446FFF71AFC49
:100D1000074B0022FFF790FC02460B46304639464F
:100D2000FFF7D2FAFFF760FF2146D0BD0000F03D8B
:100D30000000F04100000000B0B5E6B002AF4FF097
:100D400000024FF00003C7E962230023C7F8843193
:100D50003C23C7F88031A64C3B46184601F05EFFA5
:100D600007F5C873A3F5C873204619464FF4C0733E
:100D70001A4604F04BFF9E4BD3F83C31984700F0E5
:100D800055F900F075F99B4C3B46184601F07EF989
:100D900007F5C873A3F5C8732046194690231A4671
:100DA00004F034FF944C3B46184601F0DBF807F59D
:100DB000C873A3F5C8731D460FCD0FC495E807008F
:100DC00084E807008D4C3B46184601F0CBF807F548
:100DD000C873A3F5C8731D460FCD0FC495E807006F
:100DE00084E80700864C3B46184601F0BBF807F53F
:100DF000C873A3F5C8731D460FCD0FC495E807004F
:100E000084E807007F4B03221A707F4B00221A7080
:100E10007E4B00221A807E4B00221A70744B1B6D91
:100E20001946734B1B6D03F114027A4C38460023AC
:100E3000019301230093022300F078FF07F5C873A4
:100E4000A3F5C872234607CA83E80700684B5A6BAC
:100E5000714C3B461146184601F0B6FA07F5C873C7
:100E6000A3F5C8731D460FCD0FC40FCD0FC495E871
:100E7000070084E807005E4BD3F8143198475C4BB9
:100E8000D3F81C3198475A4BD3F820319847584B28
:100E9000D3F8C43001209847554BD3F804310A20C9
:100EA0009847534BD3F8EC30514AD2F8C020503217
:100EB0005A4910469847504B9B694D4A92691269AE
:100EC00011464D4898474D4B9B69494A526B1269F0
:100ED00011464A4898474A4B9B69454A126D126928
:100EE0001146474898474C4B9B6A984700F000F9D9
:100EF000494B5B6A002101209847474B5C693D4B99
:100F0000D3F88C303A4AD2F8C020503211464448C7
:100F1000984703461846A0473F4B5B6A04210120CF
:100F20009847D7F88031D7F884219A4217D2304BAE
:100F3000D3F82431984753EC102BD7E96201FFF71F
:100F4000C5F902460B46C7E96223294BD3F828317D
:100F50009847D7F884310133C7F88431ABE7D7F825
:100F60008001FFF7FFFA02460B46D7E96201FFF75F
:100F70008DFC02460B46C7E9622319A3D3E900237F
:100F8000D7E96201FFF782FC02460B46104619467C
:100F900015A3D3E90023FFF797F902460B46104645
:100FA00019464FF000021F4BFFF790F902460B461F
:100FB000C7E96223184B9C690E4BD3F88C50D7E9D4
:100FC0006201FFF711FE0346DF2219461648A847C3
:100FD000034607211846A0470023C7F884316AE773
:100FE000CDCCCCCCCCCC0840638C31C6180373403C
:100FF000FC0100207C0300200C04002028040020B9
:101000004404002098040020A4040020A60400202A
:10101000A8040020600400206C0400204355420016
:1010200050B500080000394054B5000880B500AF45
:101030000E4BDB681A6B0D4BDB6842F007021A633C
:101040000A4BDB69052101209847084B5B6A0521A3
:1010500000209847054B5B6D0D2100209847034BFE
:10106000DB6D0D210120984700BF80BDFC010020F1
:1010700080B400AF1D4BDB685A6C1C4BDB6842F43C
:1010800080325A64194BD3F8FC301A68174BD3F8E6
:10109000FC3042F080721A60144BD3F80C314BF2E2
:1010A000DF12DA62114BD3F80C3141F66A525A63FF
:1010B0000E4BD3F80C3114229A620C4BD3F80C313E
:1010C000DA680A4BD3F80C3142F00302DA60074BBE
:1010D000D3F80C311A68054BD3F80C3142F0810279
:1010E0001A6000BFBD465DF8047B7047FC0100201C
:1010F000F0B585B004AF704B1B78013B082B00F2B4
:101100006B8401A252F823F02D110008F31100089E
:10111000E9120008FB13000815150008F315000874
:1011200009170008E7170008FD180008634B5B6A01
:10113000002100209847614B9B6910216048984727
:10114000604BD3F8E830604898475C4B5B6A0021FD
:1011500003209847594B9C695C4BD3F88C505A4BF1
:101160001B781846584B5B781E46574B9B789C461D
:10117000554BDB781A46544B1B791946524B5B7919
:101180000293019100926346324601465048A847B7
:10119000034611211846A0474A4BD3F84C414D4B0A
:1011A00058694C4B19694C4B1B880D22A0470346CC
:1011B0004A4A1360494B1B68052B06D9474B1B68ED
:1011C0000A2B02D83C4B02221A70444B1B680A2B94
:1011D00006D9424B1B681D2B02D8374B04221A70CC
:1011E0003E4B1B68282B40F2F983334B03221A70C5
:1011F000F4E3324B5B6A0021002098472F4B9B6938
:101200001021374898472F4BD3F8E4302E489847A1
:101210002A4B5B6A002103209847284B9C692B4B83
:10122000D3F88C50284B5B791846274B9B791E4688
:10123000254BDB789C46244B1B791A46224B1B78A6
:101240001946214B5B780293019100926346324626
:1012500001462448A847034611211846A047194BC8
:10126000D3F84C411B4B58691A4B19691A4B1B8810
:101270000D22A0470346194A1360184B1B68052B23
:1012800006D9164B1B680A2B02D80B4B01221A7089
:10129000124B1B680A2B06D9104B1B681D2B02D85A
:1012A000054B07221A700D4B1B68282B40F29883C0
:1012B000014B03221A7093E3980400206C04002071
:1012C0005CB50008FC010020AC0400207C03002079
:1012D00064B5000844040020A6040020A0040020F7
:1012E0007CB5000884B500087B4B5B6A00210020B8
:1012F0009847794B9B69102178489847784BD3F8E9
:10130000E43078489847744B5B6A00210220984784
:10131000714B9C69744BD3F88C50724B5B791846B7
:10132000704B9B791E466F4BDB789C466D4B1B794F
:101330001A466C4B1B7819466A4B5B7802930191F5
:1013400000926346324601466848A8470346112189
:101350001846A047624BD3F8E830624898475E4B86
:101360005B6A0021032098475B4B9C695E4BD3F876
:101370008C505C4B1B7818465A4B5B781E46594B79
:101380009B789C46574BDB781A46564B1B7919467F
:10139000544B5B79029301910092634632460146B9
:1013A0005348A847034611211846A0474C4BD3F891
:1013B0004C41504B58694F4B19694F4B1B880D22BC
:1013C000A0470346282B40F20D83434B5B6A002164
:1013D00002209847404B9B691121484898473E4B53
:1013E0005B6A0021032098473B4B9B690F214348D0
:1013F0009847434B01221A70F4E2374B5B6A002195
:1014000000209847344B9B6910213E489847344B45
:10141000D3F84C41374B5869364B1969364B1B880A
:101420000D22A0470346384A1360374B1B68002B38
:1014300023D0354B1B68052B1FD8344B1B78013349
:10144000DAB2324B1A70314B1B78172B02D92F4B63
:1014500000221A70204B5B6A0021022098471E4B25
:101460009C69214BD3F88C30284A127811462848C1
:101470009847034610211846A047234B1B680A2BA8
:1014800010D9214B1B68132B0CD8134B5B6A00211E
:1014900002209847104B9B69102118489847184B19
:1014A00005221A70184B1B68132B40F29D820A4BC1
:1014B0005B6A002102209847074B9B6910210F4867
:1014C00098470F4B01221A70054BD3F8D8300F4ABA
:1014D00012781046984787E26C0400209CB50008FB
:1014E000FC010020AC0400207C03002084B500082F
:1014F00064B5000844040020A6040020A8B5000834
:1015000098040020ACB50008A00400209904002035
:10151000BCB500086E4B5B6A0021002098476C4BFD
:101520009B6910216B4898476B4BD3F84C416B4B30
:1015300058696A4B19696A4B1B880D22A0470346FC
:10154000684A1360674B1B68002B23D0654B1B68F0
:10155000052B1FD8644B1B780133DAB2624B1A702B
:10156000614B1B783B2B02D95F4B00221A70584B02
:101570005B6A002102209847554B9C695B4BD3F86E
:101580008C30594A12781146594898470346102121
:101590001846A047534B1B680A2B10D9514B1B68A8
:1015A000132B0CD84A4B5B6A002102209847484B0A
:1015B0009B6910214F4898474F4B06221A70494BA0
:1015C0001B68132B40F21282414B5B6A0021022000
:1015D00098473F4B9B69102146489847464B01224C
:1015E0001A703D4BD3F8DC303F4A127810469847CA
:1015F000FCE1374B5B6A002100209847344B9B6924
:1016000010213E489847344BD3F84C41334B58692E
:10161000324B1969324B1B880D22A0470346314AD1
:101620001360304B1B68002B23D02E4B1B68052BFF
:101630001FD8334B1B780133DAB2314B1A70304B61
:101640001B783B2B02D92E4B00221A70204B5B6A71
:101650000021022098471E4B9C69244BD3F88C3004
:10166000274A127811462748984703461021184602
:10167000A0471C4B1B680A2B10D91A4B1B68132B55
:101680000CD8134B5B6A002102209847104B9B69D2
:10169000102118489847184B01221A70114B1B68EB
:1016A000132B40F2A5810A4B5B6A00210220984768
:1016B000074B9B6910210F4898470F4B01221A7066
:1016C000054BD3F8E0300E4A1278104698478FE168
:1016D0006C040020C8B50008FC0100204404002070
:1016E000A6040020A00400209A0400207C0300200F
:1016F000D8B50008A8B5000898040020E4B5000893
:101700009B040020F8B500086E4B5B6A00210020A6
:1017100098476C4B9B6910216B4898476B4BD3F8EB
:101720004C416B4B58696A4B19696A4B1B880D22F7
:10173000A0470346684A1360674B1B68002B23D001
:10174000654B1B68052B1FD8644B1B780133DAB23D
:10175000624B1A70614B1B78632B02D95F4B0022DE
:101760001A70584B5B6A002102209847554B9C69C0
:101770005B4BD3F88C30594A127811465948984738
:10178000034610211846A047534B1B680A2B10D95B
:10179000514B1B68132B0CD84A4B5B6A002102206B
:1017A0009847484B9B6910214F4898474F4B082258
:1017B0001A70494B1B68132B40F21C81414B5B6A2A
:1017C0000021022098473F4B9B69102146489847CB
:1017D000464B02221A703D4BD3F8D4303F4A127860
:1017E0001046984706E1374B5B6A00210020984776
:1017F000344B9B6910213E489847344BD3F84C41F9
:10180000334B5869324B1969324B1B880D22A04764
:101810000346314A1360304B1B68002B23D02E4BFC
:101820001B68052B1FD8334B1B780133DAB2314BC1
:101830001A70304B1B780C2B02D92E4B01221A70D8
:10184000204B5B6A0021022098471E4B9C69244B69
:10185000D3F88C30274A1278114627489847034618
:1018600010211846A0471C4B1B680A2B10D91A4B95
:101870001B68132B0CD8134B5B6A0021022098477E
:10188000104B9B69102118489847184B09221A7071
:10189000114B1B68132B40F2AF800A4B5B6A00218F
:1018A00002209847074B9B6910210F4898470F4B20
:1018B00002221A70054BD3F8CC300E4A127810462B
:1018C000984799E06C04002004B60008FC01002051
:1018D00044040020A6040020A00400209C04002052
:1018E0007C03002010B60008A8B50008980400206A
:1018F00018B600080000002024B60008424B5B6ABE
:10190000002100209847404B9B6910213F48984791
:101910003F4BD3F84C413F4B58693E4B19693E4B06
:101920001B880D22A04703463C4A13603B4B1B68B3
:10193000002B23D0394B1B68052B1FD8384B1B7845
:101940000133DAB2364B1A70354B1B781F2B02D994
:10195000334B01221A702C4B5B6A002102209847FE
:10196000294B9C692F4BD3F88C302D4A12781146A5
:101970002D489847034610211846A047274B1B685F
:101980000A2B10D9254B1B68132B0CD81E4B5B6AF6
:101990000021022098471C4B9B691021234898473F
:1019A000234B02221A701D4B1B68132B26D9164B92
:1019B0005B6A002102209847134B9B6910211B484A
:1019C00098471B4B02221A70114BD3F8C830144AA7
:1019D00012781046984711E000BF10E000BF0EE0FB
:1019E00000BF0CE000BF0AE000BF08E000BF06E057
:1019F00000BF04E000BF02E000BF00E000BF00BF86
:101A00000437BD46F0BD00BF6C0400202CB60008B2
:101A1000FC01002044040020A6040020A0040020B3
:101A2000010000207C03002038B60008A8B500089B
:101A30009804002080B500AF364BD3F80C311B69F9
:101A400003F00103002B50D0324BD3F80C311A694C
:101A5000304BD3F80C3122F001021A612E4B1B7867
:101A6000002B1ED02B4B9B6A202098472B4B5B688A
:101A70002B4A92F90010CAB2013AD2B250B2284AA7
:101A8000107001228A40D2B2D243D2B21046984797
:101A9000234B93F90030002B21DA1F4B00221A70E0
:101AA0001DE01C4BDB6A202098471C4B5B681C4ADE
:101AB00092F90010CAB20132D2B250B2184A107074
:101AC00001228A40D2B2D243D2B210469847144B78
:101AD00093F90030072B02DD0F4B01221A70114BD6
:101AE0001B8801339AB20F4B1A800A4BD3F80C3182
:101AF0001B6903F00203002B09D0064BD3F80C310D
:101B00001A69044BD3F80C3122F002021A6100BFAB
:101B100080BD00BFFC010020A8040020600400205C
:101B2000A4040020A604002080B400AF01231846BE
:101B3000BD465DF8047B704780B582B000AF786029
:101B4000396004F039F8034616221A604FF0FF336B
:101B500018460837BD4680BD80B582B000AF7860BA
:101B60004FF0FF317868FFF7E7FFFEE780B586B0FA
:101B700000AFF860B9607A6000237B610AE0AFF3E0
:101B800000800146BB685A1CBA60CAB21A707B69F1
:101B900001337B617A697B689A42F0DB7B68184687
:101BA0001837BD4680BD80B586B000AFF860B9601B
:101BB0007A6000237B6109E0BB685A1CBA601B781D
:101BC0001846AFF300807B6901337B617A697B68DB
:101BD0009A42F1DB7B6818461837BD4680BD80B459
:101BE00083B000AF78604FF0FF3318460C37BD4626
:101BF0005DF8047B704780B483B000AF78603960D3
:101C00003B684FF400525A60002318460C37BD461B
:101C10005DF8047B704780B483B000AF7860012327
:101C200018460C37BD465DF8047B704780B485B01C
:101C300000AFF860B9607A60002318461437BD46DB
:101C40005DF8047B7047000080B586B000AF786017
:101C5000144A154BD31A7B617B693B61134B1B689C
:101C6000002B02D1114B124A1A60104B1A687B6884
:101C700013443A699A4207D203F09EFF03460C22AE
:101C80001A604FF0FF3309E0084B1B68FB60074BFD
:101C90001A687B681344054A1360FB6818461837B6
:101CA000BD4680BD0000022000040000C4040020E6
:101CB0008008002080B400AF064BD3F88830054A76
:101CC00043F47003C2F8883000BFBD465DF8047B62
:101CD000704700BF00ED00E0DFF834D00D480E493A
:101CE0000E4A002302E0D458C4500433C4188C4276
:101CF000F9D30B4A0B4C002301E013600432A242DB
:101D0000FBD3FFF7D7FF03F05DFFFFF715F8704730
:101D10000000022000000020DC01002020BB0008A1
:101D2000E001002080080020FEE7000090B488B0A9
:101D300000AFF860B9607A60FB70384ABB68136026
:101D4000374A7B681360374AFB781370364A97F836
:101D500028301370354A97F82C3013702F4B1B68BE
:101D60001A68FB785B000321994097F828305B00E4
:101D7000032000FA03F3194397F82C305B0003208B
:101D800000FA03F30B43DB431946244B1B680A405C
:101D90001A60224B1B681A68FB785B00012199408E
:101DA00097F828305B00012000FA03F3194397F8F5
:101DB0002C305B00012000FA03F30B431946174B4C
:101DC0001B680A431A60164B1B681A68FB780121CE
:101DD000994097F82830012000FA03F3194397F847
:101DE0002C30012000FA03F30B43DB4319460C4B64
:101DF0001B680A401A600E4B7B610E4BBB610E4B99
:101E0000FB61FB681C4607F1140393E8070084E8B4
:101E10000700F8682037BD4690BC7047C804002012
:101E2000CC040020D0040020D1040020D2040020E3
:101E30003D1E0008D51E0008191F000880B483B09D
:101E400000AF0346FB71FB79002B0DD01E4B1B68C6
:101E50001A681E4B1B78194601238B4019461A4BF2
:101E60001B680A431A600DE0174B1B681A68174B72
:101E70001B78194601238B40DB431946124B1B6824
:101E80000A401A60104B1B681A68114B1B781946E0
:101E900001238B4019460C4B1B680A431A600A4BFE
:101EA0001B681A680A4B1B78194601238B40DB43D9
:101EB0001946054B1B680A401A6000BF0C37BD4627
:101EC0005DF8047B704700BFCC040020D0040020E4
:101ED000D104002080B584B000AF0346FB7100231D
:101EE000FB730FE0FB7B012202FA03F35AB297F96E
:101EF000073013405BB2DBB21846FFF79FFFFB7B56
:101F00000133FB73FB7B072BECD900F005F800BF16
:101F10001037BD4680BD000080B400AF0F4B1B687A
:101F20001A680F4B1B78194601238B4019460B4B3F
:101F30001B680A431A60094B1B681A68084B1B7818
:101F4000194601238B40DB431946044B1B680A40AA
:101F50001A6000BFBD465DF8047B7047CC040020CA
:101F6000D2040020B0B48BB000AF78600023FB60D7
:101F700000233B61084B7B627B681D4607F10C0424
:101F80000FCC0FC594E8070085E8070078682C3768
:101F9000BD46B0BC704700BF9D1F000880B582B031
:101FA00000AF786039607B685A687B681A607B682C
:101FB0003A685A60786800F019F802467B689A60BF
:101FC000786800F024F802467B68DA60786800F0F0
:101FD00030F802467B681A61786800F040F80246E3
:101FE0007B685A6100BF0837BD4680BD80B485B0AC
:101FF00000AF78607B681A687B685B681340FB60A1
:10200000FB6818461437BD465DF8047B704780B402
:1020100085B000AF78607B681A687B685B681343A3
:10202000FB60FB68DB4318461437BD465DF8047B54
:10203000704780B485B000AF78607B681A687B68B1
:102040005B685340FB607B685B68FA681340FB6029
:10205000FB6818461437BD465DF8047B704780B4B2
:1020600085B000AF78607B685A687B681B68534016
:10207000FB607B681B68FA681340FB60FB681846CE
:102080001437BD465DF8047B7047000080B5A6B0EC
:1020900000AF78600A4B002283F85F20094BBB67D2
:1020A000094BC7F894307B68184607F10803902263
:1020B000194603F0ABFD78689837BD4680BD00BF78
:1020C000D4040020112200088D23000880B485B0BC
:1020D00000AF78600023FB6002E0FB680133FB6027
:1020E000FB687A6813441B78002BF6D1FB6818460E
:1020F0001437BD465DF8047B704780B586B000AFED
:10210000786000237B617868FFF7E0FF0346013BBE
:102110003B6117E07B697A6813441B78FB733B696A
:102120007A681A447B6979680B4412781A703B69A3
:102130007A681344FA7B1A707B6901337B613B69CF
:10214000013B3B617A693B699A42E3DB00BF00BF18
:102150001837BD4680BD000080B487B000AFF8607E
:10216000B9601346FB710023FB75FA68274B83FBAC
:1021700002139910D317C91A0B469B000B445B003E
:10218000D11ACAB2FB7D591CF9751946BB680B44BC
:102190003032D2B21A7015E0FA681C4B83FB02137E
:1021A0009910D317C91A0B469B000B445B00D11A38
:1021B000CAB2FB7D591CF9751946BB680B44303215
:1021C000D2B21A70FB68114A82FB03129210DB171D
:1021D000D31AFB60FB68002BDEDC07E0FB7D5A1C9A
:1021E000FA751A46BB68134430221A70FA7DFB79DF
:1021F0009A42F3D3FB7DBA68134400221A70FB7D28
:1022000018461C37BD465DF8047B704767666666F6
:10221000B0B58AB000AF87ED020B78600B46FB705B
:102220000023FB774FF000024FF00003D7E90201D3
:10223000FEF774FC0346002B08D0BC68FB6883F0F3
:102240000045C7E90845FF23BB7705E0D7E902232E
:10225000C7E908230123BB77D7E90801FEF7C4FCCF
:102260000346BB61B869FEF76DF902460B46D7E934
:102270000801FEF729F802460B46C7E90423BB69AB
:10228000012279681846FFF767FF0346FB7797F945
:102290001E30002B08DAFB7F5A1CFA771A467B683F
:1022A00013442D221A7007E0FB7F5A1CFA771A4656
:1022B0007B68134420221A70FB7F7A681344002243
:1022C0001A707868FFF719FFFB78002B30D0FB7885
:1022D000062B2DD8FB7F5A1CFA771A467B681344CD
:1022E0002E221A70FB781846FEF72CF902460B4690
:1022F00043EC112B9FED220B08F000FA51EC100B70
:10230000D7E90423FEF798F902460B461046194612
:10231000FEF742FCFB7F7A681344FA781946FFF710
:102320001BFFFB7F7A6813441846FFF7E6FE21E0A7
:10233000FB7F5A1CFA771A467B6813442E221A70C8
:102340004FF00002104BD7E90401FEF775F9024681
:102350000B4610461946FEF71FFCFB7F7A681344B4
:1023600002221946FFF7F8FEFB7F7A6813441846ED
:10237000FFF7C3FE7B6818462837BD46B0BD00BFD7
:102380000000000000002440000059400FB480B558
:1023900082B000AF07F114033B603B683A695F21EC
:1023A000084805F015FA78607B68002B01DA0023F5
:1023B00000E0044B18460837BD46BDE8804004B035
:1023C000704700BFD4040020B0B5EEB000AFC7F82E
:1023D0008401C7F88011254C3B46184600F01EFCCE
:1023E00007F5DC73A3F5DC73204619464FF4C07380
:1023F0001A4603F00BFC1E4AD7F8803113601D4BC0
:10240000C7F88C311C4BC7F890311C4BC7F894317E
:102410001B4BC7F898311B4BC7F89C311A4BC7F8B8
:10242000A0311A4BC7F8A431194BC7F8A831194B82
:10243000C7F8AC31184BC7F8B031184BC7F8B431F6
:1024400000F02EF8D7F884311D4607F5C6740FCC7E
:102450000FC50FCC0FC594E8070085E80700D7F833
:10246000840107F5DC77BD46B0BD00BF3405002010
:10247000B4060020B125000811280008052A00082C
:102480005D2A00083F2A00087D2A0008AB2A0008C0
:10249000072B00082D2B00084D2B0008D92B000816
:1024A00080B500AF3F4B1B681A683E4B1B6822F09B
:1024B0003F021A603B4B1B681A683A4B1B6842F09C
:1024C00015021A60374B1B681A68364B1B6822F0DE
:1024D000C0021A60334B1B68DA68324B1B6822F06B
:1024E000C002DA602F4B1B68DA682E4B1B6842F083
:1024F0004002DA602B4B1B689B682A4A126823F45F
:102500007F4323F03F039360264B1B689B68254A5B
:10251000126843F47F4343F03F039360214B1B68F1
:102520001B6903F00803204A1360204BD3F80431E1
:10253000282098470021332000F03AF81B4BD3F8AD
:102540000831042098470021332000F031F8174B60
:10255000D3F808310420984700212B2000F028F8F8
:10256000124BD3F808310420984700210C2000F0CA
:102570001FF80E4BD3F808310420984700210120A2
:1025800000F016F8094BD3F80431022098470021D7
:10259000062000F00DF8054BD3F8083104209847C9
:1025A00000BF80BDB4060020B8060020340500201E
:1025B00080B582B000AF03460A46FB711346BB806C
:1025C000914BD3F87431914A126801211046984713
:1025D000BB88002B08D08C4BD3F868318B4A12682B
:1025E00000211046984707E0874BD3F87431874A9B
:1025F0001268002110469847844B1B681A68834B69
:102600001B6822F47F421A60804B1B681A687F4B5C
:102610001B6842F4AA421A607C4B1B68DA687B4B49
:102620001B6822F47F42DA60774BD3F86831774A2F
:10263000126802211046984797F90730002B08DAF4
:10264000714BD3F86831714A1268072110469847D8
:1026500007E06D4BD3F874316C4A126807211046BD
:102660009847FB7903F04003002B08D0664BD3F862
:102670006831664A126806211046984707E0624BA7
:10268000D3F87431614A1268062110469847FB79E5
:1026900003F02003002B08D05B4BD3F868315B4A72
:1026A000126805211046984707E0574BD3F874315C
:1026B000564A1268052110469847FB7903F010032B
:1026C000002B08D0504BD3F86831504A12680421CF
:1026D0001046984707E04C4BD3F874314B4A1268C8
:1026E000042110469847484BD3F87431474A126882
:1026F000022110469847444BD3F87431434A12687C
:10270000012110469847BB88002B08D03E4BD3F8D8
:1027100068313E4A126800211046984707E03A4B5C
:10272000D3F87431394A1268002110469847364B65
:10273000D3F86831354A1268022110469847FB7970
:1027400003F00803002B08D02F4BD3F868312F4A31
:10275000126807211046984707E02B4BD3F87431D5
:102760002A4A1268072110469847FB7903F00403B0
:10277000002B08D0244BD3F86831244A1268062174
:102780001046984707E0204BD3F874311F4A12686F
:10279000062110469847FB7903F00203002B08D06E
:1027A000194BD3F86831194A126805211046984729
:1027B00007E0154BD3F87431144A1268052110460E
:1027C0009847FB7903F00103002B08D00E4BD3F898
:1027D00068310E4A126804211046984707E00A4BF8
:1027E000D3F87431094A1268042110469847064B01
:1027F000D3F87431054A126802211046984700BF89
:102800000837BD4680BD00BF34050020B406002057
:1028100080B584B000AF0346FB800023BB6000237B
:10282000FB73764B1B681A68744B1B6822F47F425B
:102830001A60724B1B68DA68704B1B6822F47F4287
:10284000DA606E4B1B68DA686C4B1B6842F4AA4274
:10285000DA606B4BD3F86831684A12680121104680
:102860009847FB88002B08D0654BD3F86831634A42
:10287000126800211046984707E0614BD3F8743185
:102880005E4A12680021104698475D4BD3F86831C4
:102890005A4A1268022110469847584B1B681B6918
:1028A000BB60574BD3F87431544A1268022110466A
:1028B0009847BB6803F08003002B04D0FB7B63F0D8
:1028C0007F03FB7303E0FB7B03F07F03FB73BB68B9
:1028D00003F04003002B04D0FB7B43F04003FB7369
:1028E00003E0FB7B23F04003FB73BB6803F0200392
:1028F000002B04D0FB7B43F02003FB7303E0FB7B46
:1029000023F02003FB73BB6803F01003002B04D0FB
:10291000FB7B43F01003FB7303E0FB7B23F010030E
:10292000FB73374BD3F86831344A126801211046E3
:102930009847FB88002B08D0314BD3F868312F4AD9
:10294000126800211046984707E02D4BD3F87431E8
:102950002A4A1268002110469847294BD3F868315B
:10296000264A1268022110469847244B1B681B69AF
:10297000BB60234BD3F87431204A12680221104601
:102980009847BB6803F08003002B04D0FB7B43F027
:102990000803FB7303E0FB7B23F00803FB73BB68B6
:1029A00003F04003002B04D0FB7B43F00403FB73D4
:1029B00003E0FB7B23F00403FB73BB6803F02003FD
:1029C000002B04D0FB7B43F00203FB7303E0FB7B93
:1029D00023F00203FB73BB6803F01003002B04D049
:1029E000FB7B43F00103FB7303E0FB7B23F001035C
:1029F000FB73FB7B18461037BD4680BDB406002034
:102A00003405002080B582B000AF8023BB71002365
:102A1000FB710AE00020FFF7FBFE0346BB71FB7968
:102A2000012B07D8FB790133FB7197F90630002B96
:102A3000F0DB00E000BF00BF0837BD4680BD80B5B9
:102A400082B000AF0120FFF7E3FE0346FB71FFF702
:102A5000D9FFFB7918460837BD4680BD80B582B0E6
:102A600000AF0346FB71FB7901211846FFF7A0FD7B
:102A7000FFF7C8FF00BF0837BD4680BD80B584B0F2
:102A800000AF786008E07B685A1C7A601B78FB73A3
:102A9000FB7B1846FFF7E2FF7B681B78002BF2D127
:102AA00000BF00BF1037BD4680BD80B584B000AF09
:102AB000786039600023FB600FE07B685A1C7A6005
:102AC0001B78FB72FB680133FB60FA683B689A4233
:102AD00008D8FB7A1846FFF7C1FF7B681B78002BEC
:102AE000EBD107E000BF05E02020FFF7B7FFFB6850
:102AF0000133FB60FA683B689A42F5D300BF00BF20
:102B00001037BD4680BD80B582B000AF786005E06B
:102B10002020FFF7A3FF7B68013B7B607B68002BD5
:102B2000F6D100BF00BF0837BD4680BD80B500AFFD
:102B300000210120FFF73CFD034BD3F804310220B4
:102B4000984700BF80BD00BF3405002080B582B02B
:102B500000AF786039607B68032B37D801A252F848
:102B600023F000BF752B00088B2B0008A12B000859
:102B7000B72B00083B68DBB2803BDBB20021184674
:102B8000FFF716FDFFF73EFF21E03B68DBB2403B5D
:102B9000DBB200211846FFF70BFDFFF733FF16E00D
:102BA0003B68DBB26C3BDBB200211846FFF700FD4F
:102BB000FFF728FF0BE03B68DBB22C3BDBB20021C8
:102BC0001846FFF7F5FCFFF71DFF00E000BF00BF50
:102BD0000837BD4680BD00BF80B582B000AF0D4B49
:102BE0001B681B6903F008037B600B4B1B687A684A
:102BF00053403B603A687B6813403B603B68002B66
:102C000001D0FFF74DFC044A7B68136000BF083712
:102C1000BD4680BDB4060020B806002080B582B055
:102C200000AF7860984B00221A60984B00221A601F
:102C300097494FF000024FF00003C1E90023954B84
:102C4000954A1A60934B954A5A60924B944A9A60FF
:102C5000904B944ADA608F4B934A1A618D4B934A9A
:102C60005A618C4B924A9A618A4B924ADA61894B3B
:102C7000914A1A62874B914A5A62864B904A9A62ED
:102C8000844B904ADA62834B8F4A1A63814B8F4A96
:102C90005A63804B8E4A9A637E4B8E4ADA637D4B31
:102CA0008D4A1A647B4B8D4A5A647A4B8C4A9A64DB
:102CB000784B8C4ADA64774B8B4A1A65754B8B4A92
:102CC0005A65744B8A4A9A65724B8A4ADA65714B27
:102CD000894A1A666F4B894A5A666E4B884A9A66C9
:102CE0006C4B884ADA666B4B874A1A67694B874A8E
:102CF0005A67684B864A9A67664B864ADA67654B1D
:102D0000854AC3F88020634B844AC3F88420614B12
:102D1000834AC3F888205F4B824AC3F88C205D4BFE
:102D2000814AC3F890205B4B804AC3F89420594BEA
:102D30007F4AC3F89820574B7E4AC3F89C20554BD6
:102D40007D4AC3F8A020534B7C4AC3F8A420514BC2
:102D50007B4AC3F8A8204F4B7A4AC3F8AC204D4BAE
:102D6000794AC3F8B0204B4B784AC3F8B420494B9A
:102D7000774AC3F8B820474B764AC3F8BC20454B86
:102D8000754AC3F8C020434B744AC3F8C420414B72
:102D9000734AC3F8C8203F4B724AC3F8CC203D4B5E
:102DA000714AC3F8D0203B4B704AC3F8D420394B4A
:102DB0006F4AC3F8D820374B6E4AC3F8DC20354B36
:102DC0006D4AC3F8E020334B6C4AC3F8E420314B22
:102DD0006B4AC3F8E8202F4B6A4AC3F8EC202D4B0E
:102DE000694AC3F8F0202B4B684AC3F8F420294BFA
:102DF000674AC3F8F820274B664AC3F8FC20254BE6
:102E0000654AC3F80021234B644AC3F80421214BCF
:102E1000634AC3F808211F4B624AC3F80C211D4BBB
:102E2000614AC3F810211B4B604AC3F81421194BA7
:102E30005F4AC3F81821174B5E4AC3F81C21154B93
:102E40005D4AC3F82021134B5C4AC3F82421114B7F
:102E50005B4AC3F828210F4B5A4AC3F82C210D4B6B
:102E6000594AC3F830210B4B584AC3F83421094B57
:102E7000574AC3F83821074B564AC3F83C21054B43
:102E8000554AC3F84021A9E048080020580800200E
:102E900068080020BC060020003C024000300240D0
:102EA0000070004000380240F9300008B5310008D9
:102EB0000000024021340008C934000871350008C0
:102EC000193600083D36000861360008000402404B
:102ED0005937000801380008A9380008513900089E
:102EE000753900089939000800080240913A000835
:102EF000393B0008E13B0008893C0008AD3C000874
:102F0000D13C0008000C0240C93D0008713E000899
:102F1000193F0008C13F0008E53F000809400008CC
:102F20000010024001410008B94100087142000848
:102F3000294300084D43000871430008001C02406B
:102F40008144000839450008F1450008A9460008F9
:102F5000CD460008F146000800280040014800085E
:102F6000F54B0008754B0008114B0008914A00080A
:102F7000E548000875490008054A0008D94C0008D2
:102F8000054E0008714C0008003801400060024006
:102F90000064024000E100E010E000E0B15A0008E7
:102FA000255B00080040014000200140314F00082F
:102FB000C94F0008F14F000819500008555000088B
:102FC000B1500008E9500008002301400010014002
:102FD00011510008B530000885540008254B264AD9
:102FE000C3F84421234B254AC3F84821214B244AE6
:102FF000C3F84C211F4B234AC3F850211D4B224AD2
:10300000C3F854211B4B214AC3F85821194B204ABD
:10301000C3F85C21174B1F4AC3F86021154B1E4AA9
:10302000C3F86421134B1D4AC3F86821114B1C4A95
:10303000C3F86C210F4B1B4AC3F870210D4B1A4A81
:10304000C3F874210B4B194AC3F87821094B184A6D
:10305000C3F87C2102F00AFD7B68064A1846114637
:103060004FF4C0731A4602F0D1FD78680837BD46A8
:1030700080BD00BFBC060020B9540008FD54000804
:10308000A955000855560008795600089D560008B5
:10309000D55600080D5700083D3200089B32000845
:1030A000BF320008DB3200083B3300086133000800
:1030B0008133000880B582B000AF002000F01CF81A
:1030C000002000F077F80346FB710A4BDB685A6F6B
:1030D000084BDB6842F001025A6700BF054BDB6812
:1030E0005B6F03F00203002BF8D0FB79184608371A
:1030F000BD4680BDBC06002080B485B000AF7860BE
:103100000123FB600123BB6048E07B68002B17D1E3
:10311000FB68002B0AD0264BDB681A68244BDB685F
:1031200042F001021A600023FB6037E0204BDB68AD
:103130001B6803F00203002B30D00023BB602DE09E
:103140007B68012B17D1FB68002B0AD0184BDB687A
:103150001A68174BDB6842F480321A600023FB6068
:103160001CE0134BDB681B6803F40033002B15D005
:103170000023BB6012E07B68022B0DD1FB68002BA3
:1031800007D00B4BDB681A68094BDB6842F48022DE
:103190001A6000237B6001E000237B60BB68002B8A
:1031A000B3D100BF00BF1437BD465DF8047B704744
:1031B000BC06002080B483B000AF0346FB711E4BF9
:1031C000DB689A681C4BDB6822F003029A60FB798B
:1031D000032B18D0032B1FDC012B02D0022B09D0AC
:1031E0001AE0154BDB689A68134BDB6842F001026A
:1031F0009A6012E0104BDB689A680F4BDB6842F074
:1032000002029A6009E00C4BDB689A680A4BDB68A3
:1032100042F003029A6000E000BF074BDB689B6846
:103220009B08DBB203F00303DBB218460C37BD4644
:103230005DF8047B704700BFBC0600200EB480B46C
:1032400086B000AF786000233B61FB69002B1DDD79
:10325000FB69202B1ADC07F12003FB600023FB75C0
:103260000DE0FB681A1DFA601B68012202FA03F3E5
:103270001A463B6913433B61FB7D0133FB75FB7DC4
:10328000FA699A42EDDC7B683A699A6100BF1837A7
:10329000BD465DF8047B03B0704780B483B000AFD7
:1032A0007860396001223B6802FA03F31A467B68B2
:1032B0009A6100BF0C37BD465DF8047B704780B44F
:1032C00083B000AF786039603A687B689A6100BF6C
:1032D0000C37BD465DF8047B70470EB480B486B0F1
:1032E00000AF786000233B61FB69002B1EDDFB69AA
:1032F000202B1BDC07F12003FB600023FB750EE095
:10330000FB681A1DFA601B68012202FA03F31B0412
:103310001A463B6913433B61FB7D0133FB75FB7D23
:10332000FA699A42ECDC7B683A699A6100BF183707
:10333000BD465DF8047B03B0704780B483B000AF36
:103340007860396001223B6802FA03F31B041A46D5
:103350007B689A6100BF0C37BD465DF8047B7047FF
:1033600080B483B000AF786039603B681B041A46B4
:103370007B689A6100BF0C37BD465DF8047B7047DF
:1033800080B586B000AFF860B9607A603B60F868DD
:10339000FDF7D8F802460B4643EC112B9FED1C0BB2
:1033A00007F0ACF951EC100B4FF000021A4BFCF790
:1033B0008BFF02460B4610461946FDF715FC0346E7
:1033C0007B617A687B6913407B60BB681A683B68E5
:1033D000F96801FB03F3796901FA03F3DB431A404F
:1033E000BB681A60BB681A683B68F96801FB03F3A5
:1033F000796801FA03F31A43BB681A60BB681A685C
:10340000BB681A6000BF1837BD4680BDAFF30080AF
:1034100000000000000000400000F03F000000003D
:1034200080B584B000AF786039600223FB60F86833
:10343000FDF788F802460B4643EC112B9FED1E0B5F
:1034400007F05CF951EC100B4FF000021C4BFCF73D
:103450003BFF02460B4610461946FDF7C5FB0346E7
:10346000BB607A68BB6813407B60164B9B69196828
:103470003B68FA6802FB03F3BA6802FA03F3DA4323
:10348000104B9B690A401A600E4B9B6919683B6898
:10349000FA6802FB03F37A689A400A4B9B690A4375
:1034A0001A60084B9A69074B9B6912681A6000BF43
:1034B0001037BD4680BD00BF000000000000004086
:1034C0000000F03FBC06002080B584B000AF7860FB
:1034D00039600223FB60F868FDF734F802460B46BA
:1034E00043EC112B9FED1E0B07F008F951EC100B6C
:1034F0004FF000021C4BFCF7E7FE02460B4610465D
:103500001946FDF771FB0346BB607A68BB68134040
:103510007B60164B9B6999683B68FA6802FB03F372
:10352000BA6802FA03F3DA43104B9B690A409A60C7
:103530000E4B9B6999683B68FA6802FB03F37A6853
:103540009A400A4B9B690A439A60084B9A69074B59
:103550009B6992689A6000BF1037BD4680BD00BF6E
:1035600000000000000000400000F03FBC0600200A
:1035700080B584B000AF786039600223FB60F868E2
:10358000FCF7E0FF02460B4643EC112B9FED1E0BB0
:1035900007F0B4F851EC100B4FF000021C4BFCF795
:1035A00093FE02460B4610461946FDF71DFB0346E7
:1035B000BB607A68BB6813407B60164B9B69D96817
:1035C0003B68FA6802FB03F3BA6802FA03F3DA43D2
:1035D000104B9B690A40DA600E4B9B69D9683B68C7
:1035E000FA6802FB03F37A689A400A4B9B690A4324
:1035F000DA60084B9A69074B9B69D268DA6000BFB2
:103600001037BD4680BD00BF000000000000004034
:103610000000F03FBC06002080B483B000AF7860AB
:10362000054B9B697A6812049A6100BF0C37BD464E
:103630005DF8047B704700BFBC06002080B483B0F7
:1036400000AF7860044B9B697A689A6100BF0C37C1
:10365000BD465DF8047B7047BC06002000000000FA
:1036600080B584B000AF786039600423FB60F868EF
:10367000FCF768FF02460B4643EC112B9FED320B23
:1036800007F03CF851EC100B4FF00002304BFCF708
:103690001BFE02460B4610461946FDF7A5FA0346E7
:1036A000BB607A68BB6813407B603B68072B22D8FD
:1036B000284B9B69196A3B68FA6802FB03F3BA68F6
:1036C00002FA03F3DA43234B9B690A401A62214B47
:1036D0009B69196A3B68FA6802FB03F37A689A40AF
:1036E0001C4B9B690A431A621A4B9A69194B9B69D6
:1036F000126A1A6221E0174B9B69596A3B68FA68A3
:1037000002FB03F3BA6802FA03F3DA43114B9B6935
:103710000A405A620F4B9B69596A3B68FA6802FB80
:1037200003F37A689A400B4B9B690A435A62094B30
:103730009A69084B9B69526A5A6200BF1037BD46AE
:1037400080BD00BFAFF3008000000000000000401B
:103750000000F03FBC06002080B584B000AF786068
:1037600039600223FB60F868FCF7ECFE02460B466A
:1037700043EC112B9FED1E0B06F0C0FF51EC100B1C
:103780004FF000021C4BFCF79FFD02460B46104613
:103790001946FDF729FA0346BB607A68BB681340F7
:1037A0007B60164B5B6B19683B68FA6802FB03F39E
:1037B000BA6802FA03F3DA43104B5B6B0A401A60F3
:1037C0000E4B5B6B19683B68FA6802FB03F37A687F
:1037D0009A400A4B5B6B0A431A60084B5A6B074BC3
:1037E0005B6B12681A6000BF1037BD4680BD00BF1A
:1037F00000000000000000400000F03FBC06002078
:1038000080B584B000AF786039600223FB60F8684F
:10381000FCF798FE02460B4643EC112B9FED1E0B66
:1038200006F06CFF51EC100B4FF000021C4BFCF744
:103830004BFD02460B4610461946FDF7D5F90346E7
:10384000BB607A68BB6813407B60164B5B6B996802
:103850003B68FA6802FB03F3BA6802FA03F3DA433F
:10386000104B5B6B0A409A600E4B5B6B99683B6830
:10387000FA6802FB03F37A689A400A4B5B6B0A43CF
:103880009A60084B5A6B074B5B6B92689A6000BF5B
:103890001037BD4680BD00BF0000000000000040A2
:1038A0000000F03FBC06002080B584B000AF786017
:1038B00039600223FB60F868FCF744FE02460B46C1
:1038C00043EC112B9FED1E0B06F018FF51EC100B73
:1038D0004FF000021C4BFCF7F7FC02460B4610466B
:1038E0001946FDF781F90346BB607A68BB6813404F
:1038F0007B60164B5B6BD9683B68FA6802FB03F38D
:10390000BA6802FA03F3DA43104B5B6B0A40DA60E1
:103910000E4B5B6BD9683B68FA6802FB03F37A686D
:103920009A400A4B5B6B0A43DA60084B5A6B074BB1
:103930005B6BD268DA6000BF1037BD4680BD00BF48
:1039400000000000000000400000F03FBC06002026
:1039500080B483B000AF7860054B5B6B7A6812046B
:103960009A6100BF0C37BD465DF8047B704700BF0D
:10397000BC06002080B483B000AF7860044B5B6B62
:103980007A689A6100BF0C37BD465DF8047B7047CA
:10399000BC0600200000000080B584B000AF786055
:1039A00039600423FB60F868FCF7CCFD02460B4647
:1039B00043EC112B9FED320B06F0A0FE51EC100BE7
:1039C0004FF00002304BFCF77FFC02460B461046DE
:1039D0001946FDF709F90346BB607A68BB681340D6
:1039E0007B603B68072B22D8284B5B6B196A3B68CE
:1039F000FA6802FB03F3BA6802FA03F3DA43234BD3
:103A00005B6B0A401A62214B5B6B196A3B68FA6870
:103A100002FB03F37A689A401C4B5B6B0A431A6201
:103A20001A4B5A6B194B5B6B126A1A6221E0174BE7
:103A30005B6B596A3B68FA6802FB03F3BA6802FAE7
:103A400003F3DA43114B5B6B0A405A620F4B5B6B1B
:103A5000596A3B68FA6802FB03F37A689A400B4B99
:103A60005B6B0A435A62094B5A6B084B5B6B526A99
:103A70005A6200BF1037BD4680BD00BFAFF3008063
:103A800000000000000000400000F03FBC060020E5
:103A900080B584B000AF786039600223FB60F868BD
:103AA000FCF750FD02460B4643EC112B9FED1E0B1D
:103AB00006F024FE51EC100B4FF000021C4BFCF7FB
:103AC00003FC02460B4610461946FDF78DF80346E7
:103AD000BB607A68BB6813407B60164B1B6D19682E
:103AE0003B68FA6802FB03F3BA6802FA03F3DA43AD
:103AF000104B1B6D0A401A600E4B1B6D19683B681A
:103B0000FA6802FB03F37A689A400A4B1B6D0A437A
:103B10001A60084B1A6D074B1B6D12681A6000BFC4
:103B20001037BD4680BD00BF00000000000000400F
:103B30000000F03FBC06002080B584B000AF786084
:103B400039600223FB60F868FCF7FCFC02460B4678
:103B500043EC112B9FED1E0B06F0D0FD51EC100B2A
:103B60004FF000021C4BFCF7AFFB02460B46104621
:103B70001946FDF739F80346BB607A68BB68134005
:103B80007B60164B1B6D99683B68FA6802FB03F378
:103B9000BA6802FA03F3DA43104B1B6D0A409A60CD
:103BA0000E4B1B6D99683B68FA6802FB03F37A6859
:103BB0009A400A4B1B6D0A439A60084B1A6D074BDB
:103BC0001B6D92689A6000BF1037BD4680BD00BF74
:103BD00000000000000000400000F03FBC06002094
:103BE00080B584B000AF786039600223FB60F8686C
:103BF000FCF7A8FC02460B4643EC112B9FED1E0B75
:103C000006F07CFD51EC100B4FF000021C4BFCF752
:103C10005BFB02460B4610461946FCF7E5FF0346E0
:103C2000BB607A68BB6813407B60164B1B6DD9681C
:103C30003B68FA6802FB03F3BA6802FA03F3DA435B
:103C4000104B1B6D0A40DA600E4B1B6DD9683B6848
:103C5000FA6802FB03F37A689A400A4B1B6D0A4329
:103C6000DA60084B1A6D074B1B6DD268DA6000BF33
:103C70001037BD4680BD00BF0000000000000040BE
:103C80000000F03FBC06002080B483B000AF786035
:103C9000054B1B6D7A6812049A6100BF0C37BD4654
:103CA0005DF8047B704700BFBC06002080B483B081
:103CB00000AF7860044B1B6D7A689A6100BF0C37C7
:103CC000BD465DF8047B7047BC0600200000000084
:103CD00080B584B000AF786039600423FB60F86879
:103CE000FCF730FC02460B4643EC112B9FED320BE8
:103CF00006F004FD51EC100B4FF00002304BFCF7C6
:103D0000E3FA02460B4610461946FCF76DFF0346E0
:103D1000BB607A68BB6813407B603B68072B22D886
:103D2000284B1B6D196A3B68FA6802FB03F3BA68FB
:103D300002FA03F3DA43234B1B6D0A401A62214B4C
:103D40001B6D196A3B68FA6802FB03F37A689A40B4
:103D50001C4B1B6D0A431A621A4B1A6D194B1B6DD3
:103D6000126A1A6221E0174B1B6D596A3B68FA68A8
:103D700002FB03F3BA6802FA03F3DA43114B1B6D3B
:103D80000A405A620F4B1B6D596A3B68FA6802FB86
:103D900003F37A689A400B4B1B6D0A435A62094B36
:103DA0001A6D084B1B6D526A5A6200BF1037BD4630
:103DB00080BD00BFAFF300800000000000000040A5
:103DC0000000F03FBC06002080B584B000AF7860F2
:103DD00039600223FB60F868FCF7B4FB02460B462F
:103DE00043EC112B9FED1E0B06F088FC51EC100BE1
:103DF0004FF000021C4BFCF767FA02460B461046D8
:103E00001946FCF7F1FE0346BB607A68BB681340B5
:103E10007B60164BDB6E19683B68FA6802FB03F3A4
:103E2000BA6802FA03F3DA43104BDB6E0A401A60F9
:103E30000E4BDB6E19683B68FA6802FB03F37A6885
:103E40009A400A4BDB6E0A431A60084BDA6E074B46
:103E5000DB6E12681A6000BF1037BD4680BD00BF20
:103E600000000000000000400000F03FBC06002001
:103E700080B584B000AF786039600223FB60F868D9
:103E8000FCF760FB02460B4643EC112B9FED1E0B2B
:103E900006F034FC51EC100B4FF000021C4BFCF709
:103EA00013FA02460B4610461946FCF79DFE0346E0
:103EB000BB607A68BB6813407B60164BDB6E996809
:103EC0003B68FA6802FB03F3BA6802FA03F3DA43C9
:103ED000104BDB6E0A409A600E4BDB6E99683B68B4
:103EE000FA6802FB03F37A689A400A4BDB6E0A43D6
:103EF0009A60084BDA6E074BDB6E92689A6000BFDF
:103F00001037BD4680BD00BF00000000000000402B
:103F10000000F03FBC06002080B584B000AF7860A0
:103F200039600223FB60F868FCF70CFB02460B4685
:103F300043EC112B9FED1E0B06F0E0FB51EC100B38
:103F40004FF000021C4BFCF7BFF902460B4610462F
:103F50001946FCF749FE0346BB607A68BB6813400C
:103F60007B60164BDB6ED9683B68FA6802FB03F393
:103F7000BA6802FA03F3DA43104BDB6E0A40DA60E8
:103F80000E4BDB6ED9683B68FA6802FB03F37A6874
:103F90009A400A4BDB6E0A43DA60084BDA6E074B35
:103FA000DB6ED268DA6000BF1037BD4680BD00BF4F
:103FB00000000000000000400000F03FBC060020B0
:103FC00080B483B000AF7860054BDB6E7A68120472
:103FD0009A6100BF0C37BD465DF8047B704700BF97
:103FE000BC06002080B483B000AF7860044BDB6E69
:103FF0007A689A6100BF0C37BD465DF8047B704754
:10400000BC0600200000000080B584B000AF7860DE
:1040100039600423FB60F868FCF794FA02460B460B
:1040200043EC112B9FED320B06F068FB51EC100BAB
:104030004FF00002304BFCF747F902460B461046A2
:104040001946FCF7D1FD0346BB607A68BB68134094
:104050007B603B68072B22D8284BDB6E196A3B68D4
:10406000FA6802FB03F3BA6802FA03F3DA43234B5C
:10407000DB6E0A401A62214BDB6E196A3B68FA68F4
:1040800002FB03F37A689A401C4BDB6E0A431A6208
:104090001A4BDA6E194BDB6E126A1A6221E0174B6B
:1040A000DB6E596A3B68FA6802FB03F3BA6802FAEE
:1040B00003F3DA43114BDB6E0A405A620F4BDB6E9F
:1040C000596A3B68FA6802FB03F37A689A400B4B23
:1040D000DB6E0A435A62094BDA6E084BDB6E526A9A
:1040E0005A6200BF1037BD4680BD00BFAFF30080ED
:1040F00000000000000000400000F03FBC0600206F
:1041000080B584B000AF786039600223FB60F86846
:10411000FCF718FA02460B4643EC112B9FED220BDD
:1041200006F0ECFA51EC100B4FF00002204BFCF7BC
:10413000CBF802460B4610461946FCF755FD0346E0
:10414000BB607A68BB6813407B601A4BD3F8883039
:1041500019683B68FA6802FB03F3BA6802FA03F3D2
:10416000DA43144BD3F888300A401A60114BD3F865
:10417000883019683B68FA6802FB03F37A689A4052
:104180000C4BD3F888300A431A600A4BD3F88820C6
:10419000084BD3F8883012681A6000BF1037BD464C
:1041A00080BD00BFAFF300800000000000000040B1
:1041B0000000F03FBC06002080B584B000AF7860FE
:1041C00039600223FB60F868FCF7BCF902460B4635
:1041D00043EC112B9FED220B06F090FA51EC100BE3
:1041E0004FF00002204BFCF76FF802460B461046DA
:1041F0001946FCF7F9FC0346BB607A68BB681340BC
:104200007B601A4BD3F8883099683B68FA6802FBE8
:1042100003F3BA6802FA03F3DA43144BD3F8883095
:104220000A409A60114BD3F8883099683B68FA6865
:1042300002FB03F37A689A400C4BD3F888300A43A8
:104240009A600A4BD3F88820084BD3F888309268DC
:104250009A6000BF1037BD4680BD00BFAFF300803D
:1042600000000000000000400000F03FBC060020FD
:1042700080B584B000AF786039600223FB60F868D5
:10428000FCF760F902460B4643EC112B9FED220B25
:1042900006F034FA51EC100B4FF00002204BFCF703
:1042A00013F802460B4610461946FCF79DFC0346E0
:1042B000BB607A68BB6813407B601A4BD3F88830C8
:1042C000D9683B68FA6802FB03F3BA6802FA03F3A1
:1042D000DA43144BD3F888300A40DA60114BD3F834
:1042E0008830D9683B68FA6802FB03F37A689A4021
:1042F0000C4BD3F888300A43DA600A4BD3F8882095
:10430000084BD3F88830D268DA6000BF1037BD465A
:1043100080BD00BFAFF3008000000000000000403F
:104320000000F03FBC06002080B483B000AF78608E
:10433000054BD3F888307A6812049A6100BF0C37B5
:10434000BD465DF8047B7047BC06002080B483B096
:1043500000AF7860054BD3F888307A689A6100BF67
:104360000C37BD465DF8047B704700BFBC060020DB
:1043700080B584B000AF786039600423FB60F868D2
:10438000FCF7E0F802460B4643EC112B9FED380B8F
:1043900006F0B4F951EC100B4FF00002364BFBF76E
:1043A00093FF02460B4610461946FCF71DFC0346D8
:1043B000BB607A68BB6813407B603B68072B28D8DA
:1043C0002E4BD3F88830196A3B68FA6802FB03F376
:1043D000BA6802FA03F3DA43284BD3F888300A406C
:1043E0001A62264BD3F88830196A3B68FA6802FBD8
:1043F00003F37A689A40214BD3F888300A431A6253
:104400001E4BD3F888201D4BD3F88830126A1A62ED
:1044100027E01A4BD3F88830596A3B68FA6802FBE8
:1044200003F3BA6802FA03F3DA43144BD3F8883083
:104430000A405A62114BD3F88830596A3B68FA68CF
:1044400002FB03F37A689A400C4BD3F888300A4396
:104450005A620A4BD3F88820084BD3F88830526A46
:104460005A6200BF1037BD4680BD00BFAFF3008069
:1044700000000000000000400000F03FBC060020EB
:1044800080B584B000AF786039600223FB60F868C3
:10449000FCF758F802460B4643EC112B9FED220B1C
:1044A00006F02CF951EC100B4FF00002204BFBF7FB
:1044B0000BFF02460B4610461946FCF795FB0346D8
:1044C000BB607A68BB6813407B601A4BD3F8A4309A
:1044D00019683B68FA6802FB03F3BA6802FA03F34F
:1044E000DA43144BD3F8A4300A401A60114BD3F8C6
:1044F000A43019683B68FA6802FB03F37A689A40B3
:104500000C4BD3F8A4300A431A600A4BD3F8A4200A
:10451000084BD3F8A43012681A6000BF1037BD46AC
:1045200080BD00BFAFF3008000000000000000402D
:104530000000F03FBC06002080B584B000AF78607A
:1045400039600223FB60F868FBF7FCFF02460B466C
:1045500043EC112B9FED220B06F0D0F851EC100B21
:104560004FF00002204BFBF7AFFE02460B46104611
:104570001946FCF739FB0346BB607A68BB681340F9
:104580007B601A4BD3F8A43099683B68FA6802FB49
:1045900003F3BA6802FA03F3DA43144BD3F8A430F6
:1045A0000A409A60114BD3F8A43099683B68FA68C6
:1045B00002FB03F37A689A400C4BD3F8A4300A4309
:1045C0009A600A4BD3F8A420084BD3F8A430926821
:1045D0009A6000BF1037BD4680BD00BFAFF30080BA
:1045E00000000000000000400000F03FBC0600207A
:1045F00080B584B000AF786039600223FB60F86852
:10460000FBF7A0FF02460B4643EC112B9FED220B5C
:1046100006F074F851EC100B4FF00002204BFBF742
:1046200053FE02460B4610461946FCF7DDFA0346D8
:10463000BB607A68BB6813407B601A4BD3F8A43028
:10464000D9683B68FA6802FB03F3BA6802FA03F31D
:10465000DA43144BD3F8A4300A40DA60114BD3F894
:10466000A430D9683B68FA6802FB03F37A689A4081
:104670000C4BD3F8A4300A43DA600A4BD3F8A420D9
:10468000084BD3F8A430D268DA6000BF1037BD46BB
:1046900080BD00BFAFF300800000000000000040BC
:1046A0000000F03FBC06002080B483B000AF78600B
:1046B000054BD3F8A4307A6812049A6100BF0C3716
:1046C000BD465DF8047B7047BC06002080B483B013
:1046D00000AF7860054BD3F8A4307A689A6100BFC8
:1046E0000C37BD465DF8047B704700BFBC06002058
:1046F00080B584B000AF786039600423FB60F8684F
:10470000FBF720FF02460B4643EC112B9FED380BC5
:1047100005F0F4FF51EC100B4FF00002364BFBF7A5
:10472000D3FD02460B4610461946FCF75DFA0346D8
:10473000BB607A68BB6813407B603B68072B28D856
:104740002E4BD3F8A430196A3B68FA6802FB03F3D6
:10475000BA6802FA03F3DA43284BD3F8A4300A40CC
:104760001A62264BD3F8A430196A3B68FA6802FB38
:1047700003F37A689A40214BD3F8A4300A431A62B3
:104780001E4BD3F8A4201D4BD3F8A430126A1A6232
:1047900027E01A4BD3F8A430596A3B68FA6802FB49
:1047A00003F3BA6802FA03F3DA43144BD3F8A430E4
:1047B0000A405A62114BD3F8A430596A3B68FA6830
:1047C00002FB03F37A689A400C4BD3F8A4300A43F7
:1047D0005A620A4BD3F8A420084BD3F8A430526A8B
:1047E0005A6200BF1037BD4680BD00BFAFF30080E6
:1047F00000000000000000400000F03FBC06002068
:1048000080B584B000AF0346FB71FF23FB73324BCE
:10481000D3F8C0301B68314A13602F4BD3F8C03037
:104820005B682F4A1360FB79184601F027F80346AE
:10483000FB73294BDB681A6F274BDB6842F400429D
:104840001A67254BD3F8C0305A6A234BD3F8C030CF
:1048500042F0CA025A62204BD3F8C0305A6A1E4B4B
:10486000D3F8C03042F053025A621B4BD3F8C03029
:10487000DA68194BD3F8C03042F08002DA6000BF2A
:10488000154BD3F8C030DB6803F04003002BF7D0A2
:104890000623FB73104BD3F8C0309A680E4BD3F845
:1048A000C03022F020029A600B4BD3F8C030DA6897
:1048B000094BD3F8C03022F08002DA60064B9B68C7
:1048C0001A68054B9B6822F480721A60FB7B1846BD
:1048D0001037BD4680BD00BFBC0600204008002048
:1048E0004408002080B584B000AF0346FB714FF44C
:1048F0007C13FB60FB791C4AA2FB0323DB08DBB2C1
:10490000184600F0D9FD0346FB72FA79164BA3FB5B
:104910000213D9080B469B000B445B00D31ADBB291
:10492000184600F0C9FD0346BB72104BD3F8C030E7
:104930001B680F4A1360FB68DA430D4B1B6813407A
:104940000B4A1360BB7A1A04FB7A1B0513431A4601
:10495000074B1B681343064A136000F0EBFE00BFD1
:104960001037BD4680BD00BFCDCCCCCCBC060020EE
:104970004008002080B584B000AF0346FB714FF4BF
:10498000FE43FB60FB791C4AA2FB0323DB08DBB27E
:10499000184600F091FD0346FB72FA79164BA3FB13
:1049A0000213D9080B469B000B445B00D31ADBB201
:1049B000184600F081FD0346BB72104BD3F8C0309F
:1049C0001B680F4A1360FB68DA430D4B1B681340EA
:1049D0000B4A1360BB7A1A02FB7A1B0313431A4675
:1049E000074B1B681343064A136000F0A3FE00BF89
:1049F0001037BD4680BD00BFCDCCCCCCBC0600205E
:104A00004008002080B584B000AF0346FB717F23CF
:104A1000FB60FB791B4AA2FB0323DB08DBB21846D1
:104A200000F04AFD0346FB72FA79164BA3FB021312
:104A3000D9080B469B000B445B00D31ADBB2184627
:104A400000F03AFD0346BB720F4BD3F8C0301B6831
:104A50000E4A1360FB68DA430C4B1B6813400B4A89
:104A60001360BA7AFB7A1B0113431A46074B1B6883
:104A70001343064A136000F05DFE00BF1037BD46C9
:104A800080BD00BFCDCCCCCCBC06002040080020AF
:104A900080B584B000AF0346FB714FF47F03FB6029
:104AA000FB79194AA2FB0323DB08DBB2184600F0AE
:104AB00003FD0346FB72FA79134BA3FB0213D908DB
:104AC0000B469B000B445B00D31ADBB2184600F088
:104AD000F3FC0346BB72FB68DA430C4B1B681340C4
:104AE0000A4A1360BB7A1A04FB7A1B0513431A4661
:104AF000064B1B681343054A136000F06DFE00BFB0
:104B00001037BD4680BD00BFCDCCCCCC44080020C2
:104B100080B584B000AF0346FB714FF46023FB60A7
:104B2000FA79124BA3FB0213D9080B469B000B44E6
:104B30005B00D31ADBB2184600F0BEFC0346FB72E2
:104B4000FB68DA430A4B1B681340094A1360FB7A7F
:104B50005B031A46064B1B681343054A136000F0BB
:104B60003BFE00BF1037BD4680BD00BFCDCCCCCCD6
:104B70004408002080B584B000AF0346FB714FF4B9
:104B8000F853FB60FB79194AA2FB0323DB08DBB275
:104B9000184600F091FC0346FB72FA79134BA3FB15
:104BA0000213D9080B469B000B445B00D31ADBB2FF
:104BB000184600F081FC0346BB72FB68DA430C4BDD
:104BC0001B6813400A4A1360BB7A1A02FB7A1B0364
:104BD00013431A46064B1B681343054A136000F043
:104BE000FBFD00BF1037BD4680BD00BFCDCCCCCC97
:104BF0004408002080B584B000AF0346FB713F231A
:104C0000FB60FB79184AA2FB0323DB08DBB21846E2
:104C100000F052FC0346FB72FA79134BA3FB02131C
:104C2000D9080B469B000B445B00D31ADBB2184635
:104C300000F042FC0346BB72FB68DA430B4B1B6877
:104C400013400A4A1360BA7AFB7A1B0113431A46CF
:104C5000064B1B681343054A136000F0BDFD00BFFF
:104C60001037BD4680BD00BFCDCCCCCC4408002061
:104C700080B483B000AF78603960164B9B681A68C7
:104C8000144B9B6842F480721A60124BD3F8C03008
:104C90005A6A104BD3F8C03042F0CA025A620D4B28
:104CA000D3F8C0305A6A0B4BD3F8C03042F05302ED
:104CB0005A627B683A681A60064B9B681A68054B13
:104CC0009B6822F480721A6000BF0C37BD465DF805
:104CD000047B7047BC06002090B585B000AF7860BB
:104CE000464BD3F8C0305B68FB60FB681B0DDBB242
:104CF00003F00F03DAB27B681A707B681B781846E2
:104D000000F0C0FB03461A467B681A70FB681B0C58
:104D1000DAB27B68013302F00F02D2B21A707B68FC
:104D200001331A787B685C1C104600F0ABFB03462D
:104D30002370FB685B0BDAB27B68023302F0070278
:104D4000D2B21A707B6802331A787B689C1C1046BA
:104D500000F098FB03462370FB681B0BDAB27B68FC
:104D6000033302F00102D2B21A707B6803331A785F
:104D70007B68DC1C104600F085FB03462370FB6853
:104D80001B0ADAB27B68043302F00F02D2B21A7047
:104D90007B6804331A787B681C1D104600F072FB98
:104DA00003462370FB681B09DAB27B68053302F007
:104DB0000302D2B21A707B6805331A787B685C1DD7
:104DC000104600F05FFB03462370FB68DAB27B6895
:104DD000063302F00F02D2B21A707B6806331A78DB
:104DE0007B689C1D104600F04DFB03462370044A6F
:104DF000FB68136000BF1437BD4690BDBC060020A1
:104E00004408002090B585B000AF7860464BD3F8D9
:104E1000C0301B68FB60444BD3F8C030DB6803F044
:104E20002003002B7BD0FB681B0DDBB203F00303D8
:104E3000DAB27B681A707B681B78184600F022FB98
:104E400003461A467B681A70FB681B0CDAB27B6853
:104E5000013302F00F02D2B21A707B6801331A7864
:104E60007B685C1C104600F00DFB03462370FB685A
:104E70001B0BDAB27B68023302F00702D2B21A705F
:104E80007B6802331A787B689C1C104600F0FAFAA3
:104E900003462370FB681B0ADAB27B68033302F017
:104EA0000F02D2B21A707B6803331A787B68DC1C5D
:104EB000104600F0E7FA03462370FB681B09DAB2DC
:104EC0007B68043302F00702D2B21A707B680433A5
:104ED0001A787B681C1D104600F0D4FA0346237034
:104EE000FB68DAB27B68053302F00F02D2B21A70A7
:104EF0007B6805331A787B685C1D104600F0C2FAA7
:104F000003462370094AFB681360074BD3F8C0308F
:104F1000DA68054BD3F8C03022F02002DA6000BF17
:104F20001437BD4690BD00BFBC06002040080020DD
:104F300080B400AF234BDB681A6C224BDB6842F075
:104F400000521A641F4BDB685A6C1E4BDB6842F43C
:104F500080725A641B4BD3F810319A68194BD3F8FE
:104F6000103142F480629A60164BD3F830315A689F
:104F7000144BD3F8303142F440325A60114BD3F81D
:104F80001031DA680F4BD3F8103142F0E062DA608A
:104F90000C4BD3F810315A680A4BD3F8103142F455
:104FA00000625A60074BD3F810315A6B054BD3F8A7
:104FB000103142F012025A6300BFBD465DF8047B17
:104FC000704700BFBC06002080B400AF074BD3F889
:104FD00030315A68054BD3F8303142F480025A60C0
:104FE00000BFBD465DF8047B704700BFBC060020D3
:104FF00080B400AF074BD3F830315A68054BD3F873
:10500000303142F400025A6000BFBD465DF8047BB7
:10501000704700BFBC06002080B400AF0C4BD3F833
:1050200010319A680A4BD3F8103142F001029A60AD
:10503000074BD3F810319A68054BD3F8103142F082
:1050400080429A6000BFBD465DF8047B704700BF98
:10505000BC06002080B500AF134BD3F830311B687D
:1050600003F00203002B15D00F4BD3F81031DB6C8B
:105070001846FBF767FA02460B460C49C1E90023C4
:10508000094BD3F810311A68074BD3F8103122F0CE
:1050900010021A60054BD3E9002343EC172BB0EE46
:1050A000470AF0EE670A80BDBC06002068080020B1
:1050B00080B400AF0B4BD3F830311B6803F0100302
:1050C000002B09D1074BD3F810319A68054BD3F860
:1050D000103142F080429A6000BFBD465DF8047B0B
:1050E000704700BFBC06002080B400AF074BD3F868
:1050F00010319A68054BD3F8103142F001029A60E2
:1051000000BFBD465DF8047B704700BFBC060020B1
:105110002DE9B04F8EB000AF034687ED020B3A6128
:10512000FB750B46BB75FB7D092B0AD1B44BD3F83D
:105130003431DA68B24BD3F8343142F48052DA6059
:1051400017E0FB7D082B0AD1AD4BD3F83431DA6878
:10515000AB4BD3F8343122F48052DA6009E0A84B2B
:10516000D3F83431DA68A64BD3F8343122F48052C4
:10517000DA60BB7D082B0DD1082387F83730A04BB0
:10518000D3F83431DA689E4BD3F8343142F400421C
:10519000DA601DE0BB7D102B0DD1102387F837306E
:1051A000974BD3F83431DA68954BD3F8343122F485
:1051B0000042DA600CE0102387F83730904BD3F8C8
:1051C0003431DA688E4BD3F8343122F40042DA609D
:1051D0008B4BD3F834311A69894BD3F8343122F42C
:1051E00040521A614FF00002864BD7E90201FBF7EB
:1051F0006BF802460B463A6023F000437B607EA3C7
:10520000D3E90023D7E90001FBF788FC0346002B14
:105210000AD07B4BD3F834311A69794BD3F8343147
:1052200042F480521A6162E04FF00002764BD7E9F7
:105230000201FBF749F802460B46924623F0004B69
:105240006DA3D3E9002350465946FBF767FC03469C
:10525000002B0AD06A4BD3F834311A69684BD3F863
:10526000343122F440521A6141E04FF00002674BA2
:10527000D7E90201FBF728F802460B46904623F0D7
:1052800000495DA3D3E9002340464946FBF746FCAD
:105290000346002B0AD05A4BD3F834311A69584BC5
:1052A000D3F8343142F440521A6120E04FF000024A
:1052B0004FF08043D7E90201FBF706F802460B46A0
:1052C000144623F000454CA3D3E900232046294689
:1052D000FBF724FC0346002B09D0494BD3F83431AB
:1052E0001A69474BD3F8343142F400521A61484BE3
:1052F0001B681846FBF726F904460D4697F8373029
:105300003A6902FB03F31846FBF71CF902460B4609
:1053100020462946FBF7BAFA02460B46C7E90A239C
:1053200007F11803184697ED0A0B01F0FFFA87ED15
:10533000080B334BD3F8343100229A60BB7D102B1D
:105340002BD14FF00002334BD7E90801FBF774F97A
:1053500002460B4643EC172BB0EE470AF0EE670A05
:1053600005F086F951EC100B254BD3F83441FBF7CF
:105370003BFC0346A360224BD3F834319C68D7E949
:10538000062310461946FBF72FFC03461A011C4B57
:10539000D3F8343122439A606BE0BB7D082B3DD1BA
:1053A0004FF000021C4BD7E90801FBF745F9024614
:1053B0000B4643EC172BB0EE470AF0EE670A05F0F8
:1053C00057F951EC100B0E4BD3F83441FBF70CFCA2
:1053D0000346A3600A4BD3F834319C68D7E906230F
:1053E00010461946FBF700FC03461A01044BD3F89C
:1053F000343122439A603CE0F168E388B5F8E43E3A
:10540000BC0600200000E03F0000F03F0000F83F35
:105410000400002000003040000020404FF0000257
:10542000164BD7E90801FBF707F902460B4643EC98
:10543000172BB0EE470AF0EE670A05F019F951ECA8
:10544000100B0F4BD3F83441FBF7CEFB0346A360A0
:105450000B4BD3F834319C68D7E906231046194624
:10546000FBF7C2FB03461A01054BD3F83431224344
:105470009A6000BF3837BD46BDE8B08F00003040AD
:10548000BC06002080B483B000AF0346FB71FB79FB
:105490001B09DBB21A46920013445B00DAB2FB79B7
:1054A00003F00F03DBB21344DBB218460C37BD46E2
:1054B0005DF8047B7047000080B483B000AF034602
:1054C000FB71FB790C4AA2FB0323DB08DBB21B0157
:1054D000D8B2FA79084BA3FB0213D9080B469B00FC
:1054E0000B445B00D31ADBB20344DBB218460C3723
:1054F000BD465DF8047B7047CDCCCCCC80B485B084
:1055000000AFF8600B467A60FB72264B0022DA602F
:10551000244B1B68002B02D0012B10D039E0FB7A02
:10552000012202FA03F31A46FB681340002B2DD028
:105530001C4A7B6853601B4B01221A6026E0FB7AF1
:10554000012202FA03F31A46FB681340002B1FD016
:10555000144A7B689360134B9B685A1C114B5B6821
:105560009A4207D90F4B9A680E4B5B68D31A0D4AC3
:10557000D36007E00B4B9A680A4B5B68D31A013B78
:10558000084AD360074B00221A6001E000BF00E028
:1055900000BF044BDB6818461437BD465DF8047B3A
:1055A000704700BF4808002080B485B000AFF860A5
:1055B000B9603B601346FB71254B0022DA60244B37
:1055C0001B68002B02D0012B10D039E0FB7901229F
:1055D00002FA03F31A46FB681340002B2DD01C4A35
:1055E0003B6853601A4B01221A6026E0FB790122C6
:1055F00002FA03F31A46BB681340002B1FD0144A6B
:105600003B689360124B9B685A1C114B5B689A4233
:1056100007D90F4B9A680E4B5B68D31A0C4AD360BC
:1056200007E00B4B9A680A4B5B68D31A013B084AA8
:10563000D360074B00221A6001E000BF00E000BF0A
:10564000034BDB6818461437BD465DF8047B704792
:105650005808002080B483B000AFB8803B799BB27B
:105660001B029AB27B799BB213439BB218460C374C
:10567000BD465DF8047B704780B483B000AFB8804E
:105680007B799BB21B029AB23B799BB213439BB2CC
:1056900018460C37BD465DF8047B704780B485B072
:1056A00000AF0346FB80FB881B0A9BB2DBB23B7258
:1056B000FB88DBB27B723B89BB8100233A7B62F3C0
:1056C00007037A7B62F30F2318461437BD465DF853
:1056D000047B704780B485B000AF0346FB80FB8835
:1056E0001B0A9BB2DBB27B72FB88DBB23B723B894D
:1056F000BB8100233A7B62F307037A7B62F30F23BB
:1057000018461437BD465DF8047B704780B485B0F9
:1057100000AF0346FB80FB881B02FB81FB881B0A52
:105720009AB2FB8913439BB218461437BD465DF805
:10573000047B704780B400AF254B9B681A68244BEC
:105740009B6842F480721A60214BD3F8C0305A6AC9
:105750001F4BD3F8C03042F0CA025A621C4BD3F838
:10576000C0305A6A1A4BD3F8C03042F053025A6222
:10577000174BD3F8C030DA68154BD3F8C03042F07D
:105780008002DA6000BF124BD3F8C030DB6803F050
:105790004003002BF7D00E4BD3F8C0300D4A1268EF
:1057A0001A600B4BD3F8C030DA68094BD3F8C0301D
:1057B00022F08002DA60064B9B681A68044B9B68F3
:1057C00022F480721A6000BFBD465DF8047B70470A
:1057D000BC0600204008002080B400AF254B9B6829
:1057E0001A68244B9B6842F480721A60214BD3F8EC
:1057F000C0305A6A1F4BD3F8C03042F0CA025A6216
:105800001C4BD3F8C0305A6A1A4BD3F8C03042F060
:1058100053025A62174BD3F8C030DA68154BD3F8ED
:10582000C03042F08002DA6000BF124BD3F8C030C3
:10583000DB6803F04003002BF7D00E4BD3F8C030E9
:105840000D4A12685A600B4BD3F8C030DA68094B26
:10585000D3F8C03022F08002DA60064B9B681A68E9
:10586000044B9B6822F480721A6000BFBD465DF84D
:10587000047B7047BC0600204408002080B485B03B
:1058800000AF0346FB71784BDB681A6C764BDB6824
:1058900042F080521A64744B9B681A68724B9B6882
:1058A00042F480721A60FB79032B57D801A252F898
:1058B00023F000BFC5580008EB5800081159000834
:1058C00017590008684BDB685A6F674BDB6842F07A
:1058D00001025A6700BF644BDB685B6F03F0020391
:1058E000002BF8D00023FB734BE05F4BDB681A6F93
:1058F0005D4BDB6842F001021A6700BF5A4BDB6860
:105900001B6F03F00203002BF8D00123FB7338E078
:105910000223FB7335E0544BDB685A6F524BDB6854
:1059200042F001025A6700BF4F4BDB685B6F03F028
:105930000203002BF8D04C4BDB681A6F4A4BDB6834
:1059400042F001021A6700BF474BDB681B6F03F090
:105950000203002BF8D00323FB7312E0424BDB68F9
:105960005A6F414BDB6842F001025A6700BF3E4B61
:10597000DB685B6F03F00203002BF8D00423FB739A
:1059800000BFFB79032B57D801A252F823F000BFC8
:10599000A1590008C7590008ED590008135A00081A
:1059A000314BDB681A6F304BDB6822F440721A67A8
:1059B0002D4BDB681A6F2C4BDB6842F400721A67C0
:1059C0000523FB7349E0284BDB681A6F264BDB6825
:1059D00022F440721A67244BDB681A6F224BDB6893
:1059E00042F480721A670623FB7336E01E4BDB68B5
:1059F0001A6F1D4BDB6822F440721A671A4BDB6882
:105A00001A6F194BDB6842F440721A670723FB7365
:105A100023E0154BDB681A6F134BDB6822F44072EE
:105A20001A67114BDB681A6F0F4BDB6842F4007288
:105A30001A670823FB7310E00B4BDB681A6F0A4BE5
:105A4000DB6822F440721A67074BDB681A6F064B5B
:105A5000DB6842F400721A6700BFFB7B18461437FC
:105A6000BD465DF8047B7047BC06002080B400AFE3
:105A70000D4B1A680D4BD3F80031013A5A600B4BAD
:105A8000D3F8003100229A60084BD3F800311A682D
:105A9000064BD3F8003142F006021A6000BFBD4643
:105AA0005DF8047B704700BF04000020BC060020A6
:105AB00080B483B000AF7860164B1B68164AA2FB17
:105AC00003239A09154BD3F80031013A5A60134B5E
:105AD000D3F800311A68114BD3F8003142F00102BB
