:020000040800F2
:1000000000000220D11C0008211D0008211D00084D
:10001000211D0008211D0008211D0008000000000E
:10002000000000000000000000000000211D00088A
:10003000211D000800000000211D0008D55E0008F9
:10004000211D0008211D0008211D0008211D000898
:10005000211D0008211D0008211D0008211D000888
:10006000211D0008211D0008211D0008211D000878
:10007000211D0008211D0008211D0008211D000868
:10008000211D0008211D0008211D0008211D000858
:10009000211D0008211D0008211D0008211D000848
:1000A0002D1A0008211D0008211D0008211D00082F
:1000B000211D0008211D0008211D0008211D000828
:1000C000211D0008211D0008211D0008211D000818
:1000D000211D0008211D0008211D0008211D000808
:1000E000211D0008211D0008211D0008211D0008F8
:1000F000211D0008211D0008211D0008211D0008E8
:10010000211D0008211D0008211D0008211D0008D7
:10011000211D0008211D0008211D0008211D0008C7
:10012000211D0008211D0008211D0008211D0008B7
:10013000211D00080000000000000000211D000833
:10014000211D0008211D0008211D0008211D000897
:10015000211D0008211D0008211D0008211D000887
:10016000211D0008211D0008211D0008211D000877
:10017000211D0008211D0008211D000800000000AD
:1001800000000000211D0008000000000000000029
:10019000211D00080000000000000000211D0008D3
:1001A000000000000000000000000000211D000809
:1001B000211D0008211D0008211D0008211D000827
:0401C000211D0008F5
:1001D00010B5054C237833B9044B13B10448AFF381
:1001E00000800123237010BDE0010020000000000A
:1001F0006CB8000808B5034B1BB103490348AFF3C3
:10020000008008BD00000000E40100206CB8000878
:10021000034613F8012B002AFBD1181A0138704746
:1002200001F0FF01102A2BDB10F0070F08D010F8A7
:10023000013B013A8B422DD010F0070F42B3F6D1AB
:10024000F0B441EA012141EA014122F007047FF0C4
:1002500000070023F0E80256083C85EA010586EA1B
:10026000010685FA47F5A3FA87F586FA47F6A5FA57
:1002700087F68EB9EED1F0BC01F0FF0102F0070263
:1002800032B110F8013B013A83EA010313B1F8D10E
:100290000020704701387047002D06BF35460338EF
:1002A000073815F0010F07D1013015F4807F02BF28
:1002B000013015F4C03F0130F0BC0138704700BF79
:1002C00081F0004102E000BF83F0004330B54FEA07
:1002D00041044FEA430594EA050F08BF90EA020F74
:1002E0001FBF54EA000C55EA020C7FEA645C7FEA07
:1002F000655C00F0E2804FEA5454D4EB5555B8BF2A
:100300006D420CDD2C4480EA020281EA030382EA9A
:10031000000083EA010180EA020281EA0303362D2C
:1003200088BF30BD11F0004F4FEA01314FF4801CFF
:100330004CEA113102D0404261EB410113F0004F11
:100340004FEA03334CEA133302D0524263EB4303C8
:1003500094EA050F00F0A780A4F10104D5F1200E66
:100360000DDB02FA0EFC22FA05F2801841F10001C1
:1003700003FA0EF2801843FA05F359410EE0A5F195
:1003800020050EF1200E012A03FA0EFC28BF4CF0C6
:10039000020C43FA05F3C01851EBE37101F000457C
:1003A00007D54FF0000EDCF1000C7EEB00006EEB89
:1003B0000101B1F5801F1BD3B1F5001F0CD3490813
:1003C0005FEA30004FEA3C0C04F101044FEA44526A
:1003D00012F5800F80F09A80BCF1004F08BF5FEAF1
:1003E000500C50F1000041EB045141EA050130BDD1
:1003F0005FEA4C0C404141EB0101013C28BFB1F5E3
:10040000801FE9D291F0000F04BF01460020B1FA2D
:1004100081F308BF2033A3F10B03B3F120020CDA00
:100420000C3208DD02F1140CC2F10C0201FA0CF0DE
:1004300021FA02F10CE002F11402D8BFC2F1200C43
:1004400001FA02F120FA0CFCDCBF41EA0C019040F9
:10045000E41AA2BF01EB0451294330BD6FEA040442
:100460001F3C1CDA0C340EDC04F11404C4F120022D
:1004700020FA04F001FA02F340EA030021FA04F33F
:1004800045EA030130BDC4F10C04C4F1200220FA96
:1004900002F001FA04F340EA0300294630BD21FAD4
:1004A00004F0294630BD94F0000F83F4801306BF9A
:1004B00081F480110134013D4EE77FEA645C18BF8E
:1004C0007FEA655C29D094EA050F08BF90EA020F25
:1004D00005D054EA000C04BF1946104630BD91EA1D
:1004E000030F1EBF0021002030BD5FEA545C05D120
:1004F0004000494128BF41F0004130BD14F580045F
:100500003CBF01F5801130BD01F0004545F0FE41D2
:1005100041F470014FF0000030BD7FEA645C1ABF07
:10052000194610467FEA655C1CBF0B46024650EA3E
:10053000013406BF52EA033591EA030F41F400216A
:1005400030BD00BF90F0000F04BF0021704730B5F0
:100550004FF4806404F132044FF000054FF00001C5
:1005600050E700BF90F0000F04BF0021704730B586
:100570004FF4806404F1320410F0004548BF40425B
:100580004FF000013EE700BF42004FEAE2014FEAB0
:1005900031014FEA02701FBF12F07F4393F07F4F8B
:1005A00081F06051704732F07F4208BF704793F08E
:1005B0007F4F04BF41F40021704730B54FF46074A1
:1005C00001F0004521F000411CE700BF50EA0102A4
:1005D00008BF704730B54FF000050AE050EA01024D
:1005E00008BF704730B511F0004502D5404261EBBD
:1005F00041014FF4806404F132045FEA915C3FF4FE
:10060000D8AE4FF003025FEADC0C18BF03325FEA9A
:10061000DC0C18BF033202EBDC02C2F1200300FA4B
:1006200003FC20FA02F001FA03FE40EA0E0021FA70
:1006300002F11444BDE600BF70B54FF0FF0C4CF45E
:10064000E06C1CEA11541DBF1CEA135594EA0C0F10
:1006500095EA0C0F00F0DEF82C4481EA030621EA4B
:100660004C5123EA4C5350EA013518BF52EA033586
:1006700041F4801143F4801338D0A0FB02CE4FF038
:100680000005E1FB02E506F00042E0FB03E54FF068
:100690000006E1FB03569CF0000F18BF4EF0010E60
:1006A000A4F1FF04B6F5007F64F5407404D25FEA5C
:1006B0004E0E6D4146EB060642EAC62141EA55510F
:1006C0004FEAC52040EA5E504FEACE2EB4F1FD0C51
:1006D00088BFBCF5E06F1ED8BEF1004F08BF5FEACF
:1006E000500E50F1000041EB045170BD06F0004681
:1006F00046EA010140EA020081EA0301B4EB5C042E
:10070000C2BFD4EB0C0541EA045170BD41F4801125
:100710004FF0000E013C00F3AB8014F1360FDEBF4A
:10072000002001F0004170BDC4F10004203C35DA26
:100730000C341BDC04F11404C4F1200500FA05F3A9
:1007400020FA04F001FA05F240EA020001F000424A
:1007500021F0004110EBD37021FA04F642EB0601C0
:100760005EEA430E08BF20EAD37070BDC4F10C04EA
:10077000C4F1200500FA04F320FA05F001FA04F2AE
:1007800040EA020001F0004110EBD37041F100019A
:100790005EEA430E08BF20EAD37070BDC4F12005A5
:1007A00000FA05F24EEA020E20FA04F301FA05F20D
:1007B00043EA020321FA04F001F0004121FA04F2B5
:1007C00020EA020000EBD3705EEA430E08BF20EA85
:1007D000D37070BD94F0000F0FD101F000464000BF
:1007E00041EB010111F4801F08BF013CF7D041EA41
:1007F000060195F0000F18BF704703F00046520045
:1008000043EB030313F4801F08BF013DF7D043EA15
:100810000603704794EA0C0F0CEA135518BF95EACB
:100820000C0F0CD050EA410618BF52EA4306D1D152
:1008300081EA030101F000414FF0000070BD50EA71
:10084000410606BF1046194652EA430619D094EAFB
:100850000C0F02D150EA013613D195EA0C0F05D1E5
:1008600052EA03361CBF104619460AD181EA030139
:1008700001F0004141F0FE4141F470014FF00000F1
:1008800070BD41F0FE4141F4780170BD70B54FF08C
:10089000FF0C4CF4E06C1CEA11541DBF1CEA13550C
:1008A00094EA0C0F95EA0C0F00F0A7F8A4EB0504EE
:1008B00081EA030E52EA03354FEA013100F08880E5
:1008C0004FEA03334FF0805545EA131343EA1263AE
:1008D0004FEA022245EA111545EA10654FEA002663
:1008E0000EF000419D4208BF964244F1FD0404F51C
:1008F000407402D25B084FEA3202B61A65EB030578
:100900005B084FEA32024FF480104FF4002CB6EB34
:10091000020E75EB030E22BFB61A754640EA0C00B4
:100920005B084FEA3202B6EB020E75EB030E22BFF4
:10093000B61A754640EA5C005B084FEA3202B6EB35
:10094000020E75EB030E22BFB61A754640EA9C00F4
:100950005B084FEA3202B6EB020E75EB030E22BFC4
:10096000B61A754640EADC0055EA060E18D04FEA82
:10097000051545EA16754FEA06164FEAC30343EA22
:1009800052734FEAC2025FEA1C1CC0D111F4801FEF
:100990000BD141EA00014FF000004FF0004CB6E7E8
:1009A00011F4801F04BF01430020B4F1FD0C88BF87
:1009B000BCF5E06F3FF6AFAEB5EB030C04BFB6EB92
:1009C000020C5FEA500C50F1000041EB045170BD85
:1009D0000EF0004E4EEA113114EB5C04C2BFD4EBB2
:1009E0000C0541EA045170BD41F480114FF0000E36
:1009F000013C90E645EA060E8DE60CEA135594EAB2
:100A00000C0F08BF95EA0C0F3FF43BAF94EA0C0FB4
:100A10000AD150EA01347FF434AF95EA0C0F7FF429
:100A200025AF104619462CE795EA0C0F06D152EA7D
:100A300003353FF4FDAE1046194622E750EA410661
:100A400018BF52EA43067FF4C5AE50EA41047FF472
:100A50000DAF52EA43057FF4EBAE12E74FF0FF3CD7
:100A600006E000BF4FF0010C02E000BF4FF0010CA8
:100A70004DF804CD4FEA410C7FEA6C5C4FEA430C21
:100A800018BF7FEA6C5C1BD001B050EA410C0CBF70
:100A900052EA430C91EA030F02BF90EA020F0020D2
:100AA000704710F1000F91EA030F58BF994208BF39
:100AB00090422CBFD8176FEAE37040F001007047F6
:100AC0004FEA410C7FEA6C5C02D150EA013C07D14D
:100AD0004FEA430C7FEA6C5CD6D152EA033CD3D098
:100AE0005DF8040B704700BF8446104662468C4692
:100AF0001946634600E000BF01B5FFF7B7FF0028C5
:100B000048BF10F1000F01BD4DF808EDFFF7F4FFED
:100B10000CBF012000205DF808FB00BF4DF808ED78
:100B2000FFF7EAFF34BF012000205DF808FB00BF9B
:100B30004DF808EDFFF7E0FF94BF012000205DF8BD
:100B400008FB00BF4DF808EDFFF7CEFF94BF012072
:100B500000205DF808FB00BF4DF808EDFFF7C4FF6B
:100B600034BF012000205DF808FB00BF4FEA410CB4
:100B70007FEA6C5C02D150EA013C0AD14FEA430C97
:100B80007FEA6C5C02D152EA033C02D14FF00000D4
:100B900070474FF0010070474FEA410212F5001212
:100BA00015D211D56FF47873B3EB625212D94FEAB4
:100BB000C12343F0004343EA505311F0004F23FA9E
:100BC00002F018BF404270474FF00000704750EAF3
:100BD000013005D111F0004008BF6FF000407047B0
:100BE0004FF00000704700BF4A0011D212F500120A
:100BF00011D20DD56FF47873B3EB62520ED44FEA75
:100C0000C12343F0004343EA505323FA02F07047F4
:100C10004FF00000704750EA013002D14FF0FF3032
:100C200070474FF0000070474FEA4102B2F1E043D5
:100C300024BFB3F5001CDCF1FE5C0DD901F0004CC3
:100C40004FEAC0024CEA5070B2F1004F40EB830013
:100C500008BF20F00100704711F0804F21D113F13F
:100C60003872BCBF01F00040704741F480114FEA78
:100C70005252C2F11802C2F1200C10FA0CF320FA01
:100C800002F018BF40F001004FEAC1234FEAD3231E
:100C900003FA0CFC40EA0C0023FA02F34FEA430388
:100CA000CCE77FEA625307D150EA01331EBF4FF011
:100CB000FE4040F44000704701F0004040F0FE402C
:100CC00040F40000704700BF38B5002200230446FE
:100CD0000D46FFF723FF28B920462946BDE83840D6
:100CE00000F00AB8204605F1004100F005F8404246
:100CF00061EB410138BD00BFD0B50C4B0022064668
:100D00000F46FFF799FCFFF76FFF0446FFF71AFC49
:100D1000074B0022FFF790FC02460B46304639464F
:100D2000FFF7D2FAFFF760FF2146D0BD0000F03D8B
:100D30000000F04100000000B0B5EAB002AF4FF093
:100D400000024FF00003C7E966230023C7F894317F
:100D50003C23C7F89031A44C3B46184601F05CFF99
:100D600007F5D073A3F5D073204619464FF4C87326
:100D70001A4605F0E7F89C4BD3F84C31984700F041
:100D800051F900F071F9994C3B46184601F07AF997
:100D900007F5D073A3F5D0732046194690231A4661
:100DA00005F0D0F8924C3B46184601F0D7F807F50D
:100DB000D073A3F5D0731D460FCD0FC495E807007F
:100DC00084E807008B4C3B46184601F0C7F807F54E
:100DD000D073A3F5D0731D460FCD0FC495E807005F
:100DE00084E80700844C3B46184601F0B7F807F545
:100DF000D073A3F5D0731D460FCD0FC495E807003F
:100E000084E807007D4B03221A707D4B00221A7084
:100E10007C4B00221A807C4B00221A70724B1B6E96
:100E20001946714B1B6E03F11402784C38460023AF
:100E3000019301230093022300F074FF07F5D073A0
:100E4000A3F5D072234607CA83E80700664B5A6CA5
:100E50006F4C3B461146184601F0B2FA07F5D073C5
:100E6000A3F5D0731D460FCD0FC40FCD0FC495E869
:100E7000070084E807005C4BD3F8243198475A4BAD
:100E8000D3F82C319847584BD3F830319847564B0C
:100E9000D3F8D43001209847534BD3F8FC30524A52
:100EA000D2F8D02050325B4910469847504B9B698E
:100EB0004D4A926A126911464D4898474D4B9B69BD
:100EC000494A526C126911464A4898474A4B9B69F5
:100ED000454A126E12691146474898474C4B9B6A27
:100EE000984700F001F94A4B5B6A002101209847BE
:100EF000474B5C693D4BD3F88C303B4AD2F8D0204D
:100F0000503211464448984703461846A047404B84
:100F10005B6A042101209847D7F89031D7F89421D3
:100F20009A4217D2304BD3F83431984753EC102BF8
:100F3000D7E96601FFF7CAF902460B46C7E96623FF
:100F4000294BD3F838319847D7F894310133C7F893
:100F50009431ABE7D7F89001FFF704FB02460B464C
:100F6000D7E96601FFF792FC02460B46C7E9662304
:100F700019A3D3E90023D7E96601FFF787FC0246EE
:100F80000B461046194616A3D3E90023FFF79CF938
:100F900002460B46104619464FF000021F4BFFF762
:100FA00095F902460B46C7E96623194B9C690F4B1E
:100FB000D3F88C50D7E96601FFF716FE0346DF220F
:100FC00019461748A847034607211846A04700239B
:100FD000C7F894316AE700BFCDCCCCCCCCCC08406C
:100FE000638C31C618037340FC0100208C03002081
:100FF0001C0400203804002054040020A804002011
:10100000B4040020B6040020B804002070040020BE
:101010007C0400204355420088B800080000394095
:101020008CB8000880B500AF0E4BDB681A6B0D4B17
:10103000DB6842F007021A630A4BDB6A05210120D4
:101040009847084B5B6B052100209847054B5B6E6A
:101050000D2100209847034BDB6E0D21012098479E
:1010600000BF80BDFC01002080B400AF1D4BDB68D9
:101070005A6C1C4BDB6842F480325A64194BD3F82B
:101080000C311A68174BD3F80C3142F080721A6099
:10109000144BD3F81C314BF2DF12DA62114BD3F848
:1010A0001C3141F66A525A630E4BD3F81C3114229C
:1010B0009A620C4BD3F81C31DA680A4BD3F81C3116
:1010C00042F00302DA60074BD3F81C311A68054B73
:1010D000D3F81C3142F081021A6000BFBD465DF8B2
:1010E000047B7047FC010020F0B585B004AF704B65
:1010F0001B78013B082B00F26B8401A252F823F00D
:1011000025110008EB110008E1120008F313000894
:101110000D150008EB15000801170008DF1700087F
:10112000F5180008634B5B6A002100209847614B6B
:101130009B69102160489847604BD3F8F8306048AD
:1011400098475C4B5B6A002103209847594B9C6988
:101150005C4BD3F88C505A4B1B781846584B5B7835
:101160001E46574B9B789C46554BDB781A46544B92
:101170001B791946524B5B790293019100926346A9
:10118000324601465048A847034611211846A04759
:101190004A4BD3F85C414D4B58694C4B19694C4B49
:1011A0001B880D22A04703464A4A1360494B1B681F
:1011B000052B06D9474B1B680A2B02D83C4B022251
:1011C0001A70444B1B680A2B06D9424B1B681D2B17
:1011D00002D8374B04221A703E4B1B68282B40F272
:1011E000F983334B03221A70F4E3324B5B6A00211C
:1011F000002098472F4B9B691021374898472F4B69
:10120000D3F8F4302E4898472A4B5B6A002103201C
:101210009847284B9C692B4BD3F88C50284B5B7913
:101220001846274B9B791E46254BDB789C46244B62
:101230001B791A46224B1B781946214B5B78029387
:10124000019100926346324601462448A84703466E
:1012500011211846A047194BD3F85C411B4B586924
:101260001A4B19691A4B1B880D22A0470346194ACD
:101270001360184B1B68052B06D9164B1B680A2BED
:1012800002D80B4B01221A70124B1B680A2B06D98D
:10129000104B1B681D2B02D8054B07221A700D4BF3
:1012A0001B68282B40F29883014B03221A7093E3AA
:1012B000A80400207C04002094B80008FC01002051
:1012C000BC0400208C0300209CB8000854040020BB
:1012D000B6040020B0040020B4B80008BCB8000870
:1012E0007B4B5B6A002100209847794B9B6910215A
:1012F00078489847784BD3F8F43078489847744B3F
:101300005B6A002102209847714B9C69744BD3F8AB
:101310008C50724B5B791846704B9B791E466F4B15
:10132000DB789C466D4B1B791A466C4B1B78194633
:101330006A4B5B7802930191009263463246014604
:101340006848A847034611211846A047624BD3F8C6
:10135000F830624898475E4B5B6A0021032098474B
:101360005B4B9C695E4BD3F88C505C4B1B781846EA
:101370005A4B5B781E46594B9B789C46574BDB7803
:101380001A46564B1B791946544B5B7902930191CF
:1013900000926346324601465348A847034611214E
:1013A0001846A0474C4BD3F85C41504B58694F4B03
:1013B00019694F4B1B880D22A0470346282B40F28A
:1013C0000D83434B5B6A002102209847404B9B6989
:1013D0001121484898473E4B5B6A002103209847FB
:1013E0003B4B9B690F2143489847434B01221A709E
:1013F000F4E2374B5B6A002100209847344B9B692D
:1014000010213E489847344BD3F85C41374B58691C
:10141000364B1969364B1B880D22A0470346384AC4
:101420001360374B1B68002B23D0354B1B68052BF3
:101430001FD8344B1B780133DAB2324B1A70314B60
:101440001B78172B02D92F4B00221A70204B5B6A96
:101450000021022098471E4B9C69214BD3F88C3009
:10146000284A127811462848984703461021184602
:10147000A047234B1B680A2B10D9214B1B68132B49
:101480000CD8134B5B6A002102209847104B9B69D4
:10149000102118489847184B05221A70184B1B68E2
:1014A000132B40F29D820A4B5B6A00210220984771
:1014B000074B9B6910210F4898470F4B01221A7068
:1014C000054BD3F8E8300F4A12781046984787E268
:1014D0007C040020D4B80008FC010020BC040020DB
:1014E0008C030020BCB800089CB8000854040020FD
:1014F000B6040020E0B80008A8040020E4B8000802
:10150000B0040020A9040020F4B800086E4B5B6A08
:101510000021002098476C4B9B6910216B4898472D
:101520006B4BD3F85C416B4B58696A4B19696A4B3A
:101530001B880D22A0470346684A1360674B1B684F
:10154000002B23D0654B1B68052B1FD8644B1B78E1
:101550000133DAB2624B1A70614B1B783B2B02D914
:101560005F4B00221A70584B5B6A0021022098479B
:10157000554B9C695B4BD3F88C30594A1278114615
:1015800059489847034610211846A047534B1B68FB
:101590000A2B10D9514B1B68132B0CD84A4B5B6A92
:1015A000002102209847484B9B6910214F489847DB
:1015B0004F4B06221A70494B1B68132B40F21282C4
:1015C000414B5B6A0021022098473F4B9B691021E9
:1015D00046489847464B01221A703D4BD3F8EC30F1
:1015E0003F4A127810469847FCE1374B5B6A00216E
:1015F00000209847344B9B6910213E489847344B54
:10160000D3F85C41334B5869324B1969324B1B8814
:101610000D22A0470346314A1360304B1B68002B54
:1016200023D02E4B1B68052B1FD8334B1B7801335F
:10163000DAB2314B1A70304B1B783B2B02D92E4B50
:1016400000221A70204B5B6A0021022098471E4B33
:101650009C69244BD3F88C30274A127811462748CE
:101660009847034610211846A0471C4B1B680A2BBD
:1016700010D91A4B1B68132B0CD8134B5B6A002133
:1016800002209847104B9B69102118489847184B27
:1016900001221A70114B1B68132B40F2A5810A4BD3
:1016A0005B6A002102209847074B9B6910210F4875
:1016B00098470F4B01221A70054BD3F8F0300E4AB1
:1016C0001278104698478FE17C04002000B900088A
:1016D000FC01002054040020B6040020B0040020C7
:1016E000AA0400208C03002010B90008E0B800080C
:1016F000A80400201CB90008AB04002030B9000881
:101700006E4B5B6A0021002098476C4B9B6910214F
:101710006B4898476B4BD3F85C416B4B58696A4BED
:1017200019696A4B1B880D22A0470346684A13605B
:10173000674B1B68002B23D0654B1B68052B1FD8FC
:10174000644B1B780133DAB2624B1A70614B1B7821
:10175000632B02D95F4B00221A70584B5B6A002141
:1017600002209847554B9C695B4BD3F88C30594A03
:101770001278114659489847034610211846A04749
:10178000534B1B680A2B10D9514B1B68132B0CD8D9
:101790004A4B5B6A002102209847484B9B69102105
:1017A0004F4898474F4B08221A70494B1B68132B20
:1017B00040F21C81414B5B6A0021022098473F4B5D
:1017C0009B69102146489847464B02221A703D4BB0
:1017D000D3F8E4303F4A12781046984706E1374B79
:1017E0005B6A002100209847344B9B6910213E48DA
:1017F0009847344BD3F85C41334B5869324B1969E5
:10180000324B1B880D22A0470346314A1360304BF0
:101810001B68002B23D02E4B1B68052B1FD8334B86
:101820001B780133DAB2314B1A70304B1B780C2B1A
:1018300002D92E4B01221A70204B5B6A0021022034
:1018400098471E4B9C69244BD3F88C30274A12785A
:10185000114627489847034610211846A0471C4BBD
:101860001B680A2B10D91A4B1B68132B0CD8134B6F
:101870005B6A002102209847104B9B691021184891
:101880009847184B09221A70114B1B68132B40F212
:10189000AF800A4B5B6A002102209847074B9B6987
:1018A00010210F4898470F4B02221A70054BD3F8AE
:1018B000DC300E4A12781046984799E07C040020EC
:1018C0003CB90008FC01002054040020B6040020AC
:1018D000B0040020AC0400208C03002048B90008AC
:1018E000E0B80008A804002050B90008000000205B
:1018F0005CB90008424B5B6A002100209847404BCE
:101900009B6910213F4898473F4BD3F85C413F4BC0
:1019100058693E4B19693E4B1B880D22A047034670
:101920003C4A13603B4B1B68002B23D0394B1B6890
:10193000052B1FD8384B1B780133DAB2364B1A709F
:10194000354B1B781F2B02D9334B01221A702C4BBD
:101950005B6A002102209847294B9C692F4BD3F8E2
:101960008C302D4A127811462D4898470346102195
:101970001846A047274B1B680A2B10D9254B1B681C
:10198000132B0CD81E4B5B6A0021022098471C4B7E
:101990009B69102123489847234B02221A701D4B44
:1019A0001B68132B26D9164B5B6A0021022098472F
:1019B000134B9B6910211B4898471B4B02221A703E
:1019C000114BD3F8D830144A12781046984711E0DA
:1019D00000BF10E000BF0EE000BF0CE000BF0AE057
:1019E00000BF08E000BF06E000BF04E000BF02E067
:1019F00000BF00E000BF00BF0437BD46F0BD00BF20
:101A00007C04002064B90008FC010020540400207C
:101A1000B6040020B0040020010000208C03002048
:101A200070B90008E0B80008A804002080B500AF35
:101A3000364BD3F81C311B6903F00103002B50D047
:101A4000324BD3F81C311A69304BD3F81C3122F0D9
:101A500001021A612E4B1B78002B1ED02B4B9B6B67
:101A6000202098472B4B5B682B4A92F90010CAB292
:101A7000013AD2B250B2284A107001228A40D2B242
:101A8000D243D2B210469847234B93F90030002B33
:101A900021DA1F4B00221A701DE01C4BDB6B20204B
:101AA00098471C4B5B681C4A92F90010CAB201327D
:101AB000D2B250B2184A107001228A40D2B2D24338
:101AC000D2B210469847144B93F90030072B02DD31
:101AD0000F4B01221A70114B1B8801339AB20F4B26
:101AE0001A800A4BD3F81C311B6903F00203002B48
:101AF00009D0064BD3F81C311A69044BD3F81C31BA
:101B000022F002021A6100BF80BD00BFFC0100206C
:101B1000B804002070040020B4040020B6040020A3
:101B200080B400AF01231846BD465DF8047B7047C2
:101B300080B582B000AF7860396004F0D9F903460F
:101B400016221A604FF0FF3318460837BD4680BD95
:101B500080B582B000AF78604FF0FF317868FFF752
:101B6000E7FFFEE780B586B000AFF860B9607A6045
:101B700000237B610AE0AFF300800146BB685A1C7A
:101B8000BA60CAB21A707B6901337B617A697B687B
:101B90009A42F0DB7B6818461837BD4680BD80B599
:101BA00086B000AFF860B9607A6000237B6109E01D
:101BB000BB685A1CBA601B781846AFF300807B697B
:101BC00001337B617A697B689A42F1DB7B68184656
:101BD0001837BD4680BD80B483B000AF78604FF049
:101BE000FF3318460C37BD465DF8047B704780B460
:101BF00083B000AF786039603B684FF400525A60A0
:101C0000002318460C37BD465DF8047B704780B44E
:101C100083B000AF7860012318460C37BD465DF8ED
:101C2000047B704780B485B000AFF860B9607A601B
:101C3000002318461437BD465DF8047B704700004A
:101C400080B586B000AF7860144A154BD31A7B611B
:101C50007B693B61134B1B68002B02D1114B124A6D
:101C60001A60104B1A687B6813443A699A4207D28B
:101C700004F03EF903460C221A604FF0FF3309E0EE
:101C8000084B1B68FB60074B1A687B681344054AC6
:101C90001360FB6818461837BD4680BD000002205F
:101CA00000040000D4040020B008002080B400AF7D
:101CB000064BD3F88830054A43F47003C2F88830E5
:101CC00000BFBD465DF8047B704700BF00ED00E03B
:101CD000DFF834D00D480E490E4A002302E0D458F4
:101CE000C4500433C4188C42F9D30B4A0B4C002364
:101CF00001E013600432A242FBD3FFF7D7FF04F0E8
:101D0000FDF8FFF719F870470000022000000020DE
:101D1000DC01002058BE0008E0010020B0080020CF
:101D2000FEE7000090B488B000AFF860B9607A6058
:101D3000FB70384ABB681360374A7B681360374AC8
:101D4000FB781370364A97F828301370354A97F8A5
:101D50002C3013702F4B1B681A68FB785B00032133
:101D6000994097F828305B00032000FA03F31943E9
:101D700097F82C305B00032000FA03F30B43DB439E
:101D80001946244B1B680A401A60224B1B681A68CC
:101D9000FB785B000121994097F828305B00012017
:101DA00000FA03F3194397F82C305B00012000FA86
:101DB00003F30B431946174B1B680A431A60164B73
:101DC0001B681A68FB780121994097F82830012098
:101DD00000FA03F3194397F82C30012000FA03F3BB
:101DE0000B43DB4319460C4B1B680A401A600E4B31
:101DF0007B610E4BBB610E4BFB61FB681C4607F120
:101E0000140393E8070084E80700F8682037BD460C
:101E100090BC7047D8040020DC040020E0040020BF
:101E2000E1040020E2040020351E0008CD1E000859
:101E3000111F000880B483B000AF0346FB71FB792B
:101E4000002B0DD01E4B1B681A681E4B1B781946C1
:101E500001238B4019461A4B1B680A431A600DE098
:101E6000174B1B681A68174B1B78194601238B40C8
:101E7000DB431946124B1B680A401A60104B1B6863
:101E80001A68114B1B78194601238B4019460C4BDD
:101E90001B680A431A600A4B1B681A680A4B1B78B6
:101EA000194601238B40DB431946054B1B680A404A
:101EB0001A6000BF0C37BD465DF8047B704700BF59
:101EC000DC040020E0040020E104002080B584B0A0
:101ED00000AF0346FB710023FB730FE0FB7B012285
:101EE00002FA03F35AB297F9073013405BB2DBB240
:101EF0001846FFF79FFFFB7B0133FB73FB7B072B30
:101F0000ECD900F005F800BF1037BD4680BD0000D9
:101F100080B400AF0F4B1B681A680F4B1B78194633
:101F200001238B4019460B4B1B680A431A60094B6F
:101F30001B681A68084B1B78194601238B40DB434A
:101F40001946044B1B680A401A6000BFBD465DF885
:101F5000047B7047DC040020E2040020B0B48BB0A6
:101F600000AF78600023FB6000233B61084B7B627D
:101F70007B681D4607F10C040FCC0FC594E80700E1
:101F800085E8070078682C37BD46B0BC704700BFB5
:101F9000951F000880B582B000AF786039607B681B
:101FA0005A687B681A607B683A685A60786800F003
:101FB00019F802467B689A60786800F024F80246B7
:101FC0007B68DA60786800F030F802467B681A6156
:101FD000786800F040F802467B685A6100BF083715
:101FE000BD4680BD80B485B000AF78607B681A685C
:101FF0007B685B681340FB60FB6818461437BD467E
:102000005DF8047B704780B485B000AF78607B6872
:102010001A687B685B681343FB60FB68DB43184608
:102020001437BD465DF8047B704780B485B000AFBF
:1020300078607B681A687B685B685340FB607B68EC
:102040005B68FA681340FB60FB6818461437BD46AE
:102050005DF8047B704780B485B000AF78607B6822
:102060005A687B681B685340FB607B681B68FA6892
:102070001340FB60FB6818461437BD465DF8047BCF
:102080007047000080B5A6B000AF78600A4B002210
:1020900083F85F20094BBB67094BC7F894307B6816
:1020A000184607F108039022194603F04BFF7868A1
:1020B0009837BD4680BD00BFE40400200922000817
:1020C0008523000880B485B000AF78600023FB60F2
:1020D00002E0FB680133FB60FB687A6813441B78FD
:1020E000002BF6D1FB6818461437BD465DF8047B1B
:1020F000704780B586B000AF786000237B61786858
:10210000FFF7E0FF0346013B3B6117E07B697A681C
:1021100013441B78FB733B697A681A447B697968BE
:102120000B4412781A703B697A681344FA7B1A7070
:102130007B6901337B613B69013B3B617A693B69A8
:102140009A42E3DB00BF00BF1837BD4680BD0000E8
:1021500080B487B000AFF860B9601346FB7100230C
:10216000FB75FA68274B83FB02139910D317C91A22
:102170000B469B000B445B00D11ACAB2FB7D591C75
:10218000F9751946BB680B443032D2B21A7015E0AB
:10219000FA681C4B83FB02139910D317C91A0B461C
:1021A0009B000B445B00D11ACAB2FB7D591CF97528
:1021B0001946BB680B443032D2B21A70FB68114A20
:1021C00082FB03129210DB17D31AFB60FB68002B13
:1021D000DEDC07E0FB7D5A1CFA751A46BB68134427
:1021E00030221A70FA7DFB799A42F3D3FB7DBA68EC
:1021F000134400221A70FB7D18461C37BD465DF85B
:10220000047B704767666666B0B58AB000AF87ED3D
:10221000020B78600B46FB700023FB774FF0000247
:102220004FF00003D7E90201FEF778FC0346002BCC
:1022300008D0BC68FB6883F00045C7E90845FF2368
:10224000BB7705E0D7E90223C7E908230123BB7761
:10225000D7E90801FEF7C8FC0346BB61B869FEF781
:1022600071F902460B46D7E90801FEF72DF8024640
:102270000B46C7E90423BB69012279681846FFF7BA
:1022800067FF0346FB7797F91E30002B08DAFB7FC8
:102290005A1CFA771A467B6813442D221A7007E0FD
:1022A000FB7F5A1CFA771A467B68134420221A7067
:1022B000FB7F7A68134400221A707868FFF719FFD1
:1022C000FB78002B30D0FB78062B2DD8FB7F5A1CD7
:1022D000FA771A467B6813442E221A70FB78184648
:1022E000FEF730F902460B4643EC112B9FED220B13
:1022F00008F0A0FB51EC100BD7E90423FEF79CF982
:1023000002460B4610461946FEF746FCFB7F7A68EC
:102310001344FA781946FFF71BFFFB7F7A681344D2
:102320001846FFF7E6FE21E0FB7F5A1CFA771A46B3
:102330007B6813442E221A704FF00002104BD7E92D
:102340000401FEF779F902460B4610461946FEF7DE
:1023500023FCFB7F7A68134402221946FFF7F8FE3C
:10236000FB7F7A6813441846FFF7C3FE7B68184664
:102370002837BD46B0BD00BF00000000000024406B
:10238000000059400FB480B582B000AF07F11403CC
:102390003B603B683A695F21084805F0B5FB78600F
:1023A0007B68002B01DA002300E0044B1846083755
:1023B000BD46BDE8804004B0704700BFE404002083
:1023C000B0B5F2B000AFC7F89401C7F89011254C32
:1023D0003B46184600F020FC07F5E473A3F5E473D0
:1023E000204619464FF4C8731A4603F0ABFD1E4A47
:1023F000D7F8903113601D4BC7F89C311C4BC7F8C0
:10240000A0311C4BC7F8A4311B4BC7F8A8311B4B9C
:10241000C7F8AC311A4BC7F8B0311A4BC7F8B43112
:10242000194BC7F8B831194BC7F8BC31184BC7F86E
:10243000C031184BC7F8C43100F02EF8D7F89431EA
:102440001D4607F5CE740FCC0FC50FCC0FC594E811
:10245000070085E80700D7F8940107F5E477BD4643
:10246000B0BD00BF44050020D4060020CD250008E3
:102470002D280008212A0008592A00083B2A0008B4
:10248000792A0008A72A0008032B0008292B000836
:10249000492B0008D52B000880B500AF484B1B68BE
:1024A0001A68474B1B6822F03F021A60444B1B68B6
:1024B0001A68434B1B6842F015021A60404B1B68B8
:1024C0001A683F4B1B6822F0C0021A603C4B1B6825
:1024D000DA683B4B1B6822F0C002DA60384B1B689D
:1024E000DA68374B1B6842F04002DA60344B1B68F5
:1024F0009B68334A126823F47F4323F03F039360C1
:102500002F4B1B689B682E4A126843F47F4343F0AD
:102510003F0393602A4B1B681B6903F00803294A99
:102520001360294BD3F81431142098470021382028
:1025300000F04CF8244BD3F81831042098470021C0
:10254000382000F043F8204BD3F818310A20984780
:102550000021382000F03AF800F062FA002128202B
:1025600000F034F800F05CFA0021282000F02EF88A
:1025700000F056FA00210C2000F028F800F050FA84
:1025800000210C2000F022F800F04AFA002101207E
:1025900000F01CF800F044FA0021012000F016F8C9
:1025A00000F03EFA0021062000F010F800F038FAA2
:1025B0000021062000F00AF800F032FA00BF80BDCA
:1025C000D4060020D80600204405002080B582B043
:1025D00000AF03460A46FB711346BB80914BD3F80C
:1025E0008431914A1268012110469847BB88002B1C
:1025F00008D08C4BD3F878318B4A126800211046F2
:10260000984707E0874BD3F88431874A1268002146
:1026100010469847844B1B681A68834B1B6822F44A
:102620007F421A60804B1B681A687F4B1B6842F41C
:10263000AA421A607C4B1B68DA687B4B1B6822F449
:102640007F42DA60774BD3F87831774A12680221FB
:102650001046984797F90730002B08DA714BD3F8EA
:102660007831714A126807211046984707E06D4B90
:10267000D3F884316C4A1268072110469847FB79D9
:1026800003F04003002B08D0664BD3F87831664A3C
:10269000126806211046984707E0624BD3F8843150
:1026A000614A1268062110469847FB7903F020031F
:1026B000002B08D05B4BD3F878315B4A12680521B8
:1026C0001046984707E0574BD3F88431564A1268B2
:1026D000052110469847FB7903F01003002B08D022
:1026E000504BD3F87831504A12680421104698476D
:1026F00007E04C4BD3F884314B4A12680421104652
:102700009847484BD3F88431474A12680221104653
:102710009847444BD3F88431434A1268012110464C
:102720009847BB88002B08D03E4BD3F878313E4AFF
:10273000126800211046984707E03A4BD3F88431DD
:10274000394A1268002110469847364BD3F8783141
:10275000354A1268022110469847FB7903F00803B6
:10276000002B08D02F4BD3F878312F4A126807215D
:102770001046984707E02B4BD3F884312A4A126859
:10278000072110469847FB7903F00403002B08D07B
:10279000244BD3F87831244A126806211046984712
:1027A00007E0204BD3F884311F4A126806211046F7
:1027B0009847FB7903F00203002B08D0194BD3F89C
:1027C0007831194A126805211046984707E0154BE1
:1027D000D3F88431144A1268052110469847FB79D2
:1027E00003F00103002B08D00E4BD3F878310E4ACA
:1027F000126804211046984707E00A4BD3F8843149
:10280000094A1268042110469847064BD3F88431D0
:10281000054A126802211046984700BF0837BD4696
:1028200080BD00BF44050020D406002080B584B0E0
:1028300000AF0346FB800023BB600023FB73764B95
:102840001B681A68744B1B6822F47F421A60724B33
:102850001B68DA68704B1B6822F47F42DA606E4BAB
:102860001B68DA686C4B1B6842F4AA42DA606B4B57
:10287000D3F87831684A1268012110469847FB88DE
:10288000002B08D0654BD3F87831634A12680021D9
:102890001046984707E0614BD3F884315E4A1268CE
:1028A0000021104698475D4BD3F878315A4A126898
:1028B000022110469847584B1B681B69BB60574B59
:1028C000D3F88431544A1268022110469847BB68F5
:1028D00003F08003002B04D0FB7B63F07F03FB73CA
:1028E00003E0FB7B03F07F03FB73BB6803F0400353
:1028F000002B04D0FB7B43F04003FB7303E0FB7B26
:1029000023F04003FB73BB6803F02003002B04D0CB
:10291000FB7B43F02003FB7303E0FB7B23F02003EE
:10292000FB73BB6803F01003002B04D0FB7B43F068
:102930001003FB7303E0FB7B23F01003FB73374BA7
:10294000D3F87831344A1268012110469847FB8841
:10295000002B08D0314BD3F878312F4A1268002170
:102960001046984707E02D4BD3F884312A4A126865
:10297000002110469847294BD3F87831264A12682F
:10298000022110469847244B1B681B69BB60234BF0
:10299000D3F88431204A1268022110469847BB6858
:1029A00003F08003002B04D0FB7B43F00803FB7390
:1029B00003E0FB7B23F00803FB73BB6803F04003D9
:1029C000002B04D0FB7B43F00403FB7303E0FB7B91
:1029D00023F00403FB73BB6803F02003002B04D037
:1029E000FB7B43F00203FB7303E0FB7B23F002035A
:1029F000FB73BB6803F01003002B04D0FB7B43F098
:102A00000103FB7303E0FB7B23F00103FB73FB7B00
:102A100018461037BD4680BDD4060020440500206E
:102A200080B500AF00BF0020FFF700FF03465BB298
:102A3000002BF8DB00BF00BF80BD80B582B000AFC7
:102A40000120FFF7F3FE0346FB71FFF7E9FFFB7977
:102A500018460837BD4680BD80B582B000AF03463A
:102A6000FB71FB7901211846FFF7B0FDFFF7D8FF96
:102A700000BF0837BD4680BD80B584B000AF786028
:102A800008E07B685A1C7A601B78FB73FB7B184656
:102A9000FFF7E2FF7B681B78002BF2D100BF00BF7D
:102AA0001037BD4680BD80B584B000AF7860396016
:102AB0000023FB600FE07B685A1C7A601B78FB7276
:102AC000FB680133FB60FA683B689A4208D8FB7ADE
:102AD0001846FFF7C1FF7B681B78002BEBD107E09E
:102AE00000BF05E02020FFF7B7FFFB680133FB6064
:102AF000FA683B689A42F5D300BF00BF1037BD4665
:102B000080BD80B582B000AF786005E02020FFF77F
:102B1000A3FF7B68013B7B607B68002BF6D100BF85
:102B200000BF0837BD4680BD80B500AF0021012041
:102B3000FFF74CFD034BD3F814310220984700BF38
:102B400080BD00BF4405002080B582B000AF786032
:102B500039607B68032B37D801A252F823F000BFFD
:102B6000712B0008872B00089D2B0008B32B000851
:102B70003B68DBB2803BDBB200211846FFF726FD45
:102B8000FFF74EFF21E03B68DBB2403BDBB20021A8
:102B90001846FFF71BFDFFF743FF16E03B68DBB26B
:102BA0006C3BDBB200211846FFF710FDFFF738FF42
:102BB0000BE03B68DBB22C3BDBB200211846FFF791
:102BC00005FDFFF72DFF00E000BF00BF0837BD4641
:102BD00080BD00BF80B582B000AF0D4B1B681B6984
:102BE00003F008037B600B4B1B687A6853403B6023
:102BF0003A687B6813403B603B68002B01D0FFF7CD
:102C00004BFC044A7B68136000BF0837BD4680BD9B
:102C1000D4060020D806002080B582B000AF7860CE
:102C2000984B00221A60984B00221A6097494FF087
:102C300000024FF00003C1E90023954B954A1A604A
:102C4000934B954A5A60924B944A9A60904B944A9F
:102C5000DA608F4B934A1A618D4B934A5A618C4BC1
:102C6000924A9A618A4B924ADA61894B914A1A6276
:102C7000874B914A5A62864B904A9A62844B904A9B
:102C8000DA62834B8F4A1A63814B8F4A5A63804BB7
:102C90008E4A9A637E4B8E4ADA637D4B8D4A1A6464
:102CA0007B4B8D4A5A647A4B8C4A9A64784B8C4A97
:102CB000DA64774B8B4A1A65754B8B4A5A65744BAD
:102CC0008A4A9A65724B8A4ADA65714B894A1A6652
:102CD0006F4B894A5A666E4B884A9A666C4B884A93
:102CE000DA666B4B874A1A67694B874A5A67684BA3
:102CF000864A9A67664B864ADA67654B854AC3F807
:102D00008020634B844AC3F88420614B834AC3F814
:102D100088205F4B824AC3F88C205D4B814AC3F800
:102D200090205B4B804AC3F89420594B7F4AC3F8EC
:102D30009820574B7E4AC3F89C20554B7D4AC3F8D8
:102D4000A020534B7C4AC3F8A420514B7B4AC3F8C4
:102D5000A8204F4B7A4AC3F8AC204D4B794AC3F8B0
:102D6000B0204B4B784AC3F8B420494B774AC3F89C
:102D7000B820474B764AC3F8BC20454B754AC3F888
:102D8000C020434B744AC3F8C420414B734AC3F874
:102D9000C8203F4B724AC3F8CC203D4B714AC3F860
:102DA000D0203B4B704AC3F8D420394B6F4AC3F84C
:102DB000D820374B6E4AC3F8DC20354B6D4AC3F838
:102DC000E020334B6C4AC3F8E420314B6B4AC3F824
:102DD000E8202F4B6A4AC3F8EC202D4B694AC3F810
:102DE000F0202B4B684AC3F8F420294B674AC3F8FC
:102DF000F820274B664AC3F8FC20254B654AC3F8E8
:102E00000021234B644AC3F80421214B634AC3F8D1
:102E100008211F4B624AC3F80C211D4B614AC3F8BD
:102E200010211B4B604AC3F81421194B5F4AC3F8A9
:102E30001821174B5E4AC3F81C21154B5D4AC3F895
:102E40002021134B5C4AC3F82421114B5B4AC3F881
:102E500028210F4B5A4AC3F82C210D4B594AC3F86D
:102E600030210B4B584AC3F83421094B574AC3F859
:102E70003821074B564AC3F83C21054B554AC3F845
:102E80004021A9E078080020880800209808002048
:102E9000DC060020003C0240003002400070004090
:102EA0000038024029310008E53100086D32000881
:102EB00029330008AD3300084D36000800000240F9
:102EC00099390008413A0008E93A0008913B0008A6
:102ED000B53B0008D93B000800040240B93C00089B
:102EE000613D0008093E0008B13E0008D53E0008DB
:102EF000F93E000800080240D93F00088140000860
:102F000029410008D1410008F54100081942000894
:102F1000000C0240F9420008A1430008494400089F
:102F2000F14400081545000839450008001002402A
:102F300019460008D14600088947000841480008A2
:102F40006548000889480008001C024079490008CB
:102F5000314A0008E94A0008A14B0008C54B0008A7
:102F6000E94B000800280040D94C0008CD5000086B
:102F70004D500008E94F0008694F0008BD4D00089A
:102F80004D4E0008DD4E0008B1510008DD5200082A
:102F900049510008003801400060024000640240CE
:102FA00000E100E010E000E0E95D00085D5E00087F
:102FB000004001400020014009540008A1540008CD
:102FC000C9540008F15400082D550008895500081F
:102FD000C1550008002301402D4B2E4AC3F844215F
:102FE0002B4B2D4AC3F84821294B2C4AC3F84C21BE
:102FF000274B2B4AC3F85021254B2A4AC3F85421AA
:10300000234B294AC3F85821214B284AC3F85C2195
:103010001F4B274AC3F860211D4B264AC3F8642181
:103020001B4B254AC3F86821194B244AC3F86C216D
:10303000174B234AC3F87021154B224AC3F8742159
:10304000134B214AC3F87821114B204AC3F87C2145
:103050000F4B1F4AC3F880210D4B1E4AC3F8842131
:103060000B4B1D4AC3F88821094B1C4AC3F88C211D
:1030700002F098FE7B68064A184611464FF4C87362
:103080001A4602F05FFF78680837BD4680BD00BF72
:10309000DC06002000100140E9550008E13000087E
:1030A0005D59000891590008D5590008815A000857
:1030B0002D5B0008515B0008755B0008AD5B0008E4
:1030C000E55B0008CD3700081F38000843380008CA
:1030D0005F380008B3380008D9380008F93800080C
:1030E00080B584B002AF0023019300230093002336
:1030F00000220021002000F0A9FA00230122012172
:10310000012000F053F9002000F00EF8002000F03C
:1031100069F80346FB71022000F0A8F8FB79184615
:103120000837BD4680BD000080B485B000AF786030
:103130000123FB600123BB6048E07B68002B17D1B3
:10314000FB68002B0AD0264BDB681A68244BDB682F
:1031500042F001021A600023FB6037E0204BDB687D
:103160001B6803F00203002B30D00023BB602DE06E
:103170007B68012B17D1FB68002B0AD0184BDB684A
:103180001A68174BDB6842F480321A600023FB6038
:103190001CE0134BDB681B6803F40033002B15D0D5
:1031A0000023BB6012E07B68022B0DD1FB68002B73
:1031B00007D00B4BDB681A68094BDB6842F48022AE
:1031C0001A6001237B6001E000237B60BB68002B59
:1031D000B3D100BF00BF1437BD465DF8047B704714
:1031E000DC06002080B483B000AF0346FB711E4BA9
:1031F000DB689A681C4BDB6822F003029A60FB795B
:10320000032B18D0032B1FDC012B02D0022B09D07B
:103210001AE0154BDB689A68134BDB6842F0010239
:103220009A6012E0104BDB689A680F4BDB6842F043
:1032300002029A6009E00C4BDB689A680A4BDB6873
:1032400042F003029A6000E000BF074BDB689B6816
:103250009B08DBB203F00303DBB218460C37BD4614
:103260005DF8047B704700BFDC06002080B485B0A9
:1032700000AF78600123FB600123BB6048E07B68FE
:10328000022B17D1FB68002B0AD0264BDB685A6F44
:10329000244BDB6842F001025A670023FB6037E0F1
:1032A000204BDB685B6F03F00203002B30D0002360
:1032B000BB602DE07B68012B17D1FB68002B0AD087
:1032C000184BDB681A6F174BDB6842F001021A6774
:1032D0000023FB601CE0134BDB681B6F03F0020351
:1032E000002B15D00023BB6012E07B68042B0DD1AE
:1032F000FB68002B07D00B4BDB681A6F094BDB68B0
:1033000042F004021A6701237B6001E002237B6024
:10331000BB68002BB3D100BF00BF1437BD465DF8BA
:10332000047B7047DC06002080B483B000AF034606
:10333000FB711D4BDB681A6F1B4BDB6822F440727C
:103340001A67FB79032B17D0032B1EDC012B0AD045
:10335000022B1AD1144BDB681A6F134BDB6842F453
:1033600000721A671AE0104BDB681A6F0E4BDB68AD
:1033700042F480721A6711E00B4BDB681A6F0A4B3C
:10338000DB6842F440721A6708E0074BDB681A6F8B
:10339000054BDB6842F480721A6700BF00BF0C3730
:1033A000BD465DF8047B7047DC06002080B487B022
:1033B00000AFF860B9607A603B60A24B7B61A24BC2
:1033C000DB6899687B69DA439F4BDB680A409A6047
:1033D0003B68012B0BD93B681F2B08D89A4BDB6845
:1033E00099683B681A04984BDB680A439A607B68CB
:1033F000023B0E2B44D801A252F823F039340008C6
:10340000813400084B3400088134000881340008FE
:10341000813400085D3400088134000881340008DC
:1034200081340008813400088134000881340008A8
:10343000813400086F340008834BDB689A68824B44
:10344000DB6842F400429A601BE07F4BDB689A68BD
:103450007D4BDB6842F420429A6012E07A4BDB68D5
:103460009A68794BDB6842F440429A6009E0764BF7
:10347000DB689A68744BDB6842F460429A6000E053
:1034800000BFBB68023B0E2B44D801A252F823F0C8
:10349000CD34000815350008DF3400081535000864
:1034A0001535000815350008F134000815350008F9
:1034B00015350008153500081535000815350008C4
:1034C0001535000815350008033500085E4BDB682C
:1034D0009A685D4BDB6842F480529A601BE05A4B5D
:1034E000DB689A68584BDB6842F4A0529A6012E09D
:1034F000554BDB689A68544BDB6842F4C0529A60C3
:1035000009E0514BDB689A684F4BDB6842F4E052AC
:103510009A6000E000BFFB68B3F5007F00F0818097
:10352000FB68B3F5007F00F28580FB68B3F5807F10
:103530006ED0FB68B3F5807F7CD8FB68802B5ED0B3
:10354000FB68802B76D8FB68102B27D8FB68022BF2
:1035500070D3FB68023B0E2B6CD801A252F823F00B
:10356000A535000835360008B7350008353600089F
:103570003536000835360008C935000835360008EC
:10358000353600083536000835360008353600086F
:103590003536000835360008DB350008FB68402B5F
:1035A00024D047E0284BDB689A68274BDB6842F061
:1035B00080029A603FE0244BDB689A68224BDB680C
:1035C00042F090029A6036E01F4BDB689A681E4B0F
:1035D000DB6842F0A0029A602DE01B4BDB689A6822
:1035E000194BDB6842F0B0029A6024E0164BDB68AE
:1035F0009A68154BDB6842F0C0029A601BE0124BE0
:10360000DB689A68104BDB6842F0D0029A6012E0E7
:103610000D4BDB689A680C4BDB6842F0E0029A6065
:1036200009E0094BDB689A68074BDB6842F0F0025F
:103630009A6000E000BF00BF1C37BD465DF8047B08
:10364000704700BFF0FC1F00DC06002080B487B08C
:1036500000AFF860B9607A603B605A4B7B615A4BAF
:10366000DB685968584BDB687A690A435A603B68E3
:10367000012B0FD93B68072B0CD8534BDB685968DB
:103680007B6923F0E0423B681B071A434E4BDB6823
:103690000A405A603B6A012B0FD93B6A0F2B0CD8AA
:1036A000494BDB6859687B6923F070623B6A1B06F3
:1036B0001A43454BDB680A405A60FB68012B0CD16A
:1036C000414BDB6859687B6923F48002FB689B05EA
:1036D0001A433D4BDB680A405A607B6A023B062B6B
:1036E00040D801A252F823F00537000865370008DA
:1036F0001B370008653700083537000865370008B4
:103700004F370008304BDB685A687B691A402E4BF4
:10371000DB6822F440325A6025E02B4BDB685968A5
:103720007B6923F4403343F48032274BDB680A4043
:103730005A6018E0244BDB6859687B6923F44033F6
:1037400043F40032204BDB680A405A600BE01E4B0A
:10375000DB6859687B6943F440321B4BDB680A40E5
:103760005A6000E000BF7B68312B12D97B68B3F54B
:10377000D87F0ED8144BDB6859687B6923F4FF436C
:1037800023F040037A6892011A430F4BDB680A402A
:103790005A60BB68012B0ED9BB683F2B0BD80A4B74
:1037A000DB6859687B6923F47C62BB681A43064B6B
:1037B000DB680A405A6000BF1C37BD465DF8047BD9
:1037C000704700BFFF7F437FDC0600200EB480B44B
:1037D00084B000AF78607B69002B19DD7B69202BFA
:1037E00016DC07F11803BB600023FB730CE0BB6819
:1037F0001A1DBA601B68012202FA03F31A467B689D
:103800009A61FB7B0133FB73FB7B7A699A42EEDCA6
:1038100000BF1037BD465DF8047B03B0704780B42D
:1038200083B000AF7860396001223B6802FA03F38D
:103830001A467B689A6100BF0C37BD465DF8047B71
:10384000704780B483B000AF786039603A687B68B5
:103850009A6100BF0C37BD465DF8047B70470EB41B
:1038600080B484B000AF78607B69002B1ADD7B697F
:10387000202B17DC07F11803BB600023FB730DE05E
:10388000BB681A1DBA601B68012202FA03F31B040D
:103890001A467B689A61FB7B0133FB73FB7B7A6979
:1038A0009A42EDDC00BF1037BD465DF8047B03B0E3
:1038B000704780B483B000AF7860396001223B6804
:1038C00002FA03F31B041A467B689A6100BF0C37A7
:1038D000BD465DF8047B704780B483B000AF78606C
:1038E00039603B681B041A467B689A6100BF0C373D
:1038F000BD465DF8047B704780B586B000AFF860C8
:10390000B9607A603B60F868FCF71CFE02460B4623
:1039100043EC112B9FED1C0B07F08CF851EC100BB6
:103920004FF000021A4BFCF7CFFC02460B46104644
:103930001946FDF759F903467B617A687B691340A4
:103940007B60BB681A683B68F96801FB03F379691F
:1039500001FA03F3DB431A40BB681A60BB681A68BC
:103960003B68F96801FB03F3796801FA03F31A4332
:10397000BB681A60BB681A68BB681A6000BF18375A
:10398000BD4680BDAFF30080000000000000004095
:103990000000F03F0000000080B584B000AF786008
:1039A00039600223FB60F868FCF7CCFD02460B4649
:1039B00043EC112B9FED1E0B07F03CF851EC100B64
:1039C0004FF000021C4BFCF77FFC02460B461046F2
:1039D0001946FDF709F90346BB607A68BB681340D6
:1039E0007B60164B9B6A19683B68FA6802FB03F31D
:1039F000BA6802FA03F3DA43104B9B6A0A401A6072
:103A00000E4B9B6A19683B68FA6802FB03F37A68FD
:103A10009A400A4B9B6A0A431A60084B9A6A074B02
:103A20009B6A12681A6000BF1037BD4680BD00BF98
:103A300000000000000000400000F03FDC06002015
:103A400080B584B000AF786039600223FB60F8680D
:103A5000FCF778FD02460B4643EC112B9FED1E0B45
:103A600006F0E8FF51EC100B4FF000021C4BFCF786
:103A70002BFC02460B4610461946FDF7B5F80346E7
:103A8000BB607A68BB6813407B60164B9B6A996881
:103A90003B68FA6802FB03F3BA6802FA03F3DA43FD
:103AA000104B9B6A0A409A600E4B9B6A99683B6870
:103AB000FA6802FB03F37A689A400A4B9B6A0A434E
:103AC0009A60084B9A6A074B9B6A92689A6000BF9B
:103AD0001037BD4680BD00BF000000000000004060
:103AE0000000F03FDC06002080B584B000AF7860B5
:103AF00039600223FB60F868FCF724FD02460B46A0
:103B000043EC112B9FED1E0B06F094FF51EC100BB4
:103B10004FF000021C4BFCF7D7FB02460B46104649
:103B20001946FDF761F80346BB607A68BB6813402D
:103B30007B60164B9B6AD9683B68FA6802FB03F30B
:103B4000BA6802FA03F3DA43104B9B6A0A40DA6060
:103B50000E4B9B6AD9683B68FA6802FB03F37A68EC
:103B60009A400A4B9B6A0A43DA60084B9A6A074BF1
:103B70009B6AD268DA6000BF1037BD4680BD00BFC7
:103B800000000000000000400000F03FDC060020C4
:103B900080B483B000AF7860054B9B6A7A681204EA
:103BA0009A6100BF0C37BD465DF8047B704700BFCB
:103BB000DC06002080B483B000AF7860044B9B6AC1
:103BC0007A689A6100BF0C37BD465DF8047B704788
:103BD000DC0600200000000080B586B000AF7860F1
:103BE000396004237B617869FCF7ACFC02460B4624
:103BF00043EC112B9FED2C0B06F01CFF51EC100B2E
:103C00004FF000022A4BFCF75FFB02460B461046C2
:103C10001946FCF7E9FF03463B6120227B69B2FBB2
:103C2000F3F33A68B2FBF3F3FB607A683B69134045
:103C30007B60FB68012B33D81E4B9B6AFA68083205
:103C400053F822103B687A6902FB03F33A6902FADF
:103C500003F3DA43174B9B6A1140FA68083243F8C2
:103C60002210144B9B6AFA68083253F822103B6802
:103C70007A6902FB03F37A689A400E4B9B6A114300
:103C8000FA68083243F822100A4B9A6A094B9B6A79
:103C9000F968083152F82110FA68083243F8221006
:103CA00000BF1837BD4680BD000000000000004086
:103CB0000000F03FDC06002080B584B000AF7860E3
:103CC00039600223FB60F868FCF73CFC02460B46B7
:103CD00043EC112B9FED1E0B06F0ACFE51EC100BCC
:103CE0004FF000021C4BFCF7EFFA02460B46104661
:103CF0001946FCF779FF0346BB607A68BB6813403E
:103D00007B60164B5B6C19683B68FA6802FB03F337
:103D1000BA6802FA03F3DA43104B5B6C0A401A608C
:103D20000E4B5B6C19683B68FA6802FB03F37A6818
:103D30009A400A4B5B6C0A431A60084B5A6C074B5B
:103D40005B6C12681A6000BF1037BD4680BD00BFB3
:103D500000000000000000400000F03FDC060020F2
:103D600080B584B000AF786039600223FB60F868EA
:103D7000FCF7E8FB02460B4643EC112B9FED1E0BB4
:103D800006F058FE51EC100B4FF000021C4BFCF7F4
:103D90009BFA02460B4610461946FCF725FF0346E0
:103DA000BB607A68BB6813407B60164B5B6C99689C
:103DB0003B68FA6802FB03F3BA6802FA03F3DA43DA
:103DC000104B5B6C0A409A600E4B5B6C99683B68C9
:103DD000FA6802FB03F37A689A400A4B5B6C0A4369
:103DE0009A60084B5A6C074B5B6C92689A6000BFF4
:103DF0001037BD4680BD00BF00000000000000403D
:103E00000000F03FDC06002080B584B000AF786091
:103E100039600223FB60F868FCF794FB02460B460E
:103E200043EC112B9FED1E0B06F004FE51EC100B22
:103E30004FF000021C4BFCF747FA02460B461046B7
:103E40001946FCF7D1FE0346BB607A68BB68134095
:103E50007B60164B5B6CD9683B68FA6802FB03F326
:103E6000BA6802FA03F3DA43104B5B6C0A40DA607B
:103E70000E4B5B6CD9683B68FA6802FB03F37A6807
:103E80009A400A4B5B6C0A43DA60084B5A6C074B4A
:103E90005B6CD268DA6000BF1037BD4680BD00BFE2
:103EA00000000000000000400000F03FDC060020A1
:103EB00080B483B000AF7860054B5B6C7A68120405
:103EC0009A6100BF0C37BD465DF8047B704700BFA8
:103ED000DC06002080B483B000AF7860044B5B6CDC
:103EE0007A689A6100BF0C37BD465DF8047B704765
:103EF000DC0600200000000080B586B000AF7860CE
:103F0000396004237B617869FCF71CFB02460B4691
:103F100043EC112B9FED2C0B06F08CFD51EC100B9C
:103F20004FF000022A4BFCF7CFF902460B46104631
:103F30001946FCF759FE03463B6120227B69B2FB20
:103F4000F3F33A68B2FBF3F3FB607A683B69134022
:103F50007B60FB68012B33D81E4B5B6CFA68083220
:103F600053F822103B687A6902FB03F33A6902FABC
:103F700003F3DA43174B5B6C1140FA68083243F8DD
:103F80002210144B5B6CFA68083253F822103B681D
:103F90007A6902FB03F37A689A400E4B5B6C11431B
:103FA000FA68083243F822100A4B5A6C094B5B6CD2
:103FB000F968083152F82110FA68083243F82210E3
:103FC00000BF1837BD4680BD000000000000004063
:103FD0000000F03FDC06002080B584B000AF7860C0
:103FE00039600223FB60F868FCF7ACFA02460B4626
:103FF00043EC112B9FED1E0B06F01CFD51EC100B3A
:104000004FF000021C4BFCF75FF902460B461046CE
:104010001946FCF7E9FD0346BB607A68BB681340AC
:104020007B60164B1B6E19683B68FA6802FB03F352
:10403000BA6802FA03F3DA43104B1B6E0A401A60A7
:104040000E4B1B6E19683B68FA6802FB03F37A6833
:104050009A400A4B1B6E0A431A60084B1A6E074BB4
:104060001B6E12681A6000BF1037BD4680BD00BFCE
:1040700000000000000000400000F03FDC060020CF
:1040800080B584B000AF786039600223FB60F868C7
:10409000FCF758FA02460B4643EC112B9FED1E0B22
:1040A00006F0C8FC51EC100B4FF000021C4BFCF763
:1040B0000BF902460B4610461946FCF795FD0346E0
:1040C000BB607A68BB6813407B60164B1B6E9968B7
:1040D0003B68FA6802FB03F3BA6802FA03F3DA43B7
:1040E000104B1B6E0A409A600E4B1B6E99683B6822
:1040F000FA6802FB03F37A689A400A4B1B6E0A4384
:104100009A60084B1A6E074B1B6E92689A6000BF4C
:104110001037BD4680BD00BF000000000000004019
:104120000000F03FDC06002080B584B000AF78606E
:1041300039600223FB60F868FCF704FA02460B467C
:1041400043EC112B9FED1E0B06F074FC51EC100B91
:104150004FF000021C4BFCF7B7F802460B46104626
:104160001946FCF741FD0346BB607A68BB68134003
:104170007B60164B1B6ED9683B68FA6802FB03F341
:10418000BA6802FA03F3DA43104B1B6E0A40DA6096
:104190000E4B1B6ED9683B68FA6802FB03F37A6822
:1041A0009A400A4B1B6E0A43DA60084B1A6E074BA3
:1041B0001B6ED268DA6000BF1037BD4680BD00BFFD
:1041C00000000000000000400000F03FDC0600207E
:1041D00080B483B000AF7860054B1B6E7A68120420
:1041E0009A6100BF0C37BD465DF8047B704700BF85
:1041F000DC06002080B483B000AF7860044B1B6EF7
:104200007A689A6100BF0C37BD465DF8047B704741
:10421000DC0600200000000080B586B000AF7860AA
:10422000396004237B617869FCF78CF902460B4600
:1042300043EC112B9FED2C0B06F0FCFB51EC100B0B
:104240004FF000022A4BFCF73FF802460B4610469F
:104250001946FCF7C9FC03463B6120227B69B2FB8F
:10426000F3F33A68B2FBF3F3FB607A683B691340FF
:104270007B60FB68012B33D81E4B1B6EFA6808323B
:1042800053F822103B687A6902FB03F33A6902FA99
:1042900003F3DA43174B1B6E1140FA68083243F8F8
:1042A0002210144B1B6EFA68083253F822103B6838
:1042B0007A6902FB03F37A689A400E4B1B6E114336
:1042C000FA68083243F822100A4B1A6E094B1B6E2B
:1042D000F968083152F82110FA68083243F82210C0
:1042E00000BF1837BD4680BD000000000000004040
:1042F0000000F03FDC06002080B584B000AF78609D
:1043000039600223FB60F868FCF71CF902460B4693
:1043100043EC112B9FED1E0B06F08CFB51EC100BA8
:104320004FF000021C4BFBF7CFFF02460B46104636
:104330001946FCF759FC0346BB607A68BB6813401A
:104340007B60164BDB6F19683B68FA6802FB03F36E
:10435000BA6802FA03F3DA43104BDB6F0A401A60C3
:104360000E4BDB6F19683B68FA6802FB03F37A684F
:104370009A400A4BDB6F0A431A60084BDA6F074B0F
:10438000DB6F12681A6000BF1037BD4680BD00BFEA
:1043900000000000000000400000F03FDC060020AC
:1043A00080B584B000AF786039600223FB60F868A4
:1043B000FCF7C8F802460B4643EC112B9FED1E0B91
:1043C00006F038FB51EC100B4FF000021C4BFBF7D2
:1043D0007BFF02460B4610461946FCF705FC0346D8
:1043E000BB607A68BB6813407B60164BDB6F9968D3
:1043F0003B68FA6802FB03F3BA6802FA03F3DA4394
:10440000104BDB6F0A409A600E4BDB6F99683B687C
:10441000FA6802FB03F37A689A400A4BDB6F0A439F
:104420009A60084BDA6F074BDB6F92689A6000BFA7
:104430001037BD4680BD00BF0000000000000040F6
:104440000000F03FDC06002080B584B000AF78604B
:1044500039600223FB60F868FCF774F802460B46EB
:1044600043EC112B9FED1E0B06F0E4FA51EC100B00
:104470004FF000021C4BFBF727FF02460B4610468D
:104480001946FCF7B1FB0346BB607A68BB68134072
:104490007B60164BDB6FD9683B68FA6802FB03F35D
:1044A000BA6802FA03F3DA43104BDB6F0A40DA60B2
:1044B0000E4BDB6FD9683B68FA6802FB03F37A683E
:1044C0009A400A4BDB6F0A43DA60084BDA6F074BFE
:1044D000DB6FD268DA6000BF1037BD4680BD00BF19
:1044E00000000000000000400000F03FDC0600205B
:1044F00080B483B000AF7860054BDB6F7A6812043C
:104500009A6100BF0C37BD465DF8047B704700BF61
:10451000DC06002080B483B000AF7860044BDB6F12
:104520007A689A6100BF0C37BD465DF8047B70471E
:10453000DC0600200000000080B586B000AF786087
:10454000396004237B617869FBF7FCFF02460B4668
:1045500043EC112B9FED2C0B06F06CFA51EC100B79
:104560004FF000022A4BFBF7AFFE02460B46104607
:104570001946FCF739FB03463B6120227B69B2FBFD
:10458000F3F33A68B2FBF3F3FB607A683B691340DC
:104590007B60FB68012B33D81E4BDB6FFA68083257
:1045A00053F822103B687A6902FB03F33A6902FA76
:1045B00003F3DA43174BDB6F1140FA68083243F814
:1045C0002210144BDB6FFA68083253F822103B6854
:1045D0007A6902FB03F37A689A400E4BDB6F114352
:1045E000FA68083243F822100A4BDA6F094BDB6F86
:1045F000F968083152F82110FA68083243F822109D
:1046000000BF1837BD4680BD00000000000000401C
:104610000000F03FDC06002080B584B000AF786079
:1046200039600223FB60F868FBF78CFF02460B46FB
:1046300043EC112B9FED220B06F0FCF951EC100B13
:104640004FF00002204BFBF73FFE02460B461046A0
:104650001946FCF7C9FA0346BB607A68BB68134089
:104660007B601A4BD3F8983019683B68FA6802FBF4
:1046700003F3BA6802FA03F3DA43144BD3F8983021
:104680000A401A60114BD3F8983019683B68FA68F1
:1046900002FB03F37A689A400C4BD3F898300A4334
:1046A0001A600A4BD3F89820084BD3F89830126858
:1046B0001A6000BF1037BD4680BD00BFAFF3008059
:1046C00000000000000000400000F03FDC06002079
:1046D00080B584B000AF786039600223FB60F86871
:1046E000FBF730FF02460B4643EC112B9FED220BEC
:1046F00006F0A0F951EC100B4FF00002204BFBF735
:10470000E3FD02460B4610461946FCF76DFA0346D8
:10471000BB607A68BB6813407B601A4BD3F8983053
:1047200099683B68FA6802FB03F3BA6802FA03F37C
:10473000DA43144BD3F898300A409A60114BD3F8FF
:10474000983099683B68FA6802FB03F37A689A40EC
:104750000C4BD3F898300A439A600A4BD3F8982050
:10476000084BD3F8983092689A6000BF1037BD4666
:1047700080BD00BFAFF300800000000000000040DB
:104780000000F03FDC06002080B584B000AF786008
:1047900039600223FB60F868FBF7D4FE02460B4643
:1047A00043EC112B9FED220B06F044F951EC100B5A
:1047B0004FF00002204BFBF787FD02460B461046E8
:1047C0001946FCF711FA0346BB607A68BB681340D0
:1047D0007B601A4BD3F89830D9683B68FA6802FBC3
:1047E00003F3BA6802FA03F3DA43144BD3F89830B0
:1047F0000A40DA60114BD3F89830D9683B68FA6800
:1048000002FB03F37A689A400C4BD3F898300A43C2
:10481000DA600A4BD3F89820084BD3F89830D26866
:10482000DA6000BF1037BD4680BD00BFAFF3008027
:1048300000000000000000400000F03FDC06002007
:1048400080B483B000AF7860054BD3F898307A68B5
:1048500012049A6100BF0C37BD465DF8047B7047B7
:10486000DC06002080B483B000AF7860054BD3F83D
:1048700098307A689A6100BF0C37BD465DF8047BBA
:10488000704700BFDC06002080B586B000AF7860BE
:10489000396004237B617869FBF754FE02460B46BE
:1048A00043EC112B9FED300B06F0C4F851EC100BCC
:1048B0004FF000022E4BFBF707FD02460B46104659
:1048C0001946FCF791F903463B6120227B69B2FB54
:1048D000F3F33A68B2FBF3F3FB607A683B69134089
:1048E0007B60FB68012B39D8224BD3F89830FA68EB
:1048F000083253F822103B687A6902FB03F33A69E5
:1049000002FA03F3DA431B4BD3F898301140FA68EC
:10491000083243F82210174BD3F89830FA6808325F
:1049200053F822103B687A6902FB03F37A689A40D5
:10493000104BD3F898301143FA68083243F822102C
:104940000C4BD3F898200B4BD3F89830F96808310A
:1049500052F82110FA68083243F8221000BF1837C5
:10496000BD4680BDAFF300800000000000000040A5
:104970000000F03FDC06002080B584B000AF786016
:1049800039600223FB60F868FBF7DCFD02460B464A
:1049900043EC112B9FED220B06F04CF851EC100B61
:1049A0004FF00002204BFBF78FFC02460B461046EF
:1049B0001946FCF719F90346BB607A68BB681340D7
:1049C0007B601A4BD3F8B43019683B68FA6802FB75
:1049D00003F3BA6802FA03F3DA43144BD3F8B430A2
:1049E0000A401A60114BD3F8B43019683B68FA6872
:1049F00002FB03F37A689A400C4BD3F8B4300A43B5
:104A00001A600A4BD3F8B420084BD3F8B4301268BC
:104A10001A6000BF1037BD4680BD00BFAFF30080F5
:104A200000000000000000400000F03FDC06002015
:104A300080B584B000AF786039600223FB60F8680D
:104A4000FBF780FD02460B4643EC112B9FED220B3A
:104A500005F0F0FF51EC100B4FF00002204BFBF77C
:104A600033FC02460B4610461946FCF7BDF80346D8
:104A7000BB607A68BB6813407B601A4BD3F8B430D4
:104A800099683B68FA6802FB03F3BA6802FA03F319
:104A9000DA43144BD3F8B4300A409A60114BD3F880
:104AA000B43099683B68FA6802FB03F37A689A406D
:104AB0000C4BD3F8B4300A439A600A4BD3F8B420B5
:104AC000084BD3F8B43092689A6000BF1037BD46E7
:104AD00080BD00BFAFF30080000000000000004078
:104AE0000000F03FDC06002080B584B000AF7860A5
:104AF00039600223FB60F868FBF724FD02460B4691
:104B000043EC112B9FED220B05F094FF51EC100BA1
:104B10004FF00002204BFBF7D7FB02460B46104636
:104B20001946FCF761F80346BB607A68BB6813401E
:104B30007B601A4BD3F8B430D9683B68FA6802FB43
:104B400003F3BA6802FA03F3DA43144BD3F8B43030
:104B50000A40DA60114BD3F8B430D9683B68FA6880
:104B600002FB03F37A689A400C4BD3F8B4300A4343
:104B7000DA600A4BD3F8B420084BD3F8B430D268CB
:104B8000DA6000BF1037BD4680BD00BFAFF30080C4
:104B900000000000000000400000F03FDC060020A4
:104BA00080B483B000AF7860054BD3F8B4307A6836
:104BB00012049A6100BF0C37BD465DF8047B704754
:104BC000DC06002080B483B000AF7860054BD3F8DA
:104BD000B4307A689A6100BF0C37BD465DF8047B3B
:104BE000704700BFDC06002080B586B000AF78605B
:104BF000396004237B617869FBF7A4FC02460B460D
:104C000043EC112B9FED300B05F014FF51EC100B12
:104C10004FF000022E4BFBF757FB02460B461046A7
:104C20001946FBF7E1FF03463B6120227B69B2FB9B
:104C3000F3F33A68B2FBF3F3FB607A683B69134025
:104C40007B60FB68012B39D8224BD3F8B430FA686B
:104C5000083253F822103B687A6902FB03F33A6981
:104C600002FA03F3DA431B4BD3F8B4301140FA686D
:104C7000083243F82210174BD3F8B430FA680832E0
:104C800053F822103B687A6902FB03F37A689A4072
:104C9000104BD3F8B4301143FA68083243F82210AD
:104CA0000C4BD3F8B4200B4BD3F8B430F96808316F
:104CB00052F82110FA68083243F8221000BF183762
:104CC000BD4680BDAFF30080000000000000004042
:104CD0000000F03FDC06002080B584B000AF034642
:104CE000FB71FF23FB73324BD3F8D0301B68314A82
:104CF00013602F4BD3F8D0305B682F4A1360FB79D9
:104D0000184601F027F80346FB73294BDB681A6F3E
:104D1000274BDB6842F400421A67254BD3F8D030AA
:104D20005A6A234BD3F8D03042F0CA025A62204B61
:104D3000D3F8D0305A6A1E4BD3F8D03042F0530229
:104D40005A621B4BD3F8D030DA68194BD3F8D03005
:104D500042F08002DA6000BF154BD3F8D030DB6838
:104D600003F04003002BF7D00623FB73104BD3F85E
:104D7000D0309A680E4BD3F8D03022F020029A60DF
:104D80000B4BD3F8D030DA68094BD3F8D03022F08F
:104D90008002DA60064B9B681A68054B9B6822F418
:104DA00080721A60FB7B18461037BD4680BD00BF7D
:104DB000DC060020700800207408002080B584B054
:104DC00000AF0346FB714FF47C13FB60FB791C4A78
:104DD000A2FB0323DB08DBB2184600F0D9FD034633
:104DE000FB72FA79164BA3FB0213D9080B469B0002
:104DF0000B445B00D31ADBB2184600F0C9FD034632
:104E0000BB72104BD3F8D0301B680F4A1360FB689D
:104E1000DA430D4B1B6813400B4A1360BB7A1A042C
:104E2000FB7A1B0513431A46074B1B681343064ABC
:104E3000136000F0EBFE00BF1037BD4680BD00BF21
:104E4000CDCCCCCCDC0600207008002080B584B02E
:104E500000AF0346FB714FF4FE43FB60FB791C4A35
:104E6000A2FB0323DB08DBB2184600F091FD0346EA
:104E7000FB72FA79164BA3FB0213D9080B469B0071
:104E80000B445B00D31ADBB2184600F081FD0346E9
:104E9000BB72104BD3F8D0301B680F4A1360FB680D
:104EA000DA430D4B1B6813400B4A1360BB7A1A029E
:104EB000FB7A1B0313431A46074B1B681343064A2E
:104EC000136000F0A3FE00BF1037BD4680BD00BFD9
:104ED000CDCCCCCCDC0600207008002080B584B09E
:104EE00000AF0346FB717F23FB60FB791B4AA2FBEB
:104EF0000323DB08DBB2184600F04AFD0346FB72D1
:104F0000FA79164BA3FB0213D9080B469B000B44FE
:104F10005B00D31ADBB2184600F03AFD0346BB72C1
:104F20000F4BD3F8D0301B680E4A1360FB68DA438E
:104F30000C4B1B6813400B4A1360BA7AFB7A1B01B7
:104F400013431A46074B1B681343064A136000F0CD
:104F50005DFE00BF1037BD4680BD00BFCDCCCCCCC0
:104F6000DC0600207008002080B584B000AF034646
:104F7000FB714FF47F03FB60FB79194AA2FB03230B
:104F8000DB08DBB2184600F003FD0346FB72FA793A
:104F9000134BA3FB0213D9080B469B000B445B0089
:104FA000D31ADBB2184600F0F3FC0346BB72FB6871
:104FB000DA430C4B1B6813400A4A1360BB7A1A048D
:104FC000FB7A1B0513431A46064B1B681343054A1D
:104FD000136000F06DFE00BF1037BD4680BD00BFFE
:104FE000CDCCCCCC7408002080B584B000AF034693
:104FF000FB714FF46023FB60FA79124BA3FB0213A1
:10500000D9080B469B000B445B00D31ADBB2184651
:1050100000F0BEFC0346FB72FB68DA430A4B1B68D8
:105020001340094A1360FB7A5B031A46064B1B6860
:105030001343054A136000F03BFE00BF1037BD4626
:1050400080BD00BFCDCCCCCC7408002080B584B02E
:1050500000AF0346FB714FF4F853FB60FB79194A2C
:10506000A2FB0323DB08DBB2184600F091FC0346E9
:10507000FB72FA79134BA3FB0213D9080B469B0072
:105080000B445B00D31ADBB2184600F081FC0346E8
:10509000BB72FB68DA430C4B1B6813400A4A13606F
:1050A000BB7A1A02FB7A1B0313431A46064B1B6892
:1050B0001343054A136000F0FBFD00BF1037BD46E7
:1050C00080BD00BFCDCCCCCC7408002080B584B0AE
:1050D00000AF0346FB713F23FB60FB79184AA2FB3C
:1050E0000323DB08DBB2184600F052FC0346FB72D8
:1050F000FA79134BA3FB0213D9080B469B000B4410
:105100005B00D31ADBB2184600F042FC0346BB72C8
:10511000FB68DA430B4B1B6813400A4A1360BA7AE8
:10512000FB7A1B0113431A46064B1B681343054ABF
:10513000136000F0BDFD00BF1037BD4680BD00BF4D
:10514000CDCCCCCC7408002080B483B000AF7860A4
:105150003960164B9B681A68144B9B6842F4807246
:105160001A60124BD3F8D0305A6A104BD3F8D030B3
:1051700042F0CA025A620D4BD3F8D0305A6A0B4B38
:10518000D3F8D03042F053025A627B683A681A6012
:10519000064B9B681A68054B9B6822F480721A6064
:1051A00000BF0C37BD465DF8047B7047DC0600206D
:1051B00090B585B000AF7860464BD3F8D0305B68CF
:1051C000FB60FB681B0DDBB203F00F03DAB27B68F8
:1051D0001A707B681B78184600F0C0FB03461A461D
:1051E0007B681A70FB681B0CDAB27B68013302F033
:1051F0000F02D2B21A707B6801331A787B685C1C8C
:10520000104600F0ABFB03462370FB685B0BDAB281
:105210007B68023302F00702D2B21A707B68023355
:105220001A787B689C1C104600F098FB034623709C
:10523000FB681B0BDAB27B68033302F00102D2B2C7
:105240001A707B6803331A787B68DC1C104600F008
:1052500085FB03462370FB681B0ADAB27B680433C4
:1052600002F00F02D2B21A707B6804331A787B689E
:105270001C1D104600F072FB03462370FB681B09DF
:10528000DAB27B68053302F00302D2B21A707B688F
:1052900005331A787B685C1D104600F05FFB0346FF
:1052A0002370FB68DAB27B68063302F00F02D2B2D9
:1052B0001A707B6806331A787B689C1D104600F0D4
:1052C0004DFB03462370044AFB68136000BF14378C
:1052D000BD4690BDDC0600207408002090B585B066
:1052E00000AF7860464BD3F8D0301B68FB60444B6E
:1052F000D3F8D030DB6803F02003002B7BD0FB68B1
:105300001B0DDBB203F00303DAB27B681A707B6813
:105310001B78184600F022FB03461A467B681A7079
:10532000FB681B0CDAB27B68013302F00F02D2B2C9
:105330001A707B6801331A787B685C1C104600F099
:105340000DFB03462370FB681B0BDAB27B6802334C
:1053500002F00702D2B21A707B6802331A787B68B7
:105360009C1C104600F0FAFA03462370FB681B0AE7
:10537000DAB27B68033302F00F02D2B21A707B6894
:1053800003331A787B68DC1C104600F0E7FA03460A
:105390002370FB681B09DAB27B68043302F0070252
:1053A000D2B21A707B6804331A787B681C1D1046D1
:1053B00000F0D4FA03462370FB68DAB27B68053349
:1053C00002F00F02D2B21A707B6805331A787B683C
:1053D0005C1D104600F0C2FA03462370094AFB68C0
:1053E0001360074BD3F8D030DA68054BD3F8D030D0
:1053F00022F02002DA6000BF1437BD4690BD00BF26
:10540000DC0600207008002080B400AF234BDB686E
:105410001A6C224BDB6842F000521A641F4BDB68A7
:105420005A6C1E4BDB6842F480725A641B4BD3F8F3
:1054300020319A68194BD3F8203142F480629A6087
:10544000164BD3F840315A68144BD3F8403142F42C
:1054500040325A60114BD3F82031DA680F4BD3F841
:10546000203142F0E062DA600C4BD3F820315A6808
:105470000A4BD3F8203142F400625A60074BD3F84C
:1054800020315A6B054BD3F8203142F012025A6397
:1054900000BFBD465DF8047B704700BFDC060020FE
:1054A00080B400AF074BD3F840315A68054BD3F8AE
:1054B000403142F480025A6000BFBD465DF8047B73
:1054C000704700BFDC06002080B400AF074BD3F864
:1054D00040315A68054BD3F8403142F400025A601B
:1054E00000BFBD465DF8047B704700BFDC060020AE
:1054F00080B400AF0C4BD3F820319A680A4BD3F834
:10550000203142F001029A60074BD3F820319A68AB
:10551000054BD3F8203142F080429A6000BFBD466F
:105520005DF8047B704700BFDC06002080B500AF4B
:10553000134BD3F840311B6803F00203002B15D046
:105540000F4BD3F82031DB6C1846FAF7FBFF02460D
:105550000B460C49C1E90023094BD3F820311A68E6
:10556000074BD3F8203122F010021A60054BD3E923
:10557000002343EC172BB0EE470AF0EE670A80BD1C
:10558000DC0600209808002080B400AF0B4BD3F855
:1055900040311B6803F01003002B09D1074BD3F8EF
:1055A00020319A68054BD3F8203142F080429A604E
:1055B00000BFBD465DF8047B704700BFDC060020DD
:1055C00080B400AF074BD3F820319A68054BD3F86D
:1055D000203142F001029A6000BFBD465DF8047BB5
:1055E000704700BFDC0600202DE9B04F8EB000AF41
:1055F000034687ED020B3A61FB750B46BB75FB7DDD
:10560000092B0AD1B44BD3F84431DA68B24BD3F842
:10561000443142F48052DA6017E0FB7D082B0AD156
:10562000AD4BD3F84431DA68AB4BD3F8443122F4B4
:105630008052DA6009E0A84BD3F84431DA68A64B0F
:10564000D3F8443122F48052DA60BB7D082B0DD1AF
:10565000082387F83730A04BD3F84431DA689E4BE3
:10566000D3F8443142F40042DA601DE0BB7D102BD8
:105670000DD1102387F83730974BD3F84431DA68CF
:10568000954BD3F8443122F40042DA600CE0102349
:1056900087F83730904BD3F84431DA688E4BD3F823
:1056A000443122F40042DA608B4BD3F844311A695A
:1056B000894BD3F8443122F440521A614FF0000272
:1056C000864BD7E90201FAF7FFFD02460B463A6026
:1056D00023F000437B607EA3D3E90023D7E90001D8
:1056E000FBF71CFA0346002B0AD07B4BD3F844315E
:1056F0001A69794BD3F8443142F480521A6162E05E
:105700004FF00002764BD7E90201FAF7DDFD0246C1
:105710000B46924623F0004B6DA3D3E9002350467D
:105720005946FBF7FBF90346002B0AD06A4BD3F826
:1057300044311A69684BD3F8443122F440521A615B
:1057400041E04FF00002674BD7E90201FAF7BCFDD8
:1057500002460B46904623F000495DA3D3E900239F
:1057600040464946FBF7DAF90346002B0AD05A4B6C
:10577000D3F844311A69584BD3F8443142F44052BB
:105780001A6120E04FF000024FF08043D7E9020198
:10579000FAF79AFD02460B46144623F000454CA347
:1057A000D3E9002320462946FBF7B8F90346002B2E
:1057B00009D0494BD3F844311A69474BD3F84431E7
:1057C00042F400521A61484B1B681846FAF7BAFEB9
:1057D00004460D4697F837303A6902FB03F3184642
:1057E000FAF7B0FE02460B4620462946FBF74EF874
:1057F00002460B46C7E90A2307F11803184697ED3E
:105800000A0B01F02FFA87ED080B334BD3F8443124
:1058100000229A60BB7D102B2BD14FF00002334B3E
:10582000D7E90801FAF708FF02460B4643EC172BAD
:10583000B0EE470AF0EE670A05F0B6F851EC100B2F
:10584000254BD3F84441FBF7CFF90346A360224B25
:10585000D3F844319C68D7E9062310461946FBF774
:10586000C3F903461A011C4BD3F8443122439A6012
:105870006BE0BB7D082B3DD14FF000021C4BD7E9FC
:105880000801FAF7D9FE02460B4643EC172BB0EE9F
:10589000470AF0EE670A05F087F851EC100B0E4B43
:1058A000D3F84441FBF7A0F90346A3600A4BD3F8B1
:1058B00044319C68D7E9062310461946FBF794F952
:1058C00003461A01044BD3F8443122439A603CE06A
:1058D000F168E388B5F8E43EDC0600200000E03F14
:1058E0000000F03F0000F83F0400002000003040BE
:1058F000000020404FF00002164BD7E90801FAF7EC
:105900009BFE02460B4643EC172BB0EE470AF0EE27
:10591000670A05F049F851EC100B0F4BD3F84441DE
:10592000FBF762F90346A3600B4BD3F844319C6844
:10593000D7E9062310461946FBF756F903461A0124
:10594000054BD3F8443122439A6000BF3837BD4637
:10595000BDE8B08F00003040DC06002080B483B08A
:1059600000AF0346FB71FB791B09DBB21A469200BC
:1059700013445B00DAB2FB7903F00F03DBB213448C
:10598000DBB218460C37BD465DF8047B704700005B
:1059900080B483B000AF0346FB71FB790C4AA2FBD5
:1059A0000323DB08DBB21B01D8B2FA79084BA3FB57
:1059B0000213D9080B469B000B445B00D31ADBB2E1
:1059C0000344DBB218460C37BD465DF8047B7047D4
:1059D000CDCCCCCC80B485B000AFF8600B467A60FB
:1059E000FB72264B0022DA60244B1B68002B02D08E
:1059F000012B10D039E0FB7A012202FA03F31A4698
:105A0000FB681340002B2DD01C4A7B6853601B4B56
:105A100001221A6026E0FB7A012202FA03F31A46F9
:105A2000FB681340002B1FD0144A7B689360134B14
:105A30009B685A1C114B5B689A4207D90F4B9A68B6
:105A40000E4B5B68D31A0D4AD36007E00B4B9A6884
:105A50000A4B5B68D31A013B084AD360074B00220C
:105A60001A6001E000BF00E000BF044BDB6818468D
:105A70001437BD465DF8047B704700BF78080020EE
:105A800080B485B000AFF860B9603B601346FB712D
:105A9000254B0022DA60244B1B68002B02D0012B1F
:105AA00010D039E0FB79012202FA03F31A46FB68B1
:105AB0001340002B2DD01C4A3B6853601A4B012227
:105AC0001A6026E0FB79012202FA03F31A46BB684A
:105AD0001340002B1FD0144A3B689360124B9B6805
