:020000040800F2
:1000000000000220D91C0008291D0008291D000835
:10001000291D0008291D0008291D000800000000F6
:10002000000000000000000000000000291D000882
:10003000291D000800000000291D0008255B00089C
:10004000291D0008291D0008291D0008291D000878
:10005000291D0008291D0008291D0008291D000868
:10006000291D0008291D0008291D0008291D000858
:10007000291D0008291D0008291D0008291D000848
:10008000291D0008291D0008291D0008291D000838
:10009000291D0008291D0008291D0008291D000828
:1000A000351A0008291D0008291D0008291D00080F
:1000B000291D0008291D0008291D0008291D000808
:1000C000291D0008291D0008291D0008291D0008F8
:1000D000291D0008291D0008291D0008291D0008E8
:1000E000291D0008291D0008291D0008291D0008D8
:1000F000291D0008291D0008291D0008291D0008C8
:10010000291D0008291D0008291D0008291D0008B7
:10011000291D0008291D0008291D0008291D0008A7
:10012000291D0008291D0008291D0008291D000897
:10013000291D00080000000000000000291D000823
:10014000291D0008291D0008291D0008291D000877
:10015000291D0008291D0008291D0008291D000867
:10016000291D0008291D0008291D0008291D000857
:10017000291D0008291D0008291D00080000000095
:1001800000000000291D0008000000000000000021
:10019000291D00080000000000000000291D0008C3
:1001A000000000000000000000000000291D000801
:1001B000291D0008291D0008291D0008291D000807
:0401C000291D0008ED
:1001D00010B5054C237833B9044B13B10448AFF381
:1001E00000800123237010BDE0010020000000000A
:1001F000BCB4000808B5034B1BB103490348AFF377
:10020000008008BD00000000E4010020BCB400082C
:10021000034613F8012B002AFBD1181A0138704746
:1002200001F0FF01102A2BDB10F0070F08D010F8A7
:10023000013B013A8B422DD010F0070F42B3F6D1AB
:10024000F0B441EA012141EA014122F007047FF0C4
:1002500000070023F0E80256083C85EA010586EA1B
:10026000010685FA47F5A3FA87F586FA47F6A5FA57
:1002700087F68EB9EED1F0BC01F0FF0102F0070263
:1002800032B110F8013B013A83EA010313B1F8D10E
:100290000020704701387047002D06BF35460338EF
:1002A000073815F0010F07D1013015F4807F02BF28
:1002B000013015F4C03F0130F0BC0138704700BF79
:1002C00081F0004102E000BF83F0004330B54FEA07
:1002D00041044FEA430594EA050F08BF90EA020F74
:1002E0001FBF54EA000C55EA020C7FEA645C7FEA07
:1002F000655C00F0E2804FEA5454D4EB5555B8BF2A
:100300006D420CDD2C4480EA020281EA030382EA9A
:10031000000083EA010180EA020281EA0303362D2C
:1003200088BF30BD11F0004F4FEA01314FF4801CFF
:100330004CEA113102D0404261EB410113F0004F11
:100340004FEA03334CEA133302D0524263EB4303C8
:1003500094EA050F00F0A780A4F10104D5F1200E66
:100360000DDB02FA0EFC22FA05F2801841F10001C1
:1003700003FA0EF2801843FA05F359410EE0A5F195
:1003800020050EF1200E012A03FA0EFC28BF4CF0C6
:10039000020C43FA05F3C01851EBE37101F000457C
:1003A00007D54FF0000EDCF1000C7EEB00006EEB89
:1003B0000101B1F5801F1BD3B1F5001F0CD3490813
:1003C0005FEA30004FEA3C0C04F101044FEA44526A
:1003D00012F5800F80F09A80BCF1004F08BF5FEAF1
:1003E000500C50F1000041EB045141EA050130BDD1
:1003F0005FEA4C0C404141EB0101013C28BFB1F5E3
:10040000801FE9D291F0000F04BF01460020B1FA2D
:1004100081F308BF2033A3F10B03B3F120020CDA00
:100420000C3208DD02F1140CC2F10C0201FA0CF0DE
:1004300021FA02F10CE002F11402D8BFC2F1200C43
:1004400001FA02F120FA0CFCDCBF41EA0C019040F9
:10045000E41AA2BF01EB0451294330BD6FEA040442
:100460001F3C1CDA0C340EDC04F11404C4F120022D
:1004700020FA04F001FA02F340EA030021FA04F33F
:1004800045EA030130BDC4F10C04C4F1200220FA96
:1004900002F001FA04F340EA0300294630BD21FAD4
:1004A00004F0294630BD94F0000F83F4801306BF9A
:1004B00081F480110134013D4EE77FEA645C18BF8E
:1004C0007FEA655C29D094EA050F08BF90EA020F25
:1004D00005D054EA000C04BF1946104630BD91EA1D
:1004E000030F1EBF0021002030BD5FEA545C05D120
:1004F0004000494128BF41F0004130BD14F580045F
:100500003CBF01F5801130BD01F0004545F0FE41D2
:1005100041F470014FF0000030BD7FEA645C1ABF07
:10052000194610467FEA655C1CBF0B46024650EA3E
:10053000013406BF52EA033591EA030F41F400216A
:1005400030BD00BF90F0000F04BF0021704730B5F0
:100550004FF4806404F132044FF000054FF00001C5
:1005600050E700BF90F0000F04BF0021704730B586
:100570004FF4806404F1320410F0004548BF40425B
:100580004FF000013EE700BF42004FEAE2014FEAB0
:1005900031014FEA02701FBF12F07F4393F07F4F8B
:1005A00081F06051704732F07F4208BF704793F08E
:1005B0007F4F04BF41F40021704730B54FF46074A1
:1005C00001F0004521F000411CE700BF50EA0102A4
:1005D00008BF704730B54FF000050AE050EA01024D
:1005E00008BF704730B511F0004502D5404261EBBD
:1005F00041014FF4806404F132045FEA915C3FF4FE
:10060000D8AE4FF003025FEADC0C18BF03325FEA9A
:10061000DC0C18BF033202EBDC02C2F1200300FA4B
:1006200003FC20FA02F001FA03FE40EA0E0021FA70
:1006300002F11444BDE600BF70B54FF0FF0C4CF45E
:10064000E06C1CEA11541DBF1CEA135594EA0C0F10
:1006500095EA0C0F00F0DEF82C4481EA030621EA4B
:100660004C5123EA4C5350EA013518BF52EA033586
:1006700041F4801143F4801338D0A0FB02CE4FF038
:100680000005E1FB02E506F00042E0FB03E54FF068
:100690000006E1FB03569CF0000F18BF4EF0010E60
:1006A000A4F1FF04B6F5007F64F5407404D25FEA5C
:1006B0004E0E6D4146EB060642EAC62141EA55510F
:1006C0004FEAC52040EA5E504FEACE2EB4F1FD0C51
:1006D00088BFBCF5E06F1ED8BEF1004F08BF5FEACF
:1006E000500E50F1000041EB045170BD06F0004681
:1006F00046EA010140EA020081EA0301B4EB5C042E
:10070000C2BFD4EB0C0541EA045170BD41F4801125
:100710004FF0000E013C00F3AB8014F1360FDEBF4A
:10072000002001F0004170BDC4F10004203C35DA26
:100730000C341BDC04F11404C4F1200500FA05F3A9
:1007400020FA04F001FA05F240EA020001F000424A
:1007500021F0004110EBD37021FA04F642EB0601C0
:100760005EEA430E08BF20EAD37070BDC4F10C04EA
:10077000C4F1200500FA04F320FA05F001FA04F2AE
:1007800040EA020001F0004110EBD37041F100019A
:100790005EEA430E08BF20EAD37070BDC4F12005A5
:1007A00000FA05F24EEA020E20FA04F301FA05F20D
:1007B00043EA020321FA04F001F0004121FA04F2B5
:1007C00020EA020000EBD3705EEA430E08BF20EA85
:1007D000D37070BD94F0000F0FD101F000464000BF
:1007E00041EB010111F4801F08BF013CF7D041EA41
:1007F000060195F0000F18BF704703F00046520045
:1008000043EB030313F4801F08BF013DF7D043EA15
:100810000603704794EA0C0F0CEA135518BF95EACB
:100820000C0F0CD050EA410618BF52EA4306D1D152
:1008300081EA030101F000414FF0000070BD50EA71
:10084000410606BF1046194652EA430619D094EAFB
:100850000C0F02D150EA013613D195EA0C0F05D1E5
:1008600052EA03361CBF104619460AD181EA030139
:1008700001F0004141F0FE4141F470014FF00000F1
:1008800070BD41F0FE4141F4780170BD70B54FF08C
:10089000FF0C4CF4E06C1CEA11541DBF1CEA13550C
:1008A00094EA0C0F95EA0C0F00F0A7F8A4EB0504EE
:1008B00081EA030E52EA03354FEA013100F08880E5
:1008C0004FEA03334FF0805545EA131343EA1263AE
:1008D0004FEA022245EA111545EA10654FEA002663
:1008E0000EF000419D4208BF964244F1FD0404F51C
:1008F000407402D25B084FEA3202B61A65EB030578
:100900005B084FEA32024FF480104FF4002CB6EB34
:10091000020E75EB030E22BFB61A754640EA0C00B4
:100920005B084FEA3202B6EB020E75EB030E22BFF4
:10093000B61A754640EA5C005B084FEA3202B6EB35
:10094000020E75EB030E22BFB61A754640EA9C00F4
:100950005B084FEA3202B6EB020E75EB030E22BFC4
:10096000B61A754640EADC0055EA060E18D04FEA82
:10097000051545EA16754FEA06164FEAC30343EA22
:1009800052734FEAC2025FEA1C1CC0D111F4801FEF
:100990000BD141EA00014FF000004FF0004CB6E7E8
:1009A00011F4801F04BF01430020B4F1FD0C88BF87
:1009B000BCF5E06F3FF6AFAEB5EB030C04BFB6EB92
:1009C000020C5FEA500C50F1000041EB045170BD85
:1009D0000EF0004E4EEA113114EB5C04C2BFD4EBB2
:1009E0000C0541EA045170BD41F480114FF0000E36
:1009F000013C90E645EA060E8DE60CEA135594EAB2
:100A00000C0F08BF95EA0C0F3FF43BAF94EA0C0FB4
:100A10000AD150EA01347FF434AF95EA0C0F7FF429
:100A200025AF104619462CE795EA0C0F06D152EA7D
:100A300003353FF4FDAE1046194622E750EA410661
:100A400018BF52EA43067FF4C5AE50EA41047FF472
:100A50000DAF52EA43057FF4EBAE12E74FF0FF3CD7
:100A600006E000BF4FF0010C02E000BF4FF0010CA8
:100A70004DF804CD4FEA410C7FEA6C5C4FEA430C21
:100A800018BF7FEA6C5C1BD001B050EA410C0CBF70
:100A900052EA430C91EA030F02BF90EA020F0020D2
:100AA000704710F1000F91EA030F58BF994208BF39
:100AB00090422CBFD8176FEAE37040F001007047F6
:100AC0004FEA410C7FEA6C5C02D150EA013C07D14D
:100AD0004FEA430C7FEA6C5CD6D152EA033CD3D098
:100AE0005DF8040B704700BF8446104662468C4692
:100AF0001946634600E000BF01B5FFF7B7FF0028C5
:100B000048BF10F1000F01BD4DF808EDFFF7F4FFED
:100B10000CBF012000205DF808FB00BF4DF808ED78
:100B2000FFF7EAFF34BF012000205DF808FB00BF9B
:100B30004DF808EDFFF7E0FF94BF012000205DF8BD
:100B400008FB00BF4DF808EDFFF7CEFF94BF012072
:100B500000205DF808FB00BF4DF808EDFFF7C4FF6B
:100B600034BF012000205DF808FB00BF4FEA410CB4
:100B70007FEA6C5C02D150EA013C0AD14FEA430C97
:100B80007FEA6C5C02D152EA033C02D14FF00000D4
:100B900070474FF0010070474FEA410212F5001212
:100BA00015D211D56FF47873B3EB625212D94FEAB4
:100BB000C12343F0004343EA505311F0004F23FA9E
:100BC00002F018BF404270474FF00000704750EAF3
:100BD000013005D111F0004008BF6FF000407047B0
:100BE0004FF00000704700BF4A0011D212F500120A
:100BF00011D20DD56FF47873B3EB62520ED44FEA75
:100C0000C12343F0004343EA505323FA02F07047F4
:100C10004FF00000704750EA013002D14FF0FF3032
:100C200070474FF0000070474FEA4102B2F1E043D5
:100C300024BFB3F5001CDCF1FE5C0DD901F0004CC3
:100C40004FEAC0024CEA5070B2F1004F40EB830013
:100C500008BF20F00100704711F0804F21D113F13F
:100C60003872BCBF01F00040704741F480114FEA78
:100C70005252C2F11802C2F1200C10FA0CF320FA01
:100C800002F018BF40F001004FEAC1234FEAD3231E
:100C900003FA0CFC40EA0C0023FA02F34FEA430388
:100CA000CCE77FEA625307D150EA01331EBF4FF011
:100CB000FE4040F44000704701F0004040F0FE402C
:100CC00040F40000704700BF38B5002200230446FE
:100CD0000D46FFF723FF28B920462946BDE83840D6
:100CE00000F00AB8204605F1004100F005F8404246
:100CF00061EB410138BD00BFD0B50C4B0022064668
:100D00000F46FFF799FCFFF76FFF0446FFF71AFC49
:100D1000074B0022FFF790FC02460B46304639464F
:100D2000FFF7D2FAFFF760FF2146D0BD0000F03D8B
:100D30000000F04100000000B0B5E8B002AF4FF095
:100D400000024FF00003C7E964230023C7F88C3189
:100D50003C23C7F88831A64C3B46184601F060FF9B
:100D600007F5CC73A3F5CC73204619464FF4C47332
:100D70001A4604F00FFF9E4BD3F84431984700F019
:100D800055F900F075F99B4C3B46184601F07EF989
:100D900007F5CC73A3F5CC732046194690231A4669
:100DA00004F0F8FE944C3B46184601F0DBF807F5DA
:100DB000CC73A3F5CC731D460FCD0FC495E8070087
:100DC00084E807008D4C3B46184601F0CBF807F548
:100DD000CC73A3F5CC731D460FCD0FC495E8070067
:100DE00084E80700864C3B46184601F0BBF807F53F
:100DF000CC73A3F5CC731D460FCD0FC495E8070047
:100E000084E807007F4B03221A707F4B00221A7080
:100E10007E4B00221A807E4B00221A70744B9B6D11
:100E20001946734B9B6D03F114027A4C384600232C
:100E3000019301230093022300F078FF07F5CC73A0
:100E4000A3F5CC72234607CA83E80700684BDA6B28
:100E5000714C3B461146184601F0B6FA07F5CC73C3
:100E6000A3F5CC731D460FCD0FC40FCD0FC495E86D
:100E7000070084E807005E4BD3F81C3198475C4BB1
:100E8000D3F8243198475A4BD3F828319847584B18
:100E9000D3F8CC3001209847554BD3F80C310A20B9
:100EA0009847534BD3F8F430514AD2F8C820503207
:100EB0005A4910469847504B9B694D4A126A12692D
:100EC00011464D4898474D4B9B69494AD26B126970
:100ED00011464A4898474A4B9B69454A926D1269A8
:100EE0001146474898474C4B9B6A984700F000F9D9
:100EF000494B5B6A002101209847474B5C693D4B99
:100F0000D3F88C303A4AD2F8C820503211464448BF
:100F1000984703461846A0473F4B5B6A04210120CF
:100F20009847D7F88831D7F88C219A4217D2304B9E
:100F3000D3F82C31984753EC102BD7E96401FFF715
:100F4000C5F902460B46C7E96423294BD3F8303173
:100F50009847D7F88C310133C7F88C31ABE7D7F815
:100F60008801FFF7FFFA02460B46D7E96401FFF755
:100F70008DFC02460B46C7E9642319A3D3E900237D
:100F8000D7E96401FFF782FC02460B46104619467A
:100F900015A3D3E90023FFF797F902460B46104645
:100FA00019464FF000021F4BFFF790F902460B461F
:100FB000C7E96423184B9C690E4BD3F88C50D7E9D2
:100FC0006401FFF711FE0346DF2219461648A847C1
:100FD000034607211846A0470023C7F88C316AE76B
:100FE000CDCCCCCCCCCC0840638C31C6180373403C
:100FF000FC010020840300201404002030040020A1
:101000004C040020A0040020AC040020AE0400200A
:10101000B0040020680400207404002043554200FE
:10102000D8B4000800003940DCB4000880B500AF37
:101030000E4BDB681A6B0D4BDB6842F007021A633C
:101040000A4B5B6A052101209847084BDB6A0521A2
:1010500000209847054BDB6D0D2100209847034B7E
:101060005B6E0D210120984700BF80BDFC01002070
:1010700080B400AF1D4BDB685A6C1C4BDB6842F43C
:1010800080325A64194BD3F804311A68174BD3F8DD
:10109000043142F080721A60144BD3F814314BF2D1
:1010A000DF12DA62114BD3F8143141F66A525A63F7
:1010B0000E4BD3F8143114229A620C4BD3F814312E
:1010C000DA680A4BD3F8143142F00302DA60074BB6
:1010D000D3F814311A68054BD3F8143142F0810269
:1010E0001A6000BFBD465DF8047B7047FC0100201C
:1010F000F0B585B004AF704B1B78013B082B00F2B4
:101100006B8401A252F823F02D110008F31100089E
:10111000E9120008FB13000815150008F315000874
:1011200009170008E7170008FD180008634B5B6A01
:10113000002100209847614B9B6910216048984727
:10114000604BD3F8F030604898475C4B5B6A0021F5
:1011500003209847594B9C695C4BD3F88C505A4BF1
:101160001B781846584B5B781E46574B9B789C461D
:10117000554BDB781A46544B1B791946524B5B7919
:101180000293019100926346324601465048A847B7
:10119000034611211846A0474A4BD3F854414D4B02
:1011A00058694C4B19694C4B1B880D22A0470346CC
:1011B0004A4A1360494B1B68052B06D9474B1B68ED
:1011C0000A2B02D83C4B02221A70444B1B680A2B94
:1011D00006D9424B1B681D2B02D8374B04221A70CC
:1011E0003E4B1B68282B40F2F983334B03221A70C5
:1011F000F4E3324B5B6A0021002098472F4B9B6938
:101200001021374898472F4BD3F8EC302E48984799
:101210002A4B5B6A002103209847284B9C692B4B83
:10122000D3F88C50284B5B791846274B9B791E4688
:10123000254BDB789C46244B1B791A46224B1B78A6
:101240001946214B5B780293019100926346324626
:1012500001462448A847034611211846A047194BC8
:10126000D3F854411B4B58691A4B19691A4B1B8808
:101270000D22A0470346194A1360184B1B68052B23
:1012800006D9164B1B680A2B02D80B4B01221A7089
:10129000124B1B680A2B06D9104B1B681D2B02D85A
:1012A000054B07221A700D4B1B68282B40F29883C0
:1012B000014B03221A7093E3A00400207404002061
:1012C000E4B40008FC010020B404002084030020E2
:1012D000ECB400084C040020AE040020A804002058
:1012E00004B500080CB500087B4B5B6A00210020A8
:1012F0009847794B9B69102178489847784BD3F8E9
:10130000EC3078489847744B5B6A0021022098477C
:10131000714B9C69744BD3F88C50724B5B791846B7
:10132000704B9B791E466F4BDB789C466D4B1B794F
:101330001A466C4B1B7819466A4B5B7802930191F5
:1013400000926346324601466848A8470346112189
:101350001846A047624BD3F8F030624898475E4B7E
:101360005B6A0021032098475B4B9C695E4BD3F876
:101370008C505C4B1B7818465A4B5B781E46594B79
:101380009B789C46574BDB781A46564B1B7919467F
:10139000544B5B79029301910092634632460146B9
:1013A0005348A847034611211846A0474C4BD3F891
:1013B0005441504B58694F4B19694F4B1B880D22B4
:1013C000A0470346282B40F20D83434B5B6A002164
:1013D00002209847404B9B691121484898473E4B53
:1013E0005B6A0021032098473B4B9B690F214348D0
:1013F0009847434B01221A70F4E2374B5B6A002195
:1014000000209847344B9B6910213E489847344B45
:10141000D3F85441374B5869364B1969364B1B8802
:101420000D22A0470346384A1360374B1B68002B38
:1014300023D0354B1B68052B1FD8344B1B78013349
:10144000DAB2324B1A70314B1B78172B02D92F4B63
:1014500000221A70204B5B6A0021022098471E4B25
:101460009C69214BD3F88C30284A127811462848C1
:101470009847034610211846A047234B1B680A2BA8
:1014800010D9214B1B68132B0CD8134B5B6A00211E
:1014900002209847104B9B69102118489847184B19
:1014A00005221A70184B1B68132B40F29D820A4BC1
:1014B0005B6A002102209847074B9B6910210F4867
:1014C00098470F4B01221A70054BD3F8E0300F4AB2
:1014D00012781046984787E27404002024B500086B
:1014E000FC010020B4040020840300200CB5000897
:1014F000ECB400084C040020AE04002030B5000815
:10150000A004002034B50008A8040020A104002095
:1015100044B500086E4B5B6A0021002098476C4B75
:101520009B6910216B4898476B4BD3F854416B4B28
:1015300058696A4B19696A4B1B880D22A0470346FC
:10154000684A1360674B1B68002B23D0654B1B68F0
:10155000052B1FD8644B1B780133DAB2624B1A702B
:10156000614B1B783B2B02D95F4B00221A70584B02
:101570005B6A002102209847554B9C695B4BD3F86E
:101580008C30594A12781146594898470346102121
:101590001846A047534B1B680A2B10D9514B1B68A8
:1015A000132B0CD84A4B5B6A002102209847484B0A
:1015B0009B6910214F4898474F4B06221A70494BA0
:1015C0001B68132B40F21282414B5B6A0021022000
:1015D00098473F4B9B69102146489847464B01224C
:1015E0001A703D4BD3F8E4303F4A127810469847C2
:1015F000FCE1374B5B6A002100209847344B9B6924
:1016000010213E489847344BD3F85441334B586926
:10161000324B1969324B1B880D22A0470346314AD1
:101620001360304B1B68002B23D02E4B1B68052BFF
:101630001FD8334B1B780133DAB2314B1A70304B61
:101640001B783B2B02D92E4B00221A70204B5B6A71
:101650000021022098471E4B9C69244BD3F88C3004
:10166000274A127811462748984703461021184602
:10167000A0471C4B1B680A2B10D91A4B1B68132B55
:101680000CD8134B5B6A002102209847104B9B69D2
:10169000102118489847184B01221A70114B1B68EB
:1016A000132B40F2A5810A4B5B6A00210220984768
:1016B000074B9B6910210F4898470F4B01221A7066
:1016C000054BD3F8E8300E4A1278104698478FE160
:1016D0007404002050B50008FC0100204C040020D8
:1016E000AE040020A8040020A204002084030020EF
:1016F00060B5000830B50008A00400206CB50008F3
:10170000A304002080B500086E4B5B6A0021002016
:1017100098476C4B9B6910216B4898476B4BD3F8EB
:1017200054416B4B58696A4B19696A4B1B880D22EF
:10173000A0470346684A1360674B1B68002B23D001
:10174000654B1B68052B1FD8644B1B780133DAB23D
:10175000624B1A70614B1B78632B02D95F4B0022DE
:101760001A70584B5B6A002102209847554B9C69C0
:101770005B4BD3F88C30594A127811465948984738
:10178000034610211846A047534B1B680A2B10D95B
:10179000514B1B68132B0CD84A4B5B6A002102206B
:1017A0009847484B9B6910214F4898474F4B082258
:1017B0001A70494B1B68132B40F21C81414B5B6A2A
:1017C0000021022098473F4B9B69102146489847CB
:1017D000464B02221A703D4BD3F8DC303F4A127858
:1017E0001046984706E1374B5B6A00210020984776
:1017F000344B9B6910213E489847344BD3F85441F1
:10180000334B5869324B1969324B1B880D22A04764
:101810000346314A1360304B1B68002B23D02E4BFC
:101820001B68052B1FD8334B1B780133DAB2314BC1
:101830001A70304B1B780C2B02D92E4B01221A70D8
:10184000204B5B6A0021022098471E4B9C69244B69
:10185000D3F88C30274A1278114627489847034618
:1018600010211846A0471C4B1B680A2B10D91A4B95
:101870001B68132B0CD8134B5B6A0021022098477E
:10188000104B9B69102118489847184B09221A7071
:10189000114B1B68132B40F2AF800A4B5B6A00218F
:1018A00002209847074B9B6910210F4898470F4B20
:1018B00002221A70054BD3F8D4300E4A1278104623
:1018C000984799E0740400208CB50008FC010020C2
:1018D0004C040020AE040020A8040020A404002032
:1018E0008403002098B5000830B50008A00400204B
:1018F000A0B5000800000020ACB50008424B5B6AB0
:10190000002100209847404B9B6910213F48984791
:101910003F4BD3F854413F4B58693E4B19693E4BFE
:101920001B880D22A04703463C4A13603B4B1B68B3
:10193000002B23D0394B1B68052B1FD8384B1B7845
:101940000133DAB2364B1A70354B1B781F2B02D994
:10195000334B01221A702C4B5B6A002102209847FE
:10196000294B9C692F4BD3F88C302D4A12781146A5
:101970002D489847034610211846A047274B1B685F
:101980000A2B10D9254B1B68132B0CD81E4B5B6AF6
:101990000021022098471C4B9B691021234898473F
:1019A000234B02221A701D4B1B68132B26D9164B92
:1019B0005B6A002102209847134B9B6910211B484A
:1019C00098471B4B02221A70114BD3F8D030144A9F
:1019D00012781046984711E000BF10E000BF0EE0FB
:1019E00000BF0CE000BF0AE000BF08E000BF06E057
:1019F00000BF04E000BF02E000BF00E000BF00BF86
:101A00000437BD46F0BD00BF74040020B4B5000823
:101A1000FC0100204C040020AE040020A80400209B
:101A20000100002084030020C0B5000830B5000884
:101A3000A004002080B500AF364BD3F814311B69E9
:101A400003F00103002B50D0324BD3F814311A6944
:101A5000304BD3F8143122F001021A612E4B1B785F
:101A6000002B1ED02B4B1B6B202098472B4B5B6809
:101A70002B4A92F90010CAB2013AD2B250B2284AA7
:101A8000107001228A40D2B2D243D2B21046984797
:101A9000234B93F90030002B21DA1F4B00221A70E0
:101AA0001DE01C4B5B6B202098471C4B5B681C4A5D
:101AB00092F90010CAB20132D2B250B2184A107074
:101AC00001228A40D2B2D243D2B210469847144B78
:101AD00093F90030072B02DD0F4B01221A70114BD6
:101AE0001B8801339AB20F4B1A800A4BD3F814317A
:101AF0001B6903F00203002B09D0064BD3F8143105
:101B00001A69044BD3F8143122F002021A6100BFA3
:101B100080BD00BFFC010020B0040020680400204C
:101B2000AC040020AE04002080B400AF01231846AE
:101B3000BD465DF8047B704780B582B000AF786029
:101B4000396003F0FDFF034616221A604FF0FF33A1
:101B500018460837BD4680BD80B582B000AF7860BA
:101B60004FF0FF317868FFF7E7FFFEE780B586B0FA
:101B700000AFF860B9607A6000237B610AE0AFF3E0
:101B800000800146BB685A1CBA60CAB21A707B69F1
:101B900001337B617A697B689A42F0DB7B68184687
:101BA0001837BD4680BD80B586B000AFF860B9601B
:101BB0007A6000237B6109E0BB685A1CBA601B781D
:101BC0001846AFF300807B6901337B617A697B68DB
:101BD0009A42F1DB7B6818461837BD4680BD80B459
:101BE00083B000AF78604FF0FF3318460C37BD4626
:101BF0005DF8047B704780B483B000AF78603960D3
:101C00003B684FF400525A60002318460C37BD461B
:101C10005DF8047B704780B483B000AF7860012327
:101C200018460C37BD465DF8047B704780B485B01C
:101C300000AFF860B9607A60002318461437BD46DB
:101C40005DF8047B7047000080B586B000AF786017
:101C5000144A154BD31A7B617B693B61134B1B689C
:101C6000002B02D1114B124A1A60104B1A687B6884
:101C700013443A699A4207D203F062FF03460C22EA
:101C80001A604FF0FF3309E0084B1B68FB60074BFD
:101C90001A687B681344054A1360FB6818461837B6
:101CA000BD4680BD0000022000040000CC040020DE
:101CB0009808002080B400AF064BD3F88830054A5E
:101CC00043F47003C2F8883000BFBD465DF8047B62
:101CD000704700BF00ED00E0DFF834D00D480E493A
:101CE0000E4A002302E0D458C4500433C4188C4276
:101CF000F9D30B4A0B4C002301E013600432A242DB
:101D0000FBD3FFF7D7FF03F021FFFFF715F870476C
:101D10000000022000000020DC010020A8BA00081A
:101D2000E001002098080020FEE7000090B488B091
:101D300000AFF860B9607A60FB70384ABB68136026
:101D4000374A7B681360374AFB781370364A97F836
:101D500028301370354A97F82C3013702F4B1B68BE
:101D60001A68FB785B000321994097F828305B00E4
:101D7000032000FA03F3194397F82C305B0003208B
:101D800000FA03F30B43DB431946244B1B680A405C
:101D90001A60224B1B681A68FB785B00012199408E
:101DA00097F828305B00012000FA03F3194397F8F5
:101DB0002C305B00012000FA03F30B431946174B4C
:101DC0001B680A431A60164B1B681A68FB780121CE
:101DD000994097F82830012000FA03F3194397F847
:101DE0002C30012000FA03F30B43DB4319460C4B64
:101DF0001B680A401A600E4B7B610E4BBB610E4B99
:101E0000FB61FB681C4607F1140393E8070084E8B4
:101E10000700F8682037BD4690BC7047D00400200A
:101E2000D4040020D8040020D9040020DA040020C3
:101E30003D1E0008D51E0008191F000880B483B09D
:101E400000AF0346FB71FB79002B0DD01E4B1B68C6
:101E50001A681E4B1B78194601238B4019461A4BF2
:101E60001B680A431A600DE0174B1B681A68174B72
:101E70001B78194601238B40DB431946124B1B6824
:101E80000A401A60104B1B681A68114B1B781946E0
:101E900001238B4019460C4B1B680A431A600A4BFE
:101EA0001B681A680A4B1B78194601238B40DB43D9
:101EB0001946054B1B680A401A6000BF0C37BD4627
:101EC0005DF8047B704700BFD4040020D8040020D4
:101ED000D904002080B584B000AF0346FB71002315
:101EE000FB730FE0FB7B012202FA03F35AB297F96E
:101EF000073013405BB2DBB21846FFF79FFFFB7B56
:101F00000133FB73FB7B072BECD900F005F800BF16
:101F10001037BD4680BD000080B400AF0F4B1B687A
:101F20001A680F4B1B78194601238B4019460B4B3F
:101F30001B680A431A60094B1B681A68084B1B7818
:101F4000194601238B40DB431946044B1B680A40AA
:101F50001A6000BFBD465DF8047B7047D4040020C2
:101F6000DA040020B0B48BB000AF78600023FB60CF
:101F700000233B61084B7B627B681D4607F10C0424
:101F80000FCC0FC594E8070085E8070078682C3768
:101F9000BD46B0BC704700BF9D1F000880B582B031
:101FA00000AF786039607B685A687B681A607B682C
:101FB0003A685A60786800F019F802467B689A60BF
:101FC000786800F024F802467B68DA60786800F0F0
:101FD00030F802467B681A61786800F040F80246E3
:101FE0007B685A6100BF0837BD4680BD80B485B0AC
:101FF00000AF78607B681A687B685B681340FB60A1
:10200000FB6818461437BD465DF8047B704780B402
:1020100085B000AF78607B681A687B685B681343A3
:10202000FB60FB68DB4318461437BD465DF8047B54
:10203000704780B485B000AF78607B681A687B68B1
:102040005B685340FB607B685B68FA681340FB6029
:10205000FB6818461437BD465DF8047B704780B4B2
:1020600085B000AF78607B685A687B681B68534016
:10207000FB607B681B68FA681340FB60FB681846CE
:102080001437BD465DF8047B7047000080B5A6B0EC
:1020900000AF78600A4B002283F85F20094BBB67D2
:1020A000094BC7F894307B68184607F10803902263
:1020B000194603F06FFD78689837BD4680BD00BFB4
:1020C000DC040020112200088D23000880B485B0B4
:1020D00000AF78600023FB6002E0FB680133FB6027
:1020E000FB687A6813441B78002BF6D1FB6818460E
:1020F0001437BD465DF8047B704780B586B000AFED
:10210000786000237B617868FFF7E0FF0346013BBE
:102110003B6117E07B697A6813441B78FB733B696A
:102120007A681A447B6979680B4412781A703B69A3
:102130007A681344FA7B1A707B6901337B613B69CF
:10214000013B3B617A693B699A42E3DB00BF00BF18
:102150001837BD4680BD000080B487B000AFF8607E
:10216000B9601346FB710023FB75FA68274B83FBAC
:1021700002139910D317C91A0B469B000B445B003E
:10218000D11ACAB2FB7D591CF9751946BB680B44BC
:102190003032D2B21A7015E0FA681C4B83FB02137E
:1021A0009910D317C91A0B469B000B445B00D11A38
:1021B000CAB2FB7D591CF9751946BB680B44303215
:1021C000D2B21A70FB68114A82FB03129210DB171D
:1021D000D31AFB60FB68002BDEDC07E0FB7D5A1C9A
:1021E000FA751A46BB68134430221A70FA7DFB79DF
:1021F0009A42F3D3FB7DBA68134400221A70FB7D28
:1022000018461C37BD465DF8047B704767666666F6
:10221000B0B58AB000AF87ED020B78600B46FB705B
:102220000023FB774FF000024FF00003D7E90201D3
:10223000FEF774FC0346002B08D0BC68FB6883F0F3
:102240000045C7E90845FF23BB7705E0D7E902232E
:10225000C7E908230123BB77D7E90801FEF7C4FCCF
:102260000346BB61B869FEF76DF902460B46D7E934
:102270000801FEF729F802460B46C7E90423BB69AB
:10228000012279681846FFF767FF0346FB7797F945
:102290001E30002B08DAFB7F5A1CFA771A467B683F
:1022A00013442D221A7007E0FB7F5A1CFA771A4656
:1022B0007B68134420221A70FB7F7A681344002243
:1022C0001A707868FFF719FFFB78002B30D0FB7885
:1022D000062B2DD8FB7F5A1CFA771A467B681344CD
:1022E0002E221A70FB781846FEF72CF902460B4690
:1022F00043EC112B9FED220B08F0C4F951EC100BAD
:10230000D7E90423FEF798F902460B461046194612
:10231000FEF742FCFB7F7A681344FA781946FFF710
:102320001BFFFB7F7A6813441846FFF7E6FE21E0A7
:10233000FB7F5A1CFA771A467B6813442E221A70C8
:102340004FF00002104BD7E90401FEF775F9024681
:102350000B4610461946FEF71FFCFB7F7A681344B4
:1023600002221946FFF7F8FEFB7F7A6813441846ED
:10237000FFF7C3FE7B6818462837BD46B0BD00BFD7
:102380000000000000002440000059400FB480B558
:1023900082B000AF07F114033B603B683A695F21EC
:1023A000084805F0D9F978607B68002B01DA002332
:1023B00000E0044B18460837BD46BDE8804004B035
:1023C000704700BFDC040020B0B5F0B000AFC7F824
:1023D0008C01C7F88811254C3B46184600F020FCBC
:1023E00007F5E073A3F5E073204619464FF4C47374
:1023F0001A4603F0CFFB1E4AD7F8883113601D4BF5
:10240000C7F894311C4BC7F898311C4BC7F89C3166
:102410001B4BC7F8A0311B4BC7F8A4311A4BC7F8A8
:10242000A8311A4BC7F8AC31194BC7F8B031194B6A
:10243000C7F8B431184BC7F8B831184BC7F8BC31DE
:1024400000F02EF8D7F88C311D4607F5CA740FCC72
:102450000FC50FCC0FC594E8070085E80700D7F833
:102460008C0107F5E077BD46B0BD00BF3C050020FC
:10247000C4060020D525000835280008292A0008B0
:10248000612A0008432A0008812A0008AF2A0008B0
:102490000B2B0008312B0008512B0008DD2B000806
:1024A00080B500AF484B1B681A68474B1B6822F089
:1024B0003F021A60444B1B681A68434B1B6842F08A
:1024C00015021A60404B1B681A683F4B1B6822F0CC
:1024D000C0021A603C4B1B68DA683B4B1B6822F059
:1024E000C002DA60384B1B68DA68374B1B6842F071
:1024F0004002DA60344B1B689B68334A126823F44D
:102500007F4323F03F0393602F4B1B689B682E4A49
:10251000126843F47F4343F03F0393602A4B1B68E8
:102520001B6903F00803294A1360294BD3F80C31C7
:10253000142098470021382000F04CF8244BD3F8A1
:102540001031042098470021382000F043F8204B38
:10255000D3F810310A2098470021382000F03AF8CB
:1025600000F062FA0021282000F034F800F05CFA54
:102570000021282000F02EF800F056FA00210C204F
:1025800000F028F800F050FA00210C2000F022F8AA
:1025900000F04AFA0021012000F01CF800F044FA93
:1025A0000021012000F016F800F03EFA002106207C
:1025B00000F010F800F038FA0021062000F00AF8C8
:1025C00000F032FA00BF80BDC4060020C80600201B
:1025D0003C05002080B582B000AF03460A46FB717F
:1025E0001346BB80914BD3F87C31914A126801218C
:1025F00010469847BB88002B08D08C4BD3F870311D
:102600008B4A126800211046984707E0874BD3F8A1
:102610007C31874A1268002110469847844B1B681A
:102620001A68834B1B6822F47F421A60804B1B6838
:102630001A687F4B1B6842F4AA421A607C4B1B68E5
:10264000DA687B4B1B6822F47F42DA60774BD3F861
:102650007031774A126802211046984797F907307F
:10266000002B08DA714BD3F87031714A12680721D8
:102670001046984707E06D4BD3F87C316C4A1268DE
:10268000072110469847FB7903F04003002B08D040
:10269000664BD3F87031664A126806211046984797
:1026A00007E0624BD3F87C31614A1268062110467C
:1026B0009847FB7903F02003002B08D05B4BD3F83D
:1026C00070315B4A126805211046984707E0574B66
:1026D000D3F87C31564A1268052110469847FB7999
:1026E00003F01003002B08D0504BD3F87031504A40
:1026F000126804211046984707E04C4BD3F87C3110
:102700004B4A1268042110469847484BD3F87C3155
:10271000474A1268022110469847444BD3F87C314F
:10272000434A1268012110469847BB88002B08D005
:102730003E4BD3F870313E4A12680021104698474C
:1027400007E03A4BD3F87C31394A12680021104631
:102750009847364BD3F87031354A1268022110463B
:102760009847FB7903F00803002B08D02F4BD3F8D0
:1027700070312F4A126807211046984707E02B4B0B
:10278000D3F87C312A4A1268072110469847FB7912
:1027900003F00403002B08D0244BD3F87031244AF3
:1027A000126806211046984707E0204BD3F87C3189
:1027B0001F4A1268062110469847FB7903F002036E
:1027C000002B08D0194BD3F87031194A1268052133
:1027D0001046984707E0154BD3F87C31144A12682D
:1027E000052110469847FB7903F00103002B08D020
:1027F0000E4BD3F870310E4A1268042110469847E8
:1028000007E00A4BD3F87C31094A126804211046CC
:102810009847064BD3F87C31054A126802211046CE
:10282000984700BF0837BD4680BD00BF3C0500206B
:10283000C406002080B584B000AF0346FB800023AF
:10284000BB600023FB73764B1B681A68744B1B68D4
:1028500022F47F421A60724B1B68DA68704B1B6867
:1028600022F47F42DA606E4B1B68DA686C4B1B689F
:1028700042F4AA42DA606B4BD3F87031684A1268AE
:10288000012110469847FB88002B08D0654BD3F8F0
:102890007031634A126800211046984707E0614B87
:1028A000D3F87C315E4A12680021104698475D4B90
:1028B000D3F870315A4A1268022110469847584B93
:1028C0001B681B69BB60574BD3F87C31544A1268B4
:1028D000022110469847BB6803F08003002B04D008
:1028E000FB7B63F07F03FB7303E0FB7B03F07F0361
:1028F000FB73BB6803F04003002B04D0FB7B43F069
:102900004003FB7303E0FB7B23F04003FB73BB68D6
:1029100003F02003002B04D0FB7B43F02003FB7368
:1029200003E0FB7B23F02003FB73BB6803F0100381
:10293000002B04D0FB7B43F01003FB7303E0FB7B15
:1029400023F01003FB73374BD3F87031344A12680D
:10295000012110469847FB88002B08D0314BD3F853
:1029600070312F4A126800211046984707E02D4B1E
:10297000D3F87C312A4A1268002110469847294B27
:10298000D3F87031264A1268022110469847244B2A
:102990001B681B69BB60234BD3F87C31204A12684B
:1029A000022110469847BB6803F08003002B04D037
:1029B000FB7B43F00803FB7303E0FB7B23F008037E
:1029C000FB73BB6803F04003002B04D0FB7B43F098
:1029D0000403FB7303E0FB7B23F00403FB73BB687E
:1029E00003F02003002B04D0FB7B43F00203FB73B6
:1029F00003E0FB7B23F00203FB73BB6803F01003CF
:102A0000002B04D0FB7B43F00103FB7303E0FB7B53
:102A100023F00103FB73FB7B18461037BD4680BDD6
:102A2000C40600203C05002080B500AF00BF002098
:102A3000FFF700FF03465BB2002BF8DB00BF00BFCF
:102A400080BD80B582B000AF0120FFF7F3FE0346E2
:102A5000FB71FFF7E9FFFB7918460837BD4680BDDB
:102A600080B582B000AF0346FB71FB7901211846A7
:102A7000FFF7B0FDFFF7D8FF00BF0837BD4680BDA8
:102A800080B584B000AF786008E07B685A1C7A603B
:102A90001B78FB73FB7B1846FFF7E2FF7B681B7814
:102AA000002BF2D100BF00BF1037BD4680BD80B5FE
:102AB00084B000AF786039600023FB600FE07B6872
:102AC0005A1C7A601B78FB72FB680133FB60FA6862
:102AD0003B689A4208D8FB7A1846FFF7C1FF7B682B
:102AE0001B78002BEBD107E000BF05E02020FFF7AB
:102AF000B7FFFB680133FB60FA683B689A42F5D385
:102B000000BF00BF1037BD4680BD80B582B000AFAA
:102B1000786005E02020FFF7A3FF7B68013B7B6026
:102B20007B68002BF6D100BF00BF0837BD4680BDD3
:102B300080B500AF00210120FFF74CFD034BD3F817
:102B40000C310220984700BF80BD00BF3C0500202B
:102B500080B582B000AF786039607B68032B37D8CE
:102B600001A252F823F000BF792B00088F2B000838
:102B7000A52B0008BB2B00083B68DBB2803BDBB217
:102B800000211846FFF726FDFFF74EFF21E03B68C6
:102B9000DBB2403BDBB200211846FFF71BFDFFF71D
:102BA00043FF16E03B68DBB26C3BDBB2002118460A
:102BB000FFF710FDFFF738FF0BE03B68DBB22C3B63
:102BC000DBB200211846FFF705FDFFF72DFF00E0FF
:102BD00000BF00BF0837BD4680BD00BF80B582B0D2
:102BE00000AF0D4B1B681B6903F008037B600B4BA8
:102BF0001B687A6853403B603A687B6813403B60CF
:102C00003B68002B01D0FFF74BFC044A7B68136044
:102C100000BF0837BD4680BDC4060020C80600209E
:102C200080B582B000AF7860984B00221A60984B54
:102C300000221A6097494FF000024FF00003C1E9EB
:102C40000023954B954A1A60934B954A5A60924BD4
:102C5000944A9A60904B944ADA608F4B934A1A6177
:102C60008D4B934A5A618C4B924A9A618A4B924A95
:102C7000DA61894B914A1A62874B914A5A62864BB4
:102C8000904A9A62844B904ADA62834B8F4A1A6365
:102C9000814B8F4A5A63804B8E4A9A637E4B8E4A91
:102CA000DA637D4B8D4A1A647B4B8D4A5A647A4BAA
:102CB0008C4A9A64784B8C4ADA64774B8B4A1A6553
:102CC000754B8B4A5A65744B8A4A9A65724B8A4A8D
:102CD000DA65714B894A1A666F4B894A5A666E4BA0
:102CE000884A9A666C4B884ADA666B4B874A1A6741
:102CF000694B874A5A67684B864A9A67664B864A89
:102D0000DA67654B854AC3F88020634B844AC3F871
:102D10008420614B834AC3F888205F4B824AC3F802
:102D20008C205D4B814AC3F890205B4B804AC3F8EE
:102D30009420594B7F4AC3F89820574B7E4AC3F8DA
:102D40009C20554B7D4AC3F8A020534B7C4AC3F8C6
:102D5000A420514B7B4AC3F8A8204F4B7A4AC3F8B2
:102D6000AC204D4B794AC3F8B0204B4B784AC3F89E
:102D7000B420494B774AC3F8B820474B764AC3F88A
:102D8000BC20454B754AC3F8C020434B744AC3F876
:102D9000C420414B734AC3F8C8203F4B724AC3F862
:102DA000CC203D4B714AC3F8D0203B4B704AC3F84E
:102DB000D420394B6F4AC3F8D820374B6E4AC3F83A
:102DC000DC20354B6D4AC3F8E020334B6C4AC3F826
:102DD000E420314B6B4AC3F8E8202F4B6A4AC3F812
:102DE000EC202D4B694AC3F8F0202B4B684AC3F8FE
:102DF000F420294B674AC3F8F820274B664AC3F8EA
:102E0000FC20254B654AC3F80021234B644AC3F8D4
:102E10000421214B634AC3F808211F4B624AC3F8BF
:102E20000C211D4B614AC3F810211B4B604AC3F8AB
:102E30001421194B5F4AC3F81821174B5E4AC3F897
:102E40001C21154B5D4AC3F82021134B5C4AC3F883
:102E50002421114B5B4AC3F828210F4B5A4AC3F86F
:102E60002C210D4B594AC3F830210B4B584AC3F85B
:102E70003421094B574AC3F83821074B564AC3F847
:102E80003C21054B554AC3F84021A9E060080020C9
:102E90007008002080080020CC060020003C024082
:102EA000003002400070004000380240F930000855
:102EB000B53100083D320008F93200080000024038
:102EC00049350008F13500089936000841370008F7
:102ED000653700088937000800040240813800087F
:102EE00029390008D1390008793A00089D3A0008CC
:102EF000C13A000800080240B93B0008613C0008E4
:102F0000093D0008B13D0008D53D0008F93D000825
:102F1000000C0240F13E0008993F000841400008C3
:102F2000E94000080D41000831410008001002404E
:102F300029420008E1420008994300085144000872
:102F40007544000899440008001C0240A945000887
:102F50006146000819470008D1470008F5470008F6
:102F60001948000800280040294900081D4D0008A4
:102F70009D4C0008394C0008B94B00080D4A000868
:102F80009D4A00082D4B0008014E00082D4F0008F7
:102F9000994D000800380140006002400064024082
:102FA00000E100E010E000E0395A0008AD5A0008E6
:102FB000004001400020014059500008F150000835
:102FC00019510008415100087D510008D9510008ED
:102FD000115200080023014000100140395200083E
:102FE000294B2A4AC3F84421274B294AC3F84821D0
:102FF000254B284AC3F84C21234B274AC3F85021BC
:10300000214B264AC3F854211F4B254AC3F85821A7
:103010001D4B244AC3F85C211B4B234AC3F8602193
:10302000194B224AC3F86421174B214AC3F868217F
:10303000154B204AC3F86C21134B1F4AC3F870216B
:10304000114B1E4AC3F874210F4B1D4AC3F8782157
:103050000D4B1C4AC3F87C210B4B1B4AC3F8802143
:10306000094B1A4AC3F8842102F0C4FC7B68064A63
:10307000184611464FF4C4731A4602F08BFD786867
:103080000837BD4680BD00BFCC060020D130000807
:10309000AD550008E155000825560008D156000836
:1030A0007D570008A1570008C5570008FD570008C4
:1030B000355800087D330008CF330008F33300088B
:1030C0000F3400086334000889340008A93400086C
:1030D00080B582B000AF002000F00EF8002000F0B4
:1030E00069F80346FB71022000F0A8F8FB79184646
:1030F0000837BD4680BD000080B485B000AF786061
:103100000123FB600123BB6048E07B68002B17D1E3
:10311000FB68002B0AD0264BDB681A68244BDB685F
:1031200042F001021A600023FB6037E0204BDB68AD
:103130001B6803F00203002B30D00023BB602DE09E
:103140007B68012B17D1FB68002B0AD0184BDB687A
:103150001A68174BDB6842F480321A600023FB6068
:103160001CE0134BDB681B6803F40033002B15D005
:103170000023BB6012E07B68022B0DD1FB68002BA3
:1031800007D00B4BDB681A68094BDB6842F48022DE
:103190001A6001237B6001E000237B60BB68002B89
:1031A000B3D100BF00BF1437BD465DF8047B704744
:1031B000CC06002080B483B000AF0346FB711E4BE9
:1031C000DB689A681C4BDB6822F003029A60FB798B
:1031D000032B18D0032B1FDC012B02D0022B09D0AC
:1031E0001AE0154BDB689A68134BDB6842F001026A
:1031F0009A6012E0104BDB689A680F4BDB6842F074
:1032000002029A6009E00C4BDB689A680A4BDB68A3
:1032100042F003029A6000E000BF074BDB689B6846
:103220009B08DBB203F00303DBB218460C37BD4644
:103230005DF8047B704700BFCC06002080B485B0E9
:1032400000AF78600123FB600123BB6048E07B682E
:10325000022B17D1FB68002B0AD0264BDB685A6F74
:10326000244BDB6842F001025A670023FB6037E021
:10327000204BDB685B6F03F00203002B30D0002390
:10328000BB602DE07B68012B17D1FB68002B0AD0B7
:10329000184BDB681A6F174BDB6842F001021A67A4
:1032A0000023FB601CE0134BDB681B6F03F0020381
:1032B000002B15D00023BB6012E07B68042B0DD1DE
:1032C000FB68002B07D00B4BDB681A6F094BDB68E0
:1032D00042F004021A6701237B6001E002237B6055
:1032E000BB68002BB3D100BF00BF1437BD465DF8EB
:1032F000047B7047CC06002080B483B000AF034647
:10330000FB711D4BDB681A6F1B4BDB6822F44072AC
:103310001A67FB79032B17D0032B1EDC012B0AD075
:10332000022B1AD1144BDB681A6F134BDB6842F483
:1033300000721A671AE0104BDB681A6F0E4BDB68DD
:1033400042F480721A6711E00B4BDB681A6F0A4B6C
:10335000DB6842F440721A6708E0074BDB681A6FBB
:10336000054BDB6842F480721A6700BF00BF0C3760
:10337000BD465DF8047B7047CC0600200EB480B4D7
:1033800084B000AF78607B69002B19DD7B69202B4E
:1033900016DC07F11803BB600023FB730CE0BB686D
:1033A0001A1DBA601B68012202FA03F31A467B68F1
:1033B0009A61FB7B0133FB73FB7B7A699A42EEDCFB
:1033C00000BF1037BD465DF8047B03B0704780B482
:1033D00083B000AF7860396001223B6802FA03F3E2
:1033E0001A467B689A6100BF0C37BD465DF8047BC6
:1033F000704780B483B000AF786039603A687B680A
:103400009A6100BF0C37BD465DF8047B70470EB46F
:1034100080B484B000AF78607B69002B1ADD7B69D3
:10342000202B17DC07F11803BB600023FB730DE0B2
:10343000BB681A1DBA601B68012202FA03F31B0461
:103440001A467B689A61FB7B0133FB73FB7B7A69CD
:103450009A42EDDC00BF1037BD465DF8047B03B037
:10346000704780B483B000AF7860396001223B6858
:1034700002FA03F31B041A467B689A6100BF0C37FB
:10348000BD465DF8047B704780B483B000AF7860C0
:1034900039603B681B041A467B689A6100BF0C3791
:1034A000BD465DF8047B704780B586B000AFF8601C
:1034B000B9607A603B60F868FDF744F802460B4655
:1034C00043EC112B9FED1C0B07F0DCF851EC100BBB
:1034D0004FF000021A4BFCF7F7FE02460B4610466F
:1034E0001946FDF781FB03467B617A687B691340CF
:1034F0007B60BB681A683B68F96801FB03F3796974
:1035000001FA03F3DB431A40BB681A60BB681A6810
:103510003B68F96801FB03F3796801FA03F31A4386
:10352000BB681A60BB681A68BB681A6000BF1837AE
:10353000BD4680BDAFF300800000000000000040E9
:103540000000F03F0000000080B584B000AF78605C
:1035500039600223FB60F868FCF7F4FF02460B4673
:1035600043EC112B9FED1E0B07F08CF851EC100B68
:103570004FF000021C4BFCF7A7FE02460B4610461C
:103580001946FDF731FB0346BB607A68BB68134000
:103590007B60164B1B6A19683B68FA6802FB03F3F1
:1035A000BA6802FA03F3DA43104B1B6A0A401A6046
:1035B0000E4B1B6A19683B68FA6802FB03F37A68D2
:1035C0009A400A4B1B6A0A431A60084B1A6A074B57
:1035D0001B6A12681A6000BF1037BD4680BD00BF6D
:1035E00000000000000000400000F03FCC0600207A
:1035F00080B584B000AF786039600223FB60F86862
:10360000FCF7A0FF02460B4643EC112B9FED1E0B6F
:1036100007F038F851EC100B4FF000021C4BFCF790
:1036200053FE02460B4610461946FDF7DDFA0346E7
:10363000BB607A68BB6813407B60164B1B6A996855
:103640003B68FA6802FB03F3BA6802FA03F3DA4351
:10365000104B1B6A0A409A600E4B1B6A99683B68C4
:10366000FA6802FB03F37A689A400A4B1B6A0A4322
:103670009A60084B1A6A074B1B6A92689A6000BFEF
:103680001037BD4680BD00BF0000000000000040B4
:103690000000F03FCC06002080B584B000AF786019
:1036A00039600223FB60F868FCF74CFF02460B46CA
:1036B00043EC112B9FED1E0B06F0E4FF51EC100BB9
:1036C0004FF000021C4BFCF7FFFD02460B46104674
:1036D0001946FDF789FA0346BB607A68BB68134058
:1036E0007B60164B1B6AD9683B68FA6802FB03F3E0
:1036F000BA6802FA03F3DA43104B1B6A0A40DA6035
:103700000E4B1B6AD9683B68FA6802FB03F37A68C0
:103710009A400A4B1B6A0A43DA60084B1A6A074B45
:103720001B6AD268DA6000BF1037BD4680BD00BF9B
:1037300000000000000000400000F03FCC06002028
:1037400080B483B000AF7860054B1B6A7A681204BE
:103750009A6100BF0C37BD465DF8047B704700BF1F
:10376000CC06002080B483B000AF7860044B1B6AA5
:103770007A689A6100BF0C37BD465DF8047B7047DC
:10378000CC0600200000000080B584B000AF786057
:1037900039600423FB60F868FCF7D4FE02460B4650
:1037A00043EC112B9FED320B06F06CFF51EC100B2C
:1037B0004FF00002304BFCF787FD02460B461046E7
:1037C0001946FDF711FA0346BB607A68BB681340DF
:1037D0007B603B68072B22D8284B1B6A196A3B6821
:1037E000FA6802FB03F3BA6802FA03F3DA43234BE5
:1037F0001B6A0A401A62214B1B6A196A3B68FA6805
:1038000002FB03F37A689A401C4B1B6A0A431A6254
:103810001A4B1A6A194B1B6A126A1A6221E0174B7B
:103820001B6A596A3B68FA6802FB03F3BA6802FA3A
:1038300003F3DA43114B1B6A0A405A620F4B1B6AAF
:10384000596A3B68FA6802FB03F37A689A400B4BAB
:103850001B6A0A435A62094B1A6A084B1B6A526A6E
:103860005A6200BF1037BD4680BD00BFAFF3008075
:1038700000000000000000400000F03FCC060020E7
:1038800080B584B000AF786039600223FB60F868CF
:10389000FCF758FE02460B4643EC112B9FED1E0B26
:1038A00006F0F0FE51EC100B4FF000021C4BFCF741
:1038B0000BFD02460B4610461946FDF795F90346E7
:1038C000BB607A68BB6813407B60164BDB6B196882
:1038D0003B68FA6802FB03F3BA6802FA03F3DA43BF
:1038E000104BDB6B0A401A600E4BDB6B19683B68B0
:1038F000FA6802FB03F37A689A400A4BDB6B0A43CF
:103900001A60084BDA6B074BDB6B12681A6000BF5A
:103910001037BD4680BD00BF000000000000004021
:103920000000F03FCC06002080B584B000AF786086
:1039300039600223FB60F868FCF704FE02460B4680
:1039400043EC112B9FED1E0B06F09CFE51EC100B6F
:103950004FF000021C4BFCF7B7FC02460B4610462A
:103960001946FDF741F90346BB607A68BB6813400E
:103970007B60164BDB6B99683B68FA6802FB03F3CC
:10398000BA6802FA03F3DA43104BDB6B0A409A6021
:103990000E4BDB6B99683B68FA6802FB03F37A68AD
:1039A0009A400A4BDB6B0A439A60084BDA6B074B71
:1039B000DB6B92689A6000BF1037BD4680BD00BFC8
:1039C00000000000000000400000F03FCC06002096
:1039D00080B584B000AF786039600223FB60F8687E
:1039E000FCF7B0FD02460B4643EC112B9FED1E0B7E
:1039F00006F048FE51EC100B4FF000021C4BFCF798
:103A000063FC02460B4610461946FDF7EDF80346E7
:103A1000BB607A68BB6813407B60164BDB6BD96870
:103A20003B68FA6802FB03F3BA6802FA03F3DA436D
:103A3000104BDB6B0A40DA600E4BDB6BD9683B68DE
:103A4000FA6802FB03F37A689A400A4BDB6B0A437D
:103A5000DA60084BDA6B074BDB6BD268DA6000BFC9
:103A60001037BD4680BD00BF0000000000000040D0
:103A70000000F03FCC06002080B483B000AF786037
:103A8000054BDB6B7A6812049A6100BF0C37BD46A8
:103A90005DF8047B704700BFCC06002080B483B083
:103AA00000AF7860044BDB6B7A689A6100BF0C371B
:103AB000BD465DF8047B7047CC0600200000000086
:103AC00080B584B000AF786039600423FB60F8688B
:103AD000FCF738FD02460B4643EC112B9FED320BF1
:103AE00006F0D0FD51EC100B4FF00002304BFCF70C
:103AF000EBFB02460B4610461946FDF775F80346E8
:103B0000BB607A68BB6813407B603B68072B22D898
:103B1000284BDB6B196A3B68FA6802FB03F3BA684F
:103B200002FA03F3DA43234BDB6B0A401A62214BA0
:103B3000DB6B196A3B68FA6802FB03F37A689A4008
:103B40001C4BDB6B0A431A621A4BDA6B194BDB6BAB
:103B5000126A1A6221E0174BDB6B596A3B68FA68FC
:103B600002FB03F3BA6802FA03F3DA43114BDB6B8F
:103B70000A405A620F4BDB6B596A3B68FA6802FBDA
:103B800003F37A689A400B4BDB6B0A435A62094B8A
:103B9000DA6B084BDB6B526A5A6200BF1037BD46C6
:103BA00080BD00BFAFF300800000000000000040B7
:103BB0000000F03FCC06002080B584B000AF7860F4
:103BC00039600223FB60F868FCF7BCFC02460B4638
:103BD00043EC112B9FED1E0B06F054FD51EC100B26
:103BE0004FF000021C4BFCF76FFB02460B461046E1
:103BF0001946FCF7F9FF0346BB607A68BB681340BF
:103C00007B60164B9B6D19683B68FA6802FB03F3F7
:103C1000BA6802FA03F3DA43104B9B6D0A401A604C
:103C20000E4B9B6D19683B68FA6802FB03F37A68D8
:103C30009A400A4B9B6D0A431A60084B9A6D074BDA
:103C40009B6D12681A6000BF1037BD4680BD00BF73
:103C500000000000000000400000F03FCC06002003
:103C600080B584B000AF786039600223FB60F868EB
:103C7000FCF768FC02460B4643EC112B9FED1E0B34
:103C800006F000FD51EC100B4FF000021C4BFCF74E
:103C90001BFB02460B4610461946FCF7A5FF0346E0
:103CA000BB607A68BB6813407B60164B9B6D99685C
:103CB0003B68FA6802FB03F3BA6802FA03F3DA43DB
:103CC000104B9B6D0A409A600E4B9B6D99683B6848
:103CD000FA6802FB03F37A689A400A4B9B6D0A4329
:103CE0009A60084B9A6D074B9B6D92689A6000BF73
:103CF0001037BD4680BD00BF00000000000000403E
:103D00000000F03FCC06002080B584B000AF7860A2
:103D100039600223FB60F868FCF714FC02460B468E
:103D200043EC112B9FED1E0B06F0ACFC51EC100B7D
:103D30004FF000021C4BFCF7C7FA02460B46104638
:103D40001946FCF751FF0346BB607A68BB68134015
:103D50007B60164B9B6DD9683B68FA6802FB03F3E6
:103D6000BA6802FA03F3DA43104B9B6D0A40DA603B
:103D70000E4B9B6DD9683B68FA6802FB03F37A68C7
:103D80009A400A4B9B6D0A43DA60084B9A6D074BC9
:103D90009B6DD268DA6000BF1037BD4680BD00BFA2
:103DA00000000000000000400000F03FCC060020B2
:103DB00080B483B000AF7860054B9B6D7A681204C5
:103DC0009A6100BF0C37BD465DF8047B704700BFA9
:103DD000CC06002080B483B000AF7860044B9B6DAC
:103DE0007A689A6100BF0C37BD465DF8047B704766
:103DF000CC0600200000000080B584B000AF7860E1
:103E000039600423FB60F868FCF79CFB02460B4614
:103E100043EC112B9FED320B06F034FC51EC100BF0
:103E20004FF00002304BFCF74FFA02460B461046AB
:103E30001946FCF7D9FE0346BB607A68BB6813409D
:103E40007B603B68072B22D8284B9B6D196A3B6827
:103E5000FA6802FB03F3BA6802FA03F3DA43234B6E
:103E60009B6D0A401A62214B9B6D196A3B68FA6888
:103E700002FB03F37A689A401C4B9B6D0A431A625B
:103E80001A4B9A6D194B9B6D126A1A6221E0174BFF
:103E90009B6D596A3B68FA6802FB03F3BA6802FA41
:103EA00003F3DA43114B9B6D0A405A620F4B9B6D33
:103EB000596A3B68FA6802FB03F37A689A400B4B35
:103EC0009B6D0A435A62094B9A6D084B9B6D526A6F
:103ED0005A6200BF1037BD4680BD00BFAFF30080FF
:103EE00000000000000000400000F03FCC06002071
:103EF00080B584B000AF786039600223FB60F86859
:103F0000FCF720FB02460B4643EC112B9FED1E0BEA
:103F100006F0B8FB51EC100B4FF000021C4BFCF705
:103F2000D3F902460B4610461946FCF75DFE0346E0
:103F3000BB607A68BB6813407B60164B5B6F196887
:103F40003B68FA6802FB03F3BA6802FA03F3DA4348
:103F5000104B5B6F0A401A600E4B5B6F19683B6831
:103F6000FA6802FB03F37A689A400A4B5B6F0A43D4
:103F70001A60084B5A6F074B5B6F12681A6000BFDC
:103F80001037BD4680BD00BF0000000000000040AB
:103F90000000F03FCC06002080B584B000AF786010
:103FA00039600223FB60F868FCF7CCFA02460B4646
:103FB00043EC112B9FED1E0B06F064FB51EC100B34
:103FC0004FF000021C4BFCF77FF902460B461046EF
:103FD0001946FCF709FE0346BB607A68BB681340CC
:103FE0007B60164B5B6F99683B68FA6802FB03F3D2
:103FF000BA6802FA03F3DA43104B5B6F0A409A6027
:104000000E4B5B6F99683B68FA6802FB03F37A68B2
:104010009A400A4B5B6F0A439A60084B5A6F074BF2
:104020005B6F92689A6000BF1037BD4680BD00BFCD
:1040300000000000000000400000F03FCC0600201F
:1040400080B584B000AF786039600223FB60F86807
:10405000FCF778FA02460B4643EC112B9FED1E0B42
:1040600006F010FB51EC100B4FF000021C4BFCF75C
:104070002BF902460B4610461946FCF7B5FD0346E0
:10408000BB607A68BB6813407B60164B5B6FD96876
:104090003B68FA6802FB03F3BA6802FA03F3DA43F7
:1040A000104B5B6F0A40DA600E4B5B6FD9683B6860
:1040B000FA6802FB03F37A689A400A4B5B6F0A4383
:1040C000DA60084B5A6F074B5B6FD268DA6000BF4B
:1040D0001037BD4680BD00BF00000000000000405A
:1040E0000000F03FCC06002080B483B000AF7860C1
:1040F000054B5B6F7A6812049A6100BF0C37BD46AE
:104100005DF8047B704700BFCC06002080B483B00C
:1041100000AF7860044B5B6F7A689A6100BF0C3720
:10412000BD465DF8047B7047CC060020000000000F
:1041300080B584B000AF786039600423FB60F86814
:10414000FCF700FA02460B4643EC112B9FED320BB5
:1041500006F098FA51EC100B4FF00002304BFCF7D0
:10416000B3F802460B4610461946FCF73DFD0346E0
:10417000BB607A68BB6813407B603B68072B22D822
:10418000284B5B6F196A3B68FA6802FB03F3BA6855
:1041900002FA03F3DA43234B5B6F0A401A62214BA6
:1041A0005B6F196A3B68FA6802FB03F37A689A400E
:1041B0001C4B5B6F0A431A621A4B5A6F194B5B6FA9
:1041C000126A1A6221E0174B5B6F596A3B68FA6802
:1041D00002FB03F3BA6802FA03F3DA43114B5B6F95
:1041E0000A405A620F4B5B6F596A3B68FA6802FBE0
:1041F00003F37A689A400B4B5B6F0A435A62094B90
:104200005A6F084B5B6F526A5A6200BF1037BD4647
:1042100080BD00BFAFF30080000000000000004040
:104220000000F03FCC06002080B584B000AF78607D
:1042300039600223FB60F868FCF784F902460B46FC
:1042400043EC112B9FED220B06F01CFA51EC100BE6
:104250004FF00002204BFCF737F802460B461046A1
:104260001946FCF7C1FC0346BB607A68BB68134083
:104270007B601A4BD3F8903019683B68FA6802FBF0
:1042800003F3BA6802FA03F3DA43144BD3F890301D
:104290000A401A60114BD3F8903019683B68FA68ED
:1042A00002FB03F37A689A400C4BD3F890300A4330
:1042B0001A600A4BD3F89020084BD3F8903012685C
:1042C0001A6000BF1037BD4680BD00BFAFF300804D
:1042D00000000000000000400000F03FCC0600207D
:1042E00080B584B000AF786039600223FB60F86865
:1042F000FCF728F902460B4643EC112B9FED220BED
:1043000006F0C0F951EC100B4FF00002204BFBF708
:10431000DBFF02460B4610461946FCF765FC0346D8
:10432000BB607A68BB6813407B601A4BD3F890304F
:1043300099683B68FA6802FB03F3BA6802FA03F370
:10434000DA43144BD3F890300A409A60114BD3F8FB
:10435000903099683B68FA6802FB03F37A689A40E8
:104360000C4BD3F890300A439A600A4BD3F8902054
:10437000084BD3F8903092689A6000BF1037BD4662
:1043800080BD00BFAFF300800000000000000040CF
:104390000000F03FCC06002080B584B000AF78600C
:1043A00039600223FB60F868FCF7CCF802460B4644
:1043B00043EC112B9FED220B06F064F951EC100B2E
:1043C0004FF00002204BFBF77FFF02460B461046E2
:1043D0001946FCF709FC0346BB607A68BB681340CA
:1043E0007B601A4BD3F89030D9683B68FA6802FBBF
:1043F00003F3BA6802FA03F3DA43144BD3F89030AC
:104400000A40DA60114BD3F89030D9683B68FA68FB
:1044100002FB03F37A689A400C4BD3F890300A43BE
:10442000DA600A4BD3F89020084BD3F89030D2686A
:10443000DA6000BF1037BD4680BD00BFAFF300801B
:1044400000000000000000400000F03FCC0600200B
:1044500080B483B000AF7860054BD3F890307A68B1
:1044600012049A6100BF0C37BD465DF8047B7047AB
:10447000CC06002080B483B000AF7860054BD3F841
:1044800090307A689A6100BF0C37BD465DF8047BB6
:10449000704700BFCC06002080B584B000AF7860C4
:1044A00039600423FB60F868FCF74CF802460B46C1
:1044B00043EC112B9FED380B06F0E4F851EC100B98
:1044C0004FF00002364BFBF7FFFE02460B4610464C
:1044D0001946FCF789FB0346BB607A68BB6813404A
:1044E0007B603B68072B28D82E4BD3F89030196A95
:1044F0003B68FA6802FB03F3BA6802FA03F3DA4393
:10450000284BD3F890300A401A62264BD3F89030EB
:10451000196A3B68FA6802FB03F37A689A40214BF8
:10452000D3F890300A431A621E4BD3F890201D4BEB
:10453000D3F89030126A1A6227E01A4BD3F8903001
:10454000596A3B68FA6802FB03F3BA6802FA03F39C
:10455000DA43144BD3F890300A405A62114BD3F827
:104560009030596A3B68FA6802FB03F37A689A4014
:104570000C4BD3F890300A435A620A4BD3F8902080
:10458000084BD3F89030526A5A6200BF1037BD46CC
:1045900080BD00BFAFF300800000000000000040BD
:1045A0000000F03FCC06002080B584B000AF7860FA
:1045B00039600223FB60F868FBF7C4FF02460B4634
:1045C00043EC112B9FED220B06F05CF851EC100B25
:1045D0004FF00002204BFBF777FE02460B461046D9
:1045E0001946FCF701FB0346BB607A68BB681340C1
:1045F0007B601A4BD3F8AC3019683B68FA6802FB51
:1046000003F3BA6802FA03F3DA43144BD3F8AC307D
:104610000A401A60114BD3F8AC3019683B68FA684D
:1046200002FB03F37A689A400C4BD3F8AC300A4390
:104630001A600A4BD3F8AC20084BD3F8AC301268A0
:104640001A6000BF1037BD4680BD00BFAFF30080C9
:1046500000000000000000400000F03FCC060020F9
:1046600080B584B000AF786039600223FB60F868E1
:10467000FBF768FF02460B4643EC112B9FED220B24
:1046800006F000F851EC100B4FF00002204BFBF746
:104690001BFE02460B4610461946FCF7A5FA0346D8
:1046A000BB607A68BB6813407B601A4BD3F8AC30B0
:1046B00099683B68FA6802FB03F3BA6802FA03F3ED
:1046C000DA43144BD3F8AC300A409A60114BD3F85C
:1046D000AC3099683B68FA6802FB03F37A689A4049
:1046E0000C4BD3F8AC300A439A600A4BD3F8AC2099
:1046F000084BD3F8AC3092689A6000BF1037BD46C3
:1047000080BD00BFAFF3008000000000000000404B
:104710000000F03FCC06002080B584B000AF786088
:1047200039600223FB60F868FBF70CFF02460B467A
:1047300043EC112B9FED220B05F0A4FF51EC100B65
:104740004FF00002204BFBF7BFFD02460B46104620
:104750001946FCF749FA0346BB607A68BB68134008
:104760007B601A4BD3F8AC30D9683B68FA6802FB1F
:1047700003F3BA6802FA03F3DA43144BD3F8AC300C
:104780000A40DA60114BD3F8AC30D9683B68FA685C
:1047900002FB03F37A689A400C4BD3F8AC300A431F
:1047A000DA600A4BD3F8AC20084BD3F8AC30D268AF
:1047B000DA6000BF1037BD4680BD00BFAFF3008098
:1047C00000000000000000400000F03FCC06002088
:1047D00080B483B000AF7860054BD3F8AC307A6812
:1047E00012049A6100BF0C37BD465DF8047B704728
:1047F000CC06002080B483B000AF7860054BD3F8BE
:10480000AC307A689A6100BF0C37BD465DF8047B16
:10481000704700BFCC06002080B584B000AF786040
:1048200039600423FB60F868FBF78CFE02460B46F8
:1048300043EC112B9FED380B05F024FF51EC100BCE
:104840004FF00002364BFBF73FFD02460B46104689
:104850001946FCF7C9F90346BB607A68BB68134088
:104860007B603B68072B28D82E4BD3F8AC30196AF5
:104870003B68FA6802FB03F3BA6802FA03F3DA430F
:10488000284BD3F8AC300A401A62264BD3F8AC3030
:10489000196A3B68FA6802FB03F37A689A40214B75
:1048A000D3F8AC300A431A621E4BD3F8AC201D4B30
:1048B000D3F8AC30126A1A6227E01A4BD3F8AC3046
:1048C000596A3B68FA6802FB03F3BA6802FA03F319
:1048D000DA43144BD3F8AC300A405A62114BD3F888
:1048E000AC30596A3B68FA6802FB03F37A689A4075
:1048F0000C4BD3F8AC300A435A620A4BD3F8AC20C5
:10490000084BD3F8AC30526A5A6200BF1037BD462C
:1049100080BD00BFAFF30080000000000000004039
:104920000000F03FCC06002080B584B000AF034605
:10493000FB71FF23FB73324BD3F8C8301B68314A3D
:1049400013602F4BD3F8C8305B682F4A1360FB7994
:10495000184601F027F80346FB73294BDB681A6FF2
:10496000274BDB6842F400421A67254BD3F8C83066
:104970005A6A234BD3F8C83042F0CA025A62204B1D
:10498000D3F8C8305A6A1E4BD3F8C83042F05302ED
:104990005A621B4BD3F8C830DA68194BD3F8C830C9
:1049A00042F08002DA6000BF154BD3F8C830DB68F4
:1049B00003F04003002BF7D00623FB73104BD3F812
:1049C000C8309A680E4BD3F8C83022F020029A60A3
:1049D0000B4BD3F8C830DA68094BD3F8C83022F053
:1049E0008002DA60064B9B681A68054B9B6822F4CC
:1049F00080721A60FB7B18461037BD4680BD00BF31
:104A0000CC060020580800205C08002080B584B047
:104A100000AF0346FB714FF47C13FB60FB791C4A2B
:104A2000A2FB0323DB08DBB2184600F0D9FD0346E6
:104A3000FB72FA79164BA3FB0213D9080B469B00B5
:104A40000B445B00D31ADBB2184600F0C9FD0346E5
:104A5000BB72104BD3F8C8301B680F4A1360FB6859
:104A6000DA430D4B1B6813400B4A1360BB7A1A04E0
:104A7000FB7A1B0513431A46074B1B681343064A70
:104A8000136000F0EBFE00BF1037BD4680BD00BFD5
:104A9000CDCCCCCCCC0600205808002080B584B00A
:104AA00000AF0346FB714FF4FE43FB60FB791C4AE9
:104AB000A2FB0323DB08DBB2184600F091FD03469E
:104AC000FB72FA79164BA3FB0213D9080B469B0025
:104AD0000B445B00D31ADBB2184600F081FD03469D
:104AE000BB72104BD3F8C8301B680F4A1360FB68C9
:104AF000DA430D4B1B6813400B4A1360BB7A1A0252
:104B0000FB7A1B0313431A46074B1B681343064AE1
:104B1000136000F0A3FE00BF1037BD4680BD00BF8C
:104B2000CDCCCCCCCC0600205808002080B584B079
:104B300000AF0346FB717F23FB60FB791B4AA2FB9E
:104B40000323DB08DBB2184600F04AFD0346FB7284
:104B5000FA79164BA3FB0213D9080B469B000B44B2
:104B60005B00D31ADBB2184600F03AFD0346BB7275
:104B70000F4BD3F8C8301B680E4A1360FB68DA434A
:104B80000C4B1B6813400B4A1360BA7AFB7A1B016B
:104B900013431A46074B1B681343064A136000F081
:104BA0005DFE00BF1037BD4680BD00BFCDCCCCCC74
:104BB000CC0600205808002080B584B000AF034622
:104BC000FB714FF47F03FB60FB79194AA2FB0323BF
:104BD000DB08DBB2184600F003FD0346FB72FA79EE
:104BE000134BA3FB0213D9080B469B000B445B003D
:104BF000D31ADBB2184600F0F3FC0346BB72FB6825
:104C0000DA430C4B1B6813400A4A1360BB7A1A0440
:104C1000FB7A1B0513431A46064B1B681343054AD0
:104C2000136000F06DFE00BF1037BD4680BD00BFB1
:104C3000CDCCCCCC5C08002080B584B000AF03465E
:104C4000FB714FF46023FB60FA79124BA3FB021354
:104C5000D9080B469B000B445B00D31ADBB2184605
:104C600000F0BEFC0346FB72FB68DA430A4B1B688C
:104C70001340094A1360FB7A5B031A46064B1B6814
:104C80001343054A136000F03BFE00BF1037BD46DA
:104C900080BD00BFCDCCCCCC5C08002080B584B0FA
:104CA00000AF0346FB714FF4F853FB60FB79194AE0
:104CB000A2FB0323DB08DBB2184600F091FC03469D
:104CC000FB72FA79134BA3FB0213D9080B469B0026
:104CD0000B445B00D31ADBB2184600F081FC03469C
:104CE000BB72FB68DA430C4B1B6813400A4A136023
:104CF000BB7A1A02FB7A1B0313431A46064B1B6846
:104D00001343054A136000F0FBFD00BF1037BD469A
:104D100080BD00BFCDCCCCCC5C08002080B584B079
:104D200000AF0346FB713F23FB60FB79184AA2FBEF
:104D30000323DB08DBB2184600F052FC0346FB728B
:104D4000FA79134BA3FB0213D9080B469B000B44C3
:104D50005B00D31ADBB2184600F042FC0346BB727C
:104D6000FB68DA430B4B1B6813400A4A1360BA7A9C
:104D7000FB7A1B0113431A46064B1B681343054A73
:104D8000136000F0BDFD00BF1037BD4680BD00BF01
:104D9000CDCCCCCC5C08002080B483B000AF786070
:104DA0003960164B9B681A68144B9B6842F48072FA
:104DB0001A60124BD3F8C8305A6A104BD3F8C83077
:104DC00042F0CA025A620D4BD3F8C8305A6A0B4BF4
:104DD000D3F8C83042F053025A627B683A681A60CE
:104DE000064B9B681A68054B9B6822F480721A6018
:104DF00000BF0C37BD465DF8047B7047CC06002031
:104E000090B585B000AF7860464BD3F8C8305B688A
:104E1000FB60FB681B0DDBB203F00F03DAB27B68AB
:104E20001A707B681B78184600F0C0FB03461A46D0
:104E30007B681A70FB681B0CDAB27B68013302F0E6
:104E40000F02D2B21A707B6801331A787B685C1C3F
:104E5000104600F0ABFB03462370FB685B0BDAB235
:104E60007B68023302F00702D2B21A707B68023309
:104E70001A787B689C1C104600F098FB0346237050
:104E8000FB681B0BDAB27B68033302F00102D2B27B
:104E90001A707B6803331A787B68DC1C104600F0BC
:104EA00085FB03462370FB681B0ADAB27B68043378
:104EB00002F00F02D2B21A707B6804331A787B6852
:104EC0001C1D104600F072FB03462370FB681B0993
:104ED000DAB27B68053302F00302D2B21A707B6843
:104EE00005331A787B685C1D104600F05FFB0346B3
:104EF0002370FB68DAB27B68063302F00F02D2B28D
:104F00001A707B6806331A787B689C1D104600F087
:104F10004DFB03462370044AFB68136000BF14373F
:104F2000BD4690BDCC0600205C08002090B585B041
:104F300000AF7860464BD3F8C8301B68FB60444B29
:104F4000D3F8C830DB6803F02003002B7BD0FB686C
:104F50001B0DDBB203F00303DAB27B681A707B68C7
:104F60001B78184600F022FB03461A467B681A702D
:104F7000FB681B0CDAB27B68013302F00F02D2B27D
:104F80001A707B6801331A787B685C1C104600F04D
:104F90000DFB03462370FB681B0BDAB27B68023300
:104FA00002F00702D2B21A707B6802331A787B686B
:104FB0009C1C104600F0FAFA03462370FB681B0A9B
:104FC000DAB27B68033302F00F02D2B21A707B6848
:104FD00003331A787B68DC1C104600F0E7FA0346BE
:104FE0002370FB681B09DAB27B68043302F0070206
:104FF000D2B21A707B6804331A787B681C1D104685
:1050000000F0D4FA03462370FB68DAB27B680533FC
:1050100002F00F02D2B21A707B6805331A787B68EF
:105020005C1D104600F0C2FA03462370094AFB6873
:105030001360074BD3F8C830DA68054BD3F8C83093
:1050400022F02002DA6000BF1437BD4690BD00BFD9
:10505000CC0600205808002080B400AF234BDB684A
:105060001A6C224BDB6842F000521A641F4BDB685B
:105070005A6C1E4BDB6842F480725A641B4BD3F8A7
:1050800018319A68194BD3F8183142F480629A604B
:10509000164BD3F838315A68144BD3F8383142F4F0
:1050A00040325A60114BD3F81831DA680F4BD3F8FD
:1050B000183142F0E062DA600C4BD3F818315A68CC
:1050C0000A4BD3F8183142F400625A60074BD3F808
:1050D00018315A6B054BD3F8183142F012025A635B
:1050E00000BFBD465DF8047B704700BFCC060020C2
:1050F00080B400AF074BD3F838315A68054BD3F86A
:10510000383142F480025A6000BFBD465DF8047B2E
:10511000704700BFCC06002080B400AF074BD3F827
:1051200038315A68054BD3F8383142F400025A60DE
:1051300000BFBD465DF8047B704700BFCC06002071
:1051400080B400AF0C4BD3F818319A680A4BD3F8EF
:10515000183142F001029A60074BD3F818319A686F
:10516000054BD3F8183142F080429A6000BFBD462B
:105170005DF8047B704700BFCC06002080B500AF0F
:10518000134BD3F838311B6803F00203002B15D002
:105190000F4BD3F81831DB6C1846FBF7D3F90246F6
:1051A0000B460C49C1E90023094BD3F818311A68A2
:1051B000074BD3F8183122F010021A60054BD3E9DF
:1051C000002343EC172BB0EE470AF0EE670A80BDD0
:1051D000CC0600208008002080B400AF0B4BD3F831
:1051E00038311B6803F01003002B09D1074BD3F8AB
:1051F00018319A68054BD3F8183142F080429A6012
:1052000000BFBD465DF8047B704700BFCC060020A0
:1052100080B400AF074BD3F818319A68054BD3F828
:10522000183142F001029A6000BFBD465DF8047B70
:10523000704700BFCC0600202DE9B04F8EB000AF04
:10524000034687ED020B3A61FB750B46BB75FB7D90
:10525000092B0AD1B44BD3F83C31DA68B24BD3F8FE
:105260003C3142F48052DA6017E0FB7D082B0AD112
:10527000AD4BD3F83C31DA68AB4BD3F83C3122F478
:105280008052DA6009E0A84BD3F83C31DA68A64BCB
:10529000D3F83C3122F48052DA60BB7D082B0DD16B
:1052A000082387F83730A04BD3F83C31DA689E4B9F
:1052B000D3F83C3142F40042DA601DE0BB7D102B94
:1052C0000DD1102387F83730974BD3F83C31DA688B
:1052D000954BD3F83C3122F40042DA600CE0102305
:1052E00087F83730904BD3F83C31DA688E4BD3F8DF
:1052F0003C3122F40042DA608B4BD3F83C311A691E
:10530000894BD3F83C3122F440521A614FF000022D
:10531000864BD7E90201FAF7D7FF02460B463A60FF
:1053200023F000437B607EA3D3E90023D7E900018B
:10533000FBF7F4FB0346002B0AD07B4BD3F83C3140
:105340001A69794BD3F83C3142F480521A6162E019
:105350004FF00002764BD7E90201FAF7B5FF02469B
:105360000B46924623F0004B6DA3D3E90023504631
:105370005946FBF7D3FB0346002B0AD06A4BD3F800
:105380003C311A69684BD3F83C3122F440521A611F
:1053900041E04FF00002674BD7E90201FAF794FFB2
:1053A00002460B46904623F000495DA3D3E9002353
:1053B00040464946FBF7B2FB0346002B0AD05A4B46
:1053C000D3F83C311A69584BD3F83C3142F440527F
:1053D0001A6120E04FF000024FF08043D7E902014C
:1053E000FAF772FF02460B46144623F000454CA321
:1053F000D3E9002320462946FBF790FB0346002B08
:1054000009D0494BD3F83C311A69474BD3F83C31AA
:1054100042F400521A61484B1B681846FBF792F899
:1054200004460D4697F837303A6902FB03F31846F5
:10543000FBF788F802460B4620462946FBF726FA7A
:1054400002460B46C7E90A2307F11803184697EDF1
:105450000A0B01F02FFA87ED080B334BD3F83C31E0
:1054600000229A60BB7D102B2BD14FF00002334BF2
:10547000D7E90801FBF7E0F802460B4643EC172B8F
:10548000B0EE470AF0EE670A05F0B6F851EC100BE3
:10549000254BD3F83C41FBF7A7FB0346A360224B07
:1054A000D3F83C319C68D7E9062310461946FBF730
:1054B0009BFB03461A011C4BD3F83C3122439A60F4
:1054C0006BE0BB7D082B3DD14FF000021C4BD7E9B0
:1054D0000801FBF7B1F802460B4643EC172BB0EE80
:1054E000470AF0EE670A05F087F851EC100B0E4BF7
:1054F000D3F83C41FBF778FB0346A3600A4BD3F893
:105500003C319C68D7E9062310461946FBF76CFB33
:1055100003461A01044BD3F83C3122439A603CE025
:10552000F168E388B5F8E43ECC0600200000E03FD7
:105530000000F03F0000F83F040000200000304071
:10554000000020404FF00002164BD7E90801FBF79E
:1055500073F802460B4643EC172BB0EE470AF0EE09
:10556000670A05F049F851EC100B0F4BD3F83C419A
:10557000FBF73AFB0346A3600B4BD3F83C319C6826
:10558000D7E9062310461946FBF72EFB03461A01FE
:10559000054BD3F83C3122439A6000BF3837BD46F3
:1055A000BDE8B08F00003040CC06002080B483B04E
:1055B00000AF0346FB71FB791B09DBB21A46920070
:1055C00013445B00DAB2FB7903F00F03DBB2134440
:1055D000DBB218460C37BD465DF8047B704700000F
:1055E00080B483B000AF0346FB71FB790C4AA2FB89
:1055F0000323DB08DBB21B01D8B2FA79084BA3FB0B
:105600000213D9080B469B000B445B00D31ADBB294
:105610000344DBB218460C37BD465DF8047B704787
:10562000CDCCCCCC80B485B000AFF8600B467A60AE
:10563000FB72264B0022DA60244B1B68002B02D041
:10564000012B10D039E0FB7A012202FA03F31A464B
:10565000FB681340002B2DD01C4A7B6853601B4B0A
:1056600001221A6026E0FB7A012202FA03F31A46AD
:10567000FB681340002B1FD0144A7B689360134BC8
:105680009B685A1C114B5B689A4207D90F4B9A686A
:105690000E4B5B68D31A0D4AD36007E00B4B9A6838
:1056A0000A4B5B68D31A013B084AD360074B0022C0
:1056B0001A6001E000BF00E000BF044BDB68184641
:1056C0001437BD465DF8047B704700BF60080020BA
:1056D00080B485B000AFF860B9603B601346FB71E1
:1056E000254B0022DA60244B1B68002B02D0012BD3
:1056F00010D039E0FB79012202FA03F31A46FB6865
:105700001340002B2DD01C4A3B6853601A4B0122DA
:105710001A6026E0FB79012202FA03F31A46BB68FD
:105720001340002B1FD0144A3B689360124B9B68B8
:105730005A1C114B5B689A4207D90F4B9A680E4B63
:105740005B68D31A0C4AD36007E00B4B9A680A4B8C
:105750005B68D31A013B084AD360074B00221A60EA
:1057600001E000BF00E000BF034BDB6818461437C0
:10577000BD465DF8047B70477008002080B483B09C
:1057800000AFB8803B799BB21B029AB27B799BB287
:1057900013439BB218460C37BD465DF8047B704737
:1057A00080B483B000AFB8807B799BB21B029AB201
:1057B0003B799BB213439BB218460C37BD465DF84C
:1057C000047B704780B485B000AF0346FB80FB8844
:1057D0001B0A9BB2DBB23B72FB88DBB27B723B895C
:1057E000BB8100233A7B62F307037A7B62F30F23CA
:1057F00018461437BD465DF8047B704780B485B009
:1058000000AF0346FB80FB881B0A9BB2DBB27B72B6
:10581000FB88DBB23B723B89BB8100233A7B62F39E
:1058200007037A7B62F30F2318461437BD465DF8F1
:10583000047B704780B485B000AF0346FB80FB88D3
:105840001B02FB81FB881B0A9AB2FB8913439BB2A4
:1058500018461437BD465DF8047B704780B400AF2E
:10586000254B9B681A68244B9B6842F480721A602F
:10587000214BD3F8C8305A6A1F4BD3F8C83042F0D6
:10588000CA025A621C4BD3F8C8305A6A1A4BD3F872
:10589000C83042F053025A62174BD3F8C830DA6866
:1058A000154BD3F8C83042F08002DA6000BF124BCB
:1058B000D3F8C830DB6803F04003002BF7D00E4B61
:1058C000D3F8C8300D4A12681A600B4BD3F8C830B1
:1058D000DA68094BD3F8C83022F08002DA60064B50
:1058E0009B681A68044B9B6822F480721A6000BFA0
:1058F000BD465DF8047B7047CC06002058080020A8
:1059000080B400AF254B9B681A68244B9B6842F417
:1059100080721A60214BD3F8C8305A6A1F4BD3F8F3
:10592000C83042F0CA025A621C4BD3F8C8305A6AD7
:105930001A4BD3F8C83042F053025A62174BD3F8CF
:10594000C830DA68154BD3F8C83042F08002DA600C
:1059500000BF124BD3F8C830DB6803F04003002BC4
:10596000F7D00E4BD3F8C8300D4A12685A600B4B73
:10597000D3F8C830DA68094BD3F8C83022F0800277
:10598000DA60064B9B681A68044B9B6822F48072AD
:105990001A6000BFBD465DF8047B7047CC0600204E
:1059A0005C08002080B584B000AF0346FB71104B4B
:1059B000DB681A6C0E4BDB6842F080521A640C4BA9
:1059C0009B681A680A4B9B6842F480721A60FB79E4
:1059D0001846FDF733FC0123FB73FB791846FDF7EE
:1059E0008BFC0223FB73FB7B18461037BD4680BD42
:1059F000CC06002080B400AF0D4B1A680D4BD3F8D5
:105A00000831013A5A600B4BD3F8083100229A60F2
:105A1000084BD3F808311A68064BD3F8083142F026
:105A200006021A6000BFBD465DF8047B704700BFE8
:105A300004000020CC06002080B483B000AF786062
:105A4000164B1B68164AA2FB03239A09154BD3F881
:105A50000831013A5A60134BD3F808311A68114BD8
:105A6000D3F8083142F001021A600F4B00221A608D
:105A700000BF0D4B1B687A689A42FAD8094BD3F8DD
:105A800008311A68074BD3F8083122F001021A6076
:105A900000BF0C37BD465DF8047B70470400002052
:105AA000D34D6210CC0600205408002080B483B08F
:105AB00000AF7860174B1B685B09174AA2FB0323F2
:105AC000DA09164BD3F80831013A5A60134BD3F870
:105AD00008311A68114BD3F8083142F001021A60FC
