:020000040800F2
:1000000000000220D51C0008251D0008251D000841
:10001000251D0008251D0008251D00080000000002
:10002000000000000000000000000000251D000886
:10003000251D000800000000251D00082D60000897
:10004000251D0008251D0008251D0008251D000888
:10005000251D0008251D0008251D0008251D000878
:10006000251D0008251D0008251D0008251D000868
:10007000251D0008251D0008251D0008251D000858
:10008000251D0008251D0008251D0008251D000848
:10009000251D0008251D0008251D0008251D000838
:1000A000311A0008251D0008251D0008251D00081F
:1000B000251D0008251D0008251D0008251D000818
:1000C000251D0008251D0008251D0008251D000808
:1000D000251D0008251D0008251D0008251D0008F8
:1000E000251D0008251D0008251D0008251D0008E8
:1000F000251D0008251D0008251D0008251D0008D8
:10010000251D0008251D0008251D0008251D0008C7
:10011000251D0008251D0008251D0008251D0008B7
:10012000251D0008251D0008251D0008251D0008A7
:10013000251D00080000000000000000251D00082B
:10014000251D0008251D0008251D0008251D000887
:10015000251D0008251D0008251D0008251D000877
:10016000251D0008251D0008251D0008251D000867
:10017000251D0008251D0008251D000800000000A1
:1001800000000000251D0008000000000000000025
:10019000251D00080000000000000000251D0008CB
:1001A000000000000000000000000000251D000805
:1001B000251D0008251D0008251D0008251D000817
:0401C000251D0008F1
:1001D00010B5054C237833B9044B13B10448AFF381
:1001E00000800123237010BDE0010020000000000A
:1001F000C4B9000808B5034B1BB103490348AFF36A
:10020000008008BD00000000E4010020C4B900081F
:10021000034613F8012B002AFBD1181A0138704746
:1002200001F0FF01102A2BDB10F0070F08D010F8A7
:10023000013B013A8B422DD010F0070F42B3F6D1AB
:10024000F0B441EA012141EA014122F007047FF0C4
:1002500000070023F0E80256083C85EA010586EA1B
:10026000010685FA47F5A3FA87F586FA47F6A5FA57
:1002700087F68EB9EED1F0BC01F0FF0102F0070263
:1002800032B110F8013B013A83EA010313B1F8D10E
:100290000020704701387047002D06BF35460338EF
:1002A000073815F0010F07D1013015F4807F02BF28
:1002B000013015F4C03F0130F0BC0138704700BF79
:1002C00081F0004102E000BF83F0004330B54FEA07
:1002D00041044FEA430594EA050F08BF90EA020F74
:1002E0001FBF54EA000C55EA020C7FEA645C7FEA07
:1002F000655C00F0E2804FEA5454D4EB5555B8BF2A
:100300006D420CDD2C4480EA020281EA030382EA9A
:10031000000083EA010180EA020281EA0303362D2C
:1003200088BF30BD11F0004F4FEA01314FF4801CFF
:100330004CEA113102D0404261EB410113F0004F11
:100340004FEA03334CEA133302D0524263EB4303C8
:1003500094EA050F00F0A780A4F10104D5F1200E66
:100360000DDB02FA0EFC22FA05F2801841F10001C1
:1003700003FA0EF2801843FA05F359410EE0A5F195
:1003800020050EF1200E012A03FA0EFC28BF4CF0C6
:10039000020C43FA05F3C01851EBE37101F000457C
:1003A00007D54FF0000EDCF1000C7EEB00006EEB89
:1003B0000101B1F5801F1BD3B1F5001F0CD3490813
:1003C0005FEA30004FEA3C0C04F101044FEA44526A
:1003D00012F5800F80F09A80BCF1004F08BF5FEAF1
:1003E000500C50F1000041EB045141EA050130BDD1
:1003F0005FEA4C0C404141EB0101013C28BFB1F5E3
:10040000801FE9D291F0000F04BF01460020B1FA2D
:1004100081F308BF2033A3F10B03B3F120020CDA00
:100420000C3208DD02F1140CC2F10C0201FA0CF0DE
:1004300021FA02F10CE002F11402D8BFC2F1200C43
:1004400001FA02F120FA0CFCDCBF41EA0C019040F9
:10045000E41AA2BF01EB0451294330BD6FEA040442
:100460001F3C1CDA0C340EDC04F11404C4F120022D
:1004700020FA04F001FA02F340EA030021FA04F33F
:1004800045EA030130BDC4F10C04C4F1200220FA96
:1004900002F001FA04F340EA0300294630BD21FAD4
:1004A00004F0294630BD94F0000F83F4801306BF9A
:1004B00081F480110134013D4EE77FEA645C18BF8E
:1004C0007FEA655C29D094EA050F08BF90EA020F25
:1004D00005D054EA000C04BF1946104630BD91EA1D
:1004E000030F1EBF0021002030BD5FEA545C05D120
:1004F0004000494128BF41F0004130BD14F580045F
:100500003CBF01F5801130BD01F0004545F0FE41D2
:1005100041F470014FF0000030BD7FEA645C1ABF07
:10052000194610467FEA655C1CBF0B46024650EA3E
:10053000013406BF52EA033591EA030F41F400216A
:1005400030BD00BF90F0000F04BF0021704730B5F0
:100550004FF4806404F132044FF000054FF00001C5
:1005600050E700BF90F0000F04BF0021704730B586
:100570004FF4806404F1320410F0004548BF40425B
:100580004FF000013EE700BF42004FEAE2014FEAB0
:1005900031014FEA02701FBF12F07F4393F07F4F8B
:1005A00081F06051704732F07F4208BF704793F08E
:1005B0007F4F04BF41F40021704730B54FF46074A1
:1005C00001F0004521F000411CE700BF50EA0102A4
:1005D00008BF704730B54FF000050AE050EA01024D
:1005E00008BF704730B511F0004502D5404261EBBD
:1005F00041014FF4806404F132045FEA915C3FF4FE
:10060000D8AE4FF003025FEADC0C18BF03325FEA9A
:10061000DC0C18BF033202EBDC02C2F1200300FA4B
:1006200003FC20FA02F001FA03FE40EA0E0021FA70
:1006300002F11444BDE600BF70B54FF0FF0C4CF45E
:10064000E06C1CEA11541DBF1CEA135594EA0C0F10
:1006500095EA0C0F00F0DEF82C4481EA030621EA4B
:100660004C5123EA4C5350EA013518BF52EA033586
:1006700041F4801143F4801338D0A0FB02CE4FF038
:100680000005E1FB02E506F00042E0FB03E54FF068
:100690000006E1FB03569CF0000F18BF4EF0010E60
:1006A000A4F1FF04B6F5007F64F5407404D25FEA5C
:1006B0004E0E6D4146EB060642EAC62141EA55510F
:1006C0004FEAC52040EA5E504FEACE2EB4F1FD0C51
:1006D00088BFBCF5E06F1ED8BEF1004F08BF5FEACF
:1006E000500E50F1000041EB045170BD06F0004681
:1006F00046EA010140EA020081EA0301B4EB5C042E
:10070000C2BFD4EB0C0541EA045170BD41F4801125
:100710004FF0000E013C00F3AB8014F1360FDEBF4A
:10072000002001F0004170BDC4F10004203C35DA26
:100730000C341BDC04F11404C4F1200500FA05F3A9
:1007400020FA04F001FA05F240EA020001F000424A
:1007500021F0004110EBD37021FA04F642EB0601C0
:100760005EEA430E08BF20EAD37070BDC4F10C04EA
:10077000C4F1200500FA04F320FA05F001FA04F2AE
:1007800040EA020001F0004110EBD37041F100019A
:100790005EEA430E08BF20EAD37070BDC4F12005A5
:1007A00000FA05F24EEA020E20FA04F301FA05F20D
:1007B00043EA020321FA04F001F0004121FA04F2B5
:1007C00020EA020000EBD3705EEA430E08BF20EA85
:1007D000D37070BD94F0000F0FD101F000464000BF
:1007E00041EB010111F4801F08BF013CF7D041EA41
:1007F000060195F0000F18BF704703F00046520045
:1008000043EB030313F4801F08BF013DF7D043EA15
:100810000603704794EA0C0F0CEA135518BF95EACB
:100820000C0F0CD050EA410618BF52EA4306D1D152
:1008300081EA030101F000414FF0000070BD50EA71
:10084000410606BF1046194652EA430619D094EAFB
:100850000C0F02D150EA013613D195EA0C0F05D1E5
:1008600052EA03361CBF104619460AD181EA030139
:1008700001F0004141F0FE4141F470014FF00000F1
:1008800070BD41F0FE4141F4780170BD70B54FF08C
:10089000FF0C4CF4E06C1CEA11541DBF1CEA13550C
:1008A00094EA0C0F95EA0C0F00F0A7F8A4EB0504EE
:1008B00081EA030E52EA03354FEA013100F08880E5
:1008C0004FEA03334FF0805545EA131343EA1263AE
:1008D0004FEA022245EA111545EA10654FEA002663
:1008E0000EF000419D4208BF964244F1FD0404F51C
:1008F000407402D25B084FEA3202B61A65EB030578
:100900005B084FEA32024FF480104FF4002CB6EB34
:10091000020E75EB030E22BFB61A754640EA0C00B4
:100920005B084FEA3202B6EB020E75EB030E22BFF4
:10093000B61A754640EA5C005B084FEA3202B6EB35
:10094000020E75EB030E22BFB61A754640EA9C00F4
:100950005B084FEA3202B6EB020E75EB030E22BFC4
:10096000B61A754640EADC0055EA060E18D04FEA82
:10097000051545EA16754FEA06164FEAC30343EA22
:1009800052734FEAC2025FEA1C1CC0D111F4801FEF
:100990000BD141EA00014FF000004FF0004CB6E7E8
:1009A00011F4801F04BF01430020B4F1FD0C88BF87
:1009B000BCF5E06F3FF6AFAEB5EB030C04BFB6EB92
:1009C000020C5FEA500C50F1000041EB045170BD85
:1009D0000EF0004E4EEA113114EB5C04C2BFD4EBB2
:1009E0000C0541EA045170BD41F480114FF0000E36
:1009F000013C90E645EA060E8DE60CEA135594EAB2
:100A00000C0F08BF95EA0C0F3FF43BAF94EA0C0FB4
:100A10000AD150EA01347FF434AF95EA0C0F7FF429
:100A200025AF104619462CE795EA0C0F06D152EA7D
:100A300003353FF4FDAE1046194622E750EA410661
:100A400018BF52EA43067FF4C5AE50EA41047FF472
:100A50000DAF52EA43057FF4EBAE12E74FF0FF3CD7
:100A600006E000BF4FF0010C02E000BF4FF0010CA8
:100A70004DF804CD4FEA410C7FEA6C5C4FEA430C21
:100A800018BF7FEA6C5C1BD001B050EA410C0CBF70
:100A900052EA430C91EA030F02BF90EA020F0020D2
:100AA000704710F1000F91EA030F58BF994208BF39
:100AB00090422CBFD8176FEAE37040F001007047F6
:100AC0004FEA410C7FEA6C5C02D150EA013C07D14D
:100AD0004FEA430C7FEA6C5CD6D152EA033CD3D098
:100AE0005DF8040B704700BF8446104662468C4692
:100AF0001946634600E000BF01B5FFF7B7FF0028C5
:100B000048BF10F1000F01BD4DF808EDFFF7F4FFED
:100B10000CBF012000205DF808FB00BF4DF808ED78
:100B2000FFF7EAFF34BF012000205DF808FB00BF9B
:100B30004DF808EDFFF7E0FF94BF012000205DF8BD
:100B400008FB00BF4DF808EDFFF7CEFF94BF012072
:100B500000205DF808FB00BF4DF808EDFFF7C4FF6B
:100B600034BF012000205DF808FB00BF4FEA410CB4
:100B70007FEA6C5C02D150EA013C0AD14FEA430C97
:100B80007FEA6C5C02D152EA033C02D14FF00000D4
:100B900070474FF0010070474FEA410212F5001212
:100BA00015D211D56FF47873B3EB625212D94FEAB4
:100BB000C12343F0004343EA505311F0004F23FA9E
:100BC00002F018BF404270474FF00000704750EAF3
:100BD000013005D111F0004008BF6FF000407047B0
:100BE0004FF00000704700BF4A0011D212F500120A
:100BF00011D20DD56FF47873B3EB62520ED44FEA75
:100C0000C12343F0004343EA505323FA02F07047F4
:100C10004FF00000704750EA013002D14FF0FF3032
:100C200070474FF0000070474FEA4102B2F1E043D5
:100C300024BFB3F5001CDCF1FE5C0DD901F0004CC3
:100C40004FEAC0024CEA5070B2F1004F40EB830013
:100C500008BF20F00100704711F0804F21D113F13F
:100C60003872BCBF01F00040704741F480114FEA78
:100C70005252C2F11802C2F1200C10FA0CF320FA01
:100C800002F018BF40F001004FEAC1234FEAD3231E
:100C900003FA0CFC40EA0C0023FA02F34FEA430388
:100CA000CCE77FEA625307D150EA01331EBF4FF011
:100CB000FE4040F44000704701F0004040F0FE402C
:100CC00040F40000704700BF38B5002200230446FE
:100CD0000D46FFF723FF28B920462946BDE83840D6
:100CE00000F00AB8204605F1004100F005F8404246
:100CF00061EB410138BD00BFD0B50C4B0022064668
:100D00000F46FFF799FCFFF76FFF0446FFF71AFC49
:100D1000074B0022FFF790FC02460B46304639464F
:100D2000FFF7D2FAFFF760FF2146D0BD0000F03D8B
:100D30000000F04100000000B0B5F0B002AF4FF08D
:100D400000024FF00003C7E96C230023C7F8AC3161
:100D50003C23C7F8A831A44C3B46184601F060FF7D
:100D600007F5DC73A3F5DC73204619464FF4D27304
:100D70001A4605F093F99C4BD3F86031984700F080
:100D800051F900F073F9994C3B46184601F07CF993
:100D900007F5DC73A3F5DC732046194690231A4649
:100DA00005F07CF9924C3B46184601F0D9F807F55E
:100DB000DC73A3F5DC731D460FCD0FC495E8070067
:100DC00084E807008B4C3B46184601F0C9F807F54C
:100DD000DC73A3F5DC731D460FCD0FC495E8070047
:100DE00084E80700844C3B46184601F0B9F807F543
:100DF000DC73A3F5DC731D460FCD0FC495E8070027
:100E000084E807007D4B03221A707D4B00221A7084
:100E10007C4B00221A807C4B00221A70724B5B6F55
:100E20001946714B5B6F03F11402784C384600236E
:100E3000019301230093022300F076FF07F5DC7392
:100E4000A3F5DC72234607CA83E80700664B9A6D58
:100E50006F4C3B461146184601F0B6FA07F5DC73B5
:100E6000A3F5DC731D460FCD0FC40FCD0FC495E85D
:100E7000070084E807005C4BD3F8383198475A4B99
:100E8000D3F840319847584BD3F844319847564BE4
:100E9000D3F8E83001209847534BD3F81031524A29
:100EA000D2F8E42050325B4910469847504B9B697A
:100EB0004D4AD26B126911464D4898474D4B9B697C
:100EC000494A926D126911464A4898474A4B9B69B4
:100ED000454A526F12691146474898474C4B9B6AE6
:100EE000984700F003F94A4B5B6A002101209847BC
:100EF000474B5C693D4BD3F88C303B4AD2F8E42039
:100F0000503211464448984703461846A047404B84
:100F10005B6A042101209847D7F8A831D7F8AC21A3
:100F20009A4217D2304BD3F84831984753EC102BE4
:100F3000D7E96C01FFF7CAF902460B46C7E96C23F3
:100F4000294BD3F84C319847D7F8AC310133C7F867
:100F5000AC31ABE7D7F8A801FFF704FB02460B461C
:100F6000D7E96C01FFF792FC02460B46C7E96C23F8
:100F700019A3D3E90023D7E96C01FFF787FC0246E8
:100F80000B461046194616A3D3E90023FFF79CF938
:100F900002460B46104619464FF000021F4BFFF762
:100FA00095F902460B46C7E96C23194B9C690F4B18
:100FB000D3F88C50D7E96C01FFF716FE0346DF2209
:100FC00019461748A847034607211846A04700239B
:100FD000C7F8AC316AE700BFCDCCCCCCCCCC084054
:100FE000638C31C618037340FC010020A00300206D
:100FF000300400204C04002068040020BC040020C1
:10100000C8040020CA040020CC040020840400206E
:101010009004002043554200E0B900080000394028
:10102000E4B9000880B500AF0F4BDB681A6B0E4BBC
:10103000DB6842F007021A630B4B1B6C0521012091
:101040009847094B9B6C052100209847064B9B6FE6
:101050000D2100209847044BD3F880300D2101204A
:10106000984700BF80BD00BFFC01002080B400AFE6
:101070001D4BDB685A6C1C4BDB6842F480325A64AF
:10108000194BD3F820311A68174BD3F8203142F0AE
:1010900080721A60144BD3F830314BF2DF12DA62EF
:1010A000114BD3F8303141F66A525A630E4BD3F8E4
:1010B000303114229A620C4BD3F83031DA680A4B83
:1010C000D3F8303142F00302DA60074BD3F8303105
:1010D0001A68054BD3F8303142F081021A6000BF24
:1010E000BD465DF8047B7047FC010020F0B585B07B
:1010F00004AF704B1B78013B082B00F26B8401A2FC
:1011000052F823F029110008EF110008E512000839
:10111000F713000811150008EF150008051700085F
:10112000E3170008F9180008634B5B6A00210020F0
:101130009847614B9B69102160489847604BD3F8F2
:101140000C31604898475C4B5B6A0021032098474C
:10115000594B9C695C4BD3F88C505A4B1B78184602
:10116000584B5B781E46574B9B789C46554BDB781B
:101170001A46544B1B791946524B5B7902930191E5
:1011800000926346324601465048A8470346112163
:101190001846A0474A4BD3F870414D4B58694C4B09
:1011A00019694C4B1B880D22A04703464A4A13601D
:1011B000494B1B68052B06D9474B1B680A2B02D8E5
:1011C0003C4B02221A70444B1B680A2B06D9424B37
:1011D0001B681D2B02D8374B04221A703E4B1B682C
:1011E000282B40F2F983334B03221A70F4E3324B7D
:1011F0005B6A0021002098472F4B9B6910213748DC
:1012000098472F4BD3F808312E4898472A4B5B6AF2
:10121000002103209847284B9C692B4BD3F88C5016
:10122000284B5B791846274B9B791E46254BDB786C
:101230009C46244B1B791A46224B1B781946214B9E
:101240005B7802930191009263463246014624483E
:10125000A847034611211846A047194BD3F87041FF
:101260001B4B58691A4B19691A4B1B880D22A04752
:101270000346194A1360184B1B68052B06D9164BF9
:101280001B680A2B02D80B4B01221A70124B1B68E9
:101290000A2B06D9104B1B681D2B02D8054B0722C1
:1012A0001A700D4B1B68282B40F29883014B0322C8
:1012B0001A7093E3BC04002090040020ECB90008ED
:1012C000FC010020D0040020A0030020F4B9000895
:1012D00068040020CA040020C40400200CBA0008DE
:1012E00014BA00087B4B5B6A002100209847794BB9
:1012F0009B69102178489847784BD3F80831784893
:101300009847744B5B6A002102209847714B9C6997
:10131000744BD3F88C50724B5B791846704B9B79A9
:101320001E466F4BDB789C466D4B1B791A466C4B07
:101330001B7819466A4B5B780293019100926346D1
:10134000324601466848A847034611211846A0477F
:10135000624BD3F80C31624898475E4B5B6A0021C0
:10136000032098475B4B9C695E4BD3F88C505C4BD9
:101370001B7818465A4B5B781E46594B9B789C4607
:10138000574BDB781A46564B1B791946544B5B7901
:101390000293019100926346324601465348A847A2
:1013A000034611211846A0474C4BD3F87041504BCF
:1013B00058694F4B19694F4B1B880D22A0470346B4
:1013C000282B40F20D83434B5B6A00210220984793
:1013D000404B9B691121484898473E4B5B6A00216E
:1013E000032098473B4B9B690F2143489847434B49
:1013F00001221A70F4E2374B5B6A00210020984703
:10140000344B9B6910213E489847344BD3F87041C8
:10141000374B5869364B1969364B1B880D22A0474C
:101420000346384A1360374B1B68002B23D0354BDB
:101430001B68052B1FD8344B1B780133DAB2324BB3
:101440001A70314B1B78172B02D92F4B00221A70C0
:10145000204B5B6A0021022098471E4B9C69214B60
:10146000D3F88C30284A127811462848984703460A
:1014700010211846A047234B1B680A2B10D9214B7B
:101480001B68132B0CD8134B5B6A00210220984772
:10149000104B9B69102118489847184B05221A7069
:1014A000184B1B68132B40F29D820A4B5B6A00218C
:1014B00002209847074B9B6910210F4898470F4B14
:1014C00001221A70054BD3F8FC300F4A12781046EF
:1014D000984787E2900400202CBA0008FC01002005
:1014E000D0040020A003002014BA0008F4B90008BA
:1014F00068040020CA04002038BA0008BC04002098
:101500003CBA0008C4040020BD0400204CBA000806
:101510006E4B5B6A0021002098476C4B9B69102141
:101520006B4898476B4BD3F870416B4B58696A4BCB
:1015300019696A4B1B880D22A0470346684A13604D
:10154000674B1B68002B23D0654B1B68052B1FD8EE
:10155000644B1B780133DAB2624B1A70614B1B7813
:101560003B2B02D95F4B00221A70584B5B6A00215B
:1015700002209847554B9C695B4BD3F88C30594AF5
:101580001278114659489847034610211846A0473B
:10159000534B1B680A2B10D9514B1B68132B0CD8CB
:1015A0004A4B5B6A002102209847484B9B691021F7
:1015B0004F4898474F4B06221A70494B1B68132B14
:1015C00040F21282414B5B6A0021022098473F4B58
:1015D0009B69102146489847464B01221A703D4BA3
:1015E000D3F800313F4A127810469847FCE1374B58
:1015F0005B6A002100209847344B9B6910213E48CC
:101600009847344BD3F87041334B5869324B1969C2
:10161000324B1B880D22A0470346314A1360304BE2
:101620001B68002B23D02E4B1B68052B1FD8334B78
:101630001B780133DAB2314B1A70304B1B783B2BDD
:1016400002D92E4B00221A70204B5B6A0021022027
:1016500098471E4B9C69244BD3F88C30274A12784C
:10166000114627489847034610211846A0471C4BAF
:101670001B680A2B10D91A4B1B68132B0CD8134B61
:101680005B6A002102209847104B9B691021184883
:101690009847184B01221A70114B1B68132B40F20C
:1016A000A5810A4B5B6A002102209847074B9B6982
:1016B00010210F4898470F4B01221A70054BD3F8A1
:1016C00004310E4A1278104698478FE190040020AA
:1016D00058BA0008FC01002068040020CA04002059
:1016E000C4040020BE040020A003002068BA000843
:1016F00038BA0008BC04002074BA0008BF040020F7
:1017000088BA00086E4B5B6A0021002098476C4B3A
:101710009B6910216B4898476B4BD3F870416B4B1A
:1017200058696A4B19696A4B1B880D22A04703460A
:10173000684A1360674B1B68002B23D0654B1B68FE
:10174000052B1FD8644B1B780133DAB2624B1A7039
:10175000614B1B78632B02D95F4B00221A70584BE8
:101760005B6A002102209847554B9C695B4BD3F87C
:101770008C30594A1278114659489847034610212F
:101780001846A047534B1B680A2B10D9514B1B68B6
:10179000132B0CD84A4B5B6A002102209847484B18
:1017A0009B6910214F4898474F4B08221A70494BAC
:1017B0001B68132B40F21C81414B5B6A0021022005
:1017C00098473F4B9B69102146489847464B022259
:1017D0001A703D4BD3F8F8303F4A127810469847BC
:1017E00006E1374B5B6A002100209847344B9B6928
:1017F00010213E489847344BD3F87041334B586919
:10180000324B1969324B1B880D22A0470346314ADF
:101810001360304B1B68002B23D02E4B1B68052B0D
:101820001FD8334B1B780133DAB2314B1A70304B6F
:101830001B780C2B02D92E4B01221A70204B5B6AAD
:101840000021022098471E4B9C69244BD3F88C3012
:10185000274A127811462748984703461021184610
:10186000A0471C4B1B680A2B10D91A4B1B68132B63
:101870000CD8134B5B6A002102209847104B9B69E0
:10188000102118489847184B09221A70114B1B68F1
:10189000132B40F2AF800A4B5B6A0021022098476D
:1018A000074B9B6910210F4898470F4B02221A7073
:1018B000054BD3F8F0300E4A12781046984799E05D
:1018C0009004002094BA0008FC0100206804002065
:1018D000CA040020C4040020C0040020A00300208B
:1018E000A0BA000838BA0008BC040020A8BA000852
:1018F00000000020B4BA0008424B5B6A00210020BF
:101900009847404B9B6910213F4898473F4BD3F87D
:1019100070413F4B58693E4B19693E4B1B880D2265
:10192000A04703463C4A13603B4B1B68002B23D067
:10193000394B1B68052B1FD8384B1B780133DAB2A3
:10194000364B1A70354B1B781F2B02D9334B0122B3
:101950001A702C4B5B6A002102209847294B9C6926
:101960002F4BD3F88C302D4A127811462D489847CA
:10197000034610211846A047274B1B680A2B10D995
:10198000254B1B68132B0CD81E4B5B6A00210220D1
:1019900098471C4B9B69102123489847234B0222F0
:1019A0001A701D4B1B68132B26D9164B5B6A00213E
:1019B00002209847134B9B6910211B4898471B4BEB
:1019C00002221A70114BD3F8EC30144A12781046E8
:1019D000984711E000BF10E000BF0EE000BF0CE030
:1019E00000BF0AE000BF08E000BF06E000BF04E05F
:1019F00000BF02E000BF00E000BF00BF0437BD46EB
:101A0000F0BD00BF90040020BCBA0008FC0100201B
:101A100068040020CA040020C40400200100002043
:101A2000A0030020C8BA000838BA0008BC0400208F
:101A300080B500AF364BD3F830311B6903F001039A
:101A4000002B50D0324BD3F830311A69304BD3F8D9
:101A5000303122F001021A612E4B1B78002B1ED070
:101A60002B4BDB6C202098472B4B5B682B4A92F961
:101A70000010CAB2013AD2B250B2284A1070012204
:101A80008A40D2B2D243D2B210469847234B93F940
:101A90000030002B21DA1F4B00221A701DE01C4B76
:101AA0001B6D202098471C4B5B681C4A92F9001064
:101AB000CAB20132D2B250B2184A107001228A4022
:101AC000D2B2D243D2B210469847144B93F90030A9
:101AD000072B02DD0F4B01221A70114B1B880133BB
:101AE0009AB20F4B1A800A4BD3F830311B6903F0BE
:101AF0000203002B09D0064BD3F830311A69044B8E
:101B0000D3F8303122F002021A6100BF80BD00BF5D
:101B1000FC010020CC04002084040020C804002024
:101B2000CA04002080B400AF01231846BD465DF80A
:101B3000047B704780B582B000AF7860396004F0F4
:101B400083FA034616221A604FF0FF33184608370F
:101B5000BD4680BD80B582B000AF78604FF0FF31E8
:101B60007868FFF7E7FFFEE780B586B000AFF86062
:101B7000B9607A6000237B610AE0AFF30080014620
:101B8000BB685A1CBA60CAB21A707B6901337B61A8
:101B90007A697B689A42F0DB7B6818461837BD4645
:101BA00080BD80B586B000AFF860B9607A60002370
:101BB0007B6109E0BB685A1CBA601B781846AFF31A
:101BC00000807B6901337B617A697B689A42F1DB33
:101BD0007B6818461837BD4680BD80B483B000AF1F
:101BE00078604FF0FF3318460C37BD465DF8047B34
:101BF000704780B483B000AF786039603B684FF4C1
:101C000000525A60002318460C37BD465DF8047B2D
:101C1000704780B483B000AF7860012318460C375A
:101C2000BD465DF8047B704780B485B000AFF860B6
:101C3000B9607A60002318461437BD465DF8047B0E
:101C40007047000080B586B000AF7860144A154B2D
:101C5000D31A7B617B693B61134B1B68002B02D15C
:101C6000114B124A1A60104B1A687B6813443A6988
:101C70009A4207D204F0E8F903460C221A604FF0AA
:101C8000FF3309E0084B1B68FB60074B1A687B6851
:101C90001344054A1360FB6818461837BD4680BDDB
:101CA0000000022000040000E8040020F0080020EA
:101CB00080B400AF064BD3F88830054A43F4700374
:101CC000C2F8883000BFBD465DF8047B704700BF96
:101CD00000ED00E0DFF834D00D480E490E4A002335
:101CE00002E0D458C4500433C4188C42F9D30B4AD0
:101CF0000B4C002301E013600432A242FBD3FFF738
:101D0000D7FF04F0A7F9FFF717F87047000002208B
:101D100000000020DC010020B0BF0008E00100202E
:101D2000F0080020FEE7000090B488B000AFF86033
:101D3000B9607A60FB70384ABB681360374A7B68C9
:101D40001360374AFB781370364A97F828301370BF
:101D5000354A97F82C3013702F4B1B681A68FB78A4
:101D60005B000321994097F828305B00032000FABC
:101D700003F3194397F82C305B00032000FA03F3B8
:101D80000B43DB431946244B1B680A401A60224B65
:101D90001B681A68FB785B000121994097F828308E
:101DA0005B00012000FA03F3194397F82C305B0025
:101DB000012000FA03F30B431946174B1B680A4333
:101DC0001A60164B1B681A68FB780121994097F836
:101DD0002830012000FA03F3194397F82C30012032
:101DE00000FA03F30B43DB4319460C4B1B680A4014
:101DF0001A600E4B7B610E4BBB610E4BFB61FB68A7
:101E00001C4607F1140393E8070084E80700F8680C
:101E10002037BD4690BC7047EC040020F004002041
:101E2000F4040020F5040020F6040020391E000808
:101E3000D11E0008151F000880B483B000AF034610
:101E4000FB71FB79002B0DD01E4B1B681A681E4BD3
:101E50001B78194601238B4019461A4B1B680A430D
:101E60001A600DE0174B1B681A68174B1B78194650
:101E700001238B40DB431946124B1B680A401A6052
:101E8000104B1B681A68114B1B78194601238B40B5
:101E900019460C4B1B680A431A600A4B1B681A68E8
:101EA0000A4B1B78194601238B40DB431946054B2F
:101EB0001B680A401A6000BF0C37BD465DF8047B02
:101EC000704700BFF0040020F4040020F504002057
:101ED00080B584B000AF0346FB710023FB730FE0B5
:101EE000FB7B012202FA03F35AB297F90730134041
:101EF0005BB2DBB21846FFF79FFFFB7B0133FB733E
:101F0000FB7B072BECD900F005F800BF1037BD466E
:101F100080BD000080B400AF0F4B1B681A680F4BE8
:101F20001B78194601238B4019460B4B1B680A434B
:101F30001A60094B1B681A68084B1B781946012365
:101F40008B40DB431946044B1B680A401A6000BFF4
:101F5000BD465DF8047B7047F0040020F6040020C5
:101F6000B0B48BB000AF78600023FB6000233B610E
:101F7000084B7B627B681D4607F10C040FCC0FC534
:101F800094E8070085E8070078682C37BD46B0BCA8
:101F9000704700BF991F000880B582B000AF78601D
:101FA00039607B685A687B681A607B683A685A6057
:101FB000786800F019F802467B689A60786800F04B
:101FC00024F802467B68DA60786800F030F8024650
:101FD0007B681A61786800F040F802467B685A61B5
:101FE00000BF0837BD4680BD80B485B000AF7860C3
:101FF0007B681A687B685B681340FB60FB68184667
:102000001437BD465DF8047B704780B485B000AFDF
:1020100078607B681A687B685B681343FB60FB68C9
:10202000DB4318461437BD465DF8047B704780B427
:1020300085B000AF78607B681A687B685B68534046
:10204000FB607B685B68FA681340FB60FB681846BE
:102050001437BD465DF8047B704780B485B000AF8F
:1020600078607B685A687B681B685340FB607B68BC
:102070001B68FA681340FB60FB6818461437BD46BE
:102080005DF8047B7047000080B5A6B000AF7860B3
:102090000A4B002283F85F20094BBB67094BC7F846
:1020A00094307B68184607F108039022194603F024
:1020B000F5FF78689837BD4680BD00BFF804002062
:1020C000112200088D23000880B485B000AF78602D
:1020D0000023FB6002E0FB680133FB60FB687A6869
:1020E00013441B78002BF6D1FB6818461437BD4605
:1020F0005DF8047B704780B586B000AF7860002340
:102100007B617868FFF7E0FF0346013B3B6117E026
:102110007B697A6813441B78FB733B697A681A44BD
:102120007B6979680B4412781A703B697A681344AA
:10213000FA7B1A707B6901337B613B69013B3B6130
:102140007A693B699A42E3DB00BF00BF1837BD469E
:1021500080BD000080B487B000AFF860B96013465E
:10216000FB710023FB75FA68274B83FB0213991060
:10217000D317C91A0B469B000B445B00D11ACAB295
:10218000FB7D591CF9751946BB680B443032D2B23D
:102190001A7015E0FA681C4B83FB02139910D317D1
:1021A000C91A0B469B000B445B00D11ACAB2FB7DD7
:1021B000591CF9751946BB680B443032D2B21A70FB
:1021C000FB68114A82FB03129210DB17D31AFB60E3
:1021D000FB68002BDEDC07E0FB7D5A1CFA751A4613
:1021E000BB68134430221A70FA7DFB799A42F3D30C
:1021F000FB7DBA68134400221A70FB7D18461C3719
:10220000BD465DF8047B70476766666600000000A7
:10221000B0B58AB000AF87ED020B78600B46FB705B
:102220000023FB774FF000024FF00003D7E90201D3
:10223000FEF774FC0346002B08D0BC68FB6883F0F3
:102240000045C7E90845FF23BB7705E0D7E902232E
:10225000C7E908230123BB77D7E90801FEF7C4FCCF
:102260000346BB61B869FEF76DF902460B46D7E934
:102270000801FEF729F802460B46C7E90423BB69AB
:10228000012279681846FFF765FF0346FB7797F947
:102290001E30002B08DAFB7F5A1CFA771A467B683F
:1022A00013442D221A7007E0FB7F5A1CFA771A4656
:1022B0007B68134420221A70FB7F7A681344002243
:1022C0001A707868FFF717FFFB78002B30D0FB7887
:1022D000062B2DD8FB7F5A1CFA771A467B681344CD
:1022E0002E221A70FB781846FEF72CF902460B4690
:1022F00043EC112B9FED220B08F048FC51EC100B26
:10230000D7E90423FEF798F902460B461046194612
:10231000FEF742FCFB7F7A681344FA781946FFF710
:1023200019FFFB7F7A6813441846FFF7E4FE21E0AB
:10233000FB7F5A1CFA771A467B6813442E221A70C8
:102340004FF00002104BD7E90401FEF775F9024681
:102350000B4610461946FEF71FFCFB7F7A681344B4
:1023600002221946FFF7F6FEFB7F7A6813441846EF
:10237000FFF7C1FE7B6818462837BD46B0BD00BFD9
:102380000000000000002440000059400FB480B558
:1023900082B000AF07F114033B603B683A695F21EC
:1023A000084805F05DFC78607B68002B01DA0023AB
:1023B00000E0044B18460837BD46BDE8804004B035
:1023C000704700BFF8040020B0B5F8B000AFC7F800
:1023D000AC01C7F8A811254C3B46184600F020FC7C
:1023E00007F5F073A3F5F073204619464FF4D27346
:1023F0001A4603F053FE1E4AD7F8A83113601D4B4E
:10240000C7F8B4311C4BC7F8B8311C4BC7F8BC3106
:102410001B4BC7F8C0311B4BC7F8C4311A4BC7F868
:10242000C8311A4BC7F8CC31194BC7F8D031194B0A
:10243000C7F8D431184BC7F8D831184BC7F8DC317E
:1024400000F02EF8D7F8AC311D4607F5DA740FCC42
:102450000FC50FCC0FC594E8070085E80700D7F833
:10246000AC0107F5F077BD46B0BD00BF58050020B0
:10247000FC060020D525000835280008292A000878
:10248000612A0008432A0008812A0008AF2A0008B0
:102490000B2B0008312B0008512B0008DD2B000806
:1024A00080B500AF484B1B681A68474B1B6822F089
:1024B0003F021A60444B1B681A68434B1B6842F08A
:1024C00015021A60404B1B681A683F4B1B6822F0CC
:1024D000C0021A603C4B1B68DA683B4B1B6822F059
:1024E000C002DA60384B1B68DA68374B1B6842F071
:1024F0004002DA60344B1B689B68334A126823F44D
:102500007F4323F03F0393602F4B1B689B682E4A49
:10251000126843F47F4343F03F0393602A4B1B68E8
:102520001B6903F00803294A1360294BD3F82831AB
:10253000142098470021382000F04CF8244BD3F8A1
:102540002C31042098470021382000F043F8204B1C
:10255000D3F82C310A2098470021382000F03AF8AF
:1025600000F062FA0021282000F034F800F05CFA54
:102570000021282000F02EF800F056FA00210C204F
:1025800000F028F800F050FA00210C2000F022F8AA
:1025900000F04AFA0021012000F01CF800F044FA93
:1025A0000021012000F016F800F03EFA002106207C
:1025B00000F010F800F038FA0021062000F00AF8C8
:1025C00000F032FA00BF80BDFC06002000070020AA
:1025D0005805002080B582B000AF03460A46FB7163
:1025E0001346BB80914BD3F89831914A1268012170
:1025F00010469847BB88002B08D08C4BD3F88C3101
:102600008B4A126800211046984707E0874BD3F8A1
:102610009831874A1268002110469847844B1B68FE
:102620001A68834B1B6822F47F421A60804B1B6838
:102630001A687F4B1B6842F4AA421A607C4B1B68E5
:10264000DA687B4B1B6822F47F42DA60774BD3F861
:102650008C31774A126802211046984797F9073063
:10266000002B08DA714BD3F88C31714A12680721BC
:102670001046984707E06D4BD3F898316C4A1268C2
:10268000072110469847FB7903F04003002B08D040
:10269000664BD3F88C31664A12680621104698477B
:1026A00007E0624BD3F89831614A12680621104660
:1026B0009847FB7903F02003002B08D05B4BD3F83D
:1026C0008C315B4A126805211046984707E0574B4A
:1026D000D3F89831564A1268052110469847FB797D
:1026E00003F01003002B08D0504BD3F88C31504A24
:1026F000126804211046984707E04C4BD3F89831F4
:102700004B4A1268042110469847484BD3F8983139
:10271000474A1268022110469847444BD3F8983133
:10272000434A1268012110469847BB88002B08D005
:102730003E4BD3F88C313E4A126800211046984730
:1027400007E03A4BD3F89831394A12680021104615
:102750009847364BD3F88C31354A1268022110461F
:102760009847FB7903F00803002B08D02F4BD3F8D0
:102770008C312F4A126807211046984707E02B4BEF
:10278000D3F898312A4A1268072110469847FB79F6
:1027900003F00403002B08D0244BD3F88C31244AD7
:1027A000126806211046984707E0204BD3F898316D
:1027B0001F4A1268062110469847FB7903F002036E
:1027C000002B08D0194BD3F88C31194A1268052117
:1027D0001046984707E0154BD3F89831144A126811
:1027E000052110469847FB7903F00103002B08D020
:1027F0000E4BD3F88C310E4A1268042110469847CC
:1028000007E00A4BD3F89831094A126804211046B0
:102810009847064BD3F89831054A126802211046B2
:10282000984700BF0837BD4680BD00BF580500204F
:10283000FC06002080B584B000AF0346FB80002377
:10284000BB600023FB73764B1B681A68744B1B68D4
:1028500022F47F421A60724B1B68DA68704B1B6867
:1028600022F47F42DA606E4B1B68DA686C4B1B689F
:1028700042F4AA42DA606B4BD3F88C31684A126892
:10288000012110469847FB88002B08D0654BD3F8F0
:102890008C31634A126800211046984707E0614B6B
:1028A000D3F898315E4A12680021104698475D4B74
:1028B000D3F88C315A4A1268022110469847584B77
:1028C0001B681B69BB60574BD3F89831544A126898
:1028D000022110469847BB6803F08003002B04D008
:1028E000FB7B63F07F03FB7303E0FB7B03F07F0361
:1028F000FB73BB6803F04003002B04D0FB7B43F069
:102900004003FB7303E0FB7B23F04003FB73BB68D6
:1029100003F02003002B04D0FB7B43F02003FB7368
:1029200003E0FB7B23F02003FB73BB6803F0100381
:10293000002B04D0FB7B43F01003FB7303E0FB7B15
:1029400023F01003FB73374BD3F88C31344A1268F1
:10295000012110469847FB88002B08D0314BD3F853
:102960008C312F4A126800211046984707E02D4B02
:10297000D3F898312A4A1268002110469847294B0B
:10298000D3F88C31264A1268022110469847244B0E
:102990001B681B69BB60234BD3F89831204A12682F
:1029A000022110469847BB6803F08003002B04D037
:1029B000FB7B43F00803FB7303E0FB7B23F008037E
:1029C000FB73BB6803F04003002B04D0FB7B43F098
:1029D0000403FB7303E0FB7B23F00403FB73BB687E
:1029E00003F02003002B04D0FB7B43F00203FB73B6
:1029F00003E0FB7B23F00203FB73BB6803F01003CF
:102A0000002B04D0FB7B43F00103FB7303E0FB7B53
:102A100023F00103FB73FB7B18461037BD4680BDD6
:102A2000FC0600205805002080B500AF00BF002044
:102A3000FFF700FF03465BB2002BF8DB00BF00BFCF
:102A400080BD80B582B000AF0120FFF7F3FE0346E2
:102A5000FB71FFF7E9FFFB7918460837BD4680BDDB
:102A600080B582B000AF0346FB71FB7901211846A7
:102A7000FFF7B0FDFFF7D8FF00BF0837BD4680BDA8
:102A800080B584B000AF786008E07B685A1C7A603B
:102A90001B78FB73FB7B1846FFF7E2FF7B681B7814
:102AA000002BF2D100BF00BF1037BD4680BD80B5FE
:102AB00084B000AF786039600023FB600FE07B6872
:102AC0005A1C7A601B78FB72FB680133FB60FA6862
:102AD0003B689A4208D8FB7A1846FFF7C1FF7B682B
:102AE0001B78002BEBD107E000BF05E02020FFF7AB
:102AF000B7FFFB680133FB60FA683B689A42F5D385
:102B000000BF00BF1037BD4680BD80B582B000AFAA
:102B1000786005E02020FFF7A3FF7B68013B7B6026
:102B20007B68002BF6D100BF00BF0837BD4680BDD3
:102B300080B500AF00210120FFF74CFD034BD3F817
:102B400028310220984700BF80BD00BF58050020F3
:102B500080B582B000AF786039607B68032B37D8CE
:102B600001A252F823F000BF792B00088F2B000838
:102B7000A52B0008BB2B00083B68DBB2803BDBB217
:102B800000211846FFF726FDFFF74EFF21E03B68C6
:102B9000DBB2403BDBB200211846FFF71BFDFFF71D
:102BA00043FF16E03B68DBB26C3BDBB2002118460A
:102BB000FFF710FDFFF738FF0BE03B68DBB22C3B63
:102BC000DBB200211846FFF705FDFFF72DFF00E0FF
:102BD00000BF00BF0837BD4680BD00BF80B582B0D2
:102BE00000AF0D4B1B681B6903F008037B600B4BA8
:102BF0001B687A6853403B603A687B6813403B60CF
:102C00003B68002B01D0FFF74BFC044A7B68136044
:102C100000BF0837BD4680BDFC060020000700202D
:102C200080B582B000AF7860994B00221A60994B52
:102C300000221A6098494FF000024FF00003C1E9EA
:102C40000023964B964A1A60944B964A5A60934BCF
:102C5000954A9A60914B954ADA60904B944A1A6172
:102C60008E4B944A5A618D4B934A9A618B4B934A8F
:102C7000DA618A4B924A1A62884B924A5A62874BAF
:102C8000914A9A62854B914A1A63844B904A9A639F
:102C9000824B904ADA63814B8F4A1A647F4B8F4A8A
:102CA0005A647E4B8E4A9A647C4B8E4ADA647B4B24
:102CB0008D4A1A65794B8D4A5A65784B8C4A9A65CC
:102CC000764B8C4ADA65754B8B4A1A66734B8B4A86
:102CD0005A66724B8A4A9A66704B8A4ADA666F4B1A
:102CE000894A1A676D4B894A5A676C4B884A9A67BA
:102CF0006A4B884ADA67694B874AC3F88020674B7A
:102D0000864AC3F88420654B854AC3F88820634B04
:102D1000844AC3F88C20614B834AC3F890205F4BF0
:102D2000824AC3F894205D4B814AC3F898205B4BDC
:102D3000804AC3F89C20594B7F4AC3F8A020574BC8
:102D40007E4AC3F8A420554B7D4AC3F8A820534BB4
:102D50007C4AC3F8AC20514B7B4AC3F8B0204F4BA0
:102D60007A4AC3F8B4204D4B794AC3F8B8204B4B8C
:102D7000784AC3F8BC20494B774AC3F8C020474B78
:102D8000764AC3F8C420454B754AC3F8C820434B64
:102D9000744AC3F8CC20414B734AC3F8D0203F4B50
:102DA000724AC3F8D4203D4B714AC3F8D8203B4B3C
:102DB000704AC3F8DC20394B6F4AC3F8E020374B28
:102DC0006E4AC3F8E420354B6D4AC3F8E820334B14
:102DD0006C4AC3F8EC20314B6B4AC3F8F0202F4B00
:102DE0006A4AC3F8F4202D4B694AC3F8F8202B4BEC
:102DF000684AC3F8FC20294B674AC3F80021274BD7
:102E0000664AC3F80421254B654AC3F80821234BC1
:102E1000644AC3F80C21214B634AC3F810211F4BAD
:102E2000624AC3F814211D4B614AC3F818211B4B99
:102E3000604AC3F81C21194B5F4AC3F82021174B85
:102E40005E4AC3F82421154B5D4AC3F82821134B71
:102E50005C4AC3F82C21114B5B4AC3F830210F4B5D
:102E60005A4AC3F834210D4B594AC3F838210B4B49
:102E7000584AC3F83C21094B574AC3F84021074B35
:102E8000564AC3F84421054B554AC3F84821A9E0E6
:102E9000B4080020C4080020D8080020040700203F
:102EA000003C024000300240007000400038024008
:102EB000613100081D320008A532000861330008A6
:102EC000E533000885360008E93700083D3800087A
:102ED0009138000800000240B13A0008593B000850
:102EE000013C0008A93C0008CD3C0008F13C00086A
:102EF00000040240D13D0008793E0008213F00084F
:102F0000C93F0008ED3F00081140000800080240DA
:102F1000F14000089941000841420008E9420008D8
:102F20000D43000831430008000C02401144000822
:102F3000C944000881450008394600085D4600087C
:102F40008146000800100240714700082948000827
:102F5000E148000899490008BD490008E149000816
:102F6000001C0240D14A0008894B0008414C00086F
:102F7000F94C00081D4D0008414D00080028004094
:102F8000314E000825520008A551000841510008A3
:102F9000C1500008154F0008A54F00083550000823
:102FA0000953000835540008A152000800380140B8
:102FB000006002400064024000E100E010E000E038
:102FC000415F0008B55F000800400140002001405B
:102FD00061550008F95500082156000849560008B7
:102FE00085560008334B344AC3F84C21314B334AE1
:102FF000C3F850212F4B324AC3F854212D4B314A8C
:10300000C3F858212B4B304AC3F85C21294B2F4A77
:10301000C3F86021274B2E4AC3F86421254B2D4A63
:10302000C3F86821234B2C4AC3F86C21214B2B4A4F
:10303000C3F870211F4B2A4AC3F874211D4B294A3B
:10304000C3F878211B4B284AC3F87C21194B274A27
:10305000C3F88021174B264AC3F88421154B254A13
:10306000C3F88821134B244AC3F88C21114B234AFF
:10307000C3F890210F4B224AC3F894210D4B214AEB
:10308000C3F898210B4B204AC3F89C21094B1F4AD7
:10309000C3F8A02102F032FF7B68064A18461146A9
:1030A0004FF4D2731A4602F0F9FF78680837BD462C
:1030B00080BD00BF04070020E15600081957000832
:1030C0000023014000100140415700081131000861
:1030D000B55A0008E95A00082D5B0008D95B0008C2
:1030E000855C0008A95C0008CD5C0008055D00084F
:1030F0003D5D0008E5380008373900085B390008F5
:1031000077390008CB390008F1390008113A000876
:1031100080B584B002AF04230193082300930223F7
:103120004FF4C8720821002000F0ACFA002000F033
:103130005BFB002301220121012000F053F9002054
:1031400000F00EF8002000F069F80346FB71022041
:1031500000F0A8F8FB7918460837BD4680BD00008E
:1031600080B485B000AF78600123FB600123BB60B1
:1031700048E07B68002B17D1FB68002B0AD0264B58
:10318000DB681A68244BDB6842F001021A600023F6
:10319000FB6037E0204BDB681B6803F00203002B69
:1031A00030D00023BB602DE07B68012B17D1FB687A
:1031B000002B0AD0184BDB681A68174BDB6842F407
:1031C00080321A600023FB601CE0134BDB681B6835
:1031D00003F40033002B15D00023BB6012E07B68A2
:1031E000022B0DD1FB68002B07D00B4BDB681A6854
:1031F000094BDB6842F480221A6001237B6001E006
:1032000000237B60BB68002BB3D100BF00BF143725
:10321000BD465DF8047B70470407002080B483B08E
:1032200000AF0346FB711E4BDB689A681C4BDB68E2
:1032300022F003029A60FB79032B18D0032B1FDCCA
:10324000012B02D0022B09D01AE0154BDB689A68DB
:10325000134BDB6842F001029A6012E0104BDB680E
:103260009A680F4BDB6842F002029A6009E00C4B4F
:10327000DB689A680A4BDB6842F003029A6000E060
:1032800000BF074BDB689B689B08DBB203F00303BE
:10329000DBB218460C37BD465DF8047B704700BFB3
:1032A0000407002080B485B000AF78600123FB6084
:1032B0000123BB6048E07B68022B17D1FB68002B21
:1032C0000AD0264BDB685A6F244BDB6842F00102C0
:1032D0005A670023FB6037E0204BDB685B6F03F02D
:1032E0000203002B30D00023BB602DE07B68012B54
:1032F00017D1FB68002B0AD0184BDB681A6F174BED
:10330000DB6842F001021A670023FB601CE0134BEC
:10331000DB681B6F03F00203002B15D00023BB609A
:1033200012E07B68042B0DD1FB68002B07D00B4B00
:10333000DB681A6F094BDB6842F004021A6701234D
:103340007B6001E002237B60BB68002BB3D100BF30
:1033500000BF1437BD465DF8047B704704070020AA
:1033600080B483B000AF0346FB711D4BDB681A6F5E
:103370001B4BDB6822F440721A67FB79032B17D0D2
:10338000032B1EDC012B0AD0022B1AD1144BDB6855
:103390001A6F134BDB6842F400721A671AE0104B85
:1033A000DB681A6F0E4BDB6842F480721A6711E01B
:1033B0000B4BDB681A6F0A4BDB6842F440721A67EA
:1033C00008E0074BDB681A6F054BDB6842F480723C
:1033D0001A6700BF00BF0C37BD465DF8047B70471D
:1033E0000407002080B487B000AFF860B9607A604D
:1033F0003B60A24B7B61A24BDB6899687B69DA4337
:103400009F4BDB680A409A603B68012B0BD93B68F5
:103410001F2B08D89A4BDB6899683B681A04984BB5
:10342000DB680A439A607B68023B0E2B44D801A2FA
:1034300052F823F071340008B934000883340008CE
:10344000B9340008B9340008B934000895340008CC
:10345000B9340008B9340008B9340008B934000898
:10346000B9340008B9340008B9340008A73400089A
:10347000834BDB689A68824BDB6842F400429A60B7
:103480001BE07F4BDB689A687D4BDB6842F420428F
:103490009A6012E07A4BDB689A68794BDB6842F4F9
:1034A00040429A6009E0764BDB689A68744BDB68AF
:1034B00042F460429A6000E000BFBB68023B0E2B02
:1034C00044D801A252F823F0053500084D35000814
:1034D000173500084D3500084D3500084D350008FA
:1034E000293500084D3500084D3500084D350008D8
:1034F0004D3500084D3500084D3500084D350008A4
:103500003B3500085E4BDB689A685D4BDB6842F434
:1035100080529A601BE05A4BDB689A68584BDB6814
:1035200042F4A0529A6012E0554BDB689A68544B03
:10353000DB6842F4C0529A6009E0514BDB689A683C
:103540004F4BDB6842F4E0529A6000E000BFFB683A
:10355000B3F5007F00F08180FB68B3F5007F00F2D7
:103560008580FB68B3F5807F6ED0FB68B3F5807F04
:103570007CD8FB68802B5ED0FB68802B76D8FB68FC
:10358000102B27D8FB68022B70D3FB68023B0E2B55
:103590006CD801A252F823F0DD3500086D36000822
:1035A000EF3500086D3600086D3600086D360008EE
:1035B000013600086D3600086D3600086D360008CB
:1035C0006D3600086D3600086D3600086D3600084F
:1035D00013360008FB68402B24D047E0284BDB68FB
:1035E0009A68274BDB6842F080029A603FE0244BE8
:1035F000DB689A68224BDB6842F090029A6036E002
:103600001F4BDB689A681E4BDB6842F0A0029A6091
:103610002DE01B4BDB689A68194BDB6842F0B00267
:103620009A6024E0164BDB689A68154BDB6842F021
:10363000C0029A601BE0124BDB689A68104BDB6893
:1036400042F0D0029A6012E00D4BDB689A680C4B96
:10365000DB6842F0E0029A6009E0094BDB689A6897
:10366000074BDB6842F0F0029A6000E000BF00BF49
:103670001C37BD465DF8047B704700BFF0FC1F009F
:103680000407002080B487B000AFF860B9607A60AA
:103690003B60524B7B61524BDB685968504BDB6897
:1036A0007A690A435A607B6A012B0DD97B6A072B22
:1036B0000AD84B4BDB6859687B6A1B0763F0E04212
:1036C000474BDB680A405A603B6A012B0DD93B6AC5
:1036D0000F2B0AD8424BDB6859683B6A1B0663F024
:1036E00070623F4BDB680A405A60FB68012B0BD1CC
:1036F0003B4BDB685968FB689B0563F48002384BE1
:10370000DB680A405A6007E0354BDB685A68344B87
:10371000DB6822F480025A603B68023B062B33D8F8
:1037200001A252F823F000BF45370008893700088E
:1037300057370008893700086937000889370008BB
:103740007B370008264BDB685A68254BDB6822F480
:1037500040325A6019E0224BDB685A68204BDB6824
:1037600022F400325A6010E01D4BDB685A681C4B93
:10377000DB6822F480325A6007E0194BDA68184B94
:10378000DB6852685A6000E000BF7B68312B0ED9BD
:103790007B68B3F5D87F0AD8114BDB6859687B6822
:1037A0009A01104B13430E4AD2680B405360BB681A
:1037B000012B0CD9BB683F2B09D8094BDB68596832
:1037C000BB6863F03F02064BDB680A405A6000BFEB
:1037D0001C37BD465DF8047B704700BFFF7F437F09
:1037E000040700203F80FFFF80B483B000AF034692
:1037F000FB71FB79002B10D00F4BDB681A680E4B66
:10380000DB6842F080721A6000BF0B4BDB681B68FC
:1038100003F00073002BF8D007E0074BDB681A6851
:10382000054BDB6822F080721A6000BF0C37BD4682
:103830005DF8047B704700BF0407002080B483B0AC
:1038400000AF0346FB71FB79002B10D00F4BDB68F8
:103850001A680E4BDB6842F080621A6000BF0B4BA7
:10386000DB681B6803F00063002BF8D007E0074B10
:10387000DB681A68054BDB6822F080621A6000BFC3
:103880000C37BD465DF8047B704700BF040700207D
:1038900080B483B000AF0346FB71FB79002B10D0DE
:1038A0000F4BDB681A680E4BDB6842F080521A60DF
:1038B00000BF0B4BDB681B6803F00053002BF8D0F4
:1038C00007E0074BDB681A68054BDB6822F0805283
:1038D0001A6000BF0C37BD465DF8047B704700BF1F
:1038E000040700200EB480B484B000AF78607B6918
:1038F000002B19DD7B69202B16DC07F11803BB6058
:103900000023FB730CE0BB681A1DBA601B68012220
:1039100002FA03F31A467B689A61FB7B0133FB735F
:10392000FB7B7A699A42EEDC00BF1037BD465DF83A
:10393000047B03B0704780B483B000AF7860396017
:1039400001223B6802FA03F31A467B689A6100BFC2
:103950000C37BD465DF8047B704780B483B000AF80
:10396000786039603A687B689A6100BF0C37BD4661
:103970005DF8047B70470EB480B484B000AF78600B
:103980007B69002B1ADD7B69202B17DC07F11803FC
:10399000BB600023FB730DE0BB681A1DBA601B6897
:1039A000012202FA03F31B041A467B689A61FB7B2F
:1039B0000133FB73FB7B7A699A42EDDC00BF103761
:1039C000BD465DF8047B03B0704780B483B000AFA0
:1039D0007860396001223B6802FA03F31B041A463F
:1039E0007B689A6100BF0C37BD465DF8047B704769
:1039F00080B483B000AF786039603B681B041A461E
:103A00007B689A6100BF0C37BD465DF8047B704748
:103A100080B586B000AFF860B9607A603B60F86846
:103A2000FCF790FD02460B4643EC112B9FED1C0B5F
:103A300007F0ACF851EC100B4FF000021A4BFCF7FA
:103A400043FC02460B4610461946FDF7CDF80346E7
:103A50007B617A687B6913407B60BB681A683B684E
:103A6000F96801FB03F3796901FA03F3DB431A40B8
:103A7000BB681A60BB681A683B68F96801FB03F30E
:103A8000796801FA03F31A43BB681A60BB681A68C5
:103A9000BB681A6000BF1837BD4680BDAFF3008019
:103AA00000000000000000400000F03F00000000A7
:103AB00080B584B000AF786039600223FB60F8689D
:103AC000FCF740FD02460B4643EC112B9FED1E0B0D
:103AD00007F05CF851EC100B4FF000021C4BFCF7A8
:103AE000F3FB02460B4610461946FDF77DF80346E8
:103AF000BB607A68BB6813407B60164BDB6B196850
:103B00003B68FA6802FB03F3BA6802FA03F3DA438C
:103B1000104BDB6B0A401A600E4BDB6B19683B687D
:103B2000FA6802FB03F37A689A400A4BDB6B0A439C
:103B30001A60084BDA6B074BDB6B12681A6000BF28
:103B40001037BD4680BD00BF0000000000000040EF
:103B50000000F03F0407002080B584B000AF78601B
:103B600039600223FB60F868FCF7ECFC02460B4668
:103B700043EC112B9FED1E0B07F008F851EC100BD6
:103B80004FF000021C4BFCF79FFB02460B46104611
:103B90001946FDF729F80346BB607A68BB681340F5
:103BA0007B60164BDB6B99683B68FA6802FB03F39A
:103BB000BA6802FA03F3DA43104BDB6B0A409A60EF
:103BC0000E4BDB6B99683B68FA6802FB03F37A687B
:103BD0009A400A4BDB6B0A439A60084BDA6B074B3F
:103BE000DB6B92689A6000BF1037BD4680BD00BF96
:103BF00000000000000000400000F03F040700202B
:103C000080B584B000AF786039600223FB60F8684B
:103C1000FCF798FC02460B4643EC112B9FED1E0B64
:103C200006F0B4FF51EC100B4FF000021C4BFCF7F8
:103C30004BFB02460B4610461946FCF7D5FF0346E0
:103C4000BB607A68BB6813407B60164BDB6BD9683E
:103C50003B68FA6802FB03F3BA6802FA03F3DA433B
:103C6000104BDB6B0A40DA600E4BDB6BD9683B68AC
:103C7000FA6802FB03F37A689A400A4BDB6B0A434B
:103C8000DA60084BDA6B074BDB6BD268DA6000BF97
:103C90001037BD4680BD00BF00000000000000409E
:103CA0000000F03F0407002080B483B000AF7860CC
:103CB000054BDB6B7A6812049A6100BF0C37BD4676
:103CC0005DF8047B704700BF0407002080B483B018
:103CD00000AF7860044BDB6B7A689A6100BF0C37E9
:103CE000BD465DF8047B704704070020000000001B
:103CF00080B586B000AF7860396004237B61786955
:103D0000FCF720FC02460B4643EC112B9FED2C0BDD
:103D100006F03CFF51EC100B4FF000022A4BFCF771
:103D2000D3FA02460B4610461946FCF75DFF0346E0
:103D30003B6120227B69B2FBF3F33A68B2FBF3F3F9
:103D4000FB607A683B6913407B60FB68012B33D8CA
:103D50001E4BDB6BFA68083253F822103B687A6915
:103D600002FB03F33A6902FA03F3DA43174BDB6B06
:103D70001140FA68083243F82210144BDB6BFA68E2
:103D8000083253F822103B687A6902FB03F37A6821
:103D90009A400E4BDB6B1143FA68083243F822104D
:103DA0000A4BDA6B094BDB6BF968083152F82110CA
:103DB000FA68083243F8221000BF1837BD4680BDAC
:103DC00000000000000000400000F03F0407002059
:103DD00080B584B000AF786039600223FB60F8687A
:103DE000FCF7B0FB02460B4643EC112B9FED1E0B7C
:103DF00006F0CCFE51EC100B4FF000021C4BFCF710
:103E000063FA02460B4610461946FCF7EDFE0346E0
:103E1000BB607A68BB6813407B60164B9B6D19686A
:103E20003B68FA6802FB03F3BA6802FA03F3DA4369
:103E3000104B9B6D0A401A600E4B9B6D19683B68D6
:103E4000FA6802FB03F37A689A400A4B9B6D0A43B7
:103E50001A60084B9A6D074B9B6D12681A6000BF81
:103E60001037BD4680BD00BF0000000000000040CC
:103E70000000F03F0407002080B584B000AF7860F8
:103E800039600223FB60F868FCF75CFB02460B46D6
:103E900043EC112B9FED1E0B06F078FE51EC100B3E
:103EA0004FF000021C4BFCF70FFA02460B4610467F
:103EB0001946FCF799FE0346BB607A68BB6813405D
:103EC0007B60164B9B6D99683B68FA6802FB03F3B5
:103ED000BA6802FA03F3DA43104B9B6D0A409A600A
:103EE0000E4B9B6D99683B68FA6802FB03F37A6896
:103EF0009A400A4B9B6D0A439A60084B9A6D074B98
:103F00009B6D92689A6000BF1037BD4680BD00BFB0
:103F100000000000000000400000F03F0407002007
:103F200080B584B000AF786039600223FB60F86828
:103F3000FCF708FB02460B4643EC112B9FED1E0BD2
:103F400006F024FE51EC100B4FF000021C4BFCF766
:103F5000BBF902460B4610461946FCF745FE0346E0
:103F6000BB607A68BB6813407B60164B9B6DD96859
:103F70003B68FA6802FB03F3BA6802FA03F3DA4318
:103F8000104B9B6D0A40DA600E4B9B6DD9683B6805
:103F9000FA6802FB03F37A689A400A4B9B6D0A4366
:103FA000DA60084B9A6D074B9B6DD268DA6000BFF0
:103FB0001037BD4680BD00BF00000000000000407B
:103FC0000000F03F0407002080B483B000AF7860A9
:103FD000054B9B6D7A6812049A6100BF0C37BD4691
:103FE0005DF8047B704700BF0407002080B483B0F5
:103FF00000AF7860044B9B6D7A689A6100BF0C3704
:10400000BD465DF8047B70470407002000000000F7
:1040100080B586B000AF7860396004237B61786931
:10402000FCF790FA02460B4643EC112B9FED2C0B4C
:1040300006F0ACFD51EC100B4FF000022A4BFCF7E0
:1040400043F902460B4610461946FCF7CDFD0346E0
:104050003B6120227B69B2FBF3F33A68B2FBF3F3D6
:10406000FB607A683B6913407B60FB68012B33D8A7
:104070001E4B9B6DFA68083253F822103B687A6930
:1040800002FB03F33A6902FA03F3DA43174B9B6D21
:104090001140FA68083243F82210144B9B6DFA68FD
:1040A000083253F822103B687A6902FB03F37A68FE
:1040B0009A400E4B9B6D1143FA68083243F8221068
:1040C0000A4B9A6D094B9B6DF968083152F8211023
:1040D000FA68083243F8221000BF1837BD4680BD89
:1040E00000000000000000400000F03F0407002036
:1040F00080B584B000AF786039600223FB60F86857
:10410000FCF720FA02460B4643EC112B9FED1E0BE9
:1041100006F03CFD51EC100B4FF000021C4BFCF77D
:10412000D3F802460B4610461946FCF75DFD0346E0
:10413000BB607A68BB6813407B60164B5B6F196885
:104140003B68FA6802FB03F3BA6802FA03F3DA4346
:10415000104B5B6F0A401A600E4B5B6F19683B682F
:10416000FA6802FB03F37A689A400A4B5B6F0A43D2
:104170001A60084B5A6F074B5B6F12681A6000BFDA
:104180001037BD4680BD00BF0000000000000040A9
:104190000000F03F0407002080B584B000AF7860D5
:1041A00039600223FB60F868FCF7CCF902460B4645
:1041B00043EC112B9FED1E0B06F0E8FC51EC100BAD
:1041C0004FF000021C4BFCF77FF802460B461046EE
:1041D0001946FCF709FD0346BB607A68BB681340CB
:1041E0007B60164B5B6F99683B68FA6802FB03F3D0
:1041F000BA6802FA03F3DA43104B5B6F0A409A6025
:104200000E4B5B6F99683B68FA6802FB03F37A68B0
:104210009A400A4B5B6F0A439A60084B5A6F074BF0
:104220005B6F92689A6000BF1037BD4680BD00BFCB
:1042300000000000000000400000F03F04070020E4
:1042400080B584B000AF786039600223FB60F86805
:10425000FCF778F902460B4643EC112B9FED1E0B41
:1042600006F094FC51EC100B4FF000021C4BFCF7D5
:104270002BF802460B4610461946FCF7B5FC0346E0
:10428000BB607A68BB6813407B60164B5B6FD96874
:104290003B68FA6802FB03F3BA6802FA03F3DA43F5
:1042A000104B5B6F0A40DA600E4B5B6FD9683B685E
:1042B000FA6802FB03F37A689A400A4B5B6F0A4381
:1042C000DA60084B5A6F074B5B6FD268DA6000BF49
:1042D0001037BD4680BD00BF000000000000004058
:1042E0000000F03F0407002080B483B000AF786086
:1042F000054B5B6F7A6812049A6100BF0C37BD46AC
:104300005DF8047B704700BF0407002080B483B0D1
:1043100000AF7860044B5B6F7A689A6100BF0C371E
:10432000BD465DF8047B70470407002000000000D4
:1043300080B586B000AF7860396004237B6178690E
:10434000FCF700F902460B4643EC112B9FED2C0BBA
:1043500006F01CFC51EC100B4FF000022A4BFBF74F
:10436000B3FF02460B4610461946FCF73DFC0346D8
:104370003B6120227B69B2FBF3F33A68B2FBF3F3B3
:10438000FB607A683B6913407B60FB68012B33D884
:104390001E4B5B6FFA68083253F822103B687A694B
:1043A00002FB03F33A6902FA03F3DA43174B5B6F3C
:1043B0001140FA68083243F82210144B5B6FFA6818
:1043C000083253F822103B687A6902FB03F37A68DB
:1043D0009A400E4B5B6F1143FA68083243F8221083
:1043E0000A4B5A6F094B5B6FF968083152F821107C
:1043F000FA68083243F8221000BF1837BD4680BD66
:1044000000000000000000400000F03F0407002012
:1044100080B584B000AF786039600223FB60F86833
:10442000FCF790F802460B4643EC112B9FED220B54
:1044300006F0ACFB51EC100B4FF00002204BFBF7E9
:1044400043FF02460B4610461946FCF7CDFB0346D8
:10445000BB607A68BB6813407B601A4BD3F890301E
:1044600019683B68FA6802FB03F3BA6802FA03F3BF
:10447000DA43144BD3F890300A401A60114BD3F84A
:10448000903019683B68FA6802FB03F37A689A4037
:104490000C4BD3F890300A431A600A4BD3F89020A3
:1044A000084BD3F8903012681A6000BF1037BD4631
:1044B00080BD00BFAFF3008000000000000000409E
:1044C0000000F03F0407002080B584B000AF7860A2
:1044D00039600223FB60F868FCF734F802460B46AB
:1044E00043EC112B9FED220B06F050FB51EC100B0F
:1044F0004FF00002204BFBF7E7FE02460B4610464A
:104500001946FCF771FB0346BB607A68BB68134031
:104510007B601A4BD3F8903099683B68FA6802FBCD
:1045200003F3BA6802FA03F3DA43144BD3F890307A
:104530000A409A60114BD3F8903099683B68FA684A
:1045400002FB03F37A689A400C4BD3F890300A438D
:104550009A600A4BD3F89020084BD3F890309268B9
:104560009A6000BF1037BD4680BD00BFAFF300802A
:1045700000000000000000400000F03F04070020A1
:1045800080B584B000AF786039600223FB60F868C2
:10459000FBF7D8FF02460B4643EC112B9FED220B95
:1045A00006F0F4FA51EC100B4FF00002204BFBF731
:1045B0008BFE02460B4610461946FCF715FB0346D8
:1045C000BB607A68BB6813407B601A4BD3F89030AD
:1045D000D9683B68FA6802FB03F3BA6802FA03F38E
:1045E000DA43144BD3F890300A40DA60114BD3F819
:1045F0009030D9683B68FA6802FB03F37A689A4006
:104600000C4BD3F890300A43DA600A4BD3F8902071
:10461000084BD3F89030D268DA6000BF1037BD463F
:1046200080BD00BFAFF3008000000000000000402C
:104630000000F03F0407002080B483B000AF786032
:10464000054BD3F890307A6812049A6100BF0C379A
:10465000BD465DF8047B70470407002080B483B03A
:1046600000AF7860054BD3F890307A689A6100BF4C
:104670000C37BD465DF8047B704700BF040700207F
:1046800080B586B000AF7860396004237B617869BB
:10469000FBF758FF02460B4643EC112B9FED300B06
:1046A00006F074FA51EC100B4FF000022E4BFBF7A2
:1046B0000BFE02460B4610461946FCF795FA0346D8
:1046C0003B6120227B69B2FBF3F33A68B2FBF3F360
:1046D000FB607A683B6913407B60FB68012B39D82B
:1046E000224BD3F89030FA68083253F822103B6816
:1046F0007A6902FB03F33A6902FA03F3DA431B4BCC
:10470000D3F890301140FA68083243F82210174B62
:10471000D3F89030FA68083253F822103B687A696F
:1047200002FB03F37A689A40104BD3F890301143A0
:10473000FA68083243F822100C4BD3F890200B4B48
:10474000D3F89030F968083152F82110FA6808322D
:1047500043F8221000BF1837BD4680BDAFF300807C
:1047600000000000000000400000F03F04070020AF
:1047700080B584B000AF786039600223FB60F868D0
:10478000FBF7E0FE02460B4643EC112B9FED220B9C
:1047900006F0FCF951EC100B4FF00002204BFBF738
:1047A00093FD02460B4610461946FCF71DFA0346D8
:1047B000BB607A68BB6813407B601A4BD3F8AC309F
:1047C00019683B68FA6802FB03F3BA6802FA03F35C
:1047D000DA43144BD3F8AC300A401A60114BD3F8CB
:1047E000AC3019683B68FA6802FB03F37A689A40B8
:1047F0000C4BD3F8AC300A431A600A4BD3F8AC2008
:10480000084BD3F8AC3012681A6000BF1037BD46B1
:1048100080BD00BFAFF3008000000000000000403A
:104820000000F03F0407002080B584B000AF78603E
:1048300039600223FB60F868FBF784FE02460B46F2
:1048400043EC112B9FED220B06F0A0F951EC100B5D
:104850004FF00002204BFBF737FD02460B46104697
:104860001946FCF7C1F90346BB607A68BB68134080
:104870007B601A4BD3F8AC3099683B68FA6802FB4E
:1048800003F3BA6802FA03F3DA43144BD3F8AC30FB
:104890000A409A60114BD3F8AC3099683B68FA68CB
:1048A00002FB03F37A689A400C4BD3F8AC300A430E
:1048B0009A600A4BD3F8AC20084BD3F8AC3092681E
:1048C0009A6000BF1037BD4680BD00BFAFF30080C7
:1048D00000000000000000400000F03F040700203E
:1048E00080B584B000AF786039600223FB60F8685F
:1048F000FBF728FE02460B4643EC112B9FED220BE3
:1049000006F044F951EC100B4FF00002204BFBF77E
:10491000DBFC02460B4610461946FCF765F90346D8
:10492000BB607A68BB6813407B601A4BD3F8AC302D
:10493000D9683B68FA6802FB03F3BA6802FA03F32A
:10494000DA43144BD3F8AC300A40DA60114BD3F899
:10495000AC30D9683B68FA6802FB03F37A689A4086
:104960000C4BD3F8AC300A43DA600A4BD3F8AC20D6
:10497000084BD3F8AC30D268DA6000BF1037BD46C0
:1049800080BD00BFAFF300800000000000000040C9
:104990000000F03F0407002080B483B000AF7860CF
:1049A000054BD3F8AC307A6812049A6100BF0C371B
:1049B000BD465DF8047B70470407002080B483B0D7
:1049C00000AF7860054BD3F8AC307A689A6100BFCD
:1049D0000C37BD465DF8047B704700BF040700201C
:1049E00080B586B000AF7860396004237B61786958
:1049F000FBF7A8FD02460B4643EC112B9FED300B55
:104A000006F0C4F851EC100B4FF000022E4BFBF7F0
:104A10005BFC02460B4610461946FCF7E5F80346D8
:104A20003B6120227B69B2FBF3F33A68B2FBF3F3FC
:104A3000FB607A683B6913407B60FB68012B39D8C7
:104A4000224BD3F8AC30FA68083253F822103B6896
:104A50007A6902FB03F33A6902FA03F3DA431B4B68
:104A6000D3F8AC301140FA68083243F82210174BE3
:104A7000D3F8AC30FA68083253F822103B687A69F0
:104A800002FB03F37A689A40104BD3F8AC30114321
:104A9000FA68083243F822100C4BD3F8AC200B4BC9
:104AA000D3F8AC30F968083152F82110FA680832AE
:104AB00043F8221000BF1837BD4680BDAFF3008019
:104AC00000000000000000400000F03F040700204C
:104AD00080B584B000AF786039600223FB60F8686D
:104AE000FBF730FD02460B4643EC112B9FED220BEA
:104AF00006F04CF851EC100B4FF00002204BFBF786
:104B0000E3FB02460B4610461946FCF76DF80346D8
:104B1000BB607A68BB6813407B601A4BD3F8C8301F
:104B200019683B68FA6802FB03F3BA6802FA03F3F8
:104B3000DA43144BD3F8C8300A401A60114BD3F84B
:104B4000C83019683B68FA6802FB03F37A689A4038
:104B50000C4BD3F8C8300A431A600A4BD3F8C8206C
:104B6000084BD3F8C83012681A6000BF1037BD4632
:104B700080BD00BFAFF300800000000000000040D7
:104B80000000F03F0407002080B584B000AF7860DB
:104B900039600223FB60F868FBF7D4FC02460B4641
:104BA00043EC112B9FED220B05F0F0FF51EC100BA5
:104BB0004FF00002204BFBF787FB02460B461046E6
:104BC0001946FCF711F80346BB607A68BB681340CE
:104BD0007B601A4BD3F8C83099683B68FA6802FBCF
:104BE00003F3BA6802FA03F3DA43144BD3F8C8307C
:104BF0000A409A60114BD3F8C83099683B68FA684C
:104C000002FB03F37A689A400C4BD3F8C8300A438E
:104C10009A600A4BD3F8C820084BD3F8C830926882
:104C20009A6000BF1037BD4680BD00BFAFF3008063
:104C300000000000000000400000F03F04070020DA
:104C400080B584B000AF786039600223FB60F868FB
:104C5000FBF778FC02460B4643EC112B9FED220B31
:104C600005F094FF51EC100B4FF00002204BFBF7C6
:104C70002BFB02460B4610461946FBF7B5FF0346D1
:104C8000BB607A68BB6813407B601A4BD3F8C830AE
:104C9000D9683B68FA6802FB03F3BA6802FA03F3C7
:104CA000DA43144BD3F8C8300A40DA60114BD3F81A
:104CB000C830D9683B68FA6802FB03F37A689A4007
:104CC0000C4BD3F8C8300A43DA600A4BD3F8C8203B
:104CD000084BD3F8C830D268DA6000BF1037BD4641
:104CE00080BD00BFAFF30080000000000000004066
:104CF0000000F03F0407002080B483B000AF78606C
:104D0000054BD3F8C8307A6812049A6100BF0C379B
:104D1000BD465DF8047B70470407002080B483B073
:104D200000AF7860054BD3F8C8307A689A6100BF4D
:104D30000C37BD465DF8047B704700BF04070020B8
:104D400080B586B000AF7860396004237B617869F4
:104D5000FBF7F8FB02460B4643EC112B9FED300BA3
:104D600005F014FF51EC100B4FF000022E4BFBF737
:104D7000ABFA02460B4610461946FBF735FF0346D1
:104D80003B6120227B69B2FBF3F33A68B2FBF3F399
:104D9000FB607A683B6913407B60FB68012B39D864
:104DA000224BD3F8C830FA68083253F822103B6817
:104DB0007A6902FB03F33A6902FA03F3DA431B4B05
:104DC000D3F8C8301140FA68083243F82210174B64
:104DD000D3F8C830FA68083253F822103B687A6971
:104DE00002FB03F37A689A40104BD3F8C8301143A2
:104DF000FA68083243F822100C4BD3F8C8200B4B4A
:104E0000D3F8C830F968083152F82110FA6808322E
:104E100043F8221000BF1837BD4680BDAFF30080B5
:104E200000000000000000400000F03F04070020E8
:104E300080B584B000AF0346FB71FF23FB73324B98
:104E4000D3F8E4301B68314A13602F4BD3F8E430B9
:104E50005B682F4A1360FB79184601F027F8034678
:104E6000FB73294BDB681A6F274BDB6842F4004267
:104E70001A67254BD3F8E4305A6A234BD3F8E43051
:104E800042F0CA025A62204BD3F8E4305A6A1E4BF1
:104E9000D3F8E43042F053025A621B4BD3F8E430AB
:104EA000DA68194BD3F8E43042F08002DA6000BFD0
:104EB000154BD3F8E430DB6803F04003002BF7D048
:104EC0000623FB73104BD3F8E4309A680E4BD3F8EB
:104ED000E43022F020029A600B4BD3F8E430DA6819
:104EE000094BD3F8E43022F08002DA60064B9B686D
:104EF0001A68054B9B6822F480721A60FB7B184687
:104F00001037BD4680BD00BF04070020AC0800205C
:104F1000B008002080B584B000AF0346FB714FF4A9
:104F20007C13FB60FB791C4AA2FB0323DB08DBB28A
:104F3000184600F0D9FD0346FB72FA79164BA3FB25
:104F40000213D9080B469B000B445B00D31ADBB25B
:104F5000184600F0C9FD0346BB72104BD3F8E4308D
:104F60001B680F4A1360FB68DA430D4B1B68134044
:104F70000B4A1360BB7A1A04FB7A1B0513431A46CB
:104F8000074B1B681343064A136000F0EBFE00BF9B
:104F90001037BD4680BD00BFCDCCCCCC040700206F
:104FA000AC08002080B584B000AF0346FB714FF41D
:104FB000FE43FB60FB791C4AA2FB0323DB08DBB248
:104FC000184600F091FD0346FB72FA79164BA3FBDD
:104FD0000213D9080B469B000B445B00D31ADBB2CB
:104FE000184600F081FD0346BB72104BD3F8E43045
:104FF0001B680F4A1360FB68DA430D4B1B681340B4
:105000000B4A1360BB7A1A02FB7A1B0313431A463E
:10501000074B1B681343064A136000F0A3FE00BF52
:105020001037BD4680BD00BFCDCCCCCC04070020DE
:10503000AC08002080B584B000AF0346FB717F232D
:10504000FB60FB791B4AA2FB0323DB08DBB218469B
:1050500000F04AFD0346FB72FA79164BA3FB0213DC
:10506000D9080B469B000B445B00D31ADBB21846F1
:1050700000F03AFD0346BB720F4BD3F8E4301B68D7
:105080000E4A1360FB68DA430C4B1B6813400B4A53
:105090001360BA7AFB7A1B0113431A46074B1B684D
:1050A0001343064A136000F05DFE00BF1037BD4693
:1050B00080BD00BFCDCCCCCC04070020AC080020C4
:1050C00080B584B000AF0346FB714FF47F03FB60F3
:1050D000FB79194AA2FB0323DB08DBB2184600F078
:1050E00003FD0346FB72FA79134BA3FB0213D908A5
:1050F0000B469B000B445B00D31ADBB2184600F052
:10510000F3FC0346BB72FB68DA430C4B1B6813408D
:105110000A4A1360BB7A1A04FB7A1B0513431A462A
:10512000064B1B681343054A136000F06DFE00BF79
:105130001037BD4680BD00BFCDCCCCCCB008002020
:1051400080B584B000AF0346FB714FF46023FB6071
:10515000FA79124BA3FB0213D9080B469B000B44B0
:105160005B00D31ADBB2184600F0BEFC0346FB72AC
:10517000FB68DA430A4B1B681340094A1360FB7A49
:105180005B031A46064B1B681343054A136000F085
:105190003BFE00BF1037BD4680BD00BFCDCCCCCCA0
:1051A000B008002080B584B000AF0346FB714FF417
:1051B000F853FB60FB79194AA2FB0323DB08DBB23F
:1051C000184600F091FC0346FB72FA79134BA3FBDF
:1051D0000213D9080B469B000B445B00D31ADBB2C9
:1051E000184600F081FC0346BB72FB68DA430C4BA7
:1051F0001B6813400A4A1360BB7A1A02FB7A1B032E
:1052000013431A46064B1B681343054A136000F00C
:10521000FBFD00BF1037BD4680BD00BFCDCCCCCC60
:10522000B008002080B584B000AF0346FB713F2377
:10523000FB60FB79184AA2FB0323DB08DBB21846AC
:1052400000F052FC0346FB72FA79134BA3FB0213E6
:10525000D9080B469B000B445B00D31ADBB21846FF
:1052600000F042FC0346BB72FB68DA430B4B1B6841
:1052700013400A4A1360BA7AFB7A1B0113431A4699
:10528000064B1B681343054A136000F0BDFD00BFC9
:105290001037BD4680BD00BFCDCCCCCCB0080020BF
:1052A00080B483B000AF78603960164B9B681A6891
:1052B000144B9B6842F480721A60124BD3F8E430AE
:1052C0005A6A104BD3F8E43042F0CA025A620D4BCE
:1052D000D3F8E4305A6A0B4BD3F8E43042F053026F
:1052E0005A627B683A681A60064B9B681A68054BDD
:1052F0009B6822F480721A6000BF0C37BD465DF8CF
:10530000047B70470407002090B585B000AF78603B
:10531000464BD3F8E4305B68FB60FB681B0DDBB2E7
:1053200003F00F03DAB27B681A707B681B781846AB
:1053300000F0C0FB03461A467B681A70FB681B0C22
:10534000DAB27B68013302F00F02D2B21A707B68C6
:1053500001331A787B685C1C104600F0ABFB0346F7
:105360002370FB685B0BDAB27B68023302F0070242
:10537000D2B21A707B6802331A787B689C1C104684
:1053800000F098FB03462370FB681B0BDAB27B68C6
:10539000033302F00102D2B21A707B6803331A7829
:1053A0007B68DC1C104600F085FB03462370FB681D
:1053B0001B0ADAB27B68043302F00F02D2B21A7011
:1053C0007B6804331A787B681C1D104600F072FB62
:1053D00003462370FB681B09DAB27B68053302F0D1
:1053E0000302D2B21A707B6805331A787B685C1DA1
:1053F000104600F05FFB03462370FB68DAB27B685F
:10540000063302F00F02D2B21A707B6806331A78A4
:105410007B689C1D104600F04DFB03462370044A38
:10542000FB68136000BF1437BD4690BD0407002021
:10543000B008002090B585B000AF7860464BD3F837
:10544000E4301B68FB60444BD3F8E430DB6803F0C6
:105450002003002B7BD0FB681B0DDBB203F00303A2
:10546000DAB27B681A707B681B78184600F022FB62
:1054700003461A467B681A70FB681B0CDAB27B681D
:10548000013302F00F02D2B21A707B6801331A782E
:105490007B685C1C104600F00DFB03462370FB6824
:1054A0001B0BDAB27B68023302F00702D2B21A7029
:1054B0007B6802331A787B689C1C104600F0FAFA6D
:1054C00003462370FB681B0ADAB27B68033302F0E1
:1054D0000F02D2B21A707B6803331A787B68DC1C27
:1054E000104600F0E7FA03462370FB681B09DAB2A6
:1054F0007B68043302F00702D2B21A707B6804336F
:105500001A787B681C1D104600F0D4FA03462370FD
:10551000FB68DAB27B68053302F00F02D2B21A7070
:105520007B6805331A787B685C1D104600F0C2FA70
:1055300003462370094AFB681360074BD3F8E43035
:10554000DA68054BD3F8E43022F02002DA6000BFBD
:105550001437BD4690BD00BF04070020AC080020F2
:1055600080B400AF234BDB681A6C224BDB6842F03F
:1055700000521A641F4BDB685A6C1E4BDB6842F406
:1055800080725A641B4BD3F834319A68194BD3F8A4
:10559000343142F480629A60164BD3F854315A6821
:1055A000144BD3F8543142F440325A60114BD3F8C3
:1055B0003431DA680F4BD3F8343142F0E062DA600C
:1055C0000C4BD3F834315A680A4BD3F8343142F4D7
:1055D00000625A60074BD3F834315A6B054BD3F84D
:1055E000343142F012025A6300BFBD465DF8047BBD
:1055F000704700BF0407002080B400AF074BD3F80A
:1056000054315A68054BD3F8543142F480025A6041
:1056100000BFBD465DF8047B704700BF0407002053
:1056200080B400AF074BD3F854315A68054BD3F818
:10563000543142F400025A6000BFBD465DF8047B5D
:10564000704700BF0407002080B400AF0C4BD3F8B4
:1056500034319A680A4BD3F8343142F001029A602F
:10566000074BD3F834319A68054BD3F8343142F004
:1056700080429A6000BFBD465DF8047B704700BF62
:105680000407002080B500AF134BD3F854311B68DA
:1056900003F00203002B15D00F4BD3F83431DB6C31
:1056A0001846FAF74FFF02460B460C49C1E90023A2
:1056B000094BD3F834311A68074BD3F8343122F050
:1056C00010021A60054BD3E9002343EC172BB0EE10
:1056D000470AF0EE670A80BD04070020D8080020C2
:1056E00080B400AF0B4BD3F854311B6803F01003A8
:1056F000002B09D1074BD3F834319A68054BD3F806
:10570000343142F080429A6000BFBD465DF8047BB0
:10571000704700BF0407002080B400AF074BD3F8E8
:1057200034319A68054BD3F8343142F001029A6063
:1057300000BFBD465DF8047B704700BF0407002032
:105740002DE9B04F8EB000AF034687ED020B3A61F2
:10575000FB750B46BB75FB7D092B0AD1B44BD3F807
:105760005831DA68B24BD3F8583142F48052DA60DB
:1057700017E0FB7D082B0AD1AD4BD3F85831DA681E
:10578000AB4BD3F8583122F48052DA6009E0A84BD1
:10579000D3F85831DA68A64BD3F8583122F4805246
:1057A000DA60BB7D082B0DD1082387F83730A04B7A
:1057B000D3F85831DA689E4BD3F8583142F400429E
:1057C000DA601DE0BB7D102B0DD1102387F8373038
:1057D000974BD3F85831DA68954BD3F8583122F407
:1057E0000042DA600CE0102387F83730904BD3F892
:1057F0005831DA688E4BD3F8583122F40042DA601F
:105800008B4BD3F858311A69894BD3F8583122F4AD
:1058100040521A614FF00002864BD7E90201FAF7B5
:1058200053FD02460B463A6023F000437B607EA3A3
:10583000D3E90023D7E90001FBF770F90346002BF9
:105840000AD07B4BD3F858311A69794BD3F85831C9
:1058500042F480521A6162E04FF00002764BD7E9C1
:105860000201FAF731FD02460B46924623F0004B47
:105870006DA3D3E9002350465946FBF74FF9034681
:10588000002B0AD06A4BD3F858311A69684BD3F809
:10589000583122F440521A6141E04FF00002674B48
:1058A000D7E90201FAF710FD02460B46904623F0B5
:1058B00000495DA3D3E9002340464946FBF72EF992
:1058C0000346002B0AD05A4BD3F858311A69584B6B
:1058D000D3F8583142F440521A6120E04FF00002F0
:1058E0004FF08043D7E90201FAF7EEFC02460B467F
:1058F000144623F000454CA3D3E900232046294653
:10590000FBF70CF90346002B09D0494BD3F858316B
:105910001A69474BD3F8583142F400521A61484B88
:105920001B681846FAF70EFE04460D4697F8373006
:105930003A6902FB03F31846FAF704FE02460B46E7
:1059400020462946FAF7A2FF02460B46C7E90A237A
:1059500007F11803184697ED0A0B01F02FFA87EDAF
:10596000080B334BD3F8583100229A60BB7D102BC3
:105970002BD14FF00002334BD7E90801FAF75CFE58
:1059800002460B4643EC172BB0EE470AF0EE670ACF
:1059900005F0B6F851EC100B254BD3F85841FBF746
:1059A00023F90346A360224BD3F858319C68D7E90A
:1059B000062310461946FBF717F903461A011C4B3C
:1059C000D3F8583122439A606BE0BB7D082B3DD160
:1059D0004FF000021C4BD7E90801FAF72DFE0246F2
:1059E0000B4643EC172BB0EE470AF0EE670A05F0C2
:1059F00087F851EC100B0E4BD3F85841FBF7F4F835
:105A00000346A3600A4BD3F858319C68D7E90623B4
:105A100010461946FBF7E8F803461A01044BD3F881
:105A2000583122439A603CE0F168E388B5F8E43EDF
:105A3000040700200000E03F0000F03F0000F83FB6
:105A40000400002000003040000020404FF0000221
:105A5000164BD7E90801FAF7EFFD02460B4643EC77
:105A6000172BB0EE470AF0EE670A05F049F851EC43
:105A7000100B0F4BD3F85841FBF7B6F80346A36061
:105A80000B4BD3F858319C68D7E9062310461946CA
:105A9000FBF7AAF803461A01054BD3F85831224305
:105AA0009A6000BF3837BD46BDE8B08F0000304077
:105AB0000407002080B483B000AF0346FB71FB797C
:105AC0001B09DBB21A46920013445B00DAB2FB7981
:105AD00003F00F03DBB21344DBB218460C37BD46AC
