:020000040800F2
:1000000000000220C51C0008151D0008151D000871
:10001000151D0008151D0008151D00080000000032
:10002000000000000000000000000000151D000896
:10003000151D000800000000151D0008554E0008A1
:10004000151D0008151D0008151D0008151D0008C8
:10005000151D0008151D0008151D0008151D0008B8
:10006000151D0008151D0008151D0008151D0008A8
:10007000151D0008151D0008151D0008151D000898
:10008000151D0008151D0008151D0008151D000888
:10009000151D0008151D0008151D0008151D000878
:1000A000211A0008151D0008151D0008151D00085F
:1000B000151D0008151D0008151D0008151D000858
:1000C000151D0008151D0008151D0008151D000848
:1000D000151D0008151D0008151D0008151D000838
:1000E000151D0008151D0008151D0008151D000828
:1000F000151D0008151D0008151D0008151D000818
:10010000151D0008151D0008151D0008151D000807
:10011000151D0008151D0008151D0008151D0008F7
:10012000151D0008151D0008151D0008151D0008E7
:10013000151D00080000000000000000151D00084B
:10014000151D0008151D0008151D0008151D0008C7
:10015000151D0008151D0008151D0008151D0008B7
:10016000151D0008151D0008151D0008151D0008A7
:10017000151D0008151D0008151D000800000000D1
:1001800000000000151D0008000000000000000035
:10019000151D00080000000000000000151D0008EB
:1001A000000000000000000000000000151D000815
:1001B000151D0008151D0008151D0008151D000857
:0401C000151D000801
:1001D00010B5054C237833B9044B13B10448AFF381
:1001E00000800123237010BDE0010020000000000A
:1001F000ECA7000808B5034B1BB103490348AFF354
:10020000008008BD00000000E4010020ECA7000809
:10021000034613F8012B002AFBD1181A0138704746
:1002200001F0FF01102A2BDB10F0070F08D010F8A7
:10023000013B013A8B422DD010F0070F42B3F6D1AB
:10024000F0B441EA012141EA014122F007047FF0C4
:1002500000070023F0E80256083C85EA010586EA1B
:10026000010685FA47F5A3FA87F586FA47F6A5FA57
:1002700087F68EB9EED1F0BC01F0FF0102F0070263
:1002800032B110F8013B013A83EA010313B1F8D10E
:100290000020704701387047002D06BF35460338EF
:1002A000073815F0010F07D1013015F4807F02BF28
:1002B000013015F4C03F0130F0BC0138704700BF79
:1002C00081F0004102E000BF83F0004330B54FEA07
:1002D00041044FEA430594EA050F08BF90EA020F74
:1002E0001FBF54EA000C55EA020C7FEA645C7FEA07
:1002F000655C00F0E2804FEA5454D4EB5555B8BF2A
:100300006D420CDD2C4480EA020281EA030382EA9A
:10031000000083EA010180EA020281EA0303362D2C
:1003200088BF30BD11F0004F4FEA01314FF4801CFF
:100330004CEA113102D0404261EB410113F0004F11
:100340004FEA03334CEA133302D0524263EB4303C8
:1003500094EA050F00F0A780A4F10104D5F1200E66
:100360000DDB02FA0EFC22FA05F2801841F10001C1
:1003700003FA0EF2801843FA05F359410EE0A5F195
:1003800020050EF1200E012A03FA0EFC28BF4CF0C6
:10039000020C43FA05F3C01851EBE37101F000457C
:1003A00007D54FF0000EDCF1000C7EEB00006EEB89
:1003B0000101B1F5801F1BD3B1F5001F0CD3490813
:1003C0005FEA30004FEA3C0C04F101044FEA44526A
:1003D00012F5800F80F09A80BCF1004F08BF5FEAF1
:1003E000500C50F1000041EB045141EA050130BDD1
:1003F0005FEA4C0C404141EB0101013C28BFB1F5E3
:10040000801FE9D291F0000F04BF01460020B1FA2D
:1004100081F308BF2033A3F10B03B3F120020CDA00
:100420000C3208DD02F1140CC2F10C0201FA0CF0DE
:1004300021FA02F10CE002F11402D8BFC2F1200C43
:1004400001FA02F120FA0CFCDCBF41EA0C019040F9
:10045000E41AA2BF01EB0451294330BD6FEA040442
:100460001F3C1CDA0C340EDC04F11404C4F120022D
:1004700020FA04F001FA02F340EA030021FA04F33F
:1004800045EA030130BDC4F10C04C4F1200220FA96
:1004900002F001FA04F340EA0300294630BD21FAD4
:1004A00004F0294630BD94F0000F83F4801306BF9A
:1004B00081F480110134013D4EE77FEA645C18BF8E
:1004C0007FEA655C29D094EA050F08BF90EA020F25
:1004D00005D054EA000C04BF1946104630BD91EA1D
:1004E000030F1EBF0021002030BD5FEA545C05D120
:1004F0004000494128BF41F0004130BD14F580045F
:100500003CBF01F5801130BD01F0004545F0FE41D2
:1005100041F470014FF0000030BD7FEA645C1ABF07
:10052000194610467FEA655C1CBF0B46024650EA3E
:10053000013406BF52EA033591EA030F41F400216A
:1005400030BD00BF90F0000F04BF0021704730B5F0
:100550004FF4806404F132044FF000054FF00001C5
:1005600050E700BF90F0000F04BF0021704730B586
:100570004FF4806404F1320410F0004548BF40425B
:100580004FF000013EE700BF42004FEAE2014FEAB0
:1005900031014FEA02701FBF12F07F4393F07F4F8B
:1005A00081F06051704732F07F4208BF704793F08E
:1005B0007F4F04BF41F40021704730B54FF46074A1
:1005C00001F0004521F000411CE700BF50EA0102A4
:1005D00008BF704730B54FF000050AE050EA01024D
:1005E00008BF704730B511F0004502D5404261EBBD
:1005F00041014FF4806404F132045FEA915C3FF4FE
:10060000D8AE4FF003025FEADC0C18BF03325FEA9A
:10061000DC0C18BF033202EBDC02C2F1200300FA4B
:1006200003FC20FA02F001FA03FE40EA0E0021FA70
:1006300002F11444BDE600BF70B54FF0FF0C4CF45E
:10064000E06C1CEA11541DBF1CEA135594EA0C0F10
:1006500095EA0C0F00F0DEF82C4481EA030621EA4B
:100660004C5123EA4C5350EA013518BF52EA033586
:1006700041F4801143F4801338D0A0FB02CE4FF038
:100680000005E1FB02E506F00042E0FB03E54FF068
:100690000006E1FB03569CF0000F18BF4EF0010E60
:1006A000A4F1FF04B6F5007F64F5407404D25FEA5C
:1006B0004E0E6D4146EB060642EAC62141EA55510F
:1006C0004FEAC52040EA5E504FEACE2EB4F1FD0C51
:1006D00088BFBCF5E06F1ED8BEF1004F08BF5FEACF
:1006E000500E50F1000041EB045170BD06F0004681
:1006F00046EA010140EA020081EA0301B4EB5C042E
:10070000C2BFD4EB0C0541EA045170BD41F4801125
:100710004FF0000E013C00F3AB8014F1360FDEBF4A
:10072000002001F0004170BDC4F10004203C35DA26
:100730000C341BDC04F11404C4F1200500FA05F3A9
:1007400020FA04F001FA05F240EA020001F000424A
:1007500021F0004110EBD37021FA04F642EB0601C0
:100760005EEA430E08BF20EAD37070BDC4F10C04EA
:10077000C4F1200500FA04F320FA05F001FA04F2AE
:1007800040EA020001F0004110EBD37041F100019A
:100790005EEA430E08BF20EAD37070BDC4F12005A5
:1007A00000FA05F24EEA020E20FA04F301FA05F20D
:1007B00043EA020321FA04F001F0004121FA04F2B5
:1007C00020EA020000EBD3705EEA430E08BF20EA85
:1007D000D37070BD94F0000F0FD101F000464000BF
:1007E00041EB010111F4801F08BF013CF7D041EA41
:1007F000060195F0000F18BF704703F00046520045
:1008000043EB030313F4801F08BF013DF7D043EA15
:100810000603704794EA0C0F0CEA135518BF95EACB
:100820000C0F0CD050EA410618BF52EA4306D1D152
:1008300081EA030101F000414FF0000070BD50EA71
:10084000410606BF1046194652EA430619D094EAFB
:100850000C0F02D150EA013613D195EA0C0F05D1E5
:1008600052EA03361CBF104619460AD181EA030139
:1008700001F0004141F0FE4141F470014FF00000F1
:1008800070BD41F0FE4141F4780170BD70B54FF08C
:10089000FF0C4CF4E06C1CEA11541DBF1CEA13550C
:1008A00094EA0C0F95EA0C0F00F0A7F8A4EB0504EE
:1008B00081EA030E52EA03354FEA013100F08880E5
:1008C0004FEA03334FF0805545EA131343EA1263AE
:1008D0004FEA022245EA111545EA10654FEA002663
:1008E0000EF000419D4208BF964244F1FD0404F51C
:1008F000407402D25B084FEA3202B61A65EB030578
:100900005B084FEA32024FF480104FF4002CB6EB34
:10091000020E75EB030E22BFB61A754640EA0C00B4
:100920005B084FEA3202B6EB020E75EB030E22BFF4
:10093000B61A754640EA5C005B084FEA3202B6EB35
:10094000020E75EB030E22BFB61A754640EA9C00F4
:100950005B084FEA3202B6EB020E75EB030E22BFC4
:10096000B61A754640EADC0055EA060E18D04FEA82
:10097000051545EA16754FEA06164FEAC30343EA22
:1009800052734FEAC2025FEA1C1CC0D111F4801FEF
:100990000BD141EA00014FF000004FF0004CB6E7E8
:1009A00011F4801F04BF01430020B4F1FD0C88BF87
:1009B000BCF5E06F3FF6AFAEB5EB030C04BFB6EB92
:1009C000020C5FEA500C50F1000041EB045170BD85
:1009D0000EF0004E4EEA113114EB5C04C2BFD4EBB2
:1009E0000C0541EA045170BD41F480114FF0000E36
:1009F000013C90E645EA060E8DE60CEA135594EAB2
:100A00000C0F08BF95EA0C0F3FF43BAF94EA0C0FB4
:100A10000AD150EA01347FF434AF95EA0C0F7FF429
:100A200025AF104619462CE795EA0C0F06D152EA7D
:100A300003353FF4FDAE1046194622E750EA410661
:100A400018BF52EA43067FF4C5AE50EA41047FF472
:100A50000DAF52EA43057FF4EBAE12E74FF0FF3CD7
:100A600006E000BF4FF0010C02E000BF4FF0010CA8
:100A70004DF804CD4FEA410C7FEA6C5C4FEA430C21
:100A800018BF7FEA6C5C1BD001B050EA410C0CBF70
:100A900052EA430C91EA030F02BF90EA020F0020D2
:100AA000704710F1000F91EA030F58BF994208BF39
:100AB00090422CBFD8176FEAE37040F001007047F6
:100AC0004FEA410C7FEA6C5C02D150EA013C07D14D
:100AD0004FEA430C7FEA6C5CD6D152EA033CD3D098
:100AE0005DF8040B704700BF8446104662468C4692
:100AF0001946634600E000BF01B5FFF7B7FF0028C5
:100B000048BF10F1000F01BD4DF808EDFFF7F4FFED
:100B10000CBF012000205DF808FB00BF4DF808ED78
:100B2000FFF7EAFF34BF012000205DF808FB00BF9B
:100B30004DF808EDFFF7E0FF94BF012000205DF8BD
:100B400008FB00BF4DF808EDFFF7CEFF94BF012072
:100B500000205DF808FB00BF4DF808EDFFF7C4FF6B
:100B600034BF012000205DF808FB00BF4FEA410CB4
:100B70007FEA6C5C02D150EA013C0AD14FEA430C97
:100B80007FEA6C5C02D152EA033C02D14FF00000D4
:100B900070474FF0010070474FEA410212F5001212
:100BA00015D211D56FF47873B3EB625212D94FEAB4
:100BB000C12343F0004343EA505311F0004F23FA9E
:100BC00002F018BF404270474FF00000704750EAF3
:100BD000013005D111F0004008BF6FF000407047B0
:100BE0004FF00000704700BF4A0011D212F500120A
:100BF00011D20DD56FF47873B3EB62520ED44FEA75
:100C0000C12343F0004343EA505323FA02F07047F4
:100C10004FF00000704750EA013002D14FF0FF3032
:100C200070474FF0000070474FEA4102B2F1E043D5
:100C300024BFB3F5001CDCF1FE5C0DD901F0004CC3
:100C40004FEAC0024CEA5070B2F1004F40EB830013
:100C500008BF20F00100704711F0804F21D113F13F
:100C60003872BCBF01F00040704741F480114FEA78
:100C70005252C2F11802C2F1200C10FA0CF320FA01
:100C800002F018BF40F001004FEAC1234FEAD3231E
:100C900003FA0CFC40EA0C0023FA02F34FEA430388
:100CA000CCE77FEA625307D150EA01331EBF4FF011
:100CB000FE4040F44000704701F0004040F0FE402C
:100CC00040F40000704700BF38B5002200230446FE
:100CD0000D46FFF723FF28B920462946BDE83840D6
:100CE00000F00AB8204605F1004100F005F8404246
:100CF00061EB410138BD00BFD0B50C4B0022064668
:100D00000F46FFF799FCFFF76FFF0446FFF71AFC49
:100D1000074B0022FFF790FC02460B46304639464F
:100D2000FFF7D2FAFFF760FF2146D0BD0000F03D8B
:100D30000000F04100000000B0B5D0B002AF4FF0AD
:100D400000024FF00003C7E94C230023C7F82C3101
:100D50003C23C7F82831A24C3B46184601F042FF1D
:100D600007F59C73A3F59C73204619464FF49273C4
:100D70001A4604F0A7F89A4BD3F8E030984700F0F1
:100D80004DF900F06DF9974C3B46184601F074F9A7
:100D900007F59C73A3F59C732046194690231A46C9
:100DA00004F090F8904C3B46184601F0D1F807F556
:100DB0009C73A3F59C731D460FCD0FC495E80700E7
:100DC00084E80700894C3B46184601F0C1F807F556
:100DD0009C73A3F59C731D460FCD0FC495E80700C7
:100DE00084E80700824C3B46184601F0B1F807F54D
:100DF0009C73A3F59C731D460FCD0FC495E80700A7
:100E000084E807007B4B03221A707B4B00221A7088
:100E10007A4B00221A807A4B00221A70704B9B6C1E
:100E200019466F4B9B6C03F11402764C3846002335
:100E3000019301230093022300F06EFF07F59C73DA
:100E4000A3F59C72234607CA83E80700644BDA6A5D
:100E50006D4C3B461146184601F0AEFA07F59C73FF
:100E6000A3F59C731D460FCD0FC40FCD0FC495E89D
:100E7000070084E807005A4BD3F8C4309847584B12
:100E80005B6F01209847564BD3F8B4300A2098473F
:100E9000534BD3F89C30524A126F50325B49104684
:100EA0009847514B9B694E4A1269126911464E4848
:100EB00098474E4B9B694A4AD26A126911464B4881
:100EC00098474B4B9B69464A926C126911464848B9
:100ED00098474D4B9B6A984700F002F94A4B5B6A72
:100EE000002101209847484B5C693E4BD3F88C3079
:100EF0003B4A126F50321146454898470346184600
:100F0000A047414B5B6A042101209847D7F828315C
:100F1000D7F82C219A4217D2314BD3F8C8309847D2
:100F200053EC102BD7E94C01FFF7D0F902460B46E2
:100F3000C7E94C232A4BD3F8CC309847D7F82C314B
:100F40000133C7F82C31ACE7D7F82801FFF70AFBCB
:100F500002460B46D7E94C01FFF798FC02460B46C8
:100F6000C7E94C231AA3D3E90023D7E94C01FFF7C3
:100F70008DFC02460B461046194617A3D3E9002301
:100F8000FFF7A2F902460B46104619464FF0000241
:100F9000204BFFF79BF902460B46C7E94C231A4B3F
:100FA0009C69104BD3F88C50D7E94C01FFF71CFE1D
:100FB0000346DF2219461848A8470346072118466A
:100FC000A0470023C7F82C316BE700BFAFF30080C8
:100FD000CDCCCCCCCCCC0840638C31C6180373404C
:100FE000FC01002020030020B0030020CC030020DF
:100FF000E80300203C040020480400204A040020AC
:101000004C0400200404002010040020435542003A
:1010100008A80008000039400CA8000880B500AFFF
:101020000E4BDB681A6B0D4BDB6842F007021A634C
:101030000A4B5B69052101209847084BDB690521B4
:1010400000209847054BDB6C0D2100209847034B8F
:101050005B6D0D210120984700BF80BDFC01002081
:1010600080B400AF1D4BDB685A6C1C4BDB6842F44C
:1010700080325A64194BD3F8AC301A68174BD3F846
:10108000AC3042F080721A60144BD3F8BC304BF293
:10109000DF12DA62114BD3F8BC3041F66A525A6360
:1010A0000E4BD3F8BC3014229A620C4BD3F8BC30F0
:1010B000DA680A4BD3F8BC3042F00302DA60074B1F
:1010C000D3F8BC301A68054BD3F8BC3042F081022B
:1010D0001A6000BFBD465DF8047B7047FC0100202C
:1010E000F0B585B004AF704B1B78013B082B00F2C4
:1010F0006A8401A252F823F01D110008E3110008D0
:10110000D9120008EB13000805150008E3150008C4
:10111000F9160008D7170008ED180008634B5B6A42
:10112000002100209847614B9B6910216048984737
:10113000604BD3F89830604898475C4B5B6A00215D
:1011400003209847594B9C695C4BD3F88C505A4B01
:101150001B781846584B5B781E46574B9B789C462D
:10116000554BDB781A46544B1B791946524B5B7929
:101170000293019100926346324601465048A847C7
:10118000034611211846A0474A4BD3F8F0404D4B77
:1011900058694C4B19694C4B1B880D22A0470346DC
:1011A0004A4A1360494B1B68052B06D9474B1B68FD
:1011B0000A2B02D83C4B02221A70444B1B680A2BA4
:1011C00006D9424B1B681D2B02D8374B04221A70DC
:1011D0003E4B1B68282B40F2F883334B03221A70D6
:1011E000F3E3324B5B6A0021002098472F4B9B6949
:1011F0001021374898472F4BD3F894302E48984702
:101200002A4B5B6A002103209847284B9C692B4B93
:10121000D3F88C50284B5B791846274B9B791E4698
:10122000254BDB789C46244B1B791A46224B1B78B6
:101230001946214B5B780293019100926346324636
:1012400001462448A847034611211846A047194BD8
:10125000D3F8F0401B4B58691A4B19691A4B1B887D
:101260000D22A0470346194A1360184B1B68052B33
:1012700006D9164B1B680A2B02D80B4B01221A7099
:10128000124B1B680A2B06D9104B1B681D2B02D86A
:10129000054B07221A700D4B1B68282B40F29783D1
:1012A000014B03221A7092E33C040020100400203A
:1012B00014A80008FC010020500400202003002096
:1012C0001CA80008E80300204A0400204404002071
:1012D00034A800083CA800087B4B5B6A0021002072
:1012E0009847794B9B69102178489847784BD3F8F9
:1012F000943078489847744B5B6A002102209847E5
:10130000714B9C69744BD3F88C50724B5B791846C7
:10131000704B9B791E466F4BDB789C466D4B1B795F
:101320001A466C4B1B7819466A4B5B780293019105
:1013300000926346324601466848A8470346112199
:101340001846A047624BD3F89830624898475E4BE6
:101350005B6A0021032098475B4B9C695E4BD3F886
:101360008C505C4B1B7818465A4B5B781E46594B89
:101370009B789C46574BDB781A46564B1B7919468F
:10138000544B5B79029301910092634632460146C9
:101390005348A847034611211846A0474C4BD3F8A1
:1013A000F040504B58694F4B19694F4B1B880D2229
:1013B000A0470346282B40F20C83434B5B6A002175
:1013C00002209847404B9B691121484898473E4B63
:1013D0005B6A0021032098473B4B9B690F214348E0
:1013E0009847434B01221A70F3E2374B5B6A0021A6
:1013F00000209847344B9B6910213E489847344B56
:10140000D3F8F040374B5869364B1969364B1B8877
:101410000D22A0470346384A1360374B1B68002B48
:1014200023D0354B1B68052B1FD8344B1B78013359
:10143000DAB2324B1A70314B1B78172B02D92F4B73
:1014400000221A70204B5B6A0021022098471E4B35
:101450009C69214BD3F88C30284A127811462848D1
:101460009847034610211846A047234B1B680A2BB8
:1014700010D9214B1B68132B0CD8134B5B6A00212E
:1014800002209847104B9B69102118489847184B29
:1014900005221A70184B1B68132B40F29C820A4BD2
:1014A0005B6A002102209847074B9B6910210F4877
:1014B00098470F4B01221A70054BD3F888300F4A1A
:1014C00012781046984786E21004002054A80008BD
:1014D000FC01002050040020200300203CA800084C
:1014E0001CA80008E80300204A04002060A80008A7
:1014F0003C04002064A80008440400203D040020AF
:1015000074A800086E4B5B6A0021002098476C4B62
:101510009B6910216B4898476B4BD3F8F0406B4B9D
:1015200058696A4B19696A4B1B880D22A04703460C
:10153000684A1360674B1B68002B23D0654B1B6800
:10154000052B1FD8644B1B780133DAB2624B1A703B
:10155000614B1B783B2B02D95F4B00221A70584B12
:101560005B6A002102209847554B9C695B4BD3F87E
:101570008C30594A12781146594898470346102131
:101580001846A047534B1B680A2B10D9514B1B68B8
:10159000132B0CD84A4B5B6A002102209847484B1A
:1015A0009B6910214F4898474F4B06221A70494BB0
:1015B0001B68132B40F21182414B5B6A0021022011
:1015C00098473F4B9B69102146489847464B01225C
:1015D0001A703D4BD3F88C303F4A1278104698472A
:1015E000FBE1374B5B6A002100209847344B9B6935
:1015F00010213E489847344BD3F8F040334B58699C
:10160000324B1969324B1B880D22A0470346314AE1
:101610001360304B1B68002B23D02E4B1B68052B0F
:101620001FD8334B1B780133DAB2314B1A70304B71
:101630001B783B2B02D92E4B00221A70204B5B6A81
:101640000021022098471E4B9C69244BD3F88C3014
:10165000274A127811462748984703461021184612
:10166000A0471C4B1B680A2B10D91A4B1B68132B65
:101670000CD8134B5B6A002102209847104B9B69E2
:10168000102118489847184B01221A70114B1B68FB
:10169000132B40F2A4810A4B5B6A00210220984779
:1016A000074B9B6910210F4898470F4B01221A7076
:1016B000054BD3F890300E4A1278104698478EE1C9
:1016C0001004002080A80008FC010020E80300208E
:1016D0004A040020440400203E040020200300208F
:1016E00090A8000860A800083C0400209CA80008FE
:1016F0003F040020B0A800086E4B5B6A0021002068
:1017000098476C4B9B6910216B4898476B4BD3F8FB
:10171000F0406B4B58696A4B19696A4B1B880D2264
:10172000A0470346684A1360674B1B68002B23D011
:10173000654B1B68052B1FD8644B1B780133DAB24D
:10174000624B1A70614B1B78632B02D95F4B0022EE
:101750001A70584B5B6A002102209847554B9C69D0
:101760005B4BD3F88C30594A127811465948984748
:10177000034610211846A047534B1B680A2B10D96B
:10178000514B1B68132B0CD84A4B5B6A002102207B
:101790009847484B9B6910214F4898474F4B082268
:1017A0001A70494B1B68132B40F21B81414B5B6A3B
:1017B0000021022098473F4B9B69102146489847DB
:1017C000464B02221A703D4BD3F884303F4A1278C0
:1017D0001046984705E1374B5B6A00210020984787
:1017E000344B9B6910213E489847344BD3F8F04066
:1017F000334B5869324B1969324B1B880D22A04775
:101800000346314A1360304B1B68002B23D02E4B0C
:101810001B68052B1FD8334B1B780133DAB2314BD1
:101820001A70304B1B780C2B02D92E4B01221A70E8
:10183000204B5B6A0021022098471E4B9C69244B79
:10184000D3F88C30274A1278114627489847034628
:1018500010211846A0471C4B1B680A2B10D91A4BA5
:101860001B68132B0CD8134B5B6A0021022098478E
:10187000104B9B69102118489847184B09221A7081
:10188000114B1B68132B40F2AE800A4B5B6A0021A0
:1018900002209847074B9B6910210F4898470F4B30
:1018A00002221A70054BDB6F0E4A127810469847D9
:1018B00099E000BF10040020BCA80008FC01002033
:1018C000E80300204A0400204404002040040020D3
:1018D00020030020C8A8000860A800083C040020DD
:1018E000D0A8000800000020DCA80008414B5B6A7B
:1018F0000021002098473F4B9B6910213E489847A4
:101900003E4BD3F8F0403E4B58693D4B19693D4B77
:101910001B880D22A04703463B4A13603A4B1B68C5
:10192000002B23D0384B1B68052B1FD8374B1B7857
:101930000133DAB2354B1A70344B1B781F2B02D9A6
:10194000324B01221A702B4B5B6A00210220984710
:10195000284B9C692E4BD3F88C302C4A12781146B8
:101960002C489847034610211846A047264B1B6871
:101970000A2B10D9244B1B68132B0CD81D4B5B6A08
:101980000021022098471B4B9B6910212248984751
:10199000224B02221A701C4B1B68132B25D9154BA6
:1019A0005B6A002102209847124B9B6910211A485C
:1019B00098471A4B02221A70104B9B6F134A1278E9
:1019C0001046984711E000BF10E000BF0EE000BFD6
:1019D0000CE000BF0AE000BF08E000BF06E000BF67
:1019E00004E000BF02E000BF00E000BF00BF04371A
:1019F000BD46F0BD10040020E4A80008FC01002052
:101A0000E80300204A0400204404002001000020D4
:101A100020030020F0A8000860A800083C04002073
:101A200080B500AF364BD3F8BC301B6903F001031F
:101A3000002B50D0324BD3F8BC301A69304BD3F85E
:101A4000BC3022F001021A612E4B1B78002B1ED0F5
:101A50002B4B1B6A202098472B4B5B682B4A92F933
:101A60000010CAB2013AD2B250B2284A1070012214
:101A70008A40D2B2D243D2B210469847234B93F950
:101A80000030002B21DA1F4B00221A701DE01C4B86
:101A90005B6A202098471C4B5B681C4A92F9001037
:101AA000CAB20132D2B250B2184A107001228A4032
:101AB000D2B2D243D2B210469847144B93F90030B9
:101AC000072B02DD0F4B01221A70114B1B880133CB
:101AD0009AB20F4B1A800A4BD3F8BC301B6903F043
:101AE0000203002B09D0064BD3F8BC301A69044B13
:101AF000D3F8BC3022F002021A6100BF80BD00BFE3
:101B0000FC0100204C0400200404002048040020B4
:101B10004A04002080B400AF01231846BD465DF89A
:101B2000047B704780B582B000AF7860396003F005
:101B30009FF9034616221A604FF0FF331846083704
:101B4000BD4680BD80B582B000AF78604FF0FF31F8
:101B50007868FFF7E7FFFEE780B586B000AFF86072
:101B6000B9607A6000237B610AE0AFF30080014630
:101B7000BB685A1CBA60CAB21A707B6901337B61B8
:101B80007A697B689A42F0DB7B6818461837BD4655
:101B900080BD80B586B000AFF860B9607A60002380
:101BA0007B6109E0BB685A1CBA601B781846AFF32A
:101BB00000807B6901337B617A697B689A42F1DB43
:101BC0007B6818461837BD4680BD80B483B000AF2F
:101BD00078604FF0FF3318460C37BD465DF8047B44
:101BE000704780B483B000AF786039603B684FF4D1
:101BF00000525A60002318460C37BD465DF8047B3E
:101C0000704780B483B000AF7860012318460C376A
:101C1000BD465DF8047B704780B485B000AFF860C6
:101C2000B9607A60002318461437BD465DF8047B1E
:101C30007047000080B586B000AF7860144A154B3D
:101C4000D31A7B617B693B61134B1B68002B02D16C
:101C5000114B124A1A60104B1A687B6813443A6998
:101C60009A4207D203F004F903460C221A604FF09F
:101C7000FF3309E0084B1B68FB60074B1A687B6861
:101C80001344054A1360FB6818461837BD4680BDEB
:101C900000000220000400006804002070070020FB
:101CA00080B400AF064BD3F88830054A43F4700384
:101CB000C2F8883000BFBD465DF8047B704700BFA6
:101CC00000ED00E0DFF834D00D480E490E4A002345
:101CD00002E0D458C4500433C4188C42F9D30B4AE0
:101CE0000B4C002301E013600432A242FBD3FFF748
:101CF000D7FF03F0C3F8FFF71FF87047000002207A
:101D000000000020DC010020D8AD0008E001002028
:101D100070070020FEE7000090B488B000AFF860C4
:101D2000B9607A60FB70384ABB681360374A7B68D9
:101D30001360374AFB781370364A97F828301370CF
:101D4000354A97F82C3013702F4B1B681A68FB78B4
:101D50005B000321994097F828305B00032000FACC
:101D600003F3194397F82C305B00032000FA03F3C8
:101D70000B43DB431946244B1B680A401A60224B75
:101D80001B681A68FB785B000121994097F828309E
:101D90005B00012000FA03F3194397F82C305B0035
:101DA000012000FA03F30B431946174B1B680A4343
:101DB0001A60164B1B681A68FB780121994097F846
:101DC0002830012000FA03F3194397F82C30012042
:101DD00000FA03F30B43DB4319460C4B1B680A4024
:101DE0001A600E4B7B610E4BBB610E4BFB61FB68B7
:101DF0001C4607F1140393E8070084E80700F8681D
:101E00002037BD4690BC70476C0400207004002051
:101E1000740400207504002076040020291E0008A8
:101E2000C11E0008051F000880B483B000AF034640
:101E3000FB71FB79002B0DD01E4B1B681A681E4BE3
:101E40001B78194601238B4019461A4B1B680A431D
:101E50001A600DE0174B1B681A68174B1B78194660
:101E600001238B40DB431946124B1B680A401A6062
:101E7000104B1B681A68114B1B78194601238B40C5
:101E800019460C4B1B680A431A600A4B1B681A68F8
:101E90000A4B1B78194601238B40DB431946054B3F
:101EA0001B680A401A6000BF0C37BD465DF8047B12
:101EB000704700BF700400207404002075040020E7
:101EC00080B584B000AF0346FB710023FB730FE0C5
:101ED000FB7B012202FA03F35AB297F90730134051
:101EE0005BB2DBB21846FFF79FFFFB7B0133FB734E
:101EF000FB7B072BECD900F005F800BF1037BD467F
:101F000080BD000080B400AF0F4B1B681A680F4BF8
:101F10001B78194601238B4019460B4B1B680A435B
:101F20001A60094B1B681A68084B1B781946012375
:101F30008B40DB431946044B1B680A401A6000BF04
:101F4000BD465DF8047B70477004002076040020D5
:101F5000B0B48BB000AF78600023FB6000233B611E
:101F6000084B7B627B681D4607F10C040FCC0FC544
:101F700094E8070085E8070078682C37BD46B0BCB8
:101F8000704700BF891F000880B582B000AF78603D
:101F900039607B685A687B681A607B683A685A6067
:101FA000786800F019F802467B689A60786800F05B
:101FB00024F802467B68DA60786800F030F8024660
:101FC0007B681A61786800F040F802467B685A61C5
:101FD00000BF0837BD4680BD80B485B000AF7860D3
:101FE0007B681A687B685B681340FB60FB68184677
:101FF0001437BD465DF8047B704780B485B000AFF0
:1020000078607B681A687B685B681343FB60FB68D9
:10201000DB4318461437BD465DF8047B704780B437
:1020200085B000AF78607B681A687B685B68534056
:10203000FB607B685B68FA681340FB60FB681846CE
:102040001437BD465DF8047B704780B485B000AF9F
:1020500078607B685A687B681B685340FB607B68CC
:102060001B68FA681340FB60FB6818461437BD46CE
:102070005DF8047B7047000080B5A6B000AF7860C3
:102080000A4B002283F85F20094BBB67094BC7F856
:1020900094307B68184607F108039022194602F035
:1020A00011FF78689837BD4680BD00BF78040020D6
:1020B000012200087D23000880B485B000AF78605D
:1020C0000023FB6002E0FB680133FB60FB687A6879
:1020D00013441B78002BF6D1FB6818461437BD4615
:1020E0005DF8047B704780B586B000AF7860002350
:1020F0007B617868FFF7E0FF0346013B3B6117E037
:102100007B697A6813441B78FB733B697A681A44CD
:102110007B6979680B4412781A703B697A681344BA
:10212000FA7B1A707B6901337B613B69013B3B6140
:102130007A693B699A42E3DB00BF00BF1837BD46AE
:1021400080BD000080B487B000AFF860B96013466E
:10215000FB710023FB75FA68274B83FB0213991070
:10216000D317C91A0B469B000B445B00D11ACAB2A5
:10217000FB7D591CF9751946BB680B443032D2B24D
:102180001A7015E0FA681C4B83FB02139910D317E1
:10219000C91A0B469B000B445B00D11ACAB2FB7DE7
:1021A000591CF9751946BB680B443032D2B21A700B
:1021B000FB68114A82FB03129210DB17D31AFB60F3
:1021C000FB68002BDEDC07E0FB7D5A1CFA751A4623
:1021D000BB68134430221A70FA7DFB799A42F3D31C
:1021E000FB7DBA68134400221A70FB7D18461C3729
:1021F000BD465DF8047B70476766666600000000B8
:10220000B0B58AB000AF87ED020B78600B46FB706B
:102210000023FB774FF000024FF00003D7E90201E3
:10222000FEF77CFC0346002B08D0BC68FB6883F0FB
:102230000045C7E90845FF23BB7705E0D7E902233E
:10224000C7E908230123BB77D7E90801FEF7CCFCD7
:102250000346BB61B869FEF775F902460B46D7E93C
:102260000801FEF731F802460B46C7E90423BB69B3
:10227000012279681846FFF765FF0346FB7797F957
:102280001E30002B08DAFB7F5A1CFA771A467B684F
:1022900013442D221A7007E0FB7F5A1CFA771A4666
:1022A0007B68134420221A70FB7F7A681344002253
:1022B0001A707868FFF717FFFB78002B30D0FB7897
:1022C000062B2DD8FB7F5A1CFA771A467B681344DD
:1022D0002E221A70FB781846FEF734F902460B4698
:1022E00043EC112B9FED220B07F064FB51EC100B1C
:1022F000D7E90423FEF7A0F902460B46104619461B
:10230000FEF74AFCFB7F7A681344FA781946FFF718
:1023100019FFFB7F7A6813441846FFF7E4FE21E0BB
:10232000FB7F5A1CFA771A467B6813442E221A70D8
:102330004FF00002104BD7E90401FEF77DF9024689
:102340000B4610461946FEF727FCFB7F7A681344BC
:1023500002221946FFF7F6FEFB7F7A6813441846FF
:10236000FFF7C1FE7B6818462837BD46B0BD00BFE9
:102370000000000000002440000059400FB480B568
:1023800082B000AF07F114033B603B683A695F21FC
:10239000084804F079FB78607B68002B01DA0023A1
:1023A00000E0044B18460837BD46BDE8804004B045
:1023B000704700BF78040020B0B5D8B000AFC7F8B0
:1023C0002C01C7F82811254C3B46184600F00AFCA2
:1023D00007F5B073A3F5B073204619464FF4927316
:1023E0001A4602F06FFD1E4AD7F8283113601D4BC4
:1023F000C7F834311C4BC7F838311C4BC7F83C3197
:102400001B4BC7F840311B4BC7F844311A4BC7F878
:1024100048311A4BC7F84C31194BC7F85031194B9A
:10242000C7F85431184BC7F85831184BC7F85C310E
:1024300000F02EF8D7F82C311D4607F59A740FCC12
:102440000FC50FCC0FC594E8070085E80700D7F843
:102450002C0107F5B077BD46B0BD00BFD804002001
:10246000FC05002079250008D9270008CD2900089F
:10247000252A0008072A0008452A0008732A0008B0
:10248000CF2A0008F52A0008152B0008A12B000808
:1024900080B500AF354B1B681A68344B1B6822F0BF
:1024A0003F021A60314B1B681A68304B1B6842F0C0
:1024B00015021A602D4B1B681A682C4B1B6822F002
:1024C000C0021A60294B1B68DA68284B1B6822F08F
:1024D000C002DA60254B1B68DA68244B1B6842F0A7
:1024E0004002DA60214B1B681B6903F00803204A95
:1024F0001360204BD3F8B4302820984700213320B4
:1025000000F03AF81B4BD3F8B8300420984700216C
:10251000332000F031F8174BD3F8B8300420984737
:1025200000212B2000F028F8124BD3F8B8300420FB
:10253000984700210C2000F01FF80E4BD3F8B8305C
:10254000042098470021012000F016F8094BD3F829
:10255000B430022098470021062000F00DF8054B0A
:10256000D3F8B8300420984700BF80BDFC05002098
:1025700000060020D804002080B582B000AF0346DA
:102580000A46FB711346BB80914BD3F81831914A30
:102590001268012110469847BB88002B08D08C4B4D
:1025A000D3F80C318B4A126800211046984707E097
:1025B000874BD3F81831874A126800211046984794
:1025C000844B1B681A68834B1B6822F47F421A6095
:1025D000804B1B681A687F4B1B6842F4AA421A6042
:1025E0007C4B1B68DA687B4B1B6822F47F42DA6005
:1025F000774BD3F80C31774A12680221104698477E
:1026000097F90730002B08DA714BD3F80C31714A77
:10261000126807211046984707E06D4BD3F8183130
:102620006C4A1268072110469847FB7903F0400373
:10263000002B08D0664BD3F80C31664A126806218D
:102640001046984707E0624BD3F81831614A126888
:10265000062110469847FB7903F02003002B08D091
:102660005B4BD3F80C315B4A126805211046984742
:1026700007E0574BD3F81831564A12680521104627
:102680009847FB7903F01003002B08D0504BD3F888
:102690000C31504A126804211046984707E04C4B11
:1026A000D3F818314B4A1268042110469847484B1A
:1026B000D3F81831474A1268022110469847444B14
:1026C000D3F81831434A1268012110469847BB8855
:1026D000002B08D03E4BD3F80C313E4A1268002143
:1026E0001046984707E03A4BD3F81831394A126838
:1026F000002110469847364BD3F80C31354A126802
:10270000022110469847FB7903F00803002B08D0FC
:102710002F4BD3F80C312F4A1268072110469847E7
:1027200007E02B4BD3F818312A4A126807211046CC
:102730009847FB7903F00403002B08D0244BD3F80F
:102740000C31244A126806211046984707E0204BB6
:10275000D3F818311F4A1268062110469847FB79B2
:1027600003F00203002B08D0194BD3F80C31194A9F
:10277000126805211046984707E0154BD3F8183129
:10278000144A1268052110469847FB7903F00103AB
:10279000002B08D00E4BD3F80C310E4A12680421DE
:1027A0001046984707E00A4BD3F81831094A1268D7
:1027B000042110469847064BD3F81831054A126891
:1027C00002211046984700BF0837BD4680BD00BFB4
:1027D000D8040020FC05002080B584B000AF03467B
:1027E000FB800023BB600023FB73764B1B681A68D9
:1027F000744B1B6822F47F421A60724B1B68DA68C4
:10280000704B1B6822F47F42DA606E4B1B68DA68FB
:102810006C4B1B6842F4AA42DA606B4BD3F80C3164
:10282000684A1268012110469847FB88002B08D09F
:10283000654BD3F80C31634A126800211046984763
:1028400007E0614BD3F818315E4A12680021104648
:1028500098475D4BD3F80C315A4A12680221104652
:102860009847584B1B681B69BB60574BD3F818310E
:10287000544A1268022110469847BB6803F080034F
:10288000002B04D0FB7B63F07F03FB7303E0FB7B37
:1028900003F07F03FB73BB6803F04003002B04D0FD
:1028A000FB7B43F04003FB7303E0FB7B23F040031F
:1028B000FB73BB6803F02003002B04D0FB7B43F0C9
:1028C0002003FB7303E0FB7B23F02003FB73BB6857
:1028D00003F01003002B04D0FB7B43F01003FB73C9
:1028E00003E0FB7B23F01003FB73374BD3F80C3171
:1028F000344A1268012110469847FB88002B08D003
:10290000314BD3F80C312F4A1268002110469847FA
:1029100007E02D4BD3F818312A4A126800211046DF
:102920009847294BD3F80C31264A126802211046E9
:102930009847244B1B681B69BB60234BD3F81831A5
:10294000204A1268022110469847BB6803F08003B2
:10295000002B04D0FB7B43F00803FB7303E0FB7BFD
:1029600023F00803FB73BB6803F04003002B04D083
:10297000FB7B43F00403FB7303E0FB7B23F00403C6
:10298000FB73BB6803F02003002B04D0FB7B43F0F8
:102990000203FB7303E0FB7B23F00203FB73BB68C2
:1029A00003F01003002B04D0FB7B43F00103FB7307
:1029B00003E0FB7B23F00103FB73FB7B184610371E
:1029C000BD4680BDFC050020D804002080B582B043
:1029D00000AF8023BB710023FB710AE00020FFF7EA
:1029E000FBFE0346BB71FB79012B07D8FB79013352
:1029F000FB7197F90630002BF0DB00E000BF00BF51
:102A00000837BD4680BD80B582B000AF0120FFF71A
:102A1000E3FE0346FB71FFF7D9FFFB791846083741
:102A2000BD4680BD80B582B000AF0346FB71FB7927
:102A300001211846FFF7A0FDFFF7C8FF00BF0837C8
:102A4000BD4680BD80B584B000AF786008E07B688B
:102A50005A1C7A601B78FB73FB7B1846FFF7E2FF7A
:102A60007B681B78002BF2D100BF00BF1037BD463A
:102A700080BD80B584B000AF786039600023FB6012
:102A80000FE07B685A1C7A601B78FB72FB6801338D
:102A9000FB60FA683B689A4208D8FB7A1846FFF751
:102AA000C1FF7B681B78002BEBD107E000BF05E07E
:102AB0002020FFF7B7FFFB680133FB60FA683B6833
:102AC0009A42F5D300BF00BF1037BD4680BD80B528
:102AD00082B000AF786005E02020FFF7A3FF7B689D
:102AE000013B7B607B68002BF6D100BF00BF08373D
:102AF000BD4680BD80B500AF00210120FFF73CFD41
:102B0000034BD3F8B4300220984700BF80BD00BF0C
:102B1000D804002080B582B000AF786039607B684F
:102B2000032B37D801A252F823F000BF3D2B000839
:102B3000532B0008692B00087F2B00083B68DBB291
:102B4000803BDBB200211846FFF716FDFFF73EFF82
:102B500021E03B68DBB2403BDBB200211846FFF7C7
:102B60000BFDFFF733FF16E03B68DBB26C3BDBB2DB
:102B700000211846FFF700FDFFF728FF0BE03B6838
:102B8000DBB22C3BDBB200211846FFF7F5FCFFF768
:102B90001DFF00E000BF00BF0837BD4680BD00BF7D
:102BA00080B582B000AF0D4B1B681B6903F00803B2
:102BB0007B600B4B1B687A6853403B603A687B68CC
:102BC00013403B603B68002B01D0FFF761FC044AD7
:102BD0007B68136000BF0837BD4680BDFC05002040
:102BE0000006002080B582B000AF78608F4B0022D5
:102BF0001A608F4B00221A608E494FF000024FF08E
:102C00000003C1E900238C4B8C4A1A608A4B8C4A22
:102C10005A60894B8B4A9A60874B8B4ADA60864BA5
:102C20008A4A1A61844B8A4A5A61834B894A9A615B
:102C3000814B894ADA61804B884A1A627E4B884A06
:102C40005A627D4B874A9A627B4B874ADA627A4B9B
:102C5000864A1A63784B864A5A63774B854A9A6349
:102C6000754B854ADA63744B844A1A64724B844A02
:102C70005A64714B834A9A646F4B834ADA646E4B91
:102C8000824A1A656C4B824A5A656B4B814A9A6537
:102C9000694B814ADA65684B804A1A66664B804AFE
:102CA0005A66654B7F4A9A66634B7F4ADA66624B87
:102CB0007E4A1A67604B7E4A5A675F4B7D4A9A6725
:102CC0005D4B7D4ADA675C4B7C4AC3F880205A4BE7
:102CD0007B4AC3F88420584B7A4AC3F88820564B65
:102CE000794AC3F88C20544B784AC3F89020524B51
:102CF000774AC3F89420504B764AC3F898204E4B3D
:102D0000754AC3F89C204C4B744AC3F8A0204A4B28
:102D1000734AC3F8A420484B724AC3F8A820464B14
:102D2000714AC3F8AC20444B704AC3F8B020424B00
:102D30006F4AC3F8B420404B6E4AC3F8B8203E4BEC
:102D40006D4AC3F8BC203C4B6C4AC3F8C0203A4BD8
:102D50006B4AC3F8C420384B6A4AC3F8C820364BC4
:102D6000694AC3F8CC20344B684AC3F8D020324BB0
:102D7000674AC3F8D420304B664AC3F8D8202E4B9C
:102D8000654AC3F8DC202C4B644AC3F8E0202A4B88
:102D9000634AC3F8E420284B624AC3F8E820264B74
:102DA000614AC3F8EC20244B604AC3F8F020224B60
:102DB0005F4AC3F8F420204B5E4AC3F8F8201E4B4C
:102DC0005D4AC3F8FC201C4B5C4AC3F800211A4B37
:102DD0005B4AC3F80421184B5A4AC3F80821164B22
:102DE000594AC3F80C21144B584AC3F81021124B0E
:102DF000574AC3F81421104B564AC3F818210E4BFA
:102E0000554AC3F81C210C4B544AC3F8202101F049
:102E100089FF7B68084A184611464FF492731A4698
:102E200002F050F878680837BD4680BD34070020AE
:102E3000440700205807002004060020003C024000
:102E400000300240007000400038024000000240A4
:102E5000C13100086932000811330008B933000895
:102E6000DD3300080134000800040240F934000892
:102E7000A135000849360008F1360008153700086A
:102E8000393700080008024031380008D9380008F6
:102E900081390008293A00084D3A0008713A0008C3
:102EA000000C024000100240001C024000280040BC
:102EB000693B0008353F0008B53E0008513E000858
:102EC000D13D0008313C0008BD3C0008493D0008E8
:102ED000114000083D410008B13F000800380140A2
:102EE000006002400064024000E100E010E000E009
:102EF000694D0008DD4D0008004001400020014000
:102F0000614200083543000891430008C9430008A6
:102F10000023014000100140F1430008612F000828
:102F20006547000899470008DD4700088948000800
:102F300035490008594900087D490008B54900088D
:102F4000ED490008DD2F00083B3000085F30000825
:102F50007B300008DB300008013100082131000817
:102F600080B483B000AF1C4BDB681A681A4BDB6877
:102F700042F001021A6000BF174BDB681B6803F0C8
:102F80000203002BF8D0144BDB689A68124BDB6805
:102F900022F003029A60104BDB689B689B08FB7170
:102FA000FB7903F00303FB710B4BDB685A6F0A4B91
:102FB000DB6842F001025A6700BF074BDB685B6FBA
:102FC00003F00203002BF8D0FB7918460C37BD46FE
:102FD0005DF8047B704700BF040600200EB480B487
:102FE00086B000AF786000233B61FB69002B1DDDDC
:102FF000FB69202B1ADC07F12003FB600023FB7523
:103000000DE0FB681A1DFA601B68012202FA03F347
:103010001A463B6913433B61FB7D0133FB75FB7D26
:10302000FA699A42EDDC7B683A699A6100BF183709
:10303000BD465DF8047B03B0704780B483B000AF39
:103040007860396001223B6802FA03F31A467B6814
:103050009A6100BF0C37BD465DF8047B704780B4B1
:1030600083B000AF786039603A687B689A6100BFCE
:103070000C37BD465DF8047B70470EB480B486B053
:1030800000AF786000233B61FB69002B1EDDFB690C
:10309000202B1BDC07F12003FB600023FB750EE0F7
:1030A000FB681A1DFA601B68012202FA03F31B0475
:1030B0001A463B6913433B61FB7D0133FB75FB7D86
:1030C000FA699A42ECDC7B683A699A6100BF18376A
:1030D000BD465DF8047B03B0704780B483B000AF99
:1030E0007860396001223B6802FA03F31B041A4638
:1030F0007B689A6100BF0C37BD465DF8047B704762
:1031000080B483B000AF786039603B681B041A4616
:103110007B689A6100BF0C37BD465DF8047B704741
:1031200080B586B000AFF860B9607A603B60F8683F
:10313000FDF708FA02460B4643EC112B9FED1C0BE2
:1031400006F038FC51EC100B4FF000021A4BFDF763
:10315000BBF802460B4610461946FDF745FD0346EF
:103160007B617A687B6913407B60BB681A683B6847
:10317000F96801FB03F3796901FA03F3DB431A40B1
:10318000BB681A60BB681A683B68F96801FB03F307
:10319000796801FA03F31A43BB681A60BB681A68BE
:1031A000BB681A6000BF1837BD4680BDAFF3008012
:1031B00000000000000000400000F03F00000000A0
:1031C00080B584B000AF786039600223FB60F86896
:1031D000FDF7B8F902460B4643EC112B9FED1E0B91
:1031E00006F0E8FB51EC100B4FF000021C4BFDF712
:1031F0006BF802460B4610461946FDF7F5FC0346F0
:10320000BB607A68BB6813407B60164B1B6919680A
:103210003B68FA6802FB03F3BA6802FA03F3DA4385
:10322000104B1B690A401A600E4B1B6919683B68FA
:10323000FA6802FB03F37A689A400A4B1B690A4357
:103240001A60084B1A69074B1B6912681A6000BFA5
:103250001037BD4680BD00BF0000000000000040E8
:103260000000F03F0406002080B584B000AF786015
:1032700039600223FB60F868FDF764F902460B46EB
:1032800043EC112B9FED1E0B06F094FB51EC100B41
:103290004FF000021C4BFDF717F802460B46104694
:1032A0001946FDF7A1FC0346BB607A68BB68134072
:1032B0007B60164B1B6999683B68FA6802FB03F355
:1032C000BA6802FA03F3DA43104B1B690A409A60AA
:1032D0000E4B1B6999683B68FA6802FB03F37A6836
:1032E0009A400A4B1B690A439A60084B1A69074BBC
:1032F0001B6992689A6000BF1037BD4680BD00BF51
:1033000000000000000000400000F03F0406002024
:1033100080B584B000AF786039600223FB60F86844
:10332000FDF710F902460B4643EC112B9FED1E0BE7
:1033300006F040FB51EC100B4FF000021C4BFCF769
:10334000C3FF02460B4610461946FDF74DFC0346E7
:10335000BB607A68BB6813407B60164B1B69D968F9
:103360003B68FA6802FB03F3BA6802FA03F3DA4334
:10337000104B1B690A40DA600E4B1B69D9683B6829
:10338000FA6802FB03F37A689A400A4B1B690A4306
:10339000DA60084B1A69074B1B69D268DA6000BF14
:1033A0001037BD4680BD00BF000000000000004097
:1033B0000000F03F0406002080B483B000AF7860C6
:1033C000054B1B697A6812049A6100BF0C37BD4631
:1033D0005DF8047B704700BF0406002080B483B012
:1033E00000AF7860044B1B697A689A6100BF0C37A4
:1033F000BD465DF8047B7047040600200000000015
:1034000080B584B000AF786039600423FB60F86851
:10341000FDF798F802460B4643EC112B9FED320B5B
:1034200006F0C8FA51EC100B4FF00002304BFCF7DD
:103430004BFF02460B4610461946FDF7D5FB0346E7
:10344000BB607A68BB6813407B603B68072B22D85F
:10345000284B1B69196A3B68FA6802FB03F3BA68D8
:1034600002FA03F3DA43234B1B690A401A62214B29
:103470001B69196A3B68FA6802FB03F37A689A4091
:103480001C4B1B690A431A621A4B1A69194B1B69B8
:10349000126A1A6221E0174B1B69596A3B68FA6885
:1034A00002FB03F3BA6802FA03F3DA43114B1B6918
:1034B0000A405A620F4B1B69596A3B68FA6802FB63
:1034C00003F37A689A400B4B1B690A435A62094B13
:1034D0001A69084B1B69526A5A6200BF1037BD4611
:1034E00080BD00BFAFF3008000000000000000407E
:1034F0000000F03F0406002080B584B000AF786083
:1035000039600223FB60F868FDF71CF802460B46A1
:1035100043EC112B9FED1E0B06F04CFA51EC100BF7
:103520004FF000021C4BFCF7CFFE02460B46104644
:103530001946FDF759FB0346BB607A68BB68134028
:103540007B60164BDB6A19683B68FA6802FB03F381
:10355000BA6802FA03F3DA43104BDB6A0A401A60D6
:103560000E4BDB6A19683B68FA6802FB03F37A6862
:103570009A400A4BDB6A0A431A60084BDA6A074B27
:10358000DB6A12681A6000BF1037BD4680BD00BFFD
:1035900000000000000000400000F03F0406002092
:1035A00080B584B000AF786039600223FB60F868B2
:1035B000FCF7C8FF02460B4643EC112B9FED1E0B98
:1035C00006F0F8F951EC100B4FF000021C4BFCF721
:1035D0007BFE02460B4610461946FDF705FB0346E7
:1035E000BB607A68BB6813407B60164BDB6A9968E6
:1035F0003B68FA6802FB03F3BA6802FA03F3DA43A2
:10360000104BDB6A0A409A600E4BDB6A99683B6894
:10361000FA6802FB03F37A689A400A4BDB6A0A43B2
:103620009A60084BDA6A074BDB6A92689A6000BFBF
:103630001037BD4680BD00BF000000000000004004
:103640000000F03F0406002080B584B000AF786031
:1036500039600223FB60F868FCF774FF02460B46F2
:1036600043EC112B9FED1E0B06F0A4F951EC100B4F
:103670004FF000021C4BFCF727FE02460B4610469B
:103680001946FDF7B1FA0346BB607A68BB68134080
:103690007B60164BDB6AD9683B68FA6802FB03F370
:1036A000BA6802FA03F3DA43104BDB6A0A40DA60C5
:1036B0000E4BDB6AD9683B68FA6802FB03F37A6851
:1036C0009A400A4BDB6A0A43DA60084BDA6A074B16
:1036D000DB6AD268DA6000BF1037BD4680BD00BF2C
:1036E00000000000000000400000F03F0406002041
:1036F00080B483B000AF7860054BDB6A7A6812044F
:103700009A6100BF0C37BD465DF8047B704700BF6F
:103710000406002080B483B000AF7860044BDB6AFD
:103720007A689A6100BF0C37BD465DF8047B70472C
:10373000040600200000000080B584B000AF78606F
:1037400039600423FB60F868FCF7FCFE02460B4678
:1037500043EC112B9FED320B06F02CF951EC100BC2
:103760004FF00002304BFCF7AFFD02460B4610460F
:103770001946FDF739FA0346BB607A68BB68134007
:103780007B603B68072B22D8284BDB6A196A3B68B1
:10379000FA6802FB03F3BA6802FA03F3DA43234B35
:1037A000DB6A0A401A62214BDB6A196A3B68FA68D5
:1037B00002FB03F37A689A401C4BDB6A0A431A62E5
:1037C0001A4BDA6A194BDB6A126A1A6221E0174B4C
:1037D000DB6A596A3B68FA6802FB03F3BA6802FACB
:1037E00003F3DA43114BDB6A0A405A620F4BDB6A80
:1037F000596A3B68FA6802FB03F37A689A400B4BFC
:10380000DB6A0A435A62094BDA6A084BDB6A526A7E
:103810005A6200BF1037BD4680BD00BFAFF30080C5
:1038200000000000000000400000F03F04060020FF
:1038300080B584B000AF786039600223FB60F8681F
:10384000FCF780FE02460B4643EC112B9FED1E0B4E
:1038500006F0B0F851EC100B4FF000021C4BFCF7D7
:1038600033FD02460B4610461946FDF7BDF90346E7
:10387000BB607A68BB6813407B60164B9B6C196811
:103880003B68FA6802FB03F3BA6802FA03F3DA430F
:10389000104B9B6C0A401A600E4B9B6C19683B687E
:1038A000FA6802FB03F37A689A400A4B9B6C0A435E
:1038B0001A60084B9A6C074B9B6C12681A6000BF29
:1038C0001037BD4680BD00BF000000000000004072
:1038D0000000F03F0406002080B584B000AF78609F
:1038E00039600223FB60F868FCF72CFE02460B46A9
:1038F00043EC112B9FED1E0B06F05CF851EC100B06
:103900004FF000021C4BFCF7DFFC02460B46104652
:103910001946FDF769F90346BB607A68BB68134036
:103920007B60164B9B6C99683B68FA6802FB03F35B
:10393000BA6802FA03F3DA43104B9B6C0A409A60B0
:103940000E4B9B6C99683B68FA6802FB03F37A683C
:103950009A400A4B9B6C0A439A60084B9A6C074B3F
:103960009B6C92689A6000BF1037BD4680BD00BF57
:1039700000000000000000400000F03F04060020AE
:1039800080B584B000AF786039600223FB60F868CE
:10399000FCF7D8FD02460B4643EC112B9FED1E0BA6
:1039A00006F008F851EC100B4FF000021C4BFCF72E
:1039B0008BFC02460B4610461946FDF715F90346E7
:1039C000BB607A68BB6813407B60164B9B6CD96800
:1039D0003B68FA6802FB03F3BA6802FA03F3DA43BE
:1039E000104B9B6C0A40DA600E4B9B6CD9683B68AD
:1039F000FA6802FB03F37A689A400A4B9B6C0A430D
:103A0000DA60084B9A6C074B9B6CD268DA6000BF97
:103A10001037BD4680BD00BF000000000000004020
:103A20000000F03F0406002080B483B000AF78604F
:103A3000054B9B6C7A6812049A6100BF0C37BD4637
:103A40005DF8047B704700BF0406002080B483B09B
:103A500000AF7860044B9B6C7A689A6100BF0C37AA
:103A6000BD465DF8047B704704060020000000009E
:103A700080B584B000AF786039600423FB60F868DB
:103A8000FCF760FD02460B4643EC112B9FED320B19
:103A900005F090FF51EC100B4FF00002304BFCF79B
:103AA00013FC02460B4610461946FDF79DF80346E7
:103AB000BB607A68BB6813407B603B68072B22D8E9
:103AC000284B9B6C196A3B68FA6802FB03F3BA68DF
:103AD00002FA03F3DA43234B9B6C0A401A62214B30
:103AE0009B6C196A3B68FA6802FB03F37A689A4098
:103AF0001C4B9B6C0A431A621A4B9A6C194B9B6CB9
:103B0000126A1A6221E0174B9B6C596A3B68FA688B
:103B100002FB03F3BA6802FA03F3DA43114B9B6C1E
:103B20000A405A620F4B9B6C596A3B68FA6802FB69
:103B300003F37A689A400B4B9B6C0A435A62094B19
:103B40009A6C084B9B6C526A5A6200BF1037BD4694
:103B500080BD00BFAFF30080000000000000004007
:103B60000000F03F0406002080B584B000AF03469B
:103B7000FB71FF23FB732B4B1B6F1B682A4A1360DF
:103B8000284B1B6F5B68294A1360FB79184600F0CD
:103B9000D1FF0346FB73234BDB681A6F214BDB68B5
:103BA00042F400421A671F4B1B6F5A6A1D4B1B6F72
:103BB00042F0CA025A621B4B1B6F5A6A194B1B6FA9
:103BC00042F053025A62174B1B6FDA68154B1B6F9A
:103BD00042F08002DA6000BF124B1B6FDB6803F01B
:103BE0004003002BF8D00623FB730E4B1B6F9A6823
:103BF0000C4B1B6F22F020029A600A4B1B6FDA6895
:103C0000084B1B6F22F08002DA60064B9B681A6833
:103C1000044B9B6822F480721A60FB7B18461037B5
:103C2000BD4680BD040600202C0700203007002080
:103C300080B584B000AF0346FB714FF47C13FB608A
:103C4000FB791B4AA2FB0323DB08DBB2184600F01A
:103C5000A3FD0346FB72FA79154BA3FB0213D908A7
:103C60000B469B000B445B00D31ADBB2184600F0F6
:103C700093FD0346BB720F4B1B6F1B680E4A13600C
:103C8000FB68DA430C4B1B6813400B4A1360BB7A8A
:103C90001A04FB7A1B0513431A46074B1B68134390
:103CA000054A136000F0B6FE00BF1037BD4680BD68
:103CB000CDCCCCCC040600202C07002080B584B0ED
:103CC00000AF0346FB714FF4FE43FB60FB791B4AD8
:103CD000A2FB0323DB08DBB2184600F05DFD0346C0
:103CE000FB72FA79154BA3FB0213D9080B469B0014
:103CF0000B445B00D31ADBB2184600F04DFD0346BF
:103D0000BB720F4B1B6F1B680E4A1360FB68DA43D4
:103D10000C4B1B6813400B4A1360BB7A1A02FB7AE8
:103D20001B0313431A46074B1B681343054A1360D2
:103D300000F070FE00BF1037BD4680BDCDCCCCCCAE
:103D4000040600202C07002080B584B000AF034695
:103D5000FB717F23FB60FB791A4AA2FB0323DB087C
:103D6000DBB2184600F018FD0346FB72FA79154BDA
:103D7000A3FB0213D9080B469B000B445B00D31A2C
:103D8000DBB2184600F008FD0346BB720E4B1B6FFA
:103D90001B680E4A1360FB68DA430C4B1B68134028
:103DA0000A4A1360BA7AFB7A1B0113431A46074B7F
:103DB0001B681343054A136000F02CFE00BF103748
:103DC000BD4680BDCDCCCCCC040600202C07002005
:103DD00080B584B000AF0346FB714FF47F03FB60F6
:103DE000FB79194AA2FB0323DB08DBB2184600F07B
:103DF000D3FC0346FB72FA79134BA3FB0213D908D9
:103E00000B469B000B445B00D31ADBB2184600F054
:103E1000C3FC0346BB72FB68DA430C4B1B681340C0
:103E20000A4A1360BB7A1A04FB7A1B0513431A462D
:103E3000064B1B681343054A136000F033FE00BFB6
:103E40001037BD4680BD00BFCDCCCCCC30070020A4
:103E500080B584B000AF0346FB714FF46023FB6074
:103E6000FA79124BA3FB0213D9080B469B000B44B3
:103E70005B00D31ADBB2184600F08EFC0346FB72DF
:103E8000FB68DA430A4B1B681340094A1360FB7A4C
:103E90005B031A46064B1B681343054A136000F088
:103EA00001FE00BF1037BD4680BD00BFCDCCCCCCDD
:103EB0003007002080B584B000AF0346FB714FF49B
:103EC000F853FB60FB79194AA2FB0323DB08DBB242
:103ED000184600F061FC0346FB72FA79134BA3FB12
:103EE0000213D9080B469B000B445B00D31ADBB2CC
:103EF000184600F051FC0346BB72FB68DA430C4BDA
:103F00001B6813400A4A1360BB7A1A02FB7A1B0330
:103F100013431A46064B1B681343054A136000F00F
:103F2000C1FD00BF1037BD4680BD00BFCDCCCCCC9D
:103F30003007002080B584B000AF0346FB713F23FB
:103F4000FB60FB79184AA2FB0323DB08DBB21846AF
:103F500000F022FC0346FB72FA79134BA3FB021319
:103F6000D9080B469B000B445B00D31ADBB2184602
:103F700000F012FC0346BB72FB68DA430B4B1B6874
:103F800013400A4A1360BA7AFB7A1B0113431A469C
:103F9000064B1B681343054A136000F083FD00BF06
:103FA0001037BD4680BD00BFCDCCCCCC3007002043
:103FB00080B483B000AF78603960144B9B681A6896
:103FC000124B9B6842F480721A60104B1B6F5A6A46
:103FD0000E4B1B6F42F0CA025A620C4B1B6F5A6A9F
:103FE0000A4B1B6F42F053025A627B683A681A60B0
:103FF000064B9B681A68054B9B6822F480721A6016
:1040000000BF0C37BD465DF8047B704704060020F6
:1040100090B585B000AF7860464B1B6F5B68FB6066
:10402000FB681B0DDBB203F00F03DAB27B681A707A
:104030007B681B78184600F095FB03461A467B68A0
:104040001A70FB681B0CDAB27B68013302F00F02B6
:10405000D2B21A707B6801331A787B685C1C1046F8
:1040600000F080FB03462370FB685B0BDAB27B68D1
:10407000023302F00702D2B21A707B6802331A7858
:104080007B689C1C104600F06DFB03462370FB68A8
:104090001B0BDAB27B68033302F00102D2B21A7052
:1040A0007B6803331A787B68DC1C104600F05AFBEF
:1040B00003462370FB681B0ADAB27B68043302F004
:1040C0000F02D2B21A707B6804331A787B681C1D09
:1040D000104600F047FB03462370FB681B09DAB269
:1040E0007B68053302F00302D2B21A707B68053395
:1040F0001A787B685C1D104600F034FB0346237081
:10410000FB68DAB27B68063302F00F02D2B21A7093
:104110007B6806331A787B689C1D104600F022FBF2
:1041200003462370044AFB68136000BF1437BD4682
:1041300090BD00BF040600203007002090B585B078
:1041400000AF7860444B1B6F1B68FB60424B1B6FDA
:10415000DB6803F02003002B79D0FB681B0DDBB27A
:1041600003F00303DAB27B681A707B681B78184689
:1041700000F0F8FA03461A467B681A70FB681B0CBD
:10418000DAB27B68013302F00F02D2B21A707B6898
:1041900001331A787B685C1C104600F0E3FA034692
:1041A0002370FB681B0BDAB27B68023302F0070254
:1041B000D2B21A707B6802331A787B689C1C104656
:1041C00000F0D0FA03462370FB681B0ADAB27B6862
:1041D000033302F00F02D2B21A707B6803331A78ED
:1041E0007B68DC1C104600F0BDFA03462370FB68B8
:1041F0001B09DAB27B68043302F00702D2B21A70EC
:104200007B6804331A787B681C1D104600F0AAFAFC
:1042100003462370FB68DAB27B68053302F00F02B5
:10422000D2B21A707B6805331A787B685C1D104621
:1042300000F098FA03462370084AFB681360064BA7
:104240001B6FDA68044B1B6F22F02002DA6000BF9C
:104250001437BD4690BD00BF040600202C07002087
:1042600080B400AF324BDB681A6C314BDB6842F034
:1042700000521A642E4BDB685A6C2D4BDB6842F4FB
:1042800080725A642A4BD3F8C0309A68284BD3F80E
:10429000C03042F480629A60254BD3F8D4305A681B
:1042A000234BD3F8D43042F440325A60204BD3F839
:1042B000C030DA681E4BD3F8C03042F0E062DA60FA
:1042C0001B4BD3F8C0305A68194BD3F8C03042F4B6
:1042D00000625A60164BD3F8C0305A6B144BD3F8B7
:1042E000C03042F012025A63114BD3F8C0309A68C2
:1042F0000F4BD3F8C03042F001029A600C4BD3F858
:10430000D4305A680A4BD3F8D43042F400025A60D1
:10431000074BD3F8C0309A68054BD3F8C03042F051
:1043200080429A6000BFBD465DF8047B704700BFC5
:104330000406002080B500AF134BD3F8D4301B68BF
:1043400003F00203002B15D00F4BD3F8C030DB6C09
:104350001846FCF7F7F802460B460C49C1E9002362
:10436000094BD3F8C0301A68074BD3F8C03022F09D
:1043700010021A60054BD3E9002343EC172BB0EE73
:10438000470AF0EE670A80BD0406002058070020A7
:1043900080B400AF0B4BD3F8D4301B6803F010038C
:1043A000002B09D1074BD3F8C0309A68054BD3F8DE
:1043B000C03042F080429A6000BFBD465DF8047B89
:1043C000704700BF0406002080B400AF074BD3F84D
:1043D000C0309A68054BD3F8C03042F001029A60B1
:1043E00000BFBD465DF8047B704700BF0406002097
:1043F0002DE9B04F8EB000AF034687ED020B3A6156
:10440000FB750B46BB75FB7D092B0AD1B44BD3F86A
:10441000D830DA68B24BD3F8D83042F48052DA6040
:1044200017E0FB7D082B0AD1AD4BD3F8D830DA6802
:10443000AB4BD3F8D83022F48052DA6009E0A84BB5
:10444000D3F8D830DA68A64BD3F8D83022F48052AB
:10445000DA60BB7D082B0DD1082387F83730A04BDD
:10446000D3F8D830DA689E4BD3F8D83042F4004203
:10447000DA601DE0BB7D102B0DD1102387F837309B
:10448000974BD3F8D830DA68954BD3F8D83022F46C
:104490000042DA600CE0102387F83730904BD3F8F5
:1044A000D830DA688E4BD3F8D83022F40042DA6084
:1044B0008B4BD3F8D8301A69894BD3F8D83022F413
:1044C00040521A614FF00002864BD7E90201FBF718
:1044D000FBFE02460B463A6023F000437B607EA35E
:1044E000D3E90023D7E90001FCF718FB0346002BB2
:1044F0000AD07B4BD3F8D8301A69794BD3F8D8302F
:1045000042F480521A6162E04FF00002764BD7E924
:104510000201FBF7D9FE02460B46924623F0004B00
:104520006DA3D3E9002350465946FCF7F7FA03463A
:10453000002B0AD06A4BD3F8D8301A69684BD3F8ED
:10454000D83022F440521A6141E04FF00002674B2C
:10455000D7E90201FBF7B8FE02460B46904623F06E
:1045600000495DA3D3E9002340464946FCF7D6FA4B
:104570000346002B0AD05A4BD3F8D8301A69584B4F
:10458000D3F8D83042F440521A6120E04FF00002D4
:104590004FF08043D7E90201FBF796FE02460B4637
:1045A000144623F000454CA3D3E9002320462946B6
:1045B000FCF7B4FA0346002B09D0494BD3F8D830A6
:1045C0001A69474BD3F8D83042F400521A61484B6D
:1045D0001B681846FBF7B6FF04460D4697F83730C0
:1045E0003A6902FB03F31846FBF7ACFF02460B46A1
:1045F00020462946FCF74AF902460B46C7E90A233A
:1046000007F11803184697ED0A0B01F0EBFA87ED56
:10461000080B334BD3F8D83000229A60BB7D102BA7
:104620002BD14FF00002334BD7E90801FCF704F817
:1046300002460B4643EC172BB0EE470AF0EE670A32
:1046400005F072F951EC100B254BD3F8D840FCF76C
:10465000CBFA0346A360224BD3F8D8309C68D7E945
:10466000062310461946FCF7BFFA03461A011C4BF5
:10467000D3F8D83022439A606BE0BB7D082B3DD144
:104680004FF000021C4BD7E90801FBF7D5FF0246AB
:104690000B4643EC172BB0EE470AF0EE670A05F025
:1046A00043F951EC100B0E4BD3F8D840FCF79CFAB1
:1046B0000346A3600A4BD3F8D8309C68D7E9062399
:1046C00010461946FCF790FA03461A01044BD3F83A
:1046D000D83022439A603CE0F168E388B5F8E43EC4
:1046E000040600200000E03F0000F03F0000F83F1B
:1046F0000400002000003040000020404FF0000285
:10470000164BD7E90801FBF797FF02460B4643EC2F
:10471000172BB0EE470AF0EE670A05F005F951ECE9
:10472000100B0F4BD3F8D840FCF75EFA0346A3609A
:104730000B4BD3F8D8309C68D7E9062310461946AE
:10474000FCF752FA03461A01054BD3F8D83022433E
:104750009A6000BF3837BD46BDE8B08F00003040DA
:104760000406002080B483B000AF0346FB71FB79E0
:104770001B09DBB21A46920013445B00DAB2FB79E4
:1047800003F00F03DBB21344DBB218460C37BD460F
:104790005DF8047B7047000080B483B000AF03462F
:1047A000FB71FB790C4AA2FB0323DB08DBB21B0184
:1047B000D8B2FA79084BA3FB0213D9080B469B0029
:1047C0000B445B00D31ADBB20344DBB218460C3750
:1047D000BD465DF8047B7047CDCCCCCC80B485B0B1
:1047E00000AFF8600B467A60FB72264B0022DA605D
:1047F000244B1B68002B02D0012B10D039E0FB7A30
:10480000012202FA03F31A46FB681340002B2DD055
:104810001C4A7B6853601B4B01221A6026E0FB7A1E
:10482000012202FA03F31A46FB681340002B1FD043
:10483000144A7B689360134B9B685A1C114B5B684E
:104840009A4207D90F4B9A680E4B5B68D31A0D4AF0
:10485000D36007E00B4B9A680A4B5B68D31A013BA5
:10486000084AD360074B00221A6001E000BF00E055
:1048700000BF044BDB6818461437BD465DF8047B67
:10488000704700BF3407002080B485B000AFF860E7
:10489000B9603B601346FB71254B0022DA60244B64
:1048A0001B68002B02D0012B10D039E0FB790122CC
:1048B00002FA03F31A46FB681340002B2DD01C4A62
:1048C0003B6853601A4B01221A6026E0FB790122F3
:1048D00002FA03F31A46BB681340002B1FD0144A98
:1048E0003B689360124B9B685A1C114B5B689A4261
:1048F00007D90F4B9A680E4B5B68D31A0C4AD360EA
:1049000007E00B4B9A680A4B5B68D31A013B084AD5
:10491000D360074B00221A6001E000BF00E000BF37
:10492000034BDB6818461437BD465DF8047B7047BF
:104930004407002080B483B000AFB8803B799BB2BD
:104940001B029AB27B799BB213439BB218460C3779
:10495000BD465DF8047B704780B483B000AFB8807B
:104960007B799BB21B029AB23B799BB213439BB2F9
:1049700018460C37BD465DF8047B704780B485B09F
:1049800000AF0346FB80FB881B0A9BB2DBB23B7285
:10499000FB88DBB27B723B89BB8100233A7B62F3ED
:1049A00007037A7B62F30F2318461437BD465DF880
:1049B000047B704780B485B000AF0346FB80FB8862
:1049C0001B0A9BB2DBB27B72FB88DBB23B723B897A
:1049D000BB8100233A7B62F307037A7B62F30F23E8
:1049E00018461437BD465DF8047B704780B485B027
:1049F00000AF0346FB80FB881B02FB81FB881B0A80
:104A00009AB2FB8913439BB218461437BD465DF832
:104A1000047B704780B400AF204B9B681A681F4B23
:104A20009B6842F480721A601C4B1B6F5A6A1B4BC6
:104A30001B6F42F0CA025A62184B1B6F5A6A174B1F
:104A40001B6F42F053025A62144B1B6FDA68134B10
:104A50001B6F42F08002DA6000BF104B1B6FDB68F7
:104A600003F04003002BF8D00C4B1B6F0C4A12686C
:104A70001A600A4B1B6FDA68084B1B6F22F080022A
:104A8000DA60064B9B681A68044B9B6822F48072BC
:104A90001A6000BFBD465DF8047B70470406002025
:104AA0002C07002080B400AF204B9B681A681F4B76
:104AB0009B6842F480721A601C4B1B6F5A6A1B4B36
:104AC0001B6F42F0CA025A62184B1B6F5A6A174B8F
:104AD0001B6F42F053025A62144B1B6FDA68134B80
:104AE0001B6F42F08002DA6000BF104B1B6FDB6867
:104AF00003F04003002BF8D00C4B1B6F0C4A1268DC
:104B00005A600A4B1B6FDA68084B1B6F22F0800259
:104B1000DA60064B9B681A68044B9B6822F480722B
:104B20001A6000BFBD465DF8047B70470406002094
:104B30003007002080B485B000AF0346FB71784B8E
:104B4000DB681A6C764BDB6842F080521A64744B57
:104B50009B681A68724B9B6842F480721A60FB79FA
:104B6000032B57D801A252F823F000BF7D4B000859
:104B7000A34B0008C94B0008CF4B0008684BDB680B
:104B80005A6F674BDB6842F001025A6700BF644B03
:104B9000DB685B6F03F00203002BF8D00023FB738C
:104BA0004BE05F4BDB681A6F5D4BDB6842F0010244
:104BB0001A6700BF5A4BDB681B6F03F00203002B20
:104BC000F8D00123FB7338E00223FB7335E0544B2C
:104BD000DB685A6F524BDB6842F001025A6700BF34
:104BE0004F4BDB685B6F03F00203002BF8D04C4B9C
:104BF000DB681A6F4A4BDB6842F001021A6700BF9C
:104C0000474BDB681B6F03F00203002BF8D0032334
:104C1000FB7312E0424BDB685A6F414BDB6842F09A
:104C200001025A6700BF3E4BDB685B6F03F0020373
:104C3000002BF8D00423FB7300BFFB79032B57D85C
:104C400001A252F823F000BF594C00087F4C000825
:104C5000A54C0008CB4C0008314BDB681A6F304B79
:104C6000DB6822F440721A672D4BDB681A6F2C4BFD
:104C7000DB6842F400721A670523FB7349E0284B96
:104C8000DB681A6F264BDB6822F440721A67244BEC
:104C9000DB681A6F224BDB6842F480721A670623C6
:104CA000FB7336E01E4BDB681A6F1D4BDB6822F48A
:104CB00040721A671A4BDB681A6F194BDB6842F4B3
:104CC00040721A670723FB7323E0154BDB681A6FEA
:104CD000134BDB6822F440721A67114BDB681A6FC2
:104CE0000F4BDB6842F400721A670823FB7310E075
:104CF0000B4BDB681A6F0A4BDB6822F440721A67B1
:104D0000074BDB681A6F064BDB6842F400721A67C8
:104D100000BFFB7B18461437BD465DF8047B704727
:104D20000406002080B400AF0D4B1A680D4BD3F879
:104D3000B030013A5A600B4BD3F8B03000229A6081
:104D4000084BD3F8B0301A68064BD3F8B03042F0B5
:104D500006021A6000BFBD465DF8047B704700BFC5
:104D6000040000200406002080B483B000AF786007
:104D7000164B1B68164AA2FB03239A09154BD3F85E
:104D8000B030013A5A60134BD3F8B0301A68114B67
:104D9000D3F8B03042F001021A600F4B00221A60C3
:104DA00000BF0D4B1B687A689A42FAD8094BD3F8BA
:104DB000B0301A68074BD3F8B03022F001021A6005
:104DC00000BF0C37BD465DF8047B7047040000202F
:104DD000D34D6210040600202807002080B483B061
:104DE00000AF7860174B1B685B09174AA2FB0323CF
:104DF000DA09164BD3F8B030013A5A60134BD3F8A6
:104E0000B0301A68114BD3F8B03042F001021A608A
:104E10000F4B00221A6000BF0D4B1B687A689A4244
:104E2000FAD80A4BD3F8B0301A68084BD3F8B03030
:104E300022F001021A6000BF0C37BD465DF8047B0A
:104E4000704700BF04000020C55A7C0A04060020F9
:104E50002807002080B400AF044B1B680133034ACD
:104E6000136000BFBD465DF8047B70472807002033
:104E7000014B1868704700BF0800002070B50D4D49
:104E80000D4C641BA4100026A64209D10B4D0C4CFE
:104E900005F0ACFC641BA4100026A64205D170BD31
:104EA00055F8043B98470136EEE755F8043B984720
:104EB0000136F2E7D0AD0008D0AD0008D0AD000853
:104EC000D4AD00080A44914200F1FF3300D170478D
:104ED00010B511F8014B03F8014F9142F9D110BD03
:104EE00002440346934200D1704703F8011BF9E7DF
:104EF0002DE9FF4755EC104B002D0E4619462B4669
:104F0000BBBF05F100431D4600232D230B700D9BF5
:104F1000DDF830A0914623F02008BCBF224614469D
:104F2000B8F1460F05D0B8F1450F00D10136022186
:104F300000E0032103AB019302AB009345EC104B5F
:104F40005346324601F03CFEB8F1470F074602D106
:104F500019F0010F22D0B8F1460F07EB060910D166
:104F60003B78302B0AD10022002320462946FBF74C
:104F7000CBFD18B9C6F10106CAF80060DAF80030B6
:104F800099440022002320462946FBF7BDFD08B1C5
:104F9000CDF80C903022039B4B4507D3039B0E9A10
:104FA000DB1B3846136004B0BDE8F087591C039141
:104FB0001A70F0E7F7B503460029B8BF494203F875
:104FC000022BB4BF2D222B22092942702ADD0DF1BC
:104FD0000704A4460A27A6460A4691FBF7F607FBF4
:104FE00016153035632A04F1FF340EF8015C3146A2
:104FF000F1DC3031AEF1020504F8011C441C2946F5
:1050000061450AD30DF10902A2EB0E02654588BF86
:1050100000221344181A03B0F0BD11F8012B04F854
:10502000012FEDE7302330318370C170031DF1E7AC
:105030002DE9F04F2DED028B8DB00C46DDF8608030
:1050400016461F46054602F019FFD0F800A050464C
:10505000FBF7DEF800230A9323680593D8F80030A5
:1050600094F818B0073323F0070303F10802C8F8D7
:105070000020D3E90023C4E91223D4E9128929F0DE
:1050800000430793CDF8188008EE100A9F4BDDE926
:1050900006014FF0FF32FBF769FD88BBDDE9060131
:1050A0009A4B4FF0FF32FBF743FD48BB0022002331
:1050B00040464946FBF732FD10B12D2384F84330BA
:1050C000934B9448BBF1470F94BF98468046032307
:1050D0002361059B23F0040222604FF00009009732
:1050E00033460BAA2146284600F0D8F9013040F09B
:1050F00090804FF0FF300DB0BDEC028BBDE8F08F1B
:1051000042464B4640464946FBF730FD40B14B46D0
:10511000002BBCBF2D2384F843307F487F4BD1E761
:1051200063680BF0DF0206925A1C3FD106236360CE
:10513000059B616843F48062002303930AABCDE9C9
:1051400001B309AB49EC108B009322600DF12303EE
:105150002846FFF7CDFE069B0999472B804608D1CC
:10516000C81C02DB6368994241DDABF1020B5FFAB8
:105170008BFBBBF1650F20D801395A4604F1500072
:105180000991FFF717FF0A9A1318012A8146236134
:1051900002DC2268D20701D5013323619DF8233058
:1051A000002B9CD02D2384F8433098E7069A472A99
:1051B000BED1002BBCD10123B9E7BBF1660F18D1DA
:1051C000002963680BDD216113B92268D00702D57D
:1051D00001330B442361A1654FF00009DEE713B9E9
:1051E0002268D20701D50233F4E70123F2E74FF03A
:1051F000670B0A9B994205DB23682161D807EAD532
:105200004B1CE7E70029D4BFC1F10202012213447D
:10521000E0E723685A0507D4236942463146284609
:10522000B84701302CD164E7BBF1650F40F2E08054
:10523000D4E9120100220023FBF766FC002834D0D9
:10524000374A012331462846B84701303FF451AF71
:10525000DDE909239A4202DB2368D80710D518EE4E
:10526000103A524631462846B84701303FF441AF24
:105270004FF0000804F11A090A9B013B434509DC81
:1052800023689B0700F10581E0680B9B9842B8BF3B
:10529000184630E701234A4631462846B8470130D0
:1052A0003FF427AF08F10108E6E7099B002B39DC42
:1052B0001B4A012331462846B84701303FF419AF55
:1052C000DDE90923134302D12368D907D8D518EEA5
:1052D000103A524631462846B84701303FF409AFEC
:1052E0004FF0000904F11A0A099B5B424B4501DCAF
:1052F0000A9B92E70123524631462846B8470130BF
:105300003FF4F7AE09F10109EEE700BFFFFFEF7FC1
:10531000FCA8000800A9000808A9000804A90008C2
:105320000CA900080A9AA36D9A42A8BF1A46002A3F
:10533000914637DC4FF0000B29EAE97904F11A02B3
:10534000A36D0593A3EB09035B4533DCDDE909237A
:105350009A423BDB2368DA0738D40A9B059A0999FD
:105360009A1AA3EB01099145A8BF9146B9F1000F24
:1053700035DC4FF0000829EAE97904F11A0ADDE981
:1053800009239B1AA3EB090343457FF779AF012358
:10539000524631462846B84701303FF4AAAE08F1DC
:1053A0000108ECE71346314642462846B84701302B
:1053B000C0D19EE60123314628460592B847013008
:1053C0003FF497AE059A0BF1010BB9E718EE103ACE
:1053D000524631462846B8470130BED189E6059A83
:1053E0004B46424431462846B8470130C1D180E699
:1053F0000A9A012A01DCDB0738D5012342463146EF
:105400002846B84701303FF474AE18EE103A5246C1
:1054100031462846B84701303FF46BAED4E912015B
:1054200000220023FBF770FBD8B90A9B08F10102A8
:10543000013B31462846B84701300ED159E60123D9
:10544000524631462846B84701303FF452AE08F183
:1054500001080A9B013B4345F1DC4B4604F1500235
:10546000DCE64FF0000804F11A0AF2E70123424695
:10547000DFE701234A4631462846B84701303FF46A
:1054800038AE08F10108E3680B995B1A4345F0DC7C
:10549000FAE64FF0000804F11909F4E72DE9F047A6
:1054A000164699468A680B69DDF820809342B8BF9A
:1054B0001346336091F8432007460C460AB1013386
:1054C00033602368990642BF33680233336025682E
:1054D00015F0060506D104F1190AE36832689B1A33
:1054E000AB4226DC94F84320131E226818BF012328
:1054F00092062BD404F1430249463846C047013096
:105500001ED02368E568326803F00603042B08BF49
:10551000AD1AA36822690CBF25EAE5750025934200
:10552000C4BF9B1AED1800261A34B5421AD10020C8
:1055300008E00123524649463846C047013003D1AE
:105540004FF0FF30BDE8F0870135C6E7E1185A1C7F
:10555000302081F84300224494F8451082F843102B
:105560000233C7E70123224649463846C047013087
:10557000E6D00136D9E700002DE9FF470F7E0C9DEC
:10558000782F914680460C469A4601F1430207D88F
:10559000622F0AD8002F00F0D880582F00F0A38087
:1055A00004F1420584F842703AE0A7F16303152B39
:1055B000F6D801A151F823F011560008255600082D
:1055C000A1550008A1550008A1550008A1550008E3
:1055D00025560008A1550008A1550008A15500084E
:1055E000A155000831570008555600081357000808
:1055F000A1550008A155000853570008A1550008FF
:1056000055560008A1550008A15500081B57000871
:105610002B681A1D1B682A6004F1420584F8423089
:105620000123A3E020682968060601F104030AD5D6
:105630000E682B60002E03DA2D23764284F8433067
:105640005E480A2319E00E682B6010F0400F18BF67
:1056500036B2EFE72B682068191D2960010601D5D5
:105660001E6802E04606FBD51E8854486F2F0CBF0B
:1056700008230A23002184F843106568A560002DE3
:10568000A2BF216821F0040121600EB9002D4DD088
:105690001546B6FBF3F103FB1167C75D05F8017D05
:1056A0003746BB420E46F4D9082B0BD12368DE07E0
:1056B00008D5236961689942DEBF302305F8013CB3
:1056C00005F1FF35521B2261CDF800A04B4603AA1D
:1056D00021464046FFF7E2FE01304CD14FF0FF304B
:1056E00004B0BDE8F087354881F845702968236823
:1056F00051F8046B29601D0614D5DF0744BF43F041
:10570000200323601EB9236823F0200323601023A5
:10571000B0E7236843F0200323607823284884F807
:105720004530E3E7590648BFB6B2E6E71546BBE7A2
:105730002B6826686169181D286035061B6801D52D
:10574000196002E07006FBD519800023236115461D
:10575000BAE72B681A1D2A601D6862680021284676
:10576000FAF75EFD08B1401B6060636823610023A7
:1057700084F84330A8E723692A4649464046D04783
:105780000130ABD023689B0713D4E068039B984299
:10579000B8BF1846A4E70123324649464046D047E1
:1057A00001309BD00135E36803995B1AAB42F2DC10
:1057B000EBE7002504F11906F5E700BF0EA9000884
:1057C0001FA900082DE9F04F87B0174603938B6897
:1057D0005A1EB2F5AE7F83BF6FF4AE755B190293AC
:1057E000002386BF40F25D138B6002930B688B46EB
:1057F000002543F4F0634BF81C3BCDE9045580468B
:105800000C465E46AA46A9460195A26852B13B687D
:105810001B784E2B64D8402B3CD8A3F12B01C8B287
:105820000E283AD9B9F1000F03D0236823F480730E
:1058300023600AF1FF3ABAF1010F00F213815E45CD
:1058400000F205810125284607B0BDE8F08FA3F1DD
:1058500061020D2AE6D801A151F822F09B590008F7
:10586000255800082558000825580008FB5900084D
:10587000D35900082558000825580008A9590008E0
:105880002558000825580008255800082558000804
:1058900061590008A3F14102DBE70E29C2D801A03B
:1058A00050F821F0535900082558000853590008B2
:1058B000E759000825580008015900083D5900081B
:1058C0003D5900083D5900083D5900083D59000860
:1058D0003D5900083D5900083D5900083D59000850
:1058E0006E2B09D8602BB2D8542B77D0592B99D175
:1058F000072D97D1082529E0742B6FD0792BF6E777
:105900002168C8051AD5029B21F08001216009F1A8
:1059100001091BB1013B01320293A260A368013B64
:10592000A3602369013323617B68013B002B7B600B
:1059300040F384803B6801333B6066E71AEB050F58
:105940007FF470AF226822F4C072226006F8013B37
:10595000E4E7226810067FF565AF22F08002F4E7E5
:10596000BAF1000F0ED1B9F1000F0ED1226802F486
:10597000E061B1F5E06F08D122F4F06222604FF0EF
:10598000010AE3E7BAF1020F55D0012D02D0042D30
:105990007FF448AF0135EDB2D8E7BAF1010F7FF4DB
:1059A00041AF4FF0020AD1E77DB9B9F1000F7FF4A2
:1059B0003CAF226802F4E061B1F5E06F7FF439AFEB
:1059C00022F4F06222600125C0E7032DE2D0052D0C
:1059D000DEE7022D7FF426AF0325B7E7062D7FF41F
:1059E00021AF0725B2E7226891057FF51BAF22F4AE
:1059F00020722260CDF80490A8E7226802F4A0612A
:105A0000B1F5806F06D050057FF50CAFB9F1000FEE
:105A10003FF40FAF910558BF019922F4F06258BFCF
:105A2000A9EB010142F4C07258BFCDE9041622600F
:105A30004FF000098AE74FF0030A87E7D4F8803176
:105A400039464046984700283FF4DFAEEAE6D4F8EE
:105A50007C3116F8011D3A46404698472369013BC0
:105A60002361ECE66B1E062B25D8022D36D85E4549
:105A70007FF6E8AED4F87C3116F8011D3A46404670
:105A800098472369013B2361F1E70298D4F87C3100
:105A900010F8011D02903A46404698472369013BA1
:105AA00023610AF1FF3A5FFA8AFABAF1020FECD1E8
:105AB000033DEDB2761B2368DA052FD55B0510D5C3
:105AC0005E457FF6BFAED4F87C3116F8011D3A462C
:105AD000404698472369013B2361F1E7AA460296B5
