:020000040800F2
:1000000000000220F51F00084520000845200008D8
:100010004520000845200008452000080000000099
:100020000000000000000000000000004520000863
:1000300045200008000000004520000885730008E6
:1000400045200008452000084520000845200008FC
:1000500045200008452000084520000845200008EC
:1000600045200008452000084520000845200008DC
:1000700045200008452000084520000845200008CC
:1000800045200008452000084520000845200008BC
:1000900045200008452000084520000845200008AC
:1000A000511D000845200008452000084520000893
:1000B000452000084520000845200008452000088C
:1000C000452000084520000845200008452000087C
:1000D000452000084520000845200008452000086C
:1000E000452000084520000845200008452000085C
:1000F000452000084520000845200008452000084C
:10010000452000084520000845200008452000083B
:10011000452000084520000845200008452000082B
:10012000452000084520000845200008452000081B
:1001300045200008000000000000000045200008E5
:1001400045200008452000084520000845200008FB
:1001500045200008452000084520000845200008EB
:1001600045200008452000084520000845200008DB
:100170004520000845200008452000080000000038
:100180000000000045200008000000000000000002
:100190004520000800000000000000004520000885
:1001A00000000000000000000000000045200008E2
:1001B000452000084520000845200008452000088B
:0401C00045200008CE
:1001D00010B5054C237833B9044B13B10448AFF381
:1001E00000800123237010BDE0010020000000000A
:1001F0000CCD000808B5034B1BB103490348AFF30E
:10020000008008BD00000000E40100200CCD0008C3
:10021000034613F8012B002AFBD1181A0138704746
:1002200001F0FF01102A2BDB10F0070F08D010F8A7
:10023000013B013A8B422DD010F0070F42B3F6D1AB
:10024000F0B441EA012141EA014122F007047FF0C4
:1002500000070023F0E80256083C85EA010586EA1B
:10026000010685FA47F5A3FA87F586FA47F6A5FA57
:1002700087F68EB9EED1F0BC01F0FF0102F0070263
:1002800032B110F8013B013A83EA010313B1F8D10E
:100290000020704701387047002D06BF35460338EF
:1002A000073815F0010F07D1013015F4807F02BF28
:1002B000013015F4C03F0130F0BC0138704700BF79
:1002C00081F0004102E000BF83F0004330B54FEA07
:1002D00041044FEA430594EA050F08BF90EA020F74
:1002E0001FBF54EA000C55EA020C7FEA645C7FEA07
:1002F000655C00F0E2804FEA5454D4EB5555B8BF2A
:100300006D420CDD2C4480EA020281EA030382EA9A
:10031000000083EA010180EA020281EA0303362D2C
:1003200088BF30BD11F0004F4FEA01314FF4801CFF
:100330004CEA113102D0404261EB410113F0004F11
:100340004FEA03334CEA133302D0524263EB4303C8
:1003500094EA050F00F0A780A4F10104D5F1200E66
:100360000DDB02FA0EFC22FA05F2801841F10001C1
:1003700003FA0EF2801843FA05F359410EE0A5F195
:1003800020050EF1200E012A03FA0EFC28BF4CF0C6
:10039000020C43FA05F3C01851EBE37101F000457C
:1003A00007D54FF0000EDCF1000C7EEB00006EEB89
:1003B0000101B1F5801F1BD3B1F5001F0CD3490813
:1003C0005FEA30004FEA3C0C04F101044FEA44526A
:1003D00012F5800F80F09A80BCF1004F08BF5FEAF1
:1003E000500C50F1000041EB045141EA050130BDD1
:1003F0005FEA4C0C404141EB0101013C28BFB1F5E3
:10040000801FE9D291F0000F04BF01460020B1FA2D
:1004100081F308BF2033A3F10B03B3F120020CDA00
:100420000C3208DD02F1140CC2F10C0201FA0CF0DE
:1004300021FA02F10CE002F11402D8BFC2F1200C43
:1004400001FA02F120FA0CFCDCBF41EA0C019040F9
:10045000E41AA2BF01EB0451294330BD6FEA040442
:100460001F3C1CDA0C340EDC04F11404C4F120022D
:1004700020FA04F001FA02F340EA030021FA04F33F
:1004800045EA030130BDC4F10C04C4F1200220FA96
:1004900002F001FA04F340EA0300294630BD21FAD4
:1004A00004F0294630BD94F0000F83F4801306BF9A
:1004B00081F480110134013D4EE77FEA645C18BF8E
:1004C0007FEA655C29D094EA050F08BF90EA020F25
:1004D00005D054EA000C04BF1946104630BD91EA1D
:1004E000030F1EBF0021002030BD5FEA545C05D120
:1004F0004000494128BF41F0004130BD14F580045F
:100500003CBF01F5801130BD01F0004545F0FE41D2
:1005100041F470014FF0000030BD7FEA645C1ABF07
:10052000194610467FEA655C1CBF0B46024650EA3E
:10053000013406BF52EA033591EA030F41F400216A
:1005400030BD00BF90F0000F04BF0021704730B5F0
:100550004FF4806404F132044FF000054FF00001C5
:1005600050E700BF90F0000F04BF0021704730B586
:100570004FF4806404F1320410F0004548BF40425B
:100580004FF000013EE700BF42004FEAE2014FEAB0
:1005900031014FEA02701FBF12F07F4393F07F4F8B
:1005A00081F06051704732F07F4208BF704793F08E
:1005B0007F4F04BF41F40021704730B54FF46074A1
:1005C00001F0004521F000411CE700BF50EA0102A4
:1005D00008BF704730B54FF000050AE050EA01024D
:1005E00008BF704730B511F0004502D5404261EBBD
:1005F00041014FF4806404F132045FEA915C3FF4FE
:10060000D8AE4FF003025FEADC0C18BF03325FEA9A
:10061000DC0C18BF033202EBDC02C2F1200300FA4B
:1006200003FC20FA02F001FA03FE40EA0E0021FA70
:1006300002F11444BDE600BF70B54FF0FF0C4CF45E
:10064000E06C1CEA11541DBF1CEA135594EA0C0F10
:1006500095EA0C0F00F0DEF82C4481EA030621EA4B
:100660004C5123EA4C5350EA013518BF52EA033586
:1006700041F4801143F4801338D0A0FB02CE4FF038
:100680000005E1FB02E506F00042E0FB03E54FF068
:100690000006E1FB03569CF0000F18BF4EF0010E60
:1006A000A4F1FF04B6F5007F64F5407404D25FEA5C
:1006B0004E0E6D4146EB060642EAC62141EA55510F
:1006C0004FEAC52040EA5E504FEACE2EB4F1FD0C51
:1006D00088BFBCF5E06F1ED8BEF1004F08BF5FEACF
:1006E000500E50F1000041EB045170BD06F0004681
:1006F00046EA010140EA020081EA0301B4EB5C042E
:10070000C2BFD4EB0C0541EA045170BD41F4801125
:100710004FF0000E013C00F3AB8014F1360FDEBF4A
:10072000002001F0004170BDC4F10004203C35DA26
:100730000C341BDC04F11404C4F1200500FA05F3A9
:1007400020FA04F001FA05F240EA020001F000424A
:1007500021F0004110EBD37021FA04F642EB0601C0
:100760005EEA430E08BF20EAD37070BDC4F10C04EA
:10077000C4F1200500FA04F320FA05F001FA04F2AE
:1007800040EA020001F0004110EBD37041F100019A
:100790005EEA430E08BF20EAD37070BDC4F12005A5
:1007A00000FA05F24EEA020E20FA04F301FA05F20D
:1007B00043EA020321FA04F001F0004121FA04F2B5
:1007C00020EA020000EBD3705EEA430E08BF20EA85
:1007D000D37070BD94F0000F0FD101F000464000BF
:1007E00041EB010111F4801F08BF013CF7D041EA41
:1007F000060195F0000F18BF704703F00046520045
:1008000043EB030313F4801F08BF013DF7D043EA15
:100810000603704794EA0C0F0CEA135518BF95EACB
:100820000C0F0CD050EA410618BF52EA4306D1D152
:1008300081EA030101F000414FF0000070BD50EA71
:10084000410606BF1046194652EA430619D094EAFB
:100850000C0F02D150EA013613D195EA0C0F05D1E5
:1008600052EA03361CBF104619460AD181EA030139
:1008700001F0004141F0FE4141F470014FF00000F1
:1008800070BD41F0FE4141F4780170BD70B54FF08C
:10089000FF0C4CF4E06C1CEA11541DBF1CEA13550C
:1008A00094EA0C0F95EA0C0F00F0A7F8A4EB0504EE
:1008B00081EA030E52EA03354FEA013100F08880E5
:1008C0004FEA03334FF0805545EA131343EA1263AE
:1008D0004FEA022245EA111545EA10654FEA002663
:1008E0000EF000419D4208BF964244F1FD0404F51C
:1008F000407402D25B084FEA3202B61A65EB030578
:100900005B084FEA32024FF480104FF4002CB6EB34
:10091000020E75EB030E22BFB61A754640EA0C00B4
:100920005B084FEA3202B6EB020E75EB030E22BFF4
:10093000B61A754640EA5C005B084FEA3202B6EB35
:10094000020E75EB030E22BFB61A754640EA9C00F4
:100950005B084FEA3202B6EB020E75EB030E22BFC4
:10096000B61A754640EADC0055EA060E18D04FEA82
:10097000051545EA16754FEA06164FEAC30343EA22
:1009800052734FEAC2025FEA1C1CC0D111F4801FEF
:100990000BD141EA00014FF000004FF0004CB6E7E8
:1009A00011F4801F04BF01430020B4F1FD0C88BF87
:1009B000BCF5E06F3FF6AFAEB5EB030C04BFB6EB92
:1009C000020C5FEA500C50F1000041EB045170BD85
:1009D0000EF0004E4EEA113114EB5C04C2BFD4EBB2
:1009E0000C0541EA045170BD41F480114FF0000E36
:1009F000013C90E645EA060E8DE60CEA135594EAB2
:100A00000C0F08BF95EA0C0F3FF43BAF94EA0C0FB4
:100A10000AD150EA01347FF434AF95EA0C0F7FF429
:100A200025AF104619462CE795EA0C0F06D152EA7D
:100A300003353FF4FDAE1046194622E750EA410661
:100A400018BF52EA43067FF4C5AE50EA41047FF472
:100A50000DAF52EA43057FF4EBAE12E74FF0FF3CD7
:100A600006E000BF4FF0010C02E000BF4FF0010CA8
:100A70004DF804CD4FEA410C7FEA6C5C4FEA430C21
:100A800018BF7FEA6C5C1BD001B050EA410C0CBF70
:100A900052EA430C91EA030F02BF90EA020F0020D2
:100AA000704710F1000F91EA030F58BF994208BF39
:100AB00090422CBFD8176FEAE37040F001007047F6
:100AC0004FEA410C7FEA6C5C02D150EA013C07D14D
:100AD0004FEA430C7FEA6C5CD6D152EA033CD3D098
:100AE0005DF8040B704700BF8446104662468C4692
:100AF0001946634600E000BF01B5FFF7B7FF0028C5
:100B000048BF10F1000F01BD4DF808EDFFF7F4FFED
:100B10000CBF012000205DF808FB00BF4DF808ED78
:100B2000FFF7EAFF34BF012000205DF808FB00BF9B
:100B30004DF808EDFFF7E0FF94BF012000205DF8BD
:100B400008FB00BF4DF808EDFFF7CEFF94BF012072
:100B500000205DF808FB00BF4DF808EDFFF7C4FF6B
:100B600034BF012000205DF808FB00BF4FEA410CB4
:100B70007FEA6C5C02D150EA013C0AD14FEA430C97
:100B80007FEA6C5C02D152EA033C02D14FF00000D4
:100B900070474FF0010070474FEA410212F5001212
:100BA00015D211D56FF47873B3EB625212D94FEAB4
:100BB000C12343F0004343EA505311F0004F23FA9E
:100BC00002F018BF404270474FF00000704750EAF3
:100BD000013005D111F0004008BF6FF000407047B0
:100BE0004FF00000704700BF4A0011D212F500120A
:100BF00011D20DD56FF47873B3EB62520ED44FEA75
:100C0000C12343F0004343EA505323FA02F07047F4
:100C10004FF00000704750EA013002D14FF0FF3032
:100C200070474FF0000070474FEA4102B2F1E043D5
:100C300024BFB3F5001CDCF1FE5C0DD901F0004CC3
:100C40004FEAC0024CEA5070B2F1004F40EB830013
:100C500008BF20F00100704711F0804F21D113F13F
:100C60003872BCBF01F00040704741F480114FEA78
:100C70005252C2F11802C2F1200C10FA0CF320FA01
:100C800002F018BF40F001004FEAC1234FEAD3231E
:100C900003FA0CFC40EA0C0023FA02F34FEA430388
:100CA000CCE77FEA625307D150EA01331EBF4FF011
:100CB000FE4040F44000704701F0004040F0FE402C
:100CC00040F40000704700BF38B5002200230446FE
:100CD0000D46FFF723FF28B920462946BDE83840D6
:100CE00000F00AB8204605F1004100F005F8404246
:100CF00061EB410138BD00BFD0B50C4B0022064668
:100D00000F46FFF799FCFFF76FFF0446FFF71AFC49
:100D1000074B0022FFF790FC02460B46304639464F
:100D2000FFF7D2FAFFF760FF2146D0BD0000F03D8B
:100D30000000F04100000000B0B5F8B002AF4FF085
:100D400000024FF00003C7E972230023C7F8C43143
:100D50003C23C7F8C031B64B00221A60B44B0022C6
:100D60005A60B34B00229A60B24C3B46184602F0E0
:100D70004DFF07F5EC73A3F5EC73204619464FF4CD
:100D8000DA731A4606F036FBAA4BD3F86831984757
:100D900000F054FA00F074FAA74C3B46184601F0F4
:100DA000D1FB07F5EC73A3F5EC73204619469023AD
:100DB0001A4606F01FFBA14C3B46184601F02EFBDD
:100DC00007F5EC73A3F5EC731D460FCD0FC495E842
:100DD000070084E807009A4C3B46184601F01EFBCA
:100DE00007F5EC73A3F5EC731D460FCD0FC495E822
:100DF000070084E80700934C3B46184601F00EFBC1
:100E000007F5EC73A3F5EC731D460FCD0FC495E801
:100E1000070084E807008C4C3B468C4A202118468A
:100E200001F02EFA07F5EC73A3F5EC731D460FCD18
:100E30000FC40FCD0FC42B682360854B03221A709B
:100E4000844B00221A70844B00221A80834B0022AC
:100E50001A70784BDB6E1946764BDB6E03F1140289
:100E60007F4C38460023019301230093022301F0B5
:100E7000EBF807F5EC73A3F5EC72234607CA83E899
:100E800007006C4B1A6D774C3B461146184602F032
:100E900089FA07F5EC73A3F5EC731D460FCD0FC46B
:100EA0000FCD0FC495E8070084E80700614BD3F825
:100EB000303198475F4BD3F8383198475D4BD3F8C2
:100EC0003C3198475B4BD3F8E03001209847594BB1
:100ED000D3F854314FF416529FED530B10210820D4
:100EE0009847544BD3F858319847524B9B681A682F
:100EF000504B9B6842F480721A604E4BD3F8DC3042
:100F00005A6A4C4BD3F8DC3042F0CA025A62494B61
:100F1000D3F8DC305A6A474BD3F8DC3042F0530246
:100F20005A62444BD3F8AC41424BD3F8DC3003F166
:100F30005000002353220821A0473E4BD3F8AC4178
:100F40003C4BD3F8DC3003F150000123452208214B
:100F5000A047384BD3F8AC41364BD3F8DC3003F123
:100F60005000022354220821A047324BD3F8AC4151
:100F7000304BD3F8DC3003F1500003234822082122
:100F8000A0472C4BD3F8AC412A4BD3F8DC3003F10B
:100F90005000042353220821A047264BD3F8AC412C
:100FA000244BD3F8DC3003F1500005230022082144
:100FB000A047204B9B681A681E4B9B6822F48072E6
:100FC0001A600023C7F8BC310023C7F8D431D7F822
:100FD000D43103F00703C7F8BC31D7F8BC31002B7C
:100FE00044D1164B9B69134A526B12691146134840
:100FF0009847134B9B690F4A126D126911461048AE
:101000009847104B9B690B4AD26E126911460D48E6
:101010009847144B9B6A98470B4B1B6A12490A4826
:101020009847EEE0AFF30080000000000000F03FC2
:101030003C050020FC010020B003002040040020FB
:101040005C04002078040020CC040020040500206B
:10105000F0040020FC040020FE0400200005002015
:1010600094040020A004002028CD0008D7F8BC314B
:10107000012B77D16A4B5B6A002101209847684BAE
:101080005C69684BD3F88C30674AD2F8DC20503268
:1010900011466648984703461846A047604B5B6A6E
:1010A000072101209847D7F8C031D7F8C4219A42C8
:1010B00017D25D4BD3F84031984753EC102BD7E94A
:1010C0007201FFF703F902460B46C7E97223564B3C
:1010D000D3F844319847D7F8C4310133C7F8C43145
:1010E0008FE0D7F8C001FFF73DFA02460B46D7E97B
:1010F0007201FFF7CBFB02460B46C7E9722344A3FC
:10110000D3E90023D7E97201FFF7C0FB02460B4683
:101110001046194640A3D3E90023FFF7D5F802464D
:101120000B46104619464FF00002414BFFF7CEF830
:1011300002460B46C7E97223394B9C69394BD3F8F9
:101140008C50D7E97201FFF74FFD0346DF221946A5
:101150003848A847034606211846A0470023C7F889
:10116000C4314EE0D7F8BC31022B14D12C4B5B6A52
:101170000021012098472A4B5C692A4BD3F88C3018
:10118000294AD2F8DC2050321146284898470346B5
:101190001846A04735E0D7F8BC31032B02D100F048
:1011A000AFF82EE0D7F8BC31042B19D11E4BD3F881
:1011B00050311B6803F04003002B1DD01E4B5B69B0
:1011C0001D489847034687F8BB3197F8BB31002B81
:1011D00012D0154BD3F8503197F8BB215A600BE071
:1011E000D7F8BC31052B09D0D7F8BC31062B07D076
:1011F000D7F8BC31072B04E000BF02E000BF00E0DD
:1012000000BFD7F8D4310133C7F8D431DFE600BFCF
:10121000CDCCCCCCCCCC0840638C31C61803734009
:10122000A0040020B0030020FC01002038CD0008FD
:10123000000039403CCD0008CC04002080B500AF50
:101240000E4BDB681A6B0D4BDB6842F007021A632A
:101250000A4B9B6B052101209847084B1B6C05210D
:1012600000209847054B1B6F0D2100209847034B2A
:101270009B6F0D210120984700BF80BDFC0100201D
:1012800080B400AF1D4BDB685A6C1C4BDB6842F42A
:1012900080325A64194BD3F818311A68174BD3F8B7
:1012A000183142F080721A60144BD3F828314BF297
:1012B000DF12DA62114BD3F8283141F66A525A63D1
:1012C0000E4BD3F8283114229A620C4BD3F82831F4
:1012D000DA680A4BD3F8283142F00302DA60074B90
:1012E000D3F828311A68054BD3F8283142F081022F
:1012F0001A6000BFBD465DF8047B7047FC0100200A
:10130000F0B585B004AF804B1B78013B082B00F291
:10131000ED8401A252F823F03D13000823140008C5
:10132000511500086D160008A91700089B18000841
:10133000D1190008C31A0008FD1B0008734B5B6A33
:10134000002100209847714B9B69102170489847F5
:10135000704BD3F80431704898476C4B5B6A00219E
:1013600003209847694B9C696C4BD3F88C506A4BAF
:101370001B781846684B5B781E46674B9B789C46EB
:10138000654BDB781A46644B1B791946624B5B79D7
:101390000293019100926346324601466048A84795
:1013A000034611211846A0475A4BD3F878415D4BAC
:1013B00058695C4B19695C4B1B880D22A04703469A
:1013C0005A4A1360594B1B68052B0BD9574B1B68A6
:1013D0000A2B07D8564BDB695649554898474A4B64
:1013E00002221A70514B1B680A2B0BD94F4B1B68FA
:1013F0001D2B07D84E4BDB694F494D489847424B50
:1014000004221A70494B1B68282B40F27184484B08
:10141000DB694A49464898473B4B03221A7000F063
:1014200067BC3A4B5B6A002100209847374B9B69A9
:10143000102143489847374BD3F800313648984736
:10144000324B5B6A002103209847304B9C69334B39
:10145000D3F88C50304B5B7918462F4B9B791E4646
:101460002D4BDB789C462C4B1B791A462A4B1B785C
:101470001946294B5B7802930191009263463246EC
:1014800001463048A847034611211846A047214B82
:10149000D3F87841234B5869224B1969224B1B889A
:1014A0000D22A0470346214A1360204B1B68052BE1
:1014B0000BD91E4B1B680A2B07D81D4BDB69224931
:1014C0001B489847104B01221A70184B1B680A2BB7
:1014D0000BD9164B1B681D2B07D8154BDB691B4915
:1014E00013489847084B07221A70104B1B68282B8B
:1014F00040F200840E4BDB6910490D489847024BBF
:1015000003221A70F6E300BFF0040020A0040020BC
:1015100044CD0008FC01002024050020B003002079
:101520004CCD000878040020FE040020F8040020C0
:10153000CC04002064CD00086CCD00087CCD0008F0
:101540008CCD000894CD0008ACCD0008B8CD0008C3
:10155000834B5B6A002100209847814B9B690A21DD
:1015600080489847804BD3F80031804898477C4B9F
:101570005B6A002102209847794B9C697C4BD3F829
:101580008C507A4B5B791846784B9B791E46774B8B
:10159000DB789C46754B1B791A46744B1B781946B1
:1015A000724B5B780293019100926346324601468A
:1015B0007048A847034611211846A0476A4BD3F844
:1015C00004316A489847664B5B6A002103209847BC
:1015D000634B9C69664BD3F88C50644B1B78184660
:1015E000624B5B781E46614B9B789C465F4BDB7879
:1015F0001A465E4B1B7919465C4B5B79029301914D
:1016000000926346324601465B48A84703461121D3
:101610001846A047544BD3F87841584B5869574B5C
:101620001969574B1B880D22A0470346282B40F20F
:1016300063834B4B5B6A002102209847484B9B69B0
:10164000112150489847464B5B6A00210320984778
:10165000434B9B690F214B4898474B4BDB694B49E8
:10166000494898474A4B01221A7045E33C4B5B6A54
:101670000021002098473A4B9B6910214548984724
:10168000394BD3F878413D4B58693C4B19693C4B79
:101690001B880D22A04703463F4A13603E4B1B6840
:1016A000002B23D03C4B1B68052B1FD83B4B1B78D2
:1016B0000133DAB2394B1A70384B1B78172B02D929
:1016C000364B00221A70264B5B6A00210220984795
:1016D000234B9C69264BD3F88C30304A1278114644
:1016E0002F489847034610211846A0472A4B1B68ED
:1016F0000A2B15D9284B1B68132B11D8184B5B6A82
:10170000002102209847164B9B6910211D489847DD
:101710001D4BDB6923491C4898471D4B05221A7055
:101720001D4B1B68132B40F2E9820D4B5B6A0021B5
:10173000022098470A4B9B69102112489847124B88
:10174000DB69124910489847114B01221A70064B69
:10175000D3F8F430114A127810469847CEE200BF11
:10176000A0040020C8CD0008FC01002024050020B2
:10177000B003002094CD00084CCD00087804002070
:10178000FE040020D4CD0008CC040020ACCD00081D
:10179000F0040020D8CD0008F8040020F104002057
:1017A000E8CD0008F4CD0008784B5B6A00210020EA
:1017B0009847764B9B69102175489847754BD3F82D
:1017C0007841754B5869744B1969744B1B880D220D
:1017D000A0470346724A1360714B1B68002B23D04D
:1017E0006F4B1B68052B1FD86E4B1B780133DAB289
:1017F0006C4B1A706B4B1B783B2B02D9694B002248
:101800001A70624B5B6A0021022098475F4B9C690B
:10181000654BD3F88C30634A127811466348984779
:10182000034610211846A0475D4B1B680A2B15D9AB
:101830005B4B1B68132B11D8544B5B6A00210220B1
:101840009847524B9B69102159489847594BDB697F
:10185000594958489847594B06221A70504B1B68F3
:10186000132B40F24D82494B5B6A002102209847BE
:10187000464B9B6910214E4898474E4BDB695049B7
:101880004C4898474D4B01221A70424BD3F8F83020
:10189000444A12781046984732E23C4B5B6A00217A
:1018A00000209847394B9B69102146489847394B8F
:1018B000D3F87841384B5869374B1969374B1B8837
:1018C0000D22A0470346364A1360354B1B68002B98
:1018D00023D0334B1B68052B1FD83B4B1B780133A0
:1018E000DAB2394B1A70384B1B783B2B02D9364B86
:1018F00000221A70254B5B6A002102209847234B77
:101900009C69294BD3F88C302F4A127811462F4806
:101910009847034610211846A047214B1B680A2B05
:1019200015D91F4B1B68132B11D8184B5B6A00216C
:1019300002209847154B9B6910211D4898471D4B65
:10194000DB691F491B4898471C4B01221A70144B36
:101950001B68132B40F2D6810C4B5B6A00210220DE
:1019600098470A4B9B69102111489847114BDB6936
:10197000134910489847114B01221A70054BD3F8B0
:10198000FC30114A127810469847BBE1A0040020B1
:1019900008CE0008FC01002078040020FE0400208E
:1019A000F8040020F2040020B003002018CE000844
:1019B000D4CD0008CC04002024CE0008F004002080
:1019C000ACCD000838CE0008F30400204CCE00084F
:1019D000784B5B6A002100209847764B9B69102169
:1019E00075489847754BD3F87841754B5869744BD7
:1019F0001969744B1B880D22A0470346724A136075
:101A0000714B1B68002B23D06F4B1B68052B1FD815
:101A10006E4B1B780133DAB26C4B1A706B4B1B7830
:101A2000632B02D9694B00221A70624B5B6A00215A
:101A3000022098475F4B9C69654BD3F88C30634A12
:101A40001278114663489847034610211846A0476C
:101A50005D4B1B680A2B15D95B4B1B68132B11D8E8
:101A6000544B5B6A002102209847524B9B6910211E
:101A700059489847594BDB69594958489847594B39
:101A800008221A70504B1B68132B40F23D81494BC2
:101A90005B6A002102209847464B9B6910214E4803
:101AA00098474E4BDB6950494C4898474D4B0222B2
:101AB0001A70424BD3F8F030444A127810469847D7
:101AC00022E13C4B5B6A002100209847394B9B691F
:101AD000102146489847394BD3F87841384B58691C
:101AE000374B1969374B1B880D22A0470346364AEE
:101AF0001360354B1B68002B23D0334B1B68052B21
:101B00001FD83B4B1B780133DAB2394B1A70384B74
:101B10001B780C2B02D9364B01221A70254B5B6ABD
:101B2000002102209847234B9C69294BD3F88C3025
:101B30002F4A127811462F4898470346102118461D
:101B4000A047214B1B680A2B15D91F4B1B68132B71
:101B500011D8184B5B6A002102209847154B9B69EE
:101B600010211D4898471D4BDB6923491B489847A6
:101B70001C4B09221A70144B1B68132B40F2C680B1
:101B80000C4B5B6A0021022098470A4B9B6910218D
:101B900011489847114BDB69134910489847114B7E
:101BA00002221A70054BD3F8E830114A1278104619
:101BB0009847ABE0A004002058CE0008FC010020AC
:101BC00078040020FE040020F8040020F404002023
:101BD000B003002064CE0008D4CD0008CC0400205F
:101BE0006CCE0008F004002064CD00087CCE000814
:101BF0000000002088CE000890CE0008474B5B6AAA
:101C0000002100209847454B9B6910214448984784
:101C1000444BD3F87841444B5869434B1969434BC3
:101C20001B880D22A0470346414A1360404B1B68A6
:101C3000002B23D03E4B1B68052B1FD83D4B1B7838
:101C40000133DAB23B4B1A703A4B1B781F2B02D987
:101C5000384B01221A70314B5B6A002102209847F1
:101C60002E4B9C69344BD3F88C30324A1278114693
:101C700032489847034610211846A0472C4B1B6852
:101C80000A2B15D92A4B1B68132B11D8234B5B6ADF
:101C9000002102209847214B9B6910212848984732
:101CA000284BDB69284927489847284B02221A709D
:101CB0001F4B1B68132B2BD9184B5B6A002102208A
:101CC0009847164B9B6910211D4898471D4BDB69AF
:101CD0001D491C4898471D4B02221A70114BD3F81E
:101CE000E430144A12781046984711E000BF10E023
:101CF00000BF0EE000BF0CE000BF0AE000BF08E03C
:101D000000BF06E000BF04E000BF02E000BF00E04B
:101D100000BF00BF0437BD46F0BD00BFA0040020D7
:101D2000A0CE0008FC01002078040020FE04002062
:101D3000F804002001000020B0030020ACCE000811
:101D4000D4CD0008CC04002064CD0008F0040020AD
:101D500080B500AF364BD3F828311B6903F001037F
:101D6000002B50D0324BD3F828311A69304BD3F8BE
:101D7000283122F001021A612E4B1B78002B1ED055
:101D80002B4B9B6C202098472B4B5B682B4A92F97E
:101D90000010CAB2013AD2B250B2284A10700122E1
:101DA0008A40D2B2D243D2B210469847234B93F91D
:101DB0000030002B21DA1F4B00221A701DE01C4B53
:101DC000DB6C202098471C4B5B681C4A92F9001082
:101DD000CAB20132D2B250B2184A107001228A40FF
:101DE000D2B2D243D2B210469847144B93F9003086
:101DF000072B02DD0F4B01221A70114B1B88013398
:101E00009AB20F4B1A800A4BD3F828311B6903F0A2
:101E10000203002B09D0064BD3F828311A69044B72
:101E2000D3F8283122F002021A6100BF80BD00BF42
:101E3000FC0100200005002094040020FC04002088
:101E4000FE04002080B400AF01231846BD465DF8B3
:101E5000047B704780B582B000AF7860396005F0D0
:101E60009FFA034616221A604FF0FF3318460837D0
:101E7000BD4680BD80B582B000AF78604FF0FF31C5
:101E80007868FFF7E7FFFEE780B586B000AFF8603F
:101E9000B9607A6000237B610AE0AFF300800146FD
:101EA000BB685A1CBA60CAB21A707B6901337B6185
:101EB0007A697B689A42F0DB7B6818461837BD4622
:101EC00080BD80B586B000AFF860B9607A6000234D
:101ED0007B6109E0BB685A1CBA601B781846AFF3F7
:101EE00000807B6901337B617A697B689A42F1DB10
:101EF0007B6818461837BD4680BD80B483B000AFFC
:101F000078604FF0FF3318460C37BD465DF8047B10
:101F1000704780B483B000AF786039603B684FF49D
:101F200000525A60002318460C37BD465DF8047B0A
:101F3000704780B483B000AF7860012318460C3737
:101F4000BD465DF8047B704780B485B000AFF86093
:101F5000B9607A60002318461437BD465DF8047BEB
:101F60007047000080B586B000AF7860144A154B0A
:101F7000D31A7B617B693B61134B1B68002B02D139
:101F8000114B124A1A60104B1A687B6813443A6965
:101F90009A4207D205F004FA03460C221A604FF069
:101FA000FF3309E0084B1B68FB60074B1A687B682E
:101FB0001344054A1360FB6818461837BD4680BDB8
:101FC00000000220000400005C05002080090020C1
:101FD00080B400AF064BD3F88830054A43F4700351
:101FE000C2F8883000BFBD465DF8047B704700BF73
:101FF00000ED00E0DFF834D00D480E490E4A002312
:1020000002E0D458C4500433C4188C42F9D30B4AAC
:102010000B4C002301E013600432A242FBD3FFF714
:10202000D7FF05F0C3F9FEF787FE704700000220D6
:1020300000000020DC010020A8D30008E0010020FF
:1020400080090020FEE7000090B488B000AFF8607F
:10205000B9607A60FB70384ABB681360374A7B68A6
:102060001360374AFB781370364A97F8283013709C
:10207000354A97F82C3013702F4B1B681A68FB7881
:102080005B000321994097F828305B00032000FA99
:1020900003F3194397F82C305B00032000FA03F395
:1020A0000B43DB431946244B1B680A401A60224B42
:1020B0001B681A68FB785B000121994097F828306B
:1020C0005B00012000FA03F3194397F82C305B0002
:1020D000012000FA03F30B431946174B1B680A4310
:1020E0001A60164B1B681A68FB780121994097F813
:1020F0002830012000FA03F3194397F82C3001200F
:1021000000FA03F30B43DB4319460C4B1B680A40F0
:102110001A600E4B7B610E4BBB610E4BFB61FB6883
:102120001C4607F1140393E8070084E80700F868E9
:102130002037BD4690BC7047600500206405002034
:1021400068050020690500206A0500205921000863
:10215000F12100083522000880B483B000AF0346A7
:10216000FB71FB79002B0DD01E4B1B681A681E4BB0
:102170001B78194601238B4019461A4B1B680A43EA
:102180001A600DE0174B1B681A68174B1B7819462D
:1021900001238B40DB431946124B1B680A401A602F
:1021A000104B1B681A68114B1B78194601238B4092
:1021B00019460C4B1B680A431A600A4B1B681A68C5
:1021C0000A4B1B78194601238B40DB431946054B0C
:1021D0001B680A401A6000BF0C37BD465DF8047BDF
:1021E000704700BF640500206805002069050020D5
:1021F00080B584B000AF0346FB710023FB730FE092
:10220000FB7B012202FA03F35AB297F9073013401D
:102210005BB2DBB21846FFF79FFFFB7B0133FB731A
:10222000FB7B072BECD900F005F800BF1037BD464B
:1022300080BD000080B400AF0F4B1B681A680F4BC5
:102240001B78194601238B4019460B4B1B680A4328
:102250001A60094B1B681A68084B1B781946012342
:102260008B40DB431946044B1B680A401A6000BFD1
:10227000BD465DF8047B7047640500206A050020B8
:10228000B0B48FB000AFF8600B467A60FB72134BAE
:1022900000221A707B68FB61FB69BB61BB697B61D3
:1022A0007B683B62FB7A013B7A6813447B620C4B90
:1022B000BB620C4BFB620C4B3B630C4B7B63FB68C0
:1022C0001D4607F114040FCC0FC50FCC0FC52368B2
:1022D0002B60F8683C37BD46B0BC70476B050020EA
:1022E000F1220008432300088F230008D1230008AF
:1022F00080B485B000AF78607B681B68FB607B684A
:102300001B69FA689A4203D17B68DB68BB6002E014
:10231000FB680133BB607B685B68FA689A4203D153
:10232000FB6800221A7004E07B68BA681A60BB6818
:10233000FB60FB681B7818461437BD465DF8047BCC
:10234000704780B485B000AF78600B46FB707B6847
:102350005B68BB607B681B69BA689A4203D17B6883
:10236000DB68FB6002E0BB680133FB607B681B68D5
:10237000FA689A4205D0FB68FA781A707B68FA68A6
:102380005A6000BF1437BD465DF8047B704790B5B6
:1023900085B000AF786039600023FB730AE0FB7BF7
:1023A0003A6813441B7819467868FFF7CAFFFB7B2D
:1023B0000133FB73FC7B3868FDF72AFF03460133CA
:1023C0009C42ECD300BF00BF1437BD4690BD000057
:1023D00090B583B000AF786039600F4B1B78DBB2EB
:1023E0001C463868FDF714FF034601339C420ED2A9
:1023F000094B1B78DBB25A1CD1B2074A11701A463E
:102400003B6813441B7819467868FFF79AFF00BFB2
:102410000C37BD4690BD00BF6B050020B0B48BB03B
:1024200000AF78600023FB6000233B61084B7B62B8
:102430007B681D4607F10C040FCC0FC594E807001C
:1024400085E8070078682C37BD46B0BC704700BFF0
:102450005524000880B582B000AF786039607B6891
:102460005A687B681A607B683A685A60786800F03E
:1024700019F802467B689A60786800F024F80246F2
:102480007B68DA60786800F030F802467B681A6191
:10249000786800F040F802467B685A6100BF083750
:1024A000BD4680BD80B485B000AF78607B681A6897
:1024B0007B685B681340FB60FB6818461437BD46B9
:1024C0005DF8047B704780B485B000AF78607B68AE
:1024D0001A687B685B681343FB60FB68DB43184644
:1024E0001437BD465DF8047B704780B485B000AFFB
:1024F00078607B681A687B685B685340FB607B6828
:102500005B68FA681340FB60FB6818461437BD46E9
:102510005DF8047B704780B485B000AF78607B685D
:102520005A687B681B685340FB607B681B68FA68CD
:102530001340FB60FB6818461437BD465DF8047B0A
:102540007047000080B5A6B000AF78602E4B002227
:1025500083F85F202D4BBB602D4BFB602D4B3B6107
:102560002D4B7B612D4BBB612D4BFB612D4B3B629A
:102570002D4B7B622D4BBB622D4BFB622D4B3B6386
:102580002D4B7B632D4BBB632D4BFB632D4B3B6472
:102590002D4B7B642D4BBB642D4BFB642D4B3B655E
:1025A0002D4B7B652D4BBB652D4BFB652D4B3B664A
:1025B0002D4B7B662D4BBB662D4BFB662D4B3B6736
:1025C0002D4B7B672D4BBB672D4BFB672D4BC7F806
:1025D00080302D4BC7F884302C4BC7F888302C4BFB
:1025E000C7F88C302B4BC7F890302B4BC7F8943082
:1025F0007B68184607F108039022194604F0FAFE9A
:1026000078689837BD4680BD6C050020D52D000840
:10261000032E0008A1260008252700084F270008E0
:1026200089270008EB27000831290008D529000870
:102630009D2800086D2A0008CD2A0008F72A000806
:10264000312B00088D2B0008B12B0008DB2B000874
:102650001D2C0008612C0008B12C0008F52C000886
:10266000292D00089D2D00085F2E0008912E0008DE
:10267000D52E0008232F00085D2F000881300008A8
:10268000FD31000889320008AD320008D13200085F
:1026900009330008413300086933000800000000D6
:1026A00080B588B000AFF860B9601346FB71FB7964
:1026B0001846FDF747FF02460B4643EC112B9FEDF2
:1026C000160B09F007FC51EC100B4FF00002144BF5
:1026D000FDF7FAFD02460B4610461946FEF784FA4E
:1026E0000346FB61FA68FB691340FB60BA68FB694B
:1026F0001340BB60BA68FB685340BB61BA69BB68F2
:1027000013407B61FB797A699A40BB691343184691
:102710002037BD4680BD00BF000000000000004023
:102720000000F03F80B485B000AF786039607B680E
:102730001B68FB603B681A687B681A603B68FA6834
:102740001A6000BF1437BD465DF8047B704780B443
:1027500085B000AF786039600023FB6002E0FB6861
:102760000133FB60FB683A681A44FB6879680B44E4
:1027700012781A701B78002BF1D100BF00BF1437FC
:10278000BD465DF8047B704780B485B000AF7860CB
:1027900039600023FB600023BB6015E0FB687A68AA
:1027A00013441B781A463B6893420AD0FB687A6848
:1027B0001A44BB68591CB96019467B680B441278EF
:1027C0001A70FB680133FB60FB687A6813441B785E
:1027D000002BE3D1BB687A68134400221A7000BF53
:1027E0001437BD465DF8047B704780B487B000AFF6
:1027F000786039603B68DA0F13445B107B6142E01C
:102800007B693B6136E03A697B69D31AFB601DE066
:10281000FB689B007A6813441B68BB60FA687B699D
:1028200013449B007A681A44FB689B0079680B4448
:1028300012681A60FA687B6913449B007A68134433
:10284000BA681A60FA687B69D31AFB60FB68002BD0
:102850000DDBFB689B007A6813441A68F9687B6992
:102860000B449B0079680B441B689A42D0DC3B699F
:1028700001333B613A693B689A42C4DB7B69DA0FFA
:1028800013445B107B617B69002BB9DC00BF00BF88
:102890001C37BD465DF8047B7047000080B584B0EE
:1028A00000AF78607B68BB60BB68002B02DA7B6896
:1028B0005B427B600023FB737A681B4B83FB021334
:1028C0009910D317C91A0B469B000B445B00D11A11
:1028D000CAB2FB7B591CF973194602F13003DAB214
:1028E000124B5A547B68104A82FB03129210DB177A
:1028F000D31A7B607B68002BDEDCBB68002B06DA1A
:10290000FB7B5A1CFA731A46084B2D219954FB7B0A
:10291000064A0021D154054800F073FA034B1846CB
:102920001037BD4680BD00BF676666666C05002037
:1029300080B584B000AF0346FB80FB88BB81B7F94C
:102940000C30002B03DAFB885B429BB2FB80002338
:10295000FB73B7F906201D4B83FB02139910D317A5
:10296000C91A0B469B000B445B00D31A1BB2DAB2A8
:10297000FB7B591CF973194602F13003DAB2144B90
:102980005A54B7F90630114A82FB03129210DB1732
:10299000D31AFB80B7F90630002BDADCB7F90C301C
:1029A000002B06DAFB7B5A1CFA731A46084B2D21C2
:1029B0009954FB7B064A0021D154054800F021FAC6
:1029C000034B18461037BD4680BD00BF676666667C
:1029D0006C05002080B584B000AF0346FB80002367
:1029E000FB73FA881F4BA3FB0213D9080B469B000D
:1029F0000B445B00D31A9BB2DAB2FB7B591CF97310
:102A0000194602F13003DAB2174B5A5414E0FA882F
:102A1000144BA3FB0213D9080B469B000B445B002D
:102A2000D31A9BB2DAB2FB7B591CF973194602F137
:102A30003003DAB20C4B5A54FB880A4AA2FB032338
:102A4000DB08FB80FB88002BE1D1FB7B064A0021E1
:102A5000D154054800F0D5F9034B18461037BD4650
:102A600080BD00BFCDCCCCCC6C05002080B584B03F
:102A700000AF7860786800F0ADF90346013BFB6079
:102A800014E0FB687A6813441B78202B0BD0FB689A
:102A90007A6813441B78092B05D0FB687A681344C5
:102AA0001B780A2B06D1FB68013BFB60FB68002BFF
:102AB000E7DA00E000BFFB6801337A6813440022C4
:102AC0001A70FB6818461037BD4680BD80B485B0CB
:102AD00000AF786039607A683B689A4202DD7B68B3
:102AE000FB6001E03B68FB60FB6818461437BD469D
:102AF0005DF8047B704780B485B000AF78603960C2
:102B00000CE07B683A6893FBF2F2396801FB02F251
:102B10009B1AFB603B687B60FB683B603B68002B5B
:102B2000EFD17B6818461437BD465DF8047B7047CB
:102B300080B487B000AF786000233B6100237B61E5
:102B400011E07B697A6813441B78303BFB603A697B
:102B500013469B0013445B001A46FB6813443B6119
:102B60007B6901337B617B697A6813441B782F2B67
:102B700005D97B697A6813441B78392BE1D93B6905
:102B800018461C37BD465DF8047B704780B483B09F
:102B900000AF03460A46FB711346BB71FA79BB7955
:102BA0001340DBB218460C37BD465DF8047B704716
:102BB00080B485B000AF78600023FB6002E0FB6862
:102BC0000133FB60FA687B689A42F8D3FB681846C9
:102BD0001437BD465DF8047B704780B485B000AF04
:102BE00078607B6803F08003002B0AD07B685B422F
:102BF0007B607B68DBB27B607B685B42FB60FB6871
:102C000006E07B6803F07F037B607B68FB60FB680A
:102C100018461437BD465DF8047B704780B485B014
:102C200000AF78607B6803F40073002B0BD07B68E7
:102C30005B427B607B68C3F309037B607B685B421C
:102C4000FB60FB6806E07B68C3F308037B607B687E
:102C5000FB60FB6818461437BD465DF8047B70477F
:102C600080B485B000AF78600B46FB70FB78013B09
:102C7000012202FA03F3FB60FB68013BBB607A6848
:102C8000FB681340002B08D07A68BB6813407B6058
:102C90007A68FB68D31A7B6003E07A68BB681340EC
:102CA0007B607B6818461437BD465DF8047B70472F
:102CB00080B483B000AF0346FB71FB790C4AA2FBE2
:102CC0000323DB08DBB21B01D8B2FA79084BA3FB64
:102CD0000213D9080B469B000B445B00D31ADBB2EE
:102CE0000344DBB218460C37BD465DF8047B7047E1
:102CF000CDCCCCCC80B483B000AF0346FB71FB7964
:102D00001B09DBB21A46920013445B00DAB2FB796E
:102D100003F00F03DBB21344DBB218460C37BD4699
:102D20005DF8047B7047000080B485B000AF786028
:102D30003960194A3B68134400221A700023FB6073
:102D40001FE0FB687A6813441B78002B0DD107E065
:102D5000114AFB68134420221A70FB680133FB60A0
:102D6000FA683B689A42F3DB0FE0FB687A68134429
:102D70001978094AFB6813440A461A70FB68013344
:102D8000FB60FA683B689A42DBDB034B184614375A
:102D9000BD465DF8047B70476C05002080B485B0AB
:102DA00000AFF860B9607A603B60FA68BB68D31A1C
:102DB000B9693A688A1A03FB02F27968BB68CB1AD0
:102DC00092FBF3F23B68134418461437BD465DF896
:102DD000047B704780B485B000AF78600023FB604F
:102DE00002E0FB680133FB60FB687A6813441B78E0
:102DF000002BF6D1FB6818461437BD465DF8047BFE
:102E0000704780B586B000AF786000237B6178683A
:102E1000FFF7E0FF0346013B3B6117E07B697A68FF
:102E200013441B78FB733B697A681A447B697968A1
:102E30000B4412781A703B697A681344FA7B1A7053
:102E40007B6901337B613B69013B3B617A693B698B
:102E50009A42E3DB00BF00BF1837BD4680BD80B497
:102E600083B000AF0346FB71FB7903F00F03DAB2C6
:102E7000FB791B09DBB2194689000B445B00DBB20E
:102E80001344DBB218460C37BD465DF8047B70472F
:102E900080B483B000AF78607B680D4AA2FB032347
:102EA000DB08DBB21B01D8B27968094BA3FB012315
:102EB000DA0813469B0013445B00CA1AD3B20344DA
:102EC000DBB218460C37BD465DF8047B704700BF87
:102ED000CDCCCCCC80B584B000AF786039607A6856
:102EE0003B689A4205DA3A463B1D11461846FFF701
:102EF00019FC3B68002B0FD103E03B687B60FB684B
:102F00003B607B683A6893FBF2F101FB02F29B1A8B
:102F1000FB60FB68002BF0D13B6818461037BD46BC
:102F200080BD80B485B000AF03460A46FB711346EE
:102F3000BB71FA79BB7942FA03F303F00103002B6A
:102F400002D00123FB7301E00023FB73FB7B1846D7
:102F50001437BD465DF8047B7047000080B485B02F
:102F600000AF786039607B68013B012202FA03F30D
:102F7000FB600023BB6015E03A68FB681340002B40
:102F800005D0104ABB68134431221A7004E00D4A80
:102F9000BB68134430221A70FB685B08FB60BB6897
:102FA0000133BB60FB68002BE6D1064ABB681344C3
:102FB00000221A70034B18461437BD465DF8047B97
:102FC000704700BF6C05002080B487B000AFF86088
:102FD000B9601346FB710023FB75FA68274B83FB2E
:102FE00002139910D317C91A0B469B000B445B00C0
:102FF000D11ACAB2FB7D591CF9751946BB680B443E
:103000003032D2B21A7015E0FA681C4B83FB0213FF
:103010009910D317C91A0B469B000B445B00D11AB9
:10302000CAB2FB7D591CF9751946BB680B44303296
:10303000D2B21A70FB68114A82FB03129210DB179E
:10304000D31AFB60FB68002BDEDC07E0FB7D5A1C1B
:10305000FA751A46BB68134430221A70FA7DFB7960
:103060009A42F3D3FB7DBA68134400221A70FB7DA9
:1030700018461C37BD465DF8047B70476766666678
:10308000B0B58AB000AF87ED020B78600B46FB70DD
:103090000023FB774FF000024FF00003D7E9020155
:1030A000FDF73CFD0346002B08D0BC68FB6883F0AD
:1030B0000045C7E90845FF23BB7705E0D7E90223B0
:1030C000C7E908230123BB77D7E90801FDF78CFD89
:1030D0000346BB61B869FDF735FA02460B46D7E9EE
:1030E0000801FDF7F1F802460B46C7E90423BB6966
:1030F000012279681846FFF767FF0346FB7797F9C7
:103100001E30002B08DAFB7F5A1CFA771A467B68C0
:1031100013442D221A7007E0FB7F5A1CFA771A46D7
:103120007B68134420221A70FB7F7A6813440022C4
:103130001A707868FFF765FEFB78002B30D0FB78BB
:10314000062B2DD8FB7F5A1CFA771A467B6813444E
:103150002E221A70FB781846FDF7F4F902460B464A
:1031600043EC112B9FED220B08F0B4FE51EC100B39
:10317000D7E90423FDF760FA02460B4610461946CC
:10318000FDF70AFDFB7F7A681344FA781946FFF7CA
:103190001BFFFB7F7A6813441846FFF732FE21E0DD
:1031A000FB7F5A1CFA771A467B6813442E221A704A
:1031B0004FF00002104BD7E90401FDF73DFA02463B
:1031C0000B4610461946FDF7E7FCFB7F7A6813446F
:1031D00002221946FFF7F8FEFB7F7A68134418466F
:1031E000FFF70FFE7B6818462837BD46B0BD00BF0D
:1031F00000000000000024400000594080B584B069
:1032000000AF78600023FB73FB7B1E4A0021D15482
:103210002CE07B685A4203F00F0302F00F0258BF04
:103220005342BB60BB68092B0BDCBB68DAB2FB7B8B
:10323000591CF973194602F13003DAB2114B5A5492
:103240000AE0BB68DAB2FB7B591CF973194602F13C
:103250003703DAB20B4B5A54FB7B0A4A0021D15494
:103260007B68002B00DA0F331B117B607B68002B1F
:10327000CFD10448FFF7C5FD024B18461037BD46B5
:1032800080BD00BF6C05002080B483B000AFB88063
:103290003B799BB21B029AB27B799BB213439BB2E0
:1032A00018460C37BD465DF8047B704780B483B088
:1032B00000AFB8807B799BB21B029AB23B799BB27C
:1032C00013439BB218460C37BD465DF8047B70472C
:1032D00080B485B000AF0346FB80FB881B0A9BB21D
:1032E000DBB23B72FB88DBB27B723B89BB81002384
:1032F0003A7B62F307037A7B62F30F231846143795
:10330000BD465DF8047B704780B485B000AF0346CE
:10331000FB80FB881B0A9BB2DBB27B72FB88DBB2B3
:103320003B723B89BB8100233A7B62F307037A7BC4
:1033300062F30F2318461437BD465DF8047B7047CF
:1033400080B485B000AF0346FB80FB881B02FB8185
:10335000FB881B0A9AB2FB8913439BB218461437A9
:10336000BD465DF8047B70470FB480B582B000AFF6
:1033700007F114033B603B683A695F21084805F098
:103380001BFE78607B68002B01DA002300E0044B11
:1033900018460837BD46BDE8804004B0704700BFFE
:1033A0006C050020B0B5FCB000AFC7F8BC01C7F891
:1033B000B811254C3B46184600F028FC07F5F87379
:1033C000A3F5F873204619464FF4DA731A4604F051
:1033D00011F81E4AD7F8B83113601D4BC7F8C43135
:1033E0001C4BC7F8C8311C4BC7F8CC311B4BC7F876
:1033F000D0311B4BC7F8D4311A4BC7F8D8311A4B10
:10340000C7F8DC31194BC7F8E031194BC7F8E43184
:10341000184BC7F8E831184BC7F8EC3100F02EF81C
:10342000D7F8BC311D4607F5E2740FCC0FC50FCCA1
:103430000FC594E8070085E80700D7F8BC0107F539
:10344000F877BD46B0BD00BFCC0500208007002046
:10345000F135000841380008153A00084D3A0008D7
:103460002F3A00086D3A00089B3A0008F73A000826
:103470001D3B00083D3B0008C93B000880B582B0F9
:1034800000AF584B1B681A68564B1B6822F03F026E
:103490001A60544B1B681A68524B1B6842F01502A5
:1034A0001A60504B1B68DA684E4B1B6822F47F424F
:1034B000DA604C4B1B68DA684A4B1B6842F4AA423C
:1034C000DA60484B1B681A68464B1B6822F0C00242
:1034D0001A60444B1B68DA68424B1B6822F0C0023A
:1034E000DA60404B1B68DA683E4B1B6842F04002D2
:1034F000DA603C4B1B689B683A4A126823F47F43AE
:1035000023F03F039360374B1B689B68354A126872
:1035100043F47F4343F03F039360324B1B681B69C6
:1035200003F00803304A1360304BD3F820311420E5
:1035300098470021382000F05BF82C4BD3F8243159
:10354000042098470021382000F052F8274BD3F888
:1035500024310A2098470021382000F049F8234BF5
:10356000D3F82431042098470223FB7132E0002174
:10357000282000F03DF800F04DFA0021282000F04E
:1035800037F800F047FA00210C2000F031F800F085
:1035900041FA00210C2000F02BF800F03BFA00214A
:1035A000012000F025F800F035FA0021012000F09C
:1035B0001FF800F02FFA0021062000F019F800F0A3
:1035C00029FA0021062000F013F800F023FAFB7915
:1035D000013BFB71FB79002BC9D100BF00BF08374D
:1035E000BD4680BD8007002084070020CC05002058
:1035F00080B582B000AF03460A46FB711346BB801C
:103600008D4BD3F8A0318D4A12680121104698479E
:10361000BB88002B08D0884BD3F89431874A1268B6
:1036200000211046984707E0834BD3F8A031834A26
:103630001268002110469847804B1B681A687F4B20
:103640001B6822F47F421A607C4B1B681A687B4B14
:103650001B6842F4AA421A60774BD3F89431774A38
:10366000126802211046984797F90730002B08DAB4
:10367000714BD3F89431714A12680721104698476C
:1036800007E06D4BD3F8A0316C4A12680721104651
:103690009847FB7903F04003002B08D0664BD3F822
:1036A0009431664A126806211046984707E0624B3B
:1036B000D3F8A031614A1268062110469847FB7979
:1036C00003F02003002B08D05B4BD3F894315B4A06
:1036D000126805211046984707E0574BD3F8A031F0
:1036E000564A1268052110469847FB7903F01003EB
:1036F000002B08D0504BD3F89431504A1268042163
:103700001046984707E04C4BD3F8A0314B4A12685B
:10371000042110469847484BD3F8A031474A126815
:10372000022110469847444BD3F8A031434A12680F
:10373000012110469847BB88002B08D03E4BD3F898
:1037400094313E4A126800211046984707E03A4BF0
:10375000D3F8A031394A1268002110469847364BF9
:10376000D3F89431354A1268022110469847FB7904
:1037700003F00803002B08D02F4BD3F894312F4AC5
:10378000126807211046984707E02B4BD3F8A03169
:103790002A4A1268072110469847FB7903F0040370
:1037A000002B08D0244BD3F89431244A1268062108
:1037B0001046984707E0204BD3F8A0311F4A126803
:1037C000062110469847FB7903F00203002B08D02E
:1037D000194BD3F89431194A1268052110469847BD
:1037E00007E0154BD3F8A031144A126805211046A2
:1037F0009847FB7903F00103002B08D00E4BD3F858
:1038000094310E4A126804211046984707E00A4B8B
:10381000D3F8A031094A1268042110469847064B94
:10382000D3F8A031054A126802211046984700BF1C
:103830000837BD4680BD00BFCC05002080070020B2
:1038400080B584B000AF0346FB800023BB6000233B
:10385000FB736E4B1B681A686C4B1B6822F47F422B
:103860001A606B4BD3F89431684A126801211046F4
:103870009847FB88002B08D0654BD3F89431634AF6
:10388000126800211046984707E0614BD3F8A03139
:103890005E4A12680021104698475D4BD3F8943178
:1038A0005A4A1268022110469847584B1B681B69F8
:1038B000BB60574BD3F8A031544A1268022110461E
:1038C0009847BB6803F08003002B04D0FB7B63F0B8
:1038D0007F03FB7303E0FB7B03F07F03FB73BB6899
:1038E00003F04003002B04D0FB7B43F04003FB7349
:1038F00003E0FB7B23F04003FB73BB6803F0200372
:10390000002B04D0FB7B43F02003FB7303E0FB7B25
:1039100023F02003FB73BB6803F01003002B04D0DB
:10392000FB7B43F01003FB7303E0FB7B23F01003EE
:10393000FB73374BD3F89431344A12680121104697
:103940009847FB88002B08D0314BD3F894312F4A8D
:10395000126800211046984707E02D4BD3F8A0319C
:103960002A4A1268002110469847294BD3F894310F
:10397000264A1268022110469847244B1B681B698F
:10398000BB60234BD3F8A031204A126802211046B5
:103990009847BB6803F08003002B04D0FB7B43F007
:1039A0000803FB7303E0FB7B23F00803FB73BB6896
:1039B00003F04003002B04D0FB7B43F00403FB73B4
:1039C00003E0FB7B23F00403FB73BB6803F02003DD
:1039D000002B04D0FB7B43F00203FB7303E0FB7B73
:1039E00023F00203FB73BB6803F01003002B04D029
:1039F000FB7B43F00103FB7303E0FB7B23F001033C
:103A0000FB73FB7B18461037BD4680BD8007002046
:103A1000CC05002080B500AF00BF0020FFF710FFED
:103A200003465BB2002BF8DB00BF00BF80BD80B552
:103A300082B000AF0120FFF703FF0346FB71FFF7E1
:103A4000E9FFFB7918460837BD4680BD80B582B0D6
:103A500000AF0346FB71FB7901211846FFF7C8FD53
:103A6000FFF7D8FF00BF0837BD4680BD80B584B0E2
:103A700000AF786008E07B685A1C7A601B78FB73A3
:103A8000FB7B1846FFF7E2FF7B681B78002BF2D127
:103A900000BF00BF1037BD4680BD80B584B000AF09
:103AA000786039600023FB600FE07B685A1C7A6005
:103AB0001B78FB72FB680133FB60FA683B689A4233
:103AC00008D8FB7A1846FFF7C1FF7B681B78002BEC
:103AD000EBD107E000BF05E02020FFF7B7FFFB6850
:103AE0000133FB60FA683B689A42F5D300BF00BF20
:103AF0001037BD4680BD80B582B000AF786005E06C
:103B00002020FFF7A3FF7B68013B7B607B68002BD5
:103B1000F6D100BF00BF0837BD4680BD80B500AFFD
:103B200000210120FFF764FD034BD3F82031022070
:103B3000984700BF80BD00BFCC05002080B582B093
:103B400000AF786039607B68032B37D801A252F848
:103B500023F000BF653B00087B3B0008913B000859
:103B6000A73B00083B68DBB2803BDBB20021184674
:103B7000FFF73EFDFFF74EFF21E03B68DBB2403B25
:103B8000DBB200211846FFF733FDFFF743FF16E0D5
:103B90003B68DBB26C3BDBB200211846FFF728FD27
:103BA000FFF738FF0BE03B68DBB22C3BDBB20021B8
:103BB0001846FFF71DFDFFF72DFF00E000BF00BF17
:103BC0000837BD4680BD00BF80B582B000AF0D4B49
:103BD0001B681B6903F008037B600B4B1B687A684A
:103BE00053403B603A687B6813403B603B68002B66
:103BF00001D0FFF743FC044A7B68136000BF08371D
:103C0000BD4680BD800700208407002080B582B0BB
:103C100000AF7860984B00221A60984B00221A601F
:103C200097494FF000024FF00003C1E90023954B84
:103C3000954A1A60934B954A5A60924B944A9A60FF
:103C4000904B944ADA608F4B934A1A618D4B934A9A
:103C50005A618C4B924A9A618A4B924ADA61894B3B
:103C6000914A1A62874B914A5A62864B904A9A62ED
:103C7000844B904ADA62834B8F4A1A63814B8F4A96
:103C80005A63804B8E4A9A637E4B8E4ADA637D4B31
:103C90008D4A1A647B4B8D4A9A647A4B8C4ADA645B
:103CA000784B8C4A5A64774B8B4A1A65754B8B4A12
:103CB0005A65744B8A4A9A65724B8A4ADA65714B27
:103CC000894A5A666F4B894A9A666E4B884A1A66C9
:103CD0006C4B884ADA666B4B874A1A67694B874A8E
:103CE0005A67684B864A9A67664B864AC3F88020B3
:103CF000644B854AC3F88420624B844ADA67614B7F
:103D0000834AC3F888205F4B824AC3F88C205D4BFE
:103D1000814AC3F890205B4B804AC3F89420594BEA
:103D20007F4AC3F89C20574B7E4AC3F8A020554BCE
:103D30007D4AC3F89820534B7C4AC3F8A420514BCA
:103D40007B4AC3F8A8204F4B7A4AC3F8AC204D4BAE
:103D5000794AC3F8B0204B4B784AC3F8B820494B96
:103D6000774AC3F8BC20474B764AC3F8B420454B8A
:103D7000754AC3F8C020434B744AC3F8C420414B72
:103D8000734AC3F8C8203F4B724AC3F8CC203D4B5E
:103D9000714AC3F8D4203B4B704AC3F8D820394B42
:103DA0006F4AC3F8D020374B6E4AC3F8DC20354B3E
:103DB0006D4AC3F8E020334B6C4AC3F8E420314B22
:103DC0006B4AC3F8E8202F4B6A4AC3F8EC202D4B0E
:103DD000694AC3F8F0202B4B684AC3F8F420294BFA
:103DE000674AC3F8F820274B664AC3F8FC20254BE6
:103DF000654AC3F80021234B644AC3F80421214BD0
:103E0000634AC3F808211F4B624AC3F80C211D4BBB
:103E1000614AC3F810211B4B604AC3F81421194BA7
:103E20005F4AC3F81821174B5E4AC3F81C21154B93
:103E30005D4AC3F82021134B5C4AC3F82421114B7F
:103E40005B4AC3F828210F4B5A4AC3F82C210D4B6B
:103E5000594AC3F830210B4B584AC3F83421094B57
:103E6000574AC3F83821074B564AC3F83C21054B43
:103E7000554AC3F84021A9E048090020580900200C
:103E80006809002088070020003C02400030024002
:103E90000070004000380240914100084D42000887
:103EA000D54200089143000815440008B5460008B3
:103EB000194800086D480008C14800080000024089
:103EC000C94B0008714C0008194D0008C14D00088D
:103ED000E54D0008094E000800040240014F0008AB
:103EE000A94F000851500008F95000081D51000862
:103EF000415100080008024039520008E152000810
:103F000089530008315400085554000879540008BA
:103F1000000C02407155000829560008E1560008BF
:103F200099570008BD570008E157000800100240EB
:103F3000E9580008A1590008595A0008115B000807
:103F4000355B0008595B0008001C0240615C0008FA
:103F5000195D0008D15D0008895E0008AD5E0008AB
:103F6000D15E000800280040D95F0008CD6300083A
:103F70004D630008E962000869620008BD6000083E
:103F80004D610008DD610008B1640008DD650008CE
:103F900049640008003801400060024000640240AB
:103FA00000E100E010E000E0997200080D730008E5
:103FB00000400140002001400967000891670008A7
:103FC000B9670008E16700081D6800083F4B404AD8
:103FD000C3F844213D4B3F4AC3F848213B4B3E4A7E
:103FE000C3F84C21394B3D4AC3F85021374B3C4A6A
:103FF000C3F85421354B3B4AC3F85821334B3A4A56
:10400000C3F85C21314B394AC3F860212F4B384A41
:10401000C3F864212D4B374AC3F868212B4B364A2D
:10402000C3F86C21294B354AC3F87021274B344A19
:10403000C3F87421254B334AC3F87821234B324A05
:10404000C3F87C21214B314AC3F880211F4B304AF1
:10405000C3F884211D4B2F4AC3F888211B4B2E4ADD
:10406000C3F88C21194B2D4AC3F89021174B2C4AC9
:10407000C3F89421154B2B4AC3F89821134B2A4AB5
:10408000C3F89C21114B294AC3F8A0210F4B284AA1
:10409000C3F8A4210D4B274AC3F8A8210B4B264A8D
:1040A000C3F8AC21094B254AC3F8B02103F0D2F87C
:1040B0007B68064A184611464FF4DA731A4603F035
:1040C00099F978680837BD4680BD00BF8807002091
:1040D00079680008B1680008002301400010014021
:1040E000D96800085569000891690008D16900087D
:1040F000456D0008414100086D6D0008A16D000884
:10410000E56D0008916E00083D6F0008616F0008C2
:10411000856F0008BD6F0008F56F0008154900089D
:10412000674900088B490008A7490008FB490008B7
:10413000214A0008414A0008E14A0008B971000814
:1041400080B584B002AF04230193082300930223B7
:104150004FF4C8720821002000F0ACFA002000F0F3
:104160005BFB002301220121012000F053F9002014
:1041700000F00EF8002000F069F80346FB71022001
:1041800000F0A8F8FB7918460837BD4680BD00004E
:1041900080B485B000AF78600123FB600123BB6071
:1041A00048E07B68002B17D1FB68002B0AD0264B18
:1041B000DB681A68244BDB6842F001021A600023B6
:1041C000FB6037E0204BDB681B6803F00203002B29
:1041D00030D00023BB602DE07B68012B17D1FB683A
:1041E000002B0AD0184BDB681A68174BDB6842F4C7
:1041F00080321A600023FB601CE0134BDB681B68F5
:1042000003F40033002B15D00023BB6012E07B6861
:10421000022B0DD1FB68002B07D00B4BDB681A6813
:10422000094BDB6842F480221A6001237B6001E0C5
:1042300000237B60BB68002BB3D100BF00BF1437E5
:10424000BD465DF8047B70478807002080B483B0CA
:1042500000AF0346FB711E4BDB689A681C4BDB68A2
:1042600022F003029A60FB79032B18D0032B1FDC8A
:10427000012B02D0022B09D01AE0154BDB689A689B
:10428000134BDB6842F001029A6012E0104BDB68CE
:104290009A680F4BDB6842F002029A6009E00C4B0F
:1042A000DB689A680A4BDB6842F003029A6000E020
:1042B00000BF074BDB689B689B08DBB203F003037E
:1042C000DBB218460C37BD465DF8047B704700BF73
:1042D0008807002080B485B000AF78600123FB60C0
:1042E0000123BB6048E07B68022B17D1FB68002BE1
:1042F0000AD0264BDB685A6F244BDB6842F0010280
:104300005A670023FB6037E0204BDB685B6F03F0EC
:104310000203002B30D00023BB602DE07B68012B13
:1043200017D1FB68002B0AD0184BDB681A6F174BAC
:10433000DB6842F001021A670023FB601CE0134BAC
:10434000DB681B6F03F00203002B15D00023BB605A
:1043500012E07B68042B0DD1FB68002B07D00B4BC0
:10436000DB681A6F094BDB6842F004021A6701230D
:104370007B6001E002237B60BB68002BB3D100BFF0
:1043800000BF1437BD465DF8047B704788070020E6
:1043900080B483B000AF0346FB711D4BDB681A6F1E
:1043A0001B4BDB6822F440721A67FB79032B17D092
:1043B000032B1EDC012B0AD0022B1AD1144BDB6815
:1043C0001A6F134BDB6842F400721A671AE0104B45
:1043D000DB681A6F0E4BDB6842F480721A6711E0DB
:1043E0000B4BDB681A6F0A4BDB6842F440721A67AA
:1043F00008E0074BDB681A6F054BDB6842F48072FC
:104400001A6700BF00BF0C37BD465DF8047B7047DC
:104410008807002080B487B000AFF860B9607A6088
:104420003B60A24B7B61A24BDB6899687B69DA43F6
:104430009F4BDB680A409A603B68012B0BD93B68B5
:104440001F2B08D89A4BDB6899683B681A04984B75
:10445000DB680A439A607B68023B0E2B44D801A2BA
:1044600052F823F0A1440008E9440008B3440008CE
:10447000E9440008E9440008E9440008C54400088C
:10448000E9440008E9440008E9440008E944000858
:10449000E9440008E9440008E9440008D74400085A
:1044A000834BDB689A68824BDB6842F400429A6077
:1044B0001BE07F4BDB689A687D4BDB6842F420424F
:1044C0009A6012E07A4BDB689A68794BDB6842F4B9
:1044D00040429A6009E0764BDB689A68744BDB686F
:1044E00042F460429A6000E000BFBB68023B0E2BC2
:1044F00044D801A252F823F0354500087D45000854
:10450000474500087D4500087D4500087D450008B9
:10451000594500087D4500087D4500087D45000897
:104520007D4500087D4500087D4500087D45000863
:104530006B4500085E4BDB689A685D4BDB6842F4B4
:1045400080529A601BE05A4BDB689A68584BDB68D4
:1045500042F4A0529A6012E0554BDB689A68544BC3
:10456000DB6842F4C0529A6009E0514BDB689A68FC
:104570004F4BDB6842F4E0529A6000E000BFFB68FA
:10458000B3F5007F00F08180FB68B3F5007F00F297
:104590008580FB68B3F5807F6ED0FB68B3F5807FC4
:1045A0007CD8FB68802B5ED0FB68802B76D8FB68BC
:1045B000102B27D8FB68022B70D3FB68023B0E2B15
:1045C0006CD801A252F823F00D4600089D46000861
:1045D0001F4600089D4600089D4600089D460008AD
:1045E000314600089D4600089D4600089D4600088B
:1045F0009D4600089D4600089D4600089D4600080F
:1046000043460008FB68402B24D047E0284BDB687A
:104610009A68274BDB6842F080029A603FE0244BA7
:10462000DB689A68224BDB6842F090029A6036E0C1
:104630001F4BDB689A681E4BDB6842F0A0029A6051
:104640002DE01B4BDB689A68194BDB6842F0B00227
:104650009A6024E0164BDB689A68154BDB6842F0E1
:10466000C0029A601BE0124BDB689A68104BDB6853
:1046700042F0D0029A6012E00D4BDB689A680C4B56
:10468000DB6842F0E0029A6009E0094BDB689A6857
:10469000074BDB6842F0F0029A6000E000BF00BF09
:1046A0001C37BD465DF8047B704700BFF0FC1F005F
:1046B0008807002080B487B000AFF860B9607A60E6
:1046C0003B60524B7B61524BDB685968504BDB6857
:1046D0007A690A435A607B6A012B0DD97B6A072BE2
:1046E0000AD84B4BDB6859687B6A1B0763F0E042D2
:1046F000474BDB680A405A603B6A012B0DD93B6A85
:104700000F2B0AD8424BDB6859683B6A1B0663F0E3
:1047100070623F4BDB680A405A60FB68012B0BD18B
:104720003B4BDB685968FB689B0563F48002384BA0
:10473000DB680A405A6007E0354BDB685A68344B47
:10474000DB6822F480025A603B68023B062B33D8B8
:1047500001A252F823F000BF75470008B9470008CE
:1047600087470008B947000899470008B94700087B
:10477000AB470008264BDB685A68254BDB6822F400
:1047800040325A6019E0224BDB685A68204BDB68E4
:1047900022F400325A6010E01D4BDB685A681C4B53
:1047A000DB6822F480325A6007E0194BDA68184B54
:1047B000DB6852685A6000E000BF7B68312B0ED97D
:1047C0007B68B3F5D87F0AD8114BDB6859687B68E2
:1047D0009A01104B13430E4AD2680B405360BB68DA
:1047E000012B0CD9BB683F2B09D8094BDB685968F2
:1047F000BB6863F03F02064BDB680A405A6000BFAB
:104800001C37BD465DF8047B704700BFFF7F437FC8
:10481000880700203F80FFFF80B483B000AF0346CD
:10482000FB71FB79002B10D00F4BDB681A680E4B25
:10483000DB6842F080721A6000BF0B4BDB681B68BC
:1048400003F00073002BF8D007E0074BDB681A6811
:10485000054BDB6822F080721A6000BF0C37BD4642
:104860005DF8047B704700BF8807002080B483B0E8
:1048700000AF0346FB71FB79002B10D00F4BDB68B8
:104880001A680E4BDB6842F080621A6000BF0B4B67
:10489000DB681B6803F00063002BF8D007E0074BD0
:1048A000DB681A68054BDB6822F080621A6000BF83
:1048B0000C37BD465DF8047B704700BF88070020B9
:1048C00080B483B000AF0346FB71FB79002B10D09E
:1048D0000F4BDB681A680E4BDB6842F080521A609F
:1048E00000BF0B4BDB681B6803F00053002BF8D0B4
:1048F00007E0074BDB681A68054BDB6822F0805243
:104900001A6000BF0C37BD465DF8047B704700BFDE
:10491000880700200EB480B484B000AF78607B6953
:10492000002B19DD7B69202B16DC07F11803BB6017
:104930000023FB730CE0BB681A1DBA601B680122E0
:1049400002FA03F31A467B689A61FB7B0133FB731F
:10495000FB7B7A699A42EEDC00BF1037BD465DF8FA
:10496000047B03B0704780B483B000AF78603960D7
:1049700001223B6802FA03F31A467B689A6100BF82
:104980000C37BD465DF8047B704780B483B000AF40
:10499000786039603A687B689A6100BF0C37BD4621
:1049A0005DF8047B70470EB480B484B000AF7860CB
:1049B0007B69002B1ADD7B69202B17DC07F11803BC
:1049C000BB600023FB730DE0BB681A1DBA601B6857
:1049D000012202FA03F31B041A467B689A61FB7BEF
:1049E0000133FB73FB7B7A699A42EDDC00BF103721
:1049F000BD465DF8047B03B0704780B483B000AF60
:104A00007860396001223B6802FA03F31B041A46FE
:104A10007B689A6100BF0C37BD465DF8047B704728
:104A200080B483B000AF786039603B681B041A46DD
:104A30007B689A6100BF0C37BD465DF8047B704708
:104A400080B586B000AFF860B9607A603B60B86846
:104A5000FBF778FD02460B4643EC112B9FED1C0B38
:104A600007F038FA51EC100B4FF000021A4BFBF72D
:104A70002BFC02460B4610461946FCF7B5F80346D8
:104A80007B617A687B6913407B60FB681A683B68CE
:104A9000B96801FB03F3796901FA03F3DB431A40B8
:104AA000FB681A60FB681A683B68B96801FB03F38E
:104AB000796801FA03F31A43FB681A60FB681A6805
:104AC000FB681A6000BF1837BD4680BDAFF3008099
:104AD00000000000000000400000F03F0000000067
:104AE00080B588B000AFF860B9607A603B60202381
:104AF000FB61B868FBF726FD02460B4643EC112B21
:104B00009FED2D0B07F0E6F951EC100B4FF0000272
:104B10002B4BFBF7D9FB02460B4610461946FCF718
:104B200063F80346BB613B68BA6803FB02F2FB69AA
:104B3000B2FBF3F37B617A68BB6913407B607B69EE
:104B40009B00FA68134419683B68BA6803FB02F2D9
:104B50007B69F86900FB03F3D31ABA6902FA03F31D
:104B6000DA437B699B00F86803440A401A607B695A
:104B70009B00FA68134419683B68BA6803FB02F2A9
:104B80007B69F86900FB03F3D31A7A689A407B6962
:104B90009B00F86803440A431A607B699B00FA682B
:104BA0001A447B699B00F9680B4412681A6000BFC5
:104BB0002037BD4680BD00BF00000000000000405F
:104BC0000000F03F0000000080B584B000AF7860C6
:104BD00039600223FB60F868FBF7B4FC02460B4621
:104BE00043EC112B9FED1E0B07F074F951EC100BE9
:104BF0004FF000021C4BFBF767FB02460B461046CA
:104C00001946FBF7F1FF0346BB607A68BB681340A7
:104C10007B60164B5B6B19683B68FA6802FB03F319
:104C2000BA6802FA03F3DA43104B5B6B0A401A606E
:104C30000E4B5B6B19683B68FA6802FB03F37A68FA
:104C40009A400A4B5B6B0A431A60084B5A6B074B3E
:104C50005B6B12681A6000BF1037BD4680BD00BF95
:104C600000000000000000400000F03F8807002026
:104C700080B584B000AF786039600223FB60F868CB
:104C8000FBF760FC02460B4643EC112B9FED1E0B1D
:104C900007F020F951EC100B4FF000021C4BFBF712
:104CA00013FB02460B4610461946FBF79DFF0346D1
:104CB000BB607A68BB6813407B60164B5B6B99687E
:104CC0003B68FA6802FB03F3BA6802FA03F3DA43BB
:104CD000104B5B6B0A409A600E4B5B6B99683B68AC
:104CE000FA6802FB03F37A689A400A4B5B6B0A434B
:104CF0009A60084B5A6B074B5B6B92689A6000BFD7
:104D00001037BD4680BD00BF00000000000000401D
:104D10000000F03F8807002080B584B000AF7860C5
:104D200039600223FB60F868FBF70CFC02460B4677
:104D300043EC112B9FED1E0B07F0CCF851EC100B40
:104D40004FF000021C4BFBF7BFFA02460B46104621
:104D50001946FBF749FF0346BB607A68BB681340FE
:104D60007B60164B5B6BD9683B68FA6802FB03F308
:104D7000BA6802FA03F3DA43104B5B6B0A40DA605D
:104D80000E4B5B6BD9683B68FA6802FB03F37A68E9
:104D90009A400A4B5B6B0A43DA60084B5A6B074B2D
:104DA0005B6BD268DA6000BF1037BD4680BD00BFC4
:104DB00000000000000000400000F03F88070020D5
:104DC00080B483B000AF7860054B5B6B7A681204E7
:104DD0009A6100BF0C37BD465DF8047B704700BF89
:104DE0008807002080B483B000AF7860044B5B6B11
:104DF0007A689A6100BF0C37BD465DF8047B704746
:104E0000880700200000000080B586B000AF786001
:104E1000396004237B6120233B617869FBF792FBB7
:104E200002460B4643EC112B9FED310B07F052F875
:104E300051EC100B4FF000022F4BFBF745FA0246E6
:104E40000B4610461946FBF7CFFE0346FB603B6856
:104E50007A6903FB02F23B69B2FBF3F3BB607A6849
:104E6000FB6813407B60BB68012B3DD8234B5B6B19
:104E7000BA68083253F822103B687A6903FB02F2E1
:104E8000BB68386900FB03F3D31AFA6802FA03F32C
:104E9000DA431A4B5B6B1140BA68083243F82210B0
:104EA000164B5B6BBA68083253F822103B687A697C
:104EB00003FB02F2BB68386900FB03F3D31A7A687C
:104EC0009A400E4B5B6B1143BA68083243F82210CC
:104ED0000A4B5A6B094B5B6BB968083152F82110C9
:104EE000BA68083243F8221000BF1837BD4680BDAB
:104EF00000000000000000400000F03F8807002094
:104F000080B584B000AF786039600223FB60F86838
:104F1000FBF718FB02460B4643EC112B9FED1E0BD3
:104F200006F0D8FF51EC100B4FF000021C4BFBF7C2
:104F3000CBF902460B4610461946FBF755FE0346D1
:104F4000BB607A68BB6813407B60164B1B6D1968A9
:104F50003B68FA6802FB03F3BA6802FA03F3DA4328
:104F6000104B1B6D0A401A600E4B1B6D19683B6895
:104F7000FA6802FB03F37A689A400A4B1B6D0A43F6
:104F80001A60084B1A6D074B1B6D12681A6000BF40
:104F90001037BD4680BD00BF00000000000000408B
:104FA0000000F03F8807002080B584B000AF786033
:104FB00039600223FB60F868FBF7C4FA02460B462F
:104FC00043EC112B9FED1E0B06F084FF51EC100BF0
:104FD0004FF000021C4BFBF777F902460B461046D8
:104FE0001946FBF701FE0346BB607A68BB681340B5
:104FF0007B60164B1B6D99683B68FA6802FB03F3F4
:10500000BA6802FA03F3DA43104B1B6D0A409A6048
:105010000E4B1B6D99683B68FA6802FB03F37A68D4
:105020009A400A4B1B6D0A439A60084B1A6D074B56
:105030001B6D92689A6000BF1037BD4680BD00BFEF
:1050400000000000000000400000F03F8807002042
:1050500080B584B000AF786039600223FB60F868E7
:10506000FBF770FA02460B4643EC112B9FED1E0B2B
:1050700006F030FF51EC100B4FF000021C4BFBF719
:1050800023F902460B4610461946FBF7ADFD0346D1
:10509000BB607A68BB6813407B60164B1B6DD96898
:1050A0003B68FA6802FB03F3BA6802FA03F3DA43D7
:1050B000104B1B6D0A40DA600E4B1B6DD9683B68C4
:1050C000FA6802FB03F37A689A400A4B1B6D0A43A5
:1050D000DA60084B1A6D074B1B6DD268DA6000BFAF
:1050E0001037BD4680BD00BF00000000000000403A
:1050F0000000F03F8807002080B483B000AF7860E4
:10510000054B1B6D7A6812049A6100BF0C37BD46CF
:105110005DF8047B704700BF8807002080B483B02F
:1051200000AF7860044B1B6D7A689A6100BF0C3742
:10513000BD465DF8047B7047880700200000000032
:1051400080B586B000AF7860396004237B6120238E
:105150003B617869FBF7F6F902460B4643EC112BED
:105160009FED310B06F0B6FE51EC100B4FF0000234
:105170002F4BFBF7A9F802460B4610461946FBF7E2
:1051800033FD0346FB603B687A6903FB02F23B692F
:10519000B2FBF3F3BB607A68FB6813407B60BB68CB
:1051A000012B3DD8234B1B6DBA68083253F82210EF
:1051B0003B687A6903FB02F2BB68386900FB03F3C2
:1051C000D31AFA6802FA03F3DA431A4B1B6D114043
:1051D000BA68083243F82210164B1B6DBA680832C1
:1051E00053F822103B687A6903FB02F2BB68386906
:1051F00000FB03F3D31A7A689A400E4B1B6D1143E0
:10520000BA68083243F822100A4B1A6D094B1B6D1D
:10521000B968083152F82110BA68083243F82210F0
:1052200000BF1837BD4680BD0000000000000040F0
:105230000000F03F8807002080B584B000AF7860A0
:1052400039600223FB60F868FBF77CF902460B46E5
:1052500043EC112B9FED1E0B06F03CFE51EC100BA6
:105260004FF000021C4BFBF72FF802460B4610468E
:105270001946FBF7B9FC0346BB607A68BB6813406C
:105280007B60164BDB6E19683B68FA6802FB03F320
:10529000BA6802FA03F3DA43104BDB6E0A401A6075
:1052A0000E4BDB6E19683B68FA6802FB03F37A6801
:1052B0009A400A4BDB6E0A431A60084BDA6E074BC2
:1052C000DB6E12681A6000BF1037BD4680BD00BF9C
:1052D00000000000000000400000F03F88070020B0
:1052E00080B584B000AF786039600223FB60F86855
:1052F000FBF728F902460B4643EC112B9FED1E0BE2
:1053000006F0E8FD51EC100B4FF000021C4BFAF7D1
:10531000DBFF02460B4610461946FBF765FC0346C9
:10532000BB607A68BB6813407B60164BDB6E996884
:105330003B68FA6802FB03F3BA6802FA03F3DA4344
:10534000104BDB6E0A409A600E4BDB6E99683B682F
:10535000FA6802FB03F37A689A400A4BDB6E0A4351
:105360009A60084BDA6E074BDB6E92689A6000BF5A
:105370001037BD4680BD00BF0000000000000040A7
:105380000000F03F8807002080B584B000AF78604F
:1053900039600223FB60F868FBF7D4F802460B463D
:1053A00043EC112B9FED1E0B06F094FD51EC100BFE
:1053B0004FF000021C4BFAF787FF02460B461046DF
:1053C0001946FBF711FC0346BB607A68BB681340C3
:1053D0007B60164BDB6ED9683B68FA6802FB03F30F
:1053E000BA6802FA03F3DA43104BDB6E0A40DA6064
:1053F0000E4BDB6ED9683B68FA6802FB03F37A68F0
:105400009A400A4BDB6E0A43DA60084BDA6E074BB0
:10541000DB6ED268DA6000BF1037BD4680BD00BFCA
:1054200000000000000000400000F03F880700205E
:1054300080B483B000AF7860054BDB6E7A681204ED
:105440009A6100BF0C37BD465DF8047B704700BF12
:105450008807002080B483B000AF7860044BDB6E17
:105460007A689A6100BF0C37BD465DF8047B7047CF
:10547000880700200000000080B586B000AF78608B
:10548000396004237B6120233B617869FBF75AF87C
:1054900002460B4643EC112B9FED310B06F01AFD33
:1054A00051EC100B4FF000022F4BFAF70DFF0246A4
:1054B0000B4610461946FBF797FB0346FB603B681B
:1054C0007A6903FB02F23B69B2FBF3F3BB607A68D3
:1054D000FB6813407B60BB68012B3DD8234BDB6E20
:1054E000BA68083253F822103B687A6903FB02F26B
:1054F000BB68386900FB03F3D31AFA6802FA03F3B6
:10550000DA431A4BDB6E1140BA68083243F82210B6
:10551000164BDB6EBA68083253F822103B687A6982
:1055200003FB02F2BB68386900FB03F3D31A7A6805
:105530009A400E4BDB6E1143BA68083243F82210D2
:105540000A4BDA6E094BDB6EB968083152F821104C
:10555000BA68083243F8221000BF1837BD4680BD34
:1055600000000000000000400000F03F880700201D
:1055700080B584B000AF786039600223FB60F868C2
:10558000FAF7E0FF02460B4643EC112B9FED220B8E
:1055900006F0A0FC51EC100B4FF00002204BFAF784
:1055A00093FE02460B4610461946FBF71DFB0346C9
:1055B000BB607A68BB6813407B601A4BD3F88830B5
:1055C00019683B68FA6802FB03F3BA6802FA03F34E
:1055D000DA43144BD3F888300A401A60114BD3F8E1
:1055E000883019683B68FA6802FB03F37A689A40CE
:1055F0000C4BD3F888300A431A600A4BD3F8882042
:10560000084BD3F8883012681A6000BF1037BD46C7
:1056100080BD00BFAFF3008000000000000000402C
:105620000000F03F8807002080B584B000AF7860AC
:1056300039600223FB60F868FAF784FF02460B46E4
:1056400043EC112B9FED220B06F044FC51EC100BA8
:105650004FF00002204BFAF737FE02460B46104689
:105660001946FBF7C1FA0346BB607A68BB68134072
:105670007B601A4BD3F8883099683B68FA6802FB64
:1056800003F3BA6802FA03F3DA43144BD3F8883011
:105690000A409A60114BD3F8883099683B68FA68E1
:1056A00002FB03F37A689A400C4BD3F888300A4324
:1056B0009A600A4BD3F88820084BD3F88830926858
:1056C0009A6000BF1037BD4680BD00BFAFF30080B9
:1056D00000000000000000400000F03F88070020AC
:1056E00080B584B000AF786039600223FB60F86851
:1056F000FAF728FF02460B4643EC112B9FED220BD5
:1057000006F0E8FB51EC100B4FF00002204BFAF7CB
:10571000DBFD02460B4610461946FBF765FA0346C9
:10572000BB607A68BB6813407B601A4BD3F8883043
:10573000D9683B68FA6802FB03F3BA6802FA03F31C
:10574000DA43144BD3F888300A40DA60114BD3F8AF
:105750008830D9683B68FA6802FB03F37A689A409C
:105760000C4BD3F888300A43DA600A4BD3F8882010
:10577000084BD3F88830D268DA6000BF1037BD46D6
:1057800080BD00BFAFF300800000000000000040BB
:105790000000F03F8807002080B483B000AF78603D
:1057A000054BD3F888307A6812049A6100BF0C3731
:1057B000BD465DF8047B70478807002080B483B045
:1057C00000AF7860054BD3F888307A689A6100BFE3
:1057D0000C37BD465DF8047B704700BF880700208A
:1057E00080B586B000AF7860396004237B612023E8
:1057F0003B617869FAF7A6FE02460B4643EC112B93
:105800009FED350B06F066FB51EC100B4FF00002DC
:10581000334BFAF759FD02460B4610461946FBF783
:10582000E3F90346FB603B687A6903FB02F23B69DC
:10583000B2FBF3F3BB607A68FB6813407B60BB6824
:10584000012B43D8274BD3F88830BA68083253F875
:1058500022103B687A6903FB02F2BB68386900FBDF
:1058600003F3D31AFA6802FA03F3DA431D4BD3F8B1
:1058700088301140BA68083243F82210194BD3F827
:105880008830BA68083253F822103B687A6903FB03
:1058900002F2BB68386900FB03F3D31A7A689A40B6
:1058A000104BD3F888301143BA68083243F82210FD
:1058B0000C4BD3F888200B4BD3F88830B9680831EB
:1058C00052F82110BA68083243F8221000BF183786
:1058D000BD4680BDAFF30080000000000000004026
:1058E0000000F03F8807002080B584B000AF7860EA
:1058F00039600223FB60F868FAF724FE02460B4683
:1059000043EC112B9FED220B06F0E4FA51EC100B47
:105910004FF00002204BFAF7D7FC02460B46104628
:105920001946FBF761F90346BB607A68BB68134010
:105930007B601A4BD3F8A43019683B68FA6802FB05
:1059400003F3BA6802FA03F3DA43144BD3F8A43032
:105950000A401A60114BD3F8A43019683B68FA6802
:1059600002FB03F37A689A400C4BD3F8A4300A4345
:105970001A600A4BD3F8A420084BD3F8A43012685D
:105980001A6000BF1037BD4680BD00BFAFF3008076
:1059900000000000000000400000F03F88070020E9
:1059A00080B584B000AF786039600223FB60F8688E
:1059B000FAF7C8FD02460B4643EC112B9FED220B74
:1059C00006F088FA51EC100B4FF00002204BFAF76A
:1059D0007BFC02460B4610461946FBF705F90346C9
:1059E000BB607A68BB6813407B601A4BD3F8A43065
:1059F00099683B68FA6802FB03F3BA6802FA03F39A
:105A0000DA43144BD3F8A4300A409A60114BD3F810
:105A1000A43099683B68FA6802FB03F37A689A40FD
:105A20000C4BD3F8A4300A439A600A4BD3F8A42055
:105A3000084BD3F8A43092689A6000BF1037BD4677
:105A400080BD00BFAFF300800000000000000040F8
:105A50000000F03F8807002080B584B000AF786078
:105A600039600223FB60F868FAF76CFD02460B46CA
:105A700043EC112B9FED220B06F02CFA51EC100B8E
:105A80004FF00002204BFAF71FFC02460B4610466F
:105A90001946FBF7A9F80346BB607A68BB68134058
:105AA0007B601A4BD3F8A430D9683B68FA6802FBD4
:105AB00003F3BA6802FA03F3DA43144BD3F8A430C1
:105AC0000A40DA60114BD3F8A430D9683B68FA6811
:105AD00002FB03F37A689A400C4BD3F8A4300A43D4
