:020000040800F2
:10000000000002204513000895130008951300080E
:1000100095130008951300089513000800000000D0
:100020000000000000000000000000009513000820
:10003000951300080000000095130008AD69000842
:1000400095130008951300089513000895130008F0
:1000500095130008951300089513000895130008E0
:1000600095130008951300089513000895130008D0
:1000700095130008951300089513000895130008C0
:1000800095130008951300089513000895130008B0
:1000900095130008951300089513000895130008A0
:1000A000C111000895130008951300089513000866
:1000B0009513000895130008951300089513000880
:1000C0009513000895130008951300089513000870
:1000D0009513000895130008951300089513000860
:1000E0009513000895130008951300089513000850
:1000F0009513000895130008951300089513000840
:10010000951300089513000895130008951300082F
:10011000951300089513000895130008951300081F
:10012000951300089513000895130008951300080F
:10013000951300080000000000000000951300085F
:1001400095130008951300089513000895130008EF
:1001500095130008951300089513000895130008DF
:1001600095130008951300089513000895130008CF
:10017000951300089513000895130008000000006F
:1001800000000000951300080000000000000000BF
:1001900095130008000000000000000095130008FF
:1001A000000000000000000000000000951300089F
:1001B000951300089513000895130008951300087F
:0401C000951300088B
:1001D00010B5054C237833B9044B13B10448AFF381
:1001E00000800123237010BD680000200000000083
:1001F000E482000808B5034B1BB103490348AFF381
:10020000008008BD000000006C000020E4820008AF
:10021000034613F8012B002AFBD1181A0138704746
:1002200001F0FF01102A2BDB10F0070F08D010F8A7
:10023000013B013A8B422DD010F0070F42B3F6D1AB
:10024000F0B441EA012141EA014122F007047FF0C4
:1002500000070023F0E80256083C85EA010586EA1B
:10026000010685FA47F5A3FA87F586FA47F6A5FA57
:1002700087F68EB9EED1F0BC01F0FF0102F0070263
:1002800032B110F8013B013A83EA010313B1F8D10E
:100290000020704701387047002D06BF35460338EF
:1002A000073815F0010F07D1013015F4807F02BF28
:1002B000013015F4C03F0130F0BC0138704700BF79
:1002C00081F0004102E000BF83F0004330B54FEA07
:1002D00041044FEA430594EA050F08BF90EA020F74
:1002E0001FBF54EA000C55EA020C7FEA645C7FEA07
:1002F000655C00F0E2804FEA5454D4EB5555B8BF2A
:100300006D420CDD2C4480EA020281EA030382EA9A
:10031000000083EA010180EA020281EA0303362D2C
:1003200088BF30BD11F0004F4FEA01314FF4801CFF
:100330004CEA113102D0404261EB410113F0004F11
:100340004FEA03334CEA133302D0524263EB4303C8
:1003500094EA050F00F0A780A4F10104D5F1200E66
:100360000DDB02FA0EFC22FA05F2801841F10001C1
:1003700003FA0EF2801843FA05F359410EE0A5F195
:1003800020050EF1200E012A03FA0EFC28BF4CF0C6
:10039000020C43FA05F3C01851EBE37101F000457C
:1003A00007D54FF0000EDCF1000C7EEB00006EEB89
:1003B0000101B1F5801F1BD3B1F5001F0CD3490813
:1003C0005FEA30004FEA3C0C04F101044FEA44526A
:1003D00012F5800F80F09A80BCF1004F08BF5FEAF1
:1003E000500C50F1000041EB045141EA050130BDD1
:1003F0005FEA4C0C404141EB0101013C28BFB1F5E3
:10040000801FE9D291F0000F04BF01460020B1FA2D
:1004100081F308BF2033A3F10B03B3F120020CDA00
:100420000C3208DD02F1140CC2F10C0201FA0CF0DE
:1004300021FA02F10CE002F11402D8BFC2F1200C43
:1004400001FA02F120FA0CFCDCBF41EA0C019040F9
:10045000E41AA2BF01EB0451294330BD6FEA040442
:100460001F3C1CDA0C340EDC04F11404C4F120022D
:1004700020FA04F001FA02F340EA030021FA04F33F
:1004800045EA030130BDC4F10C04C4F1200220FA96
:1004900002F001FA04F340EA0300294630BD21FAD4
:1004A00004F0294630BD94F0000F83F4801306BF9A
:1004B00081F480110134013D4EE77FEA645C18BF8E
:1004C0007FEA655C29D094EA050F08BF90EA020F25
:1004D00005D054EA000C04BF1946104630BD91EA1D
:1004E000030F1EBF0021002030BD5FEA545C05D120
:1004F0004000494128BF41F0004130BD14F580045F
:100500003CBF01F5801130BD01F0004545F0FE41D2
:1005100041F470014FF0000030BD7FEA645C1ABF07
:10052000194610467FEA655C1CBF0B46024650EA3E
:10053000013406BF52EA033591EA030F41F400216A
:1005400030BD00BF90F0000F04BF0021704730B5F0
:100550004FF4806404F132044FF000054FF00001C5
:1005600050E700BF90F0000F04BF0021704730B586
:100570004FF4806404F1320410F0004548BF40425B
:100580004FF000013EE700BF42004FEAE2014FEAB0
:1005900031014FEA02701FBF12F07F4393F07F4F8B
:1005A00081F06051704732F07F4208BF704793F08E
:1005B0007F4F04BF41F40021704730B54FF46074A1
:1005C00001F0004521F000411CE700BF50EA0102A4
:1005D00008BF704730B54FF000050AE050EA01024D
:1005E00008BF704730B511F0004502D5404261EBBD
:1005F00041014FF4806404F132045FEA915C3FF4FE
:10060000D8AE4FF003025FEADC0C18BF03325FEA9A
:10061000DC0C18BF033202EBDC02C2F1200300FA4B
:1006200003FC20FA02F001FA03FE40EA0E0021FA70
:1006300002F11444BDE600BF70B54FF0FF0C4CF45E
:10064000E06C1CEA11541DBF1CEA135594EA0C0F10
:1006500095EA0C0F00F0DEF82C4481EA030621EA4B
:100660004C5123EA4C5350EA013518BF52EA033586
:1006700041F4801143F4801338D0A0FB02CE4FF038
:100680000005E1FB02E506F00042E0FB03E54FF068
:100690000006E1FB03569CF0000F18BF4EF0010E60
:1006A000A4F1FF04B6F5007F64F5407404D25FEA5C
:1006B0004E0E6D4146EB060642EAC62141EA55510F
:1006C0004FEAC52040EA5E504FEACE2EB4F1FD0C51
:1006D00088BFBCF5E06F1ED8BEF1004F08BF5FEACF
:1006E000500E50F1000041EB045170BD06F0004681
:1006F00046EA010140EA020081EA0301B4EB5C042E
:10070000C2BFD4EB0C0541EA045170BD41F4801125
:100710004FF0000E013C00F3AB8014F1360FDEBF4A
:10072000002001F0004170BDC4F10004203C35DA26
:100730000C341BDC04F11404C4F1200500FA05F3A9
:1007400020FA04F001FA05F240EA020001F000424A
:1007500021F0004110EBD37021FA04F642EB0601C0
:100760005EEA430E08BF20EAD37070BDC4F10C04EA
:10077000C4F1200500FA04F320FA05F001FA04F2AE
:1007800040EA020001F0004110EBD37041F100019A
:100790005EEA430E08BF20EAD37070BDC4F12005A5
:1007A00000FA05F24EEA020E20FA04F301FA05F20D
:1007B00043EA020321FA04F001F0004121FA04F2B5
:1007C00020EA020000EBD3705EEA430E08BF20EA85
:1007D000D37070BD94F0000F0FD101F000464000BF
:1007E00041EB010111F4801F08BF013CF7D041EA41
:1007F000060195F0000F18BF704703F00046520045
:1008000043EB030313F4801F08BF013DF7D043EA15
:100810000603704794EA0C0F0CEA135518BF95EACB
:100820000C0F0CD050EA410618BF52EA4306D1D152
:1008300081EA030101F000414FF0000070BD50EA71
:10084000410606BF1046194652EA430619D094EAFB
:100850000C0F02D150EA013613D195EA0C0F05D1E5
:1008600052EA03361CBF104619460AD181EA030139
:1008700001F0004141F0FE4141F470014FF00000F1
:1008800070BD41F0FE4141F4780170BD70B54FF08C
:10089000FF0C4CF4E06C1CEA11541DBF1CEA13550C
:1008A00094EA0C0F95EA0C0F00F0A7F8A4EB0504EE
:1008B00081EA030E52EA03354FEA013100F08880E5
:1008C0004FEA03334FF0805545EA131343EA1263AE
:1008D0004FEA022245EA111545EA10654FEA002663
:1008E0000EF000419D4208BF964244F1FD0404F51C
:1008F000407402D25B084FEA3202B61A65EB030578
:100900005B084FEA32024FF480104FF4002CB6EB34
:10091000020E75EB030E22BFB61A754640EA0C00B4
:100920005B084FEA3202B6EB020E75EB030E22BFF4
:10093000B61A754640EA5C005B084FEA3202B6EB35
:10094000020E75EB030E22BFB61A754640EA9C00F4
:100950005B084FEA3202B6EB020E75EB030E22BFC4
:10096000B61A754640EADC0055EA060E18D04FEA82
:10097000051545EA16754FEA06164FEAC30343EA22
:1009800052734FEAC2025FEA1C1CC0D111F4801FEF
:100990000BD141EA00014FF000004FF0004CB6E7E8
:1009A00011F4801F04BF01430020B4F1FD0C88BF87
:1009B000BCF5E06F3FF6AFAEB5EB030C04BFB6EB92
:1009C000020C5FEA500C50F1000041EB045170BD85
:1009D0000EF0004E4EEA113114EB5C04C2BFD4EBB2
:1009E0000C0541EA045170BD41F480114FF0000E36
:1009F000013C90E645EA060E8DE60CEA135594EAB2
:100A00000C0F08BF95EA0C0F3FF43BAF94EA0C0FB4
:100A10000AD150EA01347FF434AF95EA0C0F7FF429
:100A200025AF104619462CE795EA0C0F06D152EA7D
:100A300003353FF4FDAE1046194622E750EA410661
:100A400018BF52EA43067FF4C5AE50EA41047FF472
:100A50000DAF52EA43057FF4EBAE12E74FF0FF3CD7
:100A600006E000BF4FF0010C02E000BF4FF0010CA8
:100A70004DF804CD4FEA410C7FEA6C5C4FEA430C21
:100A800018BF7FEA6C5C1BD001B050EA410C0CBF70
:100A900052EA430C91EA030F02BF90EA020F0020D2
:100AA000704710F1000F91EA030F58BF994208BF39
:100AB00090422CBFD8176FEAE37040F001007047F6
:100AC0004FEA410C7FEA6C5C02D150EA013C07D14D
:100AD0004FEA430C7FEA6C5CD6D152EA033CD3D098
:100AE0005DF8040B704700BF8446104662468C4692
:100AF0001946634600E000BF01B5FFF7B7FF0028C5
:100B000048BF10F1000F01BD4DF808EDFFF7F4FFED
:100B10000CBF012000205DF808FB00BF4DF808ED78
:100B2000FFF7EAFF34BF012000205DF808FB00BF9B
:100B30004DF808EDFFF7E0FF94BF012000205DF8BD
:100B400008FB00BF4DF808EDFFF7CEFF94BF012072
:100B500000205DF808FB00BF4DF808EDFFF7C4FF6B
:100B600034BF012000205DF808FB00BF4FEA410CB4
:100B70007FEA6C5C02D150EA013C0AD14FEA430C97
:100B80007FEA6C5C02D152EA033C02D14FF00000D4
:100B900070474FF0010070474FEA410212F5001212
:100BA00015D211D56FF47873B3EB625212D94FEAB4
:100BB000C12343F0004343EA505311F0004F23FA9E
:100BC00002F018BF404270474FF00000704750EAF3
:100BD000013005D111F0004008BF6FF000407047B0
:100BE0004FF00000704700BF4A0011D212F500120A
:100BF00011D20DD56FF47873B3EB62520ED44FEA75
:100C0000C12343F0004343EA505323FA02F07047F4
:100C10004FF00000704750EA013002D14FF0FF3032
:100C200070474FF000007047B0B5ADF5267D02AFBC
:100C30004FF000024FF00003C7E9A0230023C7F8DC
:100C40007C323C23C7F87832AF4C3B46184602F062
:100C500093F907F52473A3F52473204619464FF43E
:100C600001731A4605F0DAFEA74BD3F8B031984766
:100C700000F044FA00F064FAA44C3B46184600F039
:100C8000FDFD07F52473A3F5247320461946902330
:100C90001A4605F0C3FE9E4C3B46184600F05AFD2E
:100CA00007F52473A3F524731D460FCD0FC495E8F3
:100CB000070084E80700974C3B46184600F04AFDC1
:100CC00007F52473A3F524731D460FCD0FC495E8D3
:100CD000070084E80700904C3B46184600F03AFDB8
:100CE00007F52473A3F524731D460FCD0FC495E8B3
:100CF000070084E80700894C3B4607F51372202162
:100D0000184600F065FC07F52473A3F524731D460F
:100D10000FCD0FC40FCD0FC42B682360804C3B4612
:100D200007F50B722021184600F052FC07F52473DA
:100D3000A3F524731D460FCD0FC40FCD0FC42B6830
:100D40002360784B00221A70774B00221A80774B71
:100D500000221A706C4B1B6F19466B4B1B6F03F113
:100D60001402734C3846002301930123009302239D
:100D700000F012FB07F52473A3F52472234607CA7B
:100D800083E80700604B5A6D6A4C3B461146184693
:100D900001F0A4FC07F52473A3F524731D460FCDC1
:100DA0000FC40FCD0FC495E8070084E80700564B29
:100DB000D3F87C319847544BD3F884319847524B41
:100DC000D3F888319847504BD3F89C314FF41652E2
:100DD0009FED4B0B1021082098474B4BD3F8A031C7
:100DE0009847494BD3F8A43198470023C7F8743289
:100DF0000023C7F88C32D7F88C3203F00703C7F80A
:100E00007432D7F87432002B1BD1414B9B693E4A98
:100E1000926B126911463E4898473E4B9B693A4A8D
:100E2000526D126911463B4898473B4B9B69364AC5
:100E3000126F12691146384898473E4B9B6A984793
:100E40003FE1D7F87432012B31D12F4BD3F8C04199
:100E5000314B5869304B1969334B1B880D22A04721
:100E6000C7F86C02D7F86C32052B08D9D7F86C326A
:100E70000A2B04D8294BDB692F4928489847D7F813
:100E80006C320A2B08D9D7F86C321D2B04D8234BAF
:100E9000DB692A4921489847D7F86C32282B40F261
:100EA00007811E4BDB6926491C48984700E1D7F8AB
:100EB0007432022B40F087801E4B5B6A00210120B8
:100EC0009847D7F87832D7F87C229A423AD20E4B1C
:100ED000D3F88C31984753EC102BD7E9A001FFF7DA
:100EE000F5F902460B46C7E9A023074BD3F890312A
:100EF0009847D7F87C320133C7F87C32E1E000BF75
:100F0000000000000000F03F840000208802002064
:100F1000180300203403002050030020A403002005
:100F2000C8030020EC030020EE030020F0030020A3
:100F30006C03002078030020008300081883000859
:100F400030830008D7F87802FFF70CFB02460B4607
:100F5000D7E9A001FFF79AFC02460B46C7E9A02398
:100F600062A3D3E90023D7E9A001FFF78FFC024673
:100F70000B46104619465FA3D3E90023FFF7A4F9F7
:100F800002460B46104619464FF00002504BFFF741
:100F90009DF902460B46C7E9A0234E4B9C694E4B78
:100FA000D3F88C50D7E9A001FFF71EFE0346DF22DD
:100FB00019464A48A847034606211846A047002379
:100FC000C7F87C327DE0D7F87432032B60D1444BF4
:100FD000D3F898311B6803F04003002B10D0414B2D
:100FE0005B6940489847034687F8733297F8733235
:100FF000002B05D03A4BD3F8983197F873225A60FA
:10100000374BD3F898311B6803F02003002B51D0E5
:10101000334BD3F898315B6887F8723297F87232A5
:10102000002B2AD0304B9B6997F8722211462E482C
:10103000984797F872320D2B1FD12B4B1B6A07F57F
:101040000372114628489847224B5B6A062101200B
:10105000984707F503731846FFF7DAF80346013B94
:1010600003F524733B44002203F8842C194B9B693D
:1010700007F503720E2110469847194BD3F89831A3
:101080001A68174BD3F8983122F020021A6011E049
:10109000D7F87432042B0FD0D7F87432052B0DD04B
:1010A000D7F87432062B0BD0D7F87432072B08E030
:1010B00000BF06E000BF04E000BF02E000BF00E0A8
:1010C00000BFD7F88C320133C7F88C3293E600BFEB
:1010D0000000394078030020880200204C8300087B
:1010E00084000020A4030020C8030020CDCCCCCC79
:1010F000CCCC0840638C31C61803734080B500AF78
:101100000E4BDB681A6B0D4BDB6842F007021A636B
:101110000A4BDB6B052101209847084B5B6C0521CE
:1011200000209847054B5B6F0D2100209847034B2B
:10113000DB6F0D210120984700BF80BD8400002097
:1011400080B400AF1D4BDB685A6C1C4BDB6842F46B
:1011500080325A64194BD3F85C311A68174BD3F8B4
:101160005C3142F080721A60144BD3F870314BF24C
:10117000DF12DA62114BD3F8703141F66A525A63CA
:101180000E4BD3F8703114229A620C4BD3F87031A5
:10119000DA680A4BD3F8703142F00302DA60074B89
:1011A000D3F870311A68054BD3F8703142F08102E0
:1011B0001A6000BFBD465DF8047B704784000020C4
:1011C00080B500AF364BD3F870311B6903F00103D3
:1011D000002B50D0324BD3F870311A69304BD3F812
:1011E000703122F001021A612E4B1B78002B1ED0A9
:1011F0002B4BDB6C202098472B4B5B682B4A92F9DA
:101200000010CAB2013AD2B250B2284A107001227C
:101210008A40D2B2D243D2B210469847234B93F9B8
:101220000030002B21DA1F4B00221A701DE01C4BEE
:101230001B6D202098471C4B5B681C4A92F90010DC
:10124000CAB20132D2B250B2184A107001228A409A
:10125000D2B2D243D2B210469847144B93F9003021
:10126000072B02DD0F4B01221A70114B1B88013333
:101270009AB20F4B1A800A4BD3F870311B6903F0F6
:101280000203002B09D0064BD3F870311A69044BC6
:10129000D3F8703122F002021A6100BF80BD00BF96
:1012A00084000020F00300206C030020EC030020E9
:1012B000EE03002080B586B000AF7860144A154B6D
:1012C000D31A7B617B693B61134B1B68002B02D1F6
:1012D000114B124A1A60104B1A687B6813443A6922
:1012E0009A4207D205F070FB03460C221A604FF0B9
:1012F000FF3309E0084B1B68FB60074B1A687B68EB
:101300001344054A1360FB6818461837BD4680BD74
:101310000000022000040000F4030020C8080020A0
:1013200080B400AF064BD3F88830054A43F470030D
:10133000C2F8883000BFBD465DF8047B704700BF2F
:1013400000ED00E0DFF834D00D480E490E4A0023CE
:1013500002E0D458C4500433C4188C42F9D30B4A69
:101360000B4C002301E013600432A242FBD3FFF7D1
:10137000D7FF05F02FFBFFF757FC70470000022056
:10138000000000206400002028840008680000207D
:10139000C8080020FEE7000090B488B000AFF860F5
:1013A000B9607A60FB70384ABB681360374A7B6863
:1013B0001360374AFB781370364A97F82830137059
:1013C000354A97F82C3013702F4B1B681A68FB783E
:1013D0005B000321994097F828305B00032000FA56
:1013E00003F3194397F82C305B00032000FA03F352
:1013F0000B43DB431946244B1B680A401A60224BFF
:101400001B681A68FB785B000121994097F8283027
:101410005B00012000FA03F3194397F82C305B00BE
:10142000012000FA03F30B431946174B1B680A43CC
:101430001A60164B1B681A68FB780121994097F8CF
:101440002830012000FA03F3194397F82C300120CB
:1014500000FA03F30B43DB4319460C4B1B680A40AD
:101460001A600E4B7B610E4BBB610E4BFB61FB6840
:101470001C4607F1140393E8070084E80700F868A6
:101480002037BD4690BC7047F8030020FC030020C5
:10149000000400200104002002040020A914000818
:1014A000411500088515000880B483B000AF0346DD
:1014B000FB71FB79002B0DD01E4B1B681A681E4B6D
:1014C0001B78194601238B4019461A4B1B680A43A7
:1014D0001A600DE0174B1B681A68174B1B781946EA
:1014E00001238B40DB431946124B1B680A401A60EC
:1014F000104B1B681A68114B1B78194601238B404F
:1015000019460C4B1B680A431A600A4B1B681A6881
:101510000A4B1B78194601238B40DB431946054BC8
:101520001B680A401A6000BF0C37BD465DF8047B9B
:10153000704700BFFC0300200004002001040020CD
:1015400080B584B000AF0346FB710023FB730FE04E
:10155000FB7B012202FA03F35AB297F907301340DA
:101560005BB2DBB21846FFF79FFFFB7B0133FB73D7
:10157000FB7B072BECD900F005F800BF1037BD4608
:1015800080BD000080B400AF0F4B1B681A680F4B82
:101590001B78194601238B4019460B4B1B680A43E5
:1015A0001A60094B1B681A68084B1B7819460123FF
:1015B0008B40DB431946044B1B680A401A6000BF8E
:1015C000BD465DF8047B7047FC0300200204002048
:1015D000B0B48FB000AFF8600B467A60FB72134B6B
:1015E00000221A707B68FB61FB69BB61BB697B6190
:1015F0007B683B62FB7A013B7A6813447B620C4B4D
:10160000BB620C4BFB620C4B3B630C4B7B63FB687C
:101610001D4607F114040FCC0FC50FCC0FC523686E
:101620002B60F8683C37BD46B0BC7047030400200F
:101630004116000893160008DF1600081F1700085F
:1016400080B485B000AF78607B681B68FB607B6806
:101650001B69FA689A4203D17B68DB68BB6002E0D1
:10166000FB680133BB607B685B68FA689A4203D110
:10167000FB6800221A7004E07B68BA681A60BB68D5
:10168000FB60FB681B7818461437BD465DF8047B89
:10169000704780B485B000AF78600B46FB707B6804
:1016A0005B68BB607B681B69BA689A4203D17B6840
:1016B000DB68FB6002E0BB680133FB607B681B6892
:1016C000FA689A4205D0FB68FA781A707B68FA6863
:1016D0005A6000BF1437BD465DF8047B704790B573
:1016E00085B000AF786039600023FB730AE0FB7BB4
:1016F0005A1CFA731A463B6813441B7819467868DB
:10170000FFF7C7FFFC7B3868FEF782FD0346013315
:101710009C42ECD300BF00BF1437BD4690BD90B5CE
:1017200085B000AF786039600023FB7300BFFB7B9E
:101730005A1CFA731A463B689C187868FFF780FFBA
:10174000034623702378002BF1D100BF00BF14376C
:10175000BD4690BDB0B48BB000AF78600023FB6095
:1017600000233B61084B7B627B681D4607F10C043C
:101770000FCC0FC594E8070085E8070078682C3780
:10178000BD46B0BC704700BF8D17000880B582B061
:1017900000AF786039607B685A687B681A607B6844
:1017A0003A685A60786800F019F802467B689A60D7
:1017B000786800F024F802467B68DA60786800F008
:1017C00030F802467B681A61786800F040F80246FB
:1017D0007B685A6100BF0837BD4680BD80B485B0C4
:1017E00000AF78607B681A687B685B681340FB60B9
:1017F000FB6818461437BD465DF8047B704780B41B
:1018000085B000AF78607B681A687B685B681343BB
:10181000FB60FB68DB4318461437BD465DF8047B6C
:10182000704780B485B000AF78607B681A687B68C9
:101830005B685340FB607B685B68FA681340FB6041
:10184000FB6818461437BD465DF8047B704780B4CA
:1018500085B000AF78607B685A687B681B6853402E
:10186000FB607B681B68FA681340FB60FB681846E6
:101870001437BD465DF8047B7047000080B5A6B004
:1018800000AF78602E4B002283F85F202D4BBB60A9
:101890002D4BFB602D4B3B612D4B7B612D4BBB6179
:1018A0002D4BFB612D4B3B622D4B7B622D4BBB6265
:1018B0002D4BFB622D4B3B632D4B7B632D4BBB6351
:1018C0002D4BFB632D4B3B642D4B7B642D4BBB643D
:1018D0002D4BFB642D4B3B652D4B7B652D4BBB6529
:1018E0002D4BFB652D4B3B662D4B7B662D4BBB6615
:1018F0002D4BFB662D4B3B672D4B7B672D4BBB6701
:101900002D4BFB672D4BC7F880302D4BC7F884302B
:101910002C4BC7F888302C4BC7F88C302B4BC7F8B2
:1019200090302B4BC7F894307B68184607F10803BA
:101930009022194605F072F878689837BD4680BD48
:10194000040400200D2100083B210008D9190008DB
:101950005D1A0008871A0008C11A0008231B000836
:10196000691C00080D1D0008D51B0008A51D0008F6
:10197000051E00082F1E0008691E0008C51E00086D
:10198000E91E0008131F0008551F0008991F0008D2
:10199000E91F00082D20000861200008D52000085C
:1019A00097210008C92100080D2200085B220008C9
:1019B00095220008B923000835250008C125000834
:1019C000E5250008092600084126000879260008B8
:1019D000A12600080000000080B588B000AFF860C4
:1019E000B9601346FB71FB791846FEF7ABFD024662
:1019F0000B4643EC112B9FED160B05F059FD51ECF6
:101A0000100B4FF00002144BFEF75EFC02460B4633
:101A100010461946FFF7E8F80346FB61FA68FB69D0
:101A20001340FB60BA68FB691340BB60BA68FB688F
:101A30005340BB61BA69BB6813407B61FB797A692B
:101A40009A40BB69134318462037BD4680BD00BF8E
:101A500000000000000000400000F03F80B485B0AE
:101A600000AF786039607B681B68FB603B681A6870
:101A70007B681A603B68FA681A6000BF1437BD467D
:101A80005DF8047B704780B485B000AF7860396042
:101A90000023FB6002E0FB680133FB60FB683A68EF
:101AA0001A44FB6879680B4412781A701B78002B73
:101AB000F1D100BF00BF1437BD465DF8047B70470D
:101AC00080B485B000AF786039600023FB600023EC
:101AD000BB6015E0FB687A6813441B781A463B68C4
:101AE00093420AD0FB687A681A44BB68591CB960F3
:101AF00019467B680B4412781A70FB680133FB604F
:101B0000FB687A6813441B78002BE3D1BB687A68C2
:101B1000134400221A7000BF1437BD465DF8047BE1
:101B2000704780B487B000AF786039603B68DA0FE7
:101B300013445B107B6142E07B693B6136E03A69AC
:101B40007B69D31AFB601DE0FB689B007A68134435
:101B50001B68BB60FA687B6913449B007A681A446F
:101B6000FB689B0079680B4412681A60FA687B690D
:101B700013449B007A681344BA681A60FA687B6958
:101B8000D31AFB60FB68002B0DDBFB689B007A68B7
:101B900013441A68F9687B690B449B0079680B440D
:101BA0001B689A42D0DC3B6901333B613A693B6870
:101BB0009A42C4DB7B69DA0F13445B107B617B695B
:101BC000002BB9DC00BF00BF1C37BD465DF8047BAD
:101BD0007047000080B584B000AF78607B68BB6060
:101BE000BB68002B02DA7B685B427B600023FB73DF
:101BF0007A681B4B83FB02139910D317C91A0B4643
:101C00009B000B445B00D11ACAB2FB7B591CF973D1
:101C1000194602F13003DAB2124B5A547B68104A6B
:101C200082FB03129210DB17D31A7B607B68002BB8
:101C3000DEDCBB68002B06DAFB7B5A1CFA731A4603
:101C4000084B2D219954FB7B064A0021D1540548AD
:101C500000F073FA034B18461037BD4680BD00BF35
:101C6000676666660404002080B584B000AF034652
:101C7000FB80FB88BB81B7F90C30002B03DAFB88B3
:101C80005B429BB2FB800023FB73B7F906201D4B20
:101C900083FB02139910D317C91A0B469B000B4400
:101CA0005B00D31A1BB2DAB2FB7B591CF9731946DD
:101CB00002F13003DAB2144B5A54B7F90630114A24
:101CC00082FB03129210DB17D31AFB80B7F90630A0
:101CD000002BDADCB7F90C30002B06DAFB7B5A1C40
:101CE000FA731A46084B2D219954FB7B064A0021B2
:101CF000D154054800F021FA034B18461037BD4671
:101D000080BD00BF676666660404002080B584B0AD
:101D100000AF0346FB800023FB73FA881F4BA3FB35
:101D20000213D9080B469B000B445B00D31A9BB2ED
:101D3000DAB2FB7B591CF973194602F13003DAB2AF
:101D4000174B5A5414E0FA88144BA3FB0213D9081A
:101D50000B469B000B445B00D31A9BB2DAB2FB7BB1
:101D6000591CF973194602F13003DAB20C4B5A547C
:101D7000FB880A4AA2FB0323DB08FB80FB88002BBD
:101D8000E1D1FB7B064A0021D154054800F0D5F98A
:101D9000034B18461037BD4680BD00BFCDCCCCCC20
:101DA0000404002080B584B000AF7860786800F04B
:101DB000ADF90346013BFB6014E0FB687A6813440D
:101DC0001B78202B0BD0FB687A6813441B78092BF7
:101DD00005D0FB687A6813441B780A2B06D1FB6890
:101DE000013BFB60FB68002BE7DA00E000BFFB680B
:101DF00001337A68134400221A70FB6818461037C2
:101E0000BD4680BD80B485B000AF786039607A6827
:101E10003B689A4202DD7B68FB6001E03B68FB6047
:101E2000FB6818461437BD465DF8047B704780B4E4
:101E300085B000AF786039600CE07B683A6893FB4E
:101E4000F2F2396801FB02F29B1AFB603B687B608F
:101E5000FB683B603B68002BEFD17B68184614376A
:101E6000BD465DF8047B704780B487B000AF7860F2
:101E700000233B6100237B6111E07B697A68134496
:101E80001B78303BFB603A6913469B0013445B00B0
:101E90001A46FB6813443B617B6901337B617B69B4
:101EA0007A6813441B782F2B05D97B697A68134411
:101EB0001B78392BE1D93B6918461C37BD465DF8C4
:101EC000047B704780B483B000AF03460A46FB71C1
:101ED0001346BB71FA79BB791340DBB218460C3755
:101EE000BD465DF8047B704780B485B000AF786074
:101EF0000023FB6002E0FB680133FB60FA687B684B
:101F00009A42F8D3FB6818461437BD465DF8047B47
:101F1000704780B485B000AF78607B6803F08003C1
:101F2000002B0AD07B685B427B607B68DBB27B6006
:101F30007B685B42FB60FB6806E07B6803F07F0325
:101F40007B607B68FB60FB6818461437BD465DF814
:101F5000047B704780B485B000AF78607B6803F481
:101F60000073002B0BD07B685B427B607B68C3F304
:101F700009037B607B685B42FB60FB6806E07B6873
:101F8000C3F308037B607B68FB60FB68184614376B
:101F9000BD465DF8047B704780B485B000AF7860C3
:101FA0000B46FB70FB78013B012202FA03F3FB6056
:101FB000FB68013BBB607A68FB681340002B08D0CC
:101FC0007A68BB6813407B607A68FB68D31A7B60D1
:101FD00003E07A68BB6813407B607B68184614375F
:101FE000BD465DF8047B704780B483B000AF034604
:101FF000FB71FB790C4AA2FB0323DB08DBB21B015C
:10200000D8B2FA79084BA3FB0213D9080B469B0000
:102010000B445B00D31ADBB20344DBB218460C3727
:10202000BD465DF8047B7047CDCCCCCC80B483B08A
:1020300000AF0346FB71FB791B09DBB21A46920025
:1020400013445B00DAB2FB7903F00F03DBB21344F5
:10205000DBB218460C37BD465DF8047B70470000C4
:1020600080B485B000AF78603960194A3B6813448A
:1020700000221A700023FB601FE0FB687A6813449B
:102080001B78002B0DD107E0114AFB681344202276
:102090001A70FB680133FB60FA683B689A42F3DB15
:1020A0000FE0FB687A6813441978094AFB68134407
:1020B0000A461A70FB680133FB60FA683B689A4273
:1020C000DBDB034B18461437BD465DF8047B7047D5
:1020D0000404002080B485B000AFF860B9607A6075
:1020E0003B60FA68BB68D31AB9693A688A1A03FB7D
:1020F00002F27968BB68CB1A92FBF3F23B68134497
:1021000018461437BD465DF8047B704780B485B02F
:1021100000AF78600023FB6002E0FB680133FB60E6
:10212000FB687A6813441B78002BF6D1FB681846CD
:102130001437BD465DF8047B704780B586B000AFAC
:10214000786000237B617868FFF7E0FF0346013B7E
:102150003B6117E07B697A6813441B78FB733B692A
:102160007A681A447B6979680B4412781A703B6963
:102170007A681344FA7B1A707B6901337B613B698F
:10218000013B3B617A693B699A42E3DB00BF00BFD8
:102190001837BD4680BD80B483B000AF0346FB71E5
:1021A000FB7903F00F03DAB2FB791B09DBB21946A6
:1021B00089000B445B00DBB21344DBB218460C37DA
:1021C000BD465DF8047B704780B483B000AF786093
:1021D0007B680D4AA2FB0323DB08DBB21B01D8B2EC
:1021E0007968094BA3FB0123DA0813469B001344CB
:1021F0005B00CA1AD3B20344DBB218460C37BD46A3
:102200005DF8047B704700BFCDCCCCCC80B584B0EA
:1022100000AF786039607A683B689A4205DA3A46DE
:102220003B1D11461846FFF719FC3B68002B0FD1E8
:1022300003E03B687B60FB683B607B683A6893FB2C
:10224000F2F101FB02F29B1AFB60FB68002BF0D15C
:102250003B6818461037BD4680BD80B485B000AFDE
:1022600003460A46FB711346BB71FA79BB7942FA01
:1022700003F303F00103002B02D00123FB7301E001
:102280000023FB73FB7B18461437BD465DF8047BC7
:102290007047000080B485B000AF786039607B681B
:1022A000013B012202FA03F3FB600023BB6015E04F
:1022B0003A68FB681340002B05D0104ABB681344F2
:1022C00031221A7004E00D4ABB68134430221A70A0
:1022D000FB685B08FB60BB680133BB60FB68002BDD
:1022E000E6D1064ABB68134400221A70034B184615
:1022F0001437BD465DF8047B704700BF040400201E
:1023000080B487B000AFF860B9601346FB7100235A
:10231000FB75FA68274B83FB02139910D317C91A70
:102320000B469B000B445B00D11ACAB2FB7D591CC3
:10233000F9751946BB680B443032D2B21A7015E0F9
:10234000FA681C4B83FB02139910D317C91A0B466A
:102350009B000B445B00D11ACAB2FB7D591CF97576
:102360001946BB680B443032D2B21A70FB68114A6E
:1023700082FB03129210DB17D31AFB60FB68002B61
:10238000DEDC07E0FB7D5A1CFA751A46BB68134475
:1023900030221A70FA7DFB799A42F3D3FB7DBA683A
:1023A000134400221A70FB7D18461C37BD465DF8A9
:1023B000047B704767666666B0B58AB000AF87ED8C
:1023C000020B78600B46FB700023FB774FF0000296
:1023D0004FF00003D7E90201FEF7A0FB0346002BF4
:1023E00008D0BC68FB6883F00045C7E90845FF23B7
:1023F000BB7705E0D7E90223C7E908230123BB77B0
:10240000D7E90801FEF7F0FB0346BB61B869FEF7A8
:1024100099F802460B46D7E90801FDF755FF024639
:102420000B46C7E90423BB69012279681846FFF708
:1024300067FF0346FB7797F91E30002B08DAFB7F16
:102440005A1CFA771A467B6813442D221A7007E04B
:10245000FB7F5A1CFA771A467B68134420221A70B5
:10246000FB7F7A68134400221A707868FFF765FED4
:10247000FB78002B30D0FB78062B2DD8FB7F5A1C25
:10248000FA771A467B6813442E221A70FB78184696
:10249000FEF758F802460B4643EC112B9FED220B3A
:1024A00005F006F851EC100BD7E90423FEF7C4F849
:1024B00002460B4610461946FEF76EFBFB7F7A6814
:1024C0001344FA781946FFF71BFFFB7F7A68134421
:1024D0001846FFF732FE21E0FB7F5A1CFA771A46B6
:1024E0007B6813442E221A704FF00002104BD7E97C
:1024F0000401FEF7A1F802460B4610461946FEF706
:102500004BFBFB7F7A68134402221946FFF7F8FE63
:10251000FB7F7A6813441846FFF70FFE7B68184666
:102520002837BD46B0BD00BF0000000000002440B9
:102530000000594080B584B000AF78600023FB7381
:10254000FB7B1E4A0021D1542CE07B685A4203F0E9
:102550000F0302F00F0258BF5342BB60BB68092B48
:102560000BDCBB68DAB2FB7B591CF973194602F12C
:102570003003DAB2114B5A540AE0BB68DAB2FB7B83
:10258000591CF973194602F13703DAB20B4B5A544E
:10259000FB7B0A4A0021D1547B68002B00DA0F3301
:1025A0001B117B607B68002BCFD10448FFF7C5FD72
:1025B000024B18461037BD4680BD00BF0404002002
:1025C00080B483B000AFB8803B799BB21B029AB253
:1025D0007B799BB213439BB218460C37BD465DF81E
:1025E000047B704780B483B000AFB8807B799BB226
:1025F0001B029AB23B799BB213439BB218460C372D
:10260000BD465DF8047B704780B485B000AF0346DB
:10261000FB80FB881B0A9BB2DBB23B72FB88DBB200
:102620007B723B89BB8100233A7B62F307037A7B91
:1026300062F30F2318461437BD465DF8047B7047DC
:1026400080B485B000AF0346FB80FB881B0A9BB2B9
:10265000DBB27B72FB88DBB23B723B89BB81002320
:102660003A7B62F307037A7B62F30F231846143731
:10267000BD465DF8047B704780B485B000AF03466B
:10268000FB80FB881B02FB81FB881B0A9AB2FB893B
:1026900013439BB218461437BD465DF8047B704760
:1026A0000FB480B582B000AF07F114033B603B6804
:1026B0003A695F21084804F03DFA78607B68002B96
:1026C00001DA002300E0044B18460837BD46BDE898
:1026D000804004B0704700BF04040020B0B5ADF5E1
:1026E000107D00AFC7F80C02C7F80812244C3B4617
:1026F000184600F041FC07F51073A3F5107320464F
:1027000019464FF401731A4604F088F91D4AD7F8A8
:10271000083213601C4BC7F814321C4BC7F8183230
:102720001B4BC7F81C321B4BC7F820321A4BC7F89B
:1027300024321A4BC7F82832194BC7F82C32194BE0
:10274000C7F83032184BC7F83432184BC7F8383254
:10275000174BC7F83C3200F02DF8D7F80C321D4665
:1027600007F505740FCC0FC50FCC0FC594E8070013
:1027700085E80700D7F80C0207F51077BD46B0BD15
:1027800064040020680600203D2900088D2B000805
:10279000612D0008B92D00089B2D0008D92D0008D7
:1027A000072E0008632E0008892E0008A92E0008B5
:1027B000352F000880B500AF5D4B1B681A685C4B75
:1027C0001B6822F03F021A60594B1B681A68584B6D
:1027D0001B6842F015021A60554B1B68DA68544BAF
:1027E0001B6822F47F42DA60514B1B68DA68504B59
:1027F0001B6842F4AA42DA604D4B1B681A684C4BC6
:102800001B6822F0C0021A60494B1B68DA68484B0B
:102810001B6822F0C002DA60454B1B68DA68444B43
:102820001B6842F04002DA60414B1B689B68404ADB
:10283000126823F47F4323F03F0393603C4B1B68F3
:102840009B683B4A126843F47F4343F03F03936025
:10285000374B1B681B6903F00803364A1360364B7D
:10286000D3F86431142098470021382000F066F82E
:10287000314BD3F86831042098470021382000F00C
:102880005DF82D4BD3F868310A2098470021382095
:1028900000F054F8284BD3F8683104209847002101
:1028A000282000F04BF8244BD3F8683104209847D7
:1028B0000021282000F042F81F4BD3F86831042093
:1028C00098470021282000F039F800F049FA00214B
:1028D000282000F033F800F043FA00210C2000F02B
:1028E0002DF800F03DFA00210C2000F027F800F050
:1028F00037FA0021012000F021F800F031FA002120
:10290000012000F01BF800F02BFA0021062000F057
:1029100015F800F025FA0021062000F00FF800F06D
:102920001FFA0021002000F0BFFA00BF80BD00BFE9
:10293000680600206C0600206404002080B582B088
:1029400000AF03460A46FB711346BB808D4BD3F89C
:10295000E8318D4A1268012110469847BB88002B48
:1029600008D0884BD3F8DC31874A12680021104622
:10297000984707E0834BD3F8E831834A1268002177
:1029800010469847804B1B681A687F4B1B6822F4DF
:102990007F421A607C4B1B681A687B4B1B6842F4B1
:1029A000AA421A60774BD3F8DC31774A12680221C9
:1029B0001046984797F90730002B08DA714BD3F887
:1029C000DC31714A126807211046984707E06D4BC9
:1029D000D3F8E8316C4A1268072110469847FB7912
:1029E00003F04003002B08D0664BD3F8DC31664A75
:1029F000126806211046984707E0624BD3F8E83189
:102A0000614A1268062110469847FB7903F02003BB
:102A1000002B08D05B4BD3F8DC315B4A12680521F0
:102A20001046984707E0574BD3F8E831564A1268EA
:102A3000052110469847FB7903F01003002B08D0BE
:102A4000504BD3F8DC31504A1268042110469847A5
:102A500007E04C4BD3F8E8314B4A1268042110468A
:102A60009847484BD3F8E831474A1268022110468C
:102A70009847444BD3F8E831434A12680121104685
:102A80009847BB88002B08D03E4BD3F8DC313E4A38
:102A9000126800211046984707E03A4BD3F8E83116
:102AA000394A1268002110469847364BD3F8DC317A
:102AB000354A1268022110469847FB7903F0080353
:102AC000002B08D02F4BD3F8DC312F4A1268072196
:102AD0001046984707E02B4BD3F8E8312A4A126892
:102AE000072110469847FB7903F00403002B08D018
:102AF000244BD3F8DC31244A12680621104698474B
:102B000007E0204BD3F8E8311F4A1268062110462F
:102B10009847FB7903F00203002B08D0194BD3F838
:102B2000DC31194A126805211046984707E0154B19
:102B3000D3F8E831144A1268052110469847FB790A
:102B400003F00103002B08D00E4BD3F8DC310E4A02
:102B5000126804211046984707E00A4BD3F8E83181
:102B6000094A1268042110469847064BD3F8E83109
:102B7000054A126802211046984700BF0837BD4633
:102B800080BD00BF640400206806002080B584B0CA
:102B900000AF0346FB800023BB600023FB736E4B3A
:102BA0001B681A686C4B1B6822F47F421A606B4BDF
:102BB000D3F8DC31684A1268012110469847FB8837
:102BC000002B08D0654BD3F8DC31634A1268002132
:102BD0001046984707E0614BD3F8E8315E4A126827
:102BE0000021104698475D4BD3F8DC315A4A1268F1
:102BF000022110469847584B1B681B69BB60574B16
:102C0000D3F8E831544A1268022110469847BB684D
:102C100003F08003002B04D0FB7B63F07F03FB7386
:102C200003E0FB7B03F07F03FB73BB6803F040030F
:102C3000002B04D0FB7B43F04003FB7303E0FB7BE2
:102C400023F04003FB73BB6803F02003002B04D088
:102C5000FB7B43F02003FB7303E0FB7B23F02003AB
:102C6000FB73BB6803F01003002B04D0FB7B43F025
:102C70001003FB7303E0FB7B23F01003FB73374B64
:102C8000D3F8DC31344A1268012110469847FB889A
:102C9000002B08D0314BD3F8DC312F4A12680021C9
:102CA0001046984707E02D4BD3F8E8312A4A1268BE
:102CB000002110469847294BD3F8DC31264A126888
:102CC000022110469847244B1B681B69BB60234BAD
:102CD000D3F8E831204A1268022110469847BB68B1
:102CE00003F08003002B04D0FB7B43F00803FB734D
:102CF00003E0FB7B23F00803FB73BB6803F0400396
:102D0000002B04D0FB7B43F00403FB7303E0FB7B4D
:102D100023F00403FB73BB6803F02003002B04D0F3
:102D2000FB7B43F00203FB7303E0FB7B23F0020316
:102D3000FB73BB6803F01003002B04D0FB7B43F054
:102D40000103FB7303E0FB7B23F00103FB73FB7BBD
:102D500018461037BD4680BD680600206404002078
:102D600080B582B000AF8023BB710023FB710AE005
:102D70000020FFF70BFF0346BB71FB79012B07D83F
:102D8000FB790133FB7197F90630002BF0DB00E093
:102D900000BF00BF0837BD4680BD80B582B000AF20
:102DA0000120FFF7F3FE0346FB71FFF7D9FFFB7924
:102DB00018460837BD4680BD80B582B000AF0346D7
:102DC000FB71FB7901211846FFF7B8FDFFF7C8FF3B
:102DD00000BF0837BD4680BD80B584B000AF7860C5
:102DE00008E07B685A1C7A601B78FB73FB7B1846F3
:102DF000FFF7E2FF7B681B78002BF2D100BF00BF1A
:102E00001037BD4680BD80B584B000AF78603960B2
:102E10000023FB600FE07B685A1C7A601B78FB7212
:102E2000FB680133FB60FA683B689A4208D8FB7A7A
:102E30001846FFF7C1FF7B681B78002BEBD107E03A
:102E400000BF05E02020FFF7B7FFFB680133FB6000
:102E5000FA683B689A42F5D300BF00BF1037BD4601
:102E600080BD80B582B000AF786005E02020FFF71C
:102E7000A3FF7B68013B7B607B68002BF6D100BF22
:102E800000BF0837BD4680BD80B500AF00210120DE
:102E9000FFF754FD034BD3F864310220984700BF7D
:102EA00080BD00BF6404002080B582B000AF7860B0
:102EB00039607B68032B37D801A252F823F000BF9A
:102EC000D12E0008E72E0008FD2E0008132F000861
:102ED0003B68DBB2803BDBB200211846FFF72EFDDA
:102EE000FFF73EFF21E03B68DBB2403BDBB2002155
:102EF0001846FFF723FDFFF733FF16E03B68DBB210
:102F00006C3BDBB200211846FFF718FDFFF728FFE6
:102F10000BE03B68DBB22C3BDBB200211846FFF72D
:102F20000DFDFFF71DFF00E000BF00BF0837BD46E5
:102F300080BD00BF80B582B000AF0D4B1B681B6920
:102F400003F008037B600B4B1B687A6853403B60BF
:102F50003A687B6813403B603B68002B01D0FFF769
:102F600029FC044A7B68136000BF0837BD4680BD5A
:102F7000680600206C06002080B582B000AF786043
:102F8000984B00221A60984B00221A6097494FF024
:102F900000024FF00003C1E90023954B954A1A60E7
:102FA000934B954A5A60924B944A9A60904B944A3C
:102FB000DA608F4B934A1A618D4B934A5A618C4B5E
:102FC000924A9A618A4B924ADA61894B914A1A6213
:102FD000874B914A5A62864B904A9A62844B904A38
:102FE000DA62834B8F4A1A63814B8F4A5A63804B54
:102FF0008E4A9A637E4B8E4ADA637D4B8D4A1A6401
:103000007B4B8D4A5A647A4B8C4ADA64784B8C4AF3
:103010001A65774B8B4A9A64754B8B4A5A65744B89
:103020008A4A9A65724B8A4ADA65714B894A1A66EE
:103030006F4B894A9A666E4B884ADA666C4B884AAF
:103040005A666B4B874A1A67694B874A5A67684BBF
:10305000864A9A67664B864ADA67654B854AC3F8A3
:103060008420634B844AC3F88820614B834AC3F8A9
:1030700080205F4B824AC3F88C205D4B814AC3F8A5
:1030800090205B4B804AC3F89420594B7F4AC3F889
:103090009820574B7E4AC3F8A020554B7D4AC3F871
:1030A000A420534B7C4AC3F89C20514B7B4AC3F865
:1030B000A8204F4B7A4AC3F8AC204D4B794AC3F84D
:1030C000B0204B4B784AC3F8B420494B774AC3F839
:1030D000BC20474B764AC3F8C020454B754AC3F81D
:1030E000B820434B744AC3F8C420414B734AC3F819
:1030F000C8203F4B724AC3F8CC203D4B714AC3F8FD
:10310000D0203B4B704AC3F8D820394B6F4AC3F8E4
:10311000DC20374B6E4AC3F8D420354B6D4AC3F8D8
:10312000E020334B6C4AC3F8E420314B6B4AC3F8C0
:10313000E8202F4B6A4AC3F8EC202D4B694AC3F8AC
:10314000F0202B4B684AC3F8F420294B674AC3F898
:10315000F820274B664AC3F8FC20254B654AC3F884
:103160000021234B644AC3F80421214B634AC3F86E
:1031700008211F4B624AC3F80C211D4B614AC3F85A
:1031800010211B4B604AC3F81421194B5F4AC3F846
:103190001821174B5E4AC3F83821154B5D4AC3F816
:1031A0003C21134B5C4AC3F85C21114B5B4AC3F8CA
:1031B00060210F4B5A4AC3F864210D4B594AC3F89A
:1031C00068210B4B584AC3F86C21094B574AC3F886
:1031D0007021074B564AC3F87421054B554AC3F872
:1031E0007821A9E08008002090080020A008002095
:1031F00070060020003C0240003002400070004099
:1032000000380240453500080136000889360008BC
:1032100045370008C93700082D3D0008F53A000879
:10322000913C0008C53C0008F93C00080000024041
:103230007140000811410008B141000851420008E6
:1032400075420008994200080004024079430008D2
:1032500019440008B9440008594500087D45000894
:10326000A1450008000802408146000821470008E7
:10327000C14700086148000885480008A9480008BF
:10328000000C024089490008314A0008D94A000868
:10329000814B0008A54B0008C94B000800100240F4
:1032A000B14C0008594D0008014E0008A94E000815
:1032B000CD4E0008F14E0008001C0240D94F000816
:1032C0008150000829510008D1510008F55100082B
:1032D000195200080028004001530008F556000864
:1032E000755600081156000891550008E55300086E
:1032F0007554000805550008D957000805590008FD
:103300007157000800380140006002401060024020
:10331000006402401064024000E100E010E000E0C0
:103320005D680008CD6800083D6900080040014064
:1033300000200140002301404B4B4C4AC3F87C2144
:10334000494B4B4AC3F88021474B4A4AC3F8842172
:10335000454B494AC3F88821434B484AC3F88C215E
:10336000414B474AC3F890213F4B464AC3F894214A
:103370003D4B454AC3F898213B4B444AC3F89C2136
:10338000394B434AC3F8A021374B424AC3F8A42122
:10339000354B414AC3F8A821334B404AC3F8AC210E
:1033A000314B3F4AC3F8B0212F4B3E4AC3F8B421FA
:1033B0002D4B3D4AC3F8B8212B4B3C4AC3F8BC21E6
:1033C000294B3B4AC3F8C021274B3A4AC3F8C421D2
:1033D000254B394AC3F8C821234B384AC3F8CC21BE
:1033E000214B374AC3F8D0211F4B364AC3F8D421AA
:1033F0001D4B354AC3F8D8211B4B344AC3F8DC2196
:10340000194B334AC3F8E021174B324AC3F8E42181
:10341000154B314AC3F8E821134B304AC3F8EC216D
:10342000114B2F4AC3F8F0210F4B2E4AC3F8F42159
:103430000D4B2D4AC3F8F8210B4B2C4AC3F8FC2145
:10344000094B2B4AC3F8002203F0EAF97B68064ACD
:10345000184611464FF401731A4603F0DFFA7868F4
:103460000837BD4680BD00BF70060020315A0008F5
:10347000B95A0008E15A0008095B0008455B0008DA
:10348000A15B0008D95B000800100140015C000846
:103490007D5C0008CD5C0008215D0008A560000887
:1034A000F5340008CD60000801610008456100089E
:1034B000F16100089D620008C1620008E562000831
:1034C0001D63000855630008D53D0008273E00082D
:1034D0004B3E0008673E0008BB3E0008E13E000886
:1034E000013F0008993F000881630008FD6400085F
:1034F000D166000880B584B002AF072301930E2384
:10350000009302234FF4A8720821002000F0F2FA81
:10351000002301220121012000F056F9002000F0D3
:1035200011F8002000F06CF80346FB71022000F057
:10353000ABF8022000F006F9FB7918460837BD46C3
:1035400080BD000080B485B000AF78600123FB60CF
:103550000123BB6048E07B68002B17D1FB68002B80
:103560000AD0264BDB681A68244BDB6842F0010264
:103570001A600023FB6037E0204BDB681B6803F018
:103580000203002B30D00023BB602DE07B68012BB1
:1035900017D1FB68002B0AD0184BDB681A68174B51
:1035A000DB6842F480321A600023FB601CE0134B9E
:1035B000DB681B6803F40033002B15D00023BB60CD
:1035C00012E07B68022B0DD1FB68002B07D00B4B60
:1035D000DB681A68094BDB6842F480221A60012319
:1035E0007B6001E000237B60BB68002BB3D100BF90
:1035F00000BF1437BD465DF8047B7047700600209D
:1036000080B483B000AF0346FB711E4BDB689A6841
:103610001C4BDB6822F003029A60FB79032B18D065
:10362000032B1FDC012B02D0022B09D01AE0154B13
:10363000DB689A68134BDB6842F001029A6012E083
:10364000104BDB689A680F4BDB6842F002029A600D
:1036500009E00C4BDB689A680A4BDB6842F0030216
:103660009A6000E000BF074BDB689B689B08DBB2F9
:1036700003F00303DBB218460C37BD465DF8047B4C
:10368000704700BF7006002080B485B000AF78603E
:103690000123FB600123BB6048E07B68022B17D14C
:1036A000FB68002B0AD0264BDB685A6F244BDB6883
:1036B00042F001025A670023FB6037E0204BDB68D1
:1036C0005B6F03F00203002B30D00023BB602DE0C2
:1036D0007B68012B17D1FB68002B0AD0184BDB68E5
:1036E0001A6F174BDB6842F001021A670023FB6078
:1036F0001CE0134BDB681B6F03F00203002B15D09B
:103700000023BB6012E07B68042B0DD1FB68002B0B
:1037100007D00B4BDB681A6F094BDB6842F00402E1
:103720001A6701237B6001E002237B60BB68002BEA
:10373000B3D100BF00BF1437BD465DF8047B7047AE
:103740007006002080B483B000AF0346FB711D4BB0
:10375000DB681A6F1B4BDB6822F440721A67FB7937
:10376000032B17D0032B1EDC012B0AD0022B1AD1FE
:10377000144BDB681A6F134BDB6842F400721A6754
:103780001AE0104BDB681A6F0E4BDB6842F4807254
:103790001A6711E00B4BDB681A6F0A4BDB6842F4C7
:1037A00040721A6708E0074BDB681A6F054BDB684D
:1037B00042F480721A6700BF00BF0C37BD465DF847
:1037C000047B70477006002080B487B000AFF860BB
:1037D000B9607A603B60A44B7B61A44BDB6899685D
:1037E0007B69DA43A14BDB680A409A603B68012B96
:1037F0000BD93B681F2B08D89C4BDB6899683B684A
:103800001A049A4BDB680A439A607B68023B0E2BD2
:1038100050D801A252F823F055380008B5380008F6
:103820006D380008B5380008B5380008B53800080C
:1038300085380008B5380008B5380008B5380008E4
:10384000B5380008B5380008B5380008B5380008A4
:103850009D380008854BDB689A68844BDB6842F42E
:1038600000429A60824B0222DA7027E07F4BDB68CD
:103870009A687E4BDB6842F420429A607C4B0422BB
:10388000DA701BE0794BDB689A68784BDB6842F4AE
:1038900040429A60764B0822DA700FE0734BDB6887
:1038A0009A68724BDB6842F460429A60704B102257
:1038B000DA7003E06E4B0122DA7000BFBB68023B96
:1038C0000E2B51D801A252F823F000BF093900088D
:1038D0006939000821390008693900086939000888
:1038E0006939000839390008693900086939000860
:1038F0006939000869390008693900086939000820
:103900006939000851390008584BDB689A68574BF1
:10391000DB6842F480529A60554B02229A7027E08D
:10392000524BDB689A68514BDB6842F4A0529A60B4
:103930004F4B04229A701BE04C4BDB689A684B4B50
:10394000DB6842F4C0529A60494B08229A700FE03B
:10395000464BDB689A68454BDB6842F4E0529A605C
:10396000434B10229A7003E0414B01229A7000BF32
:10397000FB68B3F5007F00F0A280FB68B3F5007F21
:1039800000F2AA80FB68B3F5807F00F08B80FB68B3
:10399000B3F5807F00F2A080FB68802B76D0FB68B7
:1039A000802B00F29980FB68102B29D8FB68022B32
:1039B000C0F09280FB68023B0E2B00F28D8001A2CA
:1039C00052F823F0093A0008D93A0008213A0008D1
:1039D000D93A0008D93A0008D93A0008393A00081B
:1039E000D93A0008D93A0008D93A0008D93A00086B
:1039F000D93A0008D93A0008D93A0008513A0008E3
:103A0000FB68402B36D067E0184BDB689A68174B91
:103A1000DB6842F080029A60154B02221A805FE058
:103A2000124BDB689A68114BDB6842F090029A6097
:103A30000F4B04221A8053E00C4BDB689A680B4B47
:103A4000DB6842F0A0029A60094B08221A8047E026
:103A5000064BDB689A68054BDB6842F0B0029A605F
:103A6000034B10221A803BE0F0FC1F007006002080
:103A7000A80800201D4BDB689A681C4BDB6842F0ED
:103A8000C0029A601A4B40221A8029E0174BDB686B
:103A90009A68164BDB6842F0D0029A60144B802281
:103AA0001A801DE0114BDB689A68104BDB6842F00E
:103AB000E0029A600E4B4FF480721A8010E00B4BBC
:103AC000DB689A68094BDB6842F0F0029A60084BA9
:103AD0004FF400721A8003E0054B01221A8000BFE8
:103AE00000BF1C37BD465DF8047B704770060020A0
:103AF000A808002080B487B000AFF860B9607A6091
:103B00003B605E4B7B615E4BDB6859687B69DA43E7
:103B10005B4BDB680A405A607B6A012B0FD97B6ADA
:103B2000072B0CD8564BDB6859687B6A1A07544B35
:103B3000DB680A435A607B6ADAB2524B9A723B6A7C
:103B4000012B0FD93B6A0F2B0CD84D4BDB68596802
:103B50003B6A1A064A4BDB680A435A603B6ADAB290
:103B6000484B5A72FB68012B0BD1464B464A1A60F0
:103B7000434BDB685A68424BDB6842F480025A6070
:103B800002E0404B414A1A603B68023B062B3DD89D
:103B900001A252F823F000BFB53B00080D3C00081D
:103BA000BF3B00080D3C0008D93B00080D3C000855
:103BB000F33B00083B68DAB2324B1A7232E0304B0A
:103BC000DB685A682E4BDB6842F480325A603B68EF
:103BD000DAB22C4B1A7225E0294BDB685A68284B65
:103BE000DB6842F400325A603B68DAB2254B1A7245
:103BF00018E0234BDB685A68214BDB6842F4403203
:103C00005A603B68DAB21F4B1A720BE01C4BDB6840
:103C10005A681B4BDB6842F480325A60194B04220D
:103C20001A7200BF7B68312B10D97B68B3F5D87F3F
:103C30000CD8134BDB6859687B689A01104BDB6822
:103C40000A435A607B689AB20E4BDA80BB68012B3C
:103C50000ED9BB683F2B0BD8094BDB685968084B62
:103C6000DB68BA680A435A60BB68DAB2054B1A715E
:103C700000BF1C37BD465DF8047B7047FF7F437F64
:103C800070060020AC08002040787D010024F4007C
:103C900080B400AF0A4BDB681A68094BDB6842F05E
:103CA00080721A6000BF064BDB681B6803F000736C
:103CB000002BF8D000BF00BFBD465DF8047B704705
:103CC0007006002080B400AF0A4BDB681A68094B0D
:103CD000DB6842F080621A6000BF064BDB681B683D
:103CE00003F00063002BF8D000BF00BFBD465DF8B5
:103CF000047B70477006002080B400AF0A4BDB687D
:103D00001A68094BDB6842F080521A6000BF064B0C
:103D1000DB681B6803F00053002BF8D000BF00BF26
:103D2000BD465DF8047B70477006002080B483B008
:103D300000AF244BDB689B689B0803F00303032B55
:103D400038D801A252F823F0593D0008653D00081B
:103D5000713D0008933D00081B4B1C4A1A601B4B29
:103D60007B6028E0184B1A4A1A60194B7B6022E0EE
:103D7000154B1B68144A1279B3FBF2F3124AD2882E
:103D80001146114A127A91FBF2F202FB03F37B60B7
:103D900011E00D4B1B680C4A1279B3FBF2F30A4A8F
:103DA000D2881146084A927A91FBF2F202FB03F3A1
:103DB0007B6000E000BF7B6818460C37BD465DF8AD
:103DC000047B704770060020AC0800200024F4003B
:103DD00040787D010EB480B484B000AF78607B6918
:103DE000002B19DD7B69202B16DC07F11803BB6063
:103DF0000023FB730CE0BB681A1DBA601B6801222C
:103E000002FA03F31A467B689A61FB7B0133FB736A
:103E1000FB7B7A699A42EEDC00BF1037BD465DF845
:103E2000047B03B0704780B483B000AF7860396022
:103E300001223B6802FA03F31A467B689A6100BFCD
:103E40000C37BD465DF8047B704780B483B000AF8B
:103E5000786039603A687B689A6100BF0C37BD466C
:103E60005DF8047B70470EB480B484B000AF786016
:103E70007B69002B1ADD7B69202B17DC07F1180307
:103E8000BB600023FB730DE0BB681A1DBA601B68A2
:103E9000012202FA03F31B041A467B689A61FB7B3A
:103EA0000133FB73FB7B7A699A42EDDC00BF10376C
:103EB000BD465DF8047B03B0704780B483B000AFAB
:103EC0007860396001223B6802FA03F31B041A464A
:103ED0007B689A6100BF0C37BD465DF8047B704774
:103EE00080B483B000AF786039603B681B041A4629
:103EF0007B689A6100BF0C37BD465DF8047B704754
:103F000080B586B000AFF860B9607A603B60B86891
:103F1000FCF718FB02460B4643EC112B9FED1A0BE6
:103F200003F0C6FA51EC100B4FF00002184BFCF7EF
:103F3000CBF902460B4610461946FCF755FE0346E0
:103F40007B613B68BA6802FB03F33B617A687B697B
:103F500013407B60FB681A6879693B6901FA03F3D7
:103F6000DB431A40FB681A60FB681A6879683B6992
:103F700001FA03F31A43FB681A6000BF1837BD4605
:103F800080BD00BFAFF300800000000000000040D3
:103F90000000F03F0000000080B588B000AFF8607E
:103FA000B9607A603B602023FB61B868FCF7CAFA0D
:103FB00002460B4643EC112B9FED290B03F078FAD8
:103FC00051EC100B4FF00002274BFCF77DF9024635
:103FD0000B4610461946FCF707FE0346BB613B68DB
:103FE000BA6803FB02F2FB69B2FBF3F37B617A6808
:103FF000BB6913407B607B699B00FA6813441968B6
:104000003B68BA6803FB02F27B69F86900FB03F3C3
:10401000D31ABA6902FA03F3DA437B699B00F868A2
:1040200003440A401A607B699B00FA6813441968CC
:104030003B68BA6803FB02F27B69F86900FB03F393
:10404000D31A7A689A407B699B00F86803440A4354
:104050001A6000BF2037BD4680BD00BFAFF30080AF
:1040600000000000000000400000F03F00000000E1
:1040700080B584B000AF786039600223FB60F868D7
:10408000FCF760FA02460B4643EC112B9FED1C0B2C
:1040900003F00EFA51EC100B4FF000021A4BFCF734
:1040A00013F902460B4610461946FCF79DFD0346E0
:1040B000BB607A68BB6813407B60144B9B6B1968CC
:1040C0003B68FA6802FB03F3BA6802FA03F3DA43C7
:1040D0000E4B9B6B0A401A600C4B9B6B19683B683C
:1040E000FA6802FB03F37A689A40084B9B6B0A4319
:1040F0001A6000BF1037BD4680BD00BFAFF300801F
:1041000000000000000000400000F03F70060020AA
:1041100080B584B000AF786039600223FB60F86836
:10412000FCF710FA02460B4643EC112B9FED1C0BDB
:1041300003F0BEF951EC100B4FF000021A4BFCF7E4
:10414000C3F802460B4610461946FCF74DFD0346E0
:10415000BB607A68BB6813407B60144B9B6B9968AB
:104160003B68FA6802FB03F3BA6802FA03F3DA4326
:104170000E4B9B6B0A409A600C4B9B6B99683B689B
:10418000FA6802FB03F37A689A40084B9B6B0A4378
:104190009A6000BF1037BD4680BD00BFAFF30080FE
:1041A00000000000000000400000F03F700600200A
:1041B00080B584B000AF786039600223FB60F86896
:1041C000FCF7C0F902460B4643EC112B9FED1C0B8C
:1041D00003F06EF951EC100B4FF000021A4BFCF794
:1041E00073F802460B4610461946FCF7FDFC0346E1
:1041F000BB607A68BB6813407B60144B9B6BD968CB
:104200003B68FA6802FB03F3BA6802FA03F3DA4385
:104210000E4B9B6B0A40DA600C4B9B6BD9683B687A
:10422000FA6802FB03F37A689A40084B9B6B0A43D7
:10423000DA6000BF1037BD4680BD00BFAFF300801D
:1042400000000000000000400000F03F7006002069
:1042500080B483B000AF7860054B9B6B7A68120422
:104260009A6100BF0C37BD465DF8047B704700BF04
:104270007006002080B483B000AF7860044B9B6B65
:104280007A689A6100BF0C37BD465DF8047B7047C1
:10429000700600200000000080B586B000AF786096
:1042A000396004237B6120233B617869FCF74AF97C
:1042B00002460B4643EC112B9FED2B0B03F0F8F855
:1042C00051EC100B4FF00002294BFBF7FDFF0246AB
:1042D0000B4610461946FCF787FC0346FB603B681B
:1042E0007A6903FB02F23B69B2FBF3F3BB607A68C5
:1042F000FB6813407B60BB68012B31D81D4B9B6B67
:10430000BA68083253F822103B687A6903FB02F25C
:10431000BB68386900FB03F3D31AFA6802FA03F3A7
:10432000DA43144B9B6B1140BA68083243F82210F1
:10433000104B9B6BBA68083253F822103B687A69BD
:1043400003FB02F2BB68386900FB03F3D31A7A68F7
:104350009A40084B9B6B1143BA68083243F822100D
:1043600000BF1837BD4680BD0000000000000040BF
:104370000000F03F7006002080B584B000AF786088
:1043800039600223FB60F868FCF7DCF802460B4654
:1043900043EC112B9FED1C0B03F08AF851EC100B32
:1043A0004FF000021A4BFBF78FFF02460B461046F8
:1043B0001946FCF719FC0346BB607A68BB681340DA
:1043C0007B60144B5B6D19683B68FA6802FB03F372
:1043D000BA6802FA03F3DA430E4B5B6D0A401A60C7
:1043E0000C4B5B6D19683B68FA6802FB03F37A6853
:1043F0009A40084B5B6D0A431A6000BF1037BD46F8
:1044000080BD00BFAFF3008000000000000000404E
:104410000000F03F7006002080B584B000AF7860E7
:1044200039600223FB60F868FCF78CF802460B4603
:1044300043EC112B9FED1C0B03F03AF851EC100BE1
:104440004FF000021A4BFBF73FFF02460B461046A7
:104450001946FCF7C9FB0346BB607A68BB6813408A
:104460007B60144B5B6D99683B68FA6802FB03F351
:10447000BA6802FA03F3DA430E4B5B6D0A409A60A6
:104480000C4B5B6D99683B68FA6802FB03F37A6832
:104490009A40084B5B6D0A439A6000BF1037BD46D7
:1044A00080BD00BFAFF300800000000000000040AE
:1044B0000000F03F7006002080B584B000AF786047
:1044C00039600223FB60F868FCF73CF802460B46B3
:1044D00043EC112B9FED1C0B02F0EAFF51EC100B8B
:1044E0004FF000021A4BFBF7EFFE02460B46104658
:1044F0001946FCF779FB0346BB607A68BB6813403A
:104500007B60144B5B6DD9683B68FA6802FB03F370
:10451000BA6802FA03F3DA430E4B5B6D0A40DA60C5
:104520000C4B5B6DD9683B68FA6802FB03F37A6851
:104530009A40084B5B6D0A43DA6000BF1037BD46F6
:1045400080BD00BFAFF3008000000000000000400D
:104550000000F03F7006002080B483B000AF7860A8
:10456000054B5B6D7A6812049A6100BF0C37BD463B
:104570005DF8047B704700BF7006002080B483B0F4
:1045800000AF7860044B5B6D7A689A6100BF0C37AE
:10459000BD465DF8047B70477006002000000000F7
:1045A00080B586B000AF7860396004237B6120233A
:1045B0003B617869FBF7C6FF02460B4643EC112BC3
:1045C0009FED2B0B02F074FF51EC100B4FF000022B
:1045D000294BFBF779FE02460B4610461946FCF7BD
:1045E00003FB0346FB603B687A6903FB02F23B690D
:1045F000B2FBF3F3BB607A68FB6813407B60BB6877
:10460000012B31D81D4B5B6DBA68083253F822106C
:104610003B687A6903FB02F2BB68386900FB03F36D
:10462000D31AFA6802FA03F3DA43144B5B6D1140B4
:10463000BA68083243F82210104B5B6DBA68083232
:1046400053F822103B687A6903FB02F2BB683869B1
:1046500000FB03F3D31A7A689A40084B5B6D114351
:10466000BA68083243F8221000BF1837BD4680BD33
:1046700000000000000000400000F03F7006002035
:1046800080B584B000AF786039600223FB60F868C1
:10469000FBF758FF02460B4643EC112B9FED1C0B1A
:1046A00002F006FF51EC100B4FF000021A4BFBF723
:1046B0000BFE02460B4610461946FCF795FA0346D8
:1046C000BB607A68BB6813407B60144B1B6F196832
:1046D0003B68FA6802FB03F3BA6802FA03F3DA43B1
:1046E0000E4B1B6F0A401A600C4B1B6F19683B681E
:1046F000FA6802FB03F37A689A40084B1B6F0A437F
:104700001A6000BF1037BD4680BD00BFAFF3008008
:1047100000000000000000400000F03F7006002094
:1047200080B584B000AF786039600223FB60F86820
:10473000FBF708FF02460B4643EC112B9FED1C0BC9
:1047400002F0B6FE51EC100B4FF000021A4BFBF7D3
:10475000BBFD02460B4610461946FCF745FA0346D8
:10476000BB607A68BB6813407B60144B1B6F996811
:104770003B68FA6802FB03F3BA6802FA03F3DA4310
:104780000E4B1B6F0A409A600C4B1B6F99683B687D
:10479000FA6802FB03F37A689A40084B1B6F0A43DE
:1047A0009A6000BF1037BD4680BD00BFAFF30080E8
:1047B00000000000000000400000F03F70060020F4
:1047C00080B584B000AF786039600223FB60F86880
:1047D000FBF7B8FE02460B4643EC112B9FED1C0B7A
:1047E00002F066FE51EC100B4FF000021A4BFBF783
:1047F0006BFD02460B4610461946FCF7F5F90346D9
:10480000BB607A68BB6813407B60144B1B6FD96830
:104810003B68FA6802FB03F3BA6802FA03F3DA436F
:104820000E4B1B6F0A40DA600C4B1B6FD9683B685C
:10483000FA6802FB03F37A689A40084B1B6F0A433D
:10484000DA6000BF1037BD4680BD00BFAFF3008007
:1048500000000000000000400000F03F7006002053
:1048600080B483B000AF7860054B1B6F7A68120488
:104870009A6100BF0C37BD465DF8047B704700BFEE
:104880007006002080B483B000AF7860044B1B6FCB
:104890007A689A6100BF0C37BD465DF8047B7047AB
:1048A000700600200000000080B586B000AF786080
:1048B000396004237B6120233B617869FBF742FE6A
:1048C00002460B4643EC112B9FED2B0B02F0F0FD43
:1048D00051EC100B4FF00002294BFBF7F5FC0246A0
:1048E0000B4610461946FCF77FF90346FB603B6810
:1048F0007A6903FB02F23B69B2FBF3F3BB607A68AF
:10490000FB6813407B60BB68012B31D81D4B1B6FCC
:10491000BA68083253F822103B687A6903FB02F246
:10492000BB68386900FB03F3D31AFA6802FA03F391
:10493000DA43144B1B6F1140BA68083243F8221057
:10494000104B1B6FBA68083253F822103B687A6923
:1049500003FB02F2BB68386900FB03F3D31A7A68E1
:104960009A40084B1B6F1143BA68083243F8221073
:1049700000BF1837BD4680BD0000000000000040A9
:104980000000F03F7006002080B584B000AF786072
:1049900039600223FB60F868FBF7D4FD02460B4642
:1049A00043EC112B9FED1E0B02F082FD51EC100B1E
:1049B0004FF000021C4BFBF787FC02460B461046EB
:1049C0001946FCF711F90346BB607A68BB681340CF
:1049D0007B60164BD3F88C3019683B68FA6802FB91
:1049E00003F3BA6802FA03F3DA43104BD3F88C30BE
:1049F0000A401A600D4BD3F88C3019683B68FA688E
:104A000002FB03F37A689A40084BD3F88C300A43D0
:104A10001A6000BF1037BD4680BD00BFAFF30080F5
:104A200000000000000000400000F03F7006002081
:104A300080B584B000AF786039600223FB60F8680D
:104A4000FBF780FD02460B4643EC112B9FED1E0B3E
:104A500002F02EFD51EC100B4FF000021C4BFBF747
:104A600033FC02460B4610461946FCF7BDF80346D8
:104A7000BB607A68BB6813407B60164BD3F88C3000
:104A800099683B68FA6802FB03F3BA6802FA03F319
:104A9000DA43104BD3F88C300A409A600D4BD3F8B0
:104AA0008C3099683B68FA6802FB03F37A689A4095
:104AB000084BD3F88C300A439A6000BF1037BD46CC
:104AC00080BD00BFAFF30080000000000000004088
:104AD0000000F03F7006002080B584B000AF786021
:104AE00039600223FB60F868FBF72CFD02460B4699
:104AF00043EC112B9FED1E0B02F0DAFC51EC100B76
:104B00004FF000021C4BFBF7DFFB02460B46104642
:104B10001946FCF769F80346BB607A68BB68134026
:104B20007B60164BD3F88C30D9683B68FA6802FB7F
:104B300003F3BA6802FA03F3DA43104BD3F88C306C
:104B40000A40DA600D4BD3F88C30D9683B68FA68BC
:104B500002FB03F37A689A40084BD3F88C300A437F
:104B6000DA6000BF1037BD4680BD00BFAFF30080E4
:104B700000000000000000400000F03F7006002030
:104B800080B483B000AF7860054BD3F88C307A687E
:104B900012049A6100BF0C37BD465DF8047B704774
:104BA0007006002080B483B000AF7860054BD3F866
:104BB0008C307A689A6100BF0C37BD465DF8047B83
:104BC000704700BF7006002080B586B000AF7860E7
:104BD000396004237B6120233B617869FBF7B2FCD9
:104BE00002460B4643EC112B9FED2D0B02F060FCAF
:104BF00051EC100B4FF000022B4BFBF765FB02460C
:104C00000B4610461946FBF7EFFF0346FB603B6877
:104C10007A6903FB02F23B69B2FBF3F3BB607A688B
:104C2000FB6813407B60BB68012B35D81F4BD3F862
:104C30008C30BA68083253F822103B687A6903FB5B
:104C400002F2BB68386900FB03F3D31AFA6802FA70
:104C500003F3DA43154BD3F88C301140BA680832AD
:104C600043F82210114BD3F88C30BA68083253F84D
:104C700022103B687A6903FB02F2BB68386900FBCB
:104C800003F3D31A7A689A40084BD3F88C30114357
:104C9000BA68083243F8221000BF1837BD4680BDFD
:104CA00000000000000000400000F03F70060020FF
:104CB00080B584B000AF786039600223FB60F8688B
:104CC000FBF740FC02460B4643EC112B9FED1E0BFD
:104CD00002F0EEFB51EC100B4FF000021C4BFBF707
:104CE000F3FA02460B4610461946FBF77DFF0346D2
:104CF000BB607A68BB6813407B60164BD3F8A83062
:104D000019683B68FA6802FB03F3BA6802FA03F316
:104D1000DA43104BD3F8A8300A401A600D4BD3F891
:104D2000A83019683B68FA6802FB03F37A689A4076
:104D3000084BD3F8A8300A431A6000BF1037BD46AD
:104D400080BD00BFAFF30080000000000000004005
:104D50000000F03F7006002080B584B000AF78609E
:104D600039600223FB60F868FBF7ECFB02460B4658
:104D700043EC112B9FED1E0B02F09AFB51EC100B34
:104D80004FF000021C4BFBF79FFA02460B46104601
:104D90001946FBF729FF0346BB607A68BB681340DE
:104DA0007B60164BD3F8A83099683B68FA6802FB21
:104DB00003F3BA6802FA03F3DA43104BD3F8A830CE
:104DC0000A409A600D4BD3F8A83099683B68FA689E
:104DD00002FB03F37A689A40084BD3F8A8300A43E1
:104DE0009A6000BF1037BD4680BD00BFAFF30080A2
:104DF00000000000000000400000F03F70060020AE
:104E000080B584B000AF786039600223FB60F86839
:104E1000FBF798FB02460B4643EC112B9FED1E0B54
:104E200002F046FB51EC100B4FF000021C4BFBF75D
:104E30004BFA02460B4610461946FBF7D5FE0346D1
:104E4000BB607A68BB6813407B60164BD3F8A83010
:104E5000D9683B68FA6802FB03F3BA6802FA03F305
:104E6000DA43104BD3F8A8300A40DA600D4BD3F880
:104E7000A830D9683B68FA6802FB03F37A689A4065
:104E8000084BD3F8A8300A43DA6000BF1037BD469C
:104E900080BD00BFAFF300800000000000000040B4
:104EA0000000F03F7006002080B483B000AF78604F
:104EB000054BD3F8A8307A6812049A6100BF0C370A
:104EC000BD465DF8047B70477006002080B483B057
:104ED00000AF7860054BD3F8A8307A689A6100BFBC
:104EE0000C37BD465DF8047B704700BF700600209C
:104EF00080B586B000AF7860396004237B612023E1
:104F00003B617869FBF71EFB02460B4643EC112B15
:104F10009FED2D0B02F0CCFA51EC100B4FF000027C
:104F20002B4BFBF7D1F902460B4610461946FBF70F
:104F30005BFE0346FB603B687A6903FB02F23B6958
:104F4000B2FBF3F3BB607A68FB6813407B60BB681D
:104F5000012B35D81F4BD3F8A830BA68083253F864
:104F600022103B687A6903FB02F2BB68386900FBD8
:104F700003F3D31AFA6802FA03F3DA43154BD3F8B2
:104F8000A8301140BA68083243F82210114BD3F808
:104F9000A830BA68083253F822103B687A6903FBDC
:104FA00002F2BB68386900FB03F3D31A7A689A40AF
:104FB000084BD3F8A8301143BA68083243F82210DE
:104FC00000BF1837BD4680BD000000000000004053
:104FD0000000F03F7006002080B584B000AF78601C
:104FE00039600223FB60F868FBF7ACFA02460B4617
:104FF00043EC112B9FED1E0B02F05AFA51EC100BF3
:105000004FF000021C4BFBF75FF902460B461046BF
:105010001946FBF7E9FD0346BB607A68BB6813409D
:105020007B60164BD3F8C43019683B68FA6802FB02
:1050300003F3BA6802FA03F3DA43104BD3F8C4302F
:105040000A401A600D4BD3F8C43019683B68FA68FF
:1050500002FB03F37A689A40084BD3F8C4300A4342
:105060001A6000BF1037BD4680BD00BFAFF300809F
:1050700000000000000000400000F03F700600202B
:1050800080B584B000AF786039600223FB60F868B7
:10509000FBF758FA02460B4643EC112B9FED1E0B13
:1050A00002F006FA51EC100B4FF000021C4BFBF71C
:1050B0000BF902460B4610461946FBF795FD0346D1
:1050C000BB607A68BB6813407B60164BD3F8C43072
:1050D00099683B68FA6802FB03F3BA6802FA03F3C3
:1050E000DA43104BD3F8C4300A409A600D4BD3F822
:1050F000C43099683B68FA6802FB03F37A689A4007
:10510000084BD3F8C4300A439A6000BF1037BD463D
:1051100080BD00BFAFF30080000000000000004031
:105120000000F03F7006002080B584B000AF7860CA
:1051300039600223FB60F868FBF704FA02460B466D
:1051400043EC112B9FED1E0B02F0B2F951EC100B4A
:105150004FF000021C4BFBF7B7F802460B46104617
:105160001946FBF741FD0346BB607A68BB681340F4
:105170007B60164BD3F8C430D9683B68FA6802FBF1
:1051800003F3BA6802FA03F3DA43104BD3F8C430DE
:105190000A40DA600D4BD3F8C430D9683B68FA682E
:1051A00002FB03F37A689A40084BD3F8C4300A43F1
:1051B000DA6000BF1037BD4680BD00BFAFF300808E
:1051C00000000000000000400000F03F70060020DA
:1051D00080B483B000AF7860054BD3F8C4307A68F0
:1051E00012049A6100BF0C37BD465DF8047B70471E
:1051F0007006002080B483B000AF7860054BD3F810
:10520000C4307A689A6100BF0C37BD465DF8047BF4
:10521000704700BF7006002080B586B000AF786090
:10522000396004237B6120233B617869FBF78AF9AD
:1052300002460B4643EC112B9FED2D0B02F038F983
:1052400051EC100B4FF000022B4BFBF73DF80246E0
:105250000B4610461946FBF7C7FC0346FB603B684C
:105260007A6903FB02F23B69B2FBF3F3BB607A6835
:10527000FB6813407B60BB68012B35D81F4BD3F80C
:10528000C430BA68083253F822103B687A6903FBCD
:1052900002F2BB68386900FB03F3D31AFA6802FA1A
:1052A00003F3DA43154BD3F8C4301140BA6808321F
:1052B00043F82210114BD3F8C430BA68083253F8BF
:1052C00022103B687A6903FB02F2BB68386900FB75
:1052D00003F3D31A7A689A40084BD3F8C4301143C9
:1052E000BA68083243F8221000BF1837BD4680BDA7
:1052F00000000000000000400000F03F70060020A9
:1053000080B584B000AF0346FB71FF23FB73324BC3
:10531000D3F8E0301B68314A13602F4BD3F8E030EC
:105320005B682F4A1360FB79184601F0A9F9034620
:10533000FB73294BDB681A6F274BDB6842F4004292
:105340001A67254BD3F8E0305A6A234BD3F8E03084
:1053500042F0CA025A62204BD3F8E0305A6A1E4B20
:10536000D3F8E03042F053025A621B4BD3F8E030DE
:10537000DA68194BD3F8E03042F08002DA6000BFFF
:10538000154BD3F8E030DB6803F04003002BF7D077
:105390000623FB73104BD3F8E0309A680E4BD3F81A
:1053A000E03022F020029A600B4BD3F8E030DA684C
:1053B000094BD3F8E03022F08002DA60064B9B689C
:1053C0001A68054B9B6822F480721A60FB7B1846B2
:1053D0001037BD4680BD00BF700600207808002051
:1053E0007C08002080B584B000AF0346FB714FF409
:1053F0007C13FB60FB791C4AA2FB0323DB08DBB2B6
:10540000184600F07DFE0346FB72FA79164BA3FBAB
:105410000213D9080B469B000B445B00D31ADBB286
:10542000184600F06DFE0346BB72104BD3F8E03017
:105430001B680F4A1360FB68DA430D4B1B6813406F
:105440000B4A1360BB7A1A04FB7A1B0513431A46F6
:10545000074B1B681343064A136001F06DF800BF49
:105460001037BD4680BD00BFCDCCCCCC700600202F
:105470007808002080B584B000AF0346FB714FF47C
:10548000FE43FB60FB791C4AA2FB0323DB08DBB273
:10549000184600F035FE0346FB72FA79164BA3FB63
:1054A0000213D9080B469B000B445B00D31ADBB2F6
:1054B000184600F025FE0346BB72104BD3F8E030CF
:1054C0001B680F4A1360FB68DA430D4B1B681340DF
:1054D0000B4A1360BB7A1A02FB7A1B0313431A466A
:1054E000074B1B681343064A136001F025F800BF01
:1054F0001037BD4680BD00BFCDCCCCCC700600209F
:105500007808002080B584B000AF0346FB717F238C
:10551000FB60FB791B4AA2FB0323DB08DBB21846C6
:1055200000F0EEFD0346FB72FA79164BA3FB021363
:10553000D9080B469B000B445B00D31ADBB218461C
:1055400000F0DEFD0346BB720F4BD3F8E0301B6862
:105550000E4A1360FB68DA430C4B1B6813400B4A7E
:105560001360BA7AFB7A1B0113431A46074B1B6878
:105570001343064A136000F0DFFF00BF1037BD463B
:1055800080BD00BFCDCCCCCC7006002078080020B8
:1055900080B584B000AF0346FB714FF47F03FB601E
:1055A000FB79194AA2FB0323DB08DBB2184600F0A3
:1055B000A7FD0346FB72FA79134BA3FB0213D9082C
:1055C0000B469B000B445B00D31ADBB2184600F07D
:1055D00097FD0346BB72FB68DA430C4B1B68134014
:1055E0000A4A1360BB7A1A04FB7A1B0513431A4656
:1055F000064B1B681343054A136000F0EFFF00BF22
:105600001037BD4680BD00BFCDCCCCCC7C0800207F
:1056100080B584B000AF0346FB714FF46023FB609C
:10562000FA79124BA3FB0213D9080B469B000B44DB
:105630005B00D31ADBB2184600F062FD0346FB7232
:10564000FB68DA430A4B1B681340094A1360FB7A74
:105650005B031A46064B1B681343054A136000F0B0
:10566000BDFF00BF1037BD4680BD00BFCDCCCCCC48
:105670007C08002080B584B000AF0346FB714FF476
:10568000F853FB60FB79194AA2FB0323DB08DBB26A
:10569000184600F035FD0346FB72FA79134BA3FB65
:1056A0000213D9080B469B000B445B00D31ADBB2F4
:1056B000184600F025FD0346BB72FB68DA430C4B2D
:1056C0001B6813400A4A1360BB7A1A02FB7A1B0359
:1056D00013431A46064B1B681343054A136000F038
:1056E0007DFF00BF1037BD4680BD00BFCDCCCCCC08
:1056F0007C08002080B584B000AF0346FB713F23D7
:10570000FB60FB79184AA2FB0323DB08DBB21846D7
:1057100000F0F6FC0346FB72FA79134BA3FB02136D
:10572000D9080B469B000B445B00D31ADBB218462A
:1057300000F0E6FC0346BB72FB68DA430B4B1B68C8
:1057400013400A4A1360BA7AFB7A1B0113431A46C4
:10575000064B1B681343054A136000F03FFF00BF70
:105760001037BD4680BD00BFCDCCCCCC7C0800201E
:1057700080B483B000AF78603960164B9B681A68BC
:10578000144B9B6842F480721A60124BD3F8E030DD
:105790005A6A104BD3F8E03042F0CA025A620D4BFD
:1057A000D3F8E0305A6A0B4BD3F8E03042F05302A2
:1057B0005A627B683A681A60064B9B681A68054B08
:1057C0009B6822F480721A6000BF0C37BD465DF8FA
:1057D000047B70477006002090B585B000AF7860FC
:1057E000464BD3F8E0305B68FB60FB681B0DDBB217
:1057F00003F00F03DAB27B681A707B681B781846D7
:1058000000F064FC03461A467B681A70FB681B0CA8
:10581000DAB27B68013302F00F02D2B21A707B68F1
:1058200001331A787B685C1C104600F04FFC03467D
:105830002370FB685B0BDAB27B68023302F007026D
:10584000D2B21A707B6802331A787B689C1C1046AF
:1058500000F03CFC03462370FB681B0BDAB27B684C
:10586000033302F00102D2B21A707B6803331A7854
:105870007B68DC1C104600F029FC03462370FB68A3
:105880001B0ADAB27B68043302F00F02D2B21A703C
:105890007B6804331A787B681C1D104600F016FCE8
:1058A00003462370FB681B09DAB27B68053302F0FC
:1058B0000302D2B21A707B6805331A787B685C1DCC
:1058C000104600F003FC03462370FB68DAB27B68E5
:1058D000063302F00F02D2B21A707B6806331A78D0
:1058E0007B689C1D104600F0F1FB03462370044AC0
:1058F000FB68136000BF1437BD4690BD70060020E2
:105900007C08002090B585B000AF7860464BD3F896
:10591000E0301B68FB60444BD3F8E030DB6803F0F9
:105920002003002B7BD0FB681B0DDBB203F00303CD
:10593000DAB27B681A707B681B78184600F0C6FBE9
:1059400003461A467B681A70FB681B0CDAB27B6848
:10595000013302F00F02D2B21A707B6801331A7859
:105960007B685C1C104600F0B1FB03462370FB68AB
:105970001B0BDAB27B68023302F00702D2B21A7054
:105980007B6802331A787B689C1C104600F09EFBF3
:1059900003462370FB681B0ADAB27B68033302F00C
:1059A0000F02D2B21A707B6803331A787B68DC1C52
:1059B000104600F08BFB03462370FB681B09DAB22C
:1059C0007B68043302F00702D2B21A707B6804339A
:1059D0001A787B681C1D104600F078FB0346237084
:1059E000FB68DAB27B68053302F00F02D2B21A709C
:1059F0007B6805331A787B685C1D104600F066FBF7
:105A000003462370094AFB681360074BD3F8E03064
:105A1000DA68054BD3F8E03022F02002DA6000BFEC
:105A20001437BD4690BD00BF7006002078080020E6
:105A300080B400AF1F4BDB685A6C1E4BDB6842F42E
:105A400080725A641B4BD3F874319A68194BD3F89F
:105A5000743142F480629A60164BD3F878315A68F8
:105A6000144BD3F8783142F440325A60114BD3F8DA
:105A70007431DA680F4BD3F8743142F0E062DA60C7
:105A80000C4BD3F874315A680A4BD3F8743142F492
:105A900000625A60074BD3F874315A6B054BD3F848
:105AA000743142F012025A6300BFBD465DF8047BB8
:105AB000704700BF7006002080B400AF074BD3F8DA
:105AC00078315A68054BD3F8783142F480025A6035
:105AD00000BFBD465DF8047B704700BF7006002024
