:020000040800F2
:1000000000000220D112000821130008211300086B
:10001000211300082113000821130008000000002C
:100020000000000000000000000000002113000894
:100030002113000800000000211300088166000859
:1000400021130008211300082113000821130008C0
:1000500021130008211300082113000821130008B0
:1000600021130008211300082113000821130008A0
:100070002113000821130008211300082113000890
:100080002113000821130008211300082113000880
:100090002113000821130008211300082113000870
:1000A0004D11000821130008211300082113000836
:1000B0002113000821130008211300082113000850
:1000C0002113000821130008211300082113000840
:1000D0002113000821130008211300082113000830
:1000E0002113000821130008211300082113000820
:1000F0002113000821130008211300082113000810
:1001000021130008211300082113000821130008FF
:1001100021130008211300082113000821130008EF
:1001200021130008211300082113000821130008DF
:100130002113000800000000000000002113000847
:1001400021130008211300082113000821130008BF
:1001500021130008211300082113000821130008AF
:10016000211300082113000821130008211300089F
:1001700021130008211300082113000800000000CB
:100180000000000021130008000000000000000033
:1001900021130008000000000000000021130008E7
:1001A0000000000000000000000000002113000813
:1001B000211300082113000821130008211300084F
:0401C00021130008FF
:1001D00010B5054C237833B9044B13B10448AFF381
:1001E00000800123237010BD680000200000000083
:1001F000BC7F000808B5034B1BB103490348AFF3AC
:10020000008008BD000000006C000020BC7F0008DA
:10021000034613F8012B002AFBD1181A0138704746
:1002200001F0FF01102A2BDB10F0070F08D010F8A7
:10023000013B013A8B422DD010F0070F42B3F6D1AB
:10024000F0B441EA012141EA014122F007047FF0C4
:1002500000070023F0E80256083C85EA010586EA1B
:10026000010685FA47F5A3FA87F586FA47F6A5FA57
:1002700087F68EB9EED1F0BC01F0FF0102F0070263
:1002800032B110F8013B013A83EA010313B1F8D10E
:100290000020704701387047002D06BF35460338EF
:1002A000073815F0010F07D1013015F4807F02BF28
:1002B000013015F4C03F0130F0BC0138704700BF79
:1002C00081F0004102E000BF83F0004330B54FEA07
:1002D00041044FEA430594EA050F08BF90EA020F74
:1002E0001FBF54EA000C55EA020C7FEA645C7FEA07
:1002F000655C00F0E2804FEA5454D4EB5555B8BF2A
:100300006D420CDD2C4480EA020281EA030382EA9A
:10031000000083EA010180EA020281EA0303362D2C
:1003200088BF30BD11F0004F4FEA01314FF4801CFF
:100330004CEA113102D0404261EB410113F0004F11
:100340004FEA03334CEA133302D0524263EB4303C8
:1003500094EA050F00F0A780A4F10104D5F1200E66
:100360000DDB02FA0EFC22FA05F2801841F10001C1
:1003700003FA0EF2801843FA05F359410EE0A5F195
:1003800020050EF1200E012A03FA0EFC28BF4CF0C6
:10039000020C43FA05F3C01851EBE37101F000457C
:1003A00007D54FF0000EDCF1000C7EEB00006EEB89
:1003B0000101B1F5801F1BD3B1F5001F0CD3490813
:1003C0005FEA30004FEA3C0C04F101044FEA44526A
:1003D00012F5800F80F09A80BCF1004F08BF5FEAF1
:1003E000500C50F1000041EB045141EA050130BDD1
:1003F0005FEA4C0C404141EB0101013C28BFB1F5E3
:10040000801FE9D291F0000F04BF01460020B1FA2D
:1004100081F308BF2033A3F10B03B3F120020CDA00
:100420000C3208DD02F1140CC2F10C0201FA0CF0DE
:1004300021FA02F10CE002F11402D8BFC2F1200C43
:1004400001FA02F120FA0CFCDCBF41EA0C019040F9
:10045000E41AA2BF01EB0451294330BD6FEA040442
:100460001F3C1CDA0C340EDC04F11404C4F120022D
:1004700020FA04F001FA02F340EA030021FA04F33F
:1004800045EA030130BDC4F10C04C4F1200220FA96
:1004900002F001FA04F340EA0300294630BD21FAD4
:1004A00004F0294630BD94F0000F83F4801306BF9A
:1004B00081F480110134013D4EE77FEA645C18BF8E
:1004C0007FEA655C29D094EA050F08BF90EA020F25
:1004D00005D054EA000C04BF1946104630BD91EA1D
:1004E000030F1EBF0021002030BD5FEA545C05D120
:1004F0004000494128BF41F0004130BD14F580045F
:100500003CBF01F5801130BD01F0004545F0FE41D2
:1005100041F470014FF0000030BD7FEA645C1ABF07
:10052000194610467FEA655C1CBF0B46024650EA3E
:10053000013406BF52EA033591EA030F41F400216A
:1005400030BD00BF90F0000F04BF0021704730B5F0
:100550004FF4806404F132044FF000054FF00001C5
:1005600050E700BF90F0000F04BF0021704730B586
:100570004FF4806404F1320410F0004548BF40425B
:100580004FF000013EE700BF42004FEAE2014FEAB0
:1005900031014FEA02701FBF12F07F4393F07F4F8B
:1005A00081F06051704732F07F4208BF704793F08E
:1005B0007F4F04BF41F40021704730B54FF46074A1
:1005C00001F0004521F000411CE700BF50EA0102A4
:1005D00008BF704730B54FF000050AE050EA01024D
:1005E00008BF704730B511F0004502D5404261EBBD
:1005F00041014FF4806404F132045FEA915C3FF4FE
:10060000D8AE4FF003025FEADC0C18BF03325FEA9A
:10061000DC0C18BF033202EBDC02C2F1200300FA4B
:1006200003FC20FA02F001FA03FE40EA0E0021FA70
:1006300002F11444BDE600BF70B54FF0FF0C4CF45E
:10064000E06C1CEA11541DBF1CEA135594EA0C0F10
:1006500095EA0C0F00F0DEF82C4481EA030621EA4B
:100660004C5123EA4C5350EA013518BF52EA033586
:1006700041F4801143F4801338D0A0FB02CE4FF038
:100680000005E1FB02E506F00042E0FB03E54FF068
:100690000006E1FB03569CF0000F18BF4EF0010E60
:1006A000A4F1FF04B6F5007F64F5407404D25FEA5C
:1006B0004E0E6D4146EB060642EAC62141EA55510F
:1006C0004FEAC52040EA5E504FEACE2EB4F1FD0C51
:1006D00088BFBCF5E06F1ED8BEF1004F08BF5FEACF
:1006E000500E50F1000041EB045170BD06F0004681
:1006F00046EA010140EA020081EA0301B4EB5C042E
:10070000C2BFD4EB0C0541EA045170BD41F4801125
:100710004FF0000E013C00F3AB8014F1360FDEBF4A
:10072000002001F0004170BDC4F10004203C35DA26
:100730000C341BDC04F11404C4F1200500FA05F3A9
:1007400020FA04F001FA05F240EA020001F000424A
:1007500021F0004110EBD37021FA04F642EB0601C0
:100760005EEA430E08BF20EAD37070BDC4F10C04EA
:10077000C4F1200500FA04F320FA05F001FA04F2AE
:1007800040EA020001F0004110EBD37041F100019A
:100790005EEA430E08BF20EAD37070BDC4F12005A5
:1007A00000FA05F24EEA020E20FA04F301FA05F20D
:1007B00043EA020321FA04F001F0004121FA04F2B5
:1007C00020EA020000EBD3705EEA430E08BF20EA85
:1007D000D37070BD94F0000F0FD101F000464000BF
:1007E00041EB010111F4801F08BF013CF7D041EA41
:1007F000060195F0000F18BF704703F00046520045
:1008000043EB030313F4801F08BF013DF7D043EA15
:100810000603704794EA0C0F0CEA135518BF95EACB
:100820000C0F0CD050EA410618BF52EA4306D1D152
:1008300081EA030101F000414FF0000070BD50EA71
:10084000410606BF1046194652EA430619D094EAFB
:100850000C0F02D150EA013613D195EA0C0F05D1E5
:1008600052EA03361CBF104619460AD181EA030139
:1008700001F0004141F0FE4141F470014FF00000F1
:1008800070BD41F0FE4141F4780170BD70B54FF08C
:10089000FF0C4CF4E06C1CEA11541DBF1CEA13550C
:1008A00094EA0C0F95EA0C0F00F0A7F8A4EB0504EE
:1008B00081EA030E52EA03354FEA013100F08880E5
:1008C0004FEA03334FF0805545EA131343EA1263AE
:1008D0004FEA022245EA111545EA10654FEA002663
:1008E0000EF000419D4208BF964244F1FD0404F51C
:1008F000407402D25B084FEA3202B61A65EB030578
:100900005B084FEA32024FF480104FF4002CB6EB34
:10091000020E75EB030E22BFB61A754640EA0C00B4
:100920005B084FEA3202B6EB020E75EB030E22BFF4
:10093000B61A754640EA5C005B084FEA3202B6EB35
:10094000020E75EB030E22BFB61A754640EA9C00F4
:100950005B084FEA3202B6EB020E75EB030E22BFC4
:10096000B61A754640EADC0055EA060E18D04FEA82
:10097000051545EA16754FEA06164FEAC30343EA22
:1009800052734FEAC2025FEA1C1CC0D111F4801FEF
:100990000BD141EA00014FF000004FF0004CB6E7E8
:1009A00011F4801F04BF01430020B4F1FD0C88BF87
:1009B000BCF5E06F3FF6AFAEB5EB030C04BFB6EB92
:1009C000020C5FEA500C50F1000041EB045170BD85
:1009D0000EF0004E4EEA113114EB5C04C2BFD4EBB2
:1009E0000C0541EA045170BD41F480114FF0000E36
:1009F000013C90E645EA060E8DE60CEA135594EAB2
:100A00000C0F08BF95EA0C0F3FF43BAF94EA0C0FB4
:100A10000AD150EA01347FF434AF95EA0C0F7FF429
:100A200025AF104619462CE795EA0C0F06D152EA7D
:100A300003353FF4FDAE1046194622E750EA410661
:100A400018BF52EA43067FF4C5AE50EA41047FF472
:100A50000DAF52EA43057FF4EBAE12E74FF0FF3CD7
:100A600006E000BF4FF0010C02E000BF4FF0010CA8
:100A70004DF804CD4FEA410C7FEA6C5C4FEA430C21
:100A800018BF7FEA6C5C1BD001B050EA410C0CBF70
:100A900052EA430C91EA030F02BF90EA020F0020D2
:100AA000704710F1000F91EA030F58BF994208BF39
:100AB00090422CBFD8176FEAE37040F001007047F6
:100AC0004FEA410C7FEA6C5C02D150EA013C07D14D
:100AD0004FEA430C7FEA6C5CD6D152EA033CD3D098
:100AE0005DF8040B704700BF8446104662468C4692
:100AF0001946634600E000BF01B5FFF7B7FF0028C5
:100B000048BF10F1000F01BD4DF808EDFFF7F4FFED
:100B10000CBF012000205DF808FB00BF4DF808ED78
:100B2000FFF7EAFF34BF012000205DF808FB00BF9B
:100B30004DF808EDFFF7E0FF94BF012000205DF8BD
:100B400008FB00BF4DF808EDFFF7CEFF94BF012072
:100B500000205DF808FB00BF4DF808EDFFF7C4FF6B
:100B600034BF012000205DF808FB00BF4FEA410CB4
:100B70007FEA6C5C02D150EA013C0AD14FEA430C97
:100B80007FEA6C5C02D152EA033C02D14FF00000D4
:100B900070474FF0010070474FEA410212F5001212
:100BA00015D211D56FF47873B3EB625212D94FEAB4
:100BB000C12343F0004343EA505311F0004F23FA9E
:100BC00002F018BF404270474FF00000704750EAF3
:100BD000013005D111F0004008BF6FF000407047B0
:100BE0004FF00000704700BF4A0011D212F500120A
:100BF00011D20DD56FF47873B3EB62520ED44FEA75
:100C0000C12343F0004343EA505323FA02F07047F4
:100C10004FF00000704750EA013002D14FF0FF3032
:100C200070474FF000007047B0B5ADF5107D02AFD2
:100C30004FF000024FF00003C7E98A230023C7F8F2
:100C400024323C23C7F82032BB4C3B46184602F006
:100C50004FF907F50E73A3F50E73204619464FF4AE
:100C6000DC731A4605F044FDB34BD3F86C3198475A
:100C700000F00AFA00F02AFAB04C3B46184600F0A1
:100C8000C3FD07F50E73A3F50E7320461946902396
:100C90001A4605F02DFDAA4C3B46184600F020FDF3
:100CA00007F50E73A3F50E731D460FCD0FC495E81F
:100CB000070084E80700A34C3B46184600F010FDEF
:100CC00007F50E73A3F50E731D460FCD0FC495E8FF
:100CD000070084E807009C4C3B46184600F000FDE6
:100CE00007F50E73A3F50E731D460FCD0FC495E8DF
:100CF000070084E80700954C3B4607F5FC7220216D
:100D0000184600F02BFC07F50E73A3F50E731D4675
:100D10000FCD0FC40FCD0FC42B6823608C4C3B4606
:100D200007F5EC722021184600F018FC07F50E7349
:100D3000A3F50E731D460FCD0FC40FCD0FC42B6846
:100D40002360844B00221A70834B00221A80834B4D
:100D500000221A70784BDB6E1946774BDB6E03F17D
:100D600014027F4C38460023019301230093022391
:100D700000F0D8FA07F50E73A3F50E72234607CAE2
:100D800083E807006C4B1A6D764C3B4611461846BB
:100D900001F068FC07F50E73A3F50E731D460FCD29
:100DA0000FC40FCD0FC495E8070084E80700624B1D
:100DB000D3F834319847604BD3F83C3198475E4BB9
:100DC000D3F8403198475C4BD3F858314FF4E132B7
:100DD0009FED530B102108209847574BD3F85C31F7
:100DE0009847554BD3F8603198470023C7F81C3219
:100DF0000023C7F83432D7F8343203F00703C7F8BA
:100E00001C32D7F81C32002B1BD14D4B9B694A4A30
:100E1000526B126911464A4898474A4B9B69464AA9
:100E2000126D1269114647489847474B9B69424AE1
:100E3000D26E12691146444898474A4B9B6A9847BC
:100E400014E1D7F81C32012B00F00781D7F81C32CF
:100E5000022B40F08D80434B5B6A002101209847B4
:100E6000D7F82032D7F824229A4217D2324BD3F83F
:100E70004431984753EC102BD7E98A01FFF726FA43
:100E800002460B46C7E98A232B4BD3F848319847D3
:100E9000D7F824320133C7F82432E7E0D7F820022C
:100EA000FFF760FB02460B46D7E98A01FFF7EEFC2D
:100EB00002460B46C7E98A231BA3D3E90023D7E9DF
:100EC0008A01FFF7E3FC02460B461046194618A3B9
:100ED000D3E90023FFF7F8F902460B4610461946FE
:100EE0004FF00002204BFFF7F1F902460B46C7E92D
:100EF0008A231C4B9C69114BD3F88C50D7E98A018B
:100F0000FFF772FE0346DF2219461848A84703463A
:100F100006211846A0470023C7F82432A6E000BFE8
:100F2000000000000000F03FCDCCCCCCCCCC084081
:100F3000638C31C618037340840000203C020020FB
:100F4000CC020020E8020020040300205803002007
:100F50007C030020A0030020A2030020A4030020A3
:100F6000200300202C03002000003940D87F000817
:100F7000D7F81C32032B60D13F4BD3F854311B6898
:100F800003F04003002B10D03C4B5B693B48984773
:100F9000034687F81B3297F81B32002B05D0364BDF
:100FA000D3F8543197F81B225A60334BD3F854319D
:100FB0001B6803F02003002B51D02F4BD3F8543182
:100FC0005B6887F81A3297F81A32002B2AD02C4B1C
:100FD0009B6997F81A2211462948984797F81A32C0
:100FE0000D2B1FD1264B1B6A07F5DC7211462448D6
:100FF0009847244B5B6A06210120984707F5DC736C
:101000001846FFF705F90346013B03F50E733B4411
:10101000002203F8802C1B4B9B6907F5DC720E2124
:1010200010469847144BD3F854311A68124BD3F832
:10103000543122F020021A6011E0D7F81C32042B40
:101040000FD0D7F81C32052B0DD0D7F81C32062B49
:101050000BD0D7F81C32072B08E000BF06E000BF1A
:1010600004E000BF02E000BF00E000BFD7F8343268
:101070000133C7F83432BEE6840000205803002054
:101080007C0300202C03002080B500AF0E4BDB68F2
:101090001A6B0D4BDB6842F007021A630A4B9B6B1D
:1010A000052101209847084B1B6C0521002098471B
:1010B000054B1B6F0D2100209847034B9B6F0D21A3
:1010C0000120984700BF80BD8400002080B400AF9D
:1010D0001D4BDB685A6C1C4BDB6842F480325A644F
:1010E000194BD3F818311A68174BD3F8183142F05E
:1010F00080721A60144BD3F82C314BF2DF12DA6293
:10110000114BD3F82C3141F66A525A630E4BD3F887
:101110002C3114229A620C4BD3F82C31DA680A4B2A
:10112000D3F82C3142F00302DA60074BD3F82C31AC
:101130001A68054BD3F82C3142F081021A6000BFC7
:10114000BD465DF8047B70478400002080B500AF89
:10115000364BD3F82C311B6903F00103002B50D020
:10116000324BD3F82C311A69304BD3F82C3122F0A2
:1011700001021A612E4B1B78002B1ED02B4B9B6C4F
:10118000202098472B4B5B682B4A92F90010CAB27B
:10119000013AD2B250B2284A107001228A40D2B22B
:1011A000D243D2B210469847234B93F90030002B1C
:1011B00021DA1F4B00221A701DE01C4BDB6C202033
:1011C00098471C4B5B681C4A92F90010CAB2013266
:1011D000D2B250B2184A107001228A40D2B2D24321
:1011E000D2B210469847144B93F90030072B02DD1A
:1011F0000F4B01221A70114B1B8801339AB20F4B0F
:101200001A800A4BD3F82C311B6903F00203002B20
:1012100009D0064BD3F82C311A69044BD3F82C3182
:1012200022F002021A6100BF80BD00BF84000020CE
:10123000A403002020030020A0030020A20300201C
:1012400080B586B000AF7860144A154BD31A7B6125
:101250007B693B61134B1B68002B02D1114B124A77
:101260001A60104B1A687B6813443A699A4207D295
:1012700005F014FA03460C221A604FF0FF3309E020
:10128000084B1B68FB60074B1A687B681344054AD0
:101290001360FB6818461837BD4680BD0000022069
:1012A00000040000A8030020D807002080B400AF8D
:1012B000064BD3F88830054A43F47003C2F88830EF
:1012C00000BFBD465DF8047B704700BF00ED00E045
:1012D000DFF834D00D480E490E4A002302E0D458FE
:1012E000C4500433C4188C42F9D30B4A0B4C00236E
:1012F00001E013600432A242FBD3FFF7D7FF05F0F1
:10130000D3F9FFF791FC7047000002200000002095
:1013100068000020B880000868000020D80700207E
:10132000FEE7000090B488B000AFF860B9607A6062
:10133000FB70384ABB681360374A7B681360374AD2
:10134000FB781370364A97F828301370354A97F8AF
:101350002C3013702F4B1B681A68FB785B0003213D
:10136000994097F828305B00032000FA03F31943F3
:1013700097F82C305B00032000FA03F30B43DB43A8
:101380001946244B1B680A401A60224B1B681A68D6
:10139000FB785B000121994097F828305B00012021
:1013A00000FA03F3194397F82C305B00012000FA90
:1013B00003F30B431946174B1B680A431A60164B7D
:1013C0001B681A68FB780121994097F828300120A2
:1013D00000FA03F3194397F82C30012000FA03F3C5
:1013E0000B43DB4319460C4B1B680A401A600E4B3B
:1013F0007B610E4BBB610E4BFB61FB681C4607F12A
:10140000140393E8070084E80700F8682037BD4616
:1014100090BC7047AC030020B0030020B403002050
:10142000B5030020B603002035140008CD140008D1
:101430001115000880B483B000AF0346FB71FB793F
:10144000002B0DD01E4B1B681A681E4B1B781946CB
:1014500001238B4019461A4B1B680A431A600DE0A2
:10146000174B1B681A68174B1B78194601238B40D2
:10147000DB431946124B1B680A401A60104B1B686D
:101480001A68114B1B78194601238B4019460C4BE7
:101490001B680A431A600A4B1B681A680A4B1B78C0
:1014A000194601238B40DB431946054B1B680A4054
:1014B0001A6000BF0C37BD465DF8047B704700BF63
:1014C000B0030020B4030020B503002080B584B031
:1014D00000AF0346FB710023FB730FE0FB7B01228F
:1014E00002FA03F35AB297F9073013405BB2DBB24A
:1014F0001846FFF79FFFFB7B0133FB73FB7B072B3A
:10150000ECD900F005F800BF1037BD4680BD0000E3
:1015100080B400AF0F4B1B681A680F4B1B7819463D
:1015200001238B4019460B4B1B680A431A60094B79
:101530001B681A68084B1B78194601238B40DB4354
:101540001946044B1B680A401A6000BFBD465DF88F
:10155000047B7047B0030020B6030020B0B48FB006
:1015600000AFF8600B467A60FB72134B00221A70D2
:101570007B68FB61FB69BB61BB697B617B683B622C
:10158000FB7A013B7A6813447B620C4BBB620C4BC9
:10159000FB620C4B3B630C4B7B63FB681D4607F106
:1015A00014040FCC0FC50FCC0FC523682B60F8684F
:1015B0003C37BD46B0BC7047B7030020CD150008CE
:1015C0001F1600086B160008AB16000880B485B023
:1015D00000AF78607B681B68FB607B681B69FA68FA
:1015E0009A4203D17B68DB68BB6002E0FB68013391
:1015F000BB607B685B68FA689A4203D1FB68002293
:101600001A7004E07B68BA681A60BB68FB60FB680C
:101610001B7818461437BD465DF8047B704780B4CC
:1016200085B000AF78600B46FB707B685B68BB6081
:101630007B681B69BA689A4203D17B68DB68FB60F0
:1016400002E0BB680133FB607B681B68FA689A4262
:1016500005D0FB68FA781A707B68FA685A6000BF98
:101660001437BD465DF8047B704790B585B000AF78
:10167000786039600023FB730AE0FB7B5A1CFA7325
:101680001A463B6813441B7819467868FFF7C7FF72
:10169000FC7B3868FEF7BCFD034601339C42ECD36B
:1016A00000BF00BF1437BD4690BD90B585B000AFF8
:1016B000786039600023FB7300BFFB7B5A1CFA7310
:1016C0001A463B689C187868FFF780FF0346237032
:1016D0002378002BF1D100BF00BF1437BD4690BD69
:1016E000B0B48BB000AF78600023FB6000233B6197
:1016F000084B7B627B681D4607F10C040FCC0FC5BD
:1017000094E8070085E8070078682C37BD46B0BC30
:10171000704700BF1917000880B582B000AF78602D
:1017200039607B685A687B681A607B683A685A60DF
:10173000786800F019F802467B689A60786800F0D3
:1017400024F802467B68DA60786800F030F80246D8
:101750007B681A61786800F040F802467B685A613D
:1017600000BF0837BD4680BD80B485B000AF78604B
:101770007B681A687B685B681340FB60FB681846EF
:101780001437BD465DF8047B704780B485B000AF68
:1017900078607B681A687B685B681343FB60FB6852
:1017A000DB4318461437BD465DF8047B704780B4B0
:1017B00085B000AF78607B681A687B685B685340CF
:1017C000FB607B685B68FA681340FB60FB68184647
:1017D0001437BD465DF8047B704780B485B000AF18
:1017E00078607B685A687B681B685340FB607B6845
:1017F0001B68FA681340FB60FB6818461437BD4647
:101800005DF8047B7047000080B5A6B000AF78603B
:101810002E4B002283F85F202D4BBB602D4BFB60CD
:101820002D4B3B612D4B7B612D4BBB612D4BFB61E8
:101830002D4B3B622D4B7B622D4BBB622D4BFB62D4
:101840002D4B3B632D4B7B632D4BBB632D4BFB63C0
:101850002D4B3B642D4B7B642D4BBB642D4BFB64AC
:101860002D4B3B652D4B7B652D4BBB652D4BFB6598
:101870002D4B3B662D4B7B662D4BBB662D4BFB6684
:101880002D4B3B672D4B7B672D4BBB672D4BFB6770
:101890002D4BC7F880302D4BC7F884302C4BC7F840
:1018A00088302C4BC7F88C302B4BC7F890302B4B23
:1018B000C7F894307B68184607F108039022194650
:1018C00004F016FF78689837BD4680BDB803002045
:1018D00095200008C320000861190008E5190008D8
:1018E0000F1A0008491A0008AB1A0008F11B00087B
:1018F000951C00085D1B00082D1D00088D1D0008AB
:10190000B71D0008F11D00084D1E0008711E0008DB
:101910009B1E0008DD1E0008211F0008711F000823
:10192000B51F0008E91F00085D2000081F210008FE
:101930005121000895210008E32100081D2200081C
:1019400041230008BD240008492500086D25000832
:1019500091250008C925000801260008292600084D
:1019600080B588B000AFF860B9601346FB71FB79B1
:101970001846FEF7E7FD02460B4643EC112B9FEDA0
:10198000160B05F0FFFB51EC100B4FF00002144B4F
:10199000FEF79AFC02460B4610461946FFF724F95B
:1019A0000346FB61FA68FB691340FB60BA68FB6998
:1019B0001340BB60BA68FB685340BB61BA69BB683F
:1019C00013407B61FB797A699A40BB6913431846DF
:1019D0002037BD4680BD00BF000000000000004071
:1019E0000000F03F80B485B000AF786039607B685C
:1019F0001B68FB603B681A687B681A603B68FA6882
:101A00001A6000BF1437BD465DF8047B704780B490
:101A100085B000AF786039600023FB6002E0FB68AE
:101A20000133FB60FB683A681A44FB6879680B4431
:101A300012781A701B78002BF1D100BF00BF143749
:101A4000BD465DF8047B704780B485B000AF786018
:101A500039600023FB600023BB6015E0FB687A68F7
:101A600013441B781A463B6893420AD0FB687A6895
:101A70001A44BB68591CB96019467B680B4412783C
:101A80001A70FB680133FB60FB687A6813441B78AB
:101A9000002BE3D1BB687A68134400221A7000BFA0
:101AA0001437BD465DF8047B704780B487B000AF43
:101AB000786039603B68DA0F13445B107B6142E069
:101AC0007B693B6136E03A697B69D31AFB601DE0B4
:101AD000FB689B007A6813441B68BB60FA687B69EB
:101AE00013449B007A681A44FB689B0079680B4496
:101AF00012681A60FA687B6913449B007A68134481
:101B0000BA681A60FA687B69D31AFB60FB68002B1D
:101B10000DDBFB689B007A6813441A68F9687B69DF
:101B20000B449B0079680B441B689A42D0DC3B69EC
:101B300001333B613A693B689A42C4DB7B69DA0F47
:101B400013445B107B617B69002BB9DC00BF00BFD5
:101B50001C37BD465DF8047B7047000080B584B03B
:101B600000AF78607B68BB60BB68002B02DA7B68E3
:101B70005B427B600023FB737A681B4B83FB021381
:101B80009910D317C91A0B469B000B445B00D11A5E
:101B9000CAB2FB7B591CF973194602F13003DAB261
:101BA000124B5A547B68104A82FB03129210DB17C7
:101BB000D31A7B607B68002BDEDCBB68002B06DA67
:101BC000FB7B5A1CFA731A46084B2D219954FB7B58
:101BD000064A0021D154054800F073FA034B184619
:101BE0001037BD4680BD00BF67666666B80300203B
:101BF00080B584B000AF0346FB80FB88BB81B7F99A
:101C00000C30002B03DAFB885B429BB2FB80002385
:101C1000FB73B7F906201D4B83FB02139910D317F2
:101C2000C91A0B469B000B445B00D31A1BB2DAB2F5
:101C3000FB7B591CF973194602F13003DAB2144BDD
:101C40005A54B7F90630114A82FB03129210DB177F
:101C5000D31AFB80B7F90630002BDADCB7F90C3069
:101C6000002B06DAFB7B5A1CFA731A46084B2D210F
:101C70009954FB7B064A0021D154054800F021FA13
:101C8000034B18461037BD4680BD00BF67666666C9
:101C9000B803002080B584B000AF0346FB8000236A
:101CA000FB73FA881F4BA3FB0213D9080B469B005A
:101CB0000B445B00D31A9BB2DAB2FB7B591CF9735D
:101CC000194602F13003DAB2174B5A5414E0FA887D
:101CD000144BA3FB0213D9080B469B000B445B007B
:101CE000D31A9BB2DAB2FB7B591CF973194602F185
:101CF0003003DAB20C4B5A54FB880A4AA2FB032386
:101D0000DB08FB80FB88002BE1D1FB7B064A00212E
:101D1000D154054800F0D5F9034B18461037BD469D
:101D200080BD00BFCDCCCCCCB803002080B584B042
:101D300000AF7860786800F0ADF90346013BFB60C6
:101D400014E0FB687A6813441B78202B0BD0FB68E7
:101D50007A6813441B78092B05D0FB687A68134412
:101D60001B780A2B06D1FB68013BFB60FB68002B4C
:101D7000E7DA00E000BFFB6801337A681344002211
:101D80001A70FB6818461037BD4680BD80B485B018
:101D900000AF786039607A683B689A4202DD7B6800
:101DA000FB6001E03B68FB60FB6818461437BD46EA
:101DB0005DF8047B704780B485B000AF786039600F
:101DC0000CE07B683A6893FBF2F2396801FB02F29F
:101DD0009B1AFB603B687B60FB683B603B68002BA9
:101DE000EFD17B6818461437BD465DF8047B704719
:101DF00080B487B000AF786000233B6100237B6133
:101E000011E07B697A6813441B78303BFB603A69C8
:101E100013469B0013445B001A46FB6813443B6166
:101E20007B6901337B617B697A6813441B782F2BB4
:101E300005D97B697A6813441B78392BE1D93B6952
:101E400018461C37BD465DF8047B704780B483B0EC
:101E500000AF03460A46FB711346BB71FA79BB79A2
:101E60001340DBB218460C37BD465DF8047B704763
:101E700080B485B000AF78600023FB6002E0FB68AF
:101E80000133FB60FA687B689A42F8D3FB68184616
:101E90001437BD465DF8047B704780B485B000AF51
:101EA00078607B6803F08003002B0AD07B685B427C
:101EB0007B607B68DBB27B607B685B42FB60FB68BE
:101EC00006E07B6803F07F037B607B68FB60FB6858
:101ED00018461437BD465DF8047B704780B485B062
:101EE00000AF78607B6803F40073002B0BD07B6835
:101EF0005B427B607B68C3F309037B607B685B426A
:101F0000FB60FB6806E07B68C3F308037B607B68CB
:101F1000FB60FB6818461437BD465DF8047B7047CC
:101F200080B485B000AF78600B46FB70FB78013B56
:101F3000012202FA03F3FB60FB68013BBB607A6895
:101F4000FB681340002B08D07A68BB6813407B60A5
:101F50007A68FB68D31A7B6003E07A68BB68134039
:101F60007B607B6818461437BD465DF8047B70477C
:101F700080B483B000AF0346FB71FB790C4AA2FB2F
:101F80000323DB08DBB21B01D8B2FA79084BA3FBB1
:101F90000213D9080B469B000B445B00D31ADBB23B
:101FA0000344DBB218460C37BD465DF8047B70472E
:101FB000CDCCCCCC80B483B000AF0346FB71FB79B1
:101FC0001B09DBB21A46920013445B00DAB2FB79BC
:101FD00003F00F03DBB21344DBB218460C37BD46E7
:101FE0005DF8047B7047000080B485B000AF786076
:101FF0003960194A3B68134400221A700023FB60C1
:102000001FE0FB687A6813441B78002B0DD107E0B2
:10201000114AFB68134420221A70FB680133FB60ED
:10202000FA683B689A42F3DB0FE0FB687A68134476
:102030001978094AFB6813440A461A70FB68013391
:10204000FB60FA683B689A42DBDB034B18461437A7
:10205000BD465DF8047B7047B803002080B485B0AE
:1020600000AFF860B9607A603B60FA68BB68D31A69
:10207000B9693A688A1A03FB02F27968BB68CB1A1D
:1020800092FBF3F23B68134418461437BD465DF8E3
:10209000047B704780B485B000AF78600023FB609C
:1020A00002E0FB680133FB60FB687A6813441B782D
:1020B000002BF6D1FB6818461437BD465DF8047B4B
:1020C000704780B586B000AF786000237B61786888
:1020D000FFF7E0FF0346013B3B6117E07B697A684D
:1020E00013441B78FB733B697A681A447B697968EF
:1020F0000B4412781A703B697A681344FA7B1A70A1
:102100007B6901337B613B69013B3B617A693B69D8
:102110009A42E3DB00BF00BF1837BD4680BD80B4E4
:1021200083B000AF0346FB71FB7903F00F03DAB213
:10213000FB791B09DBB2194689000B445B00DBB25B
:102140001344DBB218460C37BD465DF8047B70477C
:1021500080B483B000AF78607B680D4AA2FB032394
:10216000DB08DBB21B01D8B27968094BA3FB012362
:10217000DA0813469B0013445B00CA1AD3B2034427
:10218000DBB218460C37BD465DF8047B704700BFD4
:10219000CDCCCCCC80B584B000AF786039607A68A3
:1021A0003B689A4205DA3A463B1D11461846FFF74E
:1021B00019FC3B68002B0FD103E03B687B60FB6898
:1021C0003B607B683A6893FBF2F101FB02F29B1AD9
:1021D000FB60FB68002BF0D13B6818461037BD460A
:1021E00080BD80B485B000AF03460A46FB7113463C
:1021F000BB71FA79BB7942FA03F303F00103002BB8
:1022000002D00123FB7301E00023FB73FB7B184624
:102210001437BD465DF8047B7047000080B485B07C
:1022200000AF786039607B68013B012202FA03F35A
:10223000FB600023BB6015E03A68FB681340002B8D
:1022400005D0104ABB68134431221A7004E00D4ACD
:10225000BB68134430221A70FB685B08FB60BB68E4
:102260000133BB60FB68002BE6D1064ABB68134410
:1022700000221A70034B18461437BD465DF8047BE4
:10228000704700BFB803002080B487B000AFF8608B
:10229000B9601346FB710023FB75FA68274B83FB7B
:1022A00002139910D317C91A0B469B000B445B000D
:1022B000D11ACAB2FB7D591CF9751946BB680B448B
:1022C0003032D2B21A7015E0FA681C4B83FB02134D
:1022D0009910D317C91A0B469B000B445B00D11A07
:1022E000CAB2FB7D591CF9751946BB680B443032E4
:1022F000D2B21A70FB68114A82FB03129210DB17EC
:10230000D31AFB60FB68002BDEDC07E0FB7D5A1C68
:10231000FA751A46BB68134430221A70FA7DFB79AD
:102320009A42F3D3FB7DBA68134400221A70FB7DF6
:1023300018461C37BD465DF8047B704767666666C5
:10234000B0B58AB000AF87ED020B78600B46FB702A
:102350000023FB774FF000024FF00003D7E90201A2
:10236000FEF7DCFB0346002B08D0BC68FB6883F05B
:102370000045C7E90845FF23BB7705E0D7E90223FD
:10238000C7E908230123BB77D7E90801FEF72CFC36
:102390000346BB61B869FEF7D5F802460B46D7E99C
:1023A0000801FDF791FF02460B46C7E90423BB690C
:1023B000012279681846FFF767FF0346FB7797F914
:1023C0001E30002B08DAFB7F5A1CFA771A467B680E
:1023D00013442D221A7007E0FB7F5A1CFA771A4625
:1023E0007B68134420221A70FB7F7A681344002212
:1023F0001A707868FFF765FEFB78002B30D0FB7809
:10240000062B2DD8FB7F5A1CFA771A467B6813449B
:102410002E221A70FB781846FEF794F802460B46F7
:1024200043EC112B9FED220B04F0ACFE51EC100B92
:10243000D7E90423FEF700F902460B461046194679
:10244000FEF7AAFBFB7F7A681344FA781946FFF778
:102450001BFFFB7F7A6813441846FFF732FE21E02A
:10246000FB7F5A1CFA771A467B6813442E221A7097
:102470004FF00002104BD7E90401FEF7DDF80246E9
:102480000B4610461946FEF787FBFB7F7A6813441C
:1024900002221946FFF7F8FEFB7F7A6813441846BC
:1024A000FFF70FFE7B6818462837BD46B0BD00BF5A
:1024B00000000000000024400000594080B584B0B6
:1024C00000AF78600023FB73FB7B1E4A0021D154D0
:1024D0002CE07B685A4203F00F0302F00F0258BF52
:1024E0005342BB60BB68092B0BDCBB68DAB2FB7BD9
:1024F000591CF973194602F13003DAB2114B5A54E0
:102500000AE0BB68DAB2FB7B591CF973194602F189
:102510003703DAB20B4B5A54FB7B0A4A0021D154E1
:102520007B68002B00DA0F331B117B607B68002B6C
:10253000CFD10448FFF7C5FD024B18461037BD4602
:1025400080BD00BFB803002080B483B000AFB88066
:102550003B799BB21B029AB27B799BB213439BB22D
:1025600018460C37BD465DF8047B704780B483B0D5
:1025700000AFB8807B799BB21B029AB23B799BB2C9
:1025800013439BB218460C37BD465DF8047B704779
:1025900080B485B000AF0346FB80FB881B0A9BB26A
:1025A000DBB23B72FB88DBB27B723B89BB810023D1
:1025B0003A7B62F307037A7B62F30F2318461437E2
:1025C000BD465DF8047B704780B485B000AF03461C
:1025D000FB80FB881B0A9BB2DBB27B72FB88DBB201
:1025E0003B723B89BB8100233A7B62F307037A7B12
:1025F00062F30F2318461437BD465DF8047B70471D
:1026000080B485B000AF0346FB80FB881B02FB81D2
:10261000FB881B0A9AB2FB8913439BB218461437F6
:10262000BD465DF8047B70470FB480B582B000AF43
:1026300007F114033B603B683A695F21084804F0E6
:10264000E3F878607B68002B01DA002300E0044B9C
:1026500018460837BD46BDE8804004B0704700BF4B
:10266000B8030020B0B5FCB000AFC7F8BC01C7F894
:10267000B811254C3B46184600F03AFC07F5F873B4
:10268000A3F5F873204619464FF4DC731A4604F09C
:102690002FF81E4AD7F8B83113601D4BC7F8C43164
:1026A0001C4BC7F8C8311C4BC7F8CC311B4BC7F8C3
:1026B000D0311B4BC7F8D4311A4BC7F8D8311A4B5D
:1026C000C7F8DC31194BC7F8E031194BC7F8E431D2
:1026D000184BC7F8E831184BC7F8EC3100F02EF86A
:1026E000D7F8BC311D4607F5E2740FCC0FC50FCCEF
:1026F0000FC594E8070085E80700D7F8BC0107F587
:10270000F877BD46B0BD00BF18040020D0050020FA
:10271000D5280008252B0008F92C0008312D0008C9
:10272000132D0008512D00087F2D0008DB2D000817
:10273000012E0008212E0008AD2E000880B582B0C1
:1027400000AF614B1B681A685F4B1B6822F03F02A9
:102750001A605D4B1B681A685B4B1B6842F01502E0
:102760001A60594B1B68DA68574B1B6822F47F428A
:10277000DA60554B1B68DA68534B1B6842F4AA4277
:10278000DA60514B1B681A684F4B1B6822F0C0027D
:102790001A604D4B1B68DA684B4B1B6822F0C00275
:1027A000DA60494B1B68DA68474B1B6842F040020D
:1027B000DA60454B1B689B68434A126823F47F43E9
:1027C00023F03F039360404B1B689B683E4A1268AE
:1027D00043F47F4343F03F0393603B4B1B681B690B
:1027E00003F00803394A1360394BD3F82031142021
:1027F00098470021382000F06DF8354BD3F824318C
:10280000042098470021382000F064F8304BD3F8BA
:1028100024310A2098470021382000F05BF82C4B27
:10282000D3F82431042098470021282000F052F8E2
:10283000274BD3F82431042098470021282000F0AA
:1028400049F8234BD3F82431042098470223FB7125
:1028500032E00021282000F03DF800F04DFA002180
:10286000282000F037F800F047FA00210C2000F093
:1028700031F800F041FA00210C2000F02BF800F0B4
:102880003BFA0021012000F025F800F035FA002184
:10289000012000F01FF800F02FFA0021062000F0C0
:1028A00019F800F029FA0021062000F013F800F0D2
:1028B00023FAFB79013BFB71FB79002BC9D100BFE7
:1028C00000BF0837BD4680BDD0050020D4050020DC
:1028D0001804002080B582B000AF03460A46FB71A1
:1028E0001346BB808D4BD3F8A4318D4A1268012169
:1028F00010469847BB88002B08D0884BD3F89831F6
:10290000874A126800211046984707E0834BD3F8A6
:10291000A431834A1268002110469847804B1B68F7
:102920001A687F4B1B6822F47F421A607C4B1B683D
:102930001A687B4B1B6842F4AA421A60774BD3F8A3
:102940009831774A126802211046984797F9073064
:10295000002B08DA714BD3F89831714A12680721BD
:102960001046984707E06D4BD3F8A4316C4A1268C3
:10297000072110469847FB7903F04003002B08D04D
:10298000664BD3F89831664A12680621104698477C
:1029900007E0624BD3F8A431614A12680621104661
:1029A0009847FB7903F02003002B08D05B4BD3F84A
:1029B00098315B4A126805211046984707E0574B4B
:1029C000D3F8A431564A1268052110469847FB797E
:1029D00003F01003002B08D0504BD3F89831504A25
:1029E000126804211046984707E04C4BD3F8A431F5
:1029F0004B4A1268042110469847484BD3F8A4313B
:102A0000474A1268022110469847444BD3F8A43134
:102A1000434A1268012110469847BB88002B08D012
:102A20003E4BD3F898313E4A126800211046984731
:102A300007E03A4BD3F8A431394A12680021104616
:102A40009847364BD3F89831354A12680221104620
:102A50009847FB7903F00803002B08D02F4BD3F8DD
:102A600098312F4A126807211046984707E02B4BF0
:102A7000D3F8A4312A4A1268072110469847FB79F7
:102A800003F00403002B08D0244BD3F89831244AD8
:102A9000126806211046984707E0204BD3F8A4316E
:102AA0001F4A1268062110469847FB7903F002037B
:102AB000002B08D0194BD3F89831194A1268052118
:102AC0001046984707E0154BD3F8A431144A126812
:102AD000052110469847FB7903F00103002B08D02D
:102AE0000E4BD3F898310E4A1268042110469847CD
:102AF00007E00A4BD3F8A431094A126804211046B2
:102B00009847064BD3F8A431054A126802211046B3
:102B1000984700BF0837BD4680BD00BF180400209D
:102B2000D005002080B584B000AF0346FB800023B1
:102B3000BB600023FB736E4B1B681A686C4B1B68F1
:102B400022F47F421A606B4BD3F89831684A1268BE
:102B5000012110469847FB88002B08D0654BD3F81D
:102B60009831634A126800211046984707E0614B8C
:102B7000D3F8A4315E4A12680021104698475D4B95
:102B8000D3F898315A4A1268022110469847584B98
:102B90001B681B69BB60574BD3F8A431544A1268B9
:102BA000022110469847BB6803F08003002B04D035
:102BB000FB7B63F07F03FB7303E0FB7B03F07F038E
:102BC000FB73BB6803F04003002B04D0FB7B43F096
:102BD0004003FB7303E0FB7B23F04003FB73BB6804
:102BE00003F02003002B04D0FB7B43F02003FB7396
:102BF00003E0FB7B23F02003FB73BB6803F01003AF
:102C0000002B04D0FB7B43F01003FB7303E0FB7B42
:102C100023F01003FB73374BD3F89831344A126812
:102C2000012110469847FB88002B08D0314BD3F880
:102C300098312F4A126800211046984707E02D4B23
:102C4000D3F8A4312A4A1268002110469847294B2C
:102C5000D3F89831264A1268022110469847244B2F
:102C60001B681B69BB60234BD3F8A431204A126850
:102C7000022110469847BB6803F08003002B04D064
:102C8000FB7B43F00803FB7303E0FB7B23F00803AB
:102C9000FB73BB6803F04003002B04D0FB7B43F0C5
:102CA0000403FB7303E0FB7B23F00403FB73BB68AB
:102CB00003F02003002B04D0FB7B43F00203FB73E3
:102CC00003E0FB7B23F00203FB73BB6803F01003FC
:102CD000002B04D0FB7B43F00103FB7303E0FB7B81
:102CE00023F00103FB73FB7B18461037BD4680BD04
:102CF000D00500201804002080B500AF00BF0020E0
:102D0000FFF710FF03465BB2002BF8DB00BF00BFEC
:102D100080BD80B582B000AF0120FFF703FF0346FE
:102D2000FB71FFF7E9FFFB7918460837BD4680BD08
:102D300080B582B000AF0346FB71FB7901211846D4
:102D4000FFF7C8FDFFF7D8FF00BF0837BD4680BDBD
:102D500080B584B000AF786008E07B685A1C7A6068
:102D60001B78FB73FB7B1846FFF7E2FF7B681B7841
:102D7000002BF2D100BF00BF1037BD4680BD80B52B
:102D800084B000AF786039600023FB600FE07B689F
:102D90005A1C7A601B78FB72FB680133FB60FA688F
:102DA0003B689A4208D8FB7A1846FFF7C1FF7B6858
:102DB0001B78002BEBD107E000BF05E02020FFF7D8
:102DC000B7FFFB680133FB60FA683B689A42F5D3B2
:102DD00000BF00BF1037BD4680BD80B582B000AFD8
:102DE000786005E02020FFF7A3FF7B68013B7B6054
:102DF0007B68002BF6D100BF00BF0837BD4680BD01
:102E000080B500AF00210120FFF764FD034BD3F82C
:102E100020310220984700BF80BD00BF1804002069
:102E200080B582B000AF786039607B68032B37D8FB
:102E300001A252F823F000BF492E00085F2E0008BF
:102E4000752E00088B2E00083B68DBB2803BDBB29E
:102E500000211846FFF73EFDFFF74EFF21E03B68DB
:102E6000DBB2403BDBB200211846FFF733FDFFF732
:102E700043FF16E03B68DBB26C3BDBB20021184637
:102E8000FFF728FDFFF738FF0BE03B68DBB22C3B78
:102E9000DBB200211846FFF71DFDFFF72DFF00E014
:102EA00000BF00BF0837BD4680BD00BF80B582B0FF
:102EB00000AF0D4B1B681B6903F008037B600B4BD5
:102EC0001B687A6853403B603A687B6813403B60FC
:102ED0003B68002B01D0FFF731FC044A7B6813608C
:102EE00000BF0837BD4680BDD0050020D4050020B6
:102EF00080B582B000AF7860984B00221A60984B82
:102F000000221A6097494FF000024FF00003C1E918
:102F10000023954B954A1A60934B954A5A60924B01
:102F2000944A9A60904B944ADA608F4B934A1A61A4
:102F30008D4B934A5A618C4B924A9A618A4B924AC2
:102F4000DA61894B914A1A62874B914A5A62864BE1
:102F5000904A9A62844B904ADA62834B8F4A1A6392
:102F6000814B8F4A5A63804B8E4A9A637E4B8E4ABE
:102F7000DA637D4B8D4A1A647B4B8D4A9A647A4B97
:102F80008C4ADA64784B8C4A5A64774B8B4A1A65C0
:102F9000754B8B4A5A65744B8A4A9A65724B8A4ABA
:102FA000DA65714B894A5A666F4B894A9A666E4B4D
:102FB000884A1A666C4B884ADA666B4B874A1A67EE
:102FC000694B874A5A67684B864A9A67664B864AB6
:102FD000C3F88020644B854AC3F88420624B844A3E
:102FE000DA67614B834AC3F888205F4B824AC3F893
:102FF0008C205D4B814AC3F890205B4B804AC3F81C
:103000009420594B7F4AC3F89C20574B7E4AC3F803
:10301000A020554B7D4AC3F89820534B7C4AC3F8F7
:10302000A420514B7B4AC3F8A8204F4B7A4AC3F8DF
:10303000AC204D4B794AC3F8B0204B4B784AC3F8CB
:10304000B820494B774AC3F8BC20474B764AC3F8AF
:10305000B420454B754AC3F8C020434B744AC3F8AB
:10306000C420414B734AC3F8C8203F4B724AC3F88F
:10307000CC203D4B714AC3F8D4203B4B704AC3F877
:10308000D820394B6F4AC3F8D020374B6E4AC3F86B
:10309000DC20354B6D4AC3F8E020334B6C4AC3F853
:1030A000E420314B6B4AC3F8E8202F4B6A4AC3F83F
:1030B000EC202D4B694AC3F8F0202B4B684AC3F82B
:1030C000F420294B674AC3F8F820274B664AC3F817
:1030D000FC20254B654AC3F80021234B644AC3F802
:1030E0000421214B634AC3F808211F4B624AC3F8ED
:1030F0000C211D4B614AC3F810211B4B604AC3F8D9
:103100001421194B5F4AC3F81821174B5E4AC3F8C4
:103110001C21154B5D4AC3F82021134B5C4AC3F8B0
:103120002421114B5B4AC3F828210F4B5A4AC3F89C
:103130002C210D4B594AC3F830210B4B584AC3F888
:103140003421094B574AC3F83821074B564AC3F874
:103150003C21054B554AC3F84021A9E09C070020BB
:10316000AC070020C0070020D8050020003C02402A
:1031700000300240007000400038024081340008F6
:103180003D350008C53500088136000805370008C0
:10319000A5390008093B00085D3B0008B13B000869
:1031A00000000240B93E0008613F000809400008E5
:1031B000B1400008D5400008F94000080004024072
:1031C000F14100089942000841430008E943000822
:1031D0000D44000831440008000802402945000859
:1031E000D1450008794600082147000845470008F6
:1031F00069470008000C02406148000819490008AE
:10320000D1490008894A0008AD4A0008D14A00089F
:1032100000100240D94B0008914C0008494D0008AD
:10322000014E0008254E0008494E0008001C0240CF
:10323000514F000809500008C1500008795100089A
:103240009D510008C151000800280040C9520008E3
:10325000BD5600083D560008D955000859550008CC
:10326000AD5300083D540008CD540008A157000894
:10327000CD5800083957000800380140006002406E
:103280000064024000E100E010E000E02165000879
:10329000956500080D6600080040014000200140CF
:1032A000F9590008815A0008A95A0008D15A0008A3
:1032B000414B424AC3F844213F4B414AC3F848219D
:1032C0003D4B404AC3F84C213B4B3F4AC3F8502189
:1032D000394B3E4AC3F85421374B3D4AC3F8582175
:1032E000354B3C4AC3F85C21334B3B4AC3F8602161
:1032F000314B3A4AC3F864212F4B394AC3F868214D
:103300002D4B384AC3F86C212B4B374AC3F8702138
:10331000294B364AC3F87421274B354AC3F8782124
:10332000254B344AC3F87C21234B334AC3F8802110
:10333000214B324AC3F884211F4B314AC3F88821FC
:103340001D4B304AC3F88C211B4B2F4AC3F89021E8
:10335000194B2E4AC3F89421174B2D4AC3F89821D4
:10336000154B2C4AC3F89C21134B2B4AC3F8A021C0
:10337000114B2A4AC3F8A4210F4B294AC3F8A821AC
:103380000D4B284AC3F8AC210B4B274AC3F8B02198
:10339000094B264AC3F8B42103F0A0F87B68064A1B
:1033A000184611464FF4DC731A4603F0A1F9786809
:1033B0000837BD4680BD00BFD80500200D5B000862
:1033C000695B0008A15B0008002301400010014078
:1033D000C95B0008455C0008955C0008E95C0008D2
:1033E0005D6000083134000885600008B96000089D
:1033F000FD600008A96100085562000879620008B4
:103400009D620008D56200080D630008053C0008B5
:10341000573C00087B3C0008973C0008EB3C000848
:10342000113D0008313D0008D13D0008CD64000881
:1034300080B584B002AF04230193082300930223D4
:103440004FF4C8720821002000F0ACFA002000F010
:103450005BFB002301220121012000F053F9002031
:1034600000F00EF8002000F069F80346FB7102201E
:1034700000F0A8F8FB7918460837BD4680BD00006B
:1034800080B485B000AF78600123FB600123BB608E
:1034900048E07B68002B17D1FB68002B0AD0264B35
:1034A000DB681A68244BDB6842F001021A600023D3
:1034B000FB6037E0204BDB681B6803F00203002B46
:1034C00030D00023BB602DE07B68012B17D1FB6857
:1034D000002B0AD0184BDB681A68174BDB6842F4E4
:1034E00080321A600023FB601CE0134BDB681B6812
:1034F00003F40033002B15D00023BB6012E07B687F
:10350000022B0DD1FB68002B07D00B4BDB681A6830
:10351000094BDB6842F480221A6001237B6001E0E2
:1035200000237B60BB68002BB3D100BF00BF143702
:10353000BD465DF8047B7047D805002080B483B099
:1035400000AF0346FB711E4BDB689A681C4BDB68BF
:1035500022F003029A60FB79032B18D0032B1FDCA7
:10356000012B02D0022B09D01AE0154BDB689A68B8
:10357000134BDB6842F001029A6012E0104BDB68EB
:103580009A680F4BDB6842F002029A6009E00C4B2C
:10359000DB689A680A4BDB6842F003029A6000E03D
:1035A00000BF074BDB689B689B08DBB203F003039B
:1035B000DBB218460C37BD465DF8047B704700BF90
:1035C000D805002080B485B000AF78600123FB608F
:1035D0000123BB6048E07B68022B17D1FB68002BFE
:1035E0000AD0264BDB685A6F244BDB6842F001029D
:1035F0005A670023FB6037E0204BDB685B6F03F00A
:103600000203002B30D00023BB602DE07B68012B30
:1036100017D1FB68002B0AD0184BDB681A6F174BC9
:10362000DB6842F001021A670023FB601CE0134BC9
:10363000DB681B6F03F00203002B15D00023BB6077
:1036400012E07B68042B0DD1FB68002B07D00B4BDD
:10365000DB681A6F094BDB6842F004021A6701232A
:103660007B6001E002237B60BB68002BB3D100BF0D
:1036700000BF1437BD465DF8047B7047D8050020B5
:1036800080B483B000AF0346FB711D4BDB681A6F3B
:103690001B4BDB6822F440721A67FB79032B17D0AF
:1036A000032B1EDC012B0AD0022B1AD1144BDB6832
:1036B0001A6F134BDB6842F400721A671AE0104B62
:1036C000DB681A6F0E4BDB6842F480721A6711E0F8
:1036D0000B4BDB681A6F0A4BDB6842F440721A67C7
:1036E00008E0074BDB681A6F054BDB6842F4807219
:1036F0001A6700BF00BF0C37BD465DF8047B7047FA
:10370000D805002080B487B000AFF860B9607A6057
:103710003B60A24B7B61A24BDB6899687B69DA4313
:103720009F4BDB680A409A603B68012B0BD93B68D2
:103730001F2B08D89A4BDB6899683B681A04984B92
:10374000DB680A439A607B68023B0E2B44D801A2D7
:1037500052F823F091370008D9370008A337000842
:10376000D9370008D9370008D9370008B53700081D
:10377000D9370008D9370008D9370008D9370008E9
:10378000D9370008D9370008D9370008C7370008EB
:10379000834BDB689A68824BDB6842F400429A6094
:1037A0001BE07F4BDB689A687D4BDB6842F420426C
:1037B0009A6012E07A4BDB689A68794BDB6842F4D6
:1037C00040429A6009E0764BDB689A68744BDB688C
:1037D00042F460429A6000E000BFBB68023B0E2BDF
:1037E00044D801A252F823F0253800086D380008AB
:1037F000373800086D3800086D3800086D3800084B
:10380000493800086D3800086D3800086D38000828
:103810006D3800086D3800086D3800086D380008F4
:103820005B3800085E4BDB689A685D4BDB6842F4EE
:1038300080529A601BE05A4BDB689A68584BDB68F1
:1038400042F4A0529A6012E0554BDB689A68544BE0
:10385000DB6842F4C0529A6009E0514BDB689A6819
:103860004F4BDB6842F4E0529A6000E000BFFB6817
:10387000B3F5007F00F08180FB68B3F5007F00F2B4
:103880008580FB68B3F5807F6ED0FB68B3F5807FE1
:103890007CD8FB68802B5ED0FB68802B76D8FB68D9
:1038A000102B27D8FB68022B70D3FB68023B0E2B32
:1038B0006CD801A252F823F0FD3800088D390008B9
:1038C0000F3900088D3900088D3900088D3900083E
:1038D000213900088D3900088D3900088D3900081C
:1038E0008D3900088D3900088D3900088D390008A0
:1038F00033390008FB68402B24D047E0284BDB68B5
:103900009A68274BDB6842F080029A603FE0244BC4
:10391000DB689A68224BDB6842F090029A6036E0DE
:103920001F4BDB689A681E4BDB6842F0A0029A606E
:103930002DE01B4BDB689A68194BDB6842F0B00244
:103940009A6024E0164BDB689A68154BDB6842F0FE
:10395000C0029A601BE0124BDB689A68104BDB6870
:1039600042F0D0029A6012E00D4BDB689A680C4B73
:10397000DB6842F0E0029A6009E0094BDB689A6874
:10398000074BDB6842F0F0029A6000E000BF00BF26
:103990001C37BD465DF8047B704700BFF0FC1F007C
:1039A000D805002080B487B000AFF860B9607A60B5
:1039B0003B60524B7B61524BDB685968504BDB6874
:1039C0007A690A435A607B6A012B0DD97B6A072BFF
:1039D0000AD84B4BDB6859687B6A1B0763F0E042EF
:1039E000474BDB680A405A603B6A012B0DD93B6AA2
:1039F0000F2B0AD8424BDB6859683B6A1B0663F001
:103A000070623F4BDB680A405A60FB68012B0BD1A8
:103A10003B4BDB685968FB689B0563F48002384BBD
:103A2000DB680A405A6007E0354BDB685A68344B64
:103A3000DB6822F480025A603B68023B062B33D8D5
:103A400001A252F823F000BF653A0008A93A000825
:103A5000773A0008A93A0008893A0008A93A00080C
:103A60009B3A0008264BDB685A68254BDB6822F43A
:103A700040325A6019E0224BDB685A68204BDB6801
:103A800022F400325A6010E01D4BDB685A681C4B70
:103A9000DB6822F480325A6007E0194BDA68184B71
:103AA000DB6852685A6000E000BF7B68312B0ED99A
:103AB0007B68B3F5D87F0AD8114BDB6859687B68FF
:103AC0009A01104B13430E4AD2680B405360BB68F7
:103AD000012B0CD9BB683F2B09D8094BDB6859680F
:103AE000BB6863F03F02064BDB680A405A6000BFC8
:103AF0001C37BD465DF8047B704700BFFF7F437FE6
:103B0000D80500203F80FFFF80B483B000AF03469C
:103B1000FB71FB79002B10D00F4BDB681A680E4B42
:103B2000DB6842F080721A6000BF0B4BDB681B68D9
:103B300003F00073002BF8D007E0074BDB681A682E
:103B4000054BDB6822F080721A6000BF0C37BD465F
:103B50005DF8047B704700BFD805002080B483B0B7
:103B600000AF0346FB71FB79002B10D00F4BDB68D5
:103B70001A680E4BDB6842F080621A6000BF0B4B84
:103B8000DB681B6803F00063002BF8D007E0074BED
:103B9000DB681A68054BDB6822F080621A6000BFA0
:103BA0000C37BD465DF8047B704700BFD805002088
:103BB00080B483B000AF0346FB71FB79002B10D0BB
:103BC0000F4BDB681A680E4BDB6842F080521A60BC
:103BD00000BF0B4BDB681B6803F00053002BF8D0D1
:103BE00007E0074BDB681A68054BDB6822F0805260
:103BF0001A6000BF0C37BD465DF8047B704700BFFC
:103C0000D80500200EB480B484B000AF78607B6922
:103C1000002B19DD7B69202B16DC07F11803BB6034
:103C20000023FB730CE0BB681A1DBA601B680122FD
:103C300002FA03F31A467B689A61FB7B0133FB733C
:103C4000FB7B7A699A42EEDC00BF1037BD465DF817
:103C5000047B03B0704780B483B000AF78603960F4
:103C600001223B6802FA03F31A467B689A6100BF9F
:103C70000C37BD465DF8047B704780B483B000AF5D
:103C8000786039603A687B689A6100BF0C37BD463E
:103C90005DF8047B70470EB480B484B000AF7860E8
:103CA0007B69002B1ADD7B69202B17DC07F11803D9
:103CB000BB600023FB730DE0BB681A1DBA601B6874
:103CC000012202FA03F31B041A467B689A61FB7B0C
:103CD0000133FB73FB7B7A699A42EDDC00BF10373E
:103CE000BD465DF8047B03B0704780B483B000AF7D
:103CF0007860396001223B6802FA03F31B041A461C
:103D00007B689A6100BF0C37BD465DF8047B704745
:103D100080B483B000AF786039603B681B041A46FA
:103D20007B689A6100BF0C37BD465DF8047B704725
:103D300080B586B000AFF860B9607A603B60B86863
:103D4000FCF700FC02460B4643EC112B9FED1C0BCD
:103D500003F018FA51EC100B4FF000021A4BFCF76D
:103D6000B3FA02460B4610461946FCF73DFF0346E0
:103D70007B617A687B6913407B60FB681A683B68EB
:103D8000B96801FB03F3796901FA03F3DB431A40D5
:103D9000FB681A60FB681A683B68B96801FB03F3AB
:103DA000796801FA03F31A43FB681A60FB681A6822
:103DB000FB681A6000BF1837BD4680BDAFF30080B6
:103DC00000000000000000400000F03F0000000084
:103DD00080B588B000AFF860B9607A603B6020239E
:103DE000FB61B868FCF7AEFB02460B4643EC112BB7
:103DF0009FED2D0B03F0C6F951EC100B4FF00002B4
:103E00002B4BFCF761FA02460B4610461946FCF7AD
:103E1000EBFE0346BB613B68BA6803FB02F2FB6939
:103E2000B2FBF3F37B617A68BB6913407B607B690B
:103E30009B00FA68134419683B68BA6803FB02F2F6
:103E40007B69F86900FB03F3D31ABA6902FA03F33A
:103E5000DA437B699B00F86803440A401A607B6977
:103E60009B00FA68134419683B68BA6803FB02F2C6
:103E70007B69F86900FB03F3D31A7A689A407B697F
:103E80009B00F86803440A431A607B699B00FA6848
:103E90001A447B699B00F9680B4412681A6000BFE2
:103EA0002037BD4680BD00BF00000000000000407C
:103EB0000000F03F0000000080B584B000AF7860E3
:103EC00039600223FB60F868FCF73CFB02460B46B6
:103ED00043EC112B9FED1E0B03F054F951EC100B2A
:103EE0004FF000021C4BFCF7EFF902460B46104660
:103EF0001946FCF779FE0346BB607A68BB6813403D
:103F00007B60164B5B6B19683B68FA6802FB03F336
:103F1000BA6802FA03F3DA43104B5B6B0A401A608B
:103F20000E4B5B6B19683B68FA6802FB03F37A6817
:103F30009A400A4B5B6B0A431A60084B5A6B074B5B
:103F40005B6B12681A6000BF1037BD4680BD00BFB2
:103F500000000000000000400000F03FD8050020F5
:103F600080B584B000AF786039600223FB60F868E8
:103F7000FCF7E8FA02460B4643EC112B9FED1E0BB3
:103F800003F000F951EC100B4FF000021C4BFCF752
:103F90009BF902460B4610461946FCF725FE0346E0
:103FA000BB607A68BB6813407B60164B5B6B99689B
:103FB0003B68FA6802FB03F3BA6802FA03F3DA43D8
:103FC000104B5B6B0A409A600E4B5B6B99683B68C9
:103FD000FA6802FB03F37A689A400A4B5B6B0A4368
:103FE0009A60084B5A6B074B5B6B92689A6000BFF4
:103FF0001037BD4680BD00BF00000000000000403B
:104000000000F03FD805002080B584B000AF786094
:1040100039600223FB60F868FCF794FA02460B460D
:1040200043EC112B9FED1E0B03F0ACF851EC100B81
:104030004FF000021C4BFCF747F902460B461046B6
:104040001946FCF7D1FD0346BB607A68BB68134094
:104050007B60164B5B6BD9683B68FA6802FB03F325
:10406000BA6802FA03F3DA43104B5B6B0A40DA607A
:104070000E4B5B6BD9683B68FA6802FB03F37A6806
:104080009A400A4B5B6B0A43DA60084B5A6B074B4A
:104090005B6BD268DA6000BF1037BD4680BD00BFE1
:1040A00000000000000000400000F03FD8050020A4
:1040B00080B483B000AF7860054B5B6B7A68120404
:1040C0009A6100BF0C37BD465DF8047B704700BFA6
:1040D000D805002080B483B000AF7860044B5B6BE0
:1040E0007A689A6100BF0C37BD465DF8047B704763
:1040F000D80500200000000080B586B000AF7860D1
:10410000396004237B6120233B617869FCF71AFA4C
:1041100002460B4643EC112B9FED310B03F032F8B6
:1041200051EC100B4FF000022F4BFCF7CDF802467C
:104130000B4610461946FCF757FD0346FB603B68EB
:104140007A6903FB02F23B69B2FBF3F3BB607A6866
:10415000FB6813407B60BB68012B3DD8234B5B6B36
:10416000BA68083253F822103B687A6903FB02F2FE
:10417000BB68386900FB03F3D31AFA6802FA03F349
:10418000DA431A4B5B6B1140BA68083243F82210CD
:10419000164B5B6BBA68083253F822103B687A6999
:1041A00003FB02F2BB68386900FB03F3D31A7A6899
:1041B0009A400E4B5B6B1143BA68083243F82210E9
:1041C0000A4B5A6B094B5B6BB968083152F82110E6
:1041D000BA68083243F8221000BF1837BD4680BDC8
:1041E00000000000000000400000F03FD805002063
:1041F00080B584B000AF786039600223FB60F86856
:10420000FCF7A0F902460B4643EC112B9FED1E0B69
:1042100002F0B8FF51EC100B4FF000021C4BFCF702
:1042200053F802460B4610461946FCF7DDFC0346E0
:10423000BB607A68BB6813407B60164B1B6D1968C6
:104240003B68FA6802FB03F3BA6802FA03F3DA4345
:10425000104B1B6D0A401A600E4B1B6D19683B68B2
:10426000FA6802FB03F37A689A400A4B1B6D0A4313
:104270001A60084B1A6D074B1B6D12681A6000BF5D
:104280001037BD4680BD00BF0000000000000040A8
:104290000000F03FD805002080B584B000AF786002
:1042A00039600223FB60F868FCF74CF902460B46C4
:1042B00043EC112B9FED1E0B02F064FF51EC100B31
:1042C0004FF000021C4BFBF7FFFF02460B46104667
:1042D0001946FCF789FC0346BB607A68BB6813404B
:1042E0007B60164B1B6D99683B68FA6802FB03F311
:1042F000BA6802FA03F3DA43104B1B6D0A409A6066
:104300000E4B1B6D99683B68FA6802FB03F37A68F1
:104310009A400A4B1B6D0A439A60084B1A6D074B73
:104320001B6D92689A6000BF1037BD4680BD00BF0C
:1043300000000000000000400000F03FD805002011
:1043400080B584B000AF786039600223FB60F86804
:10435000FCF7F8F802460B4643EC112B9FED1E0BC1
:1043600002F010FF51EC100B4FF000021C4BFBF75A
:10437000ABFF02460B4610461946FCF735FC0346D8
:10438000BB607A68BB6813407B60164B1B6DD968B5
:104390003B68FA6802FB03F3BA6802FA03F3DA43F4
:1043A000104B1B6D0A40DA600E4B1B6DD9683B68E1
:1043B000FA6802FB03F37A689A400A4B1B6D0A43C2
:1043C000DA60084B1A6D074B1B6DD268DA6000BFCC
:1043D0001037BD4680BD00BF000000000000004057
:1043E0000000F03FD805002080B483B000AF7860B3
:1043F000054B1B6D7A6812049A6100BF0C37BD46ED
:104400005DF8047B704700BFD805002080B483B0FE
:1044100000AF7860044B1B6D7A689A6100BF0C375F
:10442000BD465DF8047B7047D80500200000000001
:1044300080B586B000AF7860396004237B612023AB
:104440003B617869FCF77EF802460B4643EC112B82
:104450009FED310B02F096FE51EC100B4FF0000275
:104460002F4BFBF731FF02460B4610461946FCF76F
:10447000BBFB0346FB603B687A6903FB02F23B69C6
:10448000B2FBF3F3BB607A68FB6813407B60BB68E8
:10449000012B3DD8234B1B6DBA68083253F822100C
:1044A0003B687A6903FB02F2BB68386900FB03F3DF
:1044B000D31AFA6802FA03F3DA431A4B1B6D114060
:1044C000BA68083243F82210164B1B6DBA680832DE
:1044D00053F822103B687A6903FB02F2BB68386923
:1044E00000FB03F3D31A7A689A400E4B1B6D1143FD
:1044F000BA68083243F822100A4B1A6D094B1B6D3B
:10450000B968083152F82110BA68083243F822100D
:1045100000BF1837BD4680BD00000000000000400D
:104520000000F03FD805002080B584B000AF78606F
:1045300039600223FB60F868FCF704F802460B467A
:1045400043EC112B9FED1E0B02F01CFE51EC100BE7
:104550004FF000021C4BFBF7B7FE02460B4610461D
:104560001946FCF741FB0346BB607A68BB68134001
:104570007B60164BDB6E19683B68FA6802FB03F33D
:10458000BA6802FA03F3DA43104BDB6E0A401A6092
:104590000E4BDB6E19683B68FA6802FB03F37A681E
:1045A0009A400A4BDB6E0A431A60084BDA6E074BDF
:1045B000DB6E12681A6000BF1037BD4680BD00BFB9
:1045C00000000000000000400000F03FD80500207F
:1045D00080B584B000AF786039600223FB60F86872
:1045E000FBF7B0FF02460B4643EC112B9FED1E0B71
:1045F00002F0C8FD51EC100B4FF000021C4BFBF712
:1046000063FE02460B4610461946FCF7EDFA0346D8
:10461000BB607A68BB6813407B60164BDB6E9968A1
:104620003B68FA6802FB03F3BA6802FA03F3DA4361
:10463000104BDB6E0A409A600E4BDB6E99683B684C
:10464000FA6802FB03F37A689A400A4BDB6E0A436E
:104650009A60084BDA6E074BDB6E92689A6000BF77
:104660001037BD4680BD00BF0000000000000040C4
:104670000000F03FD805002080B584B000AF78601E
:1046800039600223FB60F868FBF75CFF02460B46CB
:1046900043EC112B9FED1E0B02F074FD51EC100B3F
:1046A0004FF000021C4BFBF70FFE02460B46104674
:1046B0001946FCF799FA0346BB607A68BB68134059
:1046C0007B60164BDB6ED9683B68FA6802FB03F32C
:1046D000BA6802FA03F3DA43104BDB6E0A40DA6081
:1046E0000E4BDB6ED9683B68FA6802FB03F37A680D
:1046F0009A400A4BDB6E0A43DA60084BDA6E074BCE
:10470000DB6ED268DA6000BF1037BD4680BD00BFE7
:1047100000000000000000400000F03FD80500202D
:1047200080B483B000AF7860054BDB6E7A6812040A
:104730009A6100BF0C37BD465DF8047B704700BF2F
:10474000D805002080B483B000AF7860044BDB6EE6
:104750007A689A6100BF0C37BD465DF8047B7047EC
:10476000D80500200000000080B586B000AF78605A
:10477000396004237B6120233B617869FBF7E2FE0B
:1047800002460B4643EC112B9FED310B02F0FAFC75
:1047900051EC100B4FF000022F4BFBF795FD02463A
:1047A0000B4610461946FCF71FFA0346FB603B68B0
:1047B0007A6903FB02F23B69B2FBF3F3BB607A68F0
:1047C000FB6813407B60BB68012B3DD8234BDB6E3D
:1047D000BA68083253F822103B687A6903FB02F288
:1047E000BB68386900FB03F3D31AFA6802FA03F3D3
:1047F000DA431A4BDB6E1140BA68083243F82210D4
:10480000164BDB6EBA68083253F822103B687A699F
:1048100003FB02F2BB68386900FB03F3D31A7A6822
:104820009A400E4BDB6E1143BA68083243F82210EF
:104830000A4BDA6E094BDB6EB968083152F8211069
:10484000BA68083243F8221000BF1837BD4680BD51
:1048500000000000000000400000F03FD8050020EC
:1048600080B584B000AF786039600223FB60F868DF
:10487000FBF768FE02460B4643EC112B9FED220B23
:1048800002F080FC51EC100B4FF00002204BFBF7C4
:104890001BFD02460B4610461946FCF7A5F90346D8
:1048A000BB607A68BB6813407B601A4BD3F88830D2
:1048B00019683B68FA6802FB03F3BA6802FA03F36B
:1048C000DA43144BD3F888300A401A60114BD3F8FE
:1048D000883019683B68FA6802FB03F37A689A40EB
:1048E0000C4BD3F888300A431A600A4BD3F888205F
:1048F000084BD3F8883012681A6000BF1037BD46E5
:1049000080BD00BFAFF30080000000000000004049
:104910000000F03FD805002080B584B000AF78607B
:1049200039600223FB60F868FBF70CFE02460B4679
:1049300043EC112B9FED220B02F024FC51EC100BE9
:104940004FF00002204BFBF7BFFC02460B4610461F
:104950001946FCF749F90346BB607A68BB68134007
:104960007B601A4BD3F8883099683B68FA6802FB81
:1049700003F3BA6802FA03F3DA43144BD3F888302E
:104980000A409A60114BD3F8883099683B68FA68FE
:1049900002FB03F37A689A400C4BD3F888300A4341
:1049A0009A600A4BD3F88820084BD3F88830926875
:1049B0009A6000BF1037BD4680BD00BFAFF30080D6
:1049C00000000000000000400000F03FD80500207B
:1049D00080B584B000AF786039600223FB60F8686E
:1049E000FBF7B0FD02460B4643EC112B9FED220B6B
:1049F00002F0C8FB51EC100B4FF00002204BFBF70C
:104A000063FC02460B4610461946FCF7EDF80346D8
:104A1000BB607A68BB6813407B601A4BD3F8883060
:104A2000D9683B68FA6802FB03F3BA6802FA03F339
:104A3000DA43144BD3F888300A40DA60114BD3F8CC
:104A40008830D9683B68FA6802FB03F37A689A40B9
:104A50000C4BD3F888300A43DA600A4BD3F888202D
:104A6000084BD3F88830D268DA6000BF1037BD46F3
:104A700080BD00BFAFF300800000000000000040D8
:104A80000000F03FD805002080B483B000AF78600C
:104A9000054BD3F888307A6812049A6100BF0C374E
:104AA000BD465DF8047B7047D805002080B483B014
:104AB00000AF7860054BD3F888307A689A6100BF00
:104AC0000C37BD465DF8047B704700BFD805002059
:104AD00080B586B000AF7860396004237B61202305
:104AE0003B617869FBF72EFD02460B4643EC112B28
:104AF0009FED350B02F046FB51EC100B4FF000021E
:104B0000334BFBF7E1FB02460B4610461946FCF718
:104B10006BF80346FB603B687A6903FB02F23B6972
:104B2000B2FBF3F3BB607A68FB6813407B60BB6841
:104B3000012B43D8274BD3F88830BA68083253F892
:104B400022103B687A6903FB02F2BB68386900FBFC
:104B500003F3D31AFA6802FA03F3DA431D4BD3F8CE
:104B600088301140BA68083243F82210194BD3F844
:104B70008830BA68083253F822103B687A6903FB20
:104B800002F2BB68386900FB03F3D31A7A689A40D3
:104B9000104BD3F888301143BA68083243F822101A
:104BA0000C4BD3F888200B4BD3F88830B968083108
:104BB00052F82110BA68083243F8221000BF1837A3
:104BC000BD4680BDAFF30080000000000000004043
:104BD0000000F03FD805002080B584B000AF7860B9
:104BE00039600223FB60F868FBF7ACFC02460B4619
:104BF00043EC112B9FED220B02F0C4FA51EC100B89
:104C00004FF00002204BFBF75FFB02460B461046BD
:104C10001946FBF7E9FF0346BB607A68BB6813409F
:104C20007B601A4BD3F8A43019683B68FA6802FB22
:104C300003F3BA6802FA03F3DA43144BD3F8A4304F
:104C40000A401A60114BD3F8A43019683B68FA681F
:104C500002FB03F37A689A400C4BD3F8A4300A4362
:104C60001A600A4BD3F8A420084BD3F8A43012687A
:104C70001A6000BF1037BD4680BD00BFAFF3008093
:104C800000000000000000400000F03FD8050020B8
:104C900080B584B000AF786039600223FB60F868AB
:104CA000FBF750FC02460B4643EC112B9FED220B09
:104CB00002F068FA51EC100B4FF00002204BFBF7AA
:104CC00003FB02460B4610461946FBF78DFF0346D1
:104CD000BB607A68BB6813407B601A4BD3F8A43082
:104CE00099683B68FA6802FB03F3BA6802FA03F3B7
:104CF000DA43144BD3F8A4300A409A60114BD3F82E
:104D0000A43099683B68FA6802FB03F37A689A401A
:104D10000C4BD3F8A4300A439A600A4BD3F8A42072
:104D2000084BD3F8A43092689A6000BF1037BD4694
:104D300080BD00BFAFF30080000000000000004015
:104D40000000F03FD805002080B584B000AF786047
:104D500039600223FB60F868FBF7F4FB02460B4660
:104D600043EC112B9FED220B02F00CFA51EC100BCF
:104D70004FF00002204BFBF7A7FA02460B46104605
:104D80001946FBF731FF0346BB607A68BB681340E6
:104D90007B601A4BD3F8A430D9683B68FA6802FBF1
:104DA00003F3BA6802FA03F3DA43144BD3F8A430DE
:104DB0000A40DA60114BD3F8A430D9683B68FA682E
:104DC00002FB03F37A689A400C4BD3F8A4300A43F1
:104DD000DA600A4BD3F8A420084BD3F8A430D26889
:104DE000DA6000BF1037BD4680BD00BFAFF3008062
:104DF00000000000000000400000F03FD805002047
:104E000080B483B000AF7860054BD3F8A4307A68E3
:104E100012049A6100BF0C37BD465DF8047B7047F1
:104E2000D805002080B483B000AF7860054BD3F87C
:104E3000A4307A689A6100BF0C37BD465DF8047BE8
:104E4000704700BFD805002080B586B000AF7860FD
:104E5000396004237B6120233B617869FBF772FB97
:104E600002460B4643EC112B9FED350B02F08AF9FD
:104E700051EC100B4FF00002334BFBF725FA0246C2
:104E80000B4610461946FBF7AFFE0346FB603B6836
:104E90007A6903FB02F23B69B2FBF3F3BB607A6809
:104EA000FB6813407B60BB68012B43D8274BD3F8CA
:104EB000A430BA68083253F822103B687A6903FBC1
:104EC00002F2BB68386900FB03F3D31AFA6802FAEE
:104ED00003F3DA431D4BD3F8A4301140BA6808320B
:104EE00043F82210194BD3F8A430BA68083253F8AB
:104EF00022103B687A6903FB02F2BB68386900FB49
:104F000003F3D31A7A689A40104BD3F8A4301143B4
:104F1000BA68083243F822100C4BD3F8A4200B4B8C
:104F2000D3F8A430B968083152F82110BA680832B1
:104F300043F8221000BF1837BD4680BDAFF3008094
:104F400000000000000000400000F03FD8050020F5
:104F500080B584B000AF786039600223FB60F868E8
:104F6000FBF7F0FA02460B4643EC112B9FED220BA8
:104F700002F008F951EC100B4FF00002204BFBF748
:104F8000A3F902460B4610461946FBF72DFE0346D1
:104F9000BB607A68BB6813407B601A4BD3F8C030A3
:104FA00019683B68FA6802FB03F3BA6802FA03F374
:104FB000DA43144BD3F8C0300A401A60114BD3F8CF
:104FC000C03019683B68FA6802FB03F37A689A40BC
:104FD0000C4BD3F8C0300A431A600A4BD3F8C020F8
:104FE000084BD3F8C03012681A6000BF1037BD46B6
:104FF00080BD00BFAFF30080000000000000004053
:105000000000F03FD805002080B584B000AF786084
:1050100039600223FB60F868FBF794FA02460B46FE
:1050200043EC112B9FED220B02F0ACF851EC100B6E
:105030004FF00002204BFBF747F902460B461046A3
:105040001946FBF7D1FD0346BB607A68BB68134085
:105050007B601A4BD3F8C03099683B68FA6802FB52
:1050600003F3BA6802FA03F3DA43144BD3F8C030FF
:105070000A409A60114BD3F8C03099683B68FA68CF
:1050800002FB03F37A689A400C4BD3F8C0300A4312
:105090009A600A4BD3F8C020084BD3F8C03092680E
:1050A0009A6000BF1037BD4680BD00BFAFF30080DF
:1050B00000000000000000400000F03FD805002084
:1050C00080B584B000AF786039600223FB60F86877
:1050D000FBF738FA02460B4643EC112B9FED220BEF
:1050E00002F050F851EC100B4FF00002204BFBF790
:1050F000EBF802460B4610461946FBF775FD0346D2
:10510000BB607A68BB6813407B601A4BD3F8C03031
:10511000D9683B68FA6802FB03F3BA6802FA03F342
:10512000DA43144BD3F8C0300A40DA60114BD3F89D
:10513000C030D9683B68FA6802FB03F37A689A408A
:105140000C4BD3F8C0300A43DA600A4BD3F8C020C6
:10515000084BD3F8C030D268DA6000BF1037BD46C4
:1051600080BD00BFAFF300800000000000000040E1
:105170000000F03FD805002080B483B000AF786015
:10518000054BD3F8C0307A6812049A6100BF0C371F
:10519000BD465DF8047B7047D805002080B483B01D
:1051A00000AF7860054BD3F8C0307A689A6100BFD1
:1051B0000C37BD465DF8047B704700BFD805002062
:1051C00080B586B000AF7860396004237B6120230E
:1051D0003B617869FBF7B6F902460B4643EC112BAD
:1051E0009FED350B01F0CEFF51EC100B4FF000029C
:1051F000334BFBF769F802460B4610461946FBF79E
:10520000F3FC0346FB603B687A6903FB02F23B69EF
:10521000B2FBF3F3BB607A68FB6813407B60BB684A
:10522000012B43D8274BD3F8C030BA68083253F863
:1052300022103B687A6903FB02F2BB68386900FB05
:1052400003F3D31AFA6802FA03F3DA431D4BD3F8D7
:10525000C0301140BA68083243F82210194BD3F815
:10526000C030BA68083253F822103B687A6903FBF1
:1052700002F2BB68386900FB03F3D31A7A689A40DC
:10528000104BD3F8C0301143BA68083243F82210EB
:105290000C4BD3F8C0200B4BD3F8C030B9680831A1
:1052A00052F82110BA68083243F8221000BF1837AC
:1052B000BD4680BDAFF3008000000000000000404C
:1052C0000000F03FD805002080B584B000AF034651
:1052D000FB71FF23FB73324BD3F8DC301B68314A80
:1052E00013602F4BD3F8DC305B682F4A1360FB79D7
:1052F000184601F0C3F80346FB73294BDB681A6FAD
:10530000274BDB6842F400421A67254BD3F8DC30A8
:105310005A6A234BD3F8DC3042F0CA025A62204B5F
:10532000D3F8DC305A6A1E4BD3F8DC3042F053021B
:105330005A621B4BD3F8DC30DA68194BD3F8DC30F7
:1053400042F08002DA6000BF154BD3F8DC30DB6836
:1053500003F04003002BF7D00623FB73104BD3F868
:10536000DC309A680E4BD3F8DC3022F020029A60D1
:105370000B4BD3F8DC30DA68094BD3F8DC3022F081
:105380008002DA60064B9B681A68054B9B6822F422
:1053900080721A60FB7B18461037BD4680BD00BF87
:1053A000D8050020940700209807002080B584B01D
:1053B00000AF0346FB714FF47C13FB60FB791C4A82
:1053C000A2FB0323DB08DBB2184600F075FE0346A0
:1053D000FB72FA79164BA3FB0213D9080B469B000C
:1053E0000B445B00D31ADBB2184600F065FE03469F
:1053F000BB72104BD3F8DC301B680F4A1360FB689C
:10540000DA430D4B1B6813400B4A1360BB7A1A0436
:10541000FB7A1B0513431A46074B1B681343064AC6
:10542000136000F087FF00BF1037BD4680BD00BF8E
:10543000CDCCCCCCD80500209407002080B584B01A
:1054400000AF0346FB714FF4FE43FB60FB791C4A3F
:10545000A2FB0323DB08DBB2184600F02DFE034657
:10546000FB72FA79164BA3FB0213D9080B469B007B
:105470000B445B00D31ADBB2184600F01DFE034656
:10548000BB72104BD3F8DC301B680F4A1360FB680B
:10549000DA430D4B1B6813400B4A1360BB7A1A02A8
:1054A000FB7A1B0313431A46074B1B681343064A38
:1054B000136000F03FFF00BF1037BD4680BD00BF46
:1054C000CDCCCCCCD80500209407002080B584B08A
:1054D00000AF0346FB717F23FB60FB791B4AA2FBF5
:1054E0000323DB08DBB2184600F0E6FD0346FB723F
:1054F000FA79164BA3FB0213D9080B469B000B4409
:105500005B00D31ADBB2184600F0D6FD0346BB722F
:105510000F4BD3F8DC301B680E4A1360FB68DA438C
:105520000C4B1B6813400B4A1360BA7AFB7A1B01C1
:1055300013431A46074B1B681343064A136000F0D7
:10554000F9FE00BF1037BD4680BD00BFCDCCCCCC2E
:10555000D80500209407002080B584B000AF034632
:10556000FB714FF47F03FB60FB79194AA2FB032315
:10557000DB08DBB2184600F09FFD0346FB72FA79A8
:10558000134BA3FB0213D9080B469B000B445B0093
:10559000D31ADBB2184600F08FFD0346BB72FB68DE
:1055A000DA430C4B1B6813400A4A1360BB7A1A0497
:1055B000FB7A1B0513431A46064B1B681343054A27
:1055C000136000F009FF00BF1037BD4680BD00BF6B
:1055D000CDCCCCCC9807002080B584B000AF03467A
:1055E000FB714FF46023FB60FA79124BA3FB0213AB
:1055F000D9080B469B000B445B00D31ADBB218465C
:1056000000F05AFD0346FB72FB68DA430A4B1B6845
:105610001340094A1360FB7A5B031A46064B1B686A
:105620001343054A136000F0D7FE00BF1037BD4694
:1056300080BD00BFCDCCCCCC9807002080B584B015
:1056400000AF0346FB714FF4F853FB60FB79194A36
:10565000A2FB0323DB08DBB2184600F02DFD034656
:10566000FB72FA79134BA3FB0213D9080B469B007C
:105670000B445B00D31ADBB2184600F01DFD034655
:10568000BB72FB68DA430C4B1B6813400A4A136079
:10569000BB7A1A02FB7A1B0313431A46064B1B689C
:1056A0001343054A136000F097FE00BF1037BD4654
:1056B00080BD00BFCDCCCCCC9807002080B584B095
:1056C00000AF0346FB713F23FB60FB79184AA2FB46
:1056D0000323DB08DBB2184600F0EEFC0346FB7246
:1056E000FA79134BA3FB0213D9080B469B000B441A
:1056F0005B00D31ADBB2184600F0DEFC0346BB7237
:10570000FB68DA430B4B1B6813400A4A1360BA7AF2
:10571000FB7A1B0113431A46064B1B681343054AC9
:10572000136000F059FE00BF1037BD4680BD00BFBA
:10573000CDCCCCCC9807002080B483B000AF78608B
:105740003960164B9B681A68144B9B6842F4807250
:105750001A60124BD3F8DC305A6A104BD3F8DC30A5
:1057600042F0CA025A620D4BD3F8DC305A6A0B4B36
:10577000D3F8DC3042F053025A627B683A681A6010
:10578000064B9B681A68054B9B6822F480721A606E
:1057900000BF0C37BD465DF8047B7047D80500207C
:1057A00090B585B000AF7860464BD3F8DC305B68CD
:1057B000FB60FB681B0DDBB203F00F03DAB27B6802
:1057C0001A707B681B78184600F05CFC03461A468A
:1057D0007B681A70FB681B0CDAB27B68013302F03D
:1057E0000F02D2B21A707B6801331A787B685C1C96
:1057F000104600F047FC03462370FB685B0BDAB2EF
:105800007B68023302F00702D2B21A707B6802335F
:105810001A787B689C1C104600F034FC0346237009
:10582000FB681B0BDAB27B68033302F00102D2B2D1
:105830001A707B6803331A787B68DC1C104600F012
:1058400021FC03462370FB681B0ADAB27B68043331
:1058500002F00F02D2B21A707B6804331A787B68A8
:105860001C1D104600F00EFC03462370FB681B094C
:10587000DAB27B68053302F00302D2B21A707B6899
:1058800005331A787B685C1D104600F0FBFB03466D
:105890002370FB68DAB27B68063302F00F02D2B2E3
:1058A0001A707B6806331A787B689C1D104600F0DE
:1058B000E9FB03462370044AFB68136000BF1437FA
:1058C000BD4690BDD80500209807002090B585B052
:1058D00000AF7860464BD3F8DC301B68FB60444B6C
:1058E000D3F8DC30DB6803F02003002B7BD0FB68AF
:1058F0001B0DDBB203F00303DAB27B681A707B681E
:105900001B78184600F0BEFB03461A467B681A70E7
:10591000FB681B0CDAB27B68013302F00F02D2B2D3
:105920001A707B6801331A787B685C1C104600F0A3
:10593000A9FB03462370FB681B0BDAB27B680233BA
:1059400002F00702D2B21A707B6802331A787B68C1
:105950009C1C104600F096FB03462370FB681B0A54
:10596000DAB27B68033302F00F02D2B21A707B689E
:1059700003331A787B68DC1C104600F083FB034677
:105980002370FB681B09DAB27B68043302F007025C
:10599000D2B21A707B6804331A787B681C1D1046DB
:1059A00000F070FB03462370FB68DAB27B680533B6
:1059B00002F00F02D2B21A707B6805331A787B6846
:1059C0005C1D104600F05EFB03462370094AFB682D
:1059D0001360074BD3F8DC30DA68054BD3F8DC30C2
:1059E00022F02002DA6000BF1437BD4690BD00BF30
:1059F000D80500209407002080B400AF1F4BDB685F
:105A00005A6C1E4BDB6842F480725A641B4BD3F80D
:105A100030319A68194BD3F8303142F480629A6081
:105A2000164BD3F850315A68144BD3F8503142F426
:105A300040325A60114BD3F83031DA680F4BD3F84B
:105A4000303142F0E062DA600C4BD3F830315A6802
:105A50000A4BD3F8303142F400625A60074BD3F856
:105A600030315A6B054BD3F8303142F012025A6391
:105A700000BFBD465DF8047B704700BFD80500201D
:105A800080B400AF074BD3F850315A68054BD3F8B8
:105A9000503142F480025A6000BFBD465DF8047B7D
:105AA000704700BFD805002080B400AF074BD3F883
:105AB00050315A68054BD3F8503142F400025A6015
:105AC00000BFBD465DF8047B704700BFD8050020CD
:105AD00080B400AF0C4BD3F830319A680A4BD3F83E
