:020000040800F2
:1000000000000220B51D0008051E0008051E00089E
:10001000051E0008051E0008051E0008000000005F
:10002000000000000000000000000000051E0008A5
:10003000051E000800000000051E000825760008C7
:10004000051E0008051E0008051E0008051E000804
:10005000051E0008051E0008051E0008051E0008F4
:10006000051E0008051E0008051E0008051E0008E4
:10007000051E0008051E0008051E0008051E0008D4
:10008000051E0008051E0008051E0008051E0008C4
:10009000051E0008051E0008051E0008051E0008B4
:1000A000311C0008051E0008051E0008051E00087A
:1000B000051E0008051E0008051E0008051E000894
:1000C000051E0008051E0008051E0008051E000884
:1000D000051E0008051E0008051E0008051E000874
:1000E000051E0008051E0008051E0008051E000864
:1000F000051E0008051E0008051E0008051E000854
:10010000051E0008051E0008051E0008051E000843
:10011000051E0008051E0008051E0008051E000833
:10012000051E0008051E0008051E0008051E000823
:10013000051E00080000000000000000051E000869
:10014000051E0008051E0008051E0008051E000803
:10015000051E0008051E0008051E0008051E0008F3
:10016000051E0008051E0008051E0008051E0008E3
:10017000051E0008051E0008051E000800000000FE
:1001800000000000051E0008000000000000000044
:10019000051E00080000000000000000051E000809
:1001A000000000000000000000000000051E000824
:1001B000051E0008051E0008051E0008051E000893
:0401C000051E000810
:1001D00010B5054C237833B9044B13B10448AFF381
:1001E00000800123237010BD680000200000000083
:1001F0005C8F000808B5034B1BB103490348AFF3FC
:10020000008008BD000000006C0000205C8F00082A
:10021000034613F8012B002AFBD1181A0138704746
:1002200001F0FF01102A2BDB10F0070F08D010F8A7
:10023000013B013A8B422DD010F0070F42B3F6D1AB
:10024000F0B441EA012141EA014122F007047FF0C4
:1002500000070023F0E80256083C85EA010586EA1B
:10026000010685FA47F5A3FA87F586FA47F6A5FA57
:1002700087F68EB9EED1F0BC01F0FF0102F0070263
:1002800032B110F8013B013A83EA010313B1F8D10E
:100290000020704701387047002D06BF35460338EF
:1002A000073815F0010F07D1013015F4807F02BF28
:1002B000013015F4C03F0130F0BC0138704700BF79
:1002C00081F0004102E000BF83F0004330B54FEA07
:1002D00041044FEA430594EA050F08BF90EA020F74
:1002E0001FBF54EA000C55EA020C7FEA645C7FEA07
:1002F000655C00F0E2804FEA5454D4EB5555B8BF2A
:100300006D420CDD2C4480EA020281EA030382EA9A
:10031000000083EA010180EA020281EA0303362D2C
:1003200088BF30BD11F0004F4FEA01314FF4801CFF
:100330004CEA113102D0404261EB410113F0004F11
:100340004FEA03334CEA133302D0524263EB4303C8
:1003500094EA050F00F0A780A4F10104D5F1200E66
:100360000DDB02FA0EFC22FA05F2801841F10001C1
:1003700003FA0EF2801843FA05F359410EE0A5F195
:1003800020050EF1200E012A03FA0EFC28BF4CF0C6
:10039000020C43FA05F3C01851EBE37101F000457C
:1003A00007D54FF0000EDCF1000C7EEB00006EEB89
:1003B0000101B1F5801F1BD3B1F5001F0CD3490813
:1003C0005FEA30004FEA3C0C04F101044FEA44526A
:1003D00012F5800F80F09A80BCF1004F08BF5FEAF1
:1003E000500C50F1000041EB045141EA050130BDD1
:1003F0005FEA4C0C404141EB0101013C28BFB1F5E3
:10040000801FE9D291F0000F04BF01460020B1FA2D
:1004100081F308BF2033A3F10B03B3F120020CDA00
:100420000C3208DD02F1140CC2F10C0201FA0CF0DE
:1004300021FA02F10CE002F11402D8BFC2F1200C43
:1004400001FA02F120FA0CFCDCBF41EA0C019040F9
:10045000E41AA2BF01EB0451294330BD6FEA040442
:100460001F3C1CDA0C340EDC04F11404C4F120022D
:1004700020FA04F001FA02F340EA030021FA04F33F
:1004800045EA030130BDC4F10C04C4F1200220FA96
:1004900002F001FA04F340EA0300294630BD21FAD4
:1004A00004F0294630BD94F0000F83F4801306BF9A
:1004B00081F480110134013D4EE77FEA645C18BF8E
:1004C0007FEA655C29D094EA050F08BF90EA020F25
:1004D00005D054EA000C04BF1946104630BD91EA1D
:1004E000030F1EBF0021002030BD5FEA545C05D120
:1004F0004000494128BF41F0004130BD14F580045F
:100500003CBF01F5801130BD01F0004545F0FE41D2
:1005100041F470014FF0000030BD7FEA645C1ABF07
:10052000194610467FEA655C1CBF0B46024650EA3E
:10053000013406BF52EA033591EA030F41F400216A
:1005400030BD00BF90F0000F04BF0021704730B5F0
:100550004FF4806404F132044FF000054FF00001C5
:1005600050E700BF90F0000F04BF0021704730B586
:100570004FF4806404F1320410F0004548BF40425B
:100580004FF000013EE700BF42004FEAE2014FEAB0
:1005900031014FEA02701FBF12F07F4393F07F4F8B
:1005A00081F06051704732F07F4208BF704793F08E
:1005B0007F4F04BF41F40021704730B54FF46074A1
:1005C00001F0004521F000411CE700BF50EA0102A4
:1005D00008BF704730B54FF000050AE050EA01024D
:1005E00008BF704730B511F0004502D5404261EBBD
:1005F00041014FF4806404F132045FEA915C3FF4FE
:10060000D8AE4FF003025FEADC0C18BF03325FEA9A
:10061000DC0C18BF033202EBDC02C2F1200300FA4B
:1006200003FC20FA02F001FA03FE40EA0E0021FA70
:1006300002F11444BDE600BF70B54FF0FF0C4CF45E
:10064000E06C1CEA11541DBF1CEA135594EA0C0F10
:1006500095EA0C0F00F0DEF82C4481EA030621EA4B
:100660004C5123EA4C5350EA013518BF52EA033586
:1006700041F4801143F4801338D0A0FB02CE4FF038
:100680000005E1FB02E506F00042E0FB03E54FF068
:100690000006E1FB03569CF0000F18BF4EF0010E60
:1006A000A4F1FF04B6F5007F64F5407404D25FEA5C
:1006B0004E0E6D4146EB060642EAC62141EA55510F
:1006C0004FEAC52040EA5E504FEACE2EB4F1FD0C51
:1006D00088BFBCF5E06F1ED8BEF1004F08BF5FEACF
:1006E000500E50F1000041EB045170BD06F0004681
:1006F00046EA010140EA020081EA0301B4EB5C042E
:10070000C2BFD4EB0C0541EA045170BD41F4801125
:100710004FF0000E013C00F3AB8014F1360FDEBF4A
:10072000002001F0004170BDC4F10004203C35DA26
:100730000C341BDC04F11404C4F1200500FA05F3A9
:1007400020FA04F001FA05F240EA020001F000424A
:1007500021F0004110EBD37021FA04F642EB0601C0
:100760005EEA430E08BF20EAD37070BDC4F10C04EA
:10077000C4F1200500FA04F320FA05F001FA04F2AE
:1007800040EA020001F0004110EBD37041F100019A
:100790005EEA430E08BF20EAD37070BDC4F12005A5
:1007A00000FA05F24EEA020E20FA04F301FA05F20D
:1007B00043EA020321FA04F001F0004121FA04F2B5
:1007C00020EA020000EBD3705EEA430E08BF20EA85
:1007D000D37070BD94F0000F0FD101F000464000BF
:1007E00041EB010111F4801F08BF013CF7D041EA41
:1007F000060195F0000F18BF704703F00046520045
:1008000043EB030313F4801F08BF013DF7D043EA15
:100810000603704794EA0C0F0CEA135518BF95EACB
:100820000C0F0CD050EA410618BF52EA4306D1D152
:1008300081EA030101F000414FF0000070BD50EA71
:10084000410606BF1046194652EA430619D094EAFB
:100850000C0F02D150EA013613D195EA0C0F05D1E5
:1008600052EA03361CBF104619460AD181EA030139
:1008700001F0004141F0FE4141F470014FF00000F1
:1008800070BD41F0FE4141F4780170BD70B54FF08C
:10089000FF0C4CF4E06C1CEA11541DBF1CEA13550C
:1008A00094EA0C0F95EA0C0F00F0A7F8A4EB0504EE
:1008B00081EA030E52EA03354FEA013100F08880E5
:1008C0004FEA03334FF0805545EA131343EA1263AE
:1008D0004FEA022245EA111545EA10654FEA002663
:1008E0000EF000419D4208BF964244F1FD0404F51C
:1008F000407402D25B084FEA3202B61A65EB030578
:100900005B084FEA32024FF480104FF4002CB6EB34
:10091000020E75EB030E22BFB61A754640EA0C00B4
:100920005B084FEA3202B6EB020E75EB030E22BFF4
:10093000B61A754640EA5C005B084FEA3202B6EB35
:10094000020E75EB030E22BFB61A754640EA9C00F4
:100950005B084FEA3202B6EB020E75EB030E22BFC4
:10096000B61A754640EADC0055EA060E18D04FEA82
:10097000051545EA16754FEA06164FEAC30343EA22
:1009800052734FEAC2025FEA1C1CC0D111F4801FEF
:100990000BD141EA00014FF000004FF0004CB6E7E8
:1009A00011F4801F04BF01430020B4F1FD0C88BF87
:1009B000BCF5E06F3FF6AFAEB5EB030C04BFB6EB92
:1009C000020C5FEA500C50F1000041EB045170BD85
:1009D0000EF0004E4EEA113114EB5C04C2BFD4EBB2
:1009E0000C0541EA045170BD41F480114FF0000E36
:1009F000013C90E645EA060E8DE60CEA135594EAB2
:100A00000C0F08BF95EA0C0F3FF43BAF94EA0C0FB4
:100A10000AD150EA01347FF434AF95EA0C0F7FF429
:100A200025AF104619462CE795EA0C0F06D152EA7D
:100A300003353FF4FDAE1046194622E750EA410661
:100A400018BF52EA43067FF4C5AE50EA41047FF472
:100A50000DAF52EA43057FF4EBAE12E74FF0FF3CD7
:100A600006E000BF4FF0010C02E000BF4FF0010CA8
:100A70004DF804CD4FEA410C7FEA6C5C4FEA430C21
:100A800018BF7FEA6C5C1BD001B050EA410C0CBF70
:100A900052EA430C91EA030F02BF90EA020F0020D2
:100AA000704710F1000F91EA030F58BF994208BF39
:100AB00090422CBFD8176FEAE37040F001007047F6
:100AC0004FEA410C7FEA6C5C02D150EA013C07D14D
:100AD0004FEA430C7FEA6C5CD6D152EA033CD3D098
:100AE0005DF8040B704700BF8446104662468C4692
:100AF0001946634600E000BF01B5FFF7B7FF0028C5
:100B000048BF10F1000F01BD4DF808EDFFF7F4FFED
:100B10000CBF012000205DF808FB00BF4DF808ED78
:100B2000FFF7EAFF34BF012000205DF808FB00BF9B
:100B30004DF808EDFFF7E0FF94BF012000205DF8BD
:100B400008FB00BF4DF808EDFFF7CEFF94BF012072
:100B500000205DF808FB00BF4DF808EDFFF7C4FF6B
:100B600034BF012000205DF808FB00BF4FEA410CB4
:100B70007FEA6C5C02D150EA013C0AD14FEA430C97
:100B80007FEA6C5C02D152EA033C02D14FF00000D4
:100B900070474FF0010070474FEA410212F5001212
:100BA00015D211D56FF47873B3EB625212D94FEAB4
:100BB000C12343F0004343EA505311F0004F23FA9E
:100BC00002F018BF404270474FF00000704750EAF3
:100BD000013005D111F0004008BF6FF000407047B0
:100BE0004FF00000704700BF4A0011D212F500120A
:100BF00011D20DD56FF47873B3EB62520ED44FEA75
:100C0000C12343F0004343EA505323FA02F07047F4
:100C10004FF00000704750EA013002D14FF0FF3032
:100C200070474FF000007047B0B5ADF52A7D02AFB8
:100C30004FF000024FF00003C7E9A4230023C7F8D8
:100C40008C323C23C7F888329B4C3B46184602F056
:100C5000CBFE07F52873A3F52873204619464FF4F9
:100C600001731A4606F016FD934BD3F8B03198473E
:100C700000F016FA00F036FA904C3B46184601F0A8
:100C800035FB07F52873A3F52873204619469023F2
:100C90001A4606F0FFFC8A4C3B46184601F092FAD1
:100CA00007F52873A3F528731D460FCD0FC495E8EB
:100CB000070084E80700834C3B46184601F082FA9F
:100CC00007F52873A3F528731D460FCD0FC495E8CB
:100CD000070084E807007C4C3B46184601F072FA96
:100CE00007F52873A3F528731D460FCD0FC495E8AB
:100CF000070084E80700754C3B4607F51872202171
:100D0000184601F09DF907F52873A3F528731D46D1
:100D10000FCD0FC40FCD0FC42B6823606C4C3B4626
:100D200007F510722021184601F08AF907F528739B
:100D3000A3F528731D460FCD0FC40FCD0FC42B682C
:100D40002360644B03221A70634B00221A70634BBA
:100D500000221A80624B00221A70574B1B6F1946F3
:100D6000554B1B6F03F114025E4C38460023019370
:100D700001230093022301F047F807F52873A3F538
:100D80002872234607CA83E807004B4B5A6D564C1E
:100D90003B461146184602F0D9F907F52873A3F52A
:100DA00028731D460FCD0FC40FCD0FC495E8070063
:100DB00084E80700404BD3F87C3198473E4BD3F88A
:100DC000843198473C4BD3F8883198473A4BD3F855
:100DD000E43001209847384BD3F89C314FF4165239
:100DE0009FED330B102108209847334BD3F8A031E7
:100DF0009847314BD3F8A43198470023C7F8843281
:100E00000023C7F89C32D7F89C3203F00703C7F8D9
:100E10008432D7F88432002B1BD1294B9B69264A98
:100E2000926B1269114626489847264B9B69224AC5
:100E3000526D1269114623489847234B9B691E4AFD
:100E4000126F1269114620489847274B9B6A9847B2
:100E50000CE1D7F88432012B02D100F083F905E1CF
:100E6000D7F88432022B40F085801F4B5B6A00214B
:100E700001209847D7F88832D7F88C229A4235D289
:100E80000D4BD3F88C31984753EC102BD7E9A401C4
:100E9000FFF71CFA02460B46C7E9A423064BD3F81A
:100EA00090319847D7F88C320133C7F88C32DDE0A7
:100EB000000000000000F03F8400002088020020B5
:100EC000180300203403002050030020A403002056
:100ED000C8030020EC030020F8030020FA030020E0
:100EE000FC0300206C03002078030020D7F8880260
:100EF000FFF738FB02460B46D7E9A401FFF7C6FC13
:100F000002460B46C7E9A42361A3D3E90023D7E92E
:100F1000A401FFF7BBFC02460B46104619465EA330
:100F2000D3E90023FFF7D0F902460B4610461946D5
:100F30004FF00002504BFFF7C9F902460B46C7E9D4
:100F4000A4234E4B9C694E4BD3F8FC51D7E9A40126
:100F5000FFF74AFE034607F50270DF220092494A76
:100F60000621A847034606211846A0470023C7F8D4
:100F70008C327BE0D7F88432032B60D1404BD3F81E
:100F800098311B6803F04003002B10D03E4B5B6987
:100F90003D489847034687F8833297F88332002B01
:100FA00005D0374BD3F8983197F883225A60344BE9
:100FB000D3F898311B6803F02003002B4FD0304B3F
:100FC000D3F898315B6887F8823297F88232002B29
:100FD0002AD02E4B9B6997F8822211462B489847BE
:100FE00097F882320D2B1FD1284B1B6A07F5087228
:100FF000114626489847214B5B6A062101209847F5
:1010000007F508731846FFF703F90346013B03F59C
:1010100028733B44002203F8802C184B9B6907F58A
:1010200008720E2110469847154BD3F898311A686C
:10103000134BD3F8983122F020021A600FE0D7F852
:101040008432042B0DD0D7F88432052B0BD0D7F87F
:101050008432062B09D0D7F88432072B06E000BF74
:1010600004E000BF02E000BF00E000BFD7F89C3200
:101070000133C7F89C32C6E60000394078030020EF
:1010800084000020788F0008A4030020C8030020FB
:10109000CDCCCCCCCCCC0840638C31C6180373408B
:1010A00080B500AF0E4BDB681A6B0D4BDB6842F06E
:1010B00007021A630A4BDB6B052101209847084B96
:1010C0005B6C052100209847054B5B6F0D210020CC
:1010D0009847034BDB6F0D210120984700BF80BD6F
:1010E0008400002080B400AF1D4BDB685A6C1C4BA1
:1010F000DB6842F480325A64194BD3F85C311A68C9
:10110000174BD3F85C3142F080721A60144BD3F85D
:1011100070314BF2DF12DA62114BD3F8703141F6C5
:101120006A525A630E4BD3F8703114229A620C4BF8
:10113000D3F87031DA680A4BD3F8703142F0030209
:10114000DA60074BD3F870311A68054BD3F8703169
:1011500042F081021A6000BFBD465DF8047B704713
:1011600084000020F0B585B004AF554B1B78013BDF
:10117000082B00F2248501A252F823F0A1110008E7
:10118000FD1200081B1400088515000877160008DA
:10119000B1170008A3180008DD190008CF1A0008CD
:1011A000484B5B6A002100209847464B9B69102101
:1011B00045489847454BD3F8083145489847414B37
:1011C0005B6A0021032098473E4B9C69414BD3F852
:1011D0008C503F4B1B7818463D4B5B781E463C4B72
:1011E0009B789C463A4BDB781A46394B1B7919465B
:1011F000374B5B7902930191009263463246014678
:101200003548A847034611211846A0472F4BD3F86D
:10121000C041324B5869314B1969314B1B880D2243
:10122000A04703462F4A13602E4B1B68052B28D975
:101230002C4B1B680A2B24D82B4BDC69254BD3F88D
:101240008C502A4B5B791846284B9B791E46274BBE
:10125000DB789C46254B1B791A46244B1B78194694
:10126000224B5B780293019100926346324601461D
:101270001F48A847034619461B48A047104B0222A7
:101280001A70184B1B680A2B0BD9164B1B681D2BA9
:1012900007D8154BDB69174913489847084B0422B8
:1012A0001A70104B1B68282B40F28B840E4BDB69A5
:1012B00011490D489847024B03221A7000F081BC77
:1012C000EC03002078030020808F000884000020B9
:1012D0000004002088020020888F000850030020AE
:1012E000FA030020F4030020A403002008040020D7
:1012F000A08F0008BC8F0008CC8F00088E4B5B6A63
:101300000021002098478C4B9B6910218B489847FF
:101310008B4BD3F804318B489847874B5B6A00218D
:1013200003209847844B9C69874BD3F88C50854B9E
:101330005B791846834B9B791E46824BDB789C4633
:10134000804B1B791A467F4B1B7819467D4B5B7887
:101350000293019100926346324601467B48A847BA
:10136000034611211846A047754BD3F8C041784B6E
:101370005869774B1969774B1B880D22A0470346A4
:10138000754A1360744B1B68052B28D9724B1B6878
:101390000A2B24D8714BDC696B4BD3F88C50704B03
:1013A0001B7818466E4B5B781E466D4B9B789C46AF
:1013B0006B4BDB781A466A4B1B791946684B5B7995
:1013C0000293019100926346324601466548A84760
:1013D000034619466148A047634B01221A705E4BD1
:1013E0001B680A2B0BD95C4B1B681D2B07D85B4B6A
:1013F000DB695E49594898475B4B07221A70564B88
:101400001B68282B40F2DF83544BDB695849534853
:101410009847554B03221A70D5E3474B5B6A00216E
:1014200000209847444B9B690A2152489847444BF7
:10143000D3F80431434898473F4B5B6A00210220B0
:1014400098473D4B9C69404BD3F88C503D4B5B79A2
:1014500018463C4B9B791E463A4BDB789C46394BF1
:101460001B791A46374B1B781946364B5B7802932B
:10147000019100926346324601463448A84703462C
:1014800011211846A0472E4BD3F80831344898470D
:10149000294B5B6A002103209847274B9C692A4B04
:1014A000D3F88C502E4B1B7818462D4B5B781E467C
:1014B0002B4B9B789C462A4BDB781A46284B1B7992
:1014C0001946274B5B79029301910092634632469D
:1014D00001462948A847034611211846A047184B42
:1014E000D3F8C0411A4B5869194B1969194B1B881D
:1014F0000D22A0470346282B40F267830E4B5B6A00
:101500000021022098470C4B9B6911211B489847EA
:10151000094B5B6A002103209847074B9B690F2109
:10152000164898470D4BDB6915490C4898470E4BF8
:1015300001221A7049E300BF78030020DC8F000805
:10154000840000200804002088020020E48F0008A6
:1015500050030020FA030020F4030020A40300201D
:1015600000040020FC8F0008EC0300201490000809
:10157000CC8F000824900008888F00083090000865
:1015800034900008784B5B6A002100209847764B26
:101590009B69102175489847754BD3F8C041754B2E
:1015A0005869744B1969744B1B880D22A047034678
:1015B000724A1360714B1B68002B23D06F4B1B6862
:1015C000052B1FD86E4B1B780133DAB26C4B1A70A7
:1015D0006B4B1B78172B02D9694B00221A70624B98
:1015E0005B6A0021022098475F4B9C69654BD3F8EA
:1015F0008C30634A1278114663489847034610219D
:101600001846A0475D4B1B680A2B15D95B4B1B681E
:10161000132B11D8544B5B6A002102209847524B80
:101620009B69102159489847594BDB6959495848DB
:101630009847594B05221A70504B1B68132B40F2E8
:10164000C682494B5B6A002102209847464B9B6942
:1016500010214E4898474E4BDB6950494C489847FB
:101660004D4B01221A70424BD3F8F830444A12789D
:1016700010469847ABE23C4B5B6A0021002098473C
:10168000394B9B69102146489847394BD3F8C041E4
:10169000384B5869374B1969374B1B880D22A047C7
:1016A0000346364A1360354B1B68002B23D0334B5F
:1016B0001B68052B1FD83B4B1B780133DAB2394B23
:1016C0001A70384B1B783B2B02D9364B00221A700C
:1016D000254B5B6A002102209847234B9C69294BCC
:1016E000D3F88C302F4A127811462F48984703467A
:1016F00010211846A047214B1B680A2B15D91F4BF8
:101700001B68132B11D8184B5B6A002102209847E5
:10171000154B9B6910211D4898471D4BDB692349D8
:101720001B4898471C4B06221A70144B1B68132B3E
:1017300040F24F820C4B5B6A0021022098470A4B13
:101740009B69102111489847114BDB6913491048D8
:101750009847114B01221A70054BD3F8FC30114AFF
:1017600012781046984734E2780300204090000831
:101770008400002050030020FA030020F40300201E
:10178000ED030020880200205090000830900008EF
:10179000A40300205C900008EC03002034900008B3
:1017A00070900008EE030020809000088C900008E4
:1017B000784B5B6A002100209847764B9B6910218B
:1017C00075489847754BD3F8C041754B5869744BB1
:1017D0001969744B1B880D22A0470346724A136097
:1017E000714B1B68002B23D06F4B1B68052B1FD838
:1017F0006E4B1B780133DAB26C4B1A706B4B1B7853
:101800003B2B02D9694B00221A70624B5B6A0021A4
:10181000022098475F4B9C69654BD3F88C30634A34
:101820001278114663489847034610211846A0478E
:101830005D4B1B680A2B15D95B4B1B68132B11D80A
:10184000544B5B6A002102209847524B9B69102140
:1018500059489847594BDB69594958489847594B5B
:1018600001221A70504B1B68132B40F2B481494B74
:101870005B6A002102209847464B9B6910214E4825
:1018800098474E4BDB694E494C4898474D4B0122D7
:101890001A70424BD3F80031444A127810469847E8
:1018A00099E13C4B5B6A002100209847394B9B69CA
:1018B000102145489847394BD3F8C041384B5869F7
:1018C000374B1969374B1B880D22A0470346364A10
:1018D0001360354B1B68002B23D0334B1B68052B43
:1018E0001FD83A4B1B780133DAB2384B1A70374B9A
:1018F0001B78632B02D9354B00221A70254B5B6A8B
:10190000002102209847234B9C69294BD3F88C3047
:101910002E4A127811462E48984703461021184641
:10192000A047214B1B680A2B15D91F4B1B68132B93
:1019300011D8184B5B6A002102209847154B9B6910
:1019400010211D4898471D4BDB6922491B489847C9
:101950001C4B08221A70144B1B68132B40F23D815C
:101960000C4B5B6A0021022098470A4B9B691021AF
:1019700011489847114BDB69174910489847114B9C
:1019800002221A70054BD3F8F430104A1278104630
:10199000984722E178030020A090000884000020EE
:1019A00050030020FA030020F4030020EF0300207E
:1019B00088020020B490000830900008A4030020A2
:1019C00034900008EC030020C0900008F0030020D1
:1019D000CC900008D4900008E4900008834B5B6A28
:1019E000002100209847814B9B691021804898472F
:1019F000804BD3F8C041804B58697F4B19697F4BAE
:101A00001B880D22A04703467D4A13607C4B1B6850
:101A1000002B23D07A4B1B68052B1FD8794B1B78E2
:101A20000133DAB2774B1A70764B1B780C2B02D944
:101A3000744B01221A706D4B5B6A0021022098479B
:101A40006A4B9C69704BD3F88C306E4A1278114601
:101A50006E489847034610211846A047684B1B68FC
:101A60000A2B15D9664B1B68132B11D85F4B5B6A89
:101A70000021022098475D4B9B69102164489847DC
:101A8000644BDB69644963489847644B09221A70C8
:101A90005B4B1B68132B40F2A280544B5B6A002106
:101AA00002209847514B9B69102159489847594B40
:101AB000DB695B4957489847584B02221A704D4BD7
:101AC000D3F8EC304F4A12781046984787E0474BDE
:101AD0005B6A002100209847444B9B6910215148C4
:101AE0009847444BD3F8C041434B5869424B19695E
:101AF000424B1B880D22A0470346414A1360404BCE
:101B00001B68002B23D03E4B1B68052B1FD8464B70
:101B10001B780133DAB2444B1A70434B1B781F2BEE
:101B200002D9414B01221A70304B5B6A002102201E
:101B300098472E4B9C69344BD3F88C303A4A127834
:101B400011463A489847034610211846A0472C4BA7
:101B50001B680A2B15D92A4B1B68132B11D8234B52
:101B60005B6A002102209847204B9B69102128487E
:101B70009847284BDB692A4926489847274B022279
:101B80001A701F4B1B68132B2BD9184B5B6A002153
:101B900002209847154B9B6910211D4898471D4B03
:101BA000DB691F491B4898471C4B02221A70114BD6
:101BB000D3F8E8301C4A12781046984711E000BF6D
:101BC00010E000BF0EE000BF0CE000BF0AE000BF65
:101BD00008E000BF06E000BF04E000BF02E000BF75
:101BE00000E000BF00BF0437BD46F0BD7803002011
:101BF000EC9000088400002050030020FA0300202D
:101C0000F40300200000002088020020F890000863
:101C100030900008A403002000910008EC0300208D
:101C2000E490000810910008010000201C910008B9
:101C300080B500AF364BD3F870311B6903F0010358
:101C4000002B50D0324BD3F870311A69304BD3F897
:101C5000703122F001021A612E4B1B78002B1ED02E
:101C60002B4BDB6C202098472B4B5B682B4A92F95F
:101C70000010CAB2013AD2B250B2284A1070012202
:101C80008A40D2B2D243D2B210469847234B93F93E
:101C90000030002B21DA1F4B00221A701DE01C4B74
:101CA0001B6D202098471C4B5B681C4A92F9001062
:101CB000CAB20132D2B250B2184A107001228A4020
:101CC000D2B2D243D2B210469847144B93F90030A7
:101CD000072B02DD0F4B01221A70114B1B880133B9
:101CE0009AB20F4B1A800A4BD3F870311B6903F07C
:101CF0000203002B09D0064BD3F870311A69044B4C
:101D0000D3F8703122F002021A6100BF80BD00BF1B
:101D100084000020FC0300206C030020F803002056
:101D2000FA03002080B586B000AF7860144A154BE6
:101D3000D31A7B617B693B61134B1B68002B02D17B
:101D4000114B124A1A60104B1A687B6813443A69A7
:101D50009A4207D205F074FC03460C221A604FF039
:101D6000FF3309E0084B1B68FB60074B1A687B6870
:101D70001344054A1360FB6818461837BD4680BDFA
:101D800000000220000400001004002000090020D0
:101D900080B400AF064BD3F88830054A43F4700393
:101DA000C2F8883000BFBD465DF8047B704700BFB5
:101DB00000ED00E0DFF834D00D480E490E4A002354
:101DC00002E0D458C4500433C4188C42F9D30B4AEF
:101DD0000B4C002301E013600432A242FBD3FFF757
:101DE000D7FF05F033FCFEF71FFF7047000002200D
:101DF0000000002068000020F89100086800002022
:101E0000FC080020FEE7000090B488B000AFF86046
:101E1000B9607A60FB70384ABB681360374A7B68E8
:101E20001360374AFB781370364A97F828301370DE
:101E3000354A97F82C3013702F4B1B681A68FB78C3
:101E40005B000321994097F828305B00032000FADB
:101E500003F3194397F82C305B00032000FA03F3D7
:101E60000B43DB431946244B1B680A401A60224B84
:101E70001B681A68FB785B000121994097F82830AD
:101E80005B00012000FA03F3194397F82C305B0044
:101E9000012000FA03F30B431946174B1B680A4352
:101EA0001A60164B1B681A68FB780121994097F855
:101EB0002830012000FA03F3194397F82C30012051
:101EC00000FA03F30B43DB4319460C4B1B680A4033
:101ED0001A600E4B7B610E4BBB610E4BFB61FB68C6
:101EE0001C4607F1140393E8070084E80700F8682C
:101EF0002037BD4690BC7047140400201804002011
:101F00001C0400201D0400201E040020191F0008CE
:101F1000B11F0008F51F000880B483B000AF03466E
:101F2000FB71FB79002B0DD01E4B1B681A681E4BF2
:101F30001B78194601238B4019461A4B1B680A432C
:101F40001A600DE0174B1B681A68174B1B7819466F
:101F500001238B40DB431946124B1B680A401A6071
:101F6000104B1B681A68114B1B78194601238B40D4
:101F700019460C4B1B680A431A600A4B1B681A6807
:101F80000A4B1B78194601238B40DB431946054B4E
:101F90001B680A401A6000BF0C37BD465DF8047B21
:101FA000704700BF180400201C0400201D040020FE
:101FB00080B584B000AF0346FB710023FB730FE0D4
:101FC000FB7B012202FA03F35AB297F90730134060
:101FD0005BB2DBB21846FFF79FFFFB7B0133FB735D
:101FE000FB7B072BECD900F005F800BF1037BD468E
:101FF00080BD000080B400AF0F4B1B681A680F4B08
:102000001B78194601238B4019460B4B1B680A436A
:102010001A60094B1B681A68084B1B781946012384
:102020008B40DB431946044B1B680A401A6000BF13
:10203000BD465DF8047B7047180400201E04002094
:10204000B0B48FB000AFF8600B467A60FB72134BF0
:1020500000221A707B68FB61FB69BB61BB697B6115
:102060007B683B62FB7A013B7A6813447B620C4BD2
:10207000BB620C4BFB620C4B3B630C4B7B63FB6802
:102080001D4607F114040FCC0FC50FCC0FC52368F4
:102090002B60F8683C37BD46B0BC70471F04002079
:1020A000B1200008032100084F2100088F210008FB
:1020B00080B485B000AF78607B681B68FB607B688C
:1020C0001B69FA689A4203D17B68DB68BB6002E057
:1020D000FB680133BB607B685B68FA689A4203D196
:1020E000FB6800221A7004E07B68BA681A60BB685B
:1020F000FB60FB681B7818461437BD465DF8047B0F
:10210000704780B485B000AF78600B46FB707B6889
:102110005B68BB607B681B69BA689A4203D17B68C5
:10212000DB68FB6002E0BB680133FB607B681B6817
:10213000FA689A4205D0FB68FA781A707B68FA68E8
:102140005A6000BF1437BD465DF8047B704790B5F8
:1021500085B000AF786039600023FB730AE0FB7B39
:102160005A1CFA731A463B6813441B781946786860
:10217000FFF7C7FFFC7B3868FEF74AF803460133D8
:102180009C42ECD300BF00BF1437BD4690BD90B554
:1021900085B000AF786039600023FB7300BFFB7B24
:1021A0005A1CFA731A463B689C187868FFF780FF40
:1021B000034623702378002BF1D100BF00BF1437F2
:1021C000BD4690BDB0B48BB000AF78600023FB601B
:1021D00000233B61084B7B627B681D4607F10C04C2
:1021E0000FCC0FC594E8070085E8070078682C3706
:1021F000BD46B0BC704700BFFD21000880B582B06D
:1022000000AF786039607B685A687B681A607B68C9
:102210003A685A60786800F019F802467B689A605C
:10222000786800F024F802467B68DA60786800F08D
:1022300030F802467B681A61786800F040F8024680
:102240007B685A6100BF0837BD4680BD80B485B049
:1022500000AF78607B681A687B685B681340FB603E
:10226000FB6818461437BD465DF8047B704780B4A0
:1022700085B000AF78607B681A687B685B68134341
:10228000FB60FB68DB4318461437BD465DF8047BF2
:10229000704780B485B000AF78607B681A687B684F
:1022A0005B685340FB607B685B68FA681340FB60C7
:1022B000FB6818461437BD465DF8047B704780B450
:1022C00085B000AF78607B685A687B681B685340B4
:1022D000FB607B681B68FA681340FB60FB6818466C
:1022E0001437BD465DF8047B7047000080B5A6B08A
:1022F00000AF78602E4B002283F85F202D4BBB602F
:102300002D4BFB602D4B3B612D4B7B612D4BBB61FE
:102310002D4BFB612D4B3B622D4B7B622D4BBB62EA
:102320002D4BFB622D4B3B632D4B7B632D4BBB63D6
:102330002D4BFB632D4B3B642D4B7B642D4BBB64C2
:102340002D4BFB642D4B3B652D4B7B652D4BBB65AE
:102350002D4BFB652D4B3B662D4B7B662D4BBB669A
:102360002D4BFB662D4B3B672D4B7B672D4BBB6786
:102370002D4BFB672D4BC7F880302D4BC7F88430B1
:102380002C4BC7F888302C4BC7F88C302B4BC7F838
:1023900090302B4BC7F894307B68184607F1080340
:1023A0009022194605F076F978689837BD4680BDC9
:1023B000200400207D2B0008AB2B000849240008D6
:1023C000CD240008F72400083125000893250008D3
:1023D000D92600087D270008452600081528000892
:1023E000752800089F280008D9280008352900080A
:1023F0005929000883290008C5290008092A00086E
:10240000592A00089D2A0008D12A0008452B0008F7
:10241000072C0008392C00087D2C0008CB2C000864
:10242000052D0008292E0008A52F000831300008CE
:102430005530000879300008B1300008E930000854
:10244000113100080000000080B588B000AFF860CE
:10245000B9601346FB71FB791846FEF773F8024624
:102460000B4643EC112B9FED160B05F05DFE51EC76
:10247000100B4FF00002144BFDF726FF02460B46EF
:1024800010461946FEF7B0FB0346FB61FA68FB698C
:102490001340FB60BA68FB691340BB60BA68FB6815
:1024A0005340BB61BA69BB6813407B61FB797A69B1
:1024B0009A40BB69134318462037BD4680BD00BF14
:1024C00000000000000000400000F03F80B485B034
:1024D00000AF786039607B681B68FB603B681A68F6
:1024E0007B681A603B68FA681A6000BF1437BD4603
:1024F0005DF8047B704780B485B000AF78603960C8
:102500000023FB6002E0FB680133FB60FB683A6874
:102510001A44FB6879680B4412781A701B78002BF8
:10252000F1D100BF00BF1437BD465DF8047B704792
:1025300080B485B000AF786039600023FB60002371
:10254000BB6015E0FB687A6813441B781A463B6849
:1025500093420AD0FB687A681A44BB68591CB96078
:1025600019467B680B4412781A70FB680133FB60D4
:10257000FB687A6813441B78002BE3D1BB687A6848
:10258000134400221A7000BF1437BD465DF8047B67
:10259000704780B487B000AF786039603B68DA0F6D
:1025A00013445B107B6142E07B693B6136E03A6932
:1025B0007B69D31AFB601DE0FB689B007A681344BB
:1025C0001B68BB60FA687B6913449B007A681A44F5
:1025D000FB689B0079680B4412681A60FA687B6993
:1025E00013449B007A681344BA681A60FA687B69DE
:1025F000D31AFB60FB68002B0DDBFB689B007A683D
:1026000013441A68F9687B690B449B0079680B4492
:102610001B689A42D0DC3B6901333B613A693B68F5
:102620009A42C4DB7B69DA0F13445B107B617B69E0
:10263000002BB9DC00BF00BF1C37BD465DF8047B32
:102640007047000080B584B000AF78607B68BB60E5
:10265000BB68002B02DA7B685B427B600023FB7364
:102660007A681B4B83FB02139910D317C91A0B46C8
:102670009B000B445B00D11ACAB2FB7B591CF97357
:10268000194602F13003DAB2124B5A547B68104AF1
:1026900082FB03129210DB17D31A7B607B68002B3E
:1026A000DEDCBB68002B06DAFB7B5A1CFA731A4689
:1026B000084B2D219954FB7B064A0021D154054833
:1026C00000F073FA034B18461037BD4680BD00BFBB
:1026D000676666662004002080B584B000AF0346BC
:1026E000FB80FB88BB81B7F90C30002B03DAFB8839
:1026F0005B429BB2FB800023FB73B7F906201D4BA6
:1027000083FB02139910D317C91A0B469B000B4485
:102710005B00D31A1BB2DAB2FB7B591CF973194662
:1027200002F13003DAB2144B5A54B7F90630114AA9
:1027300082FB03129210DB17D31AFB80B7F9063025
:10274000002BDADCB7F90C30002B06DAFB7B5A1CC5
:10275000FA731A46084B2D219954FB7B064A002137
:10276000D154054800F021FA034B18461037BD46F6
:1027700080BD00BF676666662004002080B584B017
:1027800000AF0346FB800023FB73FA881F4BA3FBBB
:102790000213D9080B469B000B445B00D31A9BB273
:1027A000DAB2FB7B591CF973194602F13003DAB235
:1027B000174B5A5414E0FA88144BA3FB0213D908A0
:1027C0000B469B000B445B00D31A9BB2DAB2FB7B37
:1027D000591CF973194602F13003DAB20C4B5A5402
:1027E000FB880A4AA2FB0323DB08FB80FB88002B43
:1027F000E1D1FB7B064A0021D154054800F0D5F910
:10280000034B18461037BD4680BD00BFCDCCCCCCA5
:102810002004002080B584B000AF7860786800F0B4
:10282000ADF90346013BFB6014E0FB687A68134492
:102830001B78202B0BD0FB687A6813441B78092B7C
:1028400005D0FB687A6813441B780A2B06D1FB6815
:10285000013BFB60FB68002BE7DA00E000BFFB6890
:1028600001337A68134400221A70FB681846103747
:10287000BD4680BD80B485B000AF786039607A68AD
:102880003B689A4202DD7B68FB6001E03B68FB60CD
:10289000FB6818461437BD465DF8047B704780B46A
:1028A00085B000AF786039600CE07B683A6893FBD4
:1028B000F2F2396801FB02F29B1AFB603B687B6015
:1028C000FB683B603B68002BEFD17B6818461437F0
:1028D000BD465DF8047B704780B487B000AF786078
:1028E00000233B6100237B6111E07B697A6813441C
:1028F0001B78303BFB603A6913469B0013445B0036
:102900001A46FB6813443B617B6901337B617B6939
:102910007A6813441B782F2B05D97B697A68134496
:102920001B78392BE1D93B6918461C37BD465DF849
:10293000047B704780B483B000AF03460A46FB7146
:102940001346BB71FA79BB791340DBB218460C37DA
:10295000BD465DF8047B704780B485B000AF7860F9
:102960000023FB6002E0FB680133FB60FA687B68D0
:102970009A42F8D3FB6818461437BD465DF8047BCD
:10298000704780B485B000AF78607B6803F0800347
:10299000002B0AD07B685B427B607B68DBB27B608C
:1029A0007B685B42FB60FB6806E07B6803F07F03AB
:1029B0007B607B68FB60FB6818461437BD465DF89A
:1029C000047B704780B485B000AF78607B6803F407
:1029D0000073002B0BD07B685B427B607B68C3F38A
:1029E00009037B607B685B42FB60FB6806E07B68F9
:1029F000C3F308037B607B68FB60FB6818461437F1
:102A0000BD465DF8047B704780B485B000AF786048
:102A10000B46FB70FB78013B012202FA03F3FB60DB
:102A2000FB68013BBB607A68FB681340002B08D051
:102A30007A68BB6813407B607A68FB68D31A7B6056
:102A400003E07A68BB6813407B607B6818461437E4
:102A5000BD465DF8047B704780B483B000AF034689
:102A6000FB71FB790C4AA2FB0323DB08DBB21B01E1
:102A7000D8B2FA79084BA3FB0213D9080B469B0086
:102A80000B445B00D31ADBB20344DBB218460C37AD
:102A9000BD465DF8047B7047CDCCCCCC80B483B010
:102AA00000AF0346FB71FB791B09DBB21A469200AB
:102AB00013445B00DAB2FB7903F00F03DBB213447B
:102AC000DBB218460C37BD465DF8047B704700004A
:102AD00080B485B000AF78603960194A3B68134410
:102AE00000221A700023FB601FE0FB687A68134421
:102AF0001B78002B0DD107E0114AFB6813442022FC
:102B00001A70FB680133FB60FA683B689A42F3DB9A
:102B10000FE0FB687A6813441978094AFB6813448C
:102B20000A461A70FB680133FB60FA683B689A42F8
:102B3000DBDB034B18461437BD465DF8047B70475A
:102B40002004002080B485B000AFF860B9607A60DE
:102B50003B60FA68BB68D31AB9693A688A1A03FB02
:102B600002F27968BB68CB1A92FBF3F23B6813441C
:102B700018461437BD465DF8047B704780B485B0B5
:102B800000AF78600023FB6002E0FB680133FB606C
:102B9000FB687A6813441B78002BF6D1FB68184653
:102BA0001437BD465DF8047B704780B586B000AF32
:102BB000786000237B617868FFF7E0FF0346013B04
:102BC0003B6117E07B697A6813441B78FB733B69B0
:102BD0007A681A447B6979680B4412781A703B69E9
:102BE0007A681344FA7B1A707B6901337B613B6915
:102BF000013B3B617A693B699A42E3DB00BF00BF5E
:102C00001837BD4680BD80B483B000AF0346FB716A
:102C1000FB7903F00F03DAB2FB791B09DBB219462B
:102C200089000B445B00DBB21344DBB218460C375F
:102C3000BD465DF8047B704780B483B000AF786018
:102C40007B680D4AA2FB0323DB08DBB21B01D8B271
:102C50007968094BA3FB0123DA0813469B00134450
:102C60005B00CA1AD3B20344DBB218460C37BD4628
:102C70005DF8047B704700BFCDCCCCCC80B584B070
:102C800000AF786039607A683B689A4205DA3A4664
:102C90003B1D11461846FFF719FC3B68002B0FD16E
:102CA00003E03B687B60FB683B607B683A6893FBB2
:102CB000F2F101FB02F29B1AFB60FB68002BF0D1E2
:102CC0003B6818461037BD4680BD80B485B000AF64
:102CD00003460A46FB711346BB71FA79BB7942FA87
:102CE00003F303F00103002B02D00123FB7301E087
:102CF0000023FB73FB7B18461437BD465DF8047B4D
:102D00007047000080B485B000AF786039607B68A0
:102D1000013B012202FA03F3FB600023BB6015E0D4
:102D20003A68FB681340002B05D0104ABB68134477
:102D300031221A7004E00D4ABB68134430221A7025
:102D4000FB685B08FB60BB680133BB60FB68002B62
:102D5000E6D1064ABB68134400221A70034B18469A
:102D60001437BD465DF8047B704700BF2004002087
:102D700080B487B000AFF860B9601346FB710023E0
:102D8000FB75FA68274B83FB02139910D317C91AF6
:102D90000B469B000B445B00D11ACAB2FB7D591C49
:102DA000F9751946BB680B443032D2B21A7015E07F
:102DB000FA681C4B83FB02139910D317C91A0B46F0
:102DC0009B000B445B00D11ACAB2FB7D591CF975FC
:102DD0001946BB680B443032D2B21A70FB68114AF4
:102DE00082FB03129210DB17D31AFB60FB68002BE7
:102DF000DEDC07E0FB7D5A1CFA751A46BB681344FB
:102E000030221A70FA7DFB799A42F3D3FB7DBA68BF
:102E1000134400221A70FB7D18461C37BD465DF82E
:102E2000047B704767666666B0B58AB000AF87ED11
:102E3000020B78600B46FB700023FB774FF000021B
:102E40004FF00003D7E90201FDF768FE0346002BAF
:102E500008D0BC68FB6883F00045C7E90845FF233C
:102E6000BB7705E0D7E90223C7E908230123BB7735
:102E7000D7E90801FDF7B8FE0346BB61B869FDF765
:102E800061FB02460B46D7E90801FDF71DFA024631
:102E90000B46C7E90423BB69012279681846FFF78E
:102EA00067FF0346FB7797F91E30002B08DAFB7F9C
:102EB0005A1CFA771A467B6813442D221A7007E0D1
:102EC000FB7F5A1CFA771A467B68134420221A703B
:102ED000FB7F7A68134400221A707868FFF765FE5A
:102EE000FB78002B30D0FB78062B2DD8FB7F5A1CAB
:102EF000FA771A467B6813442E221A70FB7818461C
:102F0000FDF720FB02460B4643EC112B9FED220BF5
:102F100005F00AF951EC100BD7E90423FDF78CFBFF
:102F200002460B4610461946FDF736FEFB7F7A68CF
:102F30001344FA781946FFF71BFFFB7F7A681344A6
:102F40001846FFF732FE21E0FB7F5A1CFA771A463B
:102F50007B6813442E221A704FF00002104BD7E901
:102F60000401FDF769FB02460B4610461946FDF7C2
:102F700013FEFB7F7A68134402221946FFF7F8FE1E
:102F8000FB7F7A6813441846FFF70FFE7B681846EC
:102F90002837BD46B0BD00BF00000000000024403F
:102FA0000000594080B584B000AF78600023FB7307
:102FB000FB7B1E4A0021D1542CE07B685A4203F06F
:102FC0000F0302F00F0258BF5342BB60BB68092BCE
:102FD0000BDCBB68DAB2FB7B591CF973194602F1B2
:102FE0003003DAB2114B5A540AE0BB68DAB2FB7B09
:102FF000591CF973194602F13703DAB20B4B5A54D4
:10300000FB7B0A4A0021D1547B68002B00DA0F3386
:103010001B117B607B68002BCFD10448FFF7C5FDF7
:10302000024B18461037BD4680BD00BF200400206B
:1030300080B483B000AFB8803B799BB21B029AB2D8
:103040007B799BB213439BB218460C37BD465DF8A3
:10305000047B704780B483B000AFB8807B799BB2AB
:103060001B029AB23B799BB213439BB218460C37B2
:10307000BD465DF8047B704780B485B000AF034661
:10308000FB80FB881B0A9BB2DBB23B72FB88DBB286
:103090007B723B89BB8100233A7B62F307037A7B17
:1030A00062F30F2318461437BD465DF8047B704762
:1030B00080B485B000AF0346FB80FB881B0A9BB23F
:1030C000DBB27B72FB88DBB23B723B89BB810023A6
:1030D0003A7B62F307037A7B62F30F2318461437B7
:1030E000BD465DF8047B704780B485B000AF0346F1
:1030F000FB80FB881B02FB81FB881B0A9AB2FB89C1
:1031000013439BB218461437BD465DF8047B7047E5
:103110000FB480B582B000AF07F114033B603B6889
:103120003A695F21084804F041FB78607B68002B16
:1031300001DA002300E0044B18460837BD46BDE81D
:10314000804004B0704700BF20040020B0B5ADF54A
:10315000107D00AFC7F80C02C7F80812244C3B469C
:10316000184600F041FC07F51073A3F510732046D4
:1031700019464FF401731A4604F08CFA1D4AD7F829
:10318000083213601C4BC7F814321C4BC7F81832B6
:103190001B4BC7F81C321B4BC7F820321A4BC7F821
:1031A00024321A4BC7F82832194BC7F82C32194B66
:1031B000C7F83032184BC7F83432184BC7F83832DA
:1031C000174BC7F83C3200F02DF8D7F80C321D46EB
:1031D00007F505740FCC0FC50FCC0FC594E8070099
:1031E00085E80700D7F80C0207F51077BD46B0BD9B
:1031F0008004002084060020AD330008FD3500085F
:10320000D1370008293800080B3800084938000871
:1032100077380008D3380008F93800081939000851
:10322000A539000880B500AF5D4B1B681A685C4B80
:103230001B6822F03F021A60594B1B681A68584BF2
:103240001B6842F015021A60554B1B68DA68544B34
:103250001B6822F47F42DA60514B1B68DA68504BDE
:103260001B6842F4AA42DA604D4B1B681A684C4B4B
:103270001B6822F0C0021A60494B1B68DA68484B91
:103280001B6822F0C002DA60454B1B68DA68444BC9
:103290001B6842F04002DA60414B1B689B68404A61
:1032A000126823F47F4323F03F0393603C4B1B6879
:1032B0009B683B4A126843F47F4343F03F039360AB
:1032C000374B1B681B6903F00803364A1360364B03
:1032D000D3F86431142098470021382000F066F8B4
:1032E000314BD3F86831042098470021382000F092
:1032F0005DF82D4BD3F868310A209847002138201B
:1033000000F054F8284BD3F8683104209847002186
:10331000282000F04BF8244BD3F86831042098475C
:103320000021282000F042F81F4BD3F86831042018
:1033300098470021282000F039F800F049FA0021D0
:10334000282000F033F800F043FA00210C2000F0B0
:103350002DF800F03DFA00210C2000F027F800F0D5
:1033600037FA0021012000F021F800F031FA0021A5
:10337000012000F01BF800F02BFA0021062000F0DD
:1033800015F800F025FA0021062000F00FF800F0F3
:103390001FFA0021002000F0BFFA00BF80BD00BF6F
:1033A00084060020880600208004002080B582B0BA
:1033B00000AF03460A46FB711346BB808D4BD3F822
:1033C000E8318D4A1268012110469847BB88002BCE
:1033D00008D0884BD3F8DC31874A126800211046A8
:1033E000984707E0834BD3F8E831834A12680021FD
:1033F00010469847804B1B681A687F4B1B6822F465
:103400007F421A607C4B1B681A687B4B1B6842F436
:10341000AA421A60774BD3F8DC31774A126802214E
:103420001046984797F90730002B08DA714BD3F80C
:10343000DC31714A126807211046984707E06D4B4E
:10344000D3F8E8316C4A1268072110469847FB7997
:1034500003F04003002B08D0664BD3F8DC31664AFA
:10346000126806211046984707E0624BD3F8E8310E
:10347000614A1268062110469847FB7903F0200341
:10348000002B08D05B4BD3F8DC315B4A1268052176
:103490001046984707E0574BD3F8E831564A126870
:1034A000052110469847FB7903F01003002B08D044
:1034B000504BD3F8DC31504A12680421104698472B
:1034C00007E04C4BD3F8E8314B4A12680421104610
:1034D0009847484BD3F8E831474A12680221104612
:1034E0009847444BD3F8E831434A1268012110460B
:1034F0009847BB88002B08D03E4BD3F8DC313E4ABE
:10350000126800211046984707E03A4BD3F8E8319B
:10351000394A1268002110469847364BD3F8DC31FF
:10352000354A1268022110469847FB7903F00803D8
:10353000002B08D02F4BD3F8DC312F4A126807211B
:103540001046984707E02B4BD3F8E8312A4A126817
:10355000072110469847FB7903F00403002B08D09D
:10356000244BD3F8DC31244A1268062110469847D0
:1035700007E0204BD3F8E8311F4A126806211046B5
:103580009847FB7903F00203002B08D0194BD3F8BE
:10359000DC31194A126805211046984707E0154B9F
:1035A000D3F8E831144A1268052110469847FB7990
:1035B00003F00103002B08D00E4BD3F8DC310E4A88
:1035C000126804211046984707E00A4BD3F8E83107
:1035D000094A1268042110469847064BD3F8E8318F
:1035E000054A126802211046984700BF0837BD46B9
:1035F00080BD00BF800400208406002080B584B018
:1036000000AF0346FB800023BB600023FB736E4BBF
:103610001B681A686C4B1B6822F47F421A606B4B64
:10362000D3F8DC31684A1268012110469847FB88BC
:10363000002B08D0654BD3F8DC31634A12680021B7
:103640001046984707E0614BD3F8E8315E4A1268AC
:103650000021104698475D4BD3F8DC315A4A126876
:10366000022110469847584B1B681B69BB60574B9B
:10367000D3F8E831544A1268022110469847BB68D3
:1036800003F08003002B04D0FB7B63F07F03FB730C
:1036900003E0FB7B03F07F03FB73BB6803F0400395
:1036A000002B04D0FB7B43F04003FB7303E0FB7B68
:1036B00023F04003FB73BB6803F02003002B04D00E
:1036C000FB7B43F02003FB7303E0FB7B23F0200331
:1036D000FB73BB6803F01003002B04D0FB7B43F0AB
:1036E0001003FB7303E0FB7B23F01003FB73374BEA
:1036F000D3F8DC31344A1268012110469847FB8820
:10370000002B08D0314BD3F8DC312F4A126800214E
:103710001046984707E02D4BD3F8E8312A4A126843
:10372000002110469847294BD3F8DC31264A12680D
:10373000022110469847244B1B681B69BB60234B32
:10374000D3F8E831204A1268022110469847BB6836
:1037500003F08003002B04D0FB7B43F00803FB73D2
:1037600003E0FB7B23F00803FB73BB6803F040031B
:10377000002B04D0FB7B43F00403FB7303E0FB7BD3
:1037800023F00403FB73BB6803F02003002B04D079
:10379000FB7B43F00203FB7303E0FB7B23F002039C
:1037A000FB73BB6803F01003002B04D0FB7B43F0DA
:1037B0000103FB7303E0FB7B23F00103FB73FB7B43
:1037C00018461037BD4680BD8406002080040020C6
:1037D00080B582B000AF8023BB710023FB710AE08B
:1037E0000020FFF70BFF0346BB71FB79012B07D8C5
:1037F000FB790133FB7197F90630002BF0DB00E019
:1038000000BF00BF0837BD4680BD80B582B000AFA5
:103810000120FFF7F3FE0346FB71FFF7D9FFFB79A9
:1038200018460837BD4680BD80B582B000AF03465C
:10383000FB71FB7901211846FFF7B8FDFFF7C8FFC0
:1038400000BF0837BD4680BD80B584B000AF78604A
:1038500008E07B685A1C7A601B78FB73FB7B184678
:10386000FFF7E2FF7B681B78002BF2D100BF00BF9F
:103870001037BD4680BD80B584B000AF7860396038
:103880000023FB600FE07B685A1C7A601B78FB7298
:10389000FB680133FB60FA683B689A4208D8FB7A00
:1038A0001846FFF7C1FF7B681B78002BEBD107E0C0
:1038B00000BF05E02020FFF7B7FFFB680133FB6086
:1038C000FA683B689A42F5D300BF00BF1037BD4687
:1038D00080BD80B582B000AF786005E02020FFF7A2
:1038E000A3FF7B68013B7B607B68002BF6D100BFA8
:1038F00000BF0837BD4680BD80B500AF0021012064
:10390000FFF754FD034BD3F864310220984700BF02
:1039100080BD00BF8004002080B582B000AF786019
:1039200039607B68032B37D801A252F823F000BF1F
:1039300041390008573900086D39000883390008FB
:103940003B68DBB2803BDBB200211846FFF72EFD5F
:10395000FFF73EFF21E03B68DBB2403BDBB20021DA
:103960001846FFF723FDFFF733FF16E03B68DBB295
:103970006C3BDBB200211846FFF718FDFFF728FF6C
:103980000BE03B68DBB22C3BDBB200211846FFF7B3
:103990000DFDFFF71DFF00E000BF00BF0837BD466B
:1039A00080BD00BF80B582B000AF0D4B1B681B69A6
:1039B00003F008037B600B4B1B687A6853403B6045
:1039C0003A687B6813403B603B68002B01D0FFF7EF
:1039D00029FC044A7B68136000BF0837BD4680BDE0
:1039E000840600208806002090B585B002AF78607C
:1039F000974B00221A60974B00221A6096494FF0AD
:103A000000024FF00003C1E90023944B944A1A606E
:103A1000924B08221A71914B4FF4B472DA808F4B9B
:103A200004221A728D4B0F225A728C4B06229A7204
:103A30008C4B8A4A07CA83E807008B4B894A07CA1E
:103A400083E80700854B1B791946844BDB881846B1
:103A5000824B1B7A1C46814B5B7A1A467F4B9B7AC2
:103A60000193009223460246002000F06FFD7F4B39
:103A70007F4A1A607D4B7F4A5A607C4B7E4A9A602F
:103A80007A4B7E4ADA60794B7D4A1A61774B7D4AE0
:103A90005A61764B7C4A9A61744B7C4ADA61734B6B
:103AA0007B4A1A62714B7B4A5A62704B7A4A9A621D
:103AB0006E4B7A4ADA626D4B794A1A636B4B794ADC
:103AC0005A636A4B784A9A63684B784ADA63674B61
:103AD000774A1A64654B774A5A64644B764ADA64CB
:103AE000624B764A1A65614B754A9A645F4B754A18
:103AF0005A655E4B744A9A655C4B744ADA655B4B57
:103B0000734A1A66594B734A9A66584B724ADA6678
:103B1000564B724A5A66554B714A1A67534B714A53
:103B20005A67524B704A9A67504B704ADA674F4B4C
:103B30006F4AC3F884204D4B6E4AC3F888204B4B24
:103B40006D4AC3F88020494B6C4AC3F88C20474B20
:103B50006B4AC3F89020454B6A4AC3F89420434B04
:103B6000694AC3F89820414B684AC3F8A0203F4BEC
:103B7000674AC3F8A4203D4B664AC3F89C203B4BE0
:103B8000654AC3F8A820394B644AC3F8AC20374BC8
:103B9000634AC3F8B020354B624AC3F8B420334BB4
:103BA000614AC3F8BC20314B604AC3F8C0202F4B98
:103BB0005F4AC3F8B8202D4B5E4AC3F8C4202B4B94
:103BC0005D4AC3F8C820294B5C4AC3F8CC20274B78
:103BD0005B4AC3F8D020254B5A4AC3F8D820234B60
:103BE000594AC3F8DC20214B584AC3F8D4201F4B54
:103BF000574AC3F8E0201D4B564AC3F8E4201B4B3C
:103C0000554AC3F8E820194B544AC3F8EC20174B27
:103C1000534AC3F8F020154B524AC3F8F420134B13
:103C2000514AC3F8F820114B504AC3F8FC200F4BFF
:103C30004F4AC3F800210D4B4E4AC3F804210B4BE9
:103C40004D4AC3F80821094B4C4AC3F80C2197E0B0
:103C50009C080020AC080020C0080020C8080020F4
:103C60000024F400D4080020E00800208C06002086
:103C7000003C02400030024000700040003802402A
:103C800029400008E54000086D410008294200086D
:103C9000AD420008194800084D4500081D470008BE
:103CA00071470008C547000800000240794B000832
:103CB000214C0008C94C0008714D0008954D0008C2
:103CC000B94D000800040240B14E0008594F0008E9
:103CD00001500008A9500008CD500008F15000081C
:103CE00000080240E95100089152000839530008C9
:103CF000E15300080554000829540008000C024054
:103D000021550008D9550008915600084957000868
:103D10006D5700089157000800100240995800089C
:103D200051590008095A0008C15A0008E55A00080C
:103D3000095B0008001C0240115C0008C95C000817
:103D4000815D0008395E00085D5E0008815E000844
:103D500000280040895F00087D630008FD620008BC
:103D600099620008196200086D600008FD60000893
:103D70008D610008616400088D650008F963000822
:103D8000654B664AC3F81021634B654AC3F814219A
:103D9000614B644AC3F818215F4B634AC3F838216A
:103DA0005D4B624AC3F83C215B4B614AC3F85C211E
:103DB000594B604AC3F86021574B5F4AC3F86421EE
:103DC000554B5E4AC3F86821534B5D4AC3F86C21DA
:103DD000514B5C4AC3F870214F4B5B4AC3F87421C6
:103DE0004D4B5A4AC3F878214B4B594AC3F87C21B2
:103DF000494B584AC3F88021474B574AC3F884219E
:103E0000454B564AC3F88821434B554AC3F88C2189
:103E1000414B544AC3F890213F4B534AC3F8942175
:103E20003D4B524AC3F898213B4B514AC3F89C2161
:103E3000394B504AC3F8A021374B4F4AC3F8A4214D
:103E4000354B4E4AC3F8A821334B4D4AC3F8AC2139
:103E5000314B4C4AC3F8B0212F4B4B4AC3F8B42125
:103E60002D4B4A4AC3F8B8212B4B494AC3F8BC2111
:103E7000294B484AC3F8C021274B474AC3F8C421FD
:103E8000254B464AC3F8C821234B454AC3F8CC21E9
:103E9000214B444AC3F8D0211F4B434AC3F8D421D5
:103EA0001D4B424AC3F8D8211B4B414AC3F8DC21C1
:103EB000194B404AC3F8E021174B3F4AC3F8E421AD
:103EC000154B3E4AC3F8E821134B3D4AC3F8EC2199
:103ED000114B3C4AC3F8F0210F4B3B4AC3F8F42185
:103EE0000D4B3A4AC3F8F8210B4B394AC3F8FC2171
:103EF000094B384AC3F8002203F0CEFA7B68064A21
:103F0000184611464FF401731A4603F0C3FB786854
:103F10000C37BD4690BD00BF8C0600200038014024
:103F200000600240106002400064024010640240E1
:103F300000E100E010E000E0D574000845750008DD
:103F4000B5750008004001400020014000230140F9
:103F5000B9660008416700086967000891670008B2
:103F6000CD6700082968000861680008001001405A
:103F7000896800080569000855690008A9690008F2
:103F8000216D0008D93F0008496D00087D6D0008CB
:103F9000C16D00086D6E0008196F00083D6F0008C4
:103FA000616F0008996F0008D16F0008C1480008D0
:103FB000134900083749000853490008A749000879
:103FC000CD490008F1490008914A0008F96F00083E
:103FD000757100084973000880B584B002AF0623EC
:103FE00001930F23009304234FF4B472082100209F
:103FF00000F0ACFA002000F091FB00230122012127
:10400000012000F053F9002000F00EF8002000F02D
:1040100069F80346FB71022000F0A8F8FB79184606
:104020000837BD4680BD000080B485B000AF786021
:104030000123FB600123BB6048E07B68002B17D1A4
:10404000FB68002B0AD0264BDB681A68244BDB6820
:1040500042F001021A600023FB6037E0204BDB686E
:104060001B6803F00203002B30D00023BB602DE05F
:104070007B68012B17D1FB68002B0AD0184BDB683B
:104080001A68174BDB6842F480321A600023FB6029
:104090001CE0134BDB681B6803F40033002B15D0C6
:1040A0000023BB6012E07B68022B0DD1FB68002B64
:1040B00007D00B4BDB681A68094BDB6842F480229F
:1040C0001A6001237B6001E000237B60BB68002B4A
:1040D000B3D100BF00BF1437BD465DF8047B704705
:1040E0008C06002080B483B000AF0346FB711E4BEA
:1040F000DB689A681C4BDB6822F003029A60FB794C
:10410000032B18D0032B1FDC012B02D0022B09D06C
:104110001AE0154BDB689A68134BDB6842F001022A
:104120009A6012E0104BDB689A680F4BDB6842F034
:1041300002029A6009E00C4BDB689A680A4BDB6864
:1041400042F003029A6000E000BF074BDB689B6807
:104150009B08DBB203F00303DBB218460C37BD4605
:104160005DF8047B704700BF8C06002080B485B0EA
:1041700000AF78600123FB600123BB6048E07B68EF
:10418000022B17D1FB68002B0AD0264BDB685A6F35
:10419000244BDB6842F001025A670023FB6037E0E2
:1041A000204BDB685B6F03F00203002B30D0002351
:1041B000BB602DE07B68012B17D1FB68002B0AD078
:1041C000184BDB681A6F174BDB6842F001021A6765
:1041D0000023FB601CE0134BDB681B6F03F0020342
:1041E000002B15D00023BB6012E07B68042B0DD19F
:1041F000FB68002B07D00B4BDB681A6F094BDB68A1
:1042000042F004021A6701237B6001E002237B6015
:10421000BB68002BB3D100BF00BF1437BD465DF8AB
:10422000047B70478C06002080B483B000AF034647
:10423000FB711D4BDB681A6F1B4BDB6822F440726D
:104240001A67FB79032B17D0032B1EDC012B0AD036
:10425000022B1AD1144BDB681A6F134BDB6842F444
:1042600000721A671AE0104BDB681A6F0E4BDB689E
:1042700042F480721A6711E00B4BDB681A6F0A4B2D
:10428000DB6842F440721A6708E0074BDB681A6F7C
:10429000054BDB6842F480721A6700BF00BF0C3721
:1042A000BD465DF8047B70478C06002080B487B063
:1042B00000AFF860B9607A603B60A24B7B61A24BB3
:1042C000DB6899687B69DA439F4BDB680A409A6038
:1042D0003B68012B0BD93B681F2B08D89A4BDB6836
:1042E00099683B681A04984BDB680A439A607B68BC
:1042F000023B0E2B44D801A252F823F039430008A8
:10430000814300084B4300088143000881430008B3
:10431000814300085D430008814300088143000891
:10432000814300088143000881430008814300085D
:10433000814300086F430008834BDB689A68824B17
:10434000DB6842F400429A601BE07F4BDB689A68AE
:104350007D4BDB6842F420429A6012E07A4BDB68C6
:104360009A68794BDB6842F440429A6009E0764BE8
:10437000DB689A68744BDB6842F460429A6000E044
:1043800000BFBB68023B0E2B44D801A252F823F0B9
:10439000CD43000815440008DF4300081544000819
:1043A0001544000815440008F143000815440008AE
:1043B0001544000815440008154400081544000879
:1043C0001544000815440008034400085E4BDB68F0
:1043D0009A685D4BDB6842F480529A601BE05A4B4E
:1043E000DB689A68584BDB6842F4A0529A6012E08E
:1043F000554BDB689A68544BDB6842F4C0529A60B4
:1044000009E0514BDB689A684F4BDB6842F4E0529D
:104410009A6000E000BFFB68B3F5007F00F0818088
:10442000FB68B3F5007F00F28580FB68B3F5807F01
:104430006ED0FB68B3F5807F7CD8FB68802B5ED0A4
:10444000FB68802B76D8FB68102B27D8FB68022BE3
:1044500070D3FB68023B0E2B6CD801A252F823F0FC
:10446000A544000835450008B74400083545000854
:104470003545000835450008C944000835450008A1
:104480003545000835450008354500083545000824
:104490003545000835450008DB440008FB68402B23
:1044A00024D047E0284BDB689A68274BDB6842F052
:1044B00080029A603FE0244BDB689A68224BDB68FD
:1044C00042F090029A6036E01F4BDB689A681E4B00
:1044D000DB6842F0A0029A602DE01B4BDB689A6813
:1044E000194BDB6842F0B0029A6024E0164BDB689F
:1044F0009A68154BDB6842F0C0029A601BE0124BD1
:10450000DB689A68104BDB6842F0D0029A6012E0D8
:104510000D4BDB689A680C4BDB6842F0E0029A6056
:1045200009E0094BDB689A68074BDB6842F0F00250
:104530009A6000E000BF00BF1C37BD465DF8047BF9
:10454000704700BFF0FC1F008C06002080B487B0CD
:1045500000AFF860B9607A603B606A4B7B616A4B80
:10456000DB685968684BDB687A690A435A607B6A82
:10457000012B11D97B6A072B0ED8634BDB68596876
:104580007B6A1B0763F0E0425F4BDB680A405A60BE
:104590007B6ADAB25D4B9A723B6A012B11D93B6A96
:1045A0000F2B0ED8584BDB6859683B6A1B0663F02B
:1045B0007062554BDB680A405A603B6ADAB2534B73
:1045C0005A72FB68012B0ED14F4BDB685968FB68B0
:1045D0009B0563F480024C4BDB680A405A604B4BEE
:1045E0004B4A1A600AE0484BDB685A68464BDB6866
:1045F00022F480025A60454B464A1A603B68023BEF
:10460000062B43D801A252F823F000BF2946000828
:104610008D460008434600088D4600085D460008A8
:104620008D46000877460008374BDB685A68364BE2
:10463000DB6822F440325A603B68DAB2334B1A72BC
:1046400030E0314BDB685A682F4BDB6822F40032D4
:104650005A603B68DAB22D4B1A7223E02A4BDB68B2
:104660005A68294BDB6822F480325A603B68DAB220
:10467000264B1A7216E0244BDA68234BDB6852682B
:104680005A603B68DAB2214B1A720BE01E4BDB68B2
:104690005A681D4BDB6822F400325A601B4B04221F
:1046A0001A7200BF7B68312B12D97B68B3F5D87FB3
:1046B0000ED8154BDB6859687B689A01164B13437B
:1046C000114AD2680B4053607B689AB20F4BDA8074
:1046D000BB68012B10D9BB683F2B0DD80A4BDB6898
:1046E0005968BB6863F03F02074BDB680A405A60B9
:1046F000BB68DAB2054B1A7100BF1C37BD465DF8C6
:10470000047B7047FF7F437F8C060020C808002091
:1047100040787D010024F4003F80FFFF80B483B027
:1047200000AF0346FB71FB79002B10D00F4BDB6809
:104730001A680E4BDB6842F080721A6000BF0B4BA8
:10474000DB681B6803F00073002BF8D007E0074B11
:10475000DB681A68054BDB6822F080721A6000BFC4
:104760000C37BD465DF8047B704700BF8C06002007
:1047700080B483B000AF0346FB71FB79002B10D0EF
:104780000F4BDB681A680E4BDB6842F080621A60E0
:1047900000BF0B4BDB681B6803F00063002BF8D0F5
:1047A00007E0074BDB681A68054BDB6822F0806284
:1047B0001A6000BF0C37BD465DF8047B704700BF30
:1047C0008C06002080B483B000AF0346FB71FB79F8
:1047D000002B10D00F4BDB681A680E4BDB6842F0E1
:1047E00080521A6000BF0B4BDB681B6803F000535C
:1047F000002BF8D007E0074BDB681A68054BDB6835
:1048000022F080521A6000BF0C37BD465DF8047B71
:10481000704700BF8C06002080B483B000AF244BEB
:10482000DB689B689B0803F00303032B38D801A2C5
:1048300052F823F045480008514800085D48000838
:104840007F4800081B4B1C4A1A601B4B7B6028E00A
:10485000184B1A4A1A60194B7B6022E0154B1B68F3
:10486000144A1279B3FBF2F3124AD2881146114A64
:10487000127A91FBF2F202FB03F37B6011E00D4B25
:104880001B680C4A1279B3FBF2F30A4AD28811462C
:10489000084A927A91FBF2F202FB03F37B6000E09C
:1048A00000BF7B6818460C37BD465DF8047B704737
:1048B0008C060020C80800200024F40040787D0108
:1048C0000EB480B484B000AF78607B69002B19DD32
:1048D0007B69202B16DC07F11803BB600023FB73F8
:1048E0000CE0BB681A1DBA601B68012202FA03F3D0
:1048F0001A467B689A61FB7B0133FB73FB7B7A6909
:104900009A42EEDC00BF1037BD465DF8047B03B071
:10491000704780B483B000AF7860396001223B6893
:1049200002FA03F31A467B689A6100BF0C37BD4652
:104930005DF8047B704780B483B000AF7860396065
:104940003A687B689A6100BF0C37BD465DF8047B0E
:1049500070470EB480B484B000AF78607B69002BE0
:104960001ADD7B69202B17DC07F11803BB600023DD
:10497000FB730DE0BB681A1DBA601B68012202FAC6
:1049800003F31B041A467B689A61FB7B0133FB73BC
:10499000FB7B7A699A42EDDC00BF1037BD465DF8BB
:1049A000047B03B0704780B483B000AF7860396097
:1049B00001223B6802FA03F31B041A467B689A61E2
:1049C00000BF0C37BD465DF8047B704780B483B0F0
:1049D00000AF786039603B681B041A467B689A61B7
:1049E00000BF0C37BD465DF8047B70470000000037
:1049F00080B586B000AFF860B9607A603B60B86897
:104A0000FBF7A0FD02460B4643EC112B9FED1C0B60
:104A100003F08AFB51EC100B4FF000021A4BFBF72E
:104A200053FC02460B4610461946FCF7DDF80346D8
:104A30007B617A687B6913407B60FB681A683B681E
:104A4000B96801FB03F3796901FA03F3DB431A4008
:104A5000FB681A60FB681A683B68B96801FB03F3DE
:104A6000796801FA03F31A43FB681A60FB681A6855
:104A7000FB681A6000BF1837BD4680BDAFF30080E9
:104A800000000000000000400000F03F00000000B7
:104A900080B588B000AFF860B9607A603B602023D1
:104AA000FB61B868FBF74EFD02460B4643EC112B49
:104AB0009FED2D0B03F038FB51EC100B4FF0000273
:104AC0002B4BFBF701FC02460B4610461946FCF740
:104AD0008BF80346BB613B68BA6803FB02F2FB69D3
:104AE000B2FBF3F37B617A68BB6913407B607B693F
:104AF0009B00FA68134419683B68BA6803FB02F22A
:104B00007B69F86900FB03F3D31ABA6902FA03F36D
:104B1000DA437B699B00F86803440A401A607B69AA
:104B20009B00FA68134419683B68BA6803FB02F2F9
:104B30007B69F86900FB03F3D31A7A689A407B69B2
:104B40009B00F86803440A431A607B699B00FA687B
:104B50001A447B699B00F9680B4412681A6000BF15
:104B60002037BD4680BD00BF0000000000000040AF
:104B70000000F03F0000000080B584B000AF786016
:104B800039600223FB60F868FBF7DCFC02460B4649
:104B900043EC112B9FED1E0B03F0C6FA51EC100BEA
:104BA0004FF000021C4BFBF78FFB02460B461046F2
:104BB0001946FCF719F80346BB607A68BB681340D6
:104BC0007B60164B9B6B19683B68FA6802FB03F32A
:104BD000BA6802FA03F3DA43104B9B6B0A401A607F
:104BE0000E4B9B6B19683B68FA6802FB03F37A680B
:104BF0009A400A4B9B6B0A431A60084B9A6B074B0F
:104C00009B6B12681A6000BF1037BD4680BD00BFA5
:104C100000000000000000400000F03F8C06002073
:104C200080B584B000AF786039600223FB60F8681B
:104C3000FBF788FC02460B4643EC112B9FED1E0B45
:104C400003F072FA51EC100B4FF000021C4BFBF713
:104C50003BFB02460B4610461946FBF7C5FF0346D1
:104C6000BB607A68BB6813407B60164B9B6B99688E
:104C70003B68FA6802FB03F3BA6802FA03F3DA430B
:104C8000104B9B6B0A409A600E4B9B6B99683B687C
:104C9000FA6802FB03F37A689A400A4B9B6B0A435B
:104CA0009A60084B9A6B074B9B6B92689A6000BFA7
:104CB0001037BD4680BD00BF00000000000000406E
:104CC0000000F03F8C06002080B584B000AF786013
:104CD00039600223FB60F868FBF734FC02460B46A0
:104CE00043EC112B9FED1E0B03F01EFA51EC100B41
:104CF0004FF000021C4BFBF7E7FA02460B4610464A
:104D00001946FBF771FF0346BB607A68BB68134026
:104D10007B60164B9B6BD9683B68FA6802FB03F318
:104D2000BA6802FA03F3DA43104B9B6B0A40DA606D
:104D30000E4B9B6BD9683B68FA6802FB03F37A68F9
:104D40009A400A4B9B6B0A43DA60084B9A6B074BFD
:104D50009B6BD268DA6000BF1037BD4680BD00BFD4
:104D600000000000000000400000F03F8C06002022
:104D700080B483B000AF7860054B9B6B7A681204F7
:104D80009A6100BF0C37BD465DF8047B704700BFD9
:104D90008C06002080B483B000AF7860044B9B6B1E
:104DA0007A689A6100BF0C37BD465DF8047B704796
:104DB0008C0600200000000080B586B000AF78604F
:104DC000396004237B6120233B617869FBF7BAFBE0
:104DD00002460B4643EC112B9FED310B03F0A4F977
:104DE00051EC100B4FF000022F4BFBF76DFA02460F
:104DF0000B4610461946FBF7F7FE0346FB603B687F
:104E00007A6903FB02F23B69B2FBF3F3BB607A6899
:104E1000FB6813407B60BB68012B3DD8234B9B6B29
:104E2000BA68083253F822103B687A6903FB02F231
:104E3000BB68386900FB03F3D31AFA6802FA03F37C
:104E4000DA431A4B9B6B1140BA68083243F82210C0
:104E5000164B9B6BBA68083253F822103B687A698C
:104E600003FB02F2BB68386900FB03F3D31A7A68CC
:104E70009A400E4B9B6B1143BA68083243F82210DC
:104E80000A4B9A6B094B9B6BB968083152F8211099
:104E9000BA68083243F8221000BF1837BD4680BDFB
:104EA00000000000000000400000F03F8C060020E1
:104EB00080B584B000AF786039600223FB60F86889
:104EC000FBF740FB02460B4643EC112B9FED1E0BFC
:104ED00003F02AF951EC100B4FF000021C4BFBF7CA
:104EE000F3F902460B4610461946FBF77DFE0346D2
:104EF000BB607A68BB6813407B60164B5B6D1968BA
:104F00003B68FA6802FB03F3BA6802FA03F3DA4378
:104F1000104B5B6D0A401A600E4B5B6D19683B6865
:104F2000FA6802FB03F37A689A400A4B5B6D0A4306
:104F30001A60084B5A6D074B5B6D12681A6000BF10
:104F40001037BD4680BD00BF0000000000000040DB
:104F50000000F03F8C06002080B584B000AF786080
:104F600039600223FB60F868FBF7ECFA02460B4657
:104F700043EC112B9FED1E0B03F0D6F851EC100BF8
:104F80004FF000021C4BFBF79FF902460B46104600
:104F90001946FBF729FE0346BB607A68BB681340DD
:104FA0007B60164B5B6D99683B68FA6802FB03F304
:104FB000BA6802FA03F3DA43104B5B6D0A409A6059
:104FC0000E4B5B6D99683B68FA6802FB03F37A68E5
:104FD0009A400A4B5B6D0A439A60084B5A6D074B27
:104FE0005B6D92689A6000BF1037BD4680BD00BF00
:104FF00000000000000000400000F03F8C06002090
:1050000080B584B000AF786039600223FB60F86837
:10501000FBF798FA02460B4643EC112B9FED1E0B53
:1050200003F082F851EC100B4FF000021C4BFBF721
:105030004BF902460B4610461946FBF7D5FD0346D1
:10504000BB607A68BB6813407B60164B5B6DD968A8
:105050003B68FA6802FB03F3BA6802FA03F3DA4327
:10506000104B5B6D0A40DA600E4B5B6DD9683B6894
:10507000FA6802FB03F37A689A400A4B5B6D0A43B5
:10508000DA60084B5A6D074B5B6DD268DA6000BF7F
:105090001037BD4680BD00BF00000000000000408A
:1050A0000000F03F8C06002080B483B000AF786031
:1050B000054B5B6D7A6812049A6100BF0C37BD46E0
:1050C0005DF8047B704700BF8C06002080B483B07D
:1050D00000AF7860044B5B6D7A689A6100BF0C3753
:1050E000BD465DF8047B70478C0600200000000080
:1050F00080B586B000AF7860396004237B612023DF
:105100003B617869FBF71EFA02460B4643EC112B14
:105110009FED310B03F008F851EC100B4FF000023B
:105120002F4BFBF7D1F802460B4610461946FBF70A
:105130005BFD0346FB603B687A6903FB02F23B6957
:10514000B2FBF3F3BB607A68FB6813407B60BB681B
:10515000012B3DD8234B5B6DBA68083253F82210FF
:105160003B687A6903FB02F2BB68386900FB03F312
:10517000D31AFA6802FA03F3DA431A4B5B6D114053
:10518000BA68083243F82210164B5B6DBA680832D1
:1051900053F822103B687A6903FB02F2BB68386956
:1051A00000FB03F3D31A7A689A400E4B5B6D1143F0
:1051B000BA68083243F822100A4B5A6D094B5B6DEE
:1051C000B968083152F82110BA68083243F8221041
:1051D00000BF1837BD4680BD000000000000004041
:1051E0000000F03F8C06002080B584B000AF7860EE
:1051F00039600223FB60F868FBF7A4F902460B460E
:1052000043EC112B9FED1E0B02F08EFF51EC100BA7
:105210004FF000021C4BFBF757F802460B461046B6
:105220001946FBF7E1FC0346BB607A68BB68134094
:105230007B60164B1B6F19683B68FA6802FB03F32F
:10524000BA6802FA03F3DA43104B1B6F0A401A6084
:105250000E4B1B6F19683B68FA6802FB03F37A6810
:105260009A400A4B1B6F0A431A60084B1A6F074B90
:105270001B6F12681A6000BF1037BD4680BD00BFAB
:1052800000000000000000400000F03F8C060020FD
:1052900080B584B000AF786039600223FB60F868A5
:1052A000FBF750F902460B4643EC112B9FED1E0B0A
:1052B00002F03AFF51EC100B4FF000021C4BFBF7D1
:1052C00003F802460B4610461946FBF78DFC0346D1
:1052D000BB607A68BB6813407B60164B1B6F996894
:1052E0003B68FA6802FB03F3BA6802FA03F3DA4395
:1052F000104B1B6F0A409A600E4B1B6F99683B68FE
:10530000FA6802FB03F37A689A400A4B1B6F0A4360
:105310009A60084B1A6F074B1B6F92689A6000BF28
:105320001037BD4680BD00BF0000000000000040F7
:105330000000F03F8C06002080B584B000AF78609C
:1053400039600223FB60F868FBF7FCF802460B4665
:1053500043EC112B9FED1E0B02F0E6FE51EC100BFF
:105360004FF000021C4BFAF7AFFF02460B46104607
:105370001946FBF739FC0346BB607A68BB681340EB
:105380007B60164B1B6FD9683B68FA6802FB03F31E
:10539000BA6802FA03F3DA43104B1B6F0A40DA6073
:1053A0000E4B1B6FD9683B68FA6802FB03F37A68FF
:1053B0009A400A4B1B6F0A43DA60084B1A6F074B7F
:1053C0001B6FD268DA6000BF1037BD4680BD00BFDA
:1053D00000000000000000400000F03F8C060020AC
:1053E00080B483B000AF7860054B1B6F7A681204FD
:1053F0009A6100BF0C37BD465DF8047B704700BF63
:105400008C06002080B483B000AF7860044B1B6F23
:105410007A689A6100BF0C37BD465DF8047B70471F
:105420008C0600200000000080B586B000AF7860D8
:10543000396004237B6120233B617869FBF782F8A4
:1054400002460B4643EC112B9FED310B02F06CFE34
:1054500051EC100B4FF000022F4BFAF735FF0246CC
:105460000B4610461946FBF7BFFB0346FB603B6843
:105470007A6903FB02F23B69B2FBF3F3BB607A6823
:10548000FB6813407B60BB68012B3DD8234B1B6F2F
:10549000BA68083253F822103B687A6903FB02F2BB
:1054A000BB68386900FB03F3D31AFA6802FA03F306
:1054B000DA431A4B1B6F1140BA68083243F82210C6
:1054C000164B1B6FBA68083253F822103B687A6992
:1054D00003FB02F2BB68386900FB03F3D31A7A6856
:1054E0009A400E4B1B6F1143BA68083243F82210E2
:1054F0000A4B1A6F094B1B6FB968083152F821101B
:10550000BA68083243F8221000BF1837BD4680BD84
:1055100000000000000000400000F03F8C0600206A
:1055200080B584B000AF786039600223FB60F86812
:10553000FBF708F802460B4643EC112B9FED220BBC
:1055400002F0F2FD51EC100B4FF00002204BFAF785
:10555000BBFE02460B4610461946FBF745FB0346C9
:10556000BB607A68BB6813407B601A4BD3F88C3001
:1055700019683B68FA6802FB03F3BA6802FA03F39E
:10558000DA43144BD3F88C300A401A60114BD3F82D
:105590008C3019683B68FA6802FB03F37A689A401A
:1055A0000C4BD3F88C300A431A600A4BD3F88C208A
:1055B000084BD3F88C3012681A6000BF1037BD4614
:1055C00080BD00BFAFF3008000000000000000407D
:1055D0000000F03F8C06002080B584B000AF7860FA
:1055E00039600223FB60F868FAF7ACFF02460B460D
:1055F00043EC112B9FED220B02F096FD51EC100BAA
:105600004FF00002204BFAF75FFE02460B461046B1
:105610001946FBF7E9FA0346BB607A68BB6813409A
:105620007B601A4BD3F88C3099683B68FA6802FBB0
:1056300003F3BA6802FA03F3DA43144BD3F88C305D
:105640000A409A60114BD3F88C3099683B68FA682D
:1056500002FB03F37A689A400C4BD3F88C300A4370
:105660009A600A4BD3F88C20084BD3F88C309268A0
:105670009A6000BF1037BD4680BD00BFAFF3008009
:1056800000000000000000400000F03F8C060020F9
:1056900080B584B000AF786039600223FB60F868A1
:1056A000FAF750FF02460B4643EC112B9FED220BFD
:1056B00002F03AFD51EC100B4FF00002204BFAF7CC
:1056C00003FE02460B4610461946FBF78DFA0346C9
:1056D000BB607A68BB6813407B601A4BD3F88C3090
:1056E000D9683B68FA6802FB03F3BA6802FA03F36D
:1056F000DA43144BD3F88C300A40DA60114BD3F8FC
:105700008C30D9683B68FA6802FB03F37A689A40E8
:105710000C4BD3F88C300A43DA600A4BD3F88C2058
:10572000084BD3F88C30D268DA6000BF1037BD4622
:1057300080BD00BFAFF3008000000000000000400B
:105740000000F03F8C06002080B483B000AF78608A
:10575000054BD3F88C307A6812049A6100BF0C377D
:10576000BD465DF8047B70478C06002080B483B092
:1057700000AF7860054BD3F88C307A689A6100BF2F
:105780000C37BD465DF8047B704700BF8C060020D7
:1057900080B586B000AF7860396004237B61202338
:1057A0003B617869FAF7CEFE02460B4643EC112BBB
:1057B0009FED350B02F0B8FC51EC100B4FF00002DE
:1057C000334BFAF781FD02460B4610461946FBF7AC
:1057D0000BFA0346FB603B687A6903FB02F23B6904
:1057E000B2FBF3F3BB607A68FB6813407B60BB6875
:1057F000012B43D8274BD3F88C30BA68083253F8C2
:1058000022103B687A6903FB02F2BB68386900FB2F
:1058100003F3D31AFA6802FA03F3DA431D4BD3F801
:105820008C301140BA68083243F82210194BD3F873
:105830008C30BA68083253F822103B687A6903FB4F
:1058400002F2BB68386900FB03F3D31A7A689A4006
:10585000104BD3F88C301143BA68083243F8221049
:105860000C4BD3F88C200B4BD3F88C30B968083133
:1058700052F82110BA68083243F8221000BF1837D6
:10588000BD4680BDAFF30080000000000000004076
:105890000000F03F8C06002080B584B000AF786037
:1058A00039600223FB60F868FAF74CFE02460B46AB
:1058B00043EC112B9FED220B02F036FC51EC100B48
:1058C0004FF00002204BFAF7FFFC02460B46104651
:1058D0001946FBF789F90346BB607A68BB68134039
:1058E0007B601A4BD3F8A83019683B68FA6802FB52
:1058F00003F3BA6802FA03F3DA43144BD3F8A8307F
:105900000A401A60114BD3F8A83019683B68FA684E
:1059100002FB03F37A689A400C4BD3F8A8300A4391
:105920001A600A4BD3F8A820084BD3F8A8301268A5
:105930001A6000BF1037BD4680BD00BFAFF30080C6
:1059400000000000000000400000F03F8C06002036
:1059500080B584B000AF786039600223FB60F868DE
:10596000FAF7F0FD02460B4643EC112B9FED220B9C
:1059700002F0DAFB51EC100B4FF00002204BFAF76B
:10598000A3FC02460B4610461946FBF72DF90346C9
:10599000BB607A68BB6813407B601A4BD3F8A830B1
:1059A00099683B68FA6802FB03F3BA6802FA03F3EA
:1059B000DA43144BD3F8A8300A409A60114BD3F85D
:1059C000A83099683B68FA6802FB03F37A689A404A
:1059D0000C4BD3F8A8300A439A600A4BD3F8A8209E
:1059E000084BD3F8A83092689A6000BF1037BD46C4
:1059F00080BD00BFAFF30080000000000000004049
:105A00000000F03F8C06002080B584B000AF7860C5
:105A100039600223FB60F868FAF794FD02460B46F2
:105A200043EC112B9FED220B02F07EFB51EC100B8F
:105A30004FF00002204BFAF747FC02460B46104697
:105A40001946FBF7D1F80346BB607A68BB68134080
:105A50007B601A4BD3F8A830D9683B68FA6802FB20
:105A600003F3BA6802FA03F3DA43144BD3F8A8300D
:105A70000A40DA60114BD3F8A830D9683B68FA685D
:105A800002FB03F37A689A400C4BD3F8A8300A4320
:105A9000DA600A4BD3F8A820084BD3F8A830D268B4
:105AA000DA6000BF1037BD4680BD00BFAFF3008095
:105AB00000000000000000400000F03F8C060020C5
:105AC00080B483B000AF7860054BD3F8A8307A6813
:105AD00012049A6100BF0C37BD465DF8047B704725
